{
	"contracts/VRFConsumer.sol": {
		"VRFConsumer": {
			"abi": [
				{
					"inputs": [
						{
							"internalType": "address",
							"name": "poolManager_",
							"type": "address"
						},
						{
							"internalType": "address",
							"name": "vrfCoordinator_",
							"type": "address"
						},
						{
							"internalType": "bytes32",
							"name": "keyHash_",
							"type": "bytes32"
						},
						{
							"internalType": "uint256",
							"name": "subscriptionId_",
							"type": "uint256"
						},
						{
							"internalType": "uint16",
							"name": "requestConfirmations_",
							"type": "uint16"
						},
						{
							"internalType": "uint32",
							"name": "callbackGasLimit_",
							"type": "uint32"
						}
					],
					"stateMutability": "nonpayable",
					"type": "constructor"
				},
				{
					"inputs": [],
					"name": "InvalidMsgSender",
					"type": "error"
				},
				{
					"inputs": [
						{
							"internalType": "address",
							"name": "have",
							"type": "address"
						},
						{
							"internalType": "address",
							"name": "want",
							"type": "address"
						}
					],
					"name": "OnlyCoordinatorCanFulfill",
					"type": "error"
				},
				{
					"inputs": [
						{
							"internalType": "address",
							"name": "have",
							"type": "address"
						},
						{
							"internalType": "address",
							"name": "owner",
							"type": "address"
						},
						{
							"internalType": "address",
							"name": "coordinator",
							"type": "address"
						}
					],
					"name": "OnlyOwnerOrCoordinator",
					"type": "error"
				},
				{
					"inputs": [],
					"name": "ZeroAddress",
					"type": "error"
				},
				{
					"anonymous": false,
					"inputs": [
						{
							"indexed": false,
							"internalType": "address",
							"name": "vrfCoordinator",
							"type": "address"
						}
					],
					"name": "CoordinatorSet",
					"type": "event"
				},
				{
					"anonymous": false,
					"inputs": [
						{
							"indexed": true,
							"internalType": "address",
							"name": "from",
							"type": "address"
						},
						{
							"indexed": true,
							"internalType": "address",
							"name": "to",
							"type": "address"
						}
					],
					"name": "OwnershipTransferRequested",
					"type": "event"
				},
				{
					"anonymous": false,
					"inputs": [
						{
							"indexed": true,
							"internalType": "address",
							"name": "from",
							"type": "address"
						},
						{
							"indexed": true,
							"internalType": "address",
							"name": "to",
							"type": "address"
						}
					],
					"name": "OwnershipTransferred",
					"type": "event"
				},
				{
					"inputs": [],
					"name": "acceptOwnership",
					"outputs": [],
					"stateMutability": "nonpayable",
					"type": "function"
				},
				{
					"inputs": [],
					"name": "callbackGasLimit",
					"outputs": [
						{
							"internalType": "uint32",
							"name": "",
							"type": "uint32"
						}
					],
					"stateMutability": "view",
					"type": "function"
				},
				{
					"inputs": [],
					"name": "keyHash",
					"outputs": [
						{
							"internalType": "bytes32",
							"name": "",
							"type": "bytes32"
						}
					],
					"stateMutability": "view",
					"type": "function"
				},
				{
					"inputs": [],
					"name": "owner",
					"outputs": [
						{
							"internalType": "address",
							"name": "",
							"type": "address"
						}
					],
					"stateMutability": "view",
					"type": "function"
				},
				{
					"inputs": [],
					"name": "poolManager",
					"outputs": [
						{
							"internalType": "address",
							"name": "",
							"type": "address"
						}
					],
					"stateMutability": "view",
					"type": "function"
				},
				{
					"inputs": [
						{
							"internalType": "uint256",
							"name": "requestId",
							"type": "uint256"
						},
						{
							"internalType": "uint256[]",
							"name": "randomWords",
							"type": "uint256[]"
						}
					],
					"name": "rawFulfillRandomWords",
					"outputs": [],
					"stateMutability": "nonpayable",
					"type": "function"
				},
				{
					"inputs": [],
					"name": "requestConfirmations",
					"outputs": [
						{
							"internalType": "uint16",
							"name": "",
							"type": "uint16"
						}
					],
					"stateMutability": "view",
					"type": "function"
				},
				{
					"inputs": [],
					"name": "requestRandomWords",
					"outputs": [
						{
							"internalType": "uint256",
							"name": "requestId",
							"type": "uint256"
						}
					],
					"stateMutability": "nonpayable",
					"type": "function"
				},
				{
					"inputs": [],
					"name": "s_vrfCoordinator",
					"outputs": [
						{
							"internalType": "contract IVRFCoordinatorV2Plus",
							"name": "",
							"type": "address"
						}
					],
					"stateMutability": "view",
					"type": "function"
				},
				{
					"inputs": [
						{
							"internalType": "address",
							"name": "_vrfCoordinator",
							"type": "address"
						}
					],
					"name": "setCoordinator",
					"outputs": [],
					"stateMutability": "nonpayable",
					"type": "function"
				},
				{
					"inputs": [],
					"name": "subscriptionId",
					"outputs": [
						{
							"internalType": "uint256",
							"name": "",
							"type": "uint256"
						}
					],
					"stateMutability": "view",
					"type": "function"
				},
				{
					"inputs": [
						{
							"internalType": "address",
							"name": "to",
							"type": "address"
						}
					],
					"name": "transferOwnership",
					"outputs": [],
					"stateMutability": "nonpayable",
					"type": "function"
				},
				{
					"inputs": [
						{
							"internalType": "uint32",
							"name": "newGasLimit",
							"type": "uint32"
						}
					],
					"name": "updateCallbackGasLimit",
					"outputs": [],
					"stateMutability": "nonpayable",
					"type": "function"
				},
				{
					"inputs": [
						{
							"internalType": "bytes32",
							"name": "newKeyHash",
							"type": "bytes32"
						}
					],
					"name": "updateKeyHash",
					"outputs": [],
					"stateMutability": "nonpayable",
					"type": "function"
				},
				{
					"inputs": [
						{
							"internalType": "uint16",
							"name": "newRequestConfirmations",
							"type": "uint16"
						}
					],
					"name": "updateRequestConfirmations",
					"outputs": [],
					"stateMutability": "nonpayable",
					"type": "function"
				},
				{
					"inputs": [
						{
							"internalType": "uint64",
							"name": "newSubscriptionId",
							"type": "uint64"
						}
					],
					"name": "updateSubscriptionId",
					"outputs": [],
					"stateMutability": "nonpayable",
					"type": "function"
				}
			],
			"devdoc": {
				"kind": "dev",
				"methods": {},
				"version": 1
			},
			"evm": {
				"assembly": "    /* \"contracts/VRFConsumer.sol\":312:2419  contract VRFConsumer is IVRFConsumer, VRFConsumerBaseV2Plus {... */\n  mstore(0x40, 0x80)\n    /* \"contracts/VRFConsumer.sol\":581:1046  constructor(... */\n  callvalue\n  dup1\n  iszero\n  tag_1\n  jumpi\n  0x00\n  dup1\n  revert\ntag_1:\n  pop\n  mload(0x40)\n  sub(codesize, bytecodeSize)\n  dup1\n  bytecodeSize\n  dup4\n  codecopy\n  dup2\n  add\n  0x40\n  dup2\n  swap1\n  mstore\n  tag_2\n  swap2\n  tag_3\n  jump\t// in\ntag_2:\n    /* \"contracts/VRFConsumer.sol\":816:831  vrfCoordinator_ */\n  dup5\n    /* \"@chainlink/contracts/src/v0.8/vrf/dev/VRFConsumerBaseV2Plus.sol\":6254:6264  msg.sender */\n  caller\n  dup1\n    /* \"@chainlink/contracts/src/v0.8/shared/access/ConfirmedOwner.sol\":373:374  0 */\n  0x00\n    /* \"@chainlink/contracts/src/v0.8/vrf/dev/VRFConsumerBaseV2Plus.sol\":6254:6264  msg.sender */\n  dup2\n    /* \"@chainlink/contracts/src/v0.8/shared/access/ConfirmedOwnerWithProposal.sol\":586:645  require(newOwner != address(0), \"Cannot set owner to zero\") */\n  tag_9\n  jumpi\n  mload(0x40)\n  shl(0xe5, 0x461bcd)\n  dup2\n  mstore\n    /* \"#utility.yul\":1139:1141   */\n  0x20\n    /* \"@chainlink/contracts/src/v0.8/shared/access/ConfirmedOwnerWithProposal.sol\":586:645  require(newOwner != address(0), \"Cannot set owner to zero\") */\n  0x04\n  dup3\n  add\n    /* \"#utility.yul\":1121:1142   */\n  mstore\n    /* \"#utility.yul\":1178:1180   */\n  0x18\n    /* \"#utility.yul\":1158:1176   */\n  0x24\n  dup3\n  add\n    /* \"#utility.yul\":1151:1181   */\n  mstore\n    /* \"#utility.yul\":1217:1243   */\n  0x43616e6e6f7420736574206f776e657220746f207a65726f0000000000000000\n    /* \"#utility.yul\":1197:1215   */\n  0x44\n  dup3\n  add\n    /* \"#utility.yul\":1190:1244   */\n  mstore\n    /* \"#utility.yul\":1261:1279   */\n  0x64\n  add\n    /* \"@chainlink/contracts/src/v0.8/shared/access/ConfirmedOwnerWithProposal.sol\":586:645  require(newOwner != address(0), \"Cannot set owner to zero\") */\ntag_10:\n  mload(0x40)\n  dup1\n  swap2\n  sub\n  swap1\n  revert\ntag_9:\n    /* \"@chainlink/contracts/src/v0.8/shared/access/ConfirmedOwnerWithProposal.sol\":652:659  s_owner */\n  0x00\n    /* \"@chainlink/contracts/src/v0.8/shared/access/ConfirmedOwnerWithProposal.sol\":652:670  s_owner = newOwner */\n  dup1\n  sload\n  not(sub(shl(0xa0, 0x01), 0x01))\n  and\n  sub(shl(0xa0, 0x01), 0x01)\n  dup5\n  dup2\n  and\n  swap2\n  swap1\n  swap2\n  or\n  swap1\n  swap2\n  sstore\n    /* \"@chainlink/contracts/src/v0.8/shared/access/ConfirmedOwnerWithProposal.sol\":680:706  pendingOwner != address(0) */\n  dup2\n  and\n  iszero\n    /* \"@chainlink/contracts/src/v0.8/shared/access/ConfirmedOwnerWithProposal.sol\":676:755  if (pendingOwner != address(0)) {... */\n  tag_13\n  jumpi\n    /* \"@chainlink/contracts/src/v0.8/shared/access/ConfirmedOwnerWithProposal.sol\":716:748  _transferOwnership(pendingOwner) */\n  tag_13\n    /* \"@chainlink/contracts/src/v0.8/shared/access/ConfirmedOwnerWithProposal.sol\":735:747  pendingOwner */\n  dup2\n    /* \"@chainlink/contracts/src/v0.8/shared/access/ConfirmedOwnerWithProposal.sol\":716:734  _transferOwnership */\n  tag_14\n    /* \"@chainlink/contracts/src/v0.8/shared/access/ConfirmedOwnerWithProposal.sol\":716:748  _transferOwnership(pendingOwner) */\n  jump\t// in\ntag_13:\n  pop\n  pop\n    /* \"@chainlink/contracts/src/v0.8/vrf/dev/VRFConsumerBaseV2Plus.sol\":6272:6288  s_vrfCoordinator */\n  0x02\n    /* \"@chainlink/contracts/src/v0.8/vrf/dev/VRFConsumerBaseV2Plus.sol\":6272:6329  s_vrfCoordinator = IVRFCoordinatorV2Plus(_vrfCoordinator) */\n  dup1\n  sload\n  sub(shl(0xa0, 0x01), 0x01)\n  swap4\n  dup5\n  and\n  not(sub(shl(0xa0, 0x01), 0x01))\n  swap2\n  dup3\n  and\n  or\n  swap1\n  swap2\n  sstore\n    /* \"contracts/VRFConsumer.sol\":843:854  poolManager */\n  0x03\n    /* \"contracts/VRFConsumer.sol\":843:869  poolManager = poolManager_ */\n  dup1\n  sload\n  swap10\n  swap1\n  swap4\n  and\n  swap9\n  and\n  swap8\n  swap1\n  swap8\n  or\n  swap1\n  sstore\n    /* \"contracts/VRFConsumer.sol\":879:886  keyHash */\n  0x04\n    /* \"contracts/VRFConsumer.sol\":879:897  keyHash = keyHash_ */\n  swap4\n  swap1\n  swap4\n  sstore\n    /* \"contracts/VRFConsumer.sol\":907:921  subscriptionId */\n  0x05\n    /* \"contracts/VRFConsumer.sol\":907:939  subscriptionId = subscriptionId_ */\n  swap2\n  swap1\n  swap2\n  sstore\n    /* \"contracts/VRFConsumer.sol\":949:969  requestConfirmations */\n  0x06\n    /* \"contracts/VRFConsumer.sol\":949:993  requestConfirmations = requestConfirmations_ */\n  dup1\n  sload\n    /* \"contracts/VRFConsumer.sol\":1003:1039  callbackGasLimit = callbackGasLimit_ */\n  0xffffffff\n  swap1\n  swap4\n  and\n  0x010000\n  mul\n  not(0xffffffffffff)\n  swap1\n  swap4\n  and\n    /* \"contracts/VRFConsumer.sol\":949:993  requestConfirmations = requestConfirmations_ */\n  0xffff\n  swap1\n  swap3\n  and\n    /* \"contracts/VRFConsumer.sol\":1003:1039  callbackGasLimit = callbackGasLimit_ */\n  swap2\n  swap1\n  swap2\n  or\n  swap2\n  swap1\n  swap2\n  or\n  swap1\n  sstore\n  pop\n    /* \"contracts/VRFConsumer.sol\":312:2419  contract VRFConsumer is IVRFConsumer, VRFConsumerBaseV2Plus {... */\n  tag_24\n  swap1\n  pop\n  jump\n    /* \"@chainlink/contracts/src/v0.8/shared/access/ConfirmedOwnerWithProposal.sol\":1528:1763  function _transferOwnership(address to) private {... */\ntag_14:\n    /* \"@chainlink/contracts/src/v0.8/shared/access/ConfirmedOwnerWithProposal.sol\":1643:1653  msg.sender */\n  caller\n  sub(shl(0xa0, 0x01), 0x01)\n    /* \"@chainlink/contracts/src/v0.8/shared/access/ConfirmedOwnerWithProposal.sol\":1637:1653  to != msg.sender */\n  dup3\n  and\n  sub\n    /* \"@chainlink/contracts/src/v0.8/shared/access/ConfirmedOwnerWithProposal.sol\":1629:1681  require(to != msg.sender, \"Cannot transfer to self\") */\n  tag_20\n  jumpi\n  mload(0x40)\n  shl(0xe5, 0x461bcd)\n  dup2\n  mstore\n    /* \"#utility.yul\":1492:1494   */\n  0x20\n    /* \"@chainlink/contracts/src/v0.8/shared/access/ConfirmedOwnerWithProposal.sol\":1629:1681  require(to != msg.sender, \"Cannot transfer to self\") */\n  0x04\n  dup3\n  add\n    /* \"#utility.yul\":1474:1495   */\n  mstore\n    /* \"#utility.yul\":1531:1533   */\n  0x17\n    /* \"#utility.yul\":1511:1529   */\n  0x24\n  dup3\n  add\n    /* \"#utility.yul\":1504:1534   */\n  mstore\n    /* \"#utility.yul\":1570:1595   */\n  0x43616e6e6f74207472616e7366657220746f2073656c66000000000000000000\n    /* \"#utility.yul\":1550:1568   */\n  0x44\n  dup3\n  add\n    /* \"#utility.yul\":1543:1596   */\n  mstore\n    /* \"#utility.yul\":1613:1631   */\n  0x64\n  add\n    /* \"@chainlink/contracts/src/v0.8/shared/access/ConfirmedOwnerWithProposal.sol\":1629:1681  require(to != msg.sender, \"Cannot transfer to self\") */\n  tag_10\n    /* \"#utility.yul\":1290:1637   */\n  jump\n    /* \"@chainlink/contracts/src/v0.8/shared/access/ConfirmedOwnerWithProposal.sol\":1629:1681  require(to != msg.sender, \"Cannot transfer to self\") */\ntag_20:\n    /* \"@chainlink/contracts/src/v0.8/shared/access/ConfirmedOwnerWithProposal.sol\":1688:1702  s_pendingOwner */\n  0x01\n    /* \"@chainlink/contracts/src/v0.8/shared/access/ConfirmedOwnerWithProposal.sol\":1688:1707  s_pendingOwner = to */\n  dup1\n  sload\n  not(sub(shl(0xa0, 0x01), 0x01))\n  and\n  sub(shl(0xa0, 0x01), 0x01)\n  dup4\n  dup2\n  and\n  swap2\n  dup3\n  or\n  swap1\n  swap3\n  sstore\n  0x00\n    /* \"@chainlink/contracts/src/v0.8/shared/access/ConfirmedOwnerWithProposal.sol\":1746:1753  s_owner */\n  dup1\n  sload\n    /* \"@chainlink/contracts/src/v0.8/shared/access/ConfirmedOwnerWithProposal.sol\":1719:1758  OwnershipTransferRequested(s_owner, to) */\n  mload(0x40)\n    /* \"@chainlink/contracts/src/v0.8/shared/access/ConfirmedOwnerWithProposal.sol\":1688:1707  s_pendingOwner = to */\n  swap3\n  swap4\n    /* \"@chainlink/contracts/src/v0.8/shared/access/ConfirmedOwnerWithProposal.sol\":1746:1753  s_owner */\n  and\n  swap2\n    /* \"@chainlink/contracts/src/v0.8/shared/access/ConfirmedOwnerWithProposal.sol\":1719:1758  OwnershipTransferRequested(s_owner, to) */\n  0xed8889f560326eb138920d842192f0eb3dd22b4f139c87a2c57538e05bae1278\n  swap2\n  swap1\n  log3\n    /* \"@chainlink/contracts/src/v0.8/shared/access/ConfirmedOwnerWithProposal.sol\":1528:1763  function _transferOwnership(address to) private {... */\n  pop\n  jump\t// out\n    /* \"#utility.yul\":14:191   */\ntag_23:\n    /* \"#utility.yul\":93:106   */\n  dup1\n  mload\n  sub(shl(0xa0, 0x01), 0x01)\n    /* \"#utility.yul\":135:166   */\n  dup2\n  and\n    /* \"#utility.yul\":125:167   */\n  dup2\n  eq\n    /* \"#utility.yul\":115:185   */\n  tag_26\n  jumpi\n    /* \"#utility.yul\":181:182   */\n  0x00\n    /* \"#utility.yul\":178:179   */\n  dup1\n    /* \"#utility.yul\":171:183   */\n  revert\n    /* \"#utility.yul\":115:185   */\ntag_26:\n    /* \"#utility.yul\":14:191   */\n  swap2\n  swap1\n  pop\n  jump\t// out\n    /* \"#utility.yul\":196:932   */\ntag_3:\n    /* \"#utility.yul\":309:315   */\n  0x00\n    /* \"#utility.yul\":317:323   */\n  dup1\n    /* \"#utility.yul\":325:331   */\n  0x00\n    /* \"#utility.yul\":333:339   */\n  dup1\n    /* \"#utility.yul\":341:347   */\n  0x00\n    /* \"#utility.yul\":349:355   */\n  dup1\n    /* \"#utility.yul\":402:405   */\n  0xc0\n    /* \"#utility.yul\":390:399   */\n  dup8\n    /* \"#utility.yul\":381:388   */\n  dup10\n    /* \"#utility.yul\":377:400   */\n  sub\n    /* \"#utility.yul\":373:406   */\n  slt\n    /* \"#utility.yul\":370:423   */\n  iszero\n  tag_28\n  jumpi\n    /* \"#utility.yul\":419:420   */\n  0x00\n    /* \"#utility.yul\":416:417   */\n  dup1\n    /* \"#utility.yul\":409:421   */\n  revert\n    /* \"#utility.yul\":370:423   */\ntag_28:\n    /* \"#utility.yul\":442:482   */\n  tag_29\n    /* \"#utility.yul\":472:481   */\n  dup8\n    /* \"#utility.yul\":442:482   */\n  tag_23\n  jump\t// in\ntag_29:\n    /* \"#utility.yul\":432:482   */\n  swap6\n  pop\n    /* \"#utility.yul\":501:550   */\n  tag_30\n    /* \"#utility.yul\":546:548   */\n  0x20\n    /* \"#utility.yul\":535:544   */\n  dup9\n    /* \"#utility.yul\":531:549   */\n  add\n    /* \"#utility.yul\":501:550   */\n  tag_23\n  jump\t// in\ntag_30:\n    /* \"#utility.yul\":491:550   */\n  swap5\n  pop\n    /* \"#utility.yul\":590:592   */\n  0x40\n    /* \"#utility.yul\":579:588   */\n  dup8\n    /* \"#utility.yul\":575:593   */\n  add\n    /* \"#utility.yul\":569:594   */\n  mload\n    /* \"#utility.yul\":559:594   */\n  swap4\n  pop\n    /* \"#utility.yul\":634:636   */\n  0x60\n    /* \"#utility.yul\":623:632   */\n  dup8\n    /* \"#utility.yul\":619:637   */\n  add\n    /* \"#utility.yul\":613:638   */\n  mload\n    /* \"#utility.yul\":603:638   */\n  swap3\n  pop\n    /* \"#utility.yul\":681:684   */\n  0x80\n    /* \"#utility.yul\":670:679   */\n  dup8\n    /* \"#utility.yul\":666:685   */\n  add\n    /* \"#utility.yul\":660:686   */\n  mload\n    /* \"#utility.yul\":726:732   */\n  0xffff\n    /* \"#utility.yul\":719:724   */\n  dup2\n    /* \"#utility.yul\":715:733   */\n  and\n    /* \"#utility.yul\":708:713   */\n  dup2\n    /* \"#utility.yul\":705:734   */\n  eq\n    /* \"#utility.yul\":695:752   */\n  tag_31\n  jumpi\n    /* \"#utility.yul\":748:749   */\n  0x00\n    /* \"#utility.yul\":745:746   */\n  dup1\n    /* \"#utility.yul\":738:750   */\n  revert\n    /* \"#utility.yul\":695:752   */\ntag_31:\n    /* \"#utility.yul\":821:824   */\n  0xa0\n    /* \"#utility.yul\":806:825   */\n  dup9\n  add\n    /* \"#utility.yul\":800:826   */\n  mload\n    /* \"#utility.yul\":771:776   */\n  swap1\n  swap3\n  pop\n    /* \"#utility.yul\":870:880   */\n  0xffffffff\n    /* \"#utility.yul\":857:881   */\n  dup2\n  and\n    /* \"#utility.yul\":845:882   */\n  dup2\n  eq\n    /* \"#utility.yul\":835:900   */\n  tag_32\n  jumpi\n    /* \"#utility.yul\":896:897   */\n  0x00\n    /* \"#utility.yul\":893:894   */\n  dup1\n    /* \"#utility.yul\":886:898   */\n  revert\n    /* \"#utility.yul\":835:900   */\ntag_32:\n    /* \"#utility.yul\":919:926   */\n  dup1\n    /* \"#utility.yul\":909:926   */\n  swap2\n  pop\n  pop\n    /* \"#utility.yul\":196:932   */\n  swap3\n  swap6\n  pop\n  swap3\n  swap6\n  pop\n  swap3\n  swap6\n  jump\t// out\n    /* \"#utility.yul\":1290:1637   */\ntag_24:\n    /* \"contracts/VRFConsumer.sol\":312:2419  contract VRFConsumer is IVRFConsumer, VRFConsumerBaseV2Plus {... */\n  dataSize(sub_0)\n  dup1\n  dataOffset(sub_0)\n  0x00\n  codecopy\n  0x00\n  return\nstop\n\nsub_0: assembly {\n        /* \"contracts/VRFConsumer.sol\":312:2419  contract VRFConsumer is IVRFConsumer, VRFConsumerBaseV2Plus {... */\n      mstore(0x40, 0x80)\n      callvalue\n      dup1\n      iszero\n      tag_1\n      jumpi\n      0x00\n      dup1\n      revert\n    tag_1:\n      pop\n      jumpi(tag_2, lt(calldatasize, 0x04))\n      shr(0xe0, calldataload(0x00))\n      dup1\n      0x9eccacf6\n      gt\n      tag_19\n      jumpi\n      dup1\n      0xdc4c90d3\n      gt\n      tag_20\n      jumpi\n      dup1\n      0xdc4c90d3\n      eq\n      tag_15\n      jumpi\n      dup1\n      0xe0c86289\n      eq\n      tag_16\n      jumpi\n      dup1\n      0xe7fa67e5\n      eq\n      tag_17\n      jumpi\n      dup1\n      0xf2fde38b\n      eq\n      tag_18\n      jumpi\n      0x00\n      dup1\n      revert\n    tag_20:\n      dup1\n      0x9eccacf6\n      eq\n      tag_11\n      jumpi\n      dup1\n      0xb0e8d086\n      eq\n      tag_12\n      jumpi\n      dup1\n      0xb0fb162f\n      eq\n      tag_13\n      jumpi\n      dup1\n      0xba00f6c5\n      eq\n      tag_14\n      jumpi\n      0x00\n      dup1\n      revert\n    tag_19:\n      dup1\n      0x61728f39\n      gt\n      tag_21\n      jumpi\n      dup1\n      0x61728f39\n      eq\n      tag_7\n      jumpi\n      dup1\n      0x79ba5097\n      eq\n      tag_8\n      jumpi\n      dup1\n      0x8da5cb5b\n      eq\n      tag_9\n      jumpi\n      dup1\n      0x8ea98117\n      eq\n      tag_10\n      jumpi\n      0x00\n      dup1\n      revert\n    tag_21:\n      dup1\n      0x09c1ba2e\n      eq\n      tag_3\n      jumpi\n      dup1\n      0x14b1dd1b\n      eq\n      tag_4\n      jumpi\n      dup1\n      0x1fe543e3\n      eq\n      tag_5\n      jumpi\n      dup1\n      0x24f74697\n      eq\n      tag_6\n      jumpi\n    tag_2:\n      0x00\n      dup1\n      revert\n        /* \"contracts/VRFConsumer.sol\":469:498  uint256 public subscriptionId */\n    tag_3:\n      tag_22\n      sload(0x05)\n      dup2\n      jump\n    tag_22:\n      mload(0x40)\n        /* \"#utility.yul\":160:185   */\n      swap1\n      dup2\n      mstore\n        /* \"#utility.yul\":148:150   */\n      0x20\n        /* \"#utility.yul\":133:151   */\n      add\n        /* \"contracts/VRFConsumer.sol\":469:498  uint256 public subscriptionId */\n    tag_24:\n      mload(0x40)\n      dup1\n      swap2\n      sub\n      swap1\n      return\n        /* \"contracts/VRFConsumer.sol\":1157:1283  function updateSubscriptionId(uint64 newSubscriptionId) external onlyOwner {... */\n    tag_4:\n      tag_26\n      tag_27\n      calldatasize\n      0x04\n      tag_28\n      jump\t// in\n    tag_27:\n      tag_29\n      jump\t// in\n    tag_26:\n      stop\n        /* \"@chainlink/contracts/src/v0.8/vrf/dev/VRFConsumerBaseV2Plus.sol\":7412:7690  function rawFulfillRandomWords(uint256 requestId, uint256[] memory randomWords) external {... */\n    tag_5:\n      tag_26\n      tag_31\n      calldatasize\n      0x04\n      tag_32\n      jump\t// in\n    tag_31:\n      tag_33\n      jump\t// in\n        /* \"contracts/VRFConsumer.sol\":544:574  uint32 public callbackGasLimit */\n    tag_6:\n      sload(0x06)\n      tag_34\n      swap1\n      0x010000\n      swap1\n      div\n      0xffffffff\n      and\n      dup2\n      jump\n    tag_34:\n      mload(0x40)\n        /* \"#utility.yul\":1979:1989   */\n      0xffffffff\n        /* \"#utility.yul\":1967:1990   */\n      swap1\n      swap2\n      and\n        /* \"#utility.yul\":1949:1991   */\n      dup2\n      mstore\n        /* \"#utility.yul\":1937:1939   */\n      0x20\n        /* \"#utility.yul\":1922:1940   */\n      add\n        /* \"contracts/VRFConsumer.sol\":544:574  uint32 public callbackGasLimit */\n      tag_24\n        /* \"#utility.yul\":1805:1997   */\n      jump\n        /* \"contracts/VRFConsumer.sol\":441:463  bytes32 public keyHash */\n    tag_7:\n      tag_22\n      sload(0x04)\n      dup2\n      jump\n        /* \"@chainlink/contracts/src/v0.8/shared/access/ConfirmedOwnerWithProposal.sol\":1022:1334  function acceptOwnership() external override {... */\n    tag_8:\n      tag_26\n      tag_43\n      jump\t// in\n        /* \"@chainlink/contracts/src/v0.8/shared/access/ConfirmedOwnerWithProposal.sol\":1374:1455  function owner() public view override returns (address) {... */\n    tag_9:\n        /* \"@chainlink/contracts/src/v0.8/shared/access/ConfirmedOwnerWithProposal.sol\":1421:1428  address */\n      0x00\n        /* \"@chainlink/contracts/src/v0.8/shared/access/ConfirmedOwnerWithProposal.sol\":1443:1450  s_owner */\n      sload\n      sub(shl(0xa0, 0x01), 0x01)\n      and\n        /* \"@chainlink/contracts/src/v0.8/shared/access/ConfirmedOwnerWithProposal.sol\":1374:1455  function owner() public view override returns (address) {... */\n    tag_44:\n      mload(0x40)\n      sub(shl(0xa0, 0x01), 0x01)\n        /* \"#utility.yul\":2348:2380   */\n      swap1\n      swap2\n      and\n        /* \"#utility.yul\":2330:2381   */\n      dup2\n      mstore\n        /* \"#utility.yul\":2318:2320   */\n      0x20\n        /* \"#utility.yul\":2303:2321   */\n      add\n        /* \"@chainlink/contracts/src/v0.8/shared/access/ConfirmedOwnerWithProposal.sol\":1374:1455  function owner() public view override returns (address) {... */\n      tag_24\n        /* \"#utility.yul\":2184:2387   */\n      jump\n        /* \"@chainlink/contracts/src/v0.8/vrf/dev/VRFConsumerBaseV2Plus.sol\":7752:7951  function setCoordinator(address _vrfCoordinator) public override onlyOwnerOrCoordinator {... */\n    tag_10:\n      tag_26\n      tag_49\n      calldatasize\n      0x04\n      tag_50\n      jump\t// in\n    tag_49:\n      tag_51\n      jump\t// in\n        /* \"@chainlink/contracts/src/v0.8/vrf/dev/VRFConsumerBaseV2Plus.sol\":6077:6122  IVRFCoordinatorV2Plus public s_vrfCoordinator */\n    tag_11:\n      sload(0x02)\n      tag_44\n      swap1\n      sub(shl(0xa0, 0x01), 0x01)\n      and\n      dup2\n      jump\n        /* \"contracts/VRFConsumer.sol\":1445:1563  function updateCallbackGasLimit(uint32 newGasLimit) external onlyOwner {... */\n    tag_12:\n      tag_26\n      tag_57\n      calldatasize\n      0x04\n      tag_58\n      jump\t// in\n    tag_57:\n      tag_59\n      jump\t// in\n        /* \"contracts/VRFConsumer.sol\":504:538  uint16 public requestConfirmations */\n    tag_13:\n      sload(0x06)\n      tag_60\n      swap1\n      0xffff\n      and\n      dup2\n      jump\n    tag_60:\n      mload(0x40)\n        /* \"#utility.yul\":3375:3381   */\n      0xffff\n        /* \"#utility.yul\":3363:3382   */\n      swap1\n      swap2\n      and\n        /* \"#utility.yul\":3345:3383   */\n      dup2\n      mstore\n        /* \"#utility.yul\":3333:3335   */\n      0x20\n        /* \"#utility.yul\":3318:3336   */\n      add\n        /* \"contracts/VRFConsumer.sol\":504:538  uint16 public requestConfirmations */\n      tag_24\n        /* \"#utility.yul\":3201:3389   */\n      jump\n        /* \"contracts/VRFConsumer.sol\":1289:1439  function updateRequestConfirmations(uint16 newRequestConfirmations) external onlyOwner {... */\n    tag_14:\n      tag_26\n      tag_65\n      calldatasize\n      0x04\n      tag_66\n      jump\t// in\n    tag_65:\n      tag_67\n      jump\t// in\n        /* \"contracts/VRFConsumer.sol\":409:435  address public poolManager */\n    tag_15:\n      sload(0x03)\n      tag_44\n      swap1\n      sub(shl(0xa0, 0x01), 0x01)\n      and\n      dup2\n      jump\n        /* \"contracts/VRFConsumer.sol\":1569:2201  function requestRandomWords() external returns (uint256 requestId) {... */\n    tag_16:\n      tag_22\n      tag_72\n      jump\t// in\n        /* \"contracts/VRFConsumer.sol\":1052:1151  function updateKeyHash(bytes32 newKeyHash) external onlyOwner {... */\n    tag_17:\n      tag_26\n      tag_75\n      calldatasize\n      0x04\n      tag_76\n      jump\t// in\n    tag_75:\n      tag_77\n      jump\t// in\n        /* \"@chainlink/contracts/src/v0.8/shared/access/ConfirmedOwnerWithProposal.sol\":843:941  function transferOwnership(address to) public override onlyOwner {... */\n    tag_18:\n      tag_26\n      tag_79\n      calldatasize\n      0x04\n      tag_50\n      jump\t// in\n    tag_79:\n      tag_80\n      jump\t// in\n        /* \"contracts/VRFConsumer.sol\":1157:1283  function updateSubscriptionId(uint64 newSubscriptionId) external onlyOwner {... */\n    tag_29:\n        /* \"@chainlink/contracts/src/v0.8/shared/access/ConfirmedOwnerWithProposal.sol\":2059:2079  _validateOwnership() */\n      tag_82\n        /* \"@chainlink/contracts/src/v0.8/shared/access/ConfirmedOwnerWithProposal.sol\":2059:2077  _validateOwnership */\n      tag_83\n        /* \"@chainlink/contracts/src/v0.8/shared/access/ConfirmedOwnerWithProposal.sol\":2059:2079  _validateOwnership() */\n      jump\t// in\n    tag_82:\n        /* \"contracts/VRFConsumer.sol\":1242:1276  subscriptionId = newSubscriptionId */\n      0xffffffffffffffff\n      and\n        /* \"contracts/VRFConsumer.sol\":1242:1256  subscriptionId */\n      0x05\n        /* \"contracts/VRFConsumer.sol\":1242:1276  subscriptionId = newSubscriptionId */\n      sstore\n        /* \"contracts/VRFConsumer.sol\":1157:1283  function updateSubscriptionId(uint64 newSubscriptionId) external onlyOwner {... */\n      jump\t// out\n        /* \"@chainlink/contracts/src/v0.8/vrf/dev/VRFConsumerBaseV2Plus.sol\":7412:7690  function rawFulfillRandomWords(uint256 requestId, uint256[] memory randomWords) external {... */\n    tag_33:\n        /* \"@chainlink/contracts/src/v0.8/vrf/dev/VRFConsumerBaseV2Plus.sol\":7533:7549  s_vrfCoordinator */\n      and(sub(shl(0xa0, 0x01), 0x01), sload(0x02))\n        /* \"@chainlink/contracts/src/v0.8/vrf/dev/VRFConsumerBaseV2Plus.sol\":7511:7521  msg.sender */\n      caller\n        /* \"@chainlink/contracts/src/v0.8/vrf/dev/VRFConsumerBaseV2Plus.sol\":7511:7550  msg.sender != address(s_vrfCoordinator) */\n      eq\n        /* \"@chainlink/contracts/src/v0.8/vrf/dev/VRFConsumerBaseV2Plus.sol\":7507:7638  if (msg.sender != address(s_vrfCoordinator)) {... */\n      tag_86\n      jumpi\n        /* \"@chainlink/contracts/src/v0.8/vrf/dev/VRFConsumerBaseV2Plus.sol\":7613:7629  s_vrfCoordinator */\n      sload(0x02)\n        /* \"@chainlink/contracts/src/v0.8/vrf/dev/VRFConsumerBaseV2Plus.sol\":7567:7631  OnlyCoordinatorCanFulfill(msg.sender, address(s_vrfCoordinator)) */\n      mload(0x40)\n      shl(0xe2, 0x073e64fd)\n      dup2\n      mstore\n        /* \"@chainlink/contracts/src/v0.8/vrf/dev/VRFConsumerBaseV2Plus.sol\":7593:7603  msg.sender */\n      caller\n        /* \"@chainlink/contracts/src/v0.8/vrf/dev/VRFConsumerBaseV2Plus.sol\":7567:7631  OnlyCoordinatorCanFulfill(msg.sender, address(s_vrfCoordinator)) */\n      0x04\n      dup3\n      add\n        /* \"#utility.yul\":4068:4102   */\n      mstore\n      sub(shl(0xa0, 0x01), 0x01)\n        /* \"@chainlink/contracts/src/v0.8/vrf/dev/VRFConsumerBaseV2Plus.sol\":7613:7629  s_vrfCoordinator */\n      swap1\n      swap2\n      and\n        /* \"#utility.yul\":4118:4136   */\n      0x24\n      dup3\n      add\n        /* \"#utility.yul\":4111:4154   */\n      mstore\n        /* \"#utility.yul\":4003:4021   */\n      0x44\n      add\n        /* \"@chainlink/contracts/src/v0.8/vrf/dev/VRFConsumerBaseV2Plus.sol\":7567:7631  OnlyCoordinatorCanFulfill(msg.sender, address(s_vrfCoordinator)) */\n    tag_87:\n      mload(0x40)\n      dup1\n      swap2\n      sub\n      swap1\n      revert\n        /* \"@chainlink/contracts/src/v0.8/vrf/dev/VRFConsumerBaseV2Plus.sol\":7507:7638  if (msg.sender != address(s_vrfCoordinator)) {... */\n    tag_86:\n        /* \"@chainlink/contracts/src/v0.8/vrf/dev/VRFConsumerBaseV2Plus.sol\":7643:7685  fulfillRandomWords(requestId, randomWords) */\n      tag_89\n        /* \"@chainlink/contracts/src/v0.8/vrf/dev/VRFConsumerBaseV2Plus.sol\":7662:7671  requestId */\n      dup3\n        /* \"@chainlink/contracts/src/v0.8/vrf/dev/VRFConsumerBaseV2Plus.sol\":7673:7684  randomWords */\n      dup3\n        /* \"@chainlink/contracts/src/v0.8/vrf/dev/VRFConsumerBaseV2Plus.sol\":7643:7661  fulfillRandomWords */\n      tag_90\n        /* \"@chainlink/contracts/src/v0.8/vrf/dev/VRFConsumerBaseV2Plus.sol\":7643:7685  fulfillRandomWords(requestId, randomWords) */\n      jump\t// in\n    tag_89:\n        /* \"@chainlink/contracts/src/v0.8/vrf/dev/VRFConsumerBaseV2Plus.sol\":7412:7690  function rawFulfillRandomWords(uint256 requestId, uint256[] memory randomWords) external {... */\n      pop\n      pop\n      jump\t// out\n        /* \"@chainlink/contracts/src/v0.8/shared/access/ConfirmedOwnerWithProposal.sol\":1022:1334  function acceptOwnership() external override {... */\n    tag_43:\n        /* \"@chainlink/contracts/src/v0.8/shared/access/ConfirmedOwnerWithProposal.sol\":1142:1156  s_pendingOwner */\n      and(sub(shl(0xa0, 0x01), 0x01), sload(0x01))\n        /* \"@chainlink/contracts/src/v0.8/shared/access/ConfirmedOwnerWithProposal.sol\":1128:1138  msg.sender */\n      caller\n        /* \"@chainlink/contracts/src/v0.8/shared/access/ConfirmedOwnerWithProposal.sol\":1128:1156  msg.sender == s_pendingOwner */\n      eq\n        /* \"@chainlink/contracts/src/v0.8/shared/access/ConfirmedOwnerWithProposal.sol\":1120:1183  require(msg.sender == s_pendingOwner, \"Must be proposed owner\") */\n      tag_92\n      jumpi\n      mload(0x40)\n      shl(0xe5, 0x461bcd)\n      dup2\n      mstore\n        /* \"#utility.yul\":4367:4369   */\n      0x20\n        /* \"@chainlink/contracts/src/v0.8/shared/access/ConfirmedOwnerWithProposal.sol\":1120:1183  require(msg.sender == s_pendingOwner, \"Must be proposed owner\") */\n      0x04\n      dup3\n      add\n        /* \"#utility.yul\":4349:4370   */\n      mstore\n        /* \"#utility.yul\":4406:4408   */\n      0x16\n        /* \"#utility.yul\":4386:4404   */\n      0x24\n      dup3\n      add\n        /* \"#utility.yul\":4379:4409   */\n      mstore\n      shl(0x51, 0x26bab9ba10313290383937b837b9b2b21037bbb732b9)\n        /* \"#utility.yul\":4425:4443   */\n      0x44\n      dup3\n      add\n        /* \"#utility.yul\":4418:4470   */\n      mstore\n        /* \"#utility.yul\":4487:4505   */\n      0x64\n      add\n        /* \"@chainlink/contracts/src/v0.8/shared/access/ConfirmedOwnerWithProposal.sol\":1120:1183  require(msg.sender == s_pendingOwner, \"Must be proposed owner\") */\n      tag_87\n        /* \"#utility.yul\":4165:4511   */\n      jump\n        /* \"@chainlink/contracts/src/v0.8/shared/access/ConfirmedOwnerWithProposal.sol\":1120:1183  require(msg.sender == s_pendingOwner, \"Must be proposed owner\") */\n    tag_92:\n        /* \"@chainlink/contracts/src/v0.8/shared/access/ConfirmedOwnerWithProposal.sol\":1190:1206  address oldOwner */\n      0x00\n        /* \"@chainlink/contracts/src/v0.8/shared/access/ConfirmedOwnerWithProposal.sol\":1209:1216  s_owner */\n      dup1\n      sload\n        /* \"@chainlink/contracts/src/v0.8/shared/access/ConfirmedOwnerWithProposal.sol\":1232:1242  msg.sender */\n      caller\n      not(sub(shl(0xa0, 0x01), 0x01))\n        /* \"@chainlink/contracts/src/v0.8/shared/access/ConfirmedOwnerWithProposal.sol\":1222:1242  s_owner = msg.sender */\n      dup1\n      dup4\n      and\n      dup3\n      or\n      dup5\n      sstore\n      0x01\n        /* \"@chainlink/contracts/src/v0.8/shared/access/ConfirmedOwnerWithProposal.sol\":1248:1275  s_pendingOwner = address(0) */\n      dup1\n      sload\n      swap1\n      swap2\n      and\n      swap1\n      sstore\n        /* \"@chainlink/contracts/src/v0.8/shared/access/ConfirmedOwnerWithProposal.sol\":1287:1329  OwnershipTransferred(oldOwner, msg.sender) */\n      mload(0x40)\n      sub(shl(0xa0, 0x01), 0x01)\n        /* \"@chainlink/contracts/src/v0.8/shared/access/ConfirmedOwnerWithProposal.sol\":1209:1216  s_owner */\n      swap1\n      swap3\n      and\n      swap3\n        /* \"@chainlink/contracts/src/v0.8/shared/access/ConfirmedOwnerWithProposal.sol\":1232:1242  msg.sender */\n      swap1\n      swap2\n        /* \"@chainlink/contracts/src/v0.8/shared/access/ConfirmedOwnerWithProposal.sol\":1209:1216  s_owner */\n      dup4\n      swap2\n        /* \"@chainlink/contracts/src/v0.8/shared/access/ConfirmedOwnerWithProposal.sol\":1287:1329  OwnershipTransferred(oldOwner, msg.sender) */\n      0x8be0079c531659141344cd1fd0a4f28419497f9722a3daafe3b4186f6b6457e0\n      swap2\n      log3\n        /* \"@chainlink/contracts/src/v0.8/shared/access/ConfirmedOwnerWithProposal.sol\":1067:1334  {... */\n      pop\n        /* \"@chainlink/contracts/src/v0.8/shared/access/ConfirmedOwnerWithProposal.sol\":1022:1334  function acceptOwnership() external override {... */\n      jump\t// out\n        /* \"@chainlink/contracts/src/v0.8/vrf/dev/VRFConsumerBaseV2Plus.sol\":7752:7951  function setCoordinator(address _vrfCoordinator) public override onlyOwnerOrCoordinator {... */\n    tag_51:\n        /* \"@chainlink/contracts/src/v0.8/shared/access/ConfirmedOwnerWithProposal.sol\":1421:1428  address */\n      0x00\n        /* \"@chainlink/contracts/src/v0.8/shared/access/ConfirmedOwnerWithProposal.sol\":1443:1450  s_owner */\n      sload\n      sub(shl(0xa0, 0x01), 0x01)\n      and\n        /* \"@chainlink/contracts/src/v0.8/vrf/dev/VRFConsumerBaseV2Plus.sol\":7999:8009  msg.sender */\n      caller\n        /* \"@chainlink/contracts/src/v0.8/vrf/dev/VRFConsumerBaseV2Plus.sol\":7999:8020  msg.sender != owner() */\n      eq\n      dup1\n      iszero\n      swap1\n        /* \"@chainlink/contracts/src/v0.8/vrf/dev/VRFConsumerBaseV2Plus.sol\":7999:8063  msg.sender != owner() && msg.sender != address(s_vrfCoordinator) */\n      tag_98\n      jumpi\n      pop\n        /* \"@chainlink/contracts/src/v0.8/vrf/dev/VRFConsumerBaseV2Plus.sol\":8046:8062  s_vrfCoordinator */\n      and(sub(shl(0xa0, 0x01), 0x01), sload(0x02))\n        /* \"@chainlink/contracts/src/v0.8/vrf/dev/VRFConsumerBaseV2Plus.sol\":8024:8034  msg.sender */\n      caller\n        /* \"@chainlink/contracts/src/v0.8/vrf/dev/VRFConsumerBaseV2Plus.sol\":8024:8063  msg.sender != address(s_vrfCoordinator) */\n      eq\n      iszero\n        /* \"@chainlink/contracts/src/v0.8/vrf/dev/VRFConsumerBaseV2Plus.sol\":7999:8063  msg.sender != owner() && msg.sender != address(s_vrfCoordinator) */\n    tag_98:\n        /* \"@chainlink/contracts/src/v0.8/vrf/dev/VRFConsumerBaseV2Plus.sol\":7995:8157  if (msg.sender != owner() && msg.sender != address(s_vrfCoordinator)) {... */\n      iszero\n      tag_99\n      jumpi\n        /* \"@chainlink/contracts/src/v0.8/vrf/dev/VRFConsumerBaseV2Plus.sol\":8103:8113  msg.sender */\n      caller\n        /* \"@chainlink/contracts/src/v0.8/vrf/dev/VRFConsumerBaseV2Plus.sol\":8115:8122  owner() */\n      tag_100\n        /* \"@chainlink/contracts/src/v0.8/shared/access/ConfirmedOwnerWithProposal.sol\":1421:1428  address */\n      0x00\n        /* \"@chainlink/contracts/src/v0.8/shared/access/ConfirmedOwnerWithProposal.sol\":1443:1450  s_owner */\n      sload\n      sub(shl(0xa0, 0x01), 0x01)\n      and\n      swap1\n        /* \"@chainlink/contracts/src/v0.8/shared/access/ConfirmedOwnerWithProposal.sol\":1374:1455  function owner() public view override returns (address) {... */\n      jump\n        /* \"@chainlink/contracts/src/v0.8/vrf/dev/VRFConsumerBaseV2Plus.sol\":8115:8122  owner() */\n    tag_100:\n        /* \"@chainlink/contracts/src/v0.8/vrf/dev/VRFConsumerBaseV2Plus.sol\":8132:8148  s_vrfCoordinator */\n      sload(0x02)\n        /* \"@chainlink/contracts/src/v0.8/vrf/dev/VRFConsumerBaseV2Plus.sol\":8080:8150  OnlyOwnerOrCoordinator(msg.sender, owner(), address(s_vrfCoordinator)) */\n      mload(0x40)\n      shl(0xe0, 0x061db9c1)\n      dup2\n      mstore\n      sub(shl(0xa0, 0x01), 0x01)\n        /* \"#utility.yul\":4774:4789   */\n      swap4\n      dup5\n      and\n        /* \"@chainlink/contracts/src/v0.8/vrf/dev/VRFConsumerBaseV2Plus.sol\":8080:8150  OnlyOwnerOrCoordinator(msg.sender, owner(), address(s_vrfCoordinator)) */\n      0x04\n      dup3\n      add\n        /* \"#utility.yul\":4756:4790   */\n      mstore\n        /* \"#utility.yul\":4826:4841   */\n      swap2\n      dup4\n      and\n        /* \"#utility.yul\":4806:4824   */\n      0x24\n      dup4\n      add\n        /* \"#utility.yul\":4799:4842   */\n      mstore\n        /* \"@chainlink/contracts/src/v0.8/vrf/dev/VRFConsumerBaseV2Plus.sol\":8132:8148  s_vrfCoordinator */\n      swap2\n      swap1\n      swap2\n      and\n        /* \"#utility.yul\":4858:4876   */\n      0x44\n      dup3\n      add\n        /* \"#utility.yul\":4851:4894   */\n      mstore\n        /* \"#utility.yul\":4691:4709   */\n      0x64\n      add\n        /* \"@chainlink/contracts/src/v0.8/vrf/dev/VRFConsumerBaseV2Plus.sol\":8080:8150  OnlyOwnerOrCoordinator(msg.sender, owner(), address(s_vrfCoordinator)) */\n      tag_87\n        /* \"#utility.yul\":4516:4900   */\n      jump\n        /* \"@chainlink/contracts/src/v0.8/vrf/dev/VRFConsumerBaseV2Plus.sol\":7995:8157  if (msg.sender != owner() && msg.sender != address(s_vrfCoordinator)) {... */\n    tag_99:\n        /* \"@chainlink/contracts/src/v0.8/vrf/dev/VRFConsumerBaseV2Plus.sol\":7846:7862  s_vrfCoordinator */\n      0x02\n        /* \"@chainlink/contracts/src/v0.8/vrf/dev/VRFConsumerBaseV2Plus.sol\":7846:7903  s_vrfCoordinator = IVRFCoordinatorV2Plus(_vrfCoordinator) */\n      dup1\n      sload\n      not(sub(shl(0xa0, 0x01), 0x01))\n      and\n      sub(shl(0xa0, 0x01), 0x01)\n      dup4\n      and\n      swap1\n      dup2\n      or\n      swap1\n      swap2\n      sstore\n        /* \"@chainlink/contracts/src/v0.8/vrf/dev/VRFConsumerBaseV2Plus.sol\":7915:7946  CoordinatorSet(_vrfCoordinator) */\n      mload(0x40)\n        /* \"#utility.yul\":2330:2381   */\n      swap1\n      dup2\n      mstore\n        /* \"@chainlink/contracts/src/v0.8/vrf/dev/VRFConsumerBaseV2Plus.sol\":7915:7946  CoordinatorSet(_vrfCoordinator) */\n      0xd1a6a14209a385a964d036e404cb5cfb71f4000cdb03c9366292430787261be6\n      swap1\n        /* \"#utility.yul\":2318:2320   */\n      0x20\n        /* \"#utility.yul\":2303:2321   */\n      add\n        /* \"@chainlink/contracts/src/v0.8/vrf/dev/VRFConsumerBaseV2Plus.sol\":7915:7946  CoordinatorSet(_vrfCoordinator) */\n      mload(0x40)\n      dup1\n      swap2\n      sub\n      swap1\n      log1\n        /* \"@chainlink/contracts/src/v0.8/vrf/dev/VRFConsumerBaseV2Plus.sol\":7752:7951  function setCoordinator(address _vrfCoordinator) public override onlyOwnerOrCoordinator {... */\n      pop\n      jump\t// out\n        /* \"contracts/VRFConsumer.sol\":1445:1563  function updateCallbackGasLimit(uint32 newGasLimit) external onlyOwner {... */\n    tag_59:\n        /* \"@chainlink/contracts/src/v0.8/shared/access/ConfirmedOwnerWithProposal.sol\":2059:2079  _validateOwnership() */\n      tag_106\n        /* \"@chainlink/contracts/src/v0.8/shared/access/ConfirmedOwnerWithProposal.sol\":2059:2077  _validateOwnership */\n      tag_83\n        /* \"@chainlink/contracts/src/v0.8/shared/access/ConfirmedOwnerWithProposal.sol\":2059:2079  _validateOwnership() */\n      jump\t// in\n    tag_106:\n        /* \"contracts/VRFConsumer.sol\":1526:1542  callbackGasLimit */\n      0x06\n        /* \"contracts/VRFConsumer.sol\":1526:1556  callbackGasLimit = newGasLimit */\n      dup1\n      sload\n      0xffffffff\n      swap1\n      swap3\n      and\n      0x010000\n      mul\n      not(0xffffffff0000)\n      swap1\n      swap3\n      and\n      swap2\n      swap1\n      swap2\n      or\n      swap1\n      sstore\n        /* \"contracts/VRFConsumer.sol\":1445:1563  function updateCallbackGasLimit(uint32 newGasLimit) external onlyOwner {... */\n      jump\t// out\n        /* \"contracts/VRFConsumer.sol\":1289:1439  function updateRequestConfirmations(uint16 newRequestConfirmations) external onlyOwner {... */\n    tag_67:\n        /* \"@chainlink/contracts/src/v0.8/shared/access/ConfirmedOwnerWithProposal.sol\":2059:2079  _validateOwnership() */\n      tag_109\n        /* \"@chainlink/contracts/src/v0.8/shared/access/ConfirmedOwnerWithProposal.sol\":2059:2077  _validateOwnership */\n      tag_83\n        /* \"@chainlink/contracts/src/v0.8/shared/access/ConfirmedOwnerWithProposal.sol\":2059:2079  _validateOwnership() */\n      jump\t// in\n    tag_109:\n        /* \"contracts/VRFConsumer.sol\":1386:1406  requestConfirmations */\n      0x06\n        /* \"contracts/VRFConsumer.sol\":1386:1432  requestConfirmations = newRequestConfirmations */\n      dup1\n      sload\n      not(0xffff)\n      and\n      0xffff\n      swap3\n      swap1\n      swap3\n      and\n      swap2\n      swap1\n      swap2\n      or\n      swap1\n      sstore\n        /* \"contracts/VRFConsumer.sol\":1289:1439  function updateRequestConfirmations(uint16 newRequestConfirmations) external onlyOwner {... */\n      jump\t// out\n        /* \"contracts/VRFConsumer.sol\":1569:2201  function requestRandomWords() external returns (uint256 requestId) {... */\n    tag_72:\n        /* \"contracts/VRFConsumer.sol\":1664:1675  poolManager */\n      sload(0x03)\n        /* \"contracts/VRFConsumer.sol\":1617:1634  uint256 requestId */\n      0x00\n      swap1\n      sub(shl(0xa0, 0x01), 0x01)\n        /* \"contracts/VRFConsumer.sol\":1664:1675  poolManager */\n      and\n        /* \"contracts/VRFConsumer.sol\":1650:1660  msg.sender */\n      caller\n        /* \"contracts/VRFConsumer.sol\":1650:1675  msg.sender != poolManager */\n      eq\n        /* \"contracts/VRFConsumer.sol\":1646:1702  if (msg.sender != poolManager) revert InvalidMsgSender() */\n      tag_112\n      jumpi\n        /* \"contracts/VRFConsumer.sol\":1684:1702  InvalidMsgSender() */\n      mload(0x40)\n      shl(0xe0, 0x3bfe162b)\n      dup2\n      mstore\n      0x04\n      add\n      mload(0x40)\n      dup1\n      swap2\n      sub\n      swap1\n      revert\n        /* \"contracts/VRFConsumer.sol\":1646:1702  if (msg.sender != poolManager) revert InvalidMsgSender() */\n    tag_112:\n        /* \"contracts/VRFConsumer.sol\":1724:1740  s_vrfCoordinator */\n      sload(0x02)\n        /* \"contracts/VRFConsumer.sol\":1773:2184  VRFV2PlusClient.RandomWordsRequest({... */\n      0x40\n      dup1\n      mload\n      0xc0\n      dup2\n      add\n      dup3\n      mstore\n        /* \"contracts/VRFConsumer.sol\":1835:1842  keyHash */\n      sload(0x04)\n        /* \"contracts/VRFConsumer.sol\":1773:2184  VRFV2PlusClient.RandomWordsRequest({... */\n      dup2\n      mstore\n        /* \"contracts/VRFConsumer.sol\":1867:1881  subscriptionId */\n      sload(0x05)\n        /* \"contracts/VRFConsumer.sol\":1773:2184  VRFV2PlusClient.RandomWordsRequest({... */\n      0x20\n      dup1\n      dup4\n      add\n      swap2\n      swap1\n      swap2\n      mstore\n        /* \"contracts/VRFConsumer.sol\":1921:1941  requestConfirmations */\n      sload(0x06)\n      0xffff\n      dup2\n      and\n        /* \"contracts/VRFConsumer.sol\":1773:2184  VRFV2PlusClient.RandomWordsRequest({... */\n      dup4\n      dup6\n      add\n      mstore\n        /* \"contracts/VRFConsumer.sol\":1977:1993  callbackGasLimit */\n      0x010000\n      swap1\n      div\n      0xffffffff\n      and\n        /* \"contracts/VRFConsumer.sol\":1773:2184  VRFV2PlusClient.RandomWordsRequest({... */\n      0x60\n      dup4\n      add\n      mstore\n        /* \"contracts/VRFConsumer.sol\":1724:1740  s_vrfCoordinator */\n      0x01\n        /* \"contracts/VRFConsumer.sol\":1773:2184  VRFV2PlusClient.RandomWordsRequest({... */\n      0x80\n      dup4\n      add\n      dup2\n      swap1\n      mstore\n        /* \"contracts/VRFConsumer.sol\":2101:2151  VRFV2PlusClient.ExtraArgsV1({nativePayment: true}) */\n      dup4\n      mload\n      swap2\n      dup3\n      add\n      swap1\n      swap4\n      mstore\n      swap2\n      dup3\n      mstore\n      sub(shl(0xa0, 0x01), 0x01)\n        /* \"contracts/VRFConsumer.sol\":1724:1740  s_vrfCoordinator */\n      swap1\n      swap3\n      and\n      swap2\n        /* \"contracts/VRFConsumer.sol\":1724:1759  s_vrfCoordinator.requestRandomWords */\n      0x9b1c385e\n      swap2\n        /* \"contracts/VRFConsumer.sol\":1773:2184  VRFV2PlusClient.RandomWordsRequest({... */\n      0xa0\n      dup3\n      add\n      swap1\n        /* \"contracts/VRFConsumer.sol\":2051:2169  VRFV2PlusClient._argsToBytes(... */\n      tag_113\n      swap1\n        /* \"contracts/VRFConsumer.sol\":2051:2079  VRFV2PlusClient._argsToBytes */\n      tag_114\n        /* \"contracts/VRFConsumer.sol\":2051:2169  VRFV2PlusClient._argsToBytes(... */\n      jump\t// in\n    tag_113:\n        /* \"contracts/VRFConsumer.sol\":1773:2184  VRFV2PlusClient.RandomWordsRequest({... */\n      dup2\n      mstore\n      pop\n        /* \"contracts/VRFConsumer.sol\":1724:2194  s_vrfCoordinator.requestRandomWords(... */\n      mload(0x40)\n      dup3\n      0xffffffff\n      and\n      0xe0\n      shl\n      dup2\n      mstore\n      0x04\n      add\n      tag_115\n      swap2\n      swap1\n      tag_116\n      jump\t// in\n    tag_115:\n      0x20\n      mload(0x40)\n      dup1\n      dup4\n      sub\n      dup2\n      0x00\n      dup8\n      gas\n      call\n      iszero\n      dup1\n      iszero\n      tag_118\n      jumpi\n      returndatasize\n      0x00\n      dup1\n      returndatacopy\n      revert(0x00, returndatasize)\n    tag_118:\n      pop\n      pop\n      pop\n      pop\n      mload(0x40)\n      returndatasize\n      not(0x1f)\n      0x1f\n      dup3\n      add\n      and\n      dup3\n      add\n      dup1\n      0x40\n      mstore\n      pop\n      dup2\n      add\n      swap1\n      tag_119\n      swap2\n      swap1\n      tag_120\n      jump\t// in\n    tag_119:\n        /* \"contracts/VRFConsumer.sol\":1712:2194  requestId = s_vrfCoordinator.requestRandomWords(... */\n      swap1\n      pop\n        /* \"contracts/VRFConsumer.sol\":1569:2201  function requestRandomWords() external returns (uint256 requestId) {... */\n      swap1\n      jump\t// out\n        /* \"contracts/VRFConsumer.sol\":1052:1151  function updateKeyHash(bytes32 newKeyHash) external onlyOwner {... */\n    tag_77:\n        /* \"@chainlink/contracts/src/v0.8/shared/access/ConfirmedOwnerWithProposal.sol\":2059:2079  _validateOwnership() */\n      tag_122\n        /* \"@chainlink/contracts/src/v0.8/shared/access/ConfirmedOwnerWithProposal.sol\":2059:2077  _validateOwnership */\n      tag_83\n        /* \"@chainlink/contracts/src/v0.8/shared/access/ConfirmedOwnerWithProposal.sol\":2059:2079  _validateOwnership() */\n      jump\t// in\n    tag_122:\n        /* \"contracts/VRFConsumer.sol\":1124:1131  keyHash */\n      0x04\n        /* \"contracts/VRFConsumer.sol\":1124:1144  keyHash = newKeyHash */\n      sstore\n        /* \"contracts/VRFConsumer.sol\":1052:1151  function updateKeyHash(bytes32 newKeyHash) external onlyOwner {... */\n      jump\t// out\n        /* \"@chainlink/contracts/src/v0.8/shared/access/ConfirmedOwnerWithProposal.sol\":843:941  function transferOwnership(address to) public override onlyOwner {... */\n    tag_80:\n        /* \"@chainlink/contracts/src/v0.8/shared/access/ConfirmedOwnerWithProposal.sol\":2059:2079  _validateOwnership() */\n      tag_125\n        /* \"@chainlink/contracts/src/v0.8/shared/access/ConfirmedOwnerWithProposal.sol\":2059:2077  _validateOwnership */\n      tag_83\n        /* \"@chainlink/contracts/src/v0.8/shared/access/ConfirmedOwnerWithProposal.sol\":2059:2079  _validateOwnership() */\n      jump\t// in\n    tag_125:\n        /* \"@chainlink/contracts/src/v0.8/shared/access/ConfirmedOwnerWithProposal.sol\":914:936  _transferOwnership(to) */\n      tag_127\n        /* \"@chainlink/contracts/src/v0.8/shared/access/ConfirmedOwnerWithProposal.sol\":933:935  to */\n      dup2\n        /* \"@chainlink/contracts/src/v0.8/shared/access/ConfirmedOwnerWithProposal.sol\":914:932  _transferOwnership */\n      tag_128\n        /* \"@chainlink/contracts/src/v0.8/shared/access/ConfirmedOwnerWithProposal.sol\":914:936  _transferOwnership(to) */\n      jump\t// in\n    tag_127:\n        /* \"@chainlink/contracts/src/v0.8/shared/access/ConfirmedOwnerWithProposal.sol\":843:941  function transferOwnership(address to) public override onlyOwner {... */\n      pop\n      jump\t// out\n        /* \"@chainlink/contracts/src/v0.8/shared/access/ConfirmedOwnerWithProposal.sol\":1797:1955  function _validateOwnership() internal view {... */\n    tag_83:\n        /* \"@chainlink/contracts/src/v0.8/shared/access/ConfirmedOwnerWithProposal.sol\":1916:1923  s_owner */\n      and(sub(shl(0xa0, 0x01), 0x01), sload(0x00))\n        /* \"@chainlink/contracts/src/v0.8/shared/access/ConfirmedOwnerWithProposal.sol\":1902:1912  msg.sender */\n      caller\n        /* \"@chainlink/contracts/src/v0.8/shared/access/ConfirmedOwnerWithProposal.sol\":1902:1923  msg.sender == s_owner */\n      eq\n        /* \"@chainlink/contracts/src/v0.8/shared/access/ConfirmedOwnerWithProposal.sol\":1894:1950  require(msg.sender == s_owner, \"Only callable by owner\") */\n      tag_130\n      jumpi\n      mload(0x40)\n      shl(0xe5, 0x461bcd)\n      dup2\n      mstore\n        /* \"#utility.yul\":6426:6428   */\n      0x20\n        /* \"@chainlink/contracts/src/v0.8/shared/access/ConfirmedOwnerWithProposal.sol\":1894:1950  require(msg.sender == s_owner, \"Only callable by owner\") */\n      0x04\n      dup3\n      add\n        /* \"#utility.yul\":6408:6429   */\n      mstore\n        /* \"#utility.yul\":6465:6467   */\n      0x16\n        /* \"#utility.yul\":6445:6463   */\n      0x24\n      dup3\n      add\n        /* \"#utility.yul\":6438:6468   */\n      mstore\n      shl(0x51, 0x27b7363c9031b0b63630b1363290313c9037bbb732b9)\n        /* \"#utility.yul\":6484:6502   */\n      0x44\n      dup3\n      add\n        /* \"#utility.yul\":6477:6529   */\n      mstore\n        /* \"#utility.yul\":6546:6564   */\n      0x64\n      add\n        /* \"@chainlink/contracts/src/v0.8/shared/access/ConfirmedOwnerWithProposal.sol\":1894:1950  require(msg.sender == s_owner, \"Only callable by owner\") */\n      tag_87\n        /* \"#utility.yul\":6224:6570   */\n      jump\n        /* \"@chainlink/contracts/src/v0.8/shared/access/ConfirmedOwnerWithProposal.sol\":1894:1950  require(msg.sender == s_owner, \"Only callable by owner\") */\n    tag_130:\n        /* \"@chainlink/contracts/src/v0.8/shared/access/ConfirmedOwnerWithProposal.sol\":1797:1955  function _validateOwnership() internal view {... */\n      jump\t// out\n        /* \"contracts/VRFConsumer.sol\":2207:2417  function fulfillRandomWords(... */\n    tag_90:\n        /* \"contracts/VRFConsumer.sol\":2355:2366  poolManager */\n      sload(0x03)\n        /* \"contracts/VRFConsumer.sol\":2334:2410  IVRFConsumerCallback(poolManager).fulfillRandomWords(requestId, randomWords) */\n      mload(0x40)\n      shl(0xe2, 0x0e2e9185)\n      dup2\n      mstore\n      sub(shl(0xa0, 0x01), 0x01)\n        /* \"contracts/VRFConsumer.sol\":2355:2366  poolManager */\n      swap1\n      swap2\n      and\n      swap1\n        /* \"contracts/VRFConsumer.sol\":2334:2386  IVRFConsumerCallback(poolManager).fulfillRandomWords */\n      0x38ba4614\n      swap1\n        /* \"contracts/VRFConsumer.sol\":2334:2410  IVRFConsumerCallback(poolManager).fulfillRandomWords(requestId, randomWords) */\n      tag_134\n      swap1\n        /* \"contracts/VRFConsumer.sol\":2387:2396  requestId */\n      dup6\n      swap1\n        /* \"contracts/VRFConsumer.sol\":2398:2409  randomWords */\n      dup6\n      swap1\n        /* \"contracts/VRFConsumer.sol\":2334:2410  IVRFConsumerCallback(poolManager).fulfillRandomWords(requestId, randomWords) */\n      0x04\n      add\n      tag_135\n      jump\t// in\n    tag_134:\n      0x00\n      mload(0x40)\n      dup1\n      dup4\n      sub\n      dup2\n      0x00\n      dup8\n      dup1\n      extcodesize\n      iszero\n      dup1\n      iszero\n      tag_136\n      jumpi\n      0x00\n      dup1\n      revert\n    tag_136:\n      pop\n      gas\n      call\n      iszero\n      dup1\n      iszero\n      tag_138\n      jumpi\n      returndatasize\n      0x00\n      dup1\n      returndatacopy\n      revert(0x00, returndatasize)\n    tag_138:\n      pop\n      pop\n      pop\n      pop\n        /* \"contracts/VRFConsumer.sol\":2207:2417  function fulfillRandomWords(... */\n      pop\n      pop\n      jump\t// out\n        /* \"@chainlink/contracts/src/v0.8/vrf/dev/libraries/VRFV2PlusClient.sol\":475:638  function _argsToBytes(ExtraArgsV1 memory extraArgs) internal pure returns (bytes memory bts) {... */\n    tag_114:\n        /* \"@chainlink/contracts/src/v0.8/vrf/dev/libraries/VRFV2PlusClient.sol\":550:566  bytes memory bts */\n      0x60\n        /* \"@chainlink/contracts/src/v0.8/vrf/dev/libraries/VRFV2PlusClient.sol\":211:239  keccak256(\"VRF ExtraArgsV1\") */\n      0x92fd13387c7fe7befbc38d303d6468778fb9731bc4583f17d92989c6fcfdeaaa\n        /* \"@chainlink/contracts/src/v0.8/vrf/dev/libraries/VRFV2PlusClient.sol\":623:632  extraArgs */\n      dup3\n        /* \"@chainlink/contracts/src/v0.8/vrf/dev/libraries/VRFV2PlusClient.sol\":581:633  abi.encodeWithSelector(EXTRA_ARGS_V1_TAG, extraArgs) */\n      add(0x24, mload(0x40))\n      tag_140\n      swap2\n        /* \"#utility.yul\":7517:7530   */\n      mload\n        /* \"#utility.yul\":7510:7531   */\n      iszero\n        /* \"#utility.yul\":7503:7532   */\n      iszero\n        /* \"#utility.yul\":7485:7533   */\n      dup2\n      mstore\n        /* \"#utility.yul\":7473:7475   */\n      0x20\n        /* \"#utility.yul\":7458:7476   */\n      add\n      swap1\n        /* \"#utility.yul\":7283:7539   */\n      jump\n        /* \"@chainlink/contracts/src/v0.8/vrf/dev/libraries/VRFV2PlusClient.sol\":581:633  abi.encodeWithSelector(EXTRA_ARGS_V1_TAG, extraArgs) */\n    tag_140:\n      0x40\n      dup1\n      mload\n      not(0x1f)\n      dup2\n      dup5\n      sub\n      add\n      dup2\n      mstore\n      swap2\n      swap1\n      mstore\n      0x20\n      dup2\n      add\n      dup1\n      mload\n      sub(shl(0xe0, 0x01), 0x01)\n      and\n      not(sub(shl(0xe0, 0x01), 0x01))\n      swap1\n      swap4\n      and\n      swap3\n      swap1\n      swap3\n      or\n      swap1\n      swap2\n      mstore\n      swap3\n        /* \"@chainlink/contracts/src/v0.8/vrf/dev/libraries/VRFV2PlusClient.sol\":475:638  function _argsToBytes(ExtraArgsV1 memory extraArgs) internal pure returns (bytes memory bts) {... */\n      swap2\n      pop\n      pop\n      jump\t// out\n        /* \"@chainlink/contracts/src/v0.8/shared/access/ConfirmedOwnerWithProposal.sol\":1528:1763  function _transferOwnership(address to) private {... */\n    tag_128:\n        /* \"@chainlink/contracts/src/v0.8/shared/access/ConfirmedOwnerWithProposal.sol\":1643:1653  msg.sender */\n      caller\n      sub(shl(0xa0, 0x01), 0x01)\n        /* \"@chainlink/contracts/src/v0.8/shared/access/ConfirmedOwnerWithProposal.sol\":1637:1653  to != msg.sender */\n      dup3\n      and\n      sub\n        /* \"@chainlink/contracts/src/v0.8/shared/access/ConfirmedOwnerWithProposal.sol\":1629:1681  require(to != msg.sender, \"Cannot transfer to self\") */\n      tag_143\n      jumpi\n      mload(0x40)\n      shl(0xe5, 0x461bcd)\n      dup2\n      mstore\n        /* \"#utility.yul\":7746:7748   */\n      0x20\n        /* \"@chainlink/contracts/src/v0.8/shared/access/ConfirmedOwnerWithProposal.sol\":1629:1681  require(to != msg.sender, \"Cannot transfer to self\") */\n      0x04\n      dup3\n      add\n        /* \"#utility.yul\":7728:7749   */\n      mstore\n        /* \"#utility.yul\":7785:7787   */\n      0x17\n        /* \"#utility.yul\":7765:7783   */\n      0x24\n      dup3\n      add\n        /* \"#utility.yul\":7758:7788   */\n      mstore\n        /* \"#utility.yul\":7824:7849   */\n      0x43616e6e6f74207472616e7366657220746f2073656c66000000000000000000\n        /* \"#utility.yul\":7804:7822   */\n      0x44\n      dup3\n      add\n        /* \"#utility.yul\":7797:7850   */\n      mstore\n        /* \"#utility.yul\":7867:7885   */\n      0x64\n      add\n        /* \"@chainlink/contracts/src/v0.8/shared/access/ConfirmedOwnerWithProposal.sol\":1629:1681  require(to != msg.sender, \"Cannot transfer to self\") */\n      tag_87\n        /* \"#utility.yul\":7544:7891   */\n      jump\n        /* \"@chainlink/contracts/src/v0.8/shared/access/ConfirmedOwnerWithProposal.sol\":1629:1681  require(to != msg.sender, \"Cannot transfer to self\") */\n    tag_143:\n        /* \"@chainlink/contracts/src/v0.8/shared/access/ConfirmedOwnerWithProposal.sol\":1688:1702  s_pendingOwner */\n      0x01\n        /* \"@chainlink/contracts/src/v0.8/shared/access/ConfirmedOwnerWithProposal.sol\":1688:1707  s_pendingOwner = to */\n      dup1\n      sload\n      not(sub(shl(0xa0, 0x01), 0x01))\n      and\n      sub(shl(0xa0, 0x01), 0x01)\n      dup4\n      dup2\n      and\n      swap2\n      dup3\n      or\n      swap1\n      swap3\n      sstore\n      0x00\n        /* \"@chainlink/contracts/src/v0.8/shared/access/ConfirmedOwnerWithProposal.sol\":1746:1753  s_owner */\n      dup1\n      sload\n        /* \"@chainlink/contracts/src/v0.8/shared/access/ConfirmedOwnerWithProposal.sol\":1719:1758  OwnershipTransferRequested(s_owner, to) */\n      mload(0x40)\n        /* \"@chainlink/contracts/src/v0.8/shared/access/ConfirmedOwnerWithProposal.sol\":1688:1707  s_pendingOwner = to */\n      swap3\n      swap4\n        /* \"@chainlink/contracts/src/v0.8/shared/access/ConfirmedOwnerWithProposal.sol\":1746:1753  s_owner */\n      and\n      swap2\n        /* \"@chainlink/contracts/src/v0.8/shared/access/ConfirmedOwnerWithProposal.sol\":1719:1758  OwnershipTransferRequested(s_owner, to) */\n      0xed8889f560326eb138920d842192f0eb3dd22b4f139c87a2c57538e05bae1278\n      swap2\n      swap1\n      log3\n        /* \"@chainlink/contracts/src/v0.8/shared/access/ConfirmedOwnerWithProposal.sol\":1528:1763  function _transferOwnership(address to) private {... */\n      pop\n      jump\t// out\n        /* \"#utility.yul\":196:480   */\n    tag_28:\n        /* \"#utility.yul\":254:260   */\n      0x00\n        /* \"#utility.yul\":307:309   */\n      0x20\n        /* \"#utility.yul\":295:304   */\n      dup3\n        /* \"#utility.yul\":286:293   */\n      dup5\n        /* \"#utility.yul\":282:305   */\n      sub\n        /* \"#utility.yul\":278:310   */\n      slt\n        /* \"#utility.yul\":275:327   */\n      iszero\n      tag_150\n      jumpi\n        /* \"#utility.yul\":323:324   */\n      0x00\n        /* \"#utility.yul\":320:321   */\n      dup1\n        /* \"#utility.yul\":313:325   */\n      revert\n        /* \"#utility.yul\":275:327   */\n    tag_150:\n        /* \"#utility.yul\":362:371   */\n      dup2\n        /* \"#utility.yul\":349:372   */\n      calldataload\n        /* \"#utility.yul\":412:430   */\n      0xffffffffffffffff\n        /* \"#utility.yul\":405:410   */\n      dup2\n        /* \"#utility.yul\":401:431   */\n      and\n        /* \"#utility.yul\":394:399   */\n      dup2\n        /* \"#utility.yul\":391:432   */\n      eq\n        /* \"#utility.yul\":381:450   */\n      tag_151\n      jumpi\n        /* \"#utility.yul\":446:447   */\n      0x00\n        /* \"#utility.yul\":443:444   */\n      dup1\n        /* \"#utility.yul\":436:448   */\n      revert\n        /* \"#utility.yul\":381:450   */\n    tag_151:\n        /* \"#utility.yul\":469:474   */\n      swap4\n        /* \"#utility.yul\":196:480   */\n      swap3\n      pop\n      pop\n      pop\n      jump\t// out\n        /* \"#utility.yul\":485:612   */\n    tag_146:\n        /* \"#utility.yul\":546:556   */\n      0x4e487b71\n        /* \"#utility.yul\":541:544   */\n      0xe0\n        /* \"#utility.yul\":537:557   */\n      shl\n        /* \"#utility.yul\":534:535   */\n      0x00\n        /* \"#utility.yul\":527:558   */\n      mstore\n        /* \"#utility.yul\":577:581   */\n      0x41\n        /* \"#utility.yul\":574:575   */\n      0x04\n        /* \"#utility.yul\":567:582   */\n      mstore\n        /* \"#utility.yul\":601:605   */\n      0x24\n        /* \"#utility.yul\":598:599   */\n      0x00\n        /* \"#utility.yul\":591:606   */\n      revert\n        /* \"#utility.yul\":617:1800   */\n    tag_32:\n        /* \"#utility.yul\":710:716   */\n      0x00\n        /* \"#utility.yul\":718:724   */\n      dup1\n        /* \"#utility.yul\":771:773   */\n      0x40\n        /* \"#utility.yul\":759:768   */\n      dup4\n        /* \"#utility.yul\":750:757   */\n      dup6\n        /* \"#utility.yul\":746:769   */\n      sub\n        /* \"#utility.yul\":742:774   */\n      slt\n        /* \"#utility.yul\":739:791   */\n      iszero\n      tag_154\n      jumpi\n        /* \"#utility.yul\":787:788   */\n      0x00\n        /* \"#utility.yul\":784:785   */\n      dup1\n        /* \"#utility.yul\":777:789   */\n      revert\n        /* \"#utility.yul\":739:791   */\n    tag_154:\n        /* \"#utility.yul\":823:832   */\n      dup3\n        /* \"#utility.yul\":810:833   */\n      calldataload\n        /* \"#utility.yul\":800:833   */\n      swap2\n      pop\n        /* \"#utility.yul\":852:854   */\n      0x20\n        /* \"#utility.yul\":905:907   */\n      dup1\n        /* \"#utility.yul\":894:903   */\n      dup5\n        /* \"#utility.yul\":890:908   */\n      add\n        /* \"#utility.yul\":877:909   */\n      calldataload\n        /* \"#utility.yul\":928:946   */\n      0xffffffffffffffff\n        /* \"#utility.yul\":969:971   */\n      dup1\n        /* \"#utility.yul\":961:967   */\n      dup3\n        /* \"#utility.yul\":958:972   */\n      gt\n        /* \"#utility.yul\":955:989   */\n      iszero\n      tag_155\n      jumpi\n        /* \"#utility.yul\":985:986   */\n      0x00\n        /* \"#utility.yul\":982:983   */\n      dup1\n        /* \"#utility.yul\":975:987   */\n      revert\n        /* \"#utility.yul\":955:989   */\n    tag_155:\n        /* \"#utility.yul\":1023:1029   */\n      dup2\n        /* \"#utility.yul\":1012:1021   */\n      dup7\n        /* \"#utility.yul\":1008:1030   */\n      add\n        /* \"#utility.yul\":998:1030   */\n      swap2\n      pop\n        /* \"#utility.yul\":1068:1075   */\n      dup7\n        /* \"#utility.yul\":1061:1065   */\n      0x1f\n        /* \"#utility.yul\":1057:1059   */\n      dup4\n        /* \"#utility.yul\":1053:1066   */\n      add\n        /* \"#utility.yul\":1049:1076   */\n      slt\n        /* \"#utility.yul\":1039:1094   */\n      tag_156\n      jumpi\n        /* \"#utility.yul\":1090:1091   */\n      0x00\n        /* \"#utility.yul\":1087:1088   */\n      dup1\n        /* \"#utility.yul\":1080:1092   */\n      revert\n        /* \"#utility.yul\":1039:1094   */\n    tag_156:\n        /* \"#utility.yul\":1126:1128   */\n      dup2\n        /* \"#utility.yul\":1113:1129   */\n      calldataload\n        /* \"#utility.yul\":1148:1150   */\n      dup2\n        /* \"#utility.yul\":1144:1146   */\n      dup2\n        /* \"#utility.yul\":1141:1151   */\n      gt\n        /* \"#utility.yul\":1138:1174   */\n      iszero\n      tag_158\n      jumpi\n        /* \"#utility.yul\":1154:1172   */\n      tag_158\n      tag_146\n      jump\t// in\n    tag_158:\n        /* \"#utility.yul\":1200:1202   */\n      dup1\n        /* \"#utility.yul\":1197:1198   */\n      0x05\n        /* \"#utility.yul\":1193:1203   */\n      shl\n        /* \"#utility.yul\":1232:1234   */\n      0x40\n        /* \"#utility.yul\":1226:1235   */\n      mload\n        /* \"#utility.yul\":1295:1297   */\n      0x1f\n        /* \"#utility.yul\":1291:1298   */\n      not\n        /* \"#utility.yul\":1286:1288   */\n      0x3f\n        /* \"#utility.yul\":1282:1284   */\n      dup4\n        /* \"#utility.yul\":1278:1289   */\n      add\n        /* \"#utility.yul\":1274:1299   */\n      and\n        /* \"#utility.yul\":1266:1272   */\n      dup2\n        /* \"#utility.yul\":1262:1300   */\n      add\n        /* \"#utility.yul\":1350:1356   */\n      dup2\n        /* \"#utility.yul\":1338:1348   */\n      dup2\n        /* \"#utility.yul\":1335:1357   */\n      lt\n        /* \"#utility.yul\":1330:1332   */\n      dup6\n        /* \"#utility.yul\":1318:1328   */\n      dup3\n        /* \"#utility.yul\":1315:1333   */\n      gt\n        /* \"#utility.yul\":1312:1358   */\n      or\n        /* \"#utility.yul\":1309:1381   */\n      iszero\n      tag_160\n      jumpi\n        /* \"#utility.yul\":1361:1379   */\n      tag_160\n      tag_146\n      jump\t// in\n    tag_160:\n        /* \"#utility.yul\":1397:1399   */\n      0x40\n        /* \"#utility.yul\":1390:1412   */\n      mstore\n        /* \"#utility.yul\":1447:1465   */\n      swap2\n      dup3\n      mstore\n        /* \"#utility.yul\":1481:1496   */\n      dup5\n      dup3\n      add\n      swap3\n      pop\n        /* \"#utility.yul\":1523:1534   */\n      dup4\n      dup2\n      add\n        /* \"#utility.yul\":1519:1539   */\n      dup6\n      add\n      swap2\n        /* \"#utility.yul\":1551:1570   */\n      dup10\n      dup4\n      gt\n        /* \"#utility.yul\":1548:1587   */\n      iszero\n      tag_161\n      jumpi\n        /* \"#utility.yul\":1583:1584   */\n      0x00\n        /* \"#utility.yul\":1580:1581   */\n      dup1\n        /* \"#utility.yul\":1573:1585   */\n      revert\n        /* \"#utility.yul\":1548:1587   */\n    tag_161:\n        /* \"#utility.yul\":1607:1618   */\n      swap4\n      dup6\n      add\n      swap4\n        /* \"#utility.yul\":1627:1769   */\n    tag_162:\n        /* \"#utility.yul\":1643:1649   */\n      dup3\n        /* \"#utility.yul\":1638:1641   */\n      dup6\n        /* \"#utility.yul\":1635:1650   */\n      lt\n        /* \"#utility.yul\":1627:1769   */\n      iszero\n      tag_164\n      jumpi\n        /* \"#utility.yul\":1709:1726   */\n      dup5\n      calldataload\n        /* \"#utility.yul\":1697:1727   */\n      dup5\n      mstore\n        /* \"#utility.yul\":1660:1672   */\n      swap4\n      dup6\n      add\n      swap4\n        /* \"#utility.yul\":1747:1759   */\n      swap3\n      dup6\n      add\n      swap3\n        /* \"#utility.yul\":1627:1769   */\n      jump(tag_162)\n    tag_164:\n        /* \"#utility.yul\":1788:1794   */\n      dup1\n        /* \"#utility.yul\":1778:1794   */\n      swap7\n      pop\n      pop\n      pop\n      pop\n      pop\n      pop\n      pop\n        /* \"#utility.yul\":617:1800   */\n      swap3\n      pop\n      swap3\n      swap1\n      pop\n      jump\t// out\n        /* \"#utility.yul\":2392:2678   */\n    tag_50:\n        /* \"#utility.yul\":2451:2457   */\n      0x00\n        /* \"#utility.yul\":2504:2506   */\n      0x20\n        /* \"#utility.yul\":2492:2501   */\n      dup3\n        /* \"#utility.yul\":2483:2490   */\n      dup5\n        /* \"#utility.yul\":2479:2502   */\n      sub\n        /* \"#utility.yul\":2475:2507   */\n      slt\n        /* \"#utility.yul\":2472:2524   */\n      iszero\n      tag_169\n      jumpi\n        /* \"#utility.yul\":2520:2521   */\n      0x00\n        /* \"#utility.yul\":2517:2518   */\n      dup1\n        /* \"#utility.yul\":2510:2522   */\n      revert\n        /* \"#utility.yul\":2472:2524   */\n    tag_169:\n        /* \"#utility.yul\":2546:2569   */\n      dup2\n      calldataload\n      sub(shl(0xa0, 0x01), 0x01)\n        /* \"#utility.yul\":2598:2629   */\n      dup2\n      and\n        /* \"#utility.yul\":2588:2630   */\n      dup2\n      eq\n        /* \"#utility.yul\":2578:2648   */\n      tag_151\n      jumpi\n        /* \"#utility.yul\":2644:2645   */\n      0x00\n        /* \"#utility.yul\":2641:2642   */\n      dup1\n        /* \"#utility.yul\":2634:2646   */\n      revert\n        /* \"#utility.yul\":2920:3196   */\n    tag_58:\n        /* \"#utility.yul\":2978:2984   */\n      0x00\n        /* \"#utility.yul\":3031:3033   */\n      0x20\n        /* \"#utility.yul\":3019:3028   */\n      dup3\n        /* \"#utility.yul\":3010:3017   */\n      dup5\n        /* \"#utility.yul\":3006:3029   */\n      sub\n        /* \"#utility.yul\":3002:3034   */\n      slt\n        /* \"#utility.yul\":2999:3051   */\n      iszero\n      tag_173\n      jumpi\n        /* \"#utility.yul\":3047:3048   */\n      0x00\n        /* \"#utility.yul\":3044:3045   */\n      dup1\n        /* \"#utility.yul\":3037:3049   */\n      revert\n        /* \"#utility.yul\":2999:3051   */\n    tag_173:\n        /* \"#utility.yul\":3086:3095   */\n      dup2\n        /* \"#utility.yul\":3073:3096   */\n      calldataload\n        /* \"#utility.yul\":3136:3146   */\n      0xffffffff\n        /* \"#utility.yul\":3129:3134   */\n      dup2\n        /* \"#utility.yul\":3125:3147   */\n      and\n        /* \"#utility.yul\":3118:3123   */\n      dup2\n        /* \"#utility.yul\":3115:3148   */\n      eq\n        /* \"#utility.yul\":3105:3166   */\n      tag_151\n      jumpi\n        /* \"#utility.yul\":3162:3163   */\n      0x00\n        /* \"#utility.yul\":3159:3160   */\n      dup1\n        /* \"#utility.yul\":3152:3164   */\n      revert\n        /* \"#utility.yul\":3394:3666   */\n    tag_66:\n        /* \"#utility.yul\":3452:3458   */\n      0x00\n        /* \"#utility.yul\":3505:3507   */\n      0x20\n        /* \"#utility.yul\":3493:3502   */\n      dup3\n        /* \"#utility.yul\":3484:3491   */\n      dup5\n        /* \"#utility.yul\":3480:3503   */\n      sub\n        /* \"#utility.yul\":3476:3508   */\n      slt\n        /* \"#utility.yul\":3473:3525   */\n      iszero\n      tag_177\n      jumpi\n        /* \"#utility.yul\":3521:3522   */\n      0x00\n        /* \"#utility.yul\":3518:3519   */\n      dup1\n        /* \"#utility.yul\":3511:3523   */\n      revert\n        /* \"#utility.yul\":3473:3525   */\n    tag_177:\n        /* \"#utility.yul\":3560:3569   */\n      dup2\n        /* \"#utility.yul\":3547:3570   */\n      calldataload\n        /* \"#utility.yul\":3610:3616   */\n      0xffff\n        /* \"#utility.yul\":3603:3608   */\n      dup2\n        /* \"#utility.yul\":3599:3617   */\n      and\n        /* \"#utility.yul\":3592:3597   */\n      dup2\n        /* \"#utility.yul\":3589:3618   */\n      eq\n        /* \"#utility.yul\":3579:3636   */\n      tag_151\n      jumpi\n        /* \"#utility.yul\":3632:3633   */\n      0x00\n        /* \"#utility.yul\":3629:3630   */\n      dup1\n        /* \"#utility.yul\":3622:3634   */\n      revert\n        /* \"#utility.yul\":3671:3851   */\n    tag_76:\n        /* \"#utility.yul\":3730:3736   */\n      0x00\n        /* \"#utility.yul\":3783:3785   */\n      0x20\n        /* \"#utility.yul\":3771:3780   */\n      dup3\n        /* \"#utility.yul\":3762:3769   */\n      dup5\n        /* \"#utility.yul\":3758:3781   */\n      sub\n        /* \"#utility.yul\":3754:3786   */\n      slt\n        /* \"#utility.yul\":3751:3803   */\n      iszero\n      tag_180\n      jumpi\n        /* \"#utility.yul\":3799:3800   */\n      0x00\n        /* \"#utility.yul\":3796:3797   */\n      dup1\n        /* \"#utility.yul\":3789:3801   */\n      revert\n        /* \"#utility.yul\":3751:3803   */\n    tag_180:\n      pop\n        /* \"#utility.yul\":3822:3845   */\n      calldataload\n      swap2\n        /* \"#utility.yul\":3671:3851   */\n      swap1\n      pop\n      jump\t// out\n        /* \"#utility.yul\":4905:6030   */\n    tag_116:\n        /* \"#utility.yul\":5067:5071   */\n      0x00\n        /* \"#utility.yul\":5096:5098   */\n      0x20\n        /* \"#utility.yul\":5125:5127   */\n      dup1\n        /* \"#utility.yul\":5114:5123   */\n      dup4\n        /* \"#utility.yul\":5107:5128   */\n      mstore\n        /* \"#utility.yul\":5170:5176   */\n      dup4\n        /* \"#utility.yul\":5164:5177   */\n      mload\n        /* \"#utility.yul\":5159:5161   */\n      dup2\n        /* \"#utility.yul\":5148:5157   */\n      dup5\n        /* \"#utility.yul\":5144:5162   */\n      add\n        /* \"#utility.yul\":5137:5178   */\n      mstore\n        /* \"#utility.yul\":5232:5234   */\n      dup1\n        /* \"#utility.yul\":5224:5230   */\n      dup5\n        /* \"#utility.yul\":5220:5235   */\n      add\n        /* \"#utility.yul\":5214:5236   */\n      mload\n        /* \"#utility.yul\":5209:5211   */\n      0x40\n        /* \"#utility.yul\":5198:5207   */\n      dup5\n        /* \"#utility.yul\":5194:5212   */\n      add\n        /* \"#utility.yul\":5187:5237   */\n      mstore\n        /* \"#utility.yul\":5301:5307   */\n      0xffff\n        /* \"#utility.yul\":5295:5297   */\n      0x40\n        /* \"#utility.yul\":5287:5293   */\n      dup6\n        /* \"#utility.yul\":5283:5298   */\n      add\n        /* \"#utility.yul\":5277:5299   */\n      mload\n        /* \"#utility.yul\":5273:5308   */\n      and\n        /* \"#utility.yul\":5268:5270   */\n      0x60\n        /* \"#utility.yul\":5257:5266   */\n      dup5\n        /* \"#utility.yul\":5253:5271   */\n      add\n        /* \"#utility.yul\":5246:5309   */\n      mstore\n        /* \"#utility.yul\":5356:5358   */\n      0x60\n        /* \"#utility.yul\":5348:5354   */\n      dup5\n        /* \"#utility.yul\":5344:5359   */\n      add\n        /* \"#utility.yul\":5338:5360   */\n      mload\n        /* \"#utility.yul\":5379:5389   */\n      0xffffffff\n        /* \"#utility.yul\":5444:5446   */\n      dup1\n        /* \"#utility.yul\":5430:5442   */\n      dup3\n        /* \"#utility.yul\":5426:5447   */\n      and\n        /* \"#utility.yul\":5420:5423   */\n      0x80\n        /* \"#utility.yul\":5409:5418   */\n      dup7\n        /* \"#utility.yul\":5405:5424   */\n      add\n        /* \"#utility.yul\":5398:5448   */\n      mstore\n        /* \"#utility.yul\":5514:5516   */\n      dup1\n        /* \"#utility.yul\":5507:5510   */\n      0x80\n        /* \"#utility.yul\":5499:5505   */\n      dup8\n        /* \"#utility.yul\":5495:5511   */\n      add\n        /* \"#utility.yul\":5489:5512   */\n      mload\n        /* \"#utility.yul\":5485:5517   */\n      and\n        /* \"#utility.yul\":5479:5482   */\n      0xa0\n        /* \"#utility.yul\":5468:5477   */\n      dup7\n        /* \"#utility.yul\":5464:5483   */\n      add\n        /* \"#utility.yul\":5457:5518   */\n      mstore\n      pop\n      pop\n        /* \"#utility.yul\":5567:5570   */\n      0xa0\n        /* \"#utility.yul\":5559:5565   */\n      dup5\n        /* \"#utility.yul\":5555:5571   */\n      add\n        /* \"#utility.yul\":5549:5572   */\n      mload\n        /* \"#utility.yul\":5610:5614   */\n      0xc0\n        /* \"#utility.yul\":5603:5607   */\n      dup1\n        /* \"#utility.yul\":5592:5601   */\n      dup6\n        /* \"#utility.yul\":5588:5608   */\n      add\n        /* \"#utility.yul\":5581:5615   */\n      mstore\n        /* \"#utility.yul\":5644:5658   */\n      dup1\n        /* \"#utility.yul\":5638:5659   */\n      mload\n        /* \"#utility.yul\":5696:5702   */\n      dup1\n        /* \"#utility.yul\":5690:5693   */\n      0xe0\n        /* \"#utility.yul\":5679:5688   */\n      dup7\n        /* \"#utility.yul\":5675:5694   */\n      add\n        /* \"#utility.yul\":5668:5703   */\n      mstore\n        /* \"#utility.yul\":5721:5722   */\n      0x00\n        /* \"#utility.yul\":5731:5880   */\n    tag_185:\n        /* \"#utility.yul\":5745:5751   */\n      dup2\n        /* \"#utility.yul\":5742:5743   */\n      dup2\n        /* \"#utility.yul\":5739:5752   */\n      lt\n        /* \"#utility.yul\":5731:5880   */\n      iszero\n      tag_187\n      jumpi\n        /* \"#utility.yul\":5841:5863   */\n      dup3\n      dup2\n      add\n        /* \"#utility.yul\":5837:5868   */\n      dup5\n      add\n        /* \"#utility.yul\":5831:5869   */\n      mload\n        /* \"#utility.yul\":5806:5823   */\n      dup7\n      dup3\n      add\n        /* \"#utility.yul\":5825:5828   */\n      0x0100\n        /* \"#utility.yul\":5802:5829   */\n      add\n        /* \"#utility.yul\":5795:5870   */\n      mstore\n        /* \"#utility.yul\":5760:5770   */\n      dup4\n      add\n        /* \"#utility.yul\":5731:5880   */\n      jump(tag_185)\n    tag_187:\n        /* \"#utility.yul\":5735:5738   */\n      pop\n        /* \"#utility.yul\":5899:5902   */\n      0x0100\n        /* \"#utility.yul\":5889:5902   */\n      swap3\n      pop\n        /* \"#utility.yul\":5951:5952   */\n      0x00\n        /* \"#utility.yul\":5946:5948   */\n      dup4\n        /* \"#utility.yul\":5937:5943   */\n      dup3\n        /* \"#utility.yul\":5926:5935   */\n      dup8\n        /* \"#utility.yul\":5922:5944   */\n      add\n        /* \"#utility.yul\":5918:5949   */\n      add\n        /* \"#utility.yul\":5911:5953   */\n      mstore\n        /* \"#utility.yul\":6021:6023   */\n      dup3\n        /* \"#utility.yul\":6014:6016   */\n      0x1f\n        /* \"#utility.yul\":6010:6017   */\n      not\n        /* \"#utility.yul\":6005:6007   */\n      0x1f\n        /* \"#utility.yul\":5997:6003   */\n      dup4\n        /* \"#utility.yul\":5993:6008   */\n      add\n        /* \"#utility.yul\":5989:6018   */\n      and\n        /* \"#utility.yul\":5978:5987   */\n      dup7\n        /* \"#utility.yul\":5974:6019   */\n      add\n        /* \"#utility.yul\":5970:6024   */\n      add\n        /* \"#utility.yul\":5962:6024   */\n      swap4\n      pop\n      pop\n      pop\n      pop\n        /* \"#utility.yul\":4905:6030   */\n      swap3\n      swap2\n      pop\n      pop\n      jump\t// out\n        /* \"#utility.yul\":6035:6219   */\n    tag_120:\n        /* \"#utility.yul\":6105:6111   */\n      0x00\n        /* \"#utility.yul\":6158:6160   */\n      0x20\n        /* \"#utility.yul\":6146:6155   */\n      dup3\n        /* \"#utility.yul\":6137:6144   */\n      dup5\n        /* \"#utility.yul\":6133:6156   */\n      sub\n        /* \"#utility.yul\":6129:6161   */\n      slt\n        /* \"#utility.yul\":6126:6178   */\n      iszero\n      tag_189\n      jumpi\n        /* \"#utility.yul\":6174:6175   */\n      0x00\n        /* \"#utility.yul\":6171:6172   */\n      dup1\n        /* \"#utility.yul\":6164:6176   */\n      revert\n        /* \"#utility.yul\":6126:6178   */\n    tag_189:\n      pop\n        /* \"#utility.yul\":6197:6213   */\n      mload\n      swap2\n        /* \"#utility.yul\":6035:6219   */\n      swap1\n      pop\n      jump\t// out\n        /* \"#utility.yul\":6575:7278   */\n    tag_135:\n        /* \"#utility.yul\":6745:6749   */\n      0x00\n        /* \"#utility.yul\":6793:6795   */\n      0x40\n        /* \"#utility.yul\":6782:6791   */\n      dup3\n        /* \"#utility.yul\":6778:6796   */\n      add\n        /* \"#utility.yul\":6823:6829   */\n      dup5\n        /* \"#utility.yul\":6812:6821   */\n      dup4\n        /* \"#utility.yul\":6805:6830   */\n      mstore\n        /* \"#utility.yul\":6849:6851   */\n      0x20\n        /* \"#utility.yul\":6887:6889   */\n      0x40\n        /* \"#utility.yul\":6882:6884   */\n      dup2\n        /* \"#utility.yul\":6871:6880   */\n      dup6\n        /* \"#utility.yul\":6867:6885   */\n      add\n        /* \"#utility.yul\":6860:6890   */\n      mstore\n        /* \"#utility.yul\":6910:6916   */\n      dup2\n        /* \"#utility.yul\":6945:6951   */\n      dup6\n        /* \"#utility.yul\":6939:6952   */\n      mload\n        /* \"#utility.yul\":6976:6982   */\n      dup1\n        /* \"#utility.yul\":6968:6974   */\n      dup5\n        /* \"#utility.yul\":6961:6983   */\n      mstore\n        /* \"#utility.yul\":7014:7016   */\n      0x60\n        /* \"#utility.yul\":7003:7012   */\n      dup7\n        /* \"#utility.yul\":6999:7017   */\n      add\n        /* \"#utility.yul\":6992:7017   */\n      swap2\n      pop\n        /* \"#utility.yul\":7052:7054   */\n      dup3\n        /* \"#utility.yul\":7044:7050   */\n      dup8\n        /* \"#utility.yul\":7040:7055   */\n      add\n        /* \"#utility.yul\":7026:7055   */\n      swap4\n      pop\n        /* \"#utility.yul\":7073:7074   */\n      0x00\n        /* \"#utility.yul\":7083:7252   */\n    tag_192:\n        /* \"#utility.yul\":7097:7103   */\n      dup2\n        /* \"#utility.yul\":7094:7095   */\n      dup2\n        /* \"#utility.yul\":7091:7104   */\n      lt\n        /* \"#utility.yul\":7083:7252   */\n      iszero\n      tag_194\n      jumpi\n        /* \"#utility.yul\":7158:7171   */\n      dup5\n      mload\n        /* \"#utility.yul\":7146:7172   */\n      dup4\n      mstore\n        /* \"#utility.yul\":7227:7242   */\n      swap4\n      dup4\n      add\n      swap4\n        /* \"#utility.yul\":7192:7204   */\n      swap2\n      dup4\n      add\n      swap2\n        /* \"#utility.yul\":7119:7120   */\n      0x01\n        /* \"#utility.yul\":7112:7121   */\n      add\n        /* \"#utility.yul\":7083:7252   */\n      jump(tag_192)\n    tag_194:\n      pop\n        /* \"#utility.yul\":7269:7272   */\n      swap1\n      swap8\n        /* \"#utility.yul\":6575:7278   */\n      swap7\n      pop\n      pop\n      pop\n      pop\n      pop\n      pop\n      pop\n      jump\t// out\n\n    auxdata: 0xa2646970667358221220564135f13263903b7fee217e962f4c25ac4b9351df2da7bbc01dd4c85fe0cfec64736f6c63430008140033\n}\n",
				"bytecode": {
					"linkReferences": {},
					"object": "608060405234801561000f575f80fd5b50604051610c8f380380610c8f83398101604081905261002e916101e7565b8433805f816100845760405162461bcd60e51b815260206004820152601860248201527f43616e6e6f7420736574206f776e657220746f207a65726f000000000000000060448201526064015b60405180910390fd5b5f80546001600160a01b0319166001600160a01b03848116919091179091558116156100b3576100b381610124565b5050600280546001600160a01b039384166001600160a01b031991821617909155600380549990931698169790971790556004939093556005919091556006805463ffffffff909316620100000265ffffffffffff1990931661ffff909216919091179190911790555061025e9050565b336001600160a01b0382160361017c5760405162461bcd60e51b815260206004820152601760248201527f43616e6e6f74207472616e7366657220746f2073656c66000000000000000000604482015260640161007b565b600180546001600160a01b0319166001600160a01b038381169182179092555f8054604051929316917fed8889f560326eb138920d842192f0eb3dd22b4f139c87a2c57538e05bae12789190a350565b80516001600160a01b03811681146101e2575f80fd5b919050565b5f805f805f8060c087890312156101fc575f80fd5b610205876101cc565b9550610213602088016101cc565b94506040870151935060608701519250608087015161ffff81168114610237575f80fd5b60a088015190925063ffffffff81168114610250575f80fd5b809150509295509295509295565b610a248061026b5f395ff3fe608060405234801561000f575f80fd5b50600436106100fb575f3560e01c80639eccacf611610093578063dc4c90d311610063578063dc4c90d314610210578063e0c8628914610223578063e7fa67e51461022b578063f2fde38b1461023e575f80fd5b80639eccacf6146101b6578063b0e8d086146101c9578063b0fb162f146101dc578063ba00f6c5146101fd575f80fd5b806361728f39116100ce57806361728f391461016e57806379ba5097146101775780638da5cb5b1461017f5780638ea98117146101a3575f80fd5b806309c1ba2e146100ff57806314b1dd1b1461011b5780631fe543e31461013057806324f7469714610143575b5f80fd5b61010860055481565b6040519081526020015b60405180910390f35b61012e61012936600461076a565b610251565b005b61012e61013e3660046107ac565b610268565b6006546101599062010000900463ffffffff1681565b60405163ffffffff9091168152602001610112565b61010860045481565b61012e6102bb565b5f546001600160a01b03165b6040516001600160a01b039091168152602001610112565b61012e6101b1366004610871565b610364565b60025461018b906001600160a01b031681565b61012e6101d7366004610897565b61042d565b6006546101ea9061ffff1681565b60405161ffff9091168152602001610112565b61012e61020b3660046108ba565b610459565b60035461018b906001600160a01b031681565b610108610479565b61012e6102393660046108db565b610579565b61012e61024c366004610871565b610586565b61025961059a565b67ffffffffffffffff16600555565b6002546001600160a01b031633146102ad5760025460405163073e64fd60e21b81523360048201526001600160a01b0390911660248201526044015b60405180910390fd5b6102b782826105ee565b5050565b6001546001600160a01b0316331461030e5760405162461bcd60e51b815260206004820152601660248201527526bab9ba10313290383937b837b9b2b21037bbb732b960511b60448201526064016102a4565b5f8054336001600160a01b0319808316821784556001805490911690556040516001600160a01b0390921692909183917f8be0079c531659141344cd1fd0a4f28419497f9722a3daafe3b4186f6b6457e091a350565b5f546001600160a01b0316331480159061038957506002546001600160a01b03163314155b156103d957336103a05f546001600160a01b031690565b60025460405163061db9c160e01b81526001600160a01b03938416600482015291831660248301529190911660448201526064016102a4565b600280546001600160a01b0319166001600160a01b0383169081179091556040519081527fd1a6a14209a385a964d036e404cb5cfb71f4000cdb03c9366292430787261be69060200160405180910390a150565b61043561059a565b6006805463ffffffff909216620100000265ffffffff000019909216919091179055565b61046161059a565b6006805461ffff191661ffff92909216919091179055565b6003545f906001600160a01b031633146104a657604051633bfe162b60e01b815260040160405180910390fd5b6002546040805160c081018252600454815260055460208083019190915260065461ffff81168385015262010000900463ffffffff16606083015260016080830181905283519182019093529182526001600160a01b0390921691639b1c385e9160a082019061051590610651565b8152506040518263ffffffff1660e01b815260040161053491906108f2565b6020604051808303815f875af1158015610550573d5f803e3d5ffd5b505050506040513d601f19601f82011682018060405250810190610574919061098b565b905090565b61058161059a565b600455565b61058e61059a565b610597816106c2565b50565b5f546001600160a01b031633146105ec5760405162461bcd60e51b815260206004820152601660248201527527b7363c9031b0b63630b1363290313c9037bbb732b960511b60448201526064016102a4565b565b600354604051630e2e918560e21b81526001600160a01b03909116906338ba46149061062090859085906004016109a2565b5f604051808303815f87803b158015610637575f80fd5b505af1158015610649573d5f803e3d5ffd5b505050505050565b60607f92fd13387c7fe7befbc38d303d6468778fb9731bc4583f17d92989c6fcfdeaaa8260405160240161068a91511515815260200190565b60408051601f198184030181529190526020810180516001600160e01b03166001600160e01b03199093169290921790915292915050565b336001600160a01b0382160361071a5760405162461bcd60e51b815260206004820152601760248201527f43616e6e6f74207472616e7366657220746f2073656c6600000000000000000060448201526064016102a4565b600180546001600160a01b0319166001600160a01b038381169182179092555f8054604051929316917fed8889f560326eb138920d842192f0eb3dd22b4f139c87a2c57538e05bae12789190a350565b5f6020828403121561077a575f80fd5b813567ffffffffffffffff81168114610791575f80fd5b9392505050565b634e487b7160e01b5f52604160045260245ffd5b5f80604083850312156107bd575f80fd5b8235915060208084013567ffffffffffffffff808211156107dc575f80fd5b818601915086601f8301126107ef575f80fd5b81358181111561080157610801610798565b8060051b604051601f19603f8301168101818110858211171561082657610826610798565b604052918252848201925083810185019189831115610843575f80fd5b938501935b8285101561086157843584529385019392850192610848565b8096505050505050509250929050565b5f60208284031215610881575f80fd5b81356001600160a01b0381168114610791575f80fd5b5f602082840312156108a7575f80fd5b813563ffffffff81168114610791575f80fd5b5f602082840312156108ca575f80fd5b813561ffff81168114610791575f80fd5b5f602082840312156108eb575f80fd5b5035919050565b5f602080835283518184015280840151604084015261ffff6040850151166060840152606084015163ffffffff80821660808601528060808701511660a0860152505060a084015160c08085015280518060e08601525f5b81811015610967578281018401518682016101000152830161094a565b5061010092505f83828701015282601f19601f830116860101935050505092915050565b5f6020828403121561099b575f80fd5b5051919050565b5f60408201848352602060408185015281855180845260608601915082870193505f5b818110156109e1578451835293830193918301916001016109c5565b509097965050505050505056fea2646970667358221220564135f13263903b7fee217e962f4c25ac4b9351df2da7bbc01dd4c85fe0cfec64736f6c63430008140033",
					"opcodes": "PUSH1 0x80 PUSH1 0x40 MSTORE CALLVALUE DUP1 ISZERO PUSH2 0xF JUMPI PUSH0 DUP1 REVERT JUMPDEST POP PUSH1 0x40 MLOAD PUSH2 0xC8F CODESIZE SUB DUP1 PUSH2 0xC8F DUP4 CODECOPY DUP2 ADD PUSH1 0x40 DUP2 SWAP1 MSTORE PUSH2 0x2E SWAP2 PUSH2 0x1E7 JUMP JUMPDEST DUP5 CALLER DUP1 PUSH0 DUP2 PUSH2 0x84 JUMPI PUSH1 0x40 MLOAD PUSH3 0x461BCD PUSH1 0xE5 SHL DUP2 MSTORE PUSH1 0x20 PUSH1 0x4 DUP3 ADD MSTORE PUSH1 0x18 PUSH1 0x24 DUP3 ADD MSTORE PUSH32 0x43616E6E6F7420736574206F776E657220746F207A65726F0000000000000000 PUSH1 0x44 DUP3 ADD MSTORE PUSH1 0x64 ADD JUMPDEST PUSH1 0x40 MLOAD DUP1 SWAP2 SUB SWAP1 REVERT JUMPDEST PUSH0 DUP1 SLOAD PUSH1 0x1 PUSH1 0x1 PUSH1 0xA0 SHL SUB NOT AND PUSH1 0x1 PUSH1 0x1 PUSH1 0xA0 SHL SUB DUP5 DUP2 AND SWAP2 SWAP1 SWAP2 OR SWAP1 SWAP2 SSTORE DUP2 AND ISZERO PUSH2 0xB3 JUMPI PUSH2 0xB3 DUP2 PUSH2 0x124 JUMP JUMPDEST POP POP PUSH1 0x2 DUP1 SLOAD PUSH1 0x1 PUSH1 0x1 PUSH1 0xA0 SHL SUB SWAP4 DUP5 AND PUSH1 0x1 PUSH1 0x1 PUSH1 0xA0 SHL SUB NOT SWAP2 DUP3 AND OR SWAP1 SWAP2 SSTORE PUSH1 0x3 DUP1 SLOAD SWAP10 SWAP1 SWAP4 AND SWAP9 AND SWAP8 SWAP1 SWAP8 OR SWAP1 SSTORE PUSH1 0x4 SWAP4 SWAP1 SWAP4 SSTORE PUSH1 0x5 SWAP2 SWAP1 SWAP2 SSTORE PUSH1 0x6 DUP1 SLOAD PUSH4 0xFFFFFFFF SWAP1 SWAP4 AND PUSH3 0x10000 MUL PUSH6 0xFFFFFFFFFFFF NOT SWAP1 SWAP4 AND PUSH2 0xFFFF SWAP1 SWAP3 AND SWAP2 SWAP1 SWAP2 OR SWAP2 SWAP1 SWAP2 OR SWAP1 SSTORE POP PUSH2 0x25E SWAP1 POP JUMP JUMPDEST CALLER PUSH1 0x1 PUSH1 0x1 PUSH1 0xA0 SHL SUB DUP3 AND SUB PUSH2 0x17C JUMPI PUSH1 0x40 MLOAD PUSH3 0x461BCD PUSH1 0xE5 SHL DUP2 MSTORE PUSH1 0x20 PUSH1 0x4 DUP3 ADD MSTORE PUSH1 0x17 PUSH1 0x24 DUP3 ADD MSTORE PUSH32 0x43616E6E6F74207472616E7366657220746F2073656C66000000000000000000 PUSH1 0x44 DUP3 ADD MSTORE PUSH1 0x64 ADD PUSH2 0x7B JUMP JUMPDEST PUSH1 0x1 DUP1 SLOAD PUSH1 0x1 PUSH1 0x1 PUSH1 0xA0 SHL SUB NOT AND PUSH1 0x1 PUSH1 0x1 PUSH1 0xA0 SHL SUB DUP4 DUP2 AND SWAP2 DUP3 OR SWAP1 SWAP3 SSTORE PUSH0 DUP1 SLOAD PUSH1 0x40 MLOAD SWAP3 SWAP4 AND SWAP2 PUSH32 0xED8889F560326EB138920D842192F0EB3DD22B4F139C87A2C57538E05BAE1278 SWAP2 SWAP1 LOG3 POP JUMP JUMPDEST DUP1 MLOAD PUSH1 0x1 PUSH1 0x1 PUSH1 0xA0 SHL SUB DUP2 AND DUP2 EQ PUSH2 0x1E2 JUMPI PUSH0 DUP1 REVERT JUMPDEST SWAP2 SWAP1 POP JUMP JUMPDEST PUSH0 DUP1 PUSH0 DUP1 PUSH0 DUP1 PUSH1 0xC0 DUP8 DUP10 SUB SLT ISZERO PUSH2 0x1FC JUMPI PUSH0 DUP1 REVERT JUMPDEST PUSH2 0x205 DUP8 PUSH2 0x1CC JUMP JUMPDEST SWAP6 POP PUSH2 0x213 PUSH1 0x20 DUP9 ADD PUSH2 0x1CC JUMP JUMPDEST SWAP5 POP PUSH1 0x40 DUP8 ADD MLOAD SWAP4 POP PUSH1 0x60 DUP8 ADD MLOAD SWAP3 POP PUSH1 0x80 DUP8 ADD MLOAD PUSH2 0xFFFF DUP2 AND DUP2 EQ PUSH2 0x237 JUMPI PUSH0 DUP1 REVERT JUMPDEST PUSH1 0xA0 DUP9 ADD MLOAD SWAP1 SWAP3 POP PUSH4 0xFFFFFFFF DUP2 AND DUP2 EQ PUSH2 0x250 JUMPI PUSH0 DUP1 REVERT JUMPDEST DUP1 SWAP2 POP POP SWAP3 SWAP6 POP SWAP3 SWAP6 POP SWAP3 SWAP6 JUMP JUMPDEST PUSH2 0xA24 DUP1 PUSH2 0x26B PUSH0 CODECOPY PUSH0 RETURN INVALID PUSH1 0x80 PUSH1 0x40 MSTORE CALLVALUE DUP1 ISZERO PUSH2 0xF JUMPI PUSH0 DUP1 REVERT JUMPDEST POP PUSH1 0x4 CALLDATASIZE LT PUSH2 0xFB JUMPI PUSH0 CALLDATALOAD PUSH1 0xE0 SHR DUP1 PUSH4 0x9ECCACF6 GT PUSH2 0x93 JUMPI DUP1 PUSH4 0xDC4C90D3 GT PUSH2 0x63 JUMPI DUP1 PUSH4 0xDC4C90D3 EQ PUSH2 0x210 JUMPI DUP1 PUSH4 0xE0C86289 EQ PUSH2 0x223 JUMPI DUP1 PUSH4 0xE7FA67E5 EQ PUSH2 0x22B JUMPI DUP1 PUSH4 0xF2FDE38B EQ PUSH2 0x23E JUMPI PUSH0 DUP1 REVERT JUMPDEST DUP1 PUSH4 0x9ECCACF6 EQ PUSH2 0x1B6 JUMPI DUP1 PUSH4 0xB0E8D086 EQ PUSH2 0x1C9 JUMPI DUP1 PUSH4 0xB0FB162F EQ PUSH2 0x1DC JUMPI DUP1 PUSH4 0xBA00F6C5 EQ PUSH2 0x1FD JUMPI PUSH0 DUP1 REVERT JUMPDEST DUP1 PUSH4 0x61728F39 GT PUSH2 0xCE JUMPI DUP1 PUSH4 0x61728F39 EQ PUSH2 0x16E JUMPI DUP1 PUSH4 0x79BA5097 EQ PUSH2 0x177 JUMPI DUP1 PUSH4 0x8DA5CB5B EQ PUSH2 0x17F JUMPI DUP1 PUSH4 0x8EA98117 EQ PUSH2 0x1A3 JUMPI PUSH0 DUP1 REVERT JUMPDEST DUP1 PUSH4 0x9C1BA2E EQ PUSH2 0xFF JUMPI DUP1 PUSH4 0x14B1DD1B EQ PUSH2 0x11B JUMPI DUP1 PUSH4 0x1FE543E3 EQ PUSH2 0x130 JUMPI DUP1 PUSH4 0x24F74697 EQ PUSH2 0x143 JUMPI JUMPDEST PUSH0 DUP1 REVERT JUMPDEST PUSH2 0x108 PUSH1 0x5 SLOAD DUP2 JUMP JUMPDEST PUSH1 0x40 MLOAD SWAP1 DUP2 MSTORE PUSH1 0x20 ADD JUMPDEST PUSH1 0x40 MLOAD DUP1 SWAP2 SUB SWAP1 RETURN JUMPDEST PUSH2 0x12E PUSH2 0x129 CALLDATASIZE PUSH1 0x4 PUSH2 0x76A JUMP JUMPDEST PUSH2 0x251 JUMP JUMPDEST STOP JUMPDEST PUSH2 0x12E PUSH2 0x13E CALLDATASIZE PUSH1 0x4 PUSH2 0x7AC JUMP JUMPDEST PUSH2 0x268 JUMP JUMPDEST PUSH1 0x6 SLOAD PUSH2 0x159 SWAP1 PUSH3 0x10000 SWAP1 DIV PUSH4 0xFFFFFFFF AND DUP2 JUMP JUMPDEST PUSH1 0x40 MLOAD PUSH4 0xFFFFFFFF SWAP1 SWAP2 AND DUP2 MSTORE PUSH1 0x20 ADD PUSH2 0x112 JUMP JUMPDEST PUSH2 0x108 PUSH1 0x4 SLOAD DUP2 JUMP JUMPDEST PUSH2 0x12E PUSH2 0x2BB JUMP JUMPDEST PUSH0 SLOAD PUSH1 0x1 PUSH1 0x1 PUSH1 0xA0 SHL SUB AND JUMPDEST PUSH1 0x40 MLOAD PUSH1 0x1 PUSH1 0x1 PUSH1 0xA0 SHL SUB SWAP1 SWAP2 AND DUP2 MSTORE PUSH1 0x20 ADD PUSH2 0x112 JUMP JUMPDEST PUSH2 0x12E PUSH2 0x1B1 CALLDATASIZE PUSH1 0x4 PUSH2 0x871 JUMP JUMPDEST PUSH2 0x364 JUMP JUMPDEST PUSH1 0x2 SLOAD PUSH2 0x18B SWAP1 PUSH1 0x1 PUSH1 0x1 PUSH1 0xA0 SHL SUB AND DUP2 JUMP JUMPDEST PUSH2 0x12E PUSH2 0x1D7 CALLDATASIZE PUSH1 0x4 PUSH2 0x897 JUMP JUMPDEST PUSH2 0x42D JUMP JUMPDEST PUSH1 0x6 SLOAD PUSH2 0x1EA SWAP1 PUSH2 0xFFFF AND DUP2 JUMP JUMPDEST PUSH1 0x40 MLOAD PUSH2 0xFFFF SWAP1 SWAP2 AND DUP2 MSTORE PUSH1 0x20 ADD PUSH2 0x112 JUMP JUMPDEST PUSH2 0x12E PUSH2 0x20B CALLDATASIZE PUSH1 0x4 PUSH2 0x8BA JUMP JUMPDEST PUSH2 0x459 JUMP JUMPDEST PUSH1 0x3 SLOAD PUSH2 0x18B SWAP1 PUSH1 0x1 PUSH1 0x1 PUSH1 0xA0 SHL SUB AND DUP2 JUMP JUMPDEST PUSH2 0x108 PUSH2 0x479 JUMP JUMPDEST PUSH2 0x12E PUSH2 0x239 CALLDATASIZE PUSH1 0x4 PUSH2 0x8DB JUMP JUMPDEST PUSH2 0x579 JUMP JUMPDEST PUSH2 0x12E PUSH2 0x24C CALLDATASIZE PUSH1 0x4 PUSH2 0x871 JUMP JUMPDEST PUSH2 0x586 JUMP JUMPDEST PUSH2 0x259 PUSH2 0x59A JUMP JUMPDEST PUSH8 0xFFFFFFFFFFFFFFFF AND PUSH1 0x5 SSTORE JUMP JUMPDEST PUSH1 0x2 SLOAD PUSH1 0x1 PUSH1 0x1 PUSH1 0xA0 SHL SUB AND CALLER EQ PUSH2 0x2AD JUMPI PUSH1 0x2 SLOAD PUSH1 0x40 MLOAD PUSH4 0x73E64FD PUSH1 0xE2 SHL DUP2 MSTORE CALLER PUSH1 0x4 DUP3 ADD MSTORE PUSH1 0x1 PUSH1 0x1 PUSH1 0xA0 SHL SUB SWAP1 SWAP2 AND PUSH1 0x24 DUP3 ADD MSTORE PUSH1 0x44 ADD JUMPDEST PUSH1 0x40 MLOAD DUP1 SWAP2 SUB SWAP1 REVERT JUMPDEST PUSH2 0x2B7 DUP3 DUP3 PUSH2 0x5EE JUMP JUMPDEST POP POP JUMP JUMPDEST PUSH1 0x1 SLOAD PUSH1 0x1 PUSH1 0x1 PUSH1 0xA0 SHL SUB AND CALLER EQ PUSH2 0x30E JUMPI PUSH1 0x40 MLOAD PUSH3 0x461BCD PUSH1 0xE5 SHL DUP2 MSTORE PUSH1 0x20 PUSH1 0x4 DUP3 ADD MSTORE PUSH1 0x16 PUSH1 0x24 DUP3 ADD MSTORE PUSH22 0x26BAB9BA10313290383937B837B9B2B21037BBB732B9 PUSH1 0x51 SHL PUSH1 0x44 DUP3 ADD MSTORE PUSH1 0x64 ADD PUSH2 0x2A4 JUMP JUMPDEST PUSH0 DUP1 SLOAD CALLER PUSH1 0x1 PUSH1 0x1 PUSH1 0xA0 SHL SUB NOT DUP1 DUP4 AND DUP3 OR DUP5 SSTORE PUSH1 0x1 DUP1 SLOAD SWAP1 SWAP2 AND SWAP1 SSTORE PUSH1 0x40 MLOAD PUSH1 0x1 PUSH1 0x1 PUSH1 0xA0 SHL SUB SWAP1 SWAP3 AND SWAP3 SWAP1 SWAP2 DUP4 SWAP2 PUSH32 0x8BE0079C531659141344CD1FD0A4F28419497F9722A3DAAFE3B4186F6B6457E0 SWAP2 LOG3 POP JUMP JUMPDEST PUSH0 SLOAD PUSH1 0x1 PUSH1 0x1 PUSH1 0xA0 SHL SUB AND CALLER EQ DUP1 ISZERO SWAP1 PUSH2 0x389 JUMPI POP PUSH1 0x2 SLOAD PUSH1 0x1 PUSH1 0x1 PUSH1 0xA0 SHL SUB AND CALLER EQ ISZERO JUMPDEST ISZERO PUSH2 0x3D9 JUMPI CALLER PUSH2 0x3A0 PUSH0 SLOAD PUSH1 0x1 PUSH1 0x1 PUSH1 0xA0 SHL SUB AND SWAP1 JUMP JUMPDEST PUSH1 0x2 SLOAD PUSH1 0x40 MLOAD PUSH4 0x61DB9C1 PUSH1 0xE0 SHL DUP2 MSTORE PUSH1 0x1 PUSH1 0x1 PUSH1 0xA0 SHL SUB SWAP4 DUP5 AND PUSH1 0x4 DUP3 ADD MSTORE SWAP2 DUP4 AND PUSH1 0x24 DUP4 ADD MSTORE SWAP2 SWAP1 SWAP2 AND PUSH1 0x44 DUP3 ADD MSTORE PUSH1 0x64 ADD PUSH2 0x2A4 JUMP JUMPDEST PUSH1 0x2 DUP1 SLOAD PUSH1 0x1 PUSH1 0x1 PUSH1 0xA0 SHL SUB NOT AND PUSH1 0x1 PUSH1 0x1 PUSH1 0xA0 SHL SUB DUP4 AND SWAP1 DUP2 OR SWAP1 SWAP2 SSTORE PUSH1 0x40 MLOAD SWAP1 DUP2 MSTORE PUSH32 0xD1A6A14209A385A964D036E404CB5CFB71F4000CDB03C9366292430787261BE6 SWAP1 PUSH1 0x20 ADD PUSH1 0x40 MLOAD DUP1 SWAP2 SUB SWAP1 LOG1 POP JUMP JUMPDEST PUSH2 0x435 PUSH2 0x59A JUMP JUMPDEST PUSH1 0x6 DUP1 SLOAD PUSH4 0xFFFFFFFF SWAP1 SWAP3 AND PUSH3 0x10000 MUL PUSH6 0xFFFFFFFF0000 NOT SWAP1 SWAP3 AND SWAP2 SWAP1 SWAP2 OR SWAP1 SSTORE JUMP JUMPDEST PUSH2 0x461 PUSH2 0x59A JUMP JUMPDEST PUSH1 0x6 DUP1 SLOAD PUSH2 0xFFFF NOT AND PUSH2 0xFFFF SWAP3 SWAP1 SWAP3 AND SWAP2 SWAP1 SWAP2 OR SWAP1 SSTORE JUMP JUMPDEST PUSH1 0x3 SLOAD PUSH0 SWAP1 PUSH1 0x1 PUSH1 0x1 PUSH1 0xA0 SHL SUB AND CALLER EQ PUSH2 0x4A6 JUMPI PUSH1 0x40 MLOAD PUSH4 0x3BFE162B PUSH1 0xE0 SHL DUP2 MSTORE PUSH1 0x4 ADD PUSH1 0x40 MLOAD DUP1 SWAP2 SUB SWAP1 REVERT JUMPDEST PUSH1 0x2 SLOAD PUSH1 0x40 DUP1 MLOAD PUSH1 0xC0 DUP2 ADD DUP3 MSTORE PUSH1 0x4 SLOAD DUP2 MSTORE PUSH1 0x5 SLOAD PUSH1 0x20 DUP1 DUP4 ADD SWAP2 SWAP1 SWAP2 MSTORE PUSH1 0x6 SLOAD PUSH2 0xFFFF DUP2 AND DUP4 DUP6 ADD MSTORE PUSH3 0x10000 SWAP1 DIV PUSH4 0xFFFFFFFF AND PUSH1 0x60 DUP4 ADD MSTORE PUSH1 0x1 PUSH1 0x80 DUP4 ADD DUP2 SWAP1 MSTORE DUP4 MLOAD SWAP2 DUP3 ADD SWAP1 SWAP4 MSTORE SWAP2 DUP3 MSTORE PUSH1 0x1 PUSH1 0x1 PUSH1 0xA0 SHL SUB SWAP1 SWAP3 AND SWAP2 PUSH4 0x9B1C385E SWAP2 PUSH1 0xA0 DUP3 ADD SWAP1 PUSH2 0x515 SWAP1 PUSH2 0x651 JUMP JUMPDEST DUP2 MSTORE POP PUSH1 0x40 MLOAD DUP3 PUSH4 0xFFFFFFFF AND PUSH1 0xE0 SHL DUP2 MSTORE PUSH1 0x4 ADD PUSH2 0x534 SWAP2 SWAP1 PUSH2 0x8F2 JUMP JUMPDEST PUSH1 0x20 PUSH1 0x40 MLOAD DUP1 DUP4 SUB DUP2 PUSH0 DUP8 GAS CALL ISZERO DUP1 ISZERO PUSH2 0x550 JUMPI RETURNDATASIZE PUSH0 DUP1 RETURNDATACOPY RETURNDATASIZE PUSH0 REVERT JUMPDEST POP POP POP POP PUSH1 0x40 MLOAD RETURNDATASIZE PUSH1 0x1F NOT PUSH1 0x1F DUP3 ADD AND DUP3 ADD DUP1 PUSH1 0x40 MSTORE POP DUP2 ADD SWAP1 PUSH2 0x574 SWAP2 SWAP1 PUSH2 0x98B JUMP JUMPDEST SWAP1 POP SWAP1 JUMP JUMPDEST PUSH2 0x581 PUSH2 0x59A JUMP JUMPDEST PUSH1 0x4 SSTORE JUMP JUMPDEST PUSH2 0x58E PUSH2 0x59A JUMP JUMPDEST PUSH2 0x597 DUP2 PUSH2 0x6C2 JUMP JUMPDEST POP JUMP JUMPDEST PUSH0 SLOAD PUSH1 0x1 PUSH1 0x1 PUSH1 0xA0 SHL SUB AND CALLER EQ PUSH2 0x5EC JUMPI PUSH1 0x40 MLOAD PUSH3 0x461BCD PUSH1 0xE5 SHL DUP2 MSTORE PUSH1 0x20 PUSH1 0x4 DUP3 ADD MSTORE PUSH1 0x16 PUSH1 0x24 DUP3 ADD MSTORE PUSH22 0x27B7363C9031B0B63630B1363290313C9037BBB732B9 PUSH1 0x51 SHL PUSH1 0x44 DUP3 ADD MSTORE PUSH1 0x64 ADD PUSH2 0x2A4 JUMP JUMPDEST JUMP JUMPDEST PUSH1 0x3 SLOAD PUSH1 0x40 MLOAD PUSH4 0xE2E9185 PUSH1 0xE2 SHL DUP2 MSTORE PUSH1 0x1 PUSH1 0x1 PUSH1 0xA0 SHL SUB SWAP1 SWAP2 AND SWAP1 PUSH4 0x38BA4614 SWAP1 PUSH2 0x620 SWAP1 DUP6 SWAP1 DUP6 SWAP1 PUSH1 0x4 ADD PUSH2 0x9A2 JUMP JUMPDEST PUSH0 PUSH1 0x40 MLOAD DUP1 DUP4 SUB DUP2 PUSH0 DUP8 DUP1 EXTCODESIZE ISZERO DUP1 ISZERO PUSH2 0x637 JUMPI PUSH0 DUP1 REVERT JUMPDEST POP GAS CALL ISZERO DUP1 ISZERO PUSH2 0x649 JUMPI RETURNDATASIZE PUSH0 DUP1 RETURNDATACOPY RETURNDATASIZE PUSH0 REVERT JUMPDEST POP POP POP POP POP POP JUMP JUMPDEST PUSH1 0x60 PUSH32 0x92FD13387C7FE7BEFBC38D303D6468778FB9731BC4583F17D92989C6FCFDEAAA DUP3 PUSH1 0x40 MLOAD PUSH1 0x24 ADD PUSH2 0x68A SWAP2 MLOAD ISZERO ISZERO DUP2 MSTORE PUSH1 0x20 ADD SWAP1 JUMP JUMPDEST PUSH1 0x40 DUP1 MLOAD PUSH1 0x1F NOT DUP2 DUP5 SUB ADD DUP2 MSTORE SWAP2 SWAP1 MSTORE PUSH1 0x20 DUP2 ADD DUP1 MLOAD PUSH1 0x1 PUSH1 0x1 PUSH1 0xE0 SHL SUB AND PUSH1 0x1 PUSH1 0x1 PUSH1 0xE0 SHL SUB NOT SWAP1 SWAP4 AND SWAP3 SWAP1 SWAP3 OR SWAP1 SWAP2 MSTORE SWAP3 SWAP2 POP POP JUMP JUMPDEST CALLER PUSH1 0x1 PUSH1 0x1 PUSH1 0xA0 SHL SUB DUP3 AND SUB PUSH2 0x71A JUMPI PUSH1 0x40 MLOAD PUSH3 0x461BCD PUSH1 0xE5 SHL DUP2 MSTORE PUSH1 0x20 PUSH1 0x4 DUP3 ADD MSTORE PUSH1 0x17 PUSH1 0x24 DUP3 ADD MSTORE PUSH32 0x43616E6E6F74207472616E7366657220746F2073656C66000000000000000000 PUSH1 0x44 DUP3 ADD MSTORE PUSH1 0x64 ADD PUSH2 0x2A4 JUMP JUMPDEST PUSH1 0x1 DUP1 SLOAD PUSH1 0x1 PUSH1 0x1 PUSH1 0xA0 SHL SUB NOT AND PUSH1 0x1 PUSH1 0x1 PUSH1 0xA0 SHL SUB DUP4 DUP2 AND SWAP2 DUP3 OR SWAP1 SWAP3 SSTORE PUSH0 DUP1 SLOAD PUSH1 0x40 MLOAD SWAP3 SWAP4 AND SWAP2 PUSH32 0xED8889F560326EB138920D842192F0EB3DD22B4F139C87A2C57538E05BAE1278 SWAP2 SWAP1 LOG3 POP JUMP JUMPDEST PUSH0 PUSH1 0x20 DUP3 DUP5 SUB SLT ISZERO PUSH2 0x77A JUMPI PUSH0 DUP1 REVERT JUMPDEST DUP2 CALLDATALOAD PUSH8 0xFFFFFFFFFFFFFFFF DUP2 AND DUP2 EQ PUSH2 0x791 JUMPI PUSH0 DUP1 REVERT JUMPDEST SWAP4 SWAP3 POP POP POP JUMP JUMPDEST PUSH4 0x4E487B71 PUSH1 0xE0 SHL PUSH0 MSTORE PUSH1 0x41 PUSH1 0x4 MSTORE PUSH1 0x24 PUSH0 REVERT JUMPDEST PUSH0 DUP1 PUSH1 0x40 DUP4 DUP6 SUB SLT ISZERO PUSH2 0x7BD JUMPI PUSH0 DUP1 REVERT JUMPDEST DUP3 CALLDATALOAD SWAP2 POP PUSH1 0x20 DUP1 DUP5 ADD CALLDATALOAD PUSH8 0xFFFFFFFFFFFFFFFF DUP1 DUP3 GT ISZERO PUSH2 0x7DC JUMPI PUSH0 DUP1 REVERT JUMPDEST DUP2 DUP7 ADD SWAP2 POP DUP7 PUSH1 0x1F DUP4 ADD SLT PUSH2 0x7EF JUMPI PUSH0 DUP1 REVERT JUMPDEST DUP2 CALLDATALOAD DUP2 DUP2 GT ISZERO PUSH2 0x801 JUMPI PUSH2 0x801 PUSH2 0x798 JUMP JUMPDEST DUP1 PUSH1 0x5 SHL PUSH1 0x40 MLOAD PUSH1 0x1F NOT PUSH1 0x3F DUP4 ADD AND DUP2 ADD DUP2 DUP2 LT DUP6 DUP3 GT OR ISZERO PUSH2 0x826 JUMPI PUSH2 0x826 PUSH2 0x798 JUMP JUMPDEST PUSH1 0x40 MSTORE SWAP2 DUP3 MSTORE DUP5 DUP3 ADD SWAP3 POP DUP4 DUP2 ADD DUP6 ADD SWAP2 DUP10 DUP4 GT ISZERO PUSH2 0x843 JUMPI PUSH0 DUP1 REVERT JUMPDEST SWAP4 DUP6 ADD SWAP4 JUMPDEST DUP3 DUP6 LT ISZERO PUSH2 0x861 JUMPI DUP5 CALLDATALOAD DUP5 MSTORE SWAP4 DUP6 ADD SWAP4 SWAP3 DUP6 ADD SWAP3 PUSH2 0x848 JUMP JUMPDEST DUP1 SWAP7 POP POP POP POP POP POP POP SWAP3 POP SWAP3 SWAP1 POP JUMP JUMPDEST PUSH0 PUSH1 0x20 DUP3 DUP5 SUB SLT ISZERO PUSH2 0x881 JUMPI PUSH0 DUP1 REVERT JUMPDEST DUP2 CALLDATALOAD PUSH1 0x1 PUSH1 0x1 PUSH1 0xA0 SHL SUB DUP2 AND DUP2 EQ PUSH2 0x791 JUMPI PUSH0 DUP1 REVERT JUMPDEST PUSH0 PUSH1 0x20 DUP3 DUP5 SUB SLT ISZERO PUSH2 0x8A7 JUMPI PUSH0 DUP1 REVERT JUMPDEST DUP2 CALLDATALOAD PUSH4 0xFFFFFFFF DUP2 AND DUP2 EQ PUSH2 0x791 JUMPI PUSH0 DUP1 REVERT JUMPDEST PUSH0 PUSH1 0x20 DUP3 DUP5 SUB SLT ISZERO PUSH2 0x8CA JUMPI PUSH0 DUP1 REVERT JUMPDEST DUP2 CALLDATALOAD PUSH2 0xFFFF DUP2 AND DUP2 EQ PUSH2 0x791 JUMPI PUSH0 DUP1 REVERT JUMPDEST PUSH0 PUSH1 0x20 DUP3 DUP5 SUB SLT ISZERO PUSH2 0x8EB JUMPI PUSH0 DUP1 REVERT JUMPDEST POP CALLDATALOAD SWAP2 SWAP1 POP JUMP JUMPDEST PUSH0 PUSH1 0x20 DUP1 DUP4 MSTORE DUP4 MLOAD DUP2 DUP5 ADD MSTORE DUP1 DUP5 ADD MLOAD PUSH1 0x40 DUP5 ADD MSTORE PUSH2 0xFFFF PUSH1 0x40 DUP6 ADD MLOAD AND PUSH1 0x60 DUP5 ADD MSTORE PUSH1 0x60 DUP5 ADD MLOAD PUSH4 0xFFFFFFFF DUP1 DUP3 AND PUSH1 0x80 DUP7 ADD MSTORE DUP1 PUSH1 0x80 DUP8 ADD MLOAD AND PUSH1 0xA0 DUP7 ADD MSTORE POP POP PUSH1 0xA0 DUP5 ADD MLOAD PUSH1 0xC0 DUP1 DUP6 ADD MSTORE DUP1 MLOAD DUP1 PUSH1 0xE0 DUP7 ADD MSTORE PUSH0 JUMPDEST DUP2 DUP2 LT ISZERO PUSH2 0x967 JUMPI DUP3 DUP2 ADD DUP5 ADD MLOAD DUP7 DUP3 ADD PUSH2 0x100 ADD MSTORE DUP4 ADD PUSH2 0x94A JUMP JUMPDEST POP PUSH2 0x100 SWAP3 POP PUSH0 DUP4 DUP3 DUP8 ADD ADD MSTORE DUP3 PUSH1 0x1F NOT PUSH1 0x1F DUP4 ADD AND DUP7 ADD ADD SWAP4 POP POP POP POP SWAP3 SWAP2 POP POP JUMP JUMPDEST PUSH0 PUSH1 0x20 DUP3 DUP5 SUB SLT ISZERO PUSH2 0x99B JUMPI PUSH0 DUP1 REVERT JUMPDEST POP MLOAD SWAP2 SWAP1 POP JUMP JUMPDEST PUSH0 PUSH1 0x40 DUP3 ADD DUP5 DUP4 MSTORE PUSH1 0x20 PUSH1 0x40 DUP2 DUP6 ADD MSTORE DUP2 DUP6 MLOAD DUP1 DUP5 MSTORE PUSH1 0x60 DUP7 ADD SWAP2 POP DUP3 DUP8 ADD SWAP4 POP PUSH0 JUMPDEST DUP2 DUP2 LT ISZERO PUSH2 0x9E1 JUMPI DUP5 MLOAD DUP4 MSTORE SWAP4 DUP4 ADD SWAP4 SWAP2 DUP4 ADD SWAP2 PUSH1 0x1 ADD PUSH2 0x9C5 JUMP JUMPDEST POP SWAP1 SWAP8 SWAP7 POP POP POP POP POP POP POP JUMP INVALID LOG2 PUSH5 0x6970667358 0x22 SLT KECCAK256 JUMP COINBASE CALLDATALOAD CALL ORIGIN PUSH4 0x903B7FEE 0x21 PUSH31 0x962F4C25AC4B9351DF2DA7BBC01DD4C85FE0CFEC64736F6C63430008140033 "
				},
				"gasEstimates": {
					"creation": {
						"codeDepositCost": "519200",
						"executionCost": "infinite",
						"totalCost": "infinite"
					},
					"external": {
						"acceptOwnership()": "52342",
						"callbackGasLimit()": "2413",
						"keyHash()": "2306",
						"owner()": "2385",
						"poolManager()": "2358",
						"rawFulfillRandomWords(uint256,uint256[])": "infinite",
						"requestConfirmations()": "2379",
						"requestRandomWords()": "infinite",
						"s_vrfCoordinator()": "2359",
						"setCoordinator(address)": "29972",
						"subscriptionId()": "2307",
						"transferOwnership(address)": "30485",
						"updateCallbackGasLimit(uint32)": "26717",
						"updateKeyHash(bytes32)": "24551",
						"updateRequestConfirmations(uint16)": "26750",
						"updateSubscriptionId(uint64)": "24571"
					},
					"internal": {
						"fulfillRandomWords(uint256,uint256[] memory)": "infinite"
					}
				},
				"methodIdentifiers": {
					"acceptOwnership()": "79ba5097",
					"callbackGasLimit()": "24f74697",
					"keyHash()": "61728f39",
					"owner()": "8da5cb5b",
					"poolManager()": "dc4c90d3",
					"rawFulfillRandomWords(uint256,uint256[])": "1fe543e3",
					"requestConfirmations()": "b0fb162f",
					"requestRandomWords()": "e0c86289",
					"s_vrfCoordinator()": "9eccacf6",
					"setCoordinator(address)": "8ea98117",
					"subscriptionId()": "09c1ba2e",
					"transferOwnership(address)": "f2fde38b",
					"updateCallbackGasLimit(uint32)": "b0e8d086",
					"updateKeyHash(bytes32)": "e7fa67e5",
					"updateRequestConfirmations(uint16)": "ba00f6c5",
					"updateSubscriptionId(uint64)": "14b1dd1b"
				}
			},
			"storageLayout": {
				"storage": [
					{
						"astId": 29,
						"contract": "contracts/VRFConsumer.sol:VRFConsumer",
						"label": "s_owner",
						"offset": 0,
						"slot": "0",
						"type": "t_address"
					},
					{
						"astId": 31,
						"contract": "contracts/VRFConsumer.sol:VRFConsumer",
						"label": "s_pendingOwner",
						"offset": 0,
						"slot": "1",
						"type": "t_address"
					},
					{
						"astId": 231,
						"contract": "contracts/VRFConsumer.sol:VRFConsumer",
						"label": "s_vrfCoordinator",
						"offset": 0,
						"slot": "2",
						"type": "t_contract(IVRFCoordinatorV2Plus)358"
					},
					{
						"astId": 517,
						"contract": "contracts/VRFConsumer.sol:VRFConsumer",
						"label": "poolManager",
						"offset": 0,
						"slot": "3",
						"type": "t_address"
					},
					{
						"astId": 519,
						"contract": "contracts/VRFConsumer.sol:VRFConsumer",
						"label": "keyHash",
						"offset": 0,
						"slot": "4",
						"type": "t_bytes32"
					},
					{
						"astId": 521,
						"contract": "contracts/VRFConsumer.sol:VRFConsumer",
						"label": "subscriptionId",
						"offset": 0,
						"slot": "5",
						"type": "t_uint256"
					},
					{
						"astId": 523,
						"contract": "contracts/VRFConsumer.sol:VRFConsumer",
						"label": "requestConfirmations",
						"offset": 0,
						"slot": "6",
						"type": "t_uint16"
					},
					{
						"astId": 525,
						"contract": "contracts/VRFConsumer.sol:VRFConsumer",
						"label": "callbackGasLimit",
						"offset": 2,
						"slot": "6",
						"type": "t_uint32"
					}
				],
				"types": {
					"t_address": {
						"encoding": "inplace",
						"label": "address",
						"numberOfBytes": "20"
					},
					"t_bytes32": {
						"encoding": "inplace",
						"label": "bytes32",
						"numberOfBytes": "32"
					},
					"t_contract(IVRFCoordinatorV2Plus)358": {
						"encoding": "inplace",
						"label": "contract IVRFCoordinatorV2Plus",
						"numberOfBytes": "20"
					},
					"t_uint16": {
						"encoding": "inplace",
						"label": "uint16",
						"numberOfBytes": "2"
					},
					"t_uint256": {
						"encoding": "inplace",
						"label": "uint256",
						"numberOfBytes": "32"
					},
					"t_uint32": {
						"encoding": "inplace",
						"label": "uint32",
						"numberOfBytes": "4"
					}
				}
			},
			"userdoc": {
				"kind": "user",
				"methods": {
					"acceptOwnership()": {
						"notice": "Allows an ownership transfer to be completed by the recipient."
					},
					"owner()": {
						"notice": "Get the current owner"
					},
					"setCoordinator(address)": {
						"notice": "Sets the VRF Coordinator addressThis method is should only be callable by the coordinator or contract owner"
					},
					"transferOwnership(address)": {
						"notice": "Allows an owner to begin transferring ownership to a new address."
					}
				},
				"version": 1
			}
		}
	}
}