{
	"contracts/PoolManager.sol": {
		"PoolManager": {
			"abi": [
				{
					"inputs": [
						{
							"internalType": "uint24",
							"name": "referralFee_",
							"type": "uint24"
						},
						{
							"internalType": "address",
							"name": "usdt_",
							"type": "address"
						},
						{
							"internalType": "address",
							"name": "userRegistar_",
							"type": "address"
						}
					],
					"stateMutability": "nonpayable",
					"type": "constructor"
				},
				{
					"inputs": [
						{
							"internalType": "address",
							"name": "target",
							"type": "address"
						}
					],
					"name": "AddressEmptyCode",
					"type": "error"
				},
				{
					"inputs": [
						{
							"internalType": "address",
							"name": "account",
							"type": "address"
						}
					],
					"name": "AddressInsufficientBalance",
					"type": "error"
				},
				{
					"inputs": [],
					"name": "AlreadyClaimed",
					"type": "error"
				},
				{
					"inputs": [],
					"name": "AlreadyDrawn",
					"type": "error"
				},
				{
					"inputs": [],
					"name": "DifferentArrayLength",
					"type": "error"
				},
				{
					"inputs": [],
					"name": "FailedInnerCall",
					"type": "error"
				},
				{
					"inputs": [],
					"name": "InvalidMsgSender",
					"type": "error"
				},
				{
					"inputs": [],
					"name": "InvalidStartTime",
					"type": "error"
				},
				{
					"inputs": [
						{
							"internalType": "uint32",
							"name": "ticket",
							"type": "uint32"
						}
					],
					"name": "InvalidTicket",
					"type": "error"
				},
				{
					"inputs": [],
					"name": "NoTicketSpecified",
					"type": "error"
				},
				{
					"inputs": [],
					"name": "NotEnded",
					"type": "error"
				},
				{
					"inputs": [],
					"name": "NotEnoughTicketsLeft",
					"type": "error"
				},
				{
					"inputs": [],
					"name": "NotRegistered",
					"type": "error"
				},
				{
					"inputs": [],
					"name": "NotWinner",
					"type": "error"
				},
				{
					"inputs": [],
					"name": "OverHundredPercent",
					"type": "error"
				},
				{
					"inputs": [
						{
							"internalType": "address",
							"name": "owner",
							"type": "address"
						}
					],
					"name": "OwnableInvalidOwner",
					"type": "error"
				},
				{
					"inputs": [
						{
							"internalType": "address",
							"name": "account",
							"type": "address"
						}
					],
					"name": "OwnableUnauthorizedAccount",
					"type": "error"
				},
				{
					"inputs": [],
					"name": "PoolExists",
					"type": "error"
				},
				{
					"inputs": [],
					"name": "PoolNotFound",
					"type": "error"
				},
				{
					"inputs": [],
					"name": "RoundEnded",
					"type": "error"
				},
				{
					"inputs": [],
					"name": "RoundNotStart",
					"type": "error"
				},
				{
					"inputs": [
						{
							"internalType": "address",
							"name": "token",
							"type": "address"
						}
					],
					"name": "SafeERC20FailedOperation",
					"type": "error"
				},
				{
					"inputs": [
						{
							"internalType": "uint32",
							"name": "ticket",
							"type": "uint32"
						}
					],
					"name": "TicketSold",
					"type": "error"
				},
				{
					"inputs": [],
					"name": "TooManyTickets",
					"type": "error"
				},
				{
					"inputs": [],
					"name": "ZeroAddress",
					"type": "error"
				},
				{
					"inputs": [],
					"name": "ZeroPrize",
					"type": "error"
				},
				{
					"inputs": [],
					"name": "ZeroRoundDuration",
					"type": "error"
				},
				{
					"inputs": [],
					"name": "ZeroTicketsExp",
					"type": "error"
				},
				{
					"inputs": [],
					"name": "ZeroWinNumber",
					"type": "error"
				},
				{
					"anonymous": false,
					"inputs": [
						{
							"indexed": false,
							"internalType": "bytes32",
							"name": "poolId",
							"type": "bytes32"
						},
						{
							"indexed": false,
							"internalType": "uint256",
							"name": "roundId",
							"type": "uint256"
						},
						{
							"indexed": false,
							"internalType": "uint128",
							"name": "startTime",
							"type": "uint128"
						},
						{
							"indexed": false,
							"internalType": "uint128",
							"name": "endTime",
							"type": "uint128"
						}
					],
					"name": "NewRoundOpened",
					"type": "event"
				},
				{
					"anonymous": false,
					"inputs": [
						{
							"indexed": true,
							"internalType": "address",
							"name": "previousOwner",
							"type": "address"
						},
						{
							"indexed": true,
							"internalType": "address",
							"name": "newOwner",
							"type": "address"
						}
					],
					"name": "OwnershipTransferred",
					"type": "event"
				},
				{
					"anonymous": false,
					"inputs": [
						{
							"indexed": false,
							"internalType": "uint128",
							"name": "prize",
							"type": "uint128"
						},
						{
							"indexed": false,
							"internalType": "uint128",
							"name": "totalTickets",
							"type": "uint128"
						},
						{
							"indexed": false,
							"internalType": "uint128",
							"name": "pricePerTicket",
							"type": "uint128"
						},
						{
							"indexed": false,
							"internalType": "uint128",
							"name": "roundDuration",
							"type": "uint128"
						},
						{
							"indexed": false,
							"internalType": "uint128",
							"name": "roundGapTime",
							"type": "uint128"
						},
						{
							"indexed": false,
							"internalType": "bytes32",
							"name": "poolId",
							"type": "bytes32"
						}
					],
					"name": "PoolCreated",
					"type": "event"
				},
				{
					"anonymous": false,
					"inputs": [
						{
							"indexed": false,
							"internalType": "bytes32",
							"name": "poolId",
							"type": "bytes32"
						},
						{
							"indexed": false,
							"internalType": "uint256",
							"name": "roundId",
							"type": "uint256"
						}
					],
					"name": "PrizeClaimed",
					"type": "event"
				},
				{
					"anonymous": false,
					"inputs": [
						{
							"indexed": false,
							"internalType": "uint24",
							"name": "oldReferralFee",
							"type": "uint24"
						},
						{
							"indexed": false,
							"internalType": "uint24",
							"name": "newReferralFee",
							"type": "uint24"
						}
					],
					"name": "ReferralFeeUpdated",
					"type": "event"
				},
				{
					"anonymous": false,
					"inputs": [
						{
							"indexed": true,
							"internalType": "address",
							"name": "referrer",
							"type": "address"
						},
						{
							"indexed": false,
							"internalType": "uint256",
							"name": "amount",
							"type": "uint256"
						}
					],
					"name": "ReferralRewardCollected",
					"type": "event"
				},
				{
					"anonymous": false,
					"inputs": [
						{
							"indexed": true,
							"internalType": "address",
							"name": "owner",
							"type": "address"
						},
						{
							"indexed": false,
							"internalType": "bytes32",
							"name": "poolId",
							"type": "bytes32"
						},
						{
							"indexed": false,
							"internalType": "uint256",
							"name": "roundId",
							"type": "uint256"
						},
						{
							"indexed": false,
							"internalType": "uint32[]",
							"name": "tickets",
							"type": "uint32[]"
						}
					],
					"name": "TicketsSold",
					"type": "event"
				},
				{
					"anonymous": false,
					"inputs": [
						{
							"indexed": true,
							"internalType": "address",
							"name": "oldTreasury",
							"type": "address"
						},
						{
							"indexed": true,
							"internalType": "address",
							"name": "newTreasury",
							"type": "address"
						}
					],
					"name": "TreasuryUpdated",
					"type": "event"
				},
				{
					"inputs": [],
					"name": "HUNDRED_PERCENT",
					"outputs": [
						{
							"internalType": "uint24",
							"name": "",
							"type": "uint24"
						}
					],
					"stateMutability": "view",
					"type": "function"
				},
				{
					"inputs": [
						{
							"internalType": "bytes32",
							"name": "poolId",
							"type": "bytes32"
						},
						{
							"internalType": "uint256",
							"name": "roundId",
							"type": "uint256"
						},
						{
							"internalType": "uint32[]",
							"name": "tickets",
							"type": "uint32[]"
						}
					],
					"name": "buyTickets",
					"outputs": [],
					"stateMutability": "nonpayable",
					"type": "function"
				},
				{
					"inputs": [
						{
							"internalType": "address",
							"name": "to",
							"type": "address"
						},
						{
							"internalType": "bytes32[]",
							"name": "poolIds",
							"type": "bytes32[]"
						},
						{
							"internalType": "uint256[]",
							"name": "roundIds",
							"type": "uint256[]"
						}
					],
					"name": "claimPrizes",
					"outputs": [],
					"stateMutability": "nonpayable",
					"type": "function"
				},
				{
					"inputs": [
						{
							"internalType": "address",
							"name": "to",
							"type": "address"
						}
					],
					"name": "collectReferralReward",
					"outputs": [],
					"stateMutability": "nonpayable",
					"type": "function"
				},
				{
					"inputs": [
						{
							"internalType": "uint8",
							"name": "totalTicketsExp",
							"type": "uint8"
						},
						{
							"internalType": "uint128",
							"name": "prize",
							"type": "uint128"
						},
						{
							"internalType": "uint128",
							"name": "pricePerTicket",
							"type": "uint128"
						},
						{
							"internalType": "uint128",
							"name": "roundDuration",
							"type": "uint128"
						},
						{
							"internalType": "uint128",
							"name": "roundGapTime",
							"type": "uint128"
						},
						{
							"internalType": "uint128",
							"name": "startTime",
							"type": "uint128"
						}
					],
					"name": "createPool",
					"outputs": [
						{
							"internalType": "bytes32",
							"name": "poolId",
							"type": "bytes32"
						}
					],
					"stateMutability": "nonpayable",
					"type": "function"
				},
				{
					"inputs": [
						{
							"internalType": "bytes32",
							"name": "poolId",
							"type": "bytes32"
						}
					],
					"name": "drawEndedRoundAndOpenNewRound",
					"outputs": [],
					"stateMutability": "nonpayable",
					"type": "function"
				},
				{
					"inputs": [
						{
							"internalType": "uint256",
							"name": "requestId",
							"type": "uint256"
						},
						{
							"internalType": "uint256[]",
							"name": "randomWords",
							"type": "uint256[]"
						}
					],
					"name": "fulfillRandomWords",
					"outputs": [],
					"stateMutability": "nonpayable",
					"type": "function"
				},
				{
					"inputs": [
						{
							"internalType": "address",
							"name": "user",
							"type": "address"
						}
					],
					"name": "getAllParticipationRecords",
					"outputs": [
						{
							"components": [
								{
									"internalType": "bytes32",
									"name": "poolId",
									"type": "bytes32"
								},
								{
									"internalType": "uint256",
									"name": "roundId",
									"type": "uint256"
								},
								{
									"internalType": "uint256",
									"name": "timestamp",
									"type": "uint256"
								},
								{
									"internalType": "uint256",
									"name": "ticketsCount",
									"type": "uint256"
								},
								{
									"internalType": "uint32[]",
									"name": "tickets",
									"type": "uint32[]"
								}
							],
							"internalType": "struct IPoolManager.ParticipationRecord[]",
							"name": "",
							"type": "tuple[]"
						}
					],
					"stateMutability": "view",
					"type": "function"
				},
				{
					"inputs": [],
					"name": "getAllPoolIds",
					"outputs": [
						{
							"internalType": "bytes32[]",
							"name": "poolIds",
							"type": "bytes32[]"
						}
					],
					"stateMutability": "view",
					"type": "function"
				},
				{
					"inputs": [
						{
							"internalType": "address",
							"name": "user",
							"type": "address"
						},
						{
							"internalType": "bytes32",
							"name": "poolId",
							"type": "bytes32"
						},
						{
							"internalType": "uint256",
							"name": "roundId",
							"type": "uint256"
						}
					],
					"name": "getParticipationRecordsByPoolRound",
					"outputs": [
						{
							"components": [
								{
									"internalType": "bytes32",
									"name": "poolId",
									"type": "bytes32"
								},
								{
									"internalType": "uint256",
									"name": "roundId",
									"type": "uint256"
								},
								{
									"internalType": "uint256",
									"name": "timestamp",
									"type": "uint256"
								},
								{
									"internalType": "uint256",
									"name": "ticketsCount",
									"type": "uint256"
								},
								{
									"internalType": "uint32[]",
									"name": "tickets",
									"type": "uint32[]"
								}
							],
							"internalType": "struct IPoolManager.ParticipationRecord[]",
							"name": "records",
							"type": "tuple[]"
						}
					],
					"stateMutability": "view",
					"type": "function"
				},
				{
					"inputs": [
						{
							"internalType": "bytes32",
							"name": "poolId",
							"type": "bytes32"
						}
					],
					"name": "getPoolInfo",
					"outputs": [
						{
							"internalType": "uint128",
							"name": "prize",
							"type": "uint128"
						},
						{
							"internalType": "uint128",
							"name": "totalTickets",
							"type": "uint128"
						},
						{
							"internalType": "uint128",
							"name": "pricePerTicket",
							"type": "uint128"
						},
						{
							"internalType": "uint128",
							"name": "roundDuration",
							"type": "uint128"
						},
						{
							"internalType": "uint128",
							"name": "roundGapTime",
							"type": "uint128"
						},
						{
							"internalType": "uint256",
							"name": "currentRound",
							"type": "uint256"
						}
					],
					"stateMutability": "view",
					"type": "function"
				},
				{
					"inputs": [
						{
							"internalType": "bytes32",
							"name": "poolId",
							"type": "bytes32"
						},
						{
							"internalType": "uint256",
							"name": "roundId",
							"type": "uint256"
						}
					],
					"name": "getRoundInfo",
					"outputs": [
						{
							"internalType": "uint128",
							"name": "startTime",
							"type": "uint128"
						},
						{
							"internalType": "uint128",
							"name": "endTime",
							"type": "uint128"
						},
						{
							"internalType": "uint128",
							"name": "leftTickets",
							"type": "uint128"
						},
						{
							"internalType": "uint256",
							"name": "vrfRequestId",
							"type": "uint256"
						},
						{
							"internalType": "uint32",
							"name": "winNumber",
							"type": "uint32"
						},
						{
							"internalType": "bool",
							"name": "isClaimed",
							"type": "bool"
						}
					],
					"stateMutability": "view",
					"type": "function"
				},
				{
					"inputs": [
						{
							"internalType": "bytes32",
							"name": "poolId",
							"type": "bytes32"
						},
						{
							"internalType": "uint256",
							"name": "roundId",
							"type": "uint256"
						}
					],
					"name": "getSoldTickets",
					"outputs": [
						{
							"internalType": "uint32[]",
							"name": "",
							"type": "uint32[]"
						}
					],
					"stateMutability": "view",
					"type": "function"
				},
				{
					"inputs": [
						{
							"internalType": "bytes32",
							"name": "poolId",
							"type": "bytes32"
						},
						{
							"internalType": "uint256",
							"name": "roundId",
							"type": "uint256"
						},
						{
							"internalType": "uint32",
							"name": "ticket",
							"type": "uint32"
						}
					],
					"name": "getTicketOwner",
					"outputs": [
						{
							"internalType": "address",
							"name": "owner",
							"type": "address"
						}
					],
					"stateMutability": "view",
					"type": "function"
				},
				{
					"inputs": [
						{
							"internalType": "address",
							"name": "user",
							"type": "address"
						}
					],
					"name": "getUnclaimedPrizes",
					"outputs": [
						{
							"internalType": "bytes32[]",
							"name": "poolIds",
							"type": "bytes32[]"
						},
						{
							"internalType": "uint256[]",
							"name": "roundIds",
							"type": "uint256[]"
						},
						{
							"internalType": "uint256",
							"name": "totalPrizes",
							"type": "uint256"
						}
					],
					"stateMutability": "view",
					"type": "function"
				},
				{
					"inputs": [
						{
							"internalType": "address",
							"name": "user",
							"type": "address"
						}
					],
					"name": "getWonParticipationRecords",
					"outputs": [
						{
							"components": [
								{
									"internalType": "bytes32",
									"name": "poolId",
									"type": "bytes32"
								},
								{
									"internalType": "uint256",
									"name": "roundId",
									"type": "uint256"
								},
								{
									"internalType": "uint256",
									"name": "timestamp",
									"type": "uint256"
								},
								{
									"internalType": "uint256",
									"name": "ticketsCount",
									"type": "uint256"
								},
								{
									"internalType": "uint32[]",
									"name": "tickets",
									"type": "uint32[]"
								}
							],
							"internalType": "struct IPoolManager.ParticipationRecord[]",
							"name": "records",
							"type": "tuple[]"
						},
						{
							"internalType": "uint256",
							"name": "totalPrizes",
							"type": "uint256"
						}
					],
					"stateMutability": "view",
					"type": "function"
				},
				{
					"inputs": [],
					"name": "owner",
					"outputs": [
						{
							"internalType": "address",
							"name": "",
							"type": "address"
						}
					],
					"stateMutability": "view",
					"type": "function"
				},
				{
					"inputs": [],
					"name": "referralFee",
					"outputs": [
						{
							"internalType": "uint24",
							"name": "",
							"type": "uint24"
						}
					],
					"stateMutability": "view",
					"type": "function"
				},
				{
					"inputs": [
						{
							"internalType": "address",
							"name": "referrer",
							"type": "address"
						}
					],
					"name": "referralRewardAccumulated",
					"outputs": [
						{
							"internalType": "uint256",
							"name": "",
							"type": "uint256"
						}
					],
					"stateMutability": "view",
					"type": "function"
				},
				{
					"inputs": [
						{
							"internalType": "address",
							"name": "referrer",
							"type": "address"
						}
					],
					"name": "referralRewardAccured",
					"outputs": [
						{
							"internalType": "uint256",
							"name": "",
							"type": "uint256"
						}
					],
					"stateMutability": "view",
					"type": "function"
				},
				{
					"inputs": [],
					"name": "renounceOwnership",
					"outputs": [],
					"stateMutability": "nonpayable",
					"type": "function"
				},
				{
					"inputs": [
						{
							"internalType": "address",
							"name": "vrfConsumer_",
							"type": "address"
						}
					],
					"name": "setVRFConsumer",
					"outputs": [],
					"stateMutability": "nonpayable",
					"type": "function"
				},
				{
					"inputs": [
						{
							"internalType": "address",
							"name": "newOwner",
							"type": "address"
						}
					],
					"name": "transferOwnership",
					"outputs": [],
					"stateMutability": "nonpayable",
					"type": "function"
				},
				{
					"inputs": [
						{
							"internalType": "uint24",
							"name": "newReferralFee",
							"type": "uint24"
						}
					],
					"name": "updateReferralFee",
					"outputs": [],
					"stateMutability": "nonpayable",
					"type": "function"
				},
				{
					"inputs": [],
					"name": "usdt",
					"outputs": [
						{
							"internalType": "contract IERC20",
							"name": "",
							"type": "address"
						}
					],
					"stateMutability": "view",
					"type": "function"
				},
				{
					"inputs": [],
					"name": "userRegistar",
					"outputs": [
						{
							"internalType": "contract IUserRegistar",
							"name": "",
							"type": "address"
						}
					],
					"stateMutability": "view",
					"type": "function"
				},
				{
					"inputs": [],
					"name": "vrfConsumer",
					"outputs": [
						{
							"internalType": "contract IVRFConsumer",
							"name": "",
							"type": "address"
						}
					],
					"stateMutability": "view",
					"type": "function"
				},
				{
					"inputs": [
						{
							"internalType": "address",
							"name": "to",
							"type": "address"
						},
						{
							"internalType": "uint256",
							"name": "amount",
							"type": "uint256"
						}
					],
					"name": "withdrawUsdt",
					"outputs": [],
					"stateMutability": "nonpayable",
					"type": "function"
				}
			],
			"devdoc": {
				"errors": {
					"AddressEmptyCode(address)": [
						{
							"details": "There's no code at `target` (it is not a contract)."
						}
					],
					"AddressInsufficientBalance(address)": [
						{
							"details": "The ETH balance of the account is not enough to perform the operation."
						}
					],
					"FailedInnerCall()": [
						{
							"details": "A call to an address target failed. The target may have reverted."
						}
					],
					"OwnableInvalidOwner(address)": [
						{
							"details": "The owner is not a valid owner account. (eg. `address(0)`)"
						}
					],
					"OwnableUnauthorizedAccount(address)": [
						{
							"details": "The caller account is not authorized to perform an operation."
						}
					],
					"SafeERC20FailedOperation(address)": [
						{
							"details": "An operation with an ERC20 token failed."
						}
					]
				},
				"kind": "dev",
				"methods": {
					"owner()": {
						"details": "Returns the address of the current owner."
					},
					"renounceOwnership()": {
						"details": "Leaves the contract without owner. It will not be possible to call `onlyOwner` functions. Can only be called by the current owner. NOTE: Renouncing ownership will leave the contract without an owner, thereby disabling any functionality that is only available to the owner."
					},
					"transferOwnership(address)": {
						"details": "Transfers ownership of the contract to a new account (`newOwner`). Can only be called by the current owner."
					}
				},
				"version": 1
			},
			"evm": {
				"assembly": "    /* \"contracts/PoolManager.sol\":417:14855  contract PoolManager is IPoolManager, IVRFConsumerCallback, Ownable {... */\n  mstore(0x40, 0xc0)\n    /* \"contracts/PoolManager.sol\":1431:1678  constructor(... */\n  callvalue\n  dup1\n  iszero\n  tag_1\n  jumpi\n  0x00\n  dup1\n  revert\ntag_1:\n  pop\n  mload(0x40)\n  sub(codesize, bytecodeSize)\n  dup1\n  bytecodeSize\n  dup4\n  codecopy\n  dup2\n  add\n  0x40\n  dup2\n  swap1\n  mstore\n  tag_2\n  swap2\n  tag_3\n  jump\t// in\ntag_2:\n    /* \"contracts/PoolManager.sol\":1540:1550  msg.sender */\n  caller\n  dup1\n    /* \"@openzeppelin/contracts/access/Ownable.sol\":1269:1364  if (initialOwner == address(0)) {... */\n  tag_7\n  jumpi\n    /* \"@openzeppelin/contracts/access/Ownable.sol\":1322:1353  OwnableInvalidOwner(address(0)) */\n  mload(0x40)\n  shl(0xe0, 0x1e4fbdf7)\n  dup2\n  mstore\n    /* \"@openzeppelin/contracts/access/Ownable.sol\":1350:1351  0 */\n  0x00\n    /* \"@openzeppelin/contracts/access/Ownable.sol\":1322:1353  OwnableInvalidOwner(address(0)) */\n  0x04\n  dup3\n  add\n    /* \"#utility.yul\":795:846   */\n  mstore\n    /* \"#utility.yul\":768:786   */\n  0x24\n  add\n    /* \"@openzeppelin/contracts/access/Ownable.sol\":1322:1353  OwnableInvalidOwner(address(0)) */\n  mload(0x40)\n  dup1\n  swap2\n  sub\n  swap1\n  revert\n    /* \"@openzeppelin/contracts/access/Ownable.sol\":1269:1364  if (initialOwner == address(0)) {... */\ntag_7:\n    /* \"@openzeppelin/contracts/access/Ownable.sol\":1373:1405  _transferOwnership(initialOwner) */\n  tag_10\n    /* \"@openzeppelin/contracts/access/Ownable.sol\":1392:1404  initialOwner */\n  dup2\n    /* \"@openzeppelin/contracts/access/Ownable.sol\":1373:1391  _transferOwnership */\n  tag_11\n    /* \"@openzeppelin/contracts/access/Ownable.sol\":1373:1405  _transferOwnership(initialOwner) */\n  jump\t// in\ntag_10:\n  pop\n    /* \"contracts/PoolManager.sol\":1562:1573  referralFee */\n  0x00\n    /* \"contracts/PoolManager.sol\":1562:1588  referralFee = referralFee_ */\n  dup1\n  sload\n  0xffffff\n  swap1\n  swap5\n  and\n  shl(0xa0, 0x01)\n  mul\n  not(shl(0xa0, 0xffffff))\n  swap1\n  swap5\n  and\n  swap4\n  swap1\n  swap4\n  or\n  swap1\n  swap3\n  sstore\n  sub(shl(0xa0, 0x01), 0x01)\n    /* \"contracts/PoolManager.sol\":1598:1618  usdt = IERC20(usdt_) */\n  swap1\n  dup2\n  and\n  0x80\n  mstore\n    /* \"contracts/PoolManager.sol\":1628:1671  userRegistar = IUserRegistar(userRegistar_) */\n  and\n  0xa0\n  mstore\n    /* \"contracts/PoolManager.sol\":417:14855  contract PoolManager is IPoolManager, IVRFConsumerCallback, Ownable {... */\n  jump(tag_16)\n    /* \"@openzeppelin/contracts/access/Ownable.sol\":2912:3099  function _transferOwnership(address newOwner) internal virtual {... */\ntag_11:\n    /* \"@openzeppelin/contracts/access/Ownable.sol\":2985:3001  address oldOwner */\n  0x00\n    /* \"@openzeppelin/contracts/access/Ownable.sol\":3004:3010  _owner */\n  dup1\n  sload\n  sub(shl(0xa0, 0x01), 0x01)\n    /* \"@openzeppelin/contracts/access/Ownable.sol\":3020:3037  _owner = newOwner */\n  dup4\n  dup2\n  and\n  not(sub(shl(0xa0, 0x01), 0x01))\n  dup4\n  and\n  dup2\n  or\n  dup5\n  sstore\n    /* \"@openzeppelin/contracts/access/Ownable.sol\":3052:3092  OwnershipTransferred(oldOwner, newOwner) */\n  mload(0x40)\n    /* \"@openzeppelin/contracts/access/Ownable.sol\":3004:3010  _owner */\n  swap2\n  swap1\n  swap3\n  and\n  swap3\n  dup4\n  swap2\n    /* \"@openzeppelin/contracts/access/Ownable.sol\":3052:3092  OwnershipTransferred(oldOwner, newOwner) */\n  0x8be0079c531659141344cd1fd0a4f28419497f9722a3daafe3b4186f6b6457e0\n  swap2\n    /* \"@openzeppelin/contracts/access/Ownable.sol\":2985:3001  address oldOwner */\n  swap1\n    /* \"@openzeppelin/contracts/access/Ownable.sol\":3052:3092  OwnershipTransferred(oldOwner, newOwner) */\n  log3\n    /* \"@openzeppelin/contracts/access/Ownable.sol\":2975:3099  {... */\n  pop\n    /* \"@openzeppelin/contracts/access/Ownable.sol\":2912:3099  function _transferOwnership(address newOwner) internal virtual {... */\n  pop\n  jump\t// out\n    /* \"#utility.yul\":14:191   */\ntag_15:\n    /* \"#utility.yul\":93:106   */\n  dup1\n  mload\n  sub(shl(0xa0, 0x01), 0x01)\n    /* \"#utility.yul\":135:166   */\n  dup2\n  and\n    /* \"#utility.yul\":125:167   */\n  dup2\n  eq\n    /* \"#utility.yul\":115:185   */\n  tag_18\n  jumpi\n    /* \"#utility.yul\":181:182   */\n  0x00\n    /* \"#utility.yul\":178:179   */\n  dup1\n    /* \"#utility.yul\":171:183   */\n  revert\n    /* \"#utility.yul\":115:185   */\ntag_18:\n    /* \"#utility.yul\":14:191   */\n  swap2\n  swap1\n  pop\n  jump\t// out\n    /* \"#utility.yul\":196:644   */\ntag_3:\n    /* \"#utility.yul\":283:289   */\n  0x00\n    /* \"#utility.yul\":291:297   */\n  dup1\n    /* \"#utility.yul\":299:305   */\n  0x00\n    /* \"#utility.yul\":352:354   */\n  0x60\n    /* \"#utility.yul\":340:349   */\n  dup5\n    /* \"#utility.yul\":331:338   */\n  dup7\n    /* \"#utility.yul\":327:350   */\n  sub\n    /* \"#utility.yul\":323:355   */\n  slt\n    /* \"#utility.yul\":320:372   */\n  iszero\n  tag_20\n  jumpi\n    /* \"#utility.yul\":368:369   */\n  0x00\n    /* \"#utility.yul\":365:366   */\n  dup1\n    /* \"#utility.yul\":358:370   */\n  revert\n    /* \"#utility.yul\":320:372   */\ntag_20:\n    /* \"#utility.yul\":400:409   */\n  dup4\n    /* \"#utility.yul\":394:410   */\n  mload\n    /* \"#utility.yul\":450:458   */\n  0xffffff\n    /* \"#utility.yul\":443:448   */\n  dup2\n    /* \"#utility.yul\":439:459   */\n  and\n    /* \"#utility.yul\":432:437   */\n  dup2\n    /* \"#utility.yul\":429:460   */\n  eq\n    /* \"#utility.yul\":419:478   */\n  tag_21\n  jumpi\n    /* \"#utility.yul\":474:475   */\n  0x00\n    /* \"#utility.yul\":471:472   */\n  dup1\n    /* \"#utility.yul\":464:476   */\n  revert\n    /* \"#utility.yul\":419:478   */\ntag_21:\n    /* \"#utility.yul\":497:502   */\n  swap3\n  pop\n    /* \"#utility.yul\":521:570   */\n  tag_22\n    /* \"#utility.yul\":566:568   */\n  0x20\n    /* \"#utility.yul\":551:569   */\n  dup6\n  add\n    /* \"#utility.yul\":521:570   */\n  tag_15\n  jump\t// in\ntag_22:\n    /* \"#utility.yul\":511:570   */\n  swap2\n  pop\n    /* \"#utility.yul\":589:638   */\n  tag_23\n    /* \"#utility.yul\":634:636   */\n  0x40\n    /* \"#utility.yul\":623:632   */\n  dup6\n    /* \"#utility.yul\":619:637   */\n  add\n    /* \"#utility.yul\":589:638   */\n  tag_15\n  jump\t// in\ntag_23:\n    /* \"#utility.yul\":579:638   */\n  swap1\n  pop\n    /* \"#utility.yul\":196:644   */\n  swap3\n  pop\n  swap3\n  pop\n  swap3\n  jump\t// out\n    /* \"#utility.yul\":649:852   */\ntag_16:\n    /* \"contracts/PoolManager.sol\":417:14855  contract PoolManager is IPoolManager, IVRFConsumerCallback, Ownable {... */\n  mload(0x80)\n  mload(0xa0)\n  codecopy(0x00, dataOffset(sub_0), dataSize(sub_0))\n  0x00\n  assignImmutable(\"0x0bf130d09ff5f4b6139a92ba375974bc03314776406dd3b463c5d5893e064a66\")\n  0x00\n  assignImmutable(\"0x952803362675801135e2a054978c00aff991471bd59cc252d9b843c8ff1e2daa\")\n  return(0x00, dataSize(sub_0))\nstop\n\nsub_0: assembly {\n        /* \"contracts/PoolManager.sol\":417:14855  contract PoolManager is IPoolManager, IVRFConsumerCallback, Ownable {... */\n      mstore(0x40, 0x80)\n      callvalue\n      dup1\n      iszero\n      tag_1\n      jumpi\n      0x00\n      dup1\n      revert\n    tag_1:\n      pop\n      jumpi(tag_2, lt(calldatasize, 0x04))\n      shr(0xe0, calldataload(0x00))\n      dup1\n      0x6f8af123\n      gt\n      tag_31\n      jumpi\n      dup1\n      0xb2a89b08\n      gt\n      tag_32\n      jumpi\n      dup1\n      0xe53a7345\n      gt\n      tag_33\n      jumpi\n      dup1\n      0xe53a7345\n      eq\n      tag_27\n      jumpi\n      dup1\n      0xed092451\n      eq\n      tag_28\n      jumpi\n      dup1\n      0xf19c3d5b\n      eq\n      tag_29\n      jumpi\n      dup1\n      0xf2fde38b\n      eq\n      tag_30\n      jumpi\n      0x00\n      dup1\n      revert\n    tag_33:\n      dup1\n      0xb2a89b08\n      eq\n      tag_24\n      jumpi\n      dup1\n      0xbab0cbce\n      eq\n      tag_25\n      jumpi\n      dup1\n      0xcfd6aa90\n      eq\n      tag_26\n      jumpi\n      0x00\n      dup1\n      revert\n    tag_32:\n      dup1\n      0x86d32015\n      gt\n      tag_34\n      jumpi\n      dup1\n      0x86d32015\n      eq\n      tag_20\n      jumpi\n      dup1\n      0x89ba4116\n      eq\n      tag_21\n      jumpi\n      dup1\n      0x8da5cb5b\n      eq\n      tag_22\n      jumpi\n      dup1\n      0xacca07b1\n      eq\n      tag_23\n      jumpi\n      0x00\n      dup1\n      revert\n    tag_34:\n      dup1\n      0x6f8af123\n      eq\n      tag_17\n      jumpi\n      dup1\n      0x715018a6\n      eq\n      tag_18\n      jumpi\n      dup1\n      0x84ae2bc6\n      eq\n      tag_19\n      jumpi\n      0x00\n      dup1\n      revert\n    tag_31:\n      dup1\n      0x2f48ab7d\n      gt\n      tag_35\n      jumpi\n      dup1\n      0x38ba4614\n      gt\n      tag_36\n      jumpi\n      dup1\n      0x38ba4614\n      eq\n      tag_13\n      jumpi\n      dup1\n      0x3b0e443c\n      eq\n      tag_14\n      jumpi\n      dup1\n      0x4930cc99\n      eq\n      tag_15\n      jumpi\n      dup1\n      0x6ed93dd0\n      eq\n      tag_16\n      jumpi\n      0x00\n      dup1\n      revert\n    tag_36:\n      dup1\n      0x2f48ab7d\n      eq\n      tag_10\n      jumpi\n      dup1\n      0x2facd139\n      eq\n      tag_11\n      jumpi\n      dup1\n      0x34bfb32f\n      eq\n      tag_12\n      jumpi\n      0x00\n      dup1\n      revert\n    tag_35:\n      dup1\n      0x21f6a578\n      gt\n      tag_37\n      jumpi\n      dup1\n      0x21f6a578\n      eq\n      tag_6\n      jumpi\n      dup1\n      0x25860103\n      eq\n      tag_7\n      jumpi\n      dup1\n      0x2bbb1444\n      eq\n      tag_8\n      jumpi\n      dup1\n      0x2e5a74b9\n      eq\n      tag_9\n      jumpi\n      0x00\n      dup1\n      revert\n    tag_37:\n      dup1\n      0x0358abfc\n      eq\n      tag_3\n      jumpi\n      dup1\n      0x09f2c019\n      eq\n      tag_4\n      jumpi\n      dup1\n      0x1ef4d1fd\n      eq\n      tag_5\n      jumpi\n    tag_2:\n      0x00\n      dup1\n      revert\n        /* \"contracts/PoolManager.sol\":2769:3356  function getRoundInfo(bytes32 poolId, uint256 roundId) external view returns (... */\n    tag_3:\n      tag_38\n      tag_39\n      calldatasize\n      0x04\n      tag_40\n      jump\t// in\n    tag_39:\n      tag_41\n      jump\t// in\n    tag_38:\n      0x40\n      dup1\n      mload\n      sub(shl(0x80, 0x01), 0x01)\n        /* \"#utility.yul\":617:632   */\n      swap8\n      dup9\n      and\n        /* \"#utility.yul\":599:633   */\n      dup2\n      mstore\n        /* \"#utility.yul\":669:684   */\n      swap6\n      dup8\n      and\n        /* \"#utility.yul\":664:666   */\n      0x20\n        /* \"#utility.yul\":649:667   */\n      dup8\n      add\n        /* \"#utility.yul\":642:685   */\n      mstore\n        /* \"#utility.yul\":721:736   */\n      swap4\n      swap1\n      swap6\n      and\n        /* \"#utility.yul\":701:719   */\n      swap3\n      dup5\n      add\n        /* \"#utility.yul\":694:737   */\n      swap3\n      swap1\n      swap3\n      mstore\n        /* \"#utility.yul\":768:770   */\n      0x60\n        /* \"#utility.yul\":753:771   */\n      dup4\n      add\n        /* \"#utility.yul\":746:780   */\n      mstore\n        /* \"#utility.yul\":829:839   */\n      0xffffffff\n        /* \"#utility.yul\":817:840   */\n      and\n        /* \"#utility.yul\":811:814   */\n      0x80\n        /* \"#utility.yul\":796:815   */\n      dup3\n      add\n        /* \"#utility.yul\":789:841   */\n      mstore\n        /* \"#utility.yul\":885:899   */\n      swap1\n      iszero\n        /* \"#utility.yul\":878:900   */\n      iszero\n        /* \"#utility.yul\":872:875   */\n      0xa0\n        /* \"#utility.yul\":857:876   */\n      dup3\n      add\n        /* \"#utility.yul\":850:901   */\n      mstore\n        /* \"#utility.yul\":533:536   */\n      0xc0\n        /* \"#utility.yul\":518:537   */\n      add\n        /* \"contracts/PoolManager.sol\":2769:3356  function getRoundInfo(bytes32 poolId, uint256 roundId) external view returns (... */\n    tag_42:\n      mload(0x40)\n      dup1\n      swap2\n      sub\n      swap1\n      return\n        /* \"contracts/PoolManager.sol\":2182:2763  function getPoolInfo(bytes32 poolId) external view returns (... */\n    tag_4:\n      tag_44\n      tag_45\n      calldatasize\n      0x04\n      tag_46\n      jump\t// in\n    tag_45:\n      tag_47\n      jump\t// in\n    tag_44:\n      mload(0x40)\n      tag_42\n      swap7\n      swap6\n      swap5\n      swap4\n      swap3\n      swap2\n      swap1\n      tag_49\n      jump\t// in\n        /* \"contracts/PoolManager.sol\":702:733  IVRFConsumer public vrfConsumer */\n    tag_5:\n      sload(0x01)\n      tag_50\n      swap1\n      sub(shl(0xa0, 0x01), 0x01)\n      and\n      dup2\n      jump\n    tag_50:\n      mload(0x40)\n      sub(shl(0xa0, 0x01), 0x01)\n        /* \"#utility.yul\":1920:1952   */\n      swap1\n      swap2\n      and\n        /* \"#utility.yul\":1902:1953   */\n      dup2\n      mstore\n        /* \"#utility.yul\":1890:1892   */\n      0x20\n        /* \"#utility.yul\":1875:1893   */\n      add\n        /* \"contracts/PoolManager.sol\":702:733  IVRFConsumer public vrfConsumer */\n      tag_42\n        /* \"#utility.yul\":1735:1959   */\n      jump\n        /* \"contracts/PoolManager.sol\":5857:7012  function getUnclaimedPrizes(address user) external view returns (bytes32[] memory poolIds, uint256[] memory roundIds, uint256 totalPrizes) {... */\n    tag_6:\n      tag_54\n      tag_55\n      calldatasize\n      0x04\n      tag_56\n      jump\t// in\n    tag_55:\n      tag_57\n      jump\t// in\n    tag_54:\n      mload(0x40)\n      tag_42\n      swap4\n      swap3\n      swap2\n      swap1\n      tag_59\n      jump\t// in\n        /* \"contracts/PoolManager.sol\":3362:3512  function getSoldTickets(bytes32 poolId, uint256 roundId) external view returns (uint32[] memory) {... */\n    tag_7:\n      tag_60\n      tag_61\n      calldatasize\n      0x04\n      tag_40\n      jump\t// in\n    tag_61:\n      tag_62\n      jump\t// in\n    tag_60:\n      mload(0x40)\n      tag_42\n      swap2\n      swap1\n      tag_64\n      jump\t// in\n        /* \"contracts/PoolManager.sol\":13010:13955  function claimPrizes(... */\n    tag_8:\n      tag_65\n      tag_66\n      calldatasize\n      0x04\n      tag_67\n      jump\t// in\n    tag_66:\n      tag_68\n      jump\t// in\n    tag_65:\n      stop\n        /* \"contracts/PoolManager.sol\":11683:13004  function drawEndedRoundAndOpenNewRound(bytes32 poolId) external {... */\n    tag_9:\n      tag_65\n      tag_70\n      calldatasize\n      0x04\n      tag_46\n      jump\t// in\n    tag_70:\n      tag_71\n      jump\t// in\n        /* \"contracts/PoolManager.sol\":619:647  IERC20 public immutable usdt */\n    tag_10:\n      tag_50\n      immutable(\"0x952803362675801135e2a054978c00aff991471bd59cc252d9b843c8ff1e2daa\")\n      dup2\n      jump\n        /* \"contracts/PoolManager.sol\":653:696  IUserRegistar public immutable userRegistar */\n    tag_11:\n      tag_50\n      immutable(\"0x0bf130d09ff5f4b6139a92ba375974bc03314776406dd3b463c5d5893e064a66\")\n      dup2\n      jump\n        /* \"contracts/PoolManager.sol\":3682:4506  function getParticipationRecordsByPoolRound(address user, bytes32 poolId, uint256 roundId) external view returns (ParticipationRecord[] memory records) {... */\n    tag_12:\n      tag_80\n      tag_81\n      calldatasize\n      0x04\n      tag_82\n      jump\t// in\n    tag_81:\n      tag_83\n      jump\t// in\n    tag_80:\n      mload(0x40)\n      tag_42\n      swap2\n      swap1\n      tag_85\n      jump\t// in\n        /* \"contracts/PoolManager.sol\":14406:14853  function fulfillRandomWords(uint256 requestId, uint256[] memory randomWords) external {... */\n    tag_13:\n      tag_65\n      tag_87\n      calldatasize\n      0x04\n      tag_88\n      jump\t// in\n    tag_87:\n      tag_89\n      jump\t// in\n        /* \"contracts/PoolManager.sol\":921:1037  mapping(bytes32 poolId => mapping(uint256 roundId => mapping(uint32 ticket => address owner))) public getTicketOwner */\n    tag_14:\n      tag_50\n      tag_91\n      calldatasize\n      0x04\n      tag_92\n      jump\t// in\n    tag_91:\n      0x04\n      0x20\n      swap1\n      dup2\n      mstore\n      0x00\n      swap4\n      dup5\n      mstore\n      0x40\n      dup1\n      dup6\n      keccak256\n      dup3\n      mstore\n      swap3\n      dup5\n      mstore\n      dup3\n      dup5\n      keccak256\n      swap1\n      mstore\n      dup3\n      mstore\n      swap1\n      keccak256\n      sload\n      sub(shl(0xa0, 0x01), 0x01)\n      and\n      dup2\n      jump\n        /* \"contracts/PoolManager.sol\":850:915  mapping(address referrer => uint256) public referralRewardAccured */\n    tag_15:\n      tag_96\n      tag_97\n      calldatasize\n      0x04\n      tag_56\n      jump\t// in\n    tag_97:\n      mstore(0x20, 0x03)\n      0x00\n      swap1\n      dup2\n      mstore\n      0x40\n      swap1\n      keccak256\n      sload\n      dup2\n      jump\n    tag_96:\n      mload(0x40)\n        /* \"#utility.yul\":10108:10133   */\n      swap1\n      dup2\n      mstore\n        /* \"#utility.yul\":10096:10098   */\n      0x20\n        /* \"#utility.yul\":10081:10099   */\n      add\n        /* \"contracts/PoolManager.sol\":850:915  mapping(address referrer => uint256) public referralRewardAccured */\n      tag_42\n        /* \"#utility.yul\":9962:10139   */\n      jump\n        /* \"contracts/PoolManager.sol\":524:572  uint24 public constant HUNDRED_PERCENT = 1000000 */\n    tag_16:\n      tag_101\n        /* \"contracts/PoolManager.sol\":565:572  1000000 */\n      0x0f4240\n        /* \"contracts/PoolManager.sol\":524:572  uint24 public constant HUNDRED_PERCENT = 1000000 */\n      dup2\n      jump\n    tag_101:\n      mload(0x40)\n        /* \"#utility.yul\":10318:10326   */\n      0xffffff\n        /* \"#utility.yul\":10306:10327   */\n      swap1\n      swap2\n      and\n        /* \"#utility.yul\":10288:10328   */\n      dup2\n      mstore\n        /* \"#utility.yul\":10276:10278   */\n      0x20\n        /* \"#utility.yul\":10261:10279   */\n      add\n        /* \"contracts/PoolManager.sol\":524:572  uint24 public constant HUNDRED_PERCENT = 1000000 */\n      tag_42\n        /* \"#utility.yul\":10144:10334   */\n      jump\n        /* \"contracts/PoolManager.sol\":4512:5851  function getWonParticipationRecords(address user) public view returns (ParticipationRecord[] memory records, uint256 totalPrizes) {... */\n    tag_17:\n      tag_105\n      tag_106\n      calldatasize\n      0x04\n      tag_56\n      jump\t// in\n    tag_106:\n      tag_107\n      jump\t// in\n    tag_105:\n      mload(0x40)\n      tag_42\n      swap3\n      swap2\n      swap1\n      tag_109\n      jump\t// in\n        /* \"@openzeppelin/contracts/access/Ownable.sol\":2293:2394  function renounceOwnership() public virtual onlyOwner {... */\n    tag_18:\n      tag_65\n      tag_111\n      jump\t// in\n        /* \"contracts/PoolManager.sol\":587:612  uint24 public referralFee */\n    tag_19:\n      sload(0x00)\n      tag_101\n      swap1\n      shl(0xa0, 0x01)\n      swap1\n      div\n      0xffffff\n      and\n      dup2\n      jump\n        /* \"contracts/PoolManager.sol\":775:844  mapping(address referrer => uint256) public referralRewardAccumulated */\n    tag_20:\n      tag_96\n      tag_116\n      calldatasize\n      0x04\n      tag_56\n      jump\t// in\n    tag_116:\n      mstore(0x20, 0x02)\n      0x00\n      swap1\n      dup2\n      mstore\n      0x40\n      swap1\n      keccak256\n      sload\n      dup2\n      jump\n        /* \"contracts/PoolManager.sol\":8756:11677  function buyTickets(... */\n    tag_21:\n      tag_65\n      tag_120\n      calldatasize\n      0x04\n      tag_121\n      jump\t// in\n    tag_120:\n      tag_122\n      jump\t// in\n        /* \"@openzeppelin/contracts/access/Ownable.sol\":1638:1723  function owner() public view virtual returns (address) {... */\n    tag_22:\n        /* \"@openzeppelin/contracts/access/Ownable.sol\":1684:1691  address */\n      0x00\n        /* \"@openzeppelin/contracts/access/Ownable.sol\":1710:1716  _owner */\n      sload\n      sub(shl(0xa0, 0x01), 0x01)\n      and\n        /* \"@openzeppelin/contracts/access/Ownable.sol\":1638:1723  function owner() public view virtual returns (address) {... */\n      jump(tag_50)\n        /* \"contracts/PoolManager.sol\":7018:8750  function createPool(... */\n    tag_23:\n      tag_96\n      tag_127\n      calldatasize\n      0x04\n      tag_128\n      jump\t// in\n    tag_127:\n      tag_129\n      jump\t// in\n        /* \"contracts/PoolManager.sol\":1812:2064  function updateReferralFee(uint24 newReferralFee) external onlyOwner {... */\n    tag_24:\n      tag_65\n      tag_133\n      calldatasize\n      0x04\n      tag_134\n      jump\t// in\n    tag_133:\n      tag_135\n      jump\t// in\n        /* \"contracts/PoolManager.sol\":3518:3676  function getAllParticipationRecords(address user) external view returns (ParticipationRecord[] memory) {... */\n    tag_25:\n      tag_80\n      tag_137\n      calldatasize\n      0x04\n      tag_56\n      jump\t// in\n    tag_137:\n      tag_138\n      jump\t// in\n        /* \"contracts/PoolManager.sol\":1684:1806  function setVRFConsumer(address vrfConsumer_) external onlyOwner {... */\n    tag_26:\n      tag_65\n      tag_141\n      calldatasize\n      0x04\n      tag_56\n      jump\t// in\n    tag_141:\n      tag_142\n      jump\t// in\n        /* \"contracts/PoolManager.sol\":13961:14227  function collectReferralReward(address to) external {... */\n    tag_27:\n      tag_65\n      tag_144\n      calldatasize\n      0x04\n      tag_56\n      jump\t// in\n    tag_144:\n      tag_145\n      jump\t// in\n        /* \"contracts/PoolManager.sol\":14233:14400  function withdrawUsdt(address to, uint256 amount) external onlyOwner {... */\n    tag_28:\n      tag_65\n      tag_147\n      calldatasize\n      0x04\n      tag_148\n      jump\t// in\n    tag_147:\n      tag_149\n      jump\t// in\n        /* \"contracts/PoolManager.sol\":2070:2176  function getAllPoolIds() external view returns (bytes32[] memory poolIds) {... */\n    tag_29:\n      tag_150\n      tag_151\n      jump\t// in\n    tag_150:\n      mload(0x40)\n      tag_42\n      swap2\n      swap1\n      tag_153\n      jump\t// in\n        /* \"@openzeppelin/contracts/access/Ownable.sol\":2543:2758  function transferOwnership(address newOwner) public virtual onlyOwner {... */\n    tag_30:\n      tag_65\n      tag_155\n      calldatasize\n      0x04\n      tag_56\n      jump\t// in\n    tag_155:\n      tag_156\n      jump\t// in\n        /* \"contracts/PoolManager.sol\":2769:3356  function getRoundInfo(bytes32 poolId, uint256 roundId) external view returns (... */\n    tag_41:\n        /* \"contracts/PoolManager.sol\":2856:2873  uint128 startTime */\n      0x00\n        /* \"contracts/PoolManager.sol\":3053:3073  _poolInfoMap[poolId] */\n      dup3\n      dup2\n      mstore\n        /* \"contracts/PoolManager.sol\":3053:3065  _poolInfoMap */\n      0x08\n        /* \"contracts/PoolManager.sol\":3053:3073  _poolInfoMap[poolId] */\n      0x20\n      mstore\n      0x40\n      dup2\n      keccak256\n        /* \"contracts/PoolManager.sol\":2856:2873  uint128 startTime */\n      dup2\n      swap1\n      dup2\n      swap1\n      dup2\n      swap1\n      dup2\n      swap1\n      dup2\n      swap1\n      dup2\n      swap1\n        /* \"contracts/PoolManager.sol\":3053:3084  _poolInfoMap[poolId].roundInfos */\n      0x03\n      add\n        /* \"contracts/PoolManager.sol\":3085:3096  roundId - 1 */\n      tag_158\n        /* \"contracts/PoolManager.sol\":3095:3096  1 */\n      0x01\n        /* \"contracts/PoolManager.sol\":3085:3092  roundId */\n      dup11\n        /* \"contracts/PoolManager.sol\":3085:3096  roundId - 1 */\n      tag_159\n      jump\t// in\n    tag_158:\n        /* \"contracts/PoolManager.sol\":3053:3097  _poolInfoMap[poolId].roundInfos[roundId - 1] */\n      dup2\n      sload\n      dup2\n      lt\n      tag_161\n      jumpi\n      tag_161\n      tag_162\n      jump\t// in\n    tag_161:\n      0x00\n      swap2\n      dup3\n      mstore\n      0x20\n      swap2\n      dup3\n      swap1\n      keccak256\n        /* \"contracts/PoolManager.sol\":3024:3097  RoundInfo memory roundInfo = _poolInfoMap[poolId].roundInfos[roundId - 1] */\n      0x40\n      dup1\n      mload\n      0xc0\n      dup2\n      add\n      dup3\n      mstore\n        /* \"contracts/PoolManager.sol\":3053:3097  _poolInfoMap[poolId].roundInfos[roundId - 1] */\n      0x04\n      swap4\n      swap1\n      swap4\n      mul\n      swap1\n      swap2\n      add\n        /* \"contracts/PoolManager.sol\":3024:3097  RoundInfo memory roundInfo = _poolInfoMap[poolId].roundInfos[roundId - 1] */\n      dup1\n      sload\n      sub(shl(0x80, 0x01), 0x01)\n      dup1\n      dup3\n      and\n      dup1\n      dup7\n      mstore\n      shl(0x80, 0x01)\n      swap1\n      swap3\n      div\n      dup2\n      and\n      swap6\n      dup6\n      add\n      dup7\n      swap1\n      mstore\n      0x01\n      dup4\n      add\n      sload\n      and\n      swap3\n      dup5\n      add\n      dup4\n      swap1\n      mstore\n      0x02\n      dup3\n      add\n      sload\n      0x60\n      dup6\n      add\n      dup2\n      swap1\n      mstore\n      0x03\n      swap1\n      swap3\n      add\n      sload\n      0xffffffff\n      dup2\n      and\n      0x80\n      dup7\n      add\n      dup2\n      swap1\n      mstore\n      shl(0x20, 0x01)\n      swap1\n      swap2\n      div\n      0xff\n      and\n      iszero\n      iszero\n      0xa0\n      swap1\n      swap6\n      add\n      dup6\n      swap1\n      mstore\n      swap1\n      swap15\n      swap5\n      swap14\n      pop\n      swap2\n      swap12\n      pop\n      swap10\n      pop\n      swap8\n      pop\n      swap6\n      pop\n      swap4\n      pop\n      pop\n      pop\n      pop\n        /* \"contracts/PoolManager.sol\":2769:3356  function getRoundInfo(bytes32 poolId, uint256 roundId) external view returns (... */\n      jump\t// out\n        /* \"contracts/PoolManager.sol\":2182:2763  function getPoolInfo(bytes32 poolId) external view returns (... */\n    tag_47:\n        /* \"contracts/PoolManager.sol\":2251:2264  uint128 prize */\n      0x00\n        /* \"contracts/PoolManager.sol\":2463:2483  _poolInfoMap[poolId] */\n      dup2\n      dup2\n      mstore\n        /* \"contracts/PoolManager.sol\":2463:2475  _poolInfoMap */\n      0x08\n        /* \"contracts/PoolManager.sol\":2463:2483  _poolInfoMap[poolId] */\n      0x20\n      swap1\n      dup2\n      mstore\n      0x40\n      dup1\n      dup4\n      keccak256\n        /* \"contracts/PoolManager.sol\":2436:2483  PoolInfo memory poolInfo = _poolInfoMap[poolId] */\n      dup2\n      mload\n      0xc0\n      dup2\n      add\n      dup4\n      mstore\n      dup2\n      sload\n      sub(shl(0x80, 0x01), 0x01)\n      dup1\n      dup3\n      and\n      dup4\n      mstore\n      shl(0x80, 0x01)\n      swap2\n      dup3\n      swap1\n      div\n      dup2\n      and\n      dup4\n      dup8\n      add\n      mstore\n      0x01\n      dup5\n      add\n      sload\n      dup1\n      dup3\n      and\n      dup5\n      dup8\n      add\n      mstore\n      swap2\n      swap1\n      swap2\n      div\n      dup2\n      and\n      0x60\n      dup4\n      add\n      mstore\n      0x02\n      dup4\n      add\n      sload\n      and\n      0x80\n      dup3\n      add\n      mstore\n      0x03\n      dup3\n      add\n      dup1\n      sload\n      dup5\n      mload\n      dup2\n      dup8\n      mul\n      dup2\n      add\n      dup8\n      add\n      swap1\n      swap6\n      mstore\n      dup1\n      dup6\n      mstore\n        /* \"contracts/PoolManager.sol\":2251:2264  uint128 prize */\n      dup7\n      swap6\n      dup7\n      swap6\n      dup7\n      swap6\n      dup7\n      swap6\n      dup7\n      swap6\n      dup7\n      swap6\n        /* \"contracts/PoolManager.sol\":2436:2483  PoolInfo memory poolInfo = _poolInfoMap[poolId] */\n      swap2\n      swap5\n        /* \"contracts/PoolManager.sol\":2463:2483  _poolInfoMap[poolId] */\n      swap3\n      swap4\n        /* \"contracts/PoolManager.sol\":2436:2483  PoolInfo memory poolInfo = _poolInfoMap[poolId] */\n      0xa0\n      dup7\n      add\n      swap4\n      swap1\n      swap3\n      swap1\n        /* \"contracts/PoolManager.sol\":2251:2264  uint128 prize */\n      dup8\n      swap1\n        /* \"contracts/PoolManager.sol\":2436:2483  PoolInfo memory poolInfo = _poolInfoMap[poolId] */\n      dup5\n      add\n    tag_165:\n      dup3\n      dup3\n      lt\n      iszero\n      tag_166\n      jumpi\n      0x00\n      dup5\n      dup2\n      mstore\n      0x20\n      swap1\n      dup2\n      swap1\n      keccak256\n      0x40\n      dup1\n      mload\n      0xc0\n      dup2\n      add\n      dup3\n      mstore\n      0x04\n      dup7\n      mul\n      swap1\n      swap3\n      add\n      dup1\n      sload\n      sub(shl(0x80, 0x01), 0x01)\n      dup1\n      dup3\n      and\n      dup6\n      mstore\n      shl(0x80, 0x01)\n      swap1\n      swap2\n      div\n      dup2\n      and\n      dup5\n      dup7\n      add\n      mstore\n      0x01\n      dup1\n      dup4\n      add\n      sload\n      swap1\n      swap2\n      and\n      swap3\n      dup5\n      add\n      swap3\n      swap1\n      swap3\n      mstore\n      0x02\n      dup2\n      add\n      sload\n      0x60\n      dup5\n      add\n      mstore\n      0x03\n      add\n      sload\n      0xffffffff\n      dup2\n      and\n      0x80\n      dup5\n      add\n      mstore\n      shl(0x20, 0x01)\n      swap1\n      div\n      0xff\n      and\n      iszero\n      iszero\n      0xa0\n      dup4\n      add\n      mstore\n      swap1\n      dup4\n      mstore\n      swap1\n      swap3\n      add\n      swap2\n      add\n      jump(tag_165)\n    tag_166:\n      pop\n      pop\n      pop\n      swap2\n      mstore\n      pop\n      pop\n        /* \"contracts/PoolManager.sol\":2501:2515  poolInfo.prize */\n      dup1\n      mload\n        /* \"contracts/PoolManager.sol\":2540:2561  poolInfo.totalTickets */\n      0x20\n      dup3\n      add\n      mload\n        /* \"contracts/PoolManager.sol\":2588:2611  poolInfo.pricePerTicket */\n      0x40\n      dup4\n      add\n      mload\n        /* \"contracts/PoolManager.sol\":2637:2659  poolInfo.roundDuration */\n      0x60\n      dup5\n      add\n      mload\n        /* \"contracts/PoolManager.sol\":2684:2705  poolInfo.roundGapTime */\n      0x80\n      dup6\n      add\n      mload\n        /* \"contracts/PoolManager.sol\":2730:2749  poolInfo.roundInfos */\n      0xa0\n      swap1\n      swap6\n      add\n      mload\n        /* \"contracts/PoolManager.sol\":2730:2756  poolInfo.roundInfos.length */\n      mload\n        /* \"contracts/PoolManager.sol\":2501:2515  poolInfo.prize */\n      swap4\n      swap14\n        /* \"contracts/PoolManager.sol\":2540:2561  poolInfo.totalTickets */\n      swap3\n      swap13\n      pop\n        /* \"contracts/PoolManager.sol\":2588:2611  poolInfo.pricePerTicket */\n      swap1\n      swap11\n      pop\n        /* \"contracts/PoolManager.sol\":2637:2659  poolInfo.roundDuration */\n      swap9\n      pop\n        /* \"contracts/PoolManager.sol\":2684:2705  poolInfo.roundGapTime */\n      swap2\n      swap7\n      pop\n        /* \"contracts/PoolManager.sol\":2730:2756  poolInfo.roundInfos.length */\n      swap5\n      pop\n        /* \"contracts/PoolManager.sol\":2182:2763  function getPoolInfo(bytes32 poolId) external view returns (... */\n      swap3\n      pop\n      pop\n      pop\n      jump\t// out\n        /* \"contracts/PoolManager.sol\":5857:7012  function getUnclaimedPrizes(address user) external view returns (bytes32[] memory poolIds, uint256[] memory roundIds, uint256 totalPrizes) {... */\n    tag_57:\n        /* \"contracts/PoolManager.sol\":5922:5946  bytes32[] memory poolIds */\n      0x60\n        /* \"contracts/PoolManager.sol\":5948:5973  uint256[] memory roundIds */\n      dup1\n        /* \"contracts/PoolManager.sol\":5975:5994  uint256 totalPrizes */\n      0x00\n        /* \"contracts/PoolManager.sol\":6007:6046  ParticipationRecord[] memory wonRecords */\n      dup1\n        /* \"contracts/PoolManager.sol\":6052:6084  getWonParticipationRecords(user) */\n      tag_169\n        /* \"contracts/PoolManager.sol\":6079:6083  user */\n      dup6\n        /* \"contracts/PoolManager.sol\":6052:6078  getWonParticipationRecords */\n      tag_107\n        /* \"contracts/PoolManager.sol\":6052:6084  getWonParticipationRecords(user) */\n      jump\t// in\n    tag_169:\n        /* \"contracts/PoolManager.sol\":6006:6084  (ParticipationRecord[] memory wonRecords, ) = getWonParticipationRecords(user) */\n      pop\n      swap1\n      pop\n        /* \"contracts/PoolManager.sol\":6094:6122  bytes32[] memory tempPoolIds */\n      0x00\n        /* \"contracts/PoolManager.sol\":6139:6149  wonRecords */\n      dup2\n        /* \"contracts/PoolManager.sol\":6139:6156  wonRecords.length */\n      mload\n        /* \"contracts/PoolManager.sol\":6125:6157  new bytes32[](wonRecords.length) */\n      0xffffffffffffffff\n      dup2\n      gt\n      iszero\n      tag_171\n      jumpi\n      tag_171\n      tag_172\n      jump\t// in\n    tag_171:\n      mload(0x40)\n      swap1\n      dup1\n      dup3\n      mstore\n      dup1\n      0x20\n      mul\n      0x20\n      add\n      dup3\n      add\n      0x40\n      mstore\n      dup1\n      iszero\n      tag_173\n      jumpi\n      dup2\n      0x20\n      add\n      0x20\n      dup3\n      mul\n      dup1\n      calldatasize\n      dup4\n      calldatacopy\n      add\n      swap1\n      pop\n    tag_173:\n      pop\n        /* \"contracts/PoolManager.sol\":6094:6157  bytes32[] memory tempPoolIds = new bytes32[](wonRecords.length) */\n      swap1\n      pop\n        /* \"contracts/PoolManager.sol\":6167:6196  uint256[] memory tempRoundIds */\n      0x00\n        /* \"contracts/PoolManager.sol\":6213:6223  wonRecords */\n      dup3\n        /* \"contracts/PoolManager.sol\":6213:6230  wonRecords.length */\n      mload\n        /* \"contracts/PoolManager.sol\":6199:6231  new uint256[](wonRecords.length) */\n      0xffffffffffffffff\n      dup2\n      gt\n      iszero\n      tag_175\n      jumpi\n      tag_175\n      tag_172\n      jump\t// in\n    tag_175:\n      mload(0x40)\n      swap1\n      dup1\n      dup3\n      mstore\n      dup1\n      0x20\n      mul\n      0x20\n      add\n      dup3\n      add\n      0x40\n      mstore\n      dup1\n      iszero\n      tag_176\n      jumpi\n      dup2\n      0x20\n      add\n      0x20\n      dup3\n      mul\n      dup1\n      calldatasize\n      dup4\n      calldatacopy\n      add\n      swap1\n      pop\n    tag_176:\n      pop\n        /* \"contracts/PoolManager.sol\":6167:6231  uint256[] memory tempRoundIds = new uint256[](wonRecords.length) */\n      swap1\n      pop\n        /* \"contracts/PoolManager.sol\":6241:6260  uint256 resultCount */\n      0x00\n      dup1\n        /* \"contracts/PoolManager.sol\":6270:6766  for (uint256 i = 0; i < wonRecords.length; i++) {... */\n    tag_177:\n        /* \"contracts/PoolManager.sol\":6294:6304  wonRecords */\n      dup5\n        /* \"contracts/PoolManager.sol\":6294:6311  wonRecords.length */\n      mload\n        /* \"contracts/PoolManager.sol\":6290:6291  i */\n      dup2\n        /* \"contracts/PoolManager.sol\":6290:6311  i < wonRecords.length */\n      lt\n        /* \"contracts/PoolManager.sol\":6270:6766  for (uint256 i = 0; i < wonRecords.length; i++) {... */\n      iszero\n      tag_178\n      jumpi\n        /* \"contracts/PoolManager.sol\":6332:6365  ParticipationRecord memory record */\n      0x00\n        /* \"contracts/PoolManager.sol\":6368:6378  wonRecords */\n      dup6\n        /* \"contracts/PoolManager.sol\":6379:6380  i */\n      dup3\n        /* \"contracts/PoolManager.sol\":6368:6381  wonRecords[i] */\n      dup2\n      mload\n      dup2\n      lt\n      tag_181\n      jumpi\n      tag_181\n      tag_162\n      jump\t// in\n    tag_181:\n      0x20\n      swap1\n      dup2\n      mul\n      swap2\n      swap1\n      swap2\n      add\n      dup2\n      add\n      mload\n        /* \"contracts/PoolManager.sol\":6412:6425  record.poolId */\n      dup1\n      mload\n        /* \"contracts/PoolManager.sol\":6458:6472  record.roundId */\n      dup2\n      dup4\n      add\n      mload\n        /* \"contracts/PoolManager.sol\":6395:6409  bytes32 poolId */\n      0x00\n        /* \"contracts/PoolManager.sol\":6491:6511  _poolInfoMap[poolId] */\n      dup3\n      dup2\n      mstore\n        /* \"contracts/PoolManager.sol\":6491:6503  _poolInfoMap */\n      0x08\n        /* \"contracts/PoolManager.sol\":6491:6511  _poolInfoMap[poolId] */\n      swap1\n      swap5\n      mstore\n      0x40\n      swap1\n      swap4\n      keccak256\n        /* \"contracts/PoolManager.sol\":6368:6381  wonRecords[i] */\n      swap2\n      swap4\n      pop\n        /* \"contracts/PoolManager.sol\":6412:6425  record.poolId */\n      swap2\n        /* \"contracts/PoolManager.sol\":6458:6472  record.roundId */\n      swap1\n        /* \"contracts/PoolManager.sol\":6491:6522  _poolInfoMap[poolId].roundInfos */\n      0x03\n      add\n        /* \"contracts/PoolManager.sol\":6523:6534  roundId - 1 */\n      tag_182\n        /* \"contracts/PoolManager.sol\":6533:6534  1 */\n      0x01\n        /* \"contracts/PoolManager.sol\":6458:6472  record.roundId */\n      dup4\n        /* \"contracts/PoolManager.sol\":6523:6534  roundId - 1 */\n      tag_159\n      jump\t// in\n    tag_182:\n        /* \"contracts/PoolManager.sol\":6491:6535  _poolInfoMap[poolId].roundInfos[roundId - 1] */\n      dup2\n      sload\n      dup2\n      lt\n      tag_184\n      jumpi\n      tag_184\n      tag_162\n      jump\t// in\n    tag_184:\n      swap1\n      0x00\n      mstore\n      keccak256(0x00, 0x20)\n      swap1\n      0x04\n      mul\n      add\n        /* \"contracts/PoolManager.sol\":6491:6545  _poolInfoMap[poolId].roundInfos[roundId - 1].isClaimed */\n      0x03\n      add\n      0x04\n      swap1\n      sload\n      swap1\n      0x0100\n      exp\n      swap1\n      div\n      0xff\n      and\n        /* \"contracts/PoolManager.sol\":6486:6756  if (!_poolInfoMap[poolId].roundInfos[roundId - 1].isClaimed) {... */\n      tag_186\n      jumpi\n        /* \"contracts/PoolManager.sol\":6580:6600  _poolInfoMap[poolId] */\n      0x00\n      dup3\n      dup2\n      mstore\n        /* \"contracts/PoolManager.sol\":6580:6592  _poolInfoMap */\n      0x08\n        /* \"contracts/PoolManager.sol\":6580:6600  _poolInfoMap[poolId] */\n      0x20\n      mstore\n      0x40\n      swap1\n      keccak256\n        /* \"contracts/PoolManager.sol\":6580:6606  _poolInfoMap[poolId].prize */\n      sload\n        /* \"contracts/PoolManager.sol\":6565:6606  totalPrizes += _poolInfoMap[poolId].prize */\n      tag_187\n      swap1\n      sub(shl(0x80, 0x01), 0x01)\n        /* \"contracts/PoolManager.sol\":6580:6606  _poolInfoMap[poolId].prize */\n      and\n        /* \"contracts/PoolManager.sol\":6565:6606  totalPrizes += _poolInfoMap[poolId].prize */\n      dup11\n      tag_188\n      jump\t// in\n    tag_187:\n      swap9\n      pop\n        /* \"contracts/PoolManager.sol\":6651:6657  poolId */\n      dup2\n        /* \"contracts/PoolManager.sol\":6624:6635  tempPoolIds */\n      dup8\n        /* \"contracts/PoolManager.sol\":6636:6647  resultCount */\n      dup7\n        /* \"contracts/PoolManager.sol\":6624:6648  tempPoolIds[resultCount] */\n      dup2\n      mload\n      dup2\n      lt\n      tag_190\n      jumpi\n      tag_190\n      tag_162\n      jump\t// in\n    tag_190:\n      0x20\n      mul\n      0x20\n      add\n      add\n        /* \"contracts/PoolManager.sol\":6624:6657  tempPoolIds[resultCount] = poolId */\n      dup2\n      dup2\n      mstore\n      pop\n      pop\n        /* \"contracts/PoolManager.sol\":6703:6710  roundId */\n      dup1\n        /* \"contracts/PoolManager.sol\":6675:6687  tempRoundIds */\n      dup7\n        /* \"contracts/PoolManager.sol\":6688:6699  resultCount */\n      dup7\n        /* \"contracts/PoolManager.sol\":6675:6700  tempRoundIds[resultCount] */\n      dup2\n      mload\n      dup2\n      lt\n      tag_192\n      jumpi\n      tag_192\n      tag_162\n      jump\t// in\n    tag_192:\n      0x20\n      swap1\n      dup2\n      mul\n      swap2\n      swap1\n      swap2\n      add\n      add\n        /* \"contracts/PoolManager.sol\":6675:6710  tempRoundIds[resultCount] = roundId */\n      mstore\n        /* \"contracts/PoolManager.sol\":6728:6741  resultCount++ */\n      dup5\n      tag_193\n      dup2\n      tag_194\n      jump\t// in\n    tag_193:\n      swap6\n      pop\n      pop\n        /* \"contracts/PoolManager.sol\":6486:6756  if (!_poolInfoMap[poolId].roundInfos[roundId - 1].isClaimed) {... */\n    tag_186:\n        /* \"contracts/PoolManager.sol\":6318:6766  {... */\n      pop\n      pop\n      pop\n        /* \"contracts/PoolManager.sol\":6313:6316  i++ */\n      dup1\n      dup1\n      tag_195\n      swap1\n      tag_194\n      jump\t// in\n    tag_195:\n      swap2\n      pop\n      pop\n        /* \"contracts/PoolManager.sol\":6270:6766  for (uint256 i = 0; i < wonRecords.length; i++) {... */\n      jump(tag_177)\n    tag_178:\n      pop\n        /* \"contracts/PoolManager.sol\":6800:6811  resultCount */\n      dup1\n        /* \"contracts/PoolManager.sol\":6786:6812  new bytes32[](resultCount) */\n      0xffffffffffffffff\n      dup2\n      gt\n      iszero\n      tag_197\n      jumpi\n      tag_197\n      tag_172\n      jump\t// in\n    tag_197:\n      mload(0x40)\n      swap1\n      dup1\n      dup3\n      mstore\n      dup1\n      0x20\n      mul\n      0x20\n      add\n      dup3\n      add\n      0x40\n      mstore\n      dup1\n      iszero\n      tag_198\n      jumpi\n      dup2\n      0x20\n      add\n      0x20\n      dup3\n      mul\n      dup1\n      calldatasize\n      dup4\n      calldatacopy\n      add\n      swap1\n      pop\n    tag_198:\n      pop\n        /* \"contracts/PoolManager.sol\":6776:6812  poolIds = new bytes32[](resultCount) */\n      swap7\n      pop\n        /* \"contracts/PoolManager.sol\":6847:6858  resultCount */\n      dup1\n        /* \"contracts/PoolManager.sol\":6833:6859  new uint256[](resultCount) */\n      0xffffffffffffffff\n      dup2\n      gt\n      iszero\n      tag_200\n      jumpi\n      tag_200\n      tag_172\n      jump\t// in\n    tag_200:\n      mload(0x40)\n      swap1\n      dup1\n      dup3\n      mstore\n      dup1\n      0x20\n      mul\n      0x20\n      add\n      dup3\n      add\n      0x40\n      mstore\n      dup1\n      iszero\n      tag_201\n      jumpi\n      dup2\n      0x20\n      add\n      0x20\n      dup3\n      mul\n      dup1\n      calldatasize\n      dup4\n      calldatacopy\n      add\n      swap1\n      pop\n    tag_201:\n      pop\n        /* \"contracts/PoolManager.sol\":6822:6859  roundIds = new uint256[](resultCount) */\n      swap6\n      pop\n        /* \"contracts/PoolManager.sol\":6874:6883  uint256 i */\n      0x00\n        /* \"contracts/PoolManager.sol\":6869:7006  for (uint256 i = 0; i < resultCount; i++) {... */\n    tag_202:\n        /* \"contracts/PoolManager.sol\":6893:6904  resultCount */\n      dup2\n        /* \"contracts/PoolManager.sol\":6889:6890  i */\n      dup2\n        /* \"contracts/PoolManager.sol\":6889:6904  i < resultCount */\n      lt\n        /* \"contracts/PoolManager.sol\":6869:7006  for (uint256 i = 0; i < resultCount; i++) {... */\n      iszero\n      tag_203\n      jumpi\n        /* \"contracts/PoolManager.sol\":6938:6949  tempPoolIds */\n      dup4\n        /* \"contracts/PoolManager.sol\":6950:6951  i */\n      dup2\n        /* \"contracts/PoolManager.sol\":6938:6952  tempPoolIds[i] */\n      dup2\n      mload\n      dup2\n      lt\n      tag_206\n      jumpi\n      tag_206\n      tag_162\n      jump\t// in\n    tag_206:\n      0x20\n      mul\n      0x20\n      add\n      add\n      mload\n        /* \"contracts/PoolManager.sol\":6925:6932  poolIds */\n      dup9\n        /* \"contracts/PoolManager.sol\":6933:6934  i */\n      dup3\n        /* \"contracts/PoolManager.sol\":6925:6935  poolIds[i] */\n      dup2\n      mload\n      dup2\n      lt\n      tag_208\n      jumpi\n      tag_208\n      tag_162\n      jump\t// in\n    tag_208:\n      0x20\n      mul\n      0x20\n      add\n      add\n        /* \"contracts/PoolManager.sol\":6925:6952  poolIds[i] = tempPoolIds[i] */\n      dup2\n      dup2\n      mstore\n      pop\n      pop\n        /* \"contracts/PoolManager.sol\":6980:6992  tempRoundIds */\n      dup3\n        /* \"contracts/PoolManager.sol\":6993:6994  i */\n      dup2\n        /* \"contracts/PoolManager.sol\":6980:6995  tempRoundIds[i] */\n      dup2\n      mload\n      dup2\n      lt\n      tag_210\n      jumpi\n      tag_210\n      tag_162\n      jump\t// in\n    tag_210:\n      0x20\n      mul\n      0x20\n      add\n      add\n      mload\n        /* \"contracts/PoolManager.sol\":6966:6974  roundIds */\n      dup8\n        /* \"contracts/PoolManager.sol\":6975:6976  i */\n      dup3\n        /* \"contracts/PoolManager.sol\":6966:6977  roundIds[i] */\n      dup2\n      mload\n      dup2\n      lt\n      tag_212\n      jumpi\n      tag_212\n      tag_162\n      jump\t// in\n    tag_212:\n      0x20\n      swap1\n      dup2\n      mul\n      swap2\n      swap1\n      swap2\n      add\n      add\n        /* \"contracts/PoolManager.sol\":6966:6995  roundIds[i] = tempRoundIds[i] */\n      mstore\n        /* \"contracts/PoolManager.sol\":6906:6909  i++ */\n      dup1\n      tag_213\n      dup2\n      tag_194\n      jump\t// in\n    tag_213:\n      swap2\n      pop\n      pop\n        /* \"contracts/PoolManager.sol\":6869:7006  for (uint256 i = 0; i < resultCount; i++) {... */\n      jump(tag_202)\n    tag_203:\n      pop\n        /* \"contracts/PoolManager.sol\":5996:7012  {... */\n      pop\n      pop\n      pop\n      pop\n        /* \"contracts/PoolManager.sol\":5857:7012  function getUnclaimedPrizes(address user) external view returns (bytes32[] memory poolIds, uint256[] memory roundIds, uint256 totalPrizes) {... */\n      swap2\n      swap4\n      swap1\n      swap3\n      pop\n      jump\t// out\n        /* \"contracts/PoolManager.sol\":3362:3512  function getSoldTickets(bytes32 poolId, uint256 roundId) external view returns (uint32[] memory) {... */\n    tag_62:\n        /* \"contracts/PoolManager.sol\":3476:3496  _soldTickets[poolId] */\n      0x00\n      dup3\n      dup2\n      mstore\n        /* \"contracts/PoolManager.sol\":3476:3488  _soldTickets */\n      0x06\n        /* \"contracts/PoolManager.sol\":3476:3496  _soldTickets[poolId] */\n      0x20\n      swap1\n      dup2\n      mstore\n      0x40\n      dup1\n      dup4\n      keccak256\n        /* \"contracts/PoolManager.sol\":3476:3505  _soldTickets[poolId][roundId] */\n      dup5\n      dup5\n      mstore\n      dup3\n      mstore\n      swap2\n      dup3\n      swap1\n      keccak256\n        /* \"contracts/PoolManager.sol\":3469:3505  return _soldTickets[poolId][roundId] */\n      dup1\n      sload\n      dup4\n      mload\n      dup2\n      dup5\n      mul\n      dup2\n      add\n      dup5\n      add\n      swap1\n      swap5\n      mstore\n      dup1\n      dup5\n      mstore\n        /* \"contracts/PoolManager.sol\":3442:3457  uint32[] memory */\n      0x60\n      swap4\n        /* \"contracts/PoolManager.sol\":3469:3505  return _soldTickets[poolId][roundId] */\n      swap3\n      dup4\n      add\n        /* \"contracts/PoolManager.sol\":3476:3505  _soldTickets[poolId][roundId] */\n      dup3\n        /* \"contracts/PoolManager.sol\":3469:3505  return _soldTickets[poolId][roundId] */\n      dup3\n      dup1\n      iszero\n      tag_215\n      jumpi\n      0x20\n      mul\n      dup3\n      add\n      swap2\n      swap1\n      0x00\n      mstore\n      keccak256(0x00, 0x20)\n      swap1\n      0x00\n      swap1\n    tag_216:\n      dup3\n      dup3\n      swap1\n      sload\n      swap1\n      0x0100\n      exp\n      swap1\n      div\n      0xffffffff\n      and\n      0xffffffff\n      and\n      dup2\n      mstore\n      0x20\n      add\n      swap1\n      0x04\n      add\n      swap1\n      0x20\n      dup3\n      0x03\n      add\n      div\n      swap3\n      dup4\n      add\n      swap3\n      0x01\n      sub\n      dup3\n      mul\n      swap2\n      pop\n      dup1\n      dup5\n      gt\n      tag_216\n      jumpi\n      swap1\n      pop\n    tag_215:\n      pop\n      pop\n      pop\n      pop\n      pop\n      swap1\n      pop\n        /* \"contracts/PoolManager.sol\":3362:3512  function getSoldTickets(bytes32 poolId, uint256 roundId) external view returns (uint32[] memory) {... */\n    tag_214:\n      swap3\n      swap2\n      pop\n      pop\n      jump\t// out\n        /* \"contracts/PoolManager.sol\":13010:13955  function claimPrizes(... */\n    tag_68:\n        /* \"contracts/PoolManager.sol\":13153:13186  poolIds.length != roundIds.length */\n      dup3\n      dup2\n      eq\n        /* \"contracts/PoolManager.sol\":13149:13217  if (poolIds.length != roundIds.length) revert DifferentArrayLength() */\n      tag_218\n      jumpi\n        /* \"contracts/PoolManager.sol\":13195:13217  DifferentArrayLength() */\n      mload(0x40)\n      shl(0xe0, 0xdba17af5)\n      dup2\n      mstore\n      0x04\n      add\n      mload(0x40)\n      dup1\n      swap2\n      sub\n      swap1\n      revert\n        /* \"contracts/PoolManager.sol\":13149:13217  if (poolIds.length != roundIds.length) revert DifferentArrayLength() */\n    tag_218:\n        /* \"contracts/PoolManager.sol\":13227:13245  uint256 totalPrize */\n      0x00\n      dup1\n        /* \"contracts/PoolManager.sol\":13255:13906  for (uint256 i = 0; i < poolIds.length; i++) {... */\n    tag_219:\n        /* \"contracts/PoolManager.sol\":13275:13293  i < poolIds.length */\n      dup5\n      dup2\n      lt\n        /* \"contracts/PoolManager.sol\":13255:13906  for (uint256 i = 0; i < poolIds.length; i++) {... */\n      iszero\n      tag_220\n      jumpi\n        /* \"contracts/PoolManager.sol\":13314:13330  uint32 winNumber */\n      0x00\n        /* \"contracts/PoolManager.sol\":13333:13345  _poolInfoMap */\n      0x08\n        /* \"contracts/PoolManager.sol\":13333:13357  _poolInfoMap[poolIds[i]] */\n      0x00\n        /* \"contracts/PoolManager.sol\":13346:13353  poolIds */\n      dup9\n      dup9\n        /* \"contracts/PoolManager.sol\":13354:13355  i */\n      dup6\n        /* \"contracts/PoolManager.sol\":13346:13356  poolIds[i] */\n      dup2\n      dup2\n      lt\n      tag_223\n      jumpi\n      tag_223\n      tag_162\n      jump\t// in\n    tag_223:\n      swap1\n      pop\n      0x20\n      mul\n      add\n      calldataload\n        /* \"contracts/PoolManager.sol\":13333:13357  _poolInfoMap[poolIds[i]] */\n      dup2\n      mstore\n      0x20\n      add\n      swap1\n      dup2\n      mstore\n      0x20\n      add\n      0x00\n      keccak256\n        /* \"contracts/PoolManager.sol\":13333:13368  _poolInfoMap[poolIds[i]].roundInfos */\n      0x03\n      add\n        /* \"contracts/PoolManager.sol\":13383:13384  1 */\n      0x01\n        /* \"contracts/PoolManager.sol\":13369:13377  roundIds */\n      dup7\n      dup7\n        /* \"contracts/PoolManager.sol\":13378:13379  i */\n      dup6\n        /* \"contracts/PoolManager.sol\":13369:13380  roundIds[i] */\n      dup2\n      dup2\n      lt\n      tag_225\n      jumpi\n      tag_225\n      tag_162\n      jump\t// in\n    tag_225:\n      swap1\n      pop\n      0x20\n      mul\n      add\n      calldataload\n        /* \"contracts/PoolManager.sol\":13369:13384  roundIds[i] - 1 */\n      tag_226\n      swap2\n      swap1\n      tag_159\n      jump\t// in\n    tag_226:\n        /* \"contracts/PoolManager.sol\":13333:13385  _poolInfoMap[poolIds[i]].roundInfos[roundIds[i] - 1] */\n      dup2\n      sload\n      dup2\n      lt\n      tag_228\n      jumpi\n      tag_228\n      tag_162\n      jump\t// in\n    tag_228:\n      0x00\n      swap2\n      dup3\n      mstore\n      0x20\n      dup3\n      keccak256\n        /* \"contracts/PoolManager.sol\":13333:13395  _poolInfoMap[poolIds[i]].roundInfos[roundIds[i] - 1].winNumber */\n      0x03\n        /* \"contracts/PoolManager.sol\":13333:13385  _poolInfoMap[poolIds[i]].roundInfos[roundIds[i] - 1] */\n      0x04\n      swap1\n      swap3\n      mul\n      add\n        /* \"contracts/PoolManager.sol\":13333:13395  _poolInfoMap[poolIds[i]].roundInfos[roundIds[i] - 1].winNumber */\n      add\n      sload\n      0xffffffff\n      and\n      swap2\n      pop\n        /* \"contracts/PoolManager.sol\":13426:13438  _poolInfoMap */\n      0x08\n        /* \"contracts/PoolManager.sol\":13333:13385  _poolInfoMap[poolIds[i]].roundInfos[roundIds[i] - 1] */\n      dup2\n        /* \"contracts/PoolManager.sol\":13439:13446  poolIds */\n      dup10\n      dup10\n        /* \"contracts/PoolManager.sol\":13447:13448  i */\n      dup7\n        /* \"contracts/PoolManager.sol\":13439:13449  poolIds[i] */\n      dup2\n      dup2\n      lt\n      tag_231\n      jumpi\n      tag_231\n      tag_162\n      jump\t// in\n    tag_231:\n      swap1\n      pop\n      0x20\n      mul\n      add\n      calldataload\n        /* \"contracts/PoolManager.sol\":13426:13450  _poolInfoMap[poolIds[i]] */\n      dup2\n      mstore\n      0x20\n      add\n      swap1\n      dup2\n      mstore\n      0x20\n      add\n      0x00\n      keccak256\n        /* \"contracts/PoolManager.sol\":13426:13461  _poolInfoMap[poolIds[i]].roundInfos */\n      0x03\n      add\n        /* \"contracts/PoolManager.sol\":13476:13477  1 */\n      0x01\n        /* \"contracts/PoolManager.sol\":13462:13470  roundIds */\n      dup8\n      dup8\n        /* \"contracts/PoolManager.sol\":13471:13472  i */\n      dup7\n        /* \"contracts/PoolManager.sol\":13462:13473  roundIds[i] */\n      dup2\n      dup2\n      lt\n      tag_233\n      jumpi\n      tag_233\n      tag_162\n      jump\t// in\n    tag_233:\n      swap1\n      pop\n      0x20\n      mul\n      add\n      calldataload\n        /* \"contracts/PoolManager.sol\":13462:13477  roundIds[i] - 1 */\n      tag_234\n      swap2\n      swap1\n      tag_159\n      jump\t// in\n    tag_234:\n        /* \"contracts/PoolManager.sol\":13426:13478  _poolInfoMap[poolIds[i]].roundInfos[roundIds[i] - 1] */\n      dup2\n      sload\n      dup2\n      lt\n      tag_236\n      jumpi\n      tag_236\n      tag_162\n      jump\t// in\n    tag_236:\n      0x00\n      swap2\n      dup3\n      mstore\n      0x20\n      dup3\n      keccak256\n        /* \"contracts/PoolManager.sol\":13426:13488  _poolInfoMap[poolIds[i]].roundInfos[roundIds[i] - 1].isClaimed */\n      0x03\n        /* \"contracts/PoolManager.sol\":13426:13478  _poolInfoMap[poolIds[i]].roundInfos[roundIds[i] - 1] */\n      0x04\n      swap1\n      swap3\n      mul\n      add\n        /* \"contracts/PoolManager.sol\":13426:13488  _poolInfoMap[poolIds[i]].roundInfos[roundIds[i] - 1].isClaimed */\n      add\n      sload\n      0xff\n      shl(0x20, 0x01)\n      swap1\n      swap2\n      div\n      and\n      swap2\n      pop\n        /* \"contracts/PoolManager.sol\":13506:13520  winNumber == 0 */\n      0xffffffff\n      dup4\n      and\n      swap1\n      sub\n        /* \"contracts/PoolManager.sol\":13502:13544  if (winNumber == 0) revert ZeroWinNumber() */\n      tag_238\n      jumpi\n        /* \"contracts/PoolManager.sol\":13529:13544  ZeroWinNumber() */\n      mload(0x40)\n      shl(0xe4, 0x0cb84433)\n      dup2\n      mstore\n      0x04\n      add\n      mload(0x40)\n      dup1\n      swap2\n      sub\n      swap1\n      revert\n        /* \"contracts/PoolManager.sol\":13502:13544  if (winNumber == 0) revert ZeroWinNumber() */\n    tag_238:\n        /* \"contracts/PoolManager.sol\":13562:13571  isClaimed */\n      dup1\n        /* \"contracts/PoolManager.sol\":13558:13596  if (isClaimed) revert AlreadyClaimed() */\n      iszero\n      tag_239\n      jumpi\n        /* \"contracts/PoolManager.sol\":13580:13596  AlreadyClaimed() */\n      mload(0x40)\n      shl(0xe3, 0x0c8d9eab)\n      dup2\n      mstore\n      0x04\n      add\n      mload(0x40)\n      dup1\n      swap2\n      sub\n      swap1\n      revert\n        /* \"contracts/PoolManager.sol\":13558:13596  if (isClaimed) revert AlreadyClaimed() */\n    tag_239:\n        /* \"contracts/PoolManager.sol\":13628:13642  getTicketOwner */\n      0x04\n        /* \"contracts/PoolManager.sol\":13628:13654  getTicketOwner[poolIds[i]] */\n      0x00\n        /* \"contracts/PoolManager.sol\":13643:13650  poolIds */\n      dup10\n      dup10\n        /* \"contracts/PoolManager.sol\":13651:13652  i */\n      dup7\n        /* \"contracts/PoolManager.sol\":13643:13653  poolIds[i] */\n      dup2\n      dup2\n      lt\n      tag_241\n      jumpi\n      tag_241\n      tag_162\n      jump\t// in\n    tag_241:\n      swap1\n      pop\n      0x20\n      mul\n      add\n      calldataload\n        /* \"contracts/PoolManager.sol\":13628:13654  getTicketOwner[poolIds[i]] */\n      dup2\n      mstore\n      0x20\n      add\n      swap1\n      dup2\n      mstore\n      0x20\n      add\n      0x00\n      keccak256\n        /* \"contracts/PoolManager.sol\":13628:13667  getTicketOwner[poolIds[i]][roundIds[i]] */\n      0x00\n        /* \"contracts/PoolManager.sol\":13655:13663  roundIds */\n      dup8\n      dup8\n        /* \"contracts/PoolManager.sol\":13664:13665  i */\n      dup7\n        /* \"contracts/PoolManager.sol\":13655:13666  roundIds[i] */\n      dup2\n      dup2\n      lt\n      tag_243\n      jumpi\n      tag_243\n      tag_162\n      jump\t// in\n    tag_243:\n      0x20\n      swap1\n      dup2\n      mul\n      swap3\n      swap1\n      swap3\n      add\n      calldataload\n        /* \"contracts/PoolManager.sol\":13628:13667  getTicketOwner[poolIds[i]][roundIds[i]] */\n      dup4\n      mstore\n      pop\n      dup2\n      dup2\n      add\n      swap3\n      swap1\n      swap3\n      mstore\n      0x40\n      swap1\n      dup2\n      add\n      0x00\n      swap1\n      dup2\n      keccak256\n        /* \"contracts/PoolManager.sol\":13628:13678  getTicketOwner[poolIds[i]][roundIds[i]][winNumber] */\n      0xffffffff\n      dup7\n      and\n      dup3\n      mstore\n      swap1\n      swap3\n      mstore\n      swap1\n      keccak256\n      sload\n      sub(shl(0xa0, 0x01), 0x01)\n      and\n        /* \"contracts/PoolManager.sol\":13614:13624  msg.sender */\n      caller\n        /* \"contracts/PoolManager.sol\":13614:13678  msg.sender != getTicketOwner[poolIds[i]][roundIds[i]][winNumber] */\n      eq\n        /* \"contracts/PoolManager.sol\":13610:13698  if (msg.sender != getTicketOwner[poolIds[i]][roundIds[i]][winNumber]) revert NotWinner() */\n      tag_244\n      jumpi\n        /* \"contracts/PoolManager.sol\":13687:13698  NotWinner() */\n      mload(0x40)\n      shl(0xe1, 0x30c63921)\n      dup2\n      mstore\n      0x04\n      add\n      mload(0x40)\n      dup1\n      swap2\n      sub\n      swap1\n      revert\n        /* \"contracts/PoolManager.sol\":13610:13698  if (msg.sender != getTicketOwner[poolIds[i]][roundIds[i]][winNumber]) revert NotWinner() */\n    tag_244:\n        /* \"contracts/PoolManager.sol\":13726:13738  _poolInfoMap */\n      0x08\n        /* \"contracts/PoolManager.sol\":13726:13750  _poolInfoMap[poolIds[i]] */\n      0x00\n        /* \"contracts/PoolManager.sol\":13739:13746  poolIds */\n      dup10\n      dup10\n        /* \"contracts/PoolManager.sol\":13747:13748  i */\n      dup7\n        /* \"contracts/PoolManager.sol\":13739:13749  poolIds[i] */\n      dup2\n      dup2\n      lt\n      tag_246\n      jumpi\n      tag_246\n      tag_162\n      jump\t// in\n    tag_246:\n      0x20\n      swap1\n      dup2\n      mul\n      swap3\n      swap1\n      swap3\n      add\n      calldataload\n        /* \"contracts/PoolManager.sol\":13726:13750  _poolInfoMap[poolIds[i]] */\n      dup4\n      mstore\n      pop\n      dup2\n      add\n      swap2\n      swap1\n      swap2\n      mstore\n      0x40\n      add\n      0x00\n      keccak256\n        /* \"contracts/PoolManager.sol\":13726:13756  _poolInfoMap[poolIds[i]].prize */\n      sload\n        /* \"contracts/PoolManager.sol\":13712:13756  totalPrize += _poolInfoMap[poolIds[i]].prize */\n      tag_247\n      swap1\n      sub(shl(0x80, 0x01), 0x01)\n        /* \"contracts/PoolManager.sol\":13726:13756  _poolInfoMap[poolIds[i]].prize */\n      and\n        /* \"contracts/PoolManager.sol\":13712:13756  totalPrize += _poolInfoMap[poolIds[i]].prize */\n      dup6\n      tag_188\n      jump\t// in\n    tag_247:\n      swap4\n      pop\n        /* \"contracts/PoolManager.sol\":13835:13839  true */\n      0x01\n        /* \"contracts/PoolManager.sol\":13770:13782  _poolInfoMap */\n      0x08\n        /* \"contracts/PoolManager.sol\":13770:13794  _poolInfoMap[poolIds[i]] */\n      0x00\n        /* \"contracts/PoolManager.sol\":13783:13790  poolIds */\n      dup11\n      dup11\n        /* \"contracts/PoolManager.sol\":13791:13792  i */\n      dup8\n        /* \"contracts/PoolManager.sol\":13783:13793  poolIds[i] */\n      dup2\n      dup2\n      lt\n      tag_249\n      jumpi\n      tag_249\n      tag_162\n      jump\t// in\n    tag_249:\n      swap1\n      pop\n      0x20\n      mul\n      add\n      calldataload\n        /* \"contracts/PoolManager.sol\":13770:13794  _poolInfoMap[poolIds[i]] */\n      dup2\n      mstore\n      0x20\n      add\n      swap1\n      dup2\n      mstore\n      0x20\n      add\n      0x00\n      keccak256\n        /* \"contracts/PoolManager.sol\":13770:13805  _poolInfoMap[poolIds[i]].roundInfos */\n      0x03\n      add\n        /* \"contracts/PoolManager.sol\":13820:13821  1 */\n      0x01\n        /* \"contracts/PoolManager.sol\":13806:13814  roundIds */\n      dup9\n      dup9\n        /* \"contracts/PoolManager.sol\":13815:13816  i */\n      dup8\n        /* \"contracts/PoolManager.sol\":13806:13817  roundIds[i] */\n      dup2\n      dup2\n      lt\n      tag_251\n      jumpi\n      tag_251\n      tag_162\n      jump\t// in\n    tag_251:\n      swap1\n      pop\n      0x20\n      mul\n      add\n      calldataload\n        /* \"contracts/PoolManager.sol\":13806:13821  roundIds[i] - 1 */\n      tag_252\n      swap2\n      swap1\n      tag_159\n      jump\t// in\n    tag_252:\n        /* \"contracts/PoolManager.sol\":13770:13822  _poolInfoMap[poolIds[i]].roundInfos[roundIds[i] - 1] */\n      dup2\n      sload\n      dup2\n      lt\n      tag_254\n      jumpi\n      tag_254\n      tag_162\n      jump\t// in\n    tag_254:\n      swap1\n      0x00\n      mstore\n      keccak256(0x00, 0x20)\n      swap1\n      0x04\n      mul\n      add\n        /* \"contracts/PoolManager.sol\":13770:13832  _poolInfoMap[poolIds[i]].roundInfos[roundIds[i] - 1].isClaimed */\n      0x03\n      add\n      0x04\n        /* \"contracts/PoolManager.sol\":13770:13839  _poolInfoMap[poolIds[i]].roundInfos[roundIds[i] - 1].isClaimed = true */\n      0x0100\n      exp\n      dup2\n      sload\n      dup2\n      0xff\n      mul\n      not\n      and\n      swap1\n      dup4\n      iszero\n      iszero\n      mul\n      or\n      swap1\n      sstore\n      pop\n        /* \"contracts/PoolManager.sol\":13858:13895  PrizeClaimed(poolIds[i], roundIds[i]) */\n      0x1128bee023f7dcf9b3f27e6d488df4c2b5a149077a2e3437a16e8dfdbfe0f38d\n        /* \"contracts/PoolManager.sol\":13871:13878  poolIds */\n      dup9\n      dup9\n        /* \"contracts/PoolManager.sol\":13879:13880  i */\n      dup6\n        /* \"contracts/PoolManager.sol\":13871:13881  poolIds[i] */\n      dup2\n      dup2\n      lt\n      tag_257\n      jumpi\n      tag_257\n      tag_162\n      jump\t// in\n    tag_257:\n      swap1\n      pop\n      0x20\n      mul\n      add\n      calldataload\n        /* \"contracts/PoolManager.sol\":13883:13891  roundIds */\n      dup8\n      dup8\n        /* \"contracts/PoolManager.sol\":13892:13893  i */\n      dup7\n        /* \"contracts/PoolManager.sol\":13883:13894  roundIds[i] */\n      dup2\n      dup2\n      lt\n      tag_259\n      jumpi\n      tag_259\n      tag_162\n      jump\t// in\n    tag_259:\n      swap1\n      pop\n      0x20\n      mul\n      add\n      calldataload\n        /* \"contracts/PoolManager.sol\":13858:13895  PrizeClaimed(poolIds[i], roundIds[i]) */\n      mload(0x40)\n      tag_260\n      swap3\n      swap2\n      swap1\n        /* \"#utility.yul\":14074:14099   */\n      swap2\n      dup3\n      mstore\n        /* \"#utility.yul\":14130:14132   */\n      0x20\n        /* \"#utility.yul\":14115:14133   */\n      dup3\n      add\n        /* \"#utility.yul\":14108:14142   */\n      mstore\n        /* \"#utility.yul\":14062:14064   */\n      0x40\n        /* \"#utility.yul\":14047:14065   */\n      add\n      swap1\n        /* \"#utility.yul\":13900:14148   */\n      jump\n        /* \"contracts/PoolManager.sol\":13858:13895  PrizeClaimed(poolIds[i], roundIds[i]) */\n    tag_260:\n      mload(0x40)\n      dup1\n      swap2\n      sub\n      swap1\n      log1\n        /* \"contracts/PoolManager.sol\":13300:13906  {... */\n      pop\n      pop\n        /* \"contracts/PoolManager.sol\":13295:13298  i++ */\n      dup1\n      dup1\n      tag_262\n      swap1\n      tag_194\n      jump\t// in\n    tag_262:\n      swap2\n      pop\n      pop\n        /* \"contracts/PoolManager.sol\":13255:13906  for (uint256 i = 0; i < poolIds.length; i++) {... */\n      jump(tag_219)\n    tag_220:\n      pop\n        /* \"contracts/PoolManager.sol\":13915:13948  usdt.safeTransfer(to, totalPrize) */\n      tag_263\n      sub(shl(0xa0, 0x01), 0x01)\n        /* \"contracts/PoolManager.sol\":13915:13919  usdt */\n      immutable(\"0x952803362675801135e2a054978c00aff991471bd59cc252d9b843c8ff1e2daa\")\n        /* \"contracts/PoolManager.sol\":13915:13932  usdt.safeTransfer */\n      and\n        /* \"contracts/PoolManager.sol\":13933:13935  to */\n      dup8\n        /* \"contracts/PoolManager.sol\":13937:13947  totalPrize */\n      dup4\n        /* \"contracts/PoolManager.sol\":13915:13932  usdt.safeTransfer */\n      tag_264\n        /* \"contracts/PoolManager.sol\":13915:13948  usdt.safeTransfer(to, totalPrize) */\n      jump\t// in\n    tag_263:\n        /* \"contracts/PoolManager.sol\":13139:13955  {... */\n      pop\n        /* \"contracts/PoolManager.sol\":13010:13955  function claimPrizes(... */\n      pop\n      pop\n      pop\n      pop\n      pop\n      jump\t// out\n        /* \"contracts/PoolManager.sol\":11683:13004  function drawEndedRoundAndOpenNewRound(bytes32 poolId) external {... */\n    tag_71:\n        /* \"contracts/PoolManager.sol\":11757:11781  PoolInfo memory poolInfo */\n      0x00\n        /* \"contracts/PoolManager.sol\":11784:11804  _poolInfoMap[poolId] */\n      dup2\n      dup2\n      mstore\n        /* \"contracts/PoolManager.sol\":11784:11796  _poolInfoMap */\n      0x08\n        /* \"contracts/PoolManager.sol\":11784:11804  _poolInfoMap[poolId] */\n      0x20\n      swap1\n      dup2\n      mstore\n      0x40\n      dup1\n      dup4\n      keccak256\n        /* \"contracts/PoolManager.sol\":11757:11804  PoolInfo memory poolInfo = _poolInfoMap[poolId] */\n      dup2\n      mload\n      0xc0\n      dup2\n      add\n      dup4\n      mstore\n      dup2\n      sload\n      sub(shl(0x80, 0x01), 0x01)\n      dup1\n      dup3\n      and\n      dup4\n      mstore\n      shl(0x80, 0x01)\n      swap2\n      dup3\n      swap1\n      div\n      dup2\n      and\n      dup4\n      dup8\n      add\n      mstore\n      0x01\n      dup5\n      add\n      sload\n      dup1\n      dup3\n      and\n      dup5\n      dup8\n      add\n      mstore\n      swap2\n      swap1\n      swap2\n      div\n      dup2\n      and\n      0x60\n      dup4\n      add\n      mstore\n      0x02\n      dup4\n      add\n      sload\n      and\n      0x80\n      dup3\n      add\n      mstore\n      0x03\n      dup3\n      add\n      dup1\n      sload\n      dup5\n      mload\n      dup2\n      dup8\n      mul\n      dup2\n      add\n      dup8\n      add\n      swap1\n      swap6\n      mstore\n      dup1\n      dup6\n      mstore\n      swap2\n      swap5\n        /* \"contracts/PoolManager.sol\":11784:11804  _poolInfoMap[poolId] */\n      swap3\n      swap4\n        /* \"contracts/PoolManager.sol\":11757:11804  PoolInfo memory poolInfo = _poolInfoMap[poolId] */\n      0xa0\n      dup7\n      add\n      swap4\n      swap1\n      swap3\n      swap1\n        /* \"contracts/PoolManager.sol\":11757:11781  PoolInfo memory poolInfo */\n      dup8\n      swap1\n        /* \"contracts/PoolManager.sol\":11757:11804  PoolInfo memory poolInfo = _poolInfoMap[poolId] */\n      dup5\n      add\n    tag_266:\n      dup3\n      dup3\n      lt\n      iszero\n      tag_267\n      jumpi\n      0x00\n      dup5\n      dup2\n      mstore\n      0x20\n      swap1\n      dup2\n      swap1\n      keccak256\n      0x40\n      dup1\n      mload\n      0xc0\n      dup2\n      add\n      dup3\n      mstore\n      0x04\n      dup7\n      mul\n      swap1\n      swap3\n      add\n      dup1\n      sload\n      sub(shl(0x80, 0x01), 0x01)\n      dup1\n      dup3\n      and\n      dup6\n      mstore\n      shl(0x80, 0x01)\n      swap1\n      swap2\n      div\n      dup2\n      and\n      dup5\n      dup7\n      add\n      mstore\n      0x01\n      dup1\n      dup4\n      add\n      sload\n      swap1\n      swap2\n      and\n      swap3\n      dup5\n      add\n      swap3\n      swap1\n      swap3\n      mstore\n      0x02\n      dup2\n      add\n      sload\n      0x60\n      dup5\n      add\n      mstore\n      0x03\n      add\n      sload\n      0xffffffff\n      dup2\n      and\n      0x80\n      dup5\n      add\n      mstore\n      shl(0x20, 0x01)\n      swap1\n      div\n      0xff\n      and\n      iszero\n      iszero\n      0xa0\n      dup4\n      add\n      mstore\n      swap1\n      dup4\n      mstore\n      swap1\n      swap3\n      add\n      swap2\n      add\n      jump(tag_266)\n    tag_267:\n      pop\n      pop\n      pop\n      swap2\n      mstore\n      pop\n      pop\n        /* \"contracts/PoolManager.sol\":11832:11851  poolInfo.roundInfos */\n      0xa0\n      dup2\n      add\n      mload\n        /* \"contracts/PoolManager.sol\":11832:11858  poolInfo.roundInfos.length */\n      mload\n        /* \"contracts/PoolManager.sol\":11757:11804  PoolInfo memory poolInfo = _poolInfoMap[poolId] */\n      swap1\n      swap2\n      pop\n        /* \"contracts/PoolManager.sol\":11814:11829  uint256 roundId */\n      0x00\n        /* \"contracts/PoolManager.sol\":11872:11884  roundId == 0 */\n      dup2\n      swap1\n      sub\n        /* \"contracts/PoolManager.sol\":11868:11907  if (roundId == 0) revert PoolNotFound() */\n      tag_269\n      jumpi\n        /* \"contracts/PoolManager.sol\":11893:11907  PoolNotFound() */\n      mload(0x40)\n      shl(0xe6, 0x01dbb3ff)\n      dup2\n      mstore\n      0x04\n      add\n      mload(0x40)\n      dup1\n      swap2\n      sub\n      swap1\n      revert\n        /* \"contracts/PoolManager.sol\":11868:11907  if (roundId == 0) revert PoolNotFound() */\n    tag_269:\n        /* \"contracts/PoolManager.sol\":11918:11944  RoundInfo memory roundInfo */\n      0x00\n        /* \"contracts/PoolManager.sol\":11947:11967  _poolInfoMap[poolId] */\n      dup4\n      dup2\n      mstore\n        /* \"contracts/PoolManager.sol\":11947:11959  _poolInfoMap */\n      0x08\n        /* \"contracts/PoolManager.sol\":11947:11967  _poolInfoMap[poolId] */\n      0x20\n      mstore\n      0x40\n      dup2\n      keccak256\n        /* \"contracts/PoolManager.sol\":11947:11978  _poolInfoMap[poolId].roundInfos */\n      0x03\n      add\n        /* \"contracts/PoolManager.sol\":11979:11990  roundId - 1 */\n      tag_270\n        /* \"contracts/PoolManager.sol\":11989:11990  1 */\n      0x01\n        /* \"contracts/PoolManager.sol\":11979:11986  roundId */\n      dup5\n        /* \"contracts/PoolManager.sol\":11979:11990  roundId - 1 */\n      tag_159\n      jump\t// in\n    tag_270:\n        /* \"contracts/PoolManager.sol\":11947:11991  _poolInfoMap[poolId].roundInfos[roundId - 1] */\n      dup2\n      sload\n      dup2\n      lt\n      tag_272\n      jumpi\n      tag_272\n      tag_162\n      jump\t// in\n    tag_272:\n      0x00\n      swap2\n      dup3\n      mstore\n      0x20\n      swap2\n      dup3\n      swap1\n      keccak256\n        /* \"contracts/PoolManager.sol\":11918:11991  RoundInfo memory roundInfo = _poolInfoMap[poolId].roundInfos[roundId - 1] */\n      0x40\n      dup1\n      mload\n      0xc0\n      dup2\n      add\n      dup3\n      mstore\n        /* \"contracts/PoolManager.sol\":11947:11991  _poolInfoMap[poolId].roundInfos[roundId - 1] */\n      0x04\n      swap1\n      swap4\n      mul\n      swap1\n      swap2\n      add\n        /* \"contracts/PoolManager.sol\":11918:11991  RoundInfo memory roundInfo = _poolInfoMap[poolId].roundInfos[roundId - 1] */\n      dup1\n      sload\n      sub(shl(0x80, 0x01), 0x01)\n      dup1\n      dup3\n      and\n      dup6\n      mstore\n      shl(0x80, 0x01)\n      swap1\n      swap2\n      div\n      dup2\n      and\n      swap5\n      dup5\n      add\n      dup6\n      swap1\n      mstore\n      0x01\n      dup3\n      add\n      sload\n      and\n      swap2\n      dup4\n      add\n      swap2\n      swap1\n      swap2\n      mstore\n      0x02\n      dup2\n      add\n      sload\n      0x60\n      dup4\n      add\n      mstore\n      0x03\n      add\n      sload\n      0xffffffff\n      dup2\n      and\n      0x80\n      dup4\n      add\n      mstore\n      0xff\n      shl(0x20, 0x01)\n      swap1\n      swap2\n      div\n      and\n      iszero\n      iszero\n      0xa0\n      dup3\n      add\n      mstore\n      swap2\n      pop\n        /* \"contracts/PoolManager.sol\":12005:12020  block.timestamp */\n      timestamp\n        /* \"contracts/PoolManager.sol\":12005:12040  block.timestamp < roundInfo.endTime */\n      lt\n        /* \"contracts/PoolManager.sol\":12001:12059  if (block.timestamp < roundInfo.endTime) revert NotEnded() */\n      iszero\n      tag_274\n      jumpi\n        /* \"contracts/PoolManager.sol\":12049:12059  NotEnded() */\n      mload(0x40)\n      shl(0xe3, 0x1a6031a3)\n      dup2\n      mstore\n      0x04\n      add\n      mload(0x40)\n      dup1\n      swap2\n      sub\n      swap1\n      revert\n        /* \"contracts/PoolManager.sol\":12001:12059  if (block.timestamp < roundInfo.endTime) revert NotEnded() */\n    tag_274:\n        /* \"contracts/PoolManager.sol\":12073:12095  roundInfo.vrfRequestId */\n      0x60\n      dup2\n      add\n      mload\n        /* \"contracts/PoolManager.sol\":12073:12099  roundInfo.vrfRequestId > 0 */\n      iszero\n        /* \"contracts/PoolManager.sol\":12069:12122  if (roundInfo.vrfRequestId > 0) revert AlreadyDrawn() */\n      tag_275\n      jumpi\n        /* \"contracts/PoolManager.sol\":12108:12122  AlreadyDrawn() */\n      mload(0x40)\n      shl(0xe0, 0x097e1d9b)\n      dup2\n      mstore\n      0x04\n      add\n      mload(0x40)\n      dup1\n      swap2\n      sub\n      swap1\n      revert\n        /* \"contracts/PoolManager.sol\":12069:12122  if (roundInfo.vrfRequestId > 0) revert AlreadyDrawn() */\n    tag_275:\n        /* \"contracts/PoolManager.sol\":12153:12164  vrfConsumer */\n      sload(0x01)\n        /* \"contracts/PoolManager.sol\":12153:12185  vrfConsumer.requestRandomWords() */\n      0x40\n      dup1\n      mload\n      shl(0xe0, 0xe0c86289)\n      dup2\n      mstore\n      swap1\n      mload\n        /* \"contracts/PoolManager.sol\":12133:12150  uint256 requestId */\n      0x00\n      swap3\n      sub(shl(0xa0, 0x01), 0x01)\n        /* \"contracts/PoolManager.sol\":12153:12164  vrfConsumer */\n      and\n      swap2\n        /* \"contracts/PoolManager.sol\":12153:12183  vrfConsumer.requestRandomWords */\n      0xe0c86289\n      swap2\n        /* \"contracts/PoolManager.sol\":12153:12185  vrfConsumer.requestRandomWords() */\n      0x04\n      dup1\n      dup4\n      add\n      swap3\n      0x20\n      swap3\n      swap2\n      swap1\n      dup3\n      swap1\n      sub\n      add\n      dup2\n        /* \"contracts/PoolManager.sol\":12133:12150  uint256 requestId */\n      dup8\n        /* \"contracts/PoolManager.sol\":12153:12164  vrfConsumer */\n      dup8\n        /* \"contracts/PoolManager.sol\":12153:12185  vrfConsumer.requestRandomWords() */\n      gas\n      call\n      iszero\n      dup1\n      iszero\n      tag_277\n      jumpi\n      returndatasize\n      0x00\n      dup1\n      returndatacopy\n      revert(0x00, returndatasize)\n    tag_277:\n      pop\n      pop\n      pop\n      pop\n      mload(0x40)\n      returndatasize\n      not(0x1f)\n      0x1f\n      dup3\n      add\n      and\n      dup3\n      add\n      dup1\n      0x40\n      mstore\n      pop\n      dup2\n      add\n      swap1\n      tag_278\n      swap2\n      swap1\n      tag_279\n      jump\t// in\n    tag_278:\n        /* \"contracts/PoolManager.sol\":12227:12258  VRFRequestInfo(poolId, roundId) */\n      0x40\n      dup1\n      mload\n      dup1\n      dup3\n      add\n      dup3\n      mstore\n      dup8\n      dup2\n      mstore\n      0x20\n      dup1\n      dup3\n      add\n      dup8\n      dup2\n      mstore\n      0x00\n        /* \"contracts/PoolManager.sol\":12195:12224  _vrfRequestInfoMap[requestId] */\n      dup6\n      dup2\n      mstore\n        /* \"contracts/PoolManager.sol\":12195:12213  _vrfRequestInfoMap */\n      0x07\n        /* \"contracts/PoolManager.sol\":12195:12224  _vrfRequestInfoMap[requestId] */\n      dup4\n      mstore\n      dup5\n      dup2\n      keccak256\n        /* \"contracts/PoolManager.sol\":12195:12258  _vrfRequestInfoMap[requestId] = VRFRequestInfo(poolId, roundId) */\n      swap4\n      mload\n      dup5\n      sstore\n      swap1\n      mload\n      0x01\n      swap4\n      dup5\n      add\n      sstore\n        /* \"contracts/PoolManager.sol\":12268:12290  roundInfo.vrfRequestId */\n      0x60\n      dup8\n      add\n        /* \"contracts/PoolManager.sol\":12268:12302  roundInfo.vrfRequestId = requestId */\n      dup6\n      swap1\n      mstore\n        /* \"contracts/PoolManager.sol\":12312:12332  _poolInfoMap[poolId] */\n      dup10\n      dup2\n      mstore\n        /* \"contracts/PoolManager.sol\":12312:12324  _poolInfoMap */\n      0x08\n        /* \"contracts/PoolManager.sol\":12312:12332  _poolInfoMap[poolId] */\n      swap1\n      swap2\n      mstore\n      swap2\n      swap1\n      swap2\n      keccak256\n        /* \"contracts/PoolManager.sol\":12133:12185  uint256 requestId = vrfConsumer.requestRandomWords() */\n      swap2\n      swap3\n      pop\n        /* \"contracts/PoolManager.sol\":12268:12277  roundInfo */\n      dup4\n      swap2\n        /* \"contracts/PoolManager.sol\":12312:12343  _poolInfoMap[poolId].roundInfos */\n      0x03\n      add\n      swap1\n        /* \"contracts/PoolManager.sol\":12344:12355  roundId - 1 */\n      tag_280\n      swap1\n        /* \"contracts/PoolManager.sol\":12250:12257  roundId */\n      dup7\n        /* \"contracts/PoolManager.sol\":12344:12355  roundId - 1 */\n      tag_159\n      jump\t// in\n    tag_280:\n        /* \"contracts/PoolManager.sol\":12312:12356  _poolInfoMap[poolId].roundInfos[roundId - 1] */\n      dup2\n      sload\n      dup2\n      lt\n      tag_282\n      jumpi\n      tag_282\n      tag_162\n      jump\t// in\n    tag_282:\n      0x00\n      swap2\n      dup3\n      mstore\n      0x20\n      dup1\n      dup4\n      keccak256\n        /* \"contracts/PoolManager.sol\":12312:12368  _poolInfoMap[poolId].roundInfos[roundId - 1] = roundInfo */\n      dup5\n      mload\n      swap2\n      dup6\n      add\n      mload\n      sub(shl(0x80, 0x01), 0x01)\n      swap1\n      dup2\n      and\n      shl(0x80, 0x01)\n      mul\n      swap3\n      dup2\n      and\n      swap3\n      swap1\n      swap3\n      or\n        /* \"contracts/PoolManager.sol\":12312:12356  _poolInfoMap[poolId].roundInfos[roundId - 1] */\n      0x04\n      swap1\n      swap4\n      mul\n      add\n        /* \"contracts/PoolManager.sol\":12312:12368  _poolInfoMap[poolId].roundInfos[roundId - 1] = roundInfo */\n      swap2\n      dup3\n      sstore\n      0x40\n      dup5\n      add\n      mload\n      0x01\n      dup4\n      add\n      dup1\n      sload\n      swap2\n      swap1\n      swap3\n      and\n      not(sub(shl(0x80, 0x01), 0x01))\n      swap2\n      swap1\n      swap2\n      and\n      or\n      swap1\n      sstore\n      0x60\n      dup4\n      add\n      mload\n      0x02\n      dup3\n      add\n      sstore\n      0x80\n      dup1\n      dup5\n      add\n      mload\n      0x03\n      swap1\n      swap3\n      add\n      dup1\n      sload\n      0xa0\n      swap1\n      swap6\n      add\n      mload\n      iszero\n      iszero\n      shl(0x20, 0x01)\n      mul\n      not(0xffffffffff)\n      swap1\n      swap6\n      and\n      0xffffffff\n      swap1\n      swap4\n      and\n      swap3\n      swap1\n      swap3\n      or\n      swap4\n      swap1\n      swap4\n      or\n      swap1\n      sstore\n        /* \"contracts/PoolManager.sol\":12430:12451  poolInfo.roundGapTime */\n      swap1\n      dup6\n      add\n      mload\n        /* \"contracts/PoolManager.sol\":12403:12451  uint128(block.timestamp) + poolInfo.roundGapTime */\n      tag_284\n      swap1\n        /* \"contracts/PoolManager.sol\":12411:12426  block.timestamp */\n      timestamp\n        /* \"contracts/PoolManager.sol\":12403:12451  uint128(block.timestamp) + poolInfo.roundGapTime */\n      tag_285\n      jump\t// in\n    tag_284:\n        /* \"contracts/PoolManager.sol\":12379:12451  uint128 nextStartTime = uint128(block.timestamp) + poolInfo.roundGapTime */\n      swap1\n      pop\n        /* \"contracts/PoolManager.sol\":12461:12480  uint128 nextEndTime */\n      0x00\n        /* \"contracts/PoolManager.sol\":12499:12507  poolInfo */\n      dup6\n        /* \"contracts/PoolManager.sol\":12499:12521  poolInfo.roundDuration */\n      0x60\n      add\n      mload\n        /* \"contracts/PoolManager.sol\":12483:12496  nextStartTime */\n      dup3\n        /* \"contracts/PoolManager.sol\":12483:12521  nextStartTime + poolInfo.roundDuration */\n      tag_286\n      swap2\n      swap1\n      tag_285\n      jump\t// in\n    tag_286:\n        /* \"contracts/PoolManager.sol\":12461:12521  uint128 nextEndTime = nextStartTime + poolInfo.roundDuration */\n      swap1\n      pop\n        /* \"contracts/PoolManager.sol\":12531:12561  RoundInfo memory nextRoundInfo */\n      0x00\n        /* \"contracts/PoolManager.sol\":12564:12790  RoundInfo({... */\n      mload(0x40)\n      dup1\n      0xc0\n      add\n      0x40\n      mstore\n      dup1\n        /* \"contracts/PoolManager.sol\":12599:12612  nextStartTime */\n      dup5\n      sub(shl(0x80, 0x01), 0x01)\n        /* \"contracts/PoolManager.sol\":12564:12790  RoundInfo({... */\n      and\n      dup2\n      mstore\n      0x20\n      add\n        /* \"contracts/PoolManager.sol\":12635:12646  nextEndTime */\n      dup4\n      sub(shl(0x80, 0x01), 0x01)\n        /* \"contracts/PoolManager.sol\":12564:12790  RoundInfo({... */\n      and\n      dup2\n      mstore\n      0x20\n      add\n        /* \"contracts/PoolManager.sol\":12673:12681  poolInfo */\n      dup9\n        /* \"contracts/PoolManager.sol\":12673:12694  poolInfo.totalTickets */\n      0x20\n      add\n      mload\n      sub(shl(0x80, 0x01), 0x01)\n        /* \"contracts/PoolManager.sol\":12564:12790  RoundInfo({... */\n      and\n      dup2\n      mstore\n      0x20\n      add\n        /* \"contracts/PoolManager.sol\":12722:12723  0 */\n      0x00\n        /* \"contracts/PoolManager.sol\":12564:12790  RoundInfo({... */\n      dup2\n      mstore\n      0x20\n      add\n        /* \"contracts/PoolManager.sol\":12748:12749  0 */\n      0x00\n        /* \"contracts/PoolManager.sol\":12564:12790  RoundInfo({... */\n      0xffffffff\n      and\n      dup2\n      mstore\n      0x20\n      add\n        /* \"contracts/PoolManager.sol\":12774:12779  false */\n      0x00\n        /* \"contracts/PoolManager.sol\":12564:12790  RoundInfo({... */\n      iszero\n      iszero\n      dup2\n      mstore\n      pop\n        /* \"contracts/PoolManager.sol\":12531:12790  RoundInfo memory nextRoundInfo = RoundInfo({... */\n      swap1\n      pop\n        /* \"contracts/PoolManager.sol\":12800:12812  _poolInfoMap */\n      0x08\n        /* \"contracts/PoolManager.sol\":12800:12820  _poolInfoMap[poolId] */\n      0x00\n        /* \"contracts/PoolManager.sol\":12813:12819  poolId */\n      dup10\n        /* \"contracts/PoolManager.sol\":12800:12820  _poolInfoMap[poolId] */\n      dup2\n      mstore\n      0x20\n      add\n      swap1\n      dup2\n      mstore\n      0x20\n      add\n      0x00\n      keccak256\n        /* \"contracts/PoolManager.sol\":12800:12831  _poolInfoMap[poolId].roundInfos */\n      0x03\n      add\n        /* \"contracts/PoolManager.sol\":12837:12850  nextRoundInfo */\n      dup2\n        /* \"contracts/PoolManager.sol\":12800:12851  _poolInfoMap[poolId].roundInfos.push(nextRoundInfo) */\n      swap1\n      dup1\n      0x01\n      dup2\n      sload\n      add\n      dup1\n      dup3\n      sstore\n      dup1\n      swap2\n      pop\n      pop\n      0x01\n      swap1\n      sub\n      swap1\n      0x00\n      mstore\n      keccak256(0x00, 0x20)\n      swap1\n      0x04\n      mul\n      add\n      0x00\n      swap1\n      swap2\n      swap1\n      swap2\n      swap1\n      swap2\n      pop\n      0x00\n      dup3\n      add\n      mload\n      dup2\n      0x00\n      add\n      exp(0x0100, 0x00)\n      dup2\n      sload\n      dup2\n      sub(shl(0x80, 0x01), 0x01)\n      mul\n      not\n      and\n      swap1\n      dup4\n      sub(shl(0x80, 0x01), 0x01)\n      and\n      mul\n      or\n      swap1\n      sstore\n      pop\n      0x20\n      dup3\n      add\n      mload\n      dup2\n      0x00\n      add\n      exp(0x0100, 0x10)\n      dup2\n      sload\n      dup2\n      sub(shl(0x80, 0x01), 0x01)\n      mul\n      not\n      and\n      swap1\n      dup4\n      sub(shl(0x80, 0x01), 0x01)\n      and\n      mul\n      or\n      swap1\n      sstore\n      pop\n      0x40\n      dup3\n      add\n      mload\n      dup2\n      0x01\n      add\n      exp(0x0100, 0x00)\n      dup2\n      sload\n      dup2\n      sub(shl(0x80, 0x01), 0x01)\n      mul\n      not\n      and\n      swap1\n      dup4\n      sub(shl(0x80, 0x01), 0x01)\n      and\n      mul\n      or\n      swap1\n      sstore\n      pop\n      0x60\n      dup3\n      add\n      mload\n      dup2\n      0x02\n      add\n      sstore\n      0x80\n      dup3\n      add\n      mload\n      dup2\n      0x03\n      add\n      exp(0x0100, 0x00)\n      dup2\n      sload\n      dup2\n      0xffffffff\n      mul\n      not\n      and\n      swap1\n      dup4\n      0xffffffff\n      and\n      mul\n      or\n      swap1\n      sstore\n      pop\n      0xa0\n      dup3\n      add\n      mload\n      dup2\n      0x03\n      add\n      exp(0x0100, 0x04)\n      dup2\n      sload\n      dup2\n      0xff\n      mul\n      not\n      and\n      swap1\n      dup4\n      iszero\n      iszero\n      mul\n      or\n      swap1\n      sstore\n      pop\n      pop\n      pop\n        /* \"contracts/PoolManager.sol\":12861:12879  uint256 newRoundId */\n      0x00\n        /* \"contracts/PoolManager.sol\":12882:12894  _poolInfoMap */\n      0x08\n        /* \"contracts/PoolManager.sol\":12882:12902  _poolInfoMap[poolId] */\n      0x00\n        /* \"contracts/PoolManager.sol\":12895:12901  poolId */\n      dup11\n        /* \"contracts/PoolManager.sol\":12882:12902  _poolInfoMap[poolId] */\n      dup2\n      mstore\n      0x20\n      add\n      swap1\n      dup2\n      mstore\n      0x20\n      add\n      0x00\n      keccak256\n        /* \"contracts/PoolManager.sol\":12882:12913  _poolInfoMap[poolId].roundInfos */\n      0x03\n      add\n        /* \"contracts/PoolManager.sol\":12882:12920  _poolInfoMap[poolId].roundInfos.length */\n      dup1\n      sload\n      swap1\n      pop\n        /* \"contracts/PoolManager.sol\":12861:12920  uint256 newRoundId = _poolInfoMap[poolId].roundInfos.length */\n      swap1\n      pop\n        /* \"contracts/PoolManager.sol\":12935:12997  NewRoundOpened(poolId, newRoundId, nextStartTime, nextEndTime) */\n      0x9b4e1f1b6df74eff26420e77ce7891d410b236932a083b7c18d599fbd654a8c7\n        /* \"contracts/PoolManager.sol\":12950:12956  poolId */\n      dup10\n        /* \"contracts/PoolManager.sol\":12958:12968  newRoundId */\n      dup3\n        /* \"contracts/PoolManager.sol\":12970:12983  nextStartTime */\n      dup7\n        /* \"contracts/PoolManager.sol\":12985:12996  nextEndTime */\n      dup7\n        /* \"contracts/PoolManager.sol\":12935:12997  NewRoundOpened(poolId, newRoundId, nextStartTime, nextEndTime) */\n      mload(0x40)\n      tag_288\n      swap5\n      swap4\n      swap3\n      swap2\n      swap1\n        /* \"#utility.yul\":14775:14800   */\n      swap4\n      dup5\n      mstore\n        /* \"#utility.yul\":14831:14833   */\n      0x20\n        /* \"#utility.yul\":14816:14834   */\n      dup5\n      add\n        /* \"#utility.yul\":14809:14843   */\n      swap3\n      swap1\n      swap3\n      mstore\n      sub(shl(0x80, 0x01), 0x01)\n        /* \"#utility.yul\":14932:14947   */\n      swap1\n      dup2\n      and\n        /* \"#utility.yul\":14927:14929   */\n      0x40\n        /* \"#utility.yul\":14912:14930   */\n      dup5\n      add\n        /* \"#utility.yul\":14905:14948   */\n      mstore\n        /* \"#utility.yul\":14984:14999   */\n      and\n        /* \"#utility.yul\":14979:14981   */\n      0x60\n        /* \"#utility.yul\":14964:14982   */\n      dup3\n      add\n        /* \"#utility.yul\":14957:15000   */\n      mstore\n        /* \"#utility.yul\":14762:14765   */\n      0x80\n        /* \"#utility.yul\":14747:14766   */\n      add\n      swap1\n        /* \"#utility.yul\":14544:15006   */\n      jump\n        /* \"contracts/PoolManager.sol\":12935:12997  NewRoundOpened(poolId, newRoundId, nextStartTime, nextEndTime) */\n    tag_288:\n      mload(0x40)\n      dup1\n      swap2\n      sub\n      swap1\n      log1\n        /* \"contracts/PoolManager.sol\":11747:13004  {... */\n      pop\n      pop\n      pop\n      pop\n      pop\n      pop\n      pop\n      pop\n        /* \"contracts/PoolManager.sol\":11683:13004  function drawEndedRoundAndOpenNewRound(bytes32 poolId) external {... */\n      pop\n      jump\t// out\n        /* \"contracts/PoolManager.sol\":3682:4506  function getParticipationRecordsByPoolRound(address user, bytes32 poolId, uint256 roundId) external view returns (ParticipationRecord[] memory records) {... */\n    tag_83:\n      sub(shl(0xa0, 0x01), 0x01)\n        /* \"contracts/PoolManager.sol\":3886:3917  _userParticipationRecords[user] */\n      dup4\n      and\n        /* \"contracts/PoolManager.sol\":3844:3883  ParticipationRecord[] memory allRecords */\n      0x00\n        /* \"contracts/PoolManager.sol\":3886:3917  _userParticipationRecords[user] */\n      swap1\n      dup2\n      mstore\n        /* \"contracts/PoolManager.sol\":3886:3911  _userParticipationRecords */\n      0x05\n        /* \"contracts/PoolManager.sol\":3886:3917  _userParticipationRecords[user] */\n      0x20\n      swap1\n      dup2\n      mstore\n      0x40\n      dup1\n      dup4\n      keccak256\n        /* \"contracts/PoolManager.sol\":3844:3917  ParticipationRecord[] memory allRecords = _userParticipationRecords[user] */\n      dup1\n      sload\n      dup3\n      mload\n      dup2\n      dup6\n      mul\n      dup2\n      add\n      dup6\n      add\n      swap1\n      swap4\n      mstore\n      dup1\n      dup4\n      mstore\n        /* \"contracts/PoolManager.sol\":3796:3832  ParticipationRecord[] memory records */\n      0x60\n      swap5\n        /* \"contracts/PoolManager.sol\":3844:3883  ParticipationRecord[] memory allRecords */\n      swap4\n      dup5\n      swap1\n        /* \"contracts/PoolManager.sol\":3844:3917  ParticipationRecord[] memory allRecords = _userParticipationRecords[user] */\n      dup5\n      add\n    tag_291:\n      dup3\n      dup3\n      lt\n      iszero\n      tag_292\n      jumpi\n      dup4\n      dup3\n      swap1\n      0x00\n      mstore\n      keccak256(0x00, 0x20)\n      swap1\n      0x05\n      mul\n      add\n      mload(0x40)\n      dup1\n      0xa0\n      add\n      0x40\n      mstore\n      swap1\n      dup2\n      0x00\n      dup3\n      add\n      sload\n      dup2\n      mstore\n      0x20\n      add\n      0x01\n      dup3\n      add\n      sload\n      dup2\n      mstore\n      0x20\n      add\n      0x02\n      dup3\n      add\n      sload\n      dup2\n      mstore\n      0x20\n      add\n      0x03\n      dup3\n      add\n      sload\n      dup2\n      mstore\n      0x20\n      add\n      0x04\n      dup3\n      add\n      dup1\n      sload\n      dup1\n      0x20\n      mul\n      0x20\n      add\n      mload(0x40)\n      swap1\n      dup2\n      add\n      0x40\n      mstore\n      dup1\n      swap3\n      swap2\n      swap1\n      dup2\n      dup2\n      mstore\n      0x20\n      add\n      dup3\n      dup1\n      sload\n      dup1\n      iszero\n      tag_294\n      jumpi\n      0x20\n      mul\n      dup3\n      add\n      swap2\n      swap1\n      0x00\n      mstore\n      keccak256(0x00, 0x20)\n      swap1\n      0x00\n      swap1\n    tag_295:\n      dup3\n      dup3\n      swap1\n      sload\n      swap1\n      0x0100\n      exp\n      swap1\n      div\n      0xffffffff\n      and\n      0xffffffff\n      and\n      dup2\n      mstore\n      0x20\n      add\n      swap1\n      0x04\n      add\n      swap1\n      0x20\n      dup3\n      0x03\n      add\n      div\n      swap3\n      dup4\n      add\n      swap3\n      0x01\n      sub\n      dup3\n      mul\n      swap2\n      pop\n      dup1\n      dup5\n      gt\n      tag_295\n      jumpi\n      swap1\n      pop\n    tag_294:\n      pop\n      pop\n      pop\n      pop\n      pop\n      dup2\n      mstore\n      pop\n      pop\n      dup2\n      mstore\n      0x20\n      add\n      swap1\n      0x01\n      add\n      swap1\n      jump(tag_291)\n    tag_292:\n      pop\n      pop\n      pop\n      pop\n      swap1\n      pop\n        /* \"contracts/PoolManager.sol\":3927:3967  ParticipationRecord[] memory tempRecords */\n      0x00\n        /* \"contracts/PoolManager.sol\":3996:4006  allRecords */\n      dup2\n        /* \"contracts/PoolManager.sol\":3996:4013  allRecords.length */\n      mload\n        /* \"contracts/PoolManager.sol\":3970:4014  new ParticipationRecord[](allRecords.length) */\n      0xffffffffffffffff\n      dup2\n      gt\n      iszero\n      tag_297\n      jumpi\n      tag_297\n      tag_172\n      jump\t// in\n    tag_297:\n      mload(0x40)\n      swap1\n      dup1\n      dup3\n      mstore\n      dup1\n      0x20\n      mul\n      0x20\n      add\n      dup3\n      add\n      0x40\n      mstore\n      dup1\n      iszero\n      tag_298\n      jumpi\n      dup2\n      0x20\n      add\n    tag_299:\n      tag_300\n      tag_301\n      jump\t// in\n    tag_300:\n      dup2\n      mstore\n      0x20\n      add\n      swap1\n      0x01\n      swap1\n      sub\n      swap1\n      dup2\n      tag_299\n      jumpi\n      swap1\n      pop\n    tag_298:\n      pop\n        /* \"contracts/PoolManager.sol\":3927:4014  ParticipationRecord[] memory tempRecords = new ParticipationRecord[](allRecords.length) */\n      swap1\n      pop\n        /* \"contracts/PoolManager.sol\":4024:4042  uint256 realLength */\n      0x00\n      dup1\n        /* \"contracts/PoolManager.sol\":4052:4340  for (uint256 i = 0; i < allRecords.length; i++) {... */\n    tag_302:\n        /* \"contracts/PoolManager.sol\":4076:4086  allRecords */\n      dup4\n        /* \"contracts/PoolManager.sol\":4076:4093  allRecords.length */\n      mload\n        /* \"contracts/PoolManager.sol\":4072:4073  i */\n      dup2\n        /* \"contracts/PoolManager.sol\":4072:4093  i < allRecords.length */\n      lt\n        /* \"contracts/PoolManager.sol\":4052:4340  for (uint256 i = 0; i < allRecords.length; i++) {... */\n      iszero\n      tag_303\n      jumpi\n        /* \"contracts/PoolManager.sol\":4114:4147  ParticipationRecord memory record */\n      0x00\n        /* \"contracts/PoolManager.sol\":4150:4160  allRecords */\n      dup5\n        /* \"contracts/PoolManager.sol\":4161:4162  i */\n      dup3\n        /* \"contracts/PoolManager.sol\":4150:4163  allRecords[i] */\n      dup2\n      mload\n      dup2\n      lt\n      tag_306\n      jumpi\n      tag_306\n      tag_162\n      jump\t// in\n    tag_306:\n      0x20\n      mul\n      0x20\n      add\n      add\n      mload\n        /* \"contracts/PoolManager.sol\":4114:4163  ParticipationRecord memory record = allRecords[i] */\n      swap1\n      pop\n        /* \"contracts/PoolManager.sol\":4191:4197  record */\n      dup1\n        /* \"contracts/PoolManager.sol\":4191:4204  record.poolId */\n      0x00\n      add\n      mload\n        /* \"contracts/PoolManager.sol\":4181:4187  poolId */\n      dup9\n        /* \"contracts/PoolManager.sol\":4181:4204  poolId == record.poolId */\n      eq\n        /* \"contracts/PoolManager.sol\":4181:4233  poolId == record.poolId && roundId == record.roundId */\n      dup1\n      iszero\n      tag_307\n      jumpi\n      pop\n        /* \"contracts/PoolManager.sol\":4219:4225  record */\n      dup1\n        /* \"contracts/PoolManager.sol\":4219:4233  record.roundId */\n      0x20\n      add\n      mload\n        /* \"contracts/PoolManager.sol\":4208:4215  roundId */\n      dup8\n        /* \"contracts/PoolManager.sol\":4208:4233  roundId == record.roundId */\n      eq\n        /* \"contracts/PoolManager.sol\":4181:4233  poolId == record.poolId && roundId == record.roundId */\n    tag_307:\n        /* \"contracts/PoolManager.sol\":4177:4330  if (poolId == record.poolId && roundId == record.roundId) {... */\n      iszero\n      tag_308\n      jumpi\n        /* \"contracts/PoolManager.sol\":4279:4285  record */\n      dup1\n        /* \"contracts/PoolManager.sol\":4253:4264  tempRecords */\n      dup5\n        /* \"contracts/PoolManager.sol\":4265:4275  realLength */\n      dup5\n        /* \"contracts/PoolManager.sol\":4253:4276  tempRecords[realLength] */\n      dup2\n      mload\n      dup2\n      lt\n      tag_310\n      jumpi\n      tag_310\n      tag_162\n      jump\t// in\n    tag_310:\n      0x20\n      mul\n      0x20\n      add\n      add\n        /* \"contracts/PoolManager.sol\":4253:4285  tempRecords[realLength] = record */\n      dup2\n      swap1\n      mstore\n      pop\n        /* \"contracts/PoolManager.sol\":4303:4315  realLength++ */\n      dup3\n      dup1\n      tag_311\n      swap1\n      tag_194\n      jump\t// in\n    tag_311:\n      swap4\n      pop\n      pop\n        /* \"contracts/PoolManager.sol\":4177:4330  if (poolId == record.poolId && roundId == record.roundId) {... */\n    tag_308:\n      pop\n        /* \"contracts/PoolManager.sol\":4095:4098  i++ */\n      dup1\n      tag_312\n      dup2\n      tag_194\n      jump\t// in\n    tag_312:\n      swap2\n      pop\n      pop\n        /* \"contracts/PoolManager.sol\":4052:4340  for (uint256 i = 0; i < allRecords.length; i++) {... */\n      jump(tag_302)\n    tag_303:\n      pop\n        /* \"contracts/PoolManager.sol\":4386:4396  realLength */\n      dup1\n        /* \"contracts/PoolManager.sol\":4360:4397  new ParticipationRecord[](realLength) */\n      0xffffffffffffffff\n      dup2\n      gt\n      iszero\n      tag_314\n      jumpi\n      tag_314\n      tag_172\n      jump\t// in\n    tag_314:\n      mload(0x40)\n      swap1\n      dup1\n      dup3\n      mstore\n      dup1\n      0x20\n      mul\n      0x20\n      add\n      dup3\n      add\n      0x40\n      mstore\n      dup1\n      iszero\n      tag_315\n      jumpi\n      dup2\n      0x20\n      add\n    tag_316:\n      tag_317\n      tag_301\n      jump\t// in\n    tag_317:\n      dup2\n      mstore\n      0x20\n      add\n      swap1\n      0x01\n      swap1\n      sub\n      swap1\n      dup2\n      tag_316\n      jumpi\n      swap1\n      pop\n    tag_315:\n      pop\n        /* \"contracts/PoolManager.sol\":4350:4397  records = new ParticipationRecord[](realLength) */\n      swap4\n      pop\n        /* \"contracts/PoolManager.sol\":4412:4421  uint256 i */\n      0x00\n        /* \"contracts/PoolManager.sol\":4407:4500  for (uint256 i = 0; i < realLength; i++) {... */\n    tag_318:\n        /* \"contracts/PoolManager.sol\":4431:4441  realLength */\n      dup2\n        /* \"contracts/PoolManager.sol\":4427:4428  i */\n      dup2\n        /* \"contracts/PoolManager.sol\":4427:4441  i < realLength */\n      lt\n        /* \"contracts/PoolManager.sol\":4407:4500  for (uint256 i = 0; i < realLength; i++) {... */\n      iszero\n      tag_319\n      jumpi\n        /* \"contracts/PoolManager.sol\":4475:4486  tempRecords */\n      dup3\n        /* \"contracts/PoolManager.sol\":4487:4488  i */\n      dup2\n        /* \"contracts/PoolManager.sol\":4475:4489  tempRecords[i] */\n      dup2\n      mload\n      dup2\n      lt\n      tag_322\n      jumpi\n      tag_322\n      tag_162\n      jump\t// in\n    tag_322:\n      0x20\n      mul\n      0x20\n      add\n      add\n      mload\n        /* \"contracts/PoolManager.sol\":4462:4469  records */\n      dup6\n        /* \"contracts/PoolManager.sol\":4470:4471  i */\n      dup3\n        /* \"contracts/PoolManager.sol\":4462:4472  records[i] */\n      dup2\n      mload\n      dup2\n      lt\n      tag_324\n      jumpi\n      tag_324\n      tag_162\n      jump\t// in\n    tag_324:\n      0x20\n      mul\n      0x20\n      add\n      add\n        /* \"contracts/PoolManager.sol\":4462:4489  records[i] = tempRecords[i] */\n      dup2\n      swap1\n      mstore\n      pop\n        /* \"contracts/PoolManager.sol\":4443:4446  i++ */\n      dup1\n      dup1\n      tag_325\n      swap1\n      tag_194\n      jump\t// in\n    tag_325:\n      swap2\n      pop\n      pop\n        /* \"contracts/PoolManager.sol\":4407:4500  for (uint256 i = 0; i < realLength; i++) {... */\n      jump(tag_318)\n    tag_319:\n      pop\n        /* \"contracts/PoolManager.sol\":3834:4506  {... */\n      pop\n      pop\n      pop\n        /* \"contracts/PoolManager.sol\":3682:4506  function getParticipationRecordsByPoolRound(address user, bytes32 poolId, uint256 roundId) external view returns (ParticipationRecord[] memory records) {... */\n      swap4\n      swap3\n      pop\n      pop\n      pop\n      jump\t// out\n        /* \"contracts/PoolManager.sol\":14406:14853  function fulfillRandomWords(uint256 requestId, uint256[] memory randomWords) external {... */\n    tag_89:\n        /* \"contracts/PoolManager.sol\":14528:14539  vrfConsumer */\n      and(sub(shl(0xa0, 0x01), 0x01), sload(0x01))\n        /* \"contracts/PoolManager.sol\":14506:14516  msg.sender */\n      caller\n        /* \"contracts/PoolManager.sol\":14506:14540  msg.sender != address(vrfConsumer) */\n      eq\n        /* \"contracts/PoolManager.sol\":14502:14567  if (msg.sender != address(vrfConsumer)) revert InvalidMsgSender() */\n      tag_327\n      jumpi\n        /* \"contracts/PoolManager.sol\":14549:14567  InvalidMsgSender() */\n      mload(0x40)\n      shl(0xe0, 0x3bfe162b)\n      dup2\n      mstore\n      0x04\n      add\n      mload(0x40)\n      dup1\n      swap2\n      sub\n      swap1\n      revert\n        /* \"contracts/PoolManager.sol\":14502:14567  if (msg.sender != address(vrfConsumer)) revert InvalidMsgSender() */\n    tag_327:\n        /* \"contracts/PoolManager.sol\":14577:14610  VRFRequestInfo memory requestInfo */\n      0x00\n        /* \"contracts/PoolManager.sol\":14613:14642  _vrfRequestInfoMap[requestId] */\n      dup3\n      dup2\n      mstore\n        /* \"contracts/PoolManager.sol\":14613:14631  _vrfRequestInfoMap */\n      0x07\n        /* \"contracts/PoolManager.sol\":14613:14642  _vrfRequestInfoMap[requestId] */\n      0x20\n      swap1\n      dup2\n      mstore\n      0x40\n      dup1\n      dup4\n      keccak256\n        /* \"contracts/PoolManager.sol\":14577:14642  VRFRequestInfo memory requestInfo = _vrfRequestInfoMap[requestId] */\n      dup2\n      mload\n      dup1\n      dup4\n      add\n      dup4\n      mstore\n      dup2\n      sload\n      dup1\n      dup3\n      mstore\n      0x01\n      swap1\n      swap3\n      add\n      sload\n      dup2\n      dup6\n      add\n      mstore\n        /* \"contracts/PoolManager.sol\":14689:14721  _poolInfoMap[requestInfo.poolId] */\n      swap1\n      dup5\n      mstore\n        /* \"contracts/PoolManager.sol\":14689:14701  _poolInfoMap */\n      0x08\n        /* \"contracts/PoolManager.sol\":14689:14721  _poolInfoMap[requestInfo.poolId] */\n      swap1\n      swap3\n      mstore\n      dup3\n      keccak256\n        /* \"contracts/PoolManager.sol\":14689:14734  _poolInfoMap[requestInfo.poolId].totalTickets */\n      sload\n        /* \"contracts/PoolManager.sol\":14672:14686  randomWords[0] */\n      dup4\n      mload\n        /* \"contracts/PoolManager.sol\":14577:14642  VRFRequestInfo memory requestInfo = _vrfRequestInfoMap[requestId] */\n      swap2\n      swap3\n        /* \"contracts/PoolManager.sol\":14577:14610  VRFRequestInfo memory requestInfo */\n      swap2\n      shl(0x80, 0x01)\n        /* \"contracts/PoolManager.sol\":14689:14734  _poolInfoMap[requestInfo.poolId].totalTickets */\n      swap1\n      swap2\n      div\n      sub(shl(0x80, 0x01), 0x01)\n      and\n      swap1\n        /* \"contracts/PoolManager.sol\":14672:14686  randomWords[0] */\n      dup5\n      swap1\n        /* \"contracts/PoolManager.sol\":14577:14610  VRFRequestInfo memory requestInfo */\n      dup4\n      swap1\n        /* \"contracts/PoolManager.sol\":14672:14686  randomWords[0] */\n      tag_329\n      jumpi\n      tag_329\n      tag_162\n      jump\t// in\n    tag_329:\n      0x20\n      mul\n      0x20\n      add\n      add\n      mload\n        /* \"contracts/PoolManager.sol\":14672:14734  randomWords[0] % _poolInfoMap[requestInfo.poolId].totalTickets */\n      tag_330\n      swap2\n      swap1\n      tag_331\n      jump\t// in\n    tag_330:\n        /* \"contracts/PoolManager.sol\":14672:14738  randomWords[0] % _poolInfoMap[requestInfo.poolId].totalTickets + 1 */\n      tag_332\n      swap1\n        /* \"contracts/PoolManager.sol\":14737:14738  1 */\n      0x01\n        /* \"contracts/PoolManager.sol\":14672:14738  randomWords[0] % _poolInfoMap[requestInfo.poolId].totalTickets + 1 */\n      tag_188\n      jump\t// in\n    tag_332:\n        /* \"contracts/PoolManager.sol\":14652:14738  uint256 winNumber = randomWords[0] % _poolInfoMap[requestInfo.poolId].totalTickets + 1 */\n      swap1\n      pop\n        /* \"contracts/PoolManager.sol\":14836:14845  winNumber */\n      dup1\n        /* \"contracts/PoolManager.sol\":14748:14760  _poolInfoMap */\n      0x08\n        /* \"contracts/PoolManager.sol\":14748:14780  _poolInfoMap[requestInfo.poolId] */\n      0x00\n        /* \"contracts/PoolManager.sol\":14761:14772  requestInfo */\n      dup5\n        /* \"contracts/PoolManager.sol\":14761:14779  requestInfo.poolId */\n      0x00\n      add\n      mload\n        /* \"contracts/PoolManager.sol\":14748:14780  _poolInfoMap[requestInfo.poolId] */\n      dup2\n      mstore\n      0x20\n      add\n      swap1\n      dup2\n      mstore\n      0x20\n      add\n      0x00\n      keccak256\n        /* \"contracts/PoolManager.sol\":14748:14791  _poolInfoMap[requestInfo.poolId].roundInfos */\n      0x03\n      add\n        /* \"contracts/PoolManager.sol\":14814:14815  1 */\n      0x01\n        /* \"contracts/PoolManager.sol\":14792:14803  requestInfo */\n      dup5\n        /* \"contracts/PoolManager.sol\":14792:14811  requestInfo.roundId */\n      0x20\n      add\n      mload\n        /* \"contracts/PoolManager.sol\":14792:14815  requestInfo.roundId - 1 */\n      tag_333\n      swap2\n      swap1\n      tag_159\n      jump\t// in\n    tag_333:\n        /* \"contracts/PoolManager.sol\":14748:14816  _poolInfoMap[requestInfo.poolId].roundInfos[requestInfo.roundId - 1] */\n      dup2\n      sload\n      dup2\n      lt\n      tag_335\n      jumpi\n      tag_335\n      tag_162\n      jump\t// in\n    tag_335:\n      swap1\n      0x00\n      mstore\n      keccak256(0x00, 0x20)\n      swap1\n      0x04\n      mul\n      add\n        /* \"contracts/PoolManager.sol\":14748:14826  _poolInfoMap[requestInfo.poolId].roundInfos[requestInfo.roundId - 1].winNumber */\n      0x03\n      add\n      0x00\n        /* \"contracts/PoolManager.sol\":14748:14846  _poolInfoMap[requestInfo.poolId].roundInfos[requestInfo.roundId - 1].winNumber = uint32(winNumber) */\n      0x0100\n      exp\n      dup2\n      sload\n      dup2\n      0xffffffff\n      mul\n      not\n      and\n      swap1\n      dup4\n      0xffffffff\n      and\n      mul\n      or\n      swap1\n      sstore\n      pop\n        /* \"contracts/PoolManager.sol\":14492:14853  {... */\n      pop\n      pop\n        /* \"contracts/PoolManager.sol\":14406:14853  function fulfillRandomWords(uint256 requestId, uint256[] memory randomWords) external {... */\n      pop\n      pop\n      jump\t// out\n        /* \"contracts/PoolManager.sol\":4512:5851  function getWonParticipationRecords(address user) public view returns (ParticipationRecord[] memory records, uint256 totalPrizes) {... */\n    tag_107:\n      sub(shl(0xa0, 0x01), 0x01)\n        /* \"contracts/PoolManager.sol\":4694:4725  _userParticipationRecords[user] */\n      dup2\n      and\n        /* \"contracts/PoolManager.sol\":4621:4640  uint256 totalPrizes */\n      0x00\n        /* \"contracts/PoolManager.sol\":4694:4725  _userParticipationRecords[user] */\n      swap1\n      dup2\n      mstore\n        /* \"contracts/PoolManager.sol\":4694:4719  _userParticipationRecords */\n      0x05\n        /* \"contracts/PoolManager.sol\":4694:4725  _userParticipationRecords[user] */\n      0x20\n      swap1\n      dup2\n      mstore\n      0x40\n      dup1\n      dup4\n      keccak256\n        /* \"contracts/PoolManager.sol\":4652:4725  ParticipationRecord[] memory allRecords = _userParticipationRecords[user] */\n      dup1\n      sload\n      dup3\n      mload\n      dup2\n      dup6\n      mul\n      dup2\n      add\n      dup6\n      add\n      swap1\n      swap4\n      mstore\n      dup1\n      dup4\n      mstore\n        /* \"contracts/PoolManager.sol\":4583:4619  ParticipationRecord[] memory records */\n      0x60\n      swap5\n        /* \"contracts/PoolManager.sol\":4621:4640  uint256 totalPrizes */\n      swap4\n      dup5\n      swap4\n        /* \"contracts/PoolManager.sol\":4652:4725  ParticipationRecord[] memory allRecords = _userParticipationRecords[user] */\n      swap3\n        /* \"contracts/PoolManager.sol\":4694:4725  _userParticipationRecords[user] */\n      swap2\n        /* \"contracts/PoolManager.sol\":4652:4725  ParticipationRecord[] memory allRecords = _userParticipationRecords[user] */\n      swap1\n        /* \"contracts/PoolManager.sol\":4621:4640  uint256 totalPrizes */\n      dup5\n      swap1\n        /* \"contracts/PoolManager.sol\":4652:4725  ParticipationRecord[] memory allRecords = _userParticipationRecords[user] */\n      dup5\n      add\n    tag_338:\n      dup3\n      dup3\n      lt\n      iszero\n      tag_339\n      jumpi\n      dup4\n      dup3\n      swap1\n      0x00\n      mstore\n      keccak256(0x00, 0x20)\n      swap1\n      0x05\n      mul\n      add\n      mload(0x40)\n      dup1\n      0xa0\n      add\n      0x40\n      mstore\n      swap1\n      dup2\n      0x00\n      dup3\n      add\n      sload\n      dup2\n      mstore\n      0x20\n      add\n      0x01\n      dup3\n      add\n      sload\n      dup2\n      mstore\n      0x20\n      add\n      0x02\n      dup3\n      add\n      sload\n      dup2\n      mstore\n      0x20\n      add\n      0x03\n      dup3\n      add\n      sload\n      dup2\n      mstore\n      0x20\n      add\n      0x04\n      dup3\n      add\n      dup1\n      sload\n      dup1\n      0x20\n      mul\n      0x20\n      add\n      mload(0x40)\n      swap1\n      dup2\n      add\n      0x40\n      mstore\n      dup1\n      swap3\n      swap2\n      swap1\n      dup2\n      dup2\n      mstore\n      0x20\n      add\n      dup3\n      dup1\n      sload\n      dup1\n      iszero\n      tag_341\n      jumpi\n      0x20\n      mul\n      dup3\n      add\n      swap2\n      swap1\n      0x00\n      mstore\n      keccak256(0x00, 0x20)\n      swap1\n      0x00\n      swap1\n    tag_342:\n      dup3\n      dup3\n      swap1\n      sload\n      swap1\n      0x0100\n      exp\n      swap1\n      div\n      0xffffffff\n      and\n      0xffffffff\n      and\n      dup2\n      mstore\n      0x20\n      add\n      swap1\n      0x04\n      add\n      swap1\n      0x20\n      dup3\n      0x03\n      add\n      div\n      swap3\n      dup4\n      add\n      swap3\n      0x01\n      sub\n      dup3\n      mul\n      swap2\n      pop\n      dup1\n      dup5\n      gt\n      tag_342\n      jumpi\n      swap1\n      pop\n    tag_341:\n      pop\n      pop\n      pop\n      pop\n      pop\n      dup2\n      mstore\n      pop\n      pop\n      dup2\n      mstore\n      0x20\n      add\n      swap1\n      0x01\n      add\n      swap1\n      jump(tag_338)\n    tag_339:\n      pop\n      pop\n      pop\n      pop\n      swap1\n      pop\n        /* \"contracts/PoolManager.sol\":4735:4775  ParticipationRecord[] memory tempRecords */\n      0x00\n        /* \"contracts/PoolManager.sol\":4804:4814  allRecords */\n      dup2\n        /* \"contracts/PoolManager.sol\":4804:4821  allRecords.length */\n      mload\n        /* \"contracts/PoolManager.sol\":4778:4822  new ParticipationRecord[](allRecords.length) */\n      0xffffffffffffffff\n      dup2\n      gt\n      iszero\n      tag_344\n      jumpi\n      tag_344\n      tag_172\n      jump\t// in\n    tag_344:\n      mload(0x40)\n      swap1\n      dup1\n      dup3\n      mstore\n      dup1\n      0x20\n      mul\n      0x20\n      add\n      dup3\n      add\n      0x40\n      mstore\n      dup1\n      iszero\n      tag_345\n      jumpi\n      dup2\n      0x20\n      add\n    tag_346:\n      tag_347\n      tag_301\n      jump\t// in\n    tag_347:\n      dup2\n      mstore\n      0x20\n      add\n      swap1\n      0x01\n      swap1\n      sub\n      swap1\n      dup2\n      tag_346\n      jumpi\n      swap1\n      pop\n    tag_345:\n      pop\n        /* \"contracts/PoolManager.sol\":4735:4822  ParticipationRecord[] memory tempRecords = new ParticipationRecord[](allRecords.length) */\n      swap1\n      pop\n        /* \"contracts/PoolManager.sol\":4832:4850  uint256 realLength */\n      0x00\n      dup1\n        /* \"contracts/PoolManager.sol\":4860:5686  for (uint256 i = 0; i < allRecords.length; i++) {... */\n    tag_348:\n        /* \"contracts/PoolManager.sol\":4884:4894  allRecords */\n      dup4\n        /* \"contracts/PoolManager.sol\":4884:4901  allRecords.length */\n      mload\n        /* \"contracts/PoolManager.sol\":4880:4881  i */\n      dup2\n        /* \"contracts/PoolManager.sol\":4880:4901  i < allRecords.length */\n      lt\n        /* \"contracts/PoolManager.sol\":4860:5686  for (uint256 i = 0; i < allRecords.length; i++) {... */\n      iszero\n      tag_349\n      jumpi\n        /* \"contracts/PoolManager.sol\":4922:4955  ParticipationRecord memory record */\n      0x00\n        /* \"contracts/PoolManager.sol\":4958:4968  allRecords */\n      dup5\n        /* \"contracts/PoolManager.sol\":4969:4970  i */\n      dup3\n        /* \"contracts/PoolManager.sol\":4958:4971  allRecords[i] */\n      dup2\n      mload\n      dup2\n      lt\n      tag_352\n      jumpi\n      tag_352\n      tag_162\n      jump\t// in\n    tag_352:\n      0x20\n      swap1\n      dup2\n      mul\n      swap2\n      swap1\n      swap2\n      add\n      dup2\n      add\n      mload\n        /* \"contracts/PoolManager.sol\":5002:5015  record.poolId */\n      dup1\n      mload\n        /* \"contracts/PoolManager.sol\":5048:5062  record.roundId */\n      dup2\n      dup4\n      add\n      mload\n        /* \"contracts/PoolManager.sol\":4985:4999  bytes32 poolId */\n      0x00\n        /* \"contracts/PoolManager.sol\":5095:5115  _poolInfoMap[poolId] */\n      dup3\n      dup2\n      mstore\n        /* \"contracts/PoolManager.sol\":5095:5107  _poolInfoMap */\n      0x08\n        /* \"contracts/PoolManager.sol\":5095:5115  _poolInfoMap[poolId] */\n      swap1\n      swap5\n      mstore\n      0x40\n      dup5\n      keccak256\n        /* \"contracts/PoolManager.sol\":4958:4971  allRecords[i] */\n      swap3\n      swap5\n      pop\n        /* \"contracts/PoolManager.sol\":5002:5015  record.poolId */\n      swap1\n      swap3\n        /* \"contracts/PoolManager.sol\":5048:5062  record.roundId */\n      swap1\n      swap2\n        /* \"contracts/PoolManager.sol\":5095:5126  _poolInfoMap[poolId].roundInfos */\n      0x03\n      add\n        /* \"contracts/PoolManager.sol\":5127:5138  roundId - 1 */\n      tag_353\n        /* \"contracts/PoolManager.sol\":5137:5138  1 */\n      0x01\n        /* \"contracts/PoolManager.sol\":5048:5062  record.roundId */\n      dup5\n        /* \"contracts/PoolManager.sol\":5127:5138  roundId - 1 */\n      tag_159\n      jump\t// in\n    tag_353:\n        /* \"contracts/PoolManager.sol\":5095:5139  _poolInfoMap[poolId].roundInfos[roundId - 1] */\n      dup2\n      sload\n      dup2\n      lt\n      tag_355\n      jumpi\n      tag_355\n      tag_162\n      jump\t// in\n    tag_355:\n      0x00\n      swap2\n      dup3\n      mstore\n      0x20\n      dup3\n      keccak256\n        /* \"contracts/PoolManager.sol\":5095:5149  _poolInfoMap[poolId].roundInfos[roundId - 1].winNumber */\n      0x03\n        /* \"contracts/PoolManager.sol\":5095:5139  _poolInfoMap[poolId].roundInfos[roundId - 1] */\n      0x04\n      swap1\n      swap3\n      mul\n      add\n        /* \"contracts/PoolManager.sol\":5095:5149  _poolInfoMap[poolId].roundInfos[roundId - 1].winNumber */\n      add\n      sload\n      0xffffffff\n      and\n      swap2\n      pop\n        /* \"contracts/PoolManager.sol\":5163:5663  for (uint256 j = 0; j < record.ticketsCount; j++) {... */\n    tag_357:\n        /* \"contracts/PoolManager.sol\":5187:5193  record */\n      dup5\n        /* \"contracts/PoolManager.sol\":5187:5206  record.ticketsCount */\n      0x60\n      add\n      mload\n        /* \"contracts/PoolManager.sol\":5183:5184  j */\n      dup2\n        /* \"contracts/PoolManager.sol\":5183:5206  j < record.ticketsCount */\n      lt\n        /* \"contracts/PoolManager.sol\":5163:5663  for (uint256 j = 0; j < record.ticketsCount; j++) {... */\n      iszero\n      tag_358\n      jumpi\n        /* \"contracts/PoolManager.sol\":5248:5254  record */\n      dup5\n        /* \"contracts/PoolManager.sol\":5248:5262  record.tickets */\n      0x80\n      add\n      mload\n        /* \"contracts/PoolManager.sol\":5263:5264  j */\n      dup2\n        /* \"contracts/PoolManager.sol\":5248:5265  record.tickets[j] */\n      dup2\n      mload\n      dup2\n      lt\n      tag_361\n      jumpi\n      tag_361\n      tag_162\n      jump\t// in\n    tag_361:\n      0x20\n      mul\n      0x20\n      add\n      add\n      mload\n        /* \"contracts/PoolManager.sol\":5235:5265  winNumber == record.tickets[j] */\n      0xffffffff\n      and\n        /* \"contracts/PoolManager.sol\":5235:5244  winNumber */\n      dup3\n        /* \"contracts/PoolManager.sol\":5235:5265  winNumber == record.tickets[j] */\n      0xffffffff\n      and\n      sub\n        /* \"contracts/PoolManager.sol\":5231:5649  if (winNumber == record.tickets[j]) {... */\n      tag_362\n      jumpi\n        /* \"contracts/PoolManager.sol\":5321:5336  new uint32[](1) */\n      0x40\n      dup1\n      mload\n        /* \"contracts/PoolManager.sol\":5334:5335  1 */\n      0x01\n        /* \"contracts/PoolManager.sol\":5321:5336  new uint32[](1) */\n      dup1\n      dup3\n      mstore\n      dup2\n      dup4\n      add\n      swap1\n      swap3\n      mstore\n        /* \"contracts/PoolManager.sol\":5289:5318  uint32[] memory winningTicket */\n      0x00\n      swap2\n        /* \"contracts/PoolManager.sol\":5321:5336  new uint32[](1) */\n      0x20\n      dup1\n      dup4\n      add\n      swap1\n      dup1\n      calldatasize\n      dup4\n      calldatacopy\n      add\n      swap1\n      pop\n      pop\n        /* \"contracts/PoolManager.sol\":5289:5336  uint32[] memory winningTicket = new uint32[](1) */\n      swap1\n      pop\n        /* \"contracts/PoolManager.sol\":5377:5386  winNumber */\n      dup3\n        /* \"contracts/PoolManager.sol\":5358:5371  winningTicket */\n      dup2\n        /* \"contracts/PoolManager.sol\":5372:5373  0 */\n      0x00\n        /* \"contracts/PoolManager.sol\":5358:5374  winningTicket[0] */\n      dup2\n      mload\n      dup2\n      lt\n      tag_367\n      jumpi\n      tag_367\n      tag_162\n      jump\t// in\n    tag_367:\n      0x20\n      mul\n      0x20\n      add\n      add\n        /* \"contracts/PoolManager.sol\":5358:5386  winningTicket[0] = winNumber */\n      swap1\n      0xffffffff\n      and\n      swap1\n      dup2\n      0xffffffff\n      and\n      dup2\n      mstore\n      pop\n      pop\n        /* \"contracts/PoolManager.sol\":5434:5506  ParticipationRecord(poolId, roundId, record.timestamp, 1, winningTicket) */\n      mload(0x40)\n      dup1\n      0xa0\n      add\n      0x40\n      mstore\n      dup1\n        /* \"contracts/PoolManager.sol\":5454:5460  poolId */\n      dup7\n        /* \"contracts/PoolManager.sol\":5434:5506  ParticipationRecord(poolId, roundId, record.timestamp, 1, winningTicket) */\n      dup2\n      mstore\n      0x20\n      add\n        /* \"contracts/PoolManager.sol\":5462:5469  roundId */\n      dup6\n        /* \"contracts/PoolManager.sol\":5434:5506  ParticipationRecord(poolId, roundId, record.timestamp, 1, winningTicket) */\n      dup2\n      mstore\n      0x20\n      add\n        /* \"contracts/PoolManager.sol\":5471:5477  record */\n      dup8\n        /* \"contracts/PoolManager.sol\":5471:5487  record.timestamp */\n      0x40\n      add\n      mload\n        /* \"contracts/PoolManager.sol\":5434:5506  ParticipationRecord(poolId, roundId, record.timestamp, 1, winningTicket) */\n      dup2\n      mstore\n      0x20\n      add\n        /* \"contracts/PoolManager.sol\":5489:5490  1 */\n      0x01\n        /* \"contracts/PoolManager.sol\":5434:5506  ParticipationRecord(poolId, roundId, record.timestamp, 1, winningTicket) */\n      dup2\n      mstore\n      0x20\n      add\n        /* \"contracts/PoolManager.sol\":5492:5505  winningTicket */\n      dup3\n        /* \"contracts/PoolManager.sol\":5434:5506  ParticipationRecord(poolId, roundId, record.timestamp, 1, winningTicket) */\n      dup2\n      mstore\n      pop\n        /* \"contracts/PoolManager.sol\":5408:5419  tempRecords */\n      dup10\n        /* \"contracts/PoolManager.sol\":5420:5430  realLength */\n      dup10\n        /* \"contracts/PoolManager.sol\":5408:5431  tempRecords[realLength] */\n      dup2\n      mload\n      dup2\n      lt\n      tag_369\n      jumpi\n      tag_369\n      tag_162\n      jump\t// in\n    tag_369:\n      0x20\n      swap1\n      dup2\n      mul\n      swap2\n      swap1\n      swap2\n      add\n      dup2\n      add\n        /* \"contracts/PoolManager.sol\":5408:5506  tempRecords[realLength] = ParticipationRecord(poolId, roundId, record.timestamp, 1, winningTicket) */\n      swap2\n      swap1\n      swap2\n      mstore\n        /* \"contracts/PoolManager.sol\":5543:5563  _poolInfoMap[poolId] */\n      0x00\n      dup7\n      dup2\n      mstore\n        /* \"contracts/PoolManager.sol\":5543:5555  _poolInfoMap */\n      0x08\n        /* \"contracts/PoolManager.sol\":5543:5563  _poolInfoMap[poolId] */\n      swap1\n      swap2\n      mstore\n      0x40\n      swap1\n      keccak256\n        /* \"contracts/PoolManager.sol\":5543:5569  _poolInfoMap[poolId].prize */\n      sload\n        /* \"contracts/PoolManager.sol\":5528:5569  totalPrizes += _poolInfoMap[poolId].prize */\n      tag_370\n      swap1\n      sub(shl(0x80, 0x01), 0x01)\n        /* \"contracts/PoolManager.sol\":5543:5569  _poolInfoMap[poolId].prize */\n      and\n        /* \"contracts/PoolManager.sol\":5528:5569  totalPrizes += _poolInfoMap[poolId].prize */\n      dup13\n      tag_188\n      jump\t// in\n    tag_370:\n      swap11\n      pop\n        /* \"contracts/PoolManager.sol\":5591:5603  realLength++ */\n      dup8\n      tag_371\n      dup2\n      tag_194\n      jump\t// in\n    tag_371:\n      swap9\n      pop\n      pop\n        /* \"contracts/PoolManager.sol\":5625:5630  break */\n      pop\n      jump(tag_358)\n        /* \"contracts/PoolManager.sol\":5231:5649  if (winNumber == record.tickets[j]) {... */\n    tag_362:\n        /* \"contracts/PoolManager.sol\":5208:5211  j++ */\n      dup1\n      tag_372\n      dup2\n      tag_194\n      jump\t// in\n    tag_372:\n      swap2\n      pop\n      pop\n        /* \"contracts/PoolManager.sol\":5163:5663  for (uint256 j = 0; j < record.ticketsCount; j++) {... */\n      jump(tag_357)\n    tag_358:\n      pop\n        /* \"contracts/PoolManager.sol\":4908:5686  {... */\n      pop\n      pop\n      pop\n      pop\n        /* \"contracts/PoolManager.sol\":4903:4906  i++ */\n      dup1\n      dup1\n      tag_373\n      swap1\n      tag_194\n      jump\t// in\n    tag_373:\n      swap2\n      pop\n      pop\n        /* \"contracts/PoolManager.sol\":4860:5686  for (uint256 i = 0; i < allRecords.length; i++) {... */\n      jump(tag_348)\n    tag_349:\n      pop\n        /* \"contracts/PoolManager.sol\":5731:5741  realLength */\n      dup1\n        /* \"contracts/PoolManager.sol\":5705:5742  new ParticipationRecord[](realLength) */\n      0xffffffffffffffff\n      dup2\n      gt\n      iszero\n      tag_375\n      jumpi\n      tag_375\n      tag_172\n      jump\t// in\n    tag_375:\n      mload(0x40)\n      swap1\n      dup1\n      dup3\n      mstore\n      dup1\n      0x20\n      mul\n      0x20\n      add\n      dup3\n      add\n      0x40\n      mstore\n      dup1\n      iszero\n      tag_376\n      jumpi\n      dup2\n      0x20\n      add\n    tag_377:\n      tag_378\n      tag_301\n      jump\t// in\n    tag_378:\n      dup2\n      mstore\n      0x20\n      add\n      swap1\n      0x01\n      swap1\n      sub\n      swap1\n      dup2\n      tag_377\n      jumpi\n      swap1\n      pop\n    tag_376:\n      pop\n        /* \"contracts/PoolManager.sol\":5695:5742  records = new ParticipationRecord[](realLength) */\n      swap5\n      pop\n        /* \"contracts/PoolManager.sol\":5757:5766  uint256 i */\n      0x00\n        /* \"contracts/PoolManager.sol\":5752:5845  for (uint256 i = 0; i < realLength; i++) {... */\n    tag_379:\n        /* \"contracts/PoolManager.sol\":5776:5786  realLength */\n      dup2\n        /* \"contracts/PoolManager.sol\":5772:5773  i */\n      dup2\n        /* \"contracts/PoolManager.sol\":5772:5786  i < realLength */\n      lt\n        /* \"contracts/PoolManager.sol\":5752:5845  for (uint256 i = 0; i < realLength; i++) {... */\n      iszero\n      tag_380\n      jumpi\n        /* \"contracts/PoolManager.sol\":5820:5831  tempRecords */\n      dup3\n        /* \"contracts/PoolManager.sol\":5832:5833  i */\n      dup2\n        /* \"contracts/PoolManager.sol\":5820:5834  tempRecords[i] */\n      dup2\n      mload\n      dup2\n      lt\n      tag_383\n      jumpi\n      tag_383\n      tag_162\n      jump\t// in\n    tag_383:\n      0x20\n      mul\n      0x20\n      add\n      add\n      mload\n        /* \"contracts/PoolManager.sol\":5807:5814  records */\n      dup7\n        /* \"contracts/PoolManager.sol\":5815:5816  i */\n      dup3\n        /* \"contracts/PoolManager.sol\":5807:5817  records[i] */\n      dup2\n      mload\n      dup2\n      lt\n      tag_385\n      jumpi\n      tag_385\n      tag_162\n      jump\t// in\n    tag_385:\n      0x20\n      mul\n      0x20\n      add\n      add\n        /* \"contracts/PoolManager.sol\":5807:5834  records[i] = tempRecords[i] */\n      dup2\n      swap1\n      mstore\n      pop\n        /* \"contracts/PoolManager.sol\":5788:5791  i++ */\n      dup1\n      dup1\n      tag_386\n      swap1\n      tag_194\n      jump\t// in\n    tag_386:\n      swap2\n      pop\n      pop\n        /* \"contracts/PoolManager.sol\":5752:5845  for (uint256 i = 0; i < realLength; i++) {... */\n      jump(tag_379)\n    tag_380:\n      pop\n        /* \"contracts/PoolManager.sol\":4642:5851  {... */\n      pop\n      pop\n      pop\n        /* \"contracts/PoolManager.sol\":4512:5851  function getWonParticipationRecords(address user) public view returns (ParticipationRecord[] memory records, uint256 totalPrizes) {... */\n      swap2\n      pop\n      swap2\n      jump\t// out\n        /* \"@openzeppelin/contracts/access/Ownable.sol\":2293:2394  function renounceOwnership() public virtual onlyOwner {... */\n    tag_111:\n        /* \"@openzeppelin/contracts/access/Ownable.sol\":1531:1544  _checkOwner() */\n      tag_388\n        /* \"@openzeppelin/contracts/access/Ownable.sol\":1531:1542  _checkOwner */\n      tag_389\n        /* \"@openzeppelin/contracts/access/Ownable.sol\":1531:1544  _checkOwner() */\n      jump\t// in\n    tag_388:\n        /* \"@openzeppelin/contracts/access/Ownable.sol\":2357:2387  _transferOwnership(address(0)) */\n      tag_391\n        /* \"@openzeppelin/contracts/access/Ownable.sol\":2384:2385  0 */\n      0x00\n        /* \"@openzeppelin/contracts/access/Ownable.sol\":2357:2375  _transferOwnership */\n      tag_392\n        /* \"@openzeppelin/contracts/access/Ownable.sol\":2357:2387  _transferOwnership(address(0)) */\n      jump\t// in\n    tag_391:\n        /* \"@openzeppelin/contracts/access/Ownable.sol\":2293:2394  function renounceOwnership() public virtual onlyOwner {... */\n      jump\t// out\n        /* \"contracts/PoolManager.sol\":8756:11677  function buyTickets(... */\n    tag_122:\n        /* \"contracts/PoolManager.sol\":8907:8908  0 */\n      0x00\n        /* \"contracts/PoolManager.sol\":8889:8908  tickets.length == 0 */\n      dup2\n      swap1\n      sub\n        /* \"contracts/PoolManager.sol\":8885:8936  if (tickets.length == 0) revert NoTicketSpecified() */\n      tag_394\n      jumpi\n        /* \"contracts/PoolManager.sol\":8917:8936  NoTicketSpecified() */\n      mload(0x40)\n      shl(0xe0, 0x5e7719ff)\n      dup2\n      mstore\n      0x04\n      add\n      mload(0x40)\n      dup1\n      swap2\n      sub\n      swap1\n      revert\n        /* \"contracts/PoolManager.sol\":8885:8936  if (tickets.length == 0) revert NoTicketSpecified() */\n    tag_394:\n        /* \"contracts/PoolManager.sol\":8947:8971  PoolInfo memory poolInfo */\n      0x00\n        /* \"contracts/PoolManager.sol\":8974:8994  _poolInfoMap[poolId] */\n      dup5\n      dup2\n      mstore\n        /* \"contracts/PoolManager.sol\":8974:8986  _poolInfoMap */\n      0x08\n        /* \"contracts/PoolManager.sol\":8974:8994  _poolInfoMap[poolId] */\n      0x20\n      swap1\n      dup2\n      mstore\n      0x40\n      dup1\n      dup4\n      keccak256\n        /* \"contracts/PoolManager.sol\":8947:8994  PoolInfo memory poolInfo = _poolInfoMap[poolId] */\n      dup2\n      mload\n      0xc0\n      dup2\n      add\n      dup4\n      mstore\n      dup2\n      sload\n      sub(shl(0x80, 0x01), 0x01)\n      dup1\n      dup3\n      and\n      dup4\n      mstore\n      shl(0x80, 0x01)\n      swap2\n      dup3\n      swap1\n      div\n      dup2\n      and\n      dup4\n      dup8\n      add\n      mstore\n      0x01\n      dup5\n      add\n      sload\n      dup1\n      dup3\n      and\n      dup5\n      dup8\n      add\n      mstore\n      swap2\n      swap1\n      swap2\n      div\n      dup2\n      and\n      0x60\n      dup4\n      add\n      mstore\n      0x02\n      dup4\n      add\n      sload\n      and\n      0x80\n      dup3\n      add\n      mstore\n      0x03\n      dup3\n      add\n      dup1\n      sload\n      dup5\n      mload\n      dup2\n      dup8\n      mul\n      dup2\n      add\n      dup8\n      add\n      swap1\n      swap6\n      mstore\n      dup1\n      dup6\n      mstore\n      swap2\n      swap5\n        /* \"contracts/PoolManager.sol\":8974:8994  _poolInfoMap[poolId] */\n      swap3\n      swap4\n        /* \"contracts/PoolManager.sol\":8947:8994  PoolInfo memory poolInfo = _poolInfoMap[poolId] */\n      0xa0\n      dup7\n      add\n      swap4\n      swap1\n      swap3\n      swap1\n        /* \"contracts/PoolManager.sol\":8947:8971  PoolInfo memory poolInfo */\n      dup8\n      swap1\n        /* \"contracts/PoolManager.sol\":8947:8994  PoolInfo memory poolInfo = _poolInfoMap[poolId] */\n      dup5\n      add\n    tag_395:\n      dup3\n      dup3\n      lt\n      iszero\n      tag_396\n      jumpi\n      0x00\n      dup5\n      dup2\n      mstore\n      0x20\n      swap1\n      dup2\n      swap1\n      keccak256\n      0x40\n      dup1\n      mload\n      0xc0\n      dup2\n      add\n      dup3\n      mstore\n      0x04\n      dup7\n      mul\n      swap1\n      swap3\n      add\n      dup1\n      sload\n      sub(shl(0x80, 0x01), 0x01)\n      dup1\n      dup3\n      and\n      dup6\n      mstore\n      shl(0x80, 0x01)\n      swap1\n      swap2\n      div\n      dup2\n      and\n      dup5\n      dup7\n      add\n      mstore\n      0x01\n      dup1\n      dup4\n      add\n      sload\n      swap1\n      swap2\n      and\n      swap3\n      dup5\n      add\n      swap3\n      swap1\n      swap3\n      mstore\n      0x02\n      dup2\n      add\n      sload\n      0x60\n      dup5\n      add\n      mstore\n      0x03\n      add\n      sload\n      0xffffffff\n      dup2\n      and\n      0x80\n      dup5\n      add\n      mstore\n      shl(0x20, 0x01)\n      swap1\n      div\n      0xff\n      and\n      iszero\n      iszero\n      0xa0\n      dup4\n      add\n      mstore\n      swap1\n      dup4\n      mstore\n      swap1\n      swap3\n      add\n      swap2\n      add\n      jump(tag_395)\n    tag_396:\n      pop\n      pop\n      pop\n      swap2\n      mstore\n      pop\n      pop\n        /* \"contracts/PoolManager.sol\":9033:9052  poolInfo.roundInfos */\n      0xa0\n      dup2\n      add\n      mload\n        /* \"contracts/PoolManager.sol\":8947:8994  PoolInfo memory poolInfo = _poolInfoMap[poolId] */\n      swap1\n      swap2\n      pop\n        /* \"contracts/PoolManager.sol\":9004:9030  RoundInfo memory roundInfo */\n      0x00\n      swap1\n        /* \"contracts/PoolManager.sol\":9053:9064  roundId - 1 */\n      tag_398\n        /* \"contracts/PoolManager.sol\":9063:9064  1 */\n      0x01\n        /* \"contracts/PoolManager.sol\":9053:9060  roundId */\n      dup8\n        /* \"contracts/PoolManager.sol\":9053:9064  roundId - 1 */\n      tag_159\n      jump\t// in\n    tag_398:\n        /* \"contracts/PoolManager.sol\":9033:9065  poolInfo.roundInfos[roundId - 1] */\n      dup2\n      mload\n      dup2\n      lt\n      tag_400\n      jumpi\n      tag_400\n      tag_162\n      jump\t// in\n    tag_400:\n      0x20\n      mul\n      0x20\n      add\n      add\n      mload\n        /* \"contracts/PoolManager.sol\":9004:9065  RoundInfo memory roundInfo = poolInfo.roundInfos[roundId - 1] */\n      swap1\n      pop\n        /* \"contracts/PoolManager.sol\":9097:9106  roundInfo */\n      dup1\n        /* \"contracts/PoolManager.sol\":9097:9116  roundInfo.startTime */\n      0x00\n      add\n      mload\n      sub(shl(0x80, 0x01), 0x01)\n        /* \"contracts/PoolManager.sol\":9079:9116  block.timestamp < roundInfo.startTime */\n      and\n        /* \"contracts/PoolManager.sol\":9079:9094  block.timestamp */\n      timestamp\n        /* \"contracts/PoolManager.sol\":9079:9116  block.timestamp < roundInfo.startTime */\n      lt\n        /* \"contracts/PoolManager.sol\":9075:9140  if (block.timestamp < roundInfo.startTime) revert RoundNotStart() */\n      iszero\n      tag_401\n      jumpi\n        /* \"contracts/PoolManager.sol\":9125:9140  RoundNotStart() */\n      mload(0x40)\n      shl(0xe2, 0x08970597)\n      dup2\n      mstore\n      0x04\n      add\n      mload(0x40)\n      dup1\n      swap2\n      sub\n      swap1\n      revert\n        /* \"contracts/PoolManager.sol\":9075:9140  if (block.timestamp < roundInfo.startTime) revert RoundNotStart() */\n    tag_401:\n        /* \"contracts/PoolManager.sol\":9173:9182  roundInfo */\n      dup1\n        /* \"contracts/PoolManager.sol\":9173:9190  roundInfo.endTime */\n      0x20\n      add\n      mload\n      sub(shl(0x80, 0x01), 0x01)\n        /* \"contracts/PoolManager.sol\":9154:9190  block.timestamp >= roundInfo.endTime */\n      and\n        /* \"contracts/PoolManager.sol\":9154:9169  block.timestamp */\n      timestamp\n        /* \"contracts/PoolManager.sol\":9154:9190  block.timestamp >= roundInfo.endTime */\n      lt\n        /* \"contracts/PoolManager.sol\":9150:9211  if (block.timestamp >= roundInfo.endTime) revert RoundEnded() */\n      tag_402\n      jumpi\n        /* \"contracts/PoolManager.sol\":9199:9211  RoundEnded() */\n      mload(0x40)\n      shl(0xe0, 0x6b5fd31b)\n      dup2\n      mstore\n      0x04\n      add\n      mload(0x40)\n      dup1\n      swap2\n      sub\n      swap1\n      revert\n        /* \"contracts/PoolManager.sol\":9150:9211  if (block.timestamp >= roundInfo.endTime) revert RoundEnded() */\n    tag_402:\n        /* \"contracts/PoolManager.sol\":9242:9263  roundInfo.leftTickets */\n      0x40\n      dup2\n      add\n      mload\n      sub(shl(0x80, 0x01), 0x01)\n        /* \"contracts/PoolManager.sol\":9225:9263  tickets.length > roundInfo.leftTickets */\n      and\n      dup4\n      gt\n        /* \"contracts/PoolManager.sol\":9221:9294  if (tickets.length > roundInfo.leftTickets) revert NotEnoughTicketsLeft() */\n      iszero\n      tag_403\n      jumpi\n        /* \"contracts/PoolManager.sol\":9272:9294  NotEnoughTicketsLeft() */\n      mload(0x40)\n      shl(0xe2, 0x07ea7fdb)\n      dup2\n      mstore\n      0x04\n      add\n      mload(0x40)\n      dup1\n      swap2\n      sub\n      swap1\n      revert\n        /* \"contracts/PoolManager.sol\":9221:9294  if (tickets.length > roundInfo.leftTickets) revert NotEnoughTicketsLeft() */\n    tag_403:\n        /* \"contracts/PoolManager.sol\":9310:9319  uint256 i */\n      0x00\n        /* \"contracts/PoolManager.sol\":9305:9734  for (uint256 i = 0; i < tickets.length; i++) {... */\n    tag_404:\n        /* \"contracts/PoolManager.sol\":9325:9343  i < tickets.length */\n      dup4\n      dup2\n      lt\n        /* \"contracts/PoolManager.sol\":9305:9734  for (uint256 i = 0; i < tickets.length; i++) {... */\n      iszero\n      tag_405\n      jumpi\n        /* \"contracts/PoolManager.sol\":9368:9375  tickets */\n      dup5\n      dup5\n        /* \"contracts/PoolManager.sol\":9376:9377  i */\n      dup3\n        /* \"contracts/PoolManager.sol\":9368:9378  tickets[i] */\n      dup2\n      dup2\n      lt\n      tag_408\n      jumpi\n      tag_408\n      tag_162\n      jump\t// in\n    tag_408:\n      swap1\n      pop\n      0x20\n      mul\n      add\n      0x20\n      dup2\n      add\n      swap1\n      tag_409\n      swap2\n      swap1\n      tag_410\n      jump\t// in\n    tag_409:\n        /* \"contracts/PoolManager.sol\":9368:9383  tickets[i] == 0 */\n      0xffffffff\n      and\n      iszero\n      dup1\n        /* \"contracts/PoolManager.sol\":9368:9421  tickets[i] == 0 || tickets[i] > poolInfo.totalTickets */\n      tag_411\n      jumpi\n      pop\n        /* \"contracts/PoolManager.sol\":9400:9408  poolInfo */\n      dup3\n        /* \"contracts/PoolManager.sol\":9400:9421  poolInfo.totalTickets */\n      0x20\n      add\n      mload\n      sub(shl(0x80, 0x01), 0x01)\n        /* \"contracts/PoolManager.sol\":9387:9421  tickets[i] > poolInfo.totalTickets */\n      and\n        /* \"contracts/PoolManager.sol\":9387:9394  tickets */\n      dup6\n      dup6\n        /* \"contracts/PoolManager.sol\":9395:9396  i */\n      dup4\n        /* \"contracts/PoolManager.sol\":9387:9397  tickets[i] */\n      dup2\n      dup2\n      lt\n      tag_413\n      jumpi\n      tag_413\n      tag_162\n      jump\t// in\n    tag_413:\n      swap1\n      pop\n      0x20\n      mul\n      add\n      0x20\n      dup2\n      add\n      swap1\n      tag_414\n      swap2\n      swap1\n      tag_410\n      jump\t// in\n    tag_414:\n        /* \"contracts/PoolManager.sol\":9387:9421  tickets[i] > poolInfo.totalTickets */\n      0xffffffff\n      and\n      gt\n        /* \"contracts/PoolManager.sol\":9368:9421  tickets[i] == 0 || tickets[i] > poolInfo.totalTickets */\n    tag_411:\n        /* \"contracts/PoolManager.sol\":9364:9471  if (tickets[i] == 0 || tickets[i] > poolInfo.totalTickets)... */\n      iszero\n      tag_415\n      jumpi\n        /* \"contracts/PoolManager.sol\":9460:9467  tickets */\n      dup5\n      dup5\n        /* \"contracts/PoolManager.sol\":9468:9469  i */\n      dup3\n        /* \"contracts/PoolManager.sol\":9460:9470  tickets[i] */\n      dup2\n      dup2\n      lt\n      tag_417\n      jumpi\n      tag_417\n      tag_162\n      jump\t// in\n    tag_417:\n      swap1\n      pop\n      0x20\n      mul\n      add\n      0x20\n      dup2\n      add\n      swap1\n      tag_418\n      swap2\n      swap1\n      tag_410\n      jump\t// in\n    tag_418:\n        /* \"contracts/PoolManager.sol\":9446:9471  InvalidTicket(tickets[i]) */\n      mload(0x40)\n      shl(0xe1, 0x7c680159)\n      dup2\n      mstore\n        /* \"#utility.yul\":15623:15633   */\n      0xffffffff\n        /* \"#utility.yul\":15611:15634   */\n      swap1\n      swap2\n      and\n        /* \"contracts/PoolManager.sol\":9446:9471  InvalidTicket(tickets[i]) */\n      0x04\n      dup3\n      add\n        /* \"#utility.yul\":15593:15635   */\n      mstore\n        /* \"#utility.yul\":15566:15584   */\n      0x24\n      add\n        /* \"contracts/PoolManager.sol\":9446:9471  InvalidTicket(tickets[i]) */\n    tag_419:\n      mload(0x40)\n      dup1\n      swap2\n      sub\n      swap1\n      revert\n        /* \"contracts/PoolManager.sol\":9364:9471  if (tickets[i] == 0 || tickets[i] > poolInfo.totalTickets)... */\n    tag_415:\n        /* \"contracts/PoolManager.sol\":9544:9545  0 */\n      0x00\n        /* \"contracts/PoolManager.sol\":9489:9511  getTicketOwner[poolId] */\n      dup8\n      dup2\n      mstore\n        /* \"contracts/PoolManager.sol\":9489:9503  getTicketOwner */\n      0x04\n        /* \"contracts/PoolManager.sol\":9489:9511  getTicketOwner[poolId] */\n      0x20\n      swap1\n      dup2\n      mstore\n      0x40\n      dup1\n      dup4\n      keccak256\n        /* \"contracts/PoolManager.sol\":9489:9520  getTicketOwner[poolId][roundId] */\n      dup10\n      dup5\n      mstore\n      swap1\n      swap2\n      mstore\n      dup2\n      keccak256\n        /* \"contracts/PoolManager.sol\":9544:9545  0 */\n      dup2\n        /* \"contracts/PoolManager.sol\":9521:9528  tickets */\n      dup8\n      dup8\n        /* \"contracts/PoolManager.sol\":9529:9530  i */\n      dup6\n        /* \"contracts/PoolManager.sol\":9521:9531  tickets[i] */\n      dup2\n      dup2\n      lt\n      tag_422\n      jumpi\n      tag_422\n      tag_162\n      jump\t// in\n    tag_422:\n      swap1\n      pop\n      0x20\n      mul\n      add\n      0x20\n      dup2\n      add\n      swap1\n      tag_423\n      swap2\n      swap1\n      tag_410\n      jump\t// in\n    tag_423:\n        /* \"contracts/PoolManager.sol\":9489:9532  getTicketOwner[poolId][roundId][tickets[i]] */\n      0xffffffff\n      and\n      dup2\n      mstore\n      0x20\n      dup2\n      add\n      swap2\n      swap1\n      swap2\n      mstore\n      0x40\n      add\n      0x00\n      keccak256\n      sload\n      sub(shl(0xa0, 0x01), 0x01)\n      and\n        /* \"contracts/PoolManager.sol\":9489:9546  getTicketOwner[poolId][roundId][tickets[i]] != address(0) */\n      eq\n        /* \"contracts/PoolManager.sol\":9485:9593  if (getTicketOwner[poolId][roundId][tickets[i]] != address(0))... */\n      tag_424\n      jumpi\n        /* \"contracts/PoolManager.sol\":9582:9589  tickets */\n      dup5\n      dup5\n        /* \"contracts/PoolManager.sol\":9590:9591  i */\n      dup3\n        /* \"contracts/PoolManager.sol\":9582:9592  tickets[i] */\n      dup2\n      dup2\n      lt\n      tag_426\n      jumpi\n      tag_426\n      tag_162\n      jump\t// in\n    tag_426:\n      swap1\n      pop\n      0x20\n      mul\n      add\n      0x20\n      dup2\n      add\n      swap1\n      tag_427\n      swap2\n      swap1\n      tag_410\n      jump\t// in\n    tag_427:\n        /* \"contracts/PoolManager.sol\":9571:9593  TicketSold(tickets[i]) */\n      mload(0x40)\n      shl(0xe1, 0x418055d3)\n      dup2\n      mstore\n        /* \"#utility.yul\":15623:15633   */\n      0xffffffff\n        /* \"#utility.yul\":15611:15634   */\n      swap1\n      swap2\n      and\n        /* \"contracts/PoolManager.sol\":9571:9593  TicketSold(tickets[i]) */\n      0x04\n      dup3\n      add\n        /* \"#utility.yul\":15593:15635   */\n      mstore\n        /* \"#utility.yul\":15566:15584   */\n      0x24\n      add\n        /* \"contracts/PoolManager.sol\":9571:9593  TicketSold(tickets[i]) */\n      tag_419\n        /* \"#utility.yul\":15449:15641   */\n      jump\n        /* \"contracts/PoolManager.sol\":9485:9593  if (getTicketOwner[poolId][roundId][tickets[i]] != address(0))... */\n    tag_424:\n        /* \"contracts/PoolManager.sol\":9607:9629  getTicketOwner[poolId] */\n      0x00\n      dup8\n      dup2\n      mstore\n        /* \"contracts/PoolManager.sol\":9607:9621  getTicketOwner */\n      0x04\n        /* \"contracts/PoolManager.sol\":9607:9629  getTicketOwner[poolId] */\n      0x20\n      swap1\n      dup2\n      mstore\n      0x40\n      dup1\n      dup4\n      keccak256\n        /* \"contracts/PoolManager.sol\":9607:9638  getTicketOwner[poolId][roundId] */\n      dup10\n      dup5\n      mstore\n      swap1\n      swap2\n      mstore\n      dup2\n      keccak256\n        /* \"contracts/PoolManager.sol\":9653:9663  msg.sender */\n      caller\n      swap2\n        /* \"contracts/PoolManager.sol\":9639:9646  tickets */\n      dup8\n      dup8\n        /* \"contracts/PoolManager.sol\":9647:9648  i */\n      dup6\n        /* \"contracts/PoolManager.sol\":9639:9649  tickets[i] */\n      dup2\n      dup2\n      lt\n      tag_430\n      jumpi\n      tag_430\n      tag_162\n      jump\t// in\n    tag_430:\n      swap1\n      pop\n      0x20\n      mul\n      add\n      0x20\n      dup2\n      add\n      swap1\n      tag_431\n      swap2\n      swap1\n      tag_410\n      jump\t// in\n    tag_431:\n        /* \"contracts/PoolManager.sol\":9607:9650  getTicketOwner[poolId][roundId][tickets[i]] */\n      0xffffffff\n      and\n      dup2\n      mstore\n      0x20\n      dup1\n      dup3\n      add\n      swap3\n      swap1\n      swap3\n      mstore\n      0x40\n      swap1\n      dup2\n      add\n      0x00\n      swap1\n      dup2\n      keccak256\n        /* \"contracts/PoolManager.sol\":9607:9663  getTicketOwner[poolId][roundId][tickets[i]] = msg.sender */\n      dup1\n      sload\n      not(sub(shl(0xa0, 0x01), 0x01))\n      and\n      sub(shl(0xa0, 0x01), 0x01)\n      swap6\n      swap1\n      swap6\n      and\n      swap5\n      swap1\n      swap5\n      or\n      swap1\n      swap4\n      sstore\n        /* \"contracts/PoolManager.sol\":9677:9697  _soldTickets[poolId] */\n      dup10\n      dup4\n      mstore\n        /* \"contracts/PoolManager.sol\":9677:9689  _soldTickets */\n      0x06\n        /* \"contracts/PoolManager.sol\":9677:9697  _soldTickets[poolId] */\n      dup3\n      mstore\n      dup1\n      dup4\n      keccak256\n        /* \"contracts/PoolManager.sol\":9677:9706  _soldTickets[poolId][roundId] */\n      dup10\n      dup5\n      mstore\n      swap1\n      swap2\n      mstore\n      swap1\n      keccak256\n        /* \"contracts/PoolManager.sol\":9712:9719  tickets */\n      dup6\n      dup6\n        /* \"contracts/PoolManager.sol\":9720:9721  i */\n      dup4\n        /* \"contracts/PoolManager.sol\":9712:9722  tickets[i] */\n      dup2\n      dup2\n      lt\n      tag_433\n      jumpi\n      tag_433\n      tag_162\n      jump\t// in\n    tag_433:\n      swap1\n      pop\n      0x20\n      mul\n      add\n      0x20\n      dup2\n      add\n      swap1\n      tag_434\n      swap2\n      swap1\n      tag_410\n      jump\t// in\n    tag_434:\n        /* \"contracts/PoolManager.sol\":9677:9723  _soldTickets[poolId][roundId].push(tickets[i]) */\n      dup2\n      sload\n      0x01\n      dup2\n      add\n      dup4\n      sstore\n      0x00\n      swap3\n      dup4\n      mstore\n      0x20\n      swap1\n      swap3\n      keccak256\n      0x08\n      dup4\n      div\n      add\n      dup1\n      sload\n      0x07\n      swap1\n      swap4\n      and\n      0x04\n      mul\n      0x0100\n      exp\n      0xffffffff\n      dup2\n      dup2\n      mul\n      not\n      swap1\n      swap5\n      and\n      swap3\n      swap1\n      swap4\n      and\n      swap3\n      swap1\n      swap3\n      mul\n      or\n      swap1\n      sstore\n        /* \"contracts/PoolManager.sol\":9345:9348  i++ */\n      dup1\n      tag_436\n      dup2\n      tag_194\n      jump\t// in\n    tag_436:\n      swap2\n      pop\n      pop\n        /* \"contracts/PoolManager.sol\":9305:9734  for (uint256 i = 0; i < tickets.length; i++) {... */\n      jump(tag_404)\n    tag_405:\n      pop\n        /* \"contracts/PoolManager.sol\":9744:9769  _userParticipationRecords */\n      0x05\n        /* \"contracts/PoolManager.sol\":9744:9781  _userParticipationRecords[msg.sender] */\n      0x00\n        /* \"contracts/PoolManager.sol\":9770:9780  msg.sender */\n      caller\n      sub(shl(0xa0, 0x01), 0x01)\n        /* \"contracts/PoolManager.sol\":9744:9781  _userParticipationRecords[msg.sender] */\n      and\n      sub(shl(0xa0, 0x01), 0x01)\n      and\n      dup2\n      mstore\n      0x20\n      add\n      swap1\n      dup2\n      mstore\n      0x20\n      add\n      0x00\n      keccak256\n        /* \"contracts/PoolManager.sol\":9787:9988  ParticipationRecord({... */\n      mload(0x40)\n      dup1\n      0xa0\n      add\n      0x40\n      mstore\n      dup1\n        /* \"contracts/PoolManager.sol\":9829:9835  poolId */\n      dup9\n        /* \"contracts/PoolManager.sol\":9787:9988  ParticipationRecord({... */\n      dup2\n      mstore\n      0x20\n      add\n        /* \"contracts/PoolManager.sol\":9858:9865  roundId */\n      dup8\n        /* \"contracts/PoolManager.sol\":9787:9988  ParticipationRecord({... */\n      dup2\n      mstore\n      0x20\n      add\n        /* \"contracts/PoolManager.sol\":9890:9905  block.timestamp */\n      timestamp\n        /* \"contracts/PoolManager.sol\":9787:9988  ParticipationRecord({... */\n      dup2\n      mstore\n      0x20\n      add\n        /* \"contracts/PoolManager.sol\":9933:9940  tickets */\n      dup7\n      dup7\n        /* \"contracts/PoolManager.sol\":9933:9947  tickets.length */\n      swap1\n      pop\n        /* \"contracts/PoolManager.sol\":9787:9988  ParticipationRecord({... */\n      dup2\n      mstore\n      0x20\n      add\n        /* \"contracts/PoolManager.sol\":9970:9977  tickets */\n      dup7\n      dup7\n        /* \"contracts/PoolManager.sol\":9787:9988  ParticipationRecord({... */\n      dup1\n      dup1\n      0x20\n      mul\n      0x20\n      add\n      mload(0x40)\n      swap1\n      dup2\n      add\n      0x40\n      mstore\n      dup1\n      swap4\n      swap3\n      swap2\n      swap1\n      dup2\n      dup2\n      mstore\n      0x20\n      add\n      dup4\n      dup4\n      0x20\n      mul\n      dup1\n      dup3\n      dup5\n      calldatacopy\n      0x00\n      swap3\n      add\n      dup3\n      swap1\n      mstore\n      pop\n      swap4\n      swap1\n      swap5\n      mstore\n      pop\n      pop\n        /* \"contracts/PoolManager.sol\":9744:9989  _userParticipationRecords[msg.sender].push(ParticipationRecord({... */\n      dup4\n      sload\n      0x01\n      dup2\n      dup2\n      add\n      dup7\n      sstore\n      swap5\n      dup3\n      mstore\n      0x20\n      swap2\n      dup3\n      swap1\n      keccak256\n      dup5\n      mload\n      0x05\n      swap1\n      swap3\n      mul\n      add\n      swap1\n      dup2\n      sstore\n      dup2\n      dup5\n      add\n      mload\n      swap5\n      dup2\n      add\n      swap5\n      swap1\n      swap5\n      sstore\n      0x40\n      dup4\n      add\n      mload\n      0x02\n      dup6\n      add\n      sstore\n      0x60\n      dup4\n      add\n      mload\n      0x03\n      dup6\n      add\n      sstore\n      0x80\n      dup4\n      add\n      mload\n      dup1\n      mload\n      swap4\n      swap5\n      swap4\n      tag_438\n      swap4\n      pop\n      0x04\n      dup6\n      add\n      swap3\n      swap2\n      swap1\n      swap2\n      add\n      swap1\n      tag_439\n      jump\t// in\n    tag_438:\n      pop\n      pop\n      pop\n        /* \"contracts/PoolManager.sol\":10045:10068  poolInfo.pricePerTicket */\n      0x40\n      dup3\n      add\n      mload\n        /* \"contracts/PoolManager.sol\":10000:10016  uint128 need2Pay */\n      0x00\n      swap1\n        /* \"contracts/PoolManager.sol\":10019:10068  uint128(tickets.length) * poolInfo.pricePerTicket */\n      tag_440\n      swap1\n        /* \"contracts/PoolManager.sol\":10027:10034  tickets */\n      dup6\n        /* \"contracts/PoolManager.sol\":10019:10068  uint128(tickets.length) * poolInfo.pricePerTicket */\n      tag_441\n      jump\t// in\n    tag_440:\n        /* \"contracts/PoolManager.sol\":10000:10068  uint128 need2Pay = uint128(tickets.length) * poolInfo.pricePerTicket */\n      swap1\n      pop\n        /* \"contracts/PoolManager.sol\":10078:10136  usdt.safeTransferFrom(msg.sender, address(this), need2Pay) */\n      tag_442\n      sub(shl(0xa0, 0x01), 0x01)\n        /* \"contracts/PoolManager.sol\":10078:10082  usdt */\n      immutable(\"0x952803362675801135e2a054978c00aff991471bd59cc252d9b843c8ff1e2daa\")\n        /* \"contracts/PoolManager.sol\":10078:10099  usdt.safeTransferFrom */\n      and\n        /* \"contracts/PoolManager.sol\":10100:10110  msg.sender */\n      caller\n        /* \"contracts/PoolManager.sol\":10120:10124  this */\n      address\n      sub(shl(0x80, 0x01), 0x01)\n        /* \"contracts/PoolManager.sol\":10078:10136  usdt.safeTransferFrom(msg.sender, address(this), need2Pay) */\n      dup6\n      and\n        /* \"contracts/PoolManager.sol\":10078:10099  usdt.safeTransferFrom */\n      tag_443\n        /* \"contracts/PoolManager.sol\":10078:10136  usdt.safeTransferFrom(msg.sender, address(this), need2Pay) */\n      jump\t// in\n    tag_442:\n        /* \"contracts/PoolManager.sol\":10166:10202  userRegistar.getReferrer(msg.sender) */\n      mload(0x40)\n      shl(0xe0, 0x4a9fefc7)\n      dup2\n      mstore\n        /* \"contracts/PoolManager.sol\":10191:10201  msg.sender */\n      caller\n        /* \"contracts/PoolManager.sol\":10166:10202  userRegistar.getReferrer(msg.sender) */\n      0x04\n      dup3\n      add\n        /* \"#utility.yul\":1902:1953   */\n      mstore\n        /* \"contracts/PoolManager.sol\":10147:10163  address referrer */\n      0x00\n      swap1\n        /* \"contracts/PoolManager.sol\":10166:10178  userRegistar */\n      immutable(\"0x0bf130d09ff5f4b6139a92ba375974bc03314776406dd3b463c5d5893e064a66\")\n      sub(shl(0xa0, 0x01), 0x01)\n        /* \"contracts/PoolManager.sol\":10166:10190  userRegistar.getReferrer */\n      and\n      swap1\n      0x4a9fefc7\n      swap1\n        /* \"#utility.yul\":1875:1893   */\n      0x24\n      add\n        /* \"contracts/PoolManager.sol\":10166:10202  userRegistar.getReferrer(msg.sender) */\n      0x20\n      mload(0x40)\n      dup1\n      dup4\n      sub\n      dup2\n      dup7\n      gas\n      staticcall\n      iszero\n      dup1\n      iszero\n      tag_446\n      jumpi\n      returndatasize\n      0x00\n      dup1\n      returndatacopy\n      revert(0x00, returndatasize)\n    tag_446:\n      pop\n      pop\n      pop\n      pop\n      mload(0x40)\n      returndatasize\n      not(0x1f)\n      0x1f\n      dup3\n      add\n      and\n      dup3\n      add\n      dup1\n      0x40\n      mstore\n      pop\n      dup2\n      add\n      swap1\n      tag_447\n      swap2\n      swap1\n      tag_448\n      jump\t// in\n    tag_447:\n        /* \"contracts/PoolManager.sol\":10147:10202  address referrer = userRegistar.getReferrer(msg.sender) */\n      swap1\n      pop\n      sub(shl(0xa0, 0x01), 0x01)\n        /* \"contracts/PoolManager.sol\":10216:10238  referrer != address(0) */\n      dup2\n      and\n      iszero\n        /* \"contracts/PoolManager.sol\":10212:10496  if (referrer != address(0)) {... */\n      tag_449\n      jumpi\n        /* \"contracts/PoolManager.sol\":10254:10276  uint128 referralReward */\n      0x00\n        /* \"contracts/PoolManager.sol\":10299:10310  referralFee */\n      dup1\n      sload\n        /* \"contracts/PoolManager.sol\":565:572  1000000 */\n      0x0f4240\n      swap1\n        /* \"contracts/PoolManager.sol\":10280:10311  need2Pay * uint128(referralFee) */\n      tag_450\n      swap1\n      shl(0xa0, 0x01)\n        /* \"contracts/PoolManager.sol\":10299:10310  referralFee */\n      swap1\n      div\n        /* \"contracts/PoolManager.sol\":10331:10355  uint128(HUNDRED_PERCENT) */\n      0xffffff\n        /* \"contracts/PoolManager.sol\":10299:10310  referralFee */\n      and\n        /* \"contracts/PoolManager.sol\":10280:10288  need2Pay */\n      dup6\n        /* \"contracts/PoolManager.sol\":10280:10311  need2Pay * uint128(referralFee) */\n      tag_441\n      jump\t// in\n    tag_450:\n        /* \"contracts/PoolManager.sol\":10279:10355  (need2Pay * uint128(referralFee)) /... */\n      tag_451\n      swap2\n      swap1\n      tag_452\n      jump\t// in\n    tag_451:\n      sub(shl(0xa0, 0x01), 0x01)\n        /* \"contracts/PoolManager.sol\":10369:10400  referralRewardAccured[referrer] */\n      dup4\n      and\n      0x00\n      swap1\n      dup2\n      mstore\n        /* \"contracts/PoolManager.sol\":10369:10390  referralRewardAccured */\n      0x03\n        /* \"contracts/PoolManager.sol\":10369:10400  referralRewardAccured[referrer] */\n      0x20\n      mstore\n      0x40\n      dup2\n      keccak256\n        /* \"contracts/PoolManager.sol\":10369:10418  referralRewardAccured[referrer] += referralReward */\n      dup1\n      sload\n        /* \"contracts/PoolManager.sol\":10254:10355  uint128 referralReward = (need2Pay * uint128(referralFee)) /... */\n      swap3\n      swap4\n      pop\n      sub(shl(0x80, 0x01), 0x01)\n        /* \"contracts/PoolManager.sol\":10369:10418  referralRewardAccured[referrer] += referralReward */\n      dup5\n      and\n      swap3\n        /* \"contracts/PoolManager.sol\":10369:10400  referralRewardAccured[referrer] */\n      swap1\n      swap2\n      swap1\n        /* \"contracts/PoolManager.sol\":10369:10418  referralRewardAccured[referrer] += referralReward */\n      tag_453\n      swap1\n      dup5\n      swap1\n      tag_188\n      jump\t// in\n    tag_453:\n      swap1\n      swap2\n      sstore\n      pop\n      pop\n      sub(shl(0xa0, 0x01), 0x01)\n        /* \"contracts/PoolManager.sol\":10432:10467  referralRewardAccumulated[referrer] */\n      dup3\n      and\n      0x00\n      swap1\n      dup2\n      mstore\n        /* \"contracts/PoolManager.sol\":10432:10457  referralRewardAccumulated */\n      0x02\n        /* \"contracts/PoolManager.sol\":10432:10467  referralRewardAccumulated[referrer] */\n      0x20\n      mstore\n      0x40\n      dup2\n      keccak256\n        /* \"contracts/PoolManager.sol\":10432:10485  referralRewardAccumulated[referrer] += referralReward */\n      dup1\n      sload\n      sub(shl(0x80, 0x01), 0x01)\n      dup5\n      and\n      swap3\n        /* \"contracts/PoolManager.sol\":10432:10467  referralRewardAccumulated[referrer] */\n      swap1\n        /* \"contracts/PoolManager.sol\":10432:10485  referralRewardAccumulated[referrer] += referralReward */\n      tag_454\n      swap1\n      dup5\n      swap1\n      tag_188\n      jump\t// in\n    tag_454:\n      swap1\n      swap2\n      sstore\n      pop\n      pop\n      pop\n        /* \"contracts/PoolManager.sol\":10212:10496  if (referrer != address(0)) {... */\n    tag_449:\n        /* \"contracts/PoolManager.sol\":10506:10527  roundInfo.leftTickets */\n      0x40\n      dup4\n      add\n        /* \"contracts/PoolManager.sol\":10506:10554  roundInfo.leftTickets -= uint128(tickets.length) */\n      dup1\n      mload\n        /* \"contracts/PoolManager.sol\":10539:10546  tickets */\n      dup7\n      swap2\n        /* \"contracts/PoolManager.sol\":10506:10527  roundInfo.leftTickets */\n      swap1\n        /* \"contracts/PoolManager.sol\":10506:10554  roundInfo.leftTickets -= uint128(tickets.length) */\n      tag_455\n      swap1\n        /* \"contracts/PoolManager.sol\":10539:10546  tickets */\n      dup4\n      swap1\n        /* \"contracts/PoolManager.sol\":10506:10554  roundInfo.leftTickets -= uint128(tickets.length) */\n      tag_456\n      jump\t// in\n    tag_455:\n      sub(shl(0x80, 0x01), 0x01)\n      and\n      swap1\n      mstore\n      pop\n        /* \"contracts/PoolManager.sol\":10570:10619  TicketsSold(msg.sender, poolId, roundId, tickets) */\n      mload(0x40)\n        /* \"contracts/PoolManager.sol\":10582:10592  msg.sender */\n      caller\n      swap1\n        /* \"contracts/PoolManager.sol\":10570:10619  TicketsSold(msg.sender, poolId, roundId, tickets) */\n      0xf0523de2f627f3c0bef4480ae1fdc6922de2aff9254c3f2df3fcaf121d5470bb\n      swap1\n      tag_457\n      swap1\n        /* \"contracts/PoolManager.sol\":10594:10600  poolId */\n      dup12\n      swap1\n        /* \"contracts/PoolManager.sol\":10602:10609  roundId */\n      dup12\n      swap1\n        /* \"contracts/PoolManager.sol\":10611:10618  tickets */\n      dup12\n      swap1\n      dup12\n      swap1\n        /* \"contracts/PoolManager.sol\":10570:10619  TicketsSold(msg.sender, poolId, roundId, tickets) */\n      tag_458\n      jump\t// in\n    tag_457:\n      mload(0x40)\n      dup1\n      swap2\n      sub\n      swap1\n      log2\n        /* \"contracts/PoolManager.sol\":10634:10643  roundInfo */\n      dup3\n        /* \"contracts/PoolManager.sol\":10634:10655  roundInfo.leftTickets */\n      0x40\n      add\n      mload\n      sub(shl(0x80, 0x01), 0x01)\n        /* \"contracts/PoolManager.sol\":10634:10660  roundInfo.leftTickets == 0 */\n      and\n        /* \"contracts/PoolManager.sol\":10659:10660  0 */\n      0x00\n        /* \"contracts/PoolManager.sol\":10634:10660  roundInfo.leftTickets == 0 */\n      sub\n        /* \"contracts/PoolManager.sol\":10630:11604  if (roundInfo.leftTickets == 0) {... */\n      tag_459\n      jumpi\n        /* \"contracts/PoolManager.sol\":10696:10707  vrfConsumer */\n      sload(0x01)\n        /* \"contracts/PoolManager.sol\":10696:10728  vrfConsumer.requestRandomWords() */\n      0x40\n      dup1\n      mload\n      shl(0xe0, 0xe0c86289)\n      dup2\n      mstore\n      swap1\n      mload\n        /* \"contracts/PoolManager.sol\":10676:10693  uint256 requestId */\n      0x00\n      swap3\n      sub(shl(0xa0, 0x01), 0x01)\n        /* \"contracts/PoolManager.sol\":10696:10707  vrfConsumer */\n      and\n      swap2\n        /* \"contracts/PoolManager.sol\":10696:10726  vrfConsumer.requestRandomWords */\n      0xe0c86289\n      swap2\n        /* \"contracts/PoolManager.sol\":10696:10728  vrfConsumer.requestRandomWords() */\n      0x04\n      dup1\n      dup4\n      add\n      swap3\n      0x20\n      swap3\n      swap2\n      swap1\n      dup3\n      swap1\n      sub\n      add\n      dup2\n        /* \"contracts/PoolManager.sol\":10676:10693  uint256 requestId */\n      dup8\n        /* \"contracts/PoolManager.sol\":10696:10707  vrfConsumer */\n      dup8\n        /* \"contracts/PoolManager.sol\":10696:10728  vrfConsumer.requestRandomWords() */\n      gas\n      call\n      iszero\n      dup1\n      iszero\n      tag_461\n      jumpi\n      returndatasize\n      0x00\n      dup1\n      returndatacopy\n      revert(0x00, returndatasize)\n    tag_461:\n      pop\n      pop\n      pop\n      pop\n      mload(0x40)\n      returndatasize\n      not(0x1f)\n      0x1f\n      dup3\n      add\n      and\n      dup3\n      add\n      dup1\n      0x40\n      mstore\n      pop\n      dup2\n      add\n      swap1\n      tag_462\n      swap2\n      swap1\n      tag_279\n      jump\t// in\n    tag_462:\n        /* \"contracts/PoolManager.sol\":10774:10805  VRFRequestInfo(poolId, roundId) */\n      0x40\n      dup1\n      mload\n      dup1\n      dup3\n      add\n      dup3\n      mstore\n      dup12\n      dup2\n      mstore\n      0x20\n      dup1\n      dup3\n      add\n      dup13\n      dup2\n      mstore\n      0x00\n        /* \"contracts/PoolManager.sol\":10742:10771  _vrfRequestInfoMap[requestId] */\n      dup6\n      dup2\n      mstore\n        /* \"contracts/PoolManager.sol\":10742:10760  _vrfRequestInfoMap */\n      0x07\n        /* \"contracts/PoolManager.sol\":10742:10771  _vrfRequestInfoMap[requestId] */\n      dup4\n      mstore\n      swap4\n      dup5\n      keccak256\n        /* \"contracts/PoolManager.sol\":10742:10805  _vrfRequestInfoMap[requestId] = VRFRequestInfo(poolId, roundId) */\n      swap3\n      mload\n      dup4\n      sstore\n      mload\n      0x01\n      swap1\n      swap3\n      add\n      swap2\n      swap1\n      swap2\n      sstore\n        /* \"contracts/PoolManager.sol\":10819:10841  roundInfo.vrfRequestId */\n      0x60\n      dup8\n      add\n        /* \"contracts/PoolManager.sol\":10819:10853  roundInfo.vrfRequestId = requestId */\n      dup4\n      swap1\n      mstore\n        /* \"contracts/PoolManager.sol\":10895:10910  block.timestamp */\n      timestamp\n      sub(shl(0x80, 0x01), 0x01)\n        /* \"contracts/PoolManager.sol\":10867:10911  roundInfo.endTime = uint128(block.timestamp) */\n      dup2\n      and\n        /* \"contracts/PoolManager.sol\":10867:10884  roundInfo.endTime */\n      swap2\n      dup9\n      add\n        /* \"contracts/PoolManager.sol\":10867:10911  roundInfo.endTime = uint128(block.timestamp) */\n      swap2\n      swap1\n      swap2\n      mstore\n        /* \"contracts/PoolManager.sol\":10977:10998  poolInfo.roundGapTime */\n      0x80\n      dup9\n      add\n      mload\n        /* \"contracts/PoolManager.sol\":10742:10771  _vrfRequestInfoMap[requestId] */\n      swap3\n      swap4\n      pop\n      swap1\n      swap2\n        /* \"contracts/PoolManager.sol\":10950:10998  uint128(block.timestamp) + poolInfo.roundGapTime */\n      tag_463\n      swap2\n      tag_285\n      jump\t// in\n    tag_463:\n        /* \"contracts/PoolManager.sol\":10926:10998  uint128 nextStartTime = uint128(block.timestamp) + poolInfo.roundGapTime */\n      swap1\n      pop\n        /* \"contracts/PoolManager.sol\":11012:11031  uint128 nextEndTime */\n      0x00\n        /* \"contracts/PoolManager.sol\":11050:11058  poolInfo */\n      dup7\n        /* \"contracts/PoolManager.sol\":11050:11072  poolInfo.roundDuration */\n      0x60\n      add\n      mload\n        /* \"contracts/PoolManager.sol\":11034:11047  nextStartTime */\n      dup3\n        /* \"contracts/PoolManager.sol\":11034:11072  nextStartTime + poolInfo.roundDuration */\n      tag_464\n      swap2\n      swap1\n      tag_285\n      jump\t// in\n    tag_464:\n        /* \"contracts/PoolManager.sol\":11012:11072  uint128 nextEndTime = nextStartTime + poolInfo.roundDuration */\n      swap1\n      pop\n        /* \"contracts/PoolManager.sol\":11086:11116  RoundInfo memory nextRoundInfo */\n      0x00\n        /* \"contracts/PoolManager.sol\":11119:11373  RoundInfo({... */\n      mload(0x40)\n      dup1\n      0xc0\n      add\n      0x40\n      mstore\n      dup1\n        /* \"contracts/PoolManager.sol\":11158:11171  nextStartTime */\n      dup5\n      sub(shl(0x80, 0x01), 0x01)\n        /* \"contracts/PoolManager.sol\":11119:11373  RoundInfo({... */\n      and\n      dup2\n      mstore\n      0x20\n      add\n        /* \"contracts/PoolManager.sol\":11198:11209  nextEndTime */\n      dup4\n      sub(shl(0x80, 0x01), 0x01)\n        /* \"contracts/PoolManager.sol\":11119:11373  RoundInfo({... */\n      and\n      dup2\n      mstore\n      0x20\n      add\n        /* \"contracts/PoolManager.sol\":11240:11248  poolInfo */\n      dup10\n        /* \"contracts/PoolManager.sol\":11240:11261  poolInfo.totalTickets */\n      0x20\n      add\n      mload\n      sub(shl(0x80, 0x01), 0x01)\n        /* \"contracts/PoolManager.sol\":11119:11373  RoundInfo({... */\n      and\n      dup2\n      mstore\n      0x20\n      add\n        /* \"contracts/PoolManager.sol\":11293:11294  0 */\n      0x00\n        /* \"contracts/PoolManager.sol\":11119:11373  RoundInfo({... */\n      dup2\n      mstore\n      0x20\n      add\n        /* \"contracts/PoolManager.sol\":11323:11324  0 */\n      0x00\n        /* \"contracts/PoolManager.sol\":11119:11373  RoundInfo({... */\n      0xffffffff\n      and\n      dup2\n      mstore\n      0x20\n      add\n        /* \"contracts/PoolManager.sol\":11353:11358  false */\n      0x00\n        /* \"contracts/PoolManager.sol\":11119:11373  RoundInfo({... */\n      iszero\n      iszero\n      dup2\n      mstore\n      pop\n        /* \"contracts/PoolManager.sol\":11086:11373  RoundInfo memory nextRoundInfo = RoundInfo({... */\n      swap1\n      pop\n        /* \"contracts/PoolManager.sol\":11387:11399  _poolInfoMap */\n      0x08\n        /* \"contracts/PoolManager.sol\":11387:11407  _poolInfoMap[poolId] */\n      0x00\n        /* \"contracts/PoolManager.sol\":11400:11406  poolId */\n      dup14\n        /* \"contracts/PoolManager.sol\":11387:11407  _poolInfoMap[poolId] */\n      dup2\n      mstore\n      0x20\n      add\n      swap1\n      dup2\n      mstore\n      0x20\n      add\n      0x00\n      keccak256\n        /* \"contracts/PoolManager.sol\":11387:11418  _poolInfoMap[poolId].roundInfos */\n      0x03\n      add\n        /* \"contracts/PoolManager.sol\":11424:11437  nextRoundInfo */\n      dup2\n        /* \"contracts/PoolManager.sol\":11387:11438  _poolInfoMap[poolId].roundInfos.push(nextRoundInfo) */\n      swap1\n      dup1\n      0x01\n      dup2\n      sload\n      add\n      dup1\n      dup3\n      sstore\n      dup1\n      swap2\n      pop\n      pop\n      0x01\n      swap1\n      sub\n      swap1\n      0x00\n      mstore\n      keccak256(0x00, 0x20)\n      swap1\n      0x04\n      mul\n      add\n      0x00\n      swap1\n      swap2\n      swap1\n      swap2\n      swap1\n      swap2\n      pop\n      0x00\n      dup3\n      add\n      mload\n      dup2\n      0x00\n      add\n      exp(0x0100, 0x00)\n      dup2\n      sload\n      dup2\n      sub(shl(0x80, 0x01), 0x01)\n      mul\n      not\n      and\n      swap1\n      dup4\n      sub(shl(0x80, 0x01), 0x01)\n      and\n      mul\n      or\n      swap1\n      sstore\n      pop\n      0x20\n      dup3\n      add\n      mload\n      dup2\n      0x00\n      add\n      exp(0x0100, 0x10)\n      dup2\n      sload\n      dup2\n      sub(shl(0x80, 0x01), 0x01)\n      mul\n      not\n      and\n      swap1\n      dup4\n      sub(shl(0x80, 0x01), 0x01)\n      and\n      mul\n      or\n      swap1\n      sstore\n      pop\n      0x40\n      dup3\n      add\n      mload\n      dup2\n      0x01\n      add\n      exp(0x0100, 0x00)\n      dup2\n      sload\n      dup2\n      sub(shl(0x80, 0x01), 0x01)\n      mul\n      not\n      and\n      swap1\n      dup4\n      sub(shl(0x80, 0x01), 0x01)\n      and\n      mul\n      or\n      swap1\n      sstore\n      pop\n      0x60\n      dup3\n      add\n      mload\n      dup2\n      0x02\n      add\n      sstore\n      0x80\n      dup3\n      add\n      mload\n      dup2\n      0x03\n      add\n      exp(0x0100, 0x00)\n      dup2\n      sload\n      dup2\n      0xffffffff\n      mul\n      not\n      and\n      swap1\n      dup4\n      0xffffffff\n      and\n      mul\n      or\n      swap1\n      sstore\n      pop\n      0xa0\n      dup3\n      add\n      mload\n      dup2\n      0x03\n      add\n      exp(0x0100, 0x04)\n      dup2\n      sload\n      dup2\n      0xff\n      mul\n      not\n      and\n      swap1\n      dup4\n      iszero\n      iszero\n      mul\n      or\n      swap1\n      sstore\n      pop\n      pop\n      pop\n        /* \"contracts/PoolManager.sol\":11452:11470  uint256 newRoundId */\n      0x00\n        /* \"contracts/PoolManager.sol\":11473:11485  _poolInfoMap */\n      0x08\n        /* \"contracts/PoolManager.sol\":11473:11493  _poolInfoMap[poolId] */\n      0x00\n        /* \"contracts/PoolManager.sol\":11486:11492  poolId */\n      dup15\n        /* \"contracts/PoolManager.sol\":11473:11493  _poolInfoMap[poolId] */\n      dup2\n      mstore\n      0x20\n      add\n      swap1\n      dup2\n      mstore\n      0x20\n      add\n      0x00\n      keccak256\n        /* \"contracts/PoolManager.sol\":11473:11504  _poolInfoMap[poolId].roundInfos */\n      0x03\n      add\n        /* \"contracts/PoolManager.sol\":11473:11511  _poolInfoMap[poolId].roundInfos.length */\n      dup1\n      sload\n      swap1\n      pop\n        /* \"contracts/PoolManager.sol\":11452:11511  uint256 newRoundId = _poolInfoMap[poolId].roundInfos.length */\n      swap1\n      pop\n        /* \"contracts/PoolManager.sol\":11531:11593  NewRoundOpened(poolId, newRoundId, nextStartTime, nextEndTime) */\n      0x9b4e1f1b6df74eff26420e77ce7891d410b236932a083b7c18d599fbd654a8c7\n        /* \"contracts/PoolManager.sol\":11546:11552  poolId */\n      dup14\n        /* \"contracts/PoolManager.sol\":11554:11564  newRoundId */\n      dup3\n        /* \"contracts/PoolManager.sol\":11566:11579  nextStartTime */\n      dup7\n        /* \"contracts/PoolManager.sol\":11581:11592  nextEndTime */\n      dup7\n        /* \"contracts/PoolManager.sol\":11531:11593  NewRoundOpened(poolId, newRoundId, nextStartTime, nextEndTime) */\n      mload(0x40)\n      tag_466\n      swap5\n      swap4\n      swap3\n      swap2\n      swap1\n        /* \"#utility.yul\":14775:14800   */\n      swap4\n      dup5\n      mstore\n        /* \"#utility.yul\":14831:14833   */\n      0x20\n        /* \"#utility.yul\":14816:14834   */\n      dup5\n      add\n        /* \"#utility.yul\":14809:14843   */\n      swap3\n      swap1\n      swap3\n      mstore\n      sub(shl(0x80, 0x01), 0x01)\n        /* \"#utility.yul\":14932:14947   */\n      swap1\n      dup2\n      and\n        /* \"#utility.yul\":14927:14929   */\n      0x40\n        /* \"#utility.yul\":14912:14930   */\n      dup5\n      add\n        /* \"#utility.yul\":14905:14948   */\n      mstore\n        /* \"#utility.yul\":14984:14999   */\n      and\n        /* \"#utility.yul\":14979:14981   */\n      0x60\n        /* \"#utility.yul\":14964:14982   */\n      dup3\n      add\n        /* \"#utility.yul\":14957:15000   */\n      mstore\n        /* \"#utility.yul\":14762:14765   */\n      0x80\n        /* \"#utility.yul\":14747:14766   */\n      add\n      swap1\n        /* \"#utility.yul\":14544:15006   */\n      jump\n        /* \"contracts/PoolManager.sol\":11531:11593  NewRoundOpened(poolId, newRoundId, nextStartTime, nextEndTime) */\n    tag_466:\n      mload(0x40)\n      dup1\n      swap2\n      sub\n      swap1\n      log1\n        /* \"contracts/PoolManager.sol\":10662:11604  {... */\n      pop\n      pop\n      pop\n      pop\n      pop\n        /* \"contracts/PoolManager.sol\":10630:11604  if (roundInfo.leftTickets == 0) {... */\n    tag_459:\n        /* \"contracts/PoolManager.sol\":11614:11634  _poolInfoMap[poolId] */\n      0x00\n      dup9\n      dup2\n      mstore\n        /* \"contracts/PoolManager.sol\":11614:11626  _poolInfoMap */\n      0x08\n        /* \"contracts/PoolManager.sol\":11614:11634  _poolInfoMap[poolId] */\n      0x20\n      mstore\n      0x40\n      swap1\n      keccak256\n        /* \"contracts/PoolManager.sol\":11661:11670  roundInfo */\n      dup4\n      swap1\n        /* \"contracts/PoolManager.sol\":11614:11645  _poolInfoMap[poolId].roundInfos */\n      0x03\n      add\n        /* \"contracts/PoolManager.sol\":11646:11657  roundId - 1 */\n      tag_467\n        /* \"contracts/PoolManager.sol\":11656:11657  1 */\n      0x01\n        /* \"contracts/PoolManager.sol\":11646:11653  roundId */\n      dup11\n        /* \"contracts/PoolManager.sol\":11646:11657  roundId - 1 */\n      tag_159\n      jump\t// in\n    tag_467:\n        /* \"contracts/PoolManager.sol\":11614:11658  _poolInfoMap[poolId].roundInfos[roundId - 1] */\n      dup2\n      sload\n      dup2\n      lt\n      tag_469\n      jumpi\n      tag_469\n      tag_162\n      jump\t// in\n    tag_469:\n      0x00\n      swap2\n      dup3\n      mstore\n      0x20\n      swap2\n      dup3\n      swap1\n      keccak256\n        /* \"contracts/PoolManager.sol\":11614:11670  _poolInfoMap[poolId].roundInfos[roundId - 1] = roundInfo */\n      dup4\n      mload\n      swap3\n      dup5\n      add\n      mload\n      sub(shl(0x80, 0x01), 0x01)\n      swap4\n      dup5\n      and\n      shl(0x80, 0x01)\n      swap2\n      dup6\n      and\n      swap2\n      swap1\n      swap2\n      mul\n      or\n        /* \"contracts/PoolManager.sol\":11614:11658  _poolInfoMap[poolId].roundInfos[roundId - 1] */\n      0x04\n      swap3\n      swap1\n      swap3\n      mul\n      add\n        /* \"contracts/PoolManager.sol\":11614:11670  _poolInfoMap[poolId].roundInfos[roundId - 1] = roundInfo */\n      swap1\n      dup2\n      sstore\n      0x40\n      dup4\n      add\n      mload\n      0x01\n      dup3\n      add\n      dup1\n      sload\n      not(sub(shl(0x80, 0x01), 0x01))\n      and\n      swap2\n      swap1\n      swap4\n      and\n      or\n      swap1\n      swap2\n      sstore\n      0x60\n      dup3\n      add\n      mload\n      0x02\n      dup3\n      add\n      sstore\n      0x80\n      dup3\n      add\n      mload\n      0x03\n      swap1\n      swap2\n      add\n      dup1\n      sload\n      0xa0\n      swap1\n      swap4\n      add\n      mload\n      0xffffffff\n      swap1\n      swap3\n      and\n      not(0xffffffffff)\n      swap1\n      swap4\n      and\n      swap3\n      swap1\n      swap3\n      or\n      shl(0x20, 0x01)\n      swap2\n      iszero\n      iszero\n      swap2\n      swap1\n      swap2\n      mul\n      or\n      swap1\n      sstore\n      pop\n      pop\n      pop\n      pop\n      pop\n      pop\n      pop\n      pop\n        /* \"contracts/PoolManager.sol\":8756:11677  function buyTickets(... */\n      jump\t// out\n        /* \"contracts/PoolManager.sol\":7018:8750  function createPool(... */\n    tag_129:\n        /* \"contracts/PoolManager.sol\":7246:7260  bytes32 poolId */\n      0x00\n        /* \"@openzeppelin/contracts/access/Ownable.sol\":1531:1544  _checkOwner() */\n      tag_473\n        /* \"@openzeppelin/contracts/access/Ownable.sol\":1531:1542  _checkOwner */\n      tag_389\n        /* \"@openzeppelin/contracts/access/Ownable.sol\":1531:1544  _checkOwner() */\n      jump\t// in\n    tag_473:\n        /* \"contracts/PoolManager.sol\":7276:7291  totalTicketsExp */\n      dup7\n        /* \"contracts/PoolManager.sol\":7276:7296  totalTicketsExp == 0 */\n      0xff\n      and\n        /* \"contracts/PoolManager.sol\":7295:7296  0 */\n      0x00\n        /* \"contracts/PoolManager.sol\":7276:7296  totalTicketsExp == 0 */\n      sub\n        /* \"contracts/PoolManager.sol\":7272:7321  if (totalTicketsExp == 0) revert ZeroTicketsExp() */\n      tag_475\n      jumpi\n        /* \"contracts/PoolManager.sol\":7305:7321  ZeroTicketsExp() */\n      mload(0x40)\n      shl(0xe0, 0xbb90937d)\n      dup2\n      mstore\n      0x04\n      add\n      mload(0x40)\n      dup1\n      swap2\n      sub\n      swap1\n      revert\n        /* \"contracts/PoolManager.sol\":7272:7321  if (totalTicketsExp == 0) revert ZeroTicketsExp() */\n    tag_475:\n        /* \"contracts/PoolManager.sol\":7335:7340  prize */\n      dup6\n      sub(shl(0x80, 0x01), 0x01)\n        /* \"contracts/PoolManager.sol\":7335:7345  prize == 0 */\n      and\n        /* \"contracts/PoolManager.sol\":7344:7345  0 */\n      0x00\n        /* \"contracts/PoolManager.sol\":7335:7345  prize == 0 */\n      sub\n        /* \"contracts/PoolManager.sol\":7331:7365  if (prize == 0) revert ZeroPrize() */\n      tag_476\n      jumpi\n        /* \"contracts/PoolManager.sol\":7354:7365  ZeroPrize() */\n      mload(0x40)\n      shl(0xe0, 0x7eac88d9)\n      dup2\n      mstore\n      0x04\n      add\n      mload(0x40)\n      dup1\n      swap2\n      sub\n      swap1\n      revert\n        /* \"contracts/PoolManager.sol\":7331:7365  if (prize == 0) revert ZeroPrize() */\n    tag_476:\n        /* \"contracts/PoolManager.sol\":7379:7392  roundDuration */\n      dup4\n      sub(shl(0x80, 0x01), 0x01)\n        /* \"contracts/PoolManager.sol\":7379:7397  roundDuration == 0 */\n      and\n        /* \"contracts/PoolManager.sol\":7396:7397  0 */\n      0x00\n        /* \"contracts/PoolManager.sol\":7379:7397  roundDuration == 0 */\n      sub\n        /* \"contracts/PoolManager.sol\":7375:7425  if (roundDuration == 0) revert ZeroRoundDuration() */\n      tag_477\n      jumpi\n        /* \"contracts/PoolManager.sol\":7406:7425  ZeroRoundDuration() */\n      mload(0x40)\n      shl(0xe0, 0x06f66257)\n      dup2\n      mstore\n      0x04\n      add\n      mload(0x40)\n      dup1\n      swap2\n      sub\n      swap1\n      revert\n        /* \"contracts/PoolManager.sol\":7375:7425  if (roundDuration == 0) revert ZeroRoundDuration() */\n    tag_477:\n        /* \"contracts/PoolManager.sol\":7451:7466  block.timestamp */\n      timestamp\n        /* \"contracts/PoolManager.sol\":7439:7448  startTime */\n      dup3\n      sub(shl(0x80, 0x01), 0x01)\n        /* \"contracts/PoolManager.sol\":7439:7466  startTime < block.timestamp */\n      and\n      lt\n        /* \"contracts/PoolManager.sol\":7435:7493  if (startTime < block.timestamp) revert InvalidStartTime() */\n      iszero\n      tag_478\n      jumpi\n        /* \"contracts/PoolManager.sol\":7475:7493  InvalidStartTime() */\n      mload(0x40)\n      shl(0xe2, 0x2ca4094f)\n      dup2\n      mstore\n      0x04\n      add\n      mload(0x40)\n      dup1\n      swap2\n      sub\n      swap1\n      revert\n        /* \"contracts/PoolManager.sol\":7435:7493  if (startTime < block.timestamp) revert InvalidStartTime() */\n    tag_478:\n        /* \"contracts/PoolManager.sol\":7504:7524  uint128 totalTickets */\n      0x00\n        /* \"contracts/PoolManager.sol\":7535:7556  10 ** totalTicketsExp */\n      tag_479\n        /* \"contracts/PoolManager.sol\":7541:7556  totalTicketsExp */\n      dup9\n        /* \"contracts/PoolManager.sol\":7535:7537  10 */\n      0x0a\n        /* \"contracts/PoolManager.sol\":7535:7556  10 ** totalTicketsExp */\n      tag_480\n      jump\t// in\n    tag_479:\n        /* \"contracts/PoolManager.sol\":7599:7769  abi.encode(... */\n      0x40\n      dup1\n      mload\n      sub(shl(0x80, 0x01), 0x01)\n        /* \"#utility.yul\":19092:19107   */\n      dup1\n      dup12\n      and\n        /* \"contracts/PoolManager.sol\":7599:7769  abi.encode(... */\n      0x20\n      dup4\n      add\n        /* \"#utility.yul\":19074:19108   */\n      mstore\n        /* \"#utility.yul\":19144:19159   */\n      dup1\n      dup5\n      and\n        /* \"#utility.yul\":19124:19142   */\n      swap3\n      dup3\n      add\n        /* \"#utility.yul\":19117:19160   */\n      swap3\n      swap1\n      swap3\n      mstore\n        /* \"#utility.yul\":19196:19211   */\n      dup2\n      dup10\n      and\n        /* \"#utility.yul\":19176:19194   */\n      0x60\n      dup3\n      add\n        /* \"#utility.yul\":19169:19212   */\n      mstore\n        /* \"#utility.yul\":19248:19263   */\n      dup2\n      dup9\n      and\n        /* \"#utility.yul\":19228:19246   */\n      0x80\n      dup3\n      add\n        /* \"#utility.yul\":19221:19264   */\n      mstore\n        /* \"#utility.yul\":19301:19316   */\n      swap1\n      dup7\n      and\n        /* \"#utility.yul\":19280:19299   */\n      0xa0\n      dup3\n      add\n        /* \"#utility.yul\":19273:19317   */\n      mstore\n        /* \"contracts/PoolManager.sol\":7504:7557  uint128 totalTickets = uint128(10 ** totalTicketsExp) */\n      swap1\n      swap2\n      pop\n        /* \"#utility.yul\":18993:19012   */\n      0xc0\n      add\n        /* \"contracts/PoolManager.sol\":7599:7769  abi.encode(... */\n      0x40\n      dup1\n      mload\n      not(0x1f)\n      dup2\n      dup5\n      sub\n      add\n      dup2\n      mstore\n      swap2\n      dup2\n      mstore\n        /* \"contracts/PoolManager.sol\":7576:7779  keccak256(... */\n      dup2\n      mload\n        /* \"contracts/PoolManager.sol\":7599:7769  abi.encode(... */\n      0x20\n        /* \"contracts/PoolManager.sol\":7576:7779  keccak256(... */\n      swap3\n      dup4\n      add\n      keccak256\n        /* \"contracts/PoolManager.sol\":7822:7823  0 */\n      0x00\n        /* \"contracts/PoolManager.sol\":7793:7813  _poolInfoMap[poolId] */\n      dup2\n      dup2\n      mstore\n        /* \"contracts/PoolManager.sol\":7793:7805  _poolInfoMap */\n      0x08\n        /* \"contracts/PoolManager.sol\":7793:7813  _poolInfoMap[poolId] */\n      swap1\n      swap4\n      mstore\n      swap2\n      keccak256\n        /* \"contracts/PoolManager.sol\":7793:7819  _poolInfoMap[poolId].prize */\n      sload\n        /* \"contracts/PoolManager.sol\":7576:7779  keccak256(... */\n      swap1\n      swap3\n      pop\n      sub(shl(0x80, 0x01), 0x01)\n        /* \"contracts/PoolManager.sol\":7793:7819  _poolInfoMap[poolId].prize */\n      and\n        /* \"contracts/PoolManager.sol\":7793:7823  _poolInfoMap[poolId].prize > 0 */\n      iszero\n        /* \"contracts/PoolManager.sol\":7789:7844  if (_poolInfoMap[poolId].prize > 0) revert PoolExists() */\n      tag_483\n      jumpi\n        /* \"contracts/PoolManager.sol\":7832:7844  PoolExists() */\n      mload(0x40)\n      shl(0xe1, 0x7a471e13)\n      dup2\n      mstore\n      0x04\n      add\n      mload(0x40)\n      dup1\n      swap2\n      sub\n      swap1\n      revert\n        /* \"contracts/PoolManager.sol\":7789:7844  if (_poolInfoMap[poolId].prize > 0) revert PoolExists() */\n    tag_483:\n        /* \"contracts/PoolManager.sol\":7855:7875  _poolInfoMap[poolId] */\n      0x00\n      dup3\n      dup2\n      mstore\n        /* \"contracts/PoolManager.sol\":7855:7867  _poolInfoMap */\n      0x08\n        /* \"contracts/PoolManager.sol\":7855:7875  _poolInfoMap[poolId] */\n      0x20\n      swap1\n      dup2\n      mstore\n      0x40\n      dup1\n      dup4\n      keccak256\n      sub(shl(0x80, 0x01), 0x01)\n        /* \"contracts/PoolManager.sol\":7899:7947  _poolInfoMap[poolId].totalTickets = totalTickets */\n      dup6\n      dup2\n      and\n      shl(0x80, 0x01)\n      swap1\n      dup2\n      mul\n        /* \"contracts/PoolManager.sol\":7855:7889  _poolInfoMap[poolId].prize = prize */\n      dup3\n      dup15\n      and\n        /* \"contracts/PoolManager.sol\":7899:7947  _poolInfoMap[poolId].totalTickets = totalTickets */\n      or\n      dup4\n      sstore\n        /* \"contracts/PoolManager.sol\":8019:8069  _poolInfoMap[poolId].roundDuration = roundDuration */\n      dup11\n      dup3\n      and\n      mul\n        /* \"contracts/PoolManager.sol\":7957:8009  _poolInfoMap[poolId].pricePerTicket = pricePerTicket */\n      dup12\n      dup3\n      and\n        /* \"contracts/PoolManager.sol\":8019:8069  _poolInfoMap[poolId].roundDuration = roundDuration */\n      or\n        /* \"contracts/PoolManager.sol\":7855:7889  _poolInfoMap[poolId].prize = prize */\n      0x01\n        /* \"contracts/PoolManager.sol\":7957:7992  _poolInfoMap[poolId].pricePerTicket */\n      dup4\n      add\n        /* \"contracts/PoolManager.sol\":8019:8069  _poolInfoMap[poolId].roundDuration = roundDuration */\n      sstore\n        /* \"contracts/PoolManager.sol\":8079:8112  _poolInfoMap[poolId].roundGapTime */\n      0x02\n      swap1\n      swap2\n      add\n        /* \"contracts/PoolManager.sol\":8079:8127  _poolInfoMap[poolId].roundGapTime = roundGapTime */\n      dup1\n      sload\n      dup10\n      dup4\n      and\n      not(sub(shl(0x80, 0x01), 0x01))\n      swap2\n      swap1\n      swap2\n      and\n      or\n      swap1\n      sstore\n        /* \"contracts/PoolManager.sol\":8170:8397  RoundInfo({... */\n      dup2\n      mload\n      0xc0\n      dup2\n      add\n      swap1\n      swap3\n      mstore\n      dup7\n      and\n      dup2\n      mstore\n      swap1\n      dup2\n      add\n        /* \"contracts/PoolManager.sol\":8237:8262  startTime + roundDuration */\n      tag_484\n        /* \"contracts/PoolManager.sol\":8056:8069  roundDuration */\n      dup9\n        /* \"contracts/PoolManager.sol\":8205:8214  startTime */\n      dup8\n        /* \"contracts/PoolManager.sol\":8237:8262  startTime + roundDuration */\n      tag_285\n      jump\t// in\n    tag_484:\n      sub(shl(0x80, 0x01), 0x01)\n        /* \"contracts/PoolManager.sol\":8170:8397  RoundInfo({... */\n      swap1\n      dup2\n      and\n      dup3\n      mstore\n      dup5\n      dup2\n      and\n      0x20\n      dup1\n      dup5\n      add\n      swap2\n      swap1\n      swap2\n      mstore\n      0x00\n      0x40\n      dup1\n      dup6\n      add\n      dup3\n      swap1\n      mstore\n      0x60\n      dup1\n      dup7\n      add\n      dup4\n      swap1\n      mstore\n      0x80\n      swap6\n      dup7\n      add\n      dup4\n      swap1\n      mstore\n        /* \"contracts/PoolManager.sol\":8407:8427  _poolInfoMap[poolId] */\n      dup10\n      dup4\n      mstore\n        /* \"contracts/PoolManager.sol\":8407:8419  _poolInfoMap */\n      0x08\n        /* \"contracts/PoolManager.sol\":8407:8427  _poolInfoMap[poolId] */\n      dup5\n      mstore\n      dup2\n      dup4\n      keccak256\n        /* \"contracts/PoolManager.sol\":8407:8438  _poolInfoMap[poolId].roundInfos */\n      0x03\n      swap1\n      dup2\n      add\n        /* \"contracts/PoolManager.sol\":8407:8457  _poolInfoMap[poolId].roundInfos.push(newRoundInfo) */\n      dup1\n      sload\n        /* \"contracts/PoolManager.sol\":8170:8397  RoundInfo({... */\n      0x01\n        /* \"contracts/PoolManager.sol\":8407:8457  _poolInfoMap[poolId].roundInfos.push(newRoundInfo) */\n      dup2\n      dup2\n      add\n      dup4\n      sstore\n      swap2\n      dup7\n      mstore\n      dup7\n      dup7\n      keccak256\n      dup11\n      mload\n      swap8\n      dup12\n      add\n      mload\n      dup10\n      and\n      shl(0x80, 0x01)\n      mul\n      swap8\n      dup10\n      and\n      swap8\n      swap1\n      swap8\n      or\n      0x04\n      swap1\n      swap2\n      mul\n      swap1\n      swap7\n      add\n      swap6\n      dup7\n      sstore\n      dup9\n      dup5\n      add\n      mload\n      dup7\n      dup3\n      add\n      dup1\n      sload\n      swap2\n      swap1\n      swap9\n      and\n      not(sub(shl(0x80, 0x01), 0x01))\n      swap2\n      swap1\n      swap2\n      and\n      or\n      swap1\n      swap7\n      sstore\n      swap1\n      dup8\n      add\n      mload\n      0x02\n      dup6\n      add\n      sstore\n      swap5\n      dup7\n      add\n      mload\n      swap3\n      swap1\n      swap5\n      add\n      dup1\n      sload\n      0xa0\n      dup8\n      add\n      mload\n      iszero\n      iszero\n      shl(0x20, 0x01)\n      mul\n      not(0xffffffffff)\n      swap1\n      swap2\n      and\n        /* \"contracts/PoolManager.sol\":8170:8397  RoundInfo({... */\n      0xffffffff\n        /* \"contracts/PoolManager.sol\":8407:8457  _poolInfoMap[poolId].roundInfos.push(newRoundInfo) */\n      swap5\n      swap1\n      swap5\n      and\n      swap4\n      swap1\n      swap4\n      or\n      swap3\n      swap1\n      swap3\n      or\n      swap1\n      swap2\n      sstore\n        /* \"contracts/PoolManager.sol\":8467:8475  _poolIds */\n      0x09\n        /* \"contracts/PoolManager.sol\":8467:8488  _poolIds.push(poolId) */\n      dup1\n      sload\n      swap3\n      dup4\n      add\n      dup2\n      sstore\n      swap1\n      mstore\n      0x6e1540171b6c0c960b71a7020d9f60077f6af931a8bbf590da0223dacf75c7af\n      add\n      dup6\n      swap1\n      sstore\n        /* \"contracts/PoolManager.sol\":8503:8670  PoolCreated(... */\n      mload\n        /* \"contracts/PoolManager.sol\":8138:8397  RoundInfo memory newRoundInfo = RoundInfo({... */\n      swap1\n      swap2\n      pop\n        /* \"contracts/PoolManager.sol\":8503:8670  PoolCreated(... */\n      0x3c2758c266cec0bfbf96542a5ea303429faec587fb478c002bc94c4742a837f2\n      swap1\n      tag_487\n      swap1\n        /* \"contracts/PoolManager.sol\":8528:8533  prize */\n      dup11\n      swap1\n        /* \"contracts/PoolManager.sol\":8289:8301  totalTickets */\n      dup6\n      swap1\n        /* \"contracts/PoolManager.sol\":8573:8587  pricePerTicket */\n      dup12\n      swap1\n        /* \"contracts/PoolManager.sol\":8601:8614  roundDuration */\n      dup12\n      swap1\n        /* \"contracts/PoolManager.sol\":8628:8640  roundGapTime */\n      dup12\n      swap1\n        /* \"contracts/PoolManager.sol\":8420:8426  poolId */\n      dup11\n      swap1\n        /* \"contracts/PoolManager.sol\":8503:8670  PoolCreated(... */\n      tag_49\n      jump\t// in\n    tag_487:\n      mload(0x40)\n      dup1\n      swap2\n      sub\n      swap1\n      log1\n        /* \"contracts/PoolManager.sol\":8722:8742  newRoundInfo.endTime */\n      0x20\n      dup2\n      dup2\n      add\n      mload\n        /* \"contracts/PoolManager.sol\":8685:8743  NewRoundOpened(poolId, 1, startTime, newRoundInfo.endTime) */\n      0x40\n      dup1\n      mload\n        /* \"#utility.yul\":14775:14800   */\n      dup7\n      dup2\n      mstore\n        /* \"contracts/PoolManager.sol\":8708:8709  1 */\n      0x01\n        /* \"#utility.yul\":14816:14834   */\n      swap4\n      dup2\n      add\n        /* \"#utility.yul\":14809:14843   */\n      swap4\n      swap1\n      swap4\n      mstore\n      sub(shl(0x80, 0x01), 0x01)\n        /* \"#utility.yul\":14932:14947   */\n      dup8\n      dup2\n      and\n        /* \"#utility.yul\":14912:14930   */\n      dup5\n      dup4\n      add\n        /* \"#utility.yul\":14905:14948   */\n      mstore\n        /* \"#utility.yul\":14984:14999   */\n      swap1\n      swap2\n      and\n        /* \"#utility.yul\":14979:14981   */\n      0x60\n        /* \"#utility.yul\":14964:14982   */\n      dup4\n      add\n        /* \"#utility.yul\":14957:15000   */\n      mstore\n        /* \"contracts/PoolManager.sol\":8685:8743  NewRoundOpened(poolId, 1, startTime, newRoundInfo.endTime) */\n      mload\n      0x9b4e1f1b6df74eff26420e77ce7891d410b236932a083b7c18d599fbd654a8c7\n      swap2\n      dup2\n      swap1\n      sub\n        /* \"#utility.yul\":14762:14765   */\n      0x80\n        /* \"contracts/PoolManager.sol\":8685:8743  NewRoundOpened(poolId, 1, startTime, newRoundInfo.endTime) */\n      add\n      swap1\n      log1\n        /* \"contracts/PoolManager.sol\":7262:8750  {... */\n      pop\n      pop\n        /* \"contracts/PoolManager.sol\":7018:8750  function createPool(... */\n      swap7\n      swap6\n      pop\n      pop\n      pop\n      pop\n      pop\n      pop\n      jump\t// out\n        /* \"contracts/PoolManager.sol\":1812:2064  function updateReferralFee(uint24 newReferralFee) external onlyOwner {... */\n    tag_135:\n        /* \"@openzeppelin/contracts/access/Ownable.sol\":1531:1544  _checkOwner() */\n      tag_492\n        /* \"@openzeppelin/contracts/access/Ownable.sol\":1531:1542  _checkOwner */\n      tag_389\n        /* \"@openzeppelin/contracts/access/Ownable.sol\":1531:1544  _checkOwner() */\n      jump\t// in\n    tag_492:\n        /* \"contracts/PoolManager.sol\":565:572  1000000 */\n      0x0f4240\n        /* \"contracts/PoolManager.sol\":1895:1928  newReferralFee >= HUNDRED_PERCENT */\n      0xffffff\n      dup3\n      and\n      lt\n        /* \"contracts/PoolManager.sol\":1891:1957  if (newReferralFee >= HUNDRED_PERCENT) revert OverHundredPercent() */\n      tag_494\n      jumpi\n        /* \"contracts/PoolManager.sol\":1937:1957  OverHundredPercent() */\n      mload(0x40)\n      shl(0xe2, 0x08f02dc7)\n      dup2\n      mstore\n      0x04\n      add\n      mload(0x40)\n      dup1\n      swap2\n      sub\n      swap1\n      revert\n        /* \"contracts/PoolManager.sol\":1891:1957  if (newReferralFee >= HUNDRED_PERCENT) revert OverHundredPercent() */\n    tag_494:\n        /* \"contracts/PoolManager.sol\":1991:2002  referralFee */\n      sload(0x00)\n        /* \"contracts/PoolManager.sol\":1972:2019  ReferralFeeUpdated(referralFee, newReferralFee) */\n      0x40\n      dup1\n      mload\n        /* \"contracts/PoolManager.sol\":1991:2002  referralFee */\n      0xffffff\n      shl(0xa0, 0x01)\n      swap1\n      swap4\n      div\n      dup4\n      and\n        /* \"#utility.yul\":20638:20672   */\n      dup2\n      mstore\n        /* \"#utility.yul\":20708:20723   */\n      swap2\n      dup4\n      and\n        /* \"#utility.yul\":20703:20705   */\n      0x20\n        /* \"#utility.yul\":20688:20706   */\n      dup4\n      add\n        /* \"#utility.yul\":20681:20724   */\n      mstore\n        /* \"contracts/PoolManager.sol\":1972:2019  ReferralFeeUpdated(referralFee, newReferralFee) */\n      0xa81633b0c4a1ad81d8ca7c4930a87349bcad69f6b8b39c5e91b64c0b674aaf85\n      swap2\n        /* \"#utility.yul\":20584:20602   */\n      add\n        /* \"contracts/PoolManager.sol\":1972:2019  ReferralFeeUpdated(referralFee, newReferralFee) */\n      mload(0x40)\n      dup1\n      swap2\n      sub\n      swap1\n      log1\n        /* \"contracts/PoolManager.sol\":2029:2040  referralFee */\n      0x00\n        /* \"contracts/PoolManager.sol\":2029:2057  referralFee = newReferralFee */\n      dup1\n      sload\n      0xffffff\n      swap1\n      swap3\n      and\n      shl(0xa0, 0x01)\n      mul\n      not(shl(0xa0, 0xffffff))\n      swap1\n      swap3\n      and\n      swap2\n      swap1\n      swap2\n      or\n      swap1\n      sstore\n        /* \"contracts/PoolManager.sol\":1812:2064  function updateReferralFee(uint24 newReferralFee) external onlyOwner {... */\n      jump\t// out\n        /* \"contracts/PoolManager.sol\":3518:3676  function getAllParticipationRecords(address user) external view returns (ParticipationRecord[] memory) {... */\n    tag_138:\n      sub(shl(0xa0, 0x01), 0x01)\n        /* \"contracts/PoolManager.sol\":3638:3669  _userParticipationRecords[user] */\n      dup2\n      and\n      0x00\n      swap1\n      dup2\n      mstore\n        /* \"contracts/PoolManager.sol\":3638:3663  _userParticipationRecords */\n      0x05\n        /* \"contracts/PoolManager.sol\":3638:3669  _userParticipationRecords[user] */\n      0x20\n      swap1\n      dup2\n      mstore\n      0x40\n      dup1\n      dup4\n      keccak256\n        /* \"contracts/PoolManager.sol\":3631:3669  return _userParticipationRecords[user] */\n      dup1\n      sload\n      dup3\n      mload\n      dup2\n      dup6\n      mul\n      dup2\n      add\n      dup6\n      add\n      swap1\n      swap4\n      mstore\n      dup1\n      dup4\n      mstore\n        /* \"contracts/PoolManager.sol\":3591:3619  ParticipationRecord[] memory */\n      0x60\n      swap5\n        /* \"contracts/PoolManager.sol\":3631:3669  return _userParticipationRecords[user] */\n      swap3\n      swap4\n        /* \"contracts/PoolManager.sol\":3638:3669  _userParticipationRecords[user] */\n      swap2\n      swap3\n        /* \"contracts/PoolManager.sol\":3631:3669  return _userParticipationRecords[user] */\n      swap1\n      swap2\n      dup5\n      add\n    tag_498:\n      dup3\n      dup3\n      lt\n      iszero\n      tag_499\n      jumpi\n      dup4\n      dup3\n      swap1\n      0x00\n      mstore\n      keccak256(0x00, 0x20)\n      swap1\n      0x05\n      mul\n      add\n      mload(0x40)\n      dup1\n      0xa0\n      add\n      0x40\n      mstore\n      swap1\n      dup2\n      0x00\n      dup3\n      add\n      sload\n      dup2\n      mstore\n      0x20\n      add\n      0x01\n      dup3\n      add\n      sload\n      dup2\n      mstore\n      0x20\n      add\n      0x02\n      dup3\n      add\n      sload\n      dup2\n      mstore\n      0x20\n      add\n      0x03\n      dup3\n      add\n      sload\n      dup2\n      mstore\n      0x20\n      add\n      0x04\n      dup3\n      add\n      dup1\n      sload\n      dup1\n      0x20\n      mul\n      0x20\n      add\n      mload(0x40)\n      swap1\n      dup2\n      add\n      0x40\n      mstore\n      dup1\n      swap3\n      swap2\n      swap1\n      dup2\n      dup2\n      mstore\n      0x20\n      add\n      dup3\n      dup1\n      sload\n      dup1\n      iszero\n      tag_501\n      jumpi\n      0x20\n      mul\n      dup3\n      add\n      swap2\n      swap1\n      0x00\n      mstore\n      keccak256(0x00, 0x20)\n      swap1\n      0x00\n      swap1\n    tag_502:\n      dup3\n      dup3\n      swap1\n      sload\n      swap1\n      0x0100\n      exp\n      swap1\n      div\n      0xffffffff\n      and\n      0xffffffff\n      and\n      dup2\n      mstore\n      0x20\n      add\n      swap1\n      0x04\n      add\n      swap1\n      0x20\n      dup3\n      0x03\n      add\n      div\n      swap3\n      dup4\n      add\n      swap3\n      0x01\n      sub\n      dup3\n      mul\n      swap2\n      pop\n      dup1\n      dup5\n      gt\n      tag_502\n      jumpi\n      swap1\n      pop\n    tag_501:\n      pop\n      pop\n      pop\n      pop\n      pop\n      dup2\n      mstore\n      pop\n      pop\n      dup2\n      mstore\n      0x20\n      add\n      swap1\n      0x01\n      add\n      swap1\n      jump(tag_498)\n    tag_499:\n      pop\n      pop\n      pop\n      pop\n      swap1\n      pop\n        /* \"contracts/PoolManager.sol\":3518:3676  function getAllParticipationRecords(address user) external view returns (ParticipationRecord[] memory) {... */\n      swap2\n      swap1\n      pop\n      jump\t// out\n        /* \"contracts/PoolManager.sol\":1684:1806  function setVRFConsumer(address vrfConsumer_) external onlyOwner {... */\n    tag_142:\n        /* \"@openzeppelin/contracts/access/Ownable.sol\":1531:1544  _checkOwner() */\n      tag_504\n        /* \"@openzeppelin/contracts/access/Ownable.sol\":1531:1542  _checkOwner */\n      tag_389\n        /* \"@openzeppelin/contracts/access/Ownable.sol\":1531:1544  _checkOwner() */\n      jump\t// in\n    tag_504:\n        /* \"contracts/PoolManager.sol\":1759:1770  vrfConsumer */\n      0x01\n        /* \"contracts/PoolManager.sol\":1759:1799  vrfConsumer = IVRFConsumer(vrfConsumer_) */\n      dup1\n      sload\n      not(sub(shl(0xa0, 0x01), 0x01))\n      and\n      sub(shl(0xa0, 0x01), 0x01)\n      swap3\n      swap1\n      swap3\n      and\n      swap2\n      swap1\n      swap2\n      or\n      swap1\n      sstore\n        /* \"contracts/PoolManager.sol\":1684:1806  function setVRFConsumer(address vrfConsumer_) external onlyOwner {... */\n      jump\t// out\n        /* \"contracts/PoolManager.sol\":13961:14227  function collectReferralReward(address to) external {... */\n    tag_145:\n        /* \"contracts/PoolManager.sol\":14063:14073  msg.sender */\n      caller\n        /* \"contracts/PoolManager.sol\":14023:14038  uint256 accured */\n      0x00\n        /* \"contracts/PoolManager.sol\":14041:14074  referralRewardAccured[msg.sender] */\n      swap1\n      dup2\n      mstore\n        /* \"contracts/PoolManager.sol\":14041:14062  referralRewardAccured */\n      0x03\n        /* \"contracts/PoolManager.sol\":14041:14074  referralRewardAccured[msg.sender] */\n      0x20\n      mstore\n      0x40\n      swap1\n      keccak256\n      sload\n        /* \"contracts/PoolManager.sol\":14084:14114  usdt.safeTransfer(to, accured) */\n      tag_507\n        /* \"contracts/PoolManager.sol\":14084:14088  usdt */\n      immutable(\"0x952803362675801135e2a054978c00aff991471bd59cc252d9b843c8ff1e2daa\")\n      sub(shl(0xa0, 0x01), 0x01)\n        /* \"contracts/PoolManager.sol\":14084:14101  usdt.safeTransfer */\n      and\n        /* \"contracts/PoolManager.sol\":14102:14104  to */\n      dup4\n        /* \"contracts/PoolManager.sol\":14041:14074  referralRewardAccured[msg.sender] */\n      dup4\n        /* \"contracts/PoolManager.sol\":14084:14101  usdt.safeTransfer */\n      tag_264\n        /* \"contracts/PoolManager.sol\":14084:14114  usdt.safeTransfer(to, accured) */\n      jump\t// in\n    tag_507:\n        /* \"contracts/PoolManager.sol\":14146:14156  msg.sender */\n      caller\n        /* \"contracts/PoolManager.sol\":14160:14161  0 */\n      0x00\n        /* \"contracts/PoolManager.sol\":14124:14157  referralRewardAccured[msg.sender] */\n      dup2\n      dup2\n      mstore\n        /* \"contracts/PoolManager.sol\":14124:14145  referralRewardAccured */\n      0x03\n        /* \"contracts/PoolManager.sol\":14124:14157  referralRewardAccured[msg.sender] */\n      0x20\n      mstore\n      0x40\n      dup1\n      dup3\n      keccak256\n        /* \"contracts/PoolManager.sol\":14124:14161  referralRewardAccured[msg.sender] = 0 */\n      swap2\n      swap1\n      swap2\n      sstore\n        /* \"contracts/PoolManager.sol\":14176:14220  ReferralRewardCollected(msg.sender, accured) */\n      mload\n      0x99025a6c572f7d11c4d4d32f273dd2dcf2d8841a574e65fa8e35d718a231370b\n      swap1\n      tag_508\n      swap1\n        /* \"contracts/PoolManager.sol\":14212:14219  accured */\n      dup5\n        /* \"#utility.yul\":10108:10133   */\n      dup2\n      mstore\n        /* \"#utility.yul\":10096:10098   */\n      0x20\n        /* \"#utility.yul\":10081:10099   */\n      add\n      swap1\n        /* \"#utility.yul\":9962:10139   */\n      jump\n        /* \"contracts/PoolManager.sol\":14176:14220  ReferralRewardCollected(msg.sender, accured) */\n    tag_508:\n      mload(0x40)\n      dup1\n      swap2\n      sub\n      swap1\n      log2\n        /* \"contracts/PoolManager.sol\":14013:14227  {... */\n      pop\n        /* \"contracts/PoolManager.sol\":13961:14227  function collectReferralReward(address to) external {... */\n      pop\n      jump\t// out\n        /* \"contracts/PoolManager.sol\":14233:14400  function withdrawUsdt(address to, uint256 amount) external onlyOwner {... */\n    tag_149:\n        /* \"@openzeppelin/contracts/access/Ownable.sol\":1531:1544  _checkOwner() */\n      tag_510\n        /* \"@openzeppelin/contracts/access/Ownable.sol\":1531:1542  _checkOwner */\n      tag_389\n        /* \"@openzeppelin/contracts/access/Ownable.sol\":1531:1544  _checkOwner() */\n      jump\t// in\n    tag_510:\n      sub(shl(0xa0, 0x01), 0x01)\n        /* \"contracts/PoolManager.sol\":14316:14332  to == address(0) */\n      dup3\n      and\n        /* \"contracts/PoolManager.sol\":14312:14354  if (to == address(0)) revert ZeroAddress() */\n      tag_512\n      jumpi\n        /* \"contracts/PoolManager.sol\":14341:14354  ZeroAddress() */\n      mload(0x40)\n      shl(0xe0, 0xd92e233d)\n      dup2\n      mstore\n      0x04\n      add\n      mload(0x40)\n      dup1\n      swap2\n      sub\n      swap1\n      revert\n        /* \"contracts/PoolManager.sol\":14312:14354  if (to == address(0)) revert ZeroAddress() */\n    tag_512:\n        /* \"contracts/PoolManager.sol\":14364:14393  usdt.safeTransfer(to, amount) */\n      tag_513\n      sub(shl(0xa0, 0x01), 0x01)\n        /* \"contracts/PoolManager.sol\":14364:14368  usdt */\n      immutable(\"0x952803362675801135e2a054978c00aff991471bd59cc252d9b843c8ff1e2daa\")\n        /* \"contracts/PoolManager.sol\":14364:14381  usdt.safeTransfer */\n      and\n        /* \"contracts/PoolManager.sol\":14382:14384  to */\n      dup4\n        /* \"contracts/PoolManager.sol\":14386:14392  amount */\n      dup4\n        /* \"contracts/PoolManager.sol\":14364:14381  usdt.safeTransfer */\n      tag_264\n        /* \"contracts/PoolManager.sol\":14364:14393  usdt.safeTransfer(to, amount) */\n      jump\t// in\n    tag_513:\n        /* \"contracts/PoolManager.sol\":14233:14400  function withdrawUsdt(address to, uint256 amount) external onlyOwner {... */\n      pop\n      pop\n      jump\t// out\n        /* \"contracts/PoolManager.sol\":2070:2176  function getAllPoolIds() external view returns (bytes32[] memory poolIds) {... */\n    tag_151:\n        /* \"contracts/PoolManager.sol\":2118:2142  bytes32[] memory poolIds */\n      0x60\n        /* \"contracts/PoolManager.sol\":2161:2169  _poolIds */\n      0x09\n        /* \"contracts/PoolManager.sol\":2154:2169  return _poolIds */\n      dup1\n      sload\n      dup1\n      0x20\n      mul\n      0x20\n      add\n      mload(0x40)\n      swap1\n      dup2\n      add\n      0x40\n      mstore\n      dup1\n      swap3\n      swap2\n      swap1\n      dup2\n      dup2\n      mstore\n      0x20\n      add\n      dup3\n      dup1\n      sload\n      dup1\n      iszero\n      tag_515\n      jumpi\n      0x20\n      mul\n      dup3\n      add\n      swap2\n      swap1\n      0x00\n      mstore\n      keccak256(0x00, 0x20)\n      swap1\n    tag_516:\n      dup2\n      sload\n      dup2\n      mstore\n      0x20\n      add\n      swap1\n      0x01\n      add\n      swap1\n      dup1\n      dup4\n      gt\n      tag_516\n      jumpi\n    tag_515:\n      pop\n      pop\n      pop\n      pop\n      pop\n      swap1\n      pop\n        /* \"contracts/PoolManager.sol\":2070:2176  function getAllPoolIds() external view returns (bytes32[] memory poolIds) {... */\n      swap1\n      jump\t// out\n        /* \"@openzeppelin/contracts/access/Ownable.sol\":2543:2758  function transferOwnership(address newOwner) public virtual onlyOwner {... */\n    tag_156:\n        /* \"@openzeppelin/contracts/access/Ownable.sol\":1531:1544  _checkOwner() */\n      tag_518\n        /* \"@openzeppelin/contracts/access/Ownable.sol\":1531:1542  _checkOwner */\n      tag_389\n        /* \"@openzeppelin/contracts/access/Ownable.sol\":1531:1544  _checkOwner() */\n      jump\t// in\n    tag_518:\n      sub(shl(0xa0, 0x01), 0x01)\n        /* \"@openzeppelin/contracts/access/Ownable.sol\":2627:2649  newOwner == address(0) */\n      dup2\n      and\n        /* \"@openzeppelin/contracts/access/Ownable.sol\":2623:2714  if (newOwner == address(0)) {... */\n      tag_520\n      jumpi\n        /* \"@openzeppelin/contracts/access/Ownable.sol\":2672:2703  OwnableInvalidOwner(address(0)) */\n      mload(0x40)\n      shl(0xe0, 0x1e4fbdf7)\n      dup2\n      mstore\n        /* \"@openzeppelin/contracts/access/Ownable.sol\":2700:2701  0 */\n      0x00\n        /* \"@openzeppelin/contracts/access/Ownable.sol\":2672:2703  OwnableInvalidOwner(address(0)) */\n      0x04\n      dup3\n      add\n        /* \"#utility.yul\":1902:1953   */\n      mstore\n        /* \"#utility.yul\":1875:1893   */\n      0x24\n      add\n        /* \"@openzeppelin/contracts/access/Ownable.sol\":2672:2703  OwnableInvalidOwner(address(0)) */\n      tag_419\n        /* \"#utility.yul\":1735:1959   */\n      jump\n        /* \"@openzeppelin/contracts/access/Ownable.sol\":2623:2714  if (newOwner == address(0)) {... */\n    tag_520:\n        /* \"@openzeppelin/contracts/access/Ownable.sol\":2723:2751  _transferOwnership(newOwner) */\n      tag_522\n        /* \"@openzeppelin/contracts/access/Ownable.sol\":2742:2750  newOwner */\n      dup2\n        /* \"@openzeppelin/contracts/access/Ownable.sol\":2723:2741  _transferOwnership */\n      tag_392\n        /* \"@openzeppelin/contracts/access/Ownable.sol\":2723:2751  _transferOwnership(newOwner) */\n      jump\t// in\n    tag_522:\n        /* \"@openzeppelin/contracts/access/Ownable.sol\":2543:2758  function transferOwnership(address newOwner) public virtual onlyOwner {... */\n      pop\n      jump\t// out\n        /* \"@openzeppelin/contracts/token/ERC20/utils/SafeERC20.sol\":1303:1463  function safeTransfer(IERC20 token, address to, uint256 value) internal {... */\n    tag_264:\n        /* \"@openzeppelin/contracts/token/ERC20/utils/SafeERC20.sol\":1412:1455  abi.encodeCall(token.transfer, (to, value)) */\n      mload(0x40)\n      sub(shl(0xa0, 0x01), 0x01)\n        /* \"#utility.yul\":20927:20959   */\n      dup4\n      dup2\n      and\n        /* \"@openzeppelin/contracts/token/ERC20/utils/SafeERC20.sol\":1412:1455  abi.encodeCall(token.transfer, (to, value)) */\n      0x24\n      dup4\n      add\n        /* \"#utility.yul\":20909:20960   */\n      mstore\n        /* \"#utility.yul\":20976:20994   */\n      0x44\n      dup3\n      add\n        /* \"#utility.yul\":20969:21003   */\n      dup4\n      swap1\n      mstore\n        /* \"@openzeppelin/contracts/token/ERC20/utils/SafeERC20.sol\":1385:1456  _callOptionalReturn(token, abi.encodeCall(token.transfer, (to, value))) */\n      tag_524\n      swap2\n        /* \"@openzeppelin/contracts/token/ERC20/utils/SafeERC20.sol\":1405:1410  token */\n      dup6\n      swap2\n        /* \"@openzeppelin/contracts/token/ERC20/utils/SafeERC20.sol\":1427:1441  token.transfer */\n      dup3\n      and\n      swap1\n      0xa9059cbb\n      swap1\n        /* \"#utility.yul\":20882:20900   */\n      0x64\n      add\n        /* \"@openzeppelin/contracts/token/ERC20/utils/SafeERC20.sol\":1412:1455  abi.encodeCall(token.transfer, (to, value)) */\n    tag_525:\n      mload(0x40)\n      0x20\n      dup2\n      dup4\n      sub\n      sub\n      dup2\n      mstore\n      swap1\n      0x40\n      mstore\n      swap2\n      pop\n      0xe0\n      shl\n      0x20\n      dup3\n      add\n      dup1\n      mload\n      sub(shl(0xe0, 0x01), 0x01)\n      dup4\n      dup2\n      dup4\n      and\n      or\n      dup4\n      mstore\n      pop\n      pop\n      pop\n      pop\n        /* \"@openzeppelin/contracts/token/ERC20/utils/SafeERC20.sol\":1385:1404  _callOptionalReturn */\n      tag_527\n        /* \"@openzeppelin/contracts/token/ERC20/utils/SafeERC20.sol\":1385:1456  _callOptionalReturn(token, abi.encodeCall(token.transfer, (to, value))) */\n      jump\t// in\n    tag_524:\n        /* \"@openzeppelin/contracts/token/ERC20/utils/SafeERC20.sol\":1303:1463  function safeTransfer(IERC20 token, address to, uint256 value) internal {... */\n      pop\n      pop\n      pop\n      jump\t// out\n        /* \"@openzeppelin/contracts/access/Ownable.sol\":1796:1958  function _checkOwner() internal view virtual {... */\n    tag_389:\n        /* \"@openzeppelin/contracts/access/Ownable.sol\":1684:1691  address */\n      0x00\n        /* \"@openzeppelin/contracts/access/Ownable.sol\":1710:1716  _owner */\n      sload\n      sub(shl(0xa0, 0x01), 0x01)\n      and\n        /* \"@openzeppelin/contracts/utils/Context.sol\":735:745  msg.sender */\n      caller\n        /* \"@openzeppelin/contracts/access/Ownable.sol\":1855:1878  owner() != _msgSender() */\n      eq\n        /* \"@openzeppelin/contracts/access/Ownable.sol\":1851:1952  if (owner() != _msgSender()) {... */\n      tag_391\n      jumpi\n        /* \"@openzeppelin/contracts/access/Ownable.sol\":1901:1941  OwnableUnauthorizedAccount(_msgSender()) */\n      mload(0x40)\n      shl(0xe0, 0x118cdaa7)\n      dup2\n      mstore\n        /* \"@openzeppelin/contracts/utils/Context.sol\":735:745  msg.sender */\n      caller\n        /* \"@openzeppelin/contracts/access/Ownable.sol\":1901:1941  OwnableUnauthorizedAccount(_msgSender()) */\n      0x04\n      dup3\n      add\n        /* \"#utility.yul\":1902:1953   */\n      mstore\n        /* \"#utility.yul\":1875:1893   */\n      0x24\n      add\n        /* \"@openzeppelin/contracts/access/Ownable.sol\":1901:1941  OwnableUnauthorizedAccount(_msgSender()) */\n      tag_419\n        /* \"#utility.yul\":1735:1959   */\n      jump\n        /* \"@openzeppelin/contracts/access/Ownable.sol\":2912:3099  function _transferOwnership(address newOwner) internal virtual {... */\n    tag_392:\n        /* \"@openzeppelin/contracts/access/Ownable.sol\":2985:3001  address oldOwner */\n      0x00\n        /* \"@openzeppelin/contracts/access/Ownable.sol\":3004:3010  _owner */\n      dup1\n      sload\n      sub(shl(0xa0, 0x01), 0x01)\n        /* \"@openzeppelin/contracts/access/Ownable.sol\":3020:3037  _owner = newOwner */\n      dup4\n      dup2\n      and\n      not(sub(shl(0xa0, 0x01), 0x01))\n      dup4\n      and\n      dup2\n      or\n      dup5\n      sstore\n        /* \"@openzeppelin/contracts/access/Ownable.sol\":3052:3092  OwnershipTransferred(oldOwner, newOwner) */\n      mload(0x40)\n        /* \"@openzeppelin/contracts/access/Ownable.sol\":3004:3010  _owner */\n      swap2\n      swap1\n      swap3\n      and\n      swap3\n      dup4\n      swap2\n        /* \"@openzeppelin/contracts/access/Ownable.sol\":3052:3092  OwnershipTransferred(oldOwner, newOwner) */\n      0x8be0079c531659141344cd1fd0a4f28419497f9722a3daafe3b4186f6b6457e0\n      swap2\n        /* \"@openzeppelin/contracts/access/Ownable.sol\":2985:3001  address oldOwner */\n      swap1\n        /* \"@openzeppelin/contracts/access/Ownable.sol\":3052:3092  OwnershipTransferred(oldOwner, newOwner) */\n      log3\n        /* \"@openzeppelin/contracts/access/Ownable.sol\":2975:3099  {... */\n      pop\n        /* \"@openzeppelin/contracts/access/Ownable.sol\":2912:3099  function _transferOwnership(address newOwner) internal virtual {... */\n      pop\n      jump\t// out\n        /* \"@openzeppelin/contracts/token/ERC20/utils/SafeERC20.sol\":1702:1890  function safeTransferFrom(IERC20 token, address from, address to, uint256 value) internal {... */\n    tag_443:\n        /* \"@openzeppelin/contracts/token/ERC20/utils/SafeERC20.sol\":1829:1882  abi.encodeCall(token.transferFrom, (from, to, value)) */\n      mload(0x40)\n      sub(shl(0xa0, 0x01), 0x01)\n        /* \"#utility.yul\":21272:21287   */\n      dup5\n      dup2\n      and\n        /* \"@openzeppelin/contracts/token/ERC20/utils/SafeERC20.sol\":1829:1882  abi.encodeCall(token.transferFrom, (from, to, value)) */\n      0x24\n      dup4\n      add\n        /* \"#utility.yul\":21254:21288   */\n      mstore\n        /* \"#utility.yul\":21324:21339   */\n      dup4\n      dup2\n      and\n        /* \"#utility.yul\":21304:21322   */\n      0x44\n      dup4\n      add\n        /* \"#utility.yul\":21297:21340   */\n      mstore\n        /* \"#utility.yul\":21356:21374   */\n      0x64\n      dup3\n      add\n        /* \"#utility.yul\":21349:21383   */\n      dup4\n      swap1\n      mstore\n        /* \"@openzeppelin/contracts/token/ERC20/utils/SafeERC20.sol\":1802:1883  _callOptionalReturn(token, abi.encodeCall(token.transferFrom, (from, to, value))) */\n      tag_537\n      swap2\n        /* \"@openzeppelin/contracts/token/ERC20/utils/SafeERC20.sol\":1822:1827  token */\n      dup7\n      swap2\n        /* \"@openzeppelin/contracts/token/ERC20/utils/SafeERC20.sol\":1844:1862  token.transferFrom */\n      dup3\n      and\n      swap1\n      0x23b872dd\n      swap1\n        /* \"#utility.yul\":21189:21207   */\n      0x84\n      add\n        /* \"@openzeppelin/contracts/token/ERC20/utils/SafeERC20.sol\":1829:1882  abi.encodeCall(token.transferFrom, (from, to, value)) */\n      tag_525\n        /* \"#utility.yul\":21014:21389   */\n      jump\n        /* \"@openzeppelin/contracts/token/ERC20/utils/SafeERC20.sol\":1802:1883  _callOptionalReturn(token, abi.encodeCall(token.transferFrom, (from, to, value))) */\n    tag_537:\n        /* \"@openzeppelin/contracts/token/ERC20/utils/SafeERC20.sol\":1702:1890  function safeTransferFrom(IERC20 token, address from, address to, uint256 value) internal {... */\n      pop\n      pop\n      pop\n      pop\n      jump\t// out\n        /* \"@openzeppelin/contracts/token/ERC20/utils/SafeERC20.sol\":4059:4688  function _callOptionalReturn(IERC20 token, bytes memory data) private {... */\n    tag_527:\n        /* \"@openzeppelin/contracts/token/ERC20/utils/SafeERC20.sol\":4478:4501  bytes memory returndata */\n      0x00\n        /* \"@openzeppelin/contracts/token/ERC20/utils/SafeERC20.sol\":4504:4537  address(token).functionCall(data) */\n      tag_541\n      sub(shl(0xa0, 0x01), 0x01)\n        /* \"@openzeppelin/contracts/token/ERC20/utils/SafeERC20.sol\":4504:4531  address(token).functionCall */\n      dup5\n      and\n        /* \"@openzeppelin/contracts/token/ERC20/utils/SafeERC20.sol\":4532:4536  data */\n      dup4\n        /* \"@openzeppelin/contracts/token/ERC20/utils/SafeERC20.sol\":4504:4531  address(token).functionCall */\n      tag_542\n        /* \"@openzeppelin/contracts/token/ERC20/utils/SafeERC20.sol\":4504:4537  address(token).functionCall(data) */\n      jump\t// in\n    tag_541:\n        /* \"@openzeppelin/contracts/token/ERC20/utils/SafeERC20.sol\":4478:4537  bytes memory returndata = address(token).functionCall(data) */\n      swap1\n      pop\n        /* \"@openzeppelin/contracts/token/ERC20/utils/SafeERC20.sol\":4551:4561  returndata */\n      dup1\n        /* \"@openzeppelin/contracts/token/ERC20/utils/SafeERC20.sol\":4551:4568  returndata.length */\n      mload\n        /* \"@openzeppelin/contracts/token/ERC20/utils/SafeERC20.sol\":4572:4573  0 */\n      0x00\n        /* \"@openzeppelin/contracts/token/ERC20/utils/SafeERC20.sol\":4551:4573  returndata.length != 0 */\n      eq\n      iszero\n        /* \"@openzeppelin/contracts/token/ERC20/utils/SafeERC20.sol\":4551:4608  returndata.length != 0 && !abi.decode(returndata, (bool)) */\n      dup1\n      iszero\n      tag_543\n      jumpi\n      pop\n        /* \"@openzeppelin/contracts/token/ERC20/utils/SafeERC20.sol\":4589:4599  returndata */\n      dup1\n        /* \"@openzeppelin/contracts/token/ERC20/utils/SafeERC20.sol\":4578:4608  abi.decode(returndata, (bool)) */\n      dup1\n      0x20\n      add\n      swap1\n      mload\n      dup2\n      add\n      swap1\n      tag_544\n      swap2\n      swap1\n      tag_545\n      jump\t// in\n    tag_544:\n        /* \"@openzeppelin/contracts/token/ERC20/utils/SafeERC20.sol\":4577:4608  !abi.decode(returndata, (bool)) */\n      iszero\n        /* \"@openzeppelin/contracts/token/ERC20/utils/SafeERC20.sol\":4551:4608  returndata.length != 0 && !abi.decode(returndata, (bool)) */\n    tag_543:\n        /* \"@openzeppelin/contracts/token/ERC20/utils/SafeERC20.sol\":4547:4682  if (returndata.length != 0 && !abi.decode(returndata, (bool))) {... */\n      iszero\n      tag_524\n      jumpi\n        /* \"@openzeppelin/contracts/token/ERC20/utils/SafeERC20.sol\":4631:4671  SafeERC20FailedOperation(address(token)) */\n      mload(0x40)\n      shl(0xe0, 0x5274afe7)\n      dup2\n      mstore\n      sub(shl(0xa0, 0x01), 0x01)\n        /* \"#utility.yul\":1920:1952   */\n      dup5\n      and\n        /* \"@openzeppelin/contracts/token/ERC20/utils/SafeERC20.sol\":4631:4671  SafeERC20FailedOperation(address(token)) */\n      0x04\n      dup3\n      add\n        /* \"#utility.yul\":1902:1953   */\n      mstore\n        /* \"#utility.yul\":1875:1893   */\n      0x24\n      add\n        /* \"@openzeppelin/contracts/token/ERC20/utils/SafeERC20.sol\":4631:4671  SafeERC20FailedOperation(address(token)) */\n      tag_419\n        /* \"#utility.yul\":1735:1959   */\n      jump\n        /* \"@openzeppelin/contracts/utils/Address.sol\":2705:2856  function functionCall(address target, bytes memory data) internal returns (bytes memory) {... */\n    tag_542:\n        /* \"@openzeppelin/contracts/utils/Address.sol\":2780:2792  bytes memory */\n      0x60\n        /* \"@openzeppelin/contracts/utils/Address.sol\":2811:2849  functionCallWithValue(target, data, 0) */\n      tag_550\n        /* \"@openzeppelin/contracts/utils/Address.sol\":2833:2839  target */\n      dup4\n        /* \"@openzeppelin/contracts/utils/Address.sol\":2841:2845  data */\n      dup4\n        /* \"@openzeppelin/contracts/utils/Address.sol\":2847:2848  0 */\n      0x00\n        /* \"@openzeppelin/contracts/utils/Address.sol\":2811:2832  functionCallWithValue */\n      tag_551\n        /* \"@openzeppelin/contracts/utils/Address.sol\":2811:2849  functionCallWithValue(target, data, 0) */\n      jump\t// in\n    tag_550:\n        /* \"@openzeppelin/contracts/utils/Address.sol\":2804:2849  return functionCallWithValue(target, data, 0) */\n      swap4\n        /* \"@openzeppelin/contracts/utils/Address.sol\":2705:2856  function functionCall(address target, bytes memory data) internal returns (bytes memory) {... */\n      swap3\n      pop\n      pop\n      pop\n      jump\t// out\n        /* \"@openzeppelin/contracts/utils/Address.sol\":3180:3572  function functionCallWithValue(address target, bytes memory data, uint256 value) internal returns (bytes memory) {... */\n    tag_551:\n        /* \"@openzeppelin/contracts/utils/Address.sol\":3279:3291  bytes memory */\n      0x60\n        /* \"@openzeppelin/contracts/utils/Address.sol\":3331:3336  value */\n      dup2\n        /* \"@openzeppelin/contracts/utils/Address.sol\":3307:3328  address(this).balance */\n      selfbalance\n        /* \"@openzeppelin/contracts/utils/Address.sol\":3307:3336  address(this).balance < value */\n      lt\n        /* \"@openzeppelin/contracts/utils/Address.sol\":3303:3411  if (address(this).balance < value) {... */\n      iszero\n      tag_553\n      jumpi\n        /* \"@openzeppelin/contracts/utils/Address.sol\":3359:3400  AddressInsufficientBalance(address(this)) */\n      mload(0x40)\n      shl(0xe0, 0xcd786059)\n      dup2\n      mstore\n        /* \"@openzeppelin/contracts/utils/Address.sol\":3394:3398  this */\n      address\n        /* \"@openzeppelin/contracts/utils/Address.sol\":3359:3400  AddressInsufficientBalance(address(this)) */\n      0x04\n      dup3\n      add\n        /* \"#utility.yul\":1902:1953   */\n      mstore\n        /* \"#utility.yul\":1875:1893   */\n      0x24\n      add\n        /* \"@openzeppelin/contracts/utils/Address.sol\":3359:3400  AddressInsufficientBalance(address(this)) */\n      tag_419\n        /* \"#utility.yul\":1735:1959   */\n      jump\n        /* \"@openzeppelin/contracts/utils/Address.sol\":3303:3411  if (address(this).balance < value) {... */\n    tag_553:\n        /* \"@openzeppelin/contracts/utils/Address.sol\":3421:3433  bool success */\n      0x00\n        /* \"@openzeppelin/contracts/utils/Address.sol\":3435:3458  bytes memory returndata */\n      dup1\n        /* \"@openzeppelin/contracts/utils/Address.sol\":3462:3468  target */\n      dup6\n      sub(shl(0xa0, 0x01), 0x01)\n        /* \"@openzeppelin/contracts/utils/Address.sol\":3462:3473  target.call */\n      and\n        /* \"@openzeppelin/contracts/utils/Address.sol\":3481:3486  value */\n      dup5\n        /* \"@openzeppelin/contracts/utils/Address.sol\":3488:3492  data */\n      dup7\n        /* \"@openzeppelin/contracts/utils/Address.sol\":3462:3493  target.call{value: value}(data) */\n      mload(0x40)\n      tag_555\n      swap2\n      swap1\n      tag_556\n      jump\t// in\n    tag_555:\n      0x00\n      mload(0x40)\n      dup1\n      dup4\n      sub\n      dup2\n      dup6\n      dup8\n      gas\n      call\n      swap3\n      pop\n      pop\n      pop\n      returndatasize\n      dup1\n      0x00\n      dup2\n      eq\n      tag_559\n      jumpi\n      mload(0x40)\n      swap2\n      pop\n      and(add(returndatasize, 0x3f), not(0x1f))\n      dup3\n      add\n      0x40\n      mstore\n      returndatasize\n      dup3\n      mstore\n      returndatasize\n      0x00\n      0x20\n      dup5\n      add\n      returndatacopy\n      jump(tag_558)\n    tag_559:\n      0x60\n      swap2\n      pop\n    tag_558:\n      pop\n        /* \"@openzeppelin/contracts/utils/Address.sol\":3420:3493  (bool success, bytes memory returndata) = target.call{value: value}(data) */\n      swap2\n      pop\n      swap2\n      pop\n        /* \"@openzeppelin/contracts/utils/Address.sol\":3510:3565  verifyCallResultFromTarget(target, success, returndata) */\n      tag_560\n        /* \"@openzeppelin/contracts/utils/Address.sol\":3537:3543  target */\n      dup7\n        /* \"@openzeppelin/contracts/utils/Address.sol\":3545:3552  success */\n      dup4\n        /* \"@openzeppelin/contracts/utils/Address.sol\":3554:3564  returndata */\n      dup4\n        /* \"@openzeppelin/contracts/utils/Address.sol\":3510:3536  verifyCallResultFromTarget */\n      tag_561\n        /* \"@openzeppelin/contracts/utils/Address.sol\":3510:3565  verifyCallResultFromTarget(target, success, returndata) */\n      jump\t// in\n    tag_560:\n        /* \"@openzeppelin/contracts/utils/Address.sol\":3503:3565  return verifyCallResultFromTarget(target, success, returndata) */\n      swap7\n        /* \"@openzeppelin/contracts/utils/Address.sol\":3180:3572  function functionCallWithValue(address target, bytes memory data, uint256 value) internal returns (bytes memory) {... */\n      swap6\n      pop\n      pop\n      pop\n      pop\n      pop\n      pop\n      jump\t// out\n        /* \"@openzeppelin/contracts/utils/Address.sol\":4625:5207  function verifyCallResultFromTarget(... */\n    tag_561:\n        /* \"@openzeppelin/contracts/utils/Address.sol\":4769:4781  bytes memory */\n      0x60\n        /* \"@openzeppelin/contracts/utils/Address.sol\":4798:4805  success */\n      dup3\n        /* \"@openzeppelin/contracts/utils/Address.sol\":4793:5201  if (!success) {... */\n      tag_563\n      jumpi\n        /* \"@openzeppelin/contracts/utils/Address.sol\":4821:4840  _revert(returndata) */\n      tag_564\n        /* \"@openzeppelin/contracts/utils/Address.sol\":4829:4839  returndata */\n      dup3\n        /* \"@openzeppelin/contracts/utils/Address.sol\":4821:4828  _revert */\n      tag_565\n        /* \"@openzeppelin/contracts/utils/Address.sol\":4821:4840  _revert(returndata) */\n      jump\t// in\n    tag_564:\n        /* \"@openzeppelin/contracts/utils/Address.sol\":4793:5201  if (!success) {... */\n      jump(tag_550)\n    tag_563:\n        /* \"@openzeppelin/contracts/utils/Address.sol\":5045:5062  returndata.length */\n      dup2\n      mload\n        /* \"@openzeppelin/contracts/utils/Address.sol\":5045:5067  returndata.length == 0 */\n      iszero\n        /* \"@openzeppelin/contracts/utils/Address.sol\":5045:5094  returndata.length == 0 && target.code.length == 0 */\n      dup1\n      iszero\n      tag_567\n      jumpi\n      pop\n      sub(shl(0xa0, 0x01), 0x01)\n        /* \"@openzeppelin/contracts/utils/Address.sol\":5071:5089  target.code.length */\n      dup5\n      and\n      extcodesize\n        /* \"@openzeppelin/contracts/utils/Address.sol\":5071:5094  target.code.length == 0 */\n      iszero\n        /* \"@openzeppelin/contracts/utils/Address.sol\":5045:5094  returndata.length == 0 && target.code.length == 0 */\n    tag_567:\n        /* \"@openzeppelin/contracts/utils/Address.sol\":5041:5160  if (returndata.length == 0 && target.code.length == 0) {... */\n      iszero\n      tag_568\n      jumpi\n        /* \"@openzeppelin/contracts/utils/Address.sol\":5121:5145  AddressEmptyCode(target) */\n      mload(0x40)\n      shl(0xe0, 0x9996b315)\n      dup2\n      mstore\n      sub(shl(0xa0, 0x01), 0x01)\n        /* \"#utility.yul\":1920:1952   */\n      dup6\n      and\n        /* \"@openzeppelin/contracts/utils/Address.sol\":5121:5145  AddressEmptyCode(target) */\n      0x04\n      dup3\n      add\n        /* \"#utility.yul\":1902:1953   */\n      mstore\n        /* \"#utility.yul\":1875:1893   */\n      0x24\n      add\n        /* \"@openzeppelin/contracts/utils/Address.sol\":5121:5145  AddressEmptyCode(target) */\n      tag_419\n        /* \"#utility.yul\":1735:1959   */\n      jump\n        /* \"@openzeppelin/contracts/utils/Address.sol\":5041:5160  if (returndata.length == 0 && target.code.length == 0) {... */\n    tag_568:\n      pop\n        /* \"@openzeppelin/contracts/utils/Address.sol\":5180:5190  returndata */\n      dup1\n        /* \"@openzeppelin/contracts/utils/Address.sol\":5173:5190  return returndata */\n      jump(tag_550)\n        /* \"@openzeppelin/contracts/utils/Address.sol\":5743:6259  function _revert(bytes memory returndata) private pure {... */\n    tag_565:\n        /* \"@openzeppelin/contracts/utils/Address.sol\":5874:5891  returndata.length */\n      dup1\n      mload\n        /* \"@openzeppelin/contracts/utils/Address.sol\":5874:5895  returndata.length > 0 */\n      iszero\n        /* \"@openzeppelin/contracts/utils/Address.sol\":5870:6253  if (returndata.length > 0) {... */\n      tag_571\n      jumpi\n        /* \"@openzeppelin/contracts/utils/Address.sol\":6102:6112  returndata */\n      dup1\n        /* \"@openzeppelin/contracts/utils/Address.sol\":6096:6113  mload(returndata) */\n      mload\n        /* \"@openzeppelin/contracts/utils/Address.sol\":6158:6173  returndata_size */\n      dup1\n        /* \"@openzeppelin/contracts/utils/Address.sol\":6145:6155  returndata */\n      dup3\n        /* \"@openzeppelin/contracts/utils/Address.sol\":6141:6143  32 */\n      0x20\n        /* \"@openzeppelin/contracts/utils/Address.sol\":6137:6156  add(32, returndata) */\n      add\n        /* \"@openzeppelin/contracts/utils/Address.sol\":6130:6174  revert(add(32, returndata), returndata_size) */\n      revert\n        /* \"@openzeppelin/contracts/utils/Address.sol\":5870:6253  if (returndata.length > 0) {... */\n    tag_571:\n        /* \"@openzeppelin/contracts/utils/Address.sol\":6225:6242  FailedInnerCall() */\n      mload(0x40)\n      shl(0xe1, 0x0a12f521)\n      dup2\n      mstore\n      0x04\n      add\n      mload(0x40)\n      dup1\n      swap2\n      sub\n      swap1\n      revert\n    tag_301:\n      mload(0x40)\n      dup1\n      0xa0\n      add\n      0x40\n      mstore\n      dup1\n      0x00\n      dup1\n      not\n      and\n      dup2\n      mstore\n      0x20\n      add\n      0x00\n      dup2\n      mstore\n      0x20\n      add\n      0x00\n      dup2\n      mstore\n      0x20\n      add\n      0x00\n      dup2\n      mstore\n      0x20\n      add\n      0x60\n      dup2\n      mstore\n      pop\n      swap1\n      jump\t// out\n    tag_439:\n      dup3\n      dup1\n      sload\n      dup3\n      dup3\n      sstore\n      swap1\n      0x00\n      mstore\n      keccak256(0x00, 0x20)\n      swap1\n      0x07\n      add\n      0x08\n      swap1\n      div\n      dup2\n      add\n      swap3\n      dup3\n      iszero\n      tag_573\n      jumpi\n      swap2\n      0x20\n      mul\n      dup3\n      add\n      0x00\n    tag_574:\n      dup4\n      dup3\n      gt\n      iszero\n      tag_575\n      jumpi\n      dup4\n      mload\n      dup4\n      dup3\n      0x0100\n      exp\n      dup2\n      sload\n      dup2\n      0xffffffff\n      mul\n      not\n      and\n      swap1\n      dup4\n      0xffffffff\n      and\n      mul\n      or\n      swap1\n      sstore\n      pop\n      swap3\n      0x20\n      add\n      swap3\n      0x04\n      add\n      0x20\n      dup2\n      0x03\n      add\n      div\n      swap3\n      dup4\n      add\n      swap3\n      0x01\n      sub\n      mul\n      jump(tag_574)\n    tag_575:\n      dup1\n      iszero\n      tag_576\n      jumpi\n      dup3\n      dup2\n      0x0100\n      exp\n      dup2\n      sload\n      swap1\n      0xffffffff\n      mul\n      not\n      and\n      swap1\n      sstore\n      0x04\n      add\n      0x20\n      dup2\n      0x03\n      add\n      div\n      swap3\n      dup4\n      add\n      swap3\n      0x01\n      sub\n      mul\n      jump(tag_575)\n    tag_576:\n      pop\n    tag_573:\n      pop\n      tag_577\n      swap3\n      swap2\n      pop\n      tag_578\n      jump\t// in\n    tag_577:\n      pop\n      swap1\n      jump\t// out\n    tag_578:\n    tag_579:\n      dup1\n      dup3\n      gt\n      iszero\n      tag_577\n      jumpi\n      0x00\n      dup2\n      sstore\n      0x01\n      add\n      jump(tag_579)\n        /* \"#utility.yul\":14:262   */\n    tag_40:\n        /* \"#utility.yul\":82:88   */\n      0x00\n        /* \"#utility.yul\":90:96   */\n      dup1\n        /* \"#utility.yul\":143:145   */\n      0x40\n        /* \"#utility.yul\":131:140   */\n      dup4\n        /* \"#utility.yul\":122:129   */\n      dup6\n        /* \"#utility.yul\":118:141   */\n      sub\n        /* \"#utility.yul\":114:146   */\n      slt\n        /* \"#utility.yul\":111:163   */\n      iszero\n      tag_594\n      jumpi\n        /* \"#utility.yul\":159:160   */\n      0x00\n        /* \"#utility.yul\":156:157   */\n      dup1\n        /* \"#utility.yul\":149:161   */\n      revert\n        /* \"#utility.yul\":111:163   */\n    tag_594:\n      pop\n      pop\n        /* \"#utility.yul\":182:205   */\n      dup1\n      calldataload\n      swap3\n        /* \"#utility.yul\":252:254   */\n      0x20\n        /* \"#utility.yul\":237:255   */\n      swap1\n      swap2\n      add\n        /* \"#utility.yul\":224:256   */\n      calldataload\n      swap2\n      pop\n        /* \"#utility.yul\":14:262   */\n      jump\t// out\n        /* \"#utility.yul\":912:1092   */\n    tag_46:\n        /* \"#utility.yul\":971:977   */\n      0x00\n        /* \"#utility.yul\":1024:1026   */\n      0x20\n        /* \"#utility.yul\":1012:1021   */\n      dup3\n        /* \"#utility.yul\":1003:1010   */\n      dup5\n        /* \"#utility.yul\":999:1022   */\n      sub\n        /* \"#utility.yul\":995:1027   */\n      slt\n        /* \"#utility.yul\":992:1044   */\n      iszero\n      tag_597\n      jumpi\n        /* \"#utility.yul\":1040:1041   */\n      0x00\n        /* \"#utility.yul\":1037:1038   */\n      dup1\n        /* \"#utility.yul\":1030:1042   */\n      revert\n        /* \"#utility.yul\":992:1044   */\n    tag_597:\n      pop\n        /* \"#utility.yul\":1063:1086   */\n      calldataload\n      swap2\n        /* \"#utility.yul\":912:1092   */\n      swap1\n      pop\n      jump\t// out\n        /* \"#utility.yul\":1097:1730   */\n    tag_49:\n      sub(shl(0x80, 0x01), 0x01)\n        /* \"#utility.yul\":1455:1470   */\n      swap7\n      dup8\n      and\n        /* \"#utility.yul\":1437:1471   */\n      dup2\n      mstore\n        /* \"#utility.yul\":1507:1522   */\n      swap5\n      dup7\n      and\n        /* \"#utility.yul\":1502:1504   */\n      0x20\n        /* \"#utility.yul\":1487:1505   */\n      dup7\n      add\n        /* \"#utility.yul\":1480:1523   */\n      mstore\n        /* \"#utility.yul\":1559:1574   */\n      swap3\n      dup6\n      and\n        /* \"#utility.yul\":1554:1556   */\n      0x40\n        /* \"#utility.yul\":1539:1557   */\n      dup6\n      add\n        /* \"#utility.yul\":1532:1575   */\n      mstore\n        /* \"#utility.yul\":1611:1626   */\n      swap1\n      dup5\n      and\n        /* \"#utility.yul\":1606:1608   */\n      0x60\n        /* \"#utility.yul\":1591:1609   */\n      dup5\n      add\n        /* \"#utility.yul\":1584:1627   */\n      mstore\n        /* \"#utility.yul\":1664:1679   */\n      swap1\n      swap3\n      and\n        /* \"#utility.yul\":1658:1661   */\n      0x80\n        /* \"#utility.yul\":1643:1662   */\n      dup3\n      add\n        /* \"#utility.yul\":1636:1680   */\n      mstore\n        /* \"#utility.yul\":1711:1714   */\n      0xa0\n        /* \"#utility.yul\":1696:1715   */\n      dup2\n      add\n        /* \"#utility.yul\":1689:1724   */\n      swap2\n      swap1\n      swap2\n      mstore\n        /* \"#utility.yul\":1371:1374   */\n      0xc0\n        /* \"#utility.yul\":1356:1375   */\n      add\n      swap1\n        /* \"#utility.yul\":1097:1730   */\n      jump\t// out\n        /* \"#utility.yul\":1964:2095   */\n    tag_581:\n      sub(shl(0xa0, 0x01), 0x01)\n        /* \"#utility.yul\":2039:2070   */\n      dup2\n      and\n        /* \"#utility.yul\":2029:2071   */\n      dup2\n      eq\n        /* \"#utility.yul\":2019:2089   */\n      tag_522\n      jumpi\n        /* \"#utility.yul\":2085:2086   */\n      0x00\n        /* \"#utility.yul\":2082:2083   */\n      dup1\n        /* \"#utility.yul\":2075:2087   */\n      revert\n        /* \"#utility.yul\":2100:2347   */\n    tag_56:\n        /* \"#utility.yul\":2159:2165   */\n      0x00\n        /* \"#utility.yul\":2212:2214   */\n      0x20\n        /* \"#utility.yul\":2200:2209   */\n      dup3\n        /* \"#utility.yul\":2191:2198   */\n      dup5\n        /* \"#utility.yul\":2187:2210   */\n      sub\n        /* \"#utility.yul\":2183:2215   */\n      slt\n        /* \"#utility.yul\":2180:2232   */\n      iszero\n      tag_603\n      jumpi\n        /* \"#utility.yul\":2228:2229   */\n      0x00\n        /* \"#utility.yul\":2225:2226   */\n      dup1\n        /* \"#utility.yul\":2218:2230   */\n      revert\n        /* \"#utility.yul\":2180:2232   */\n    tag_603:\n        /* \"#utility.yul\":2267:2276   */\n      dup2\n        /* \"#utility.yul\":2254:2277   */\n      calldataload\n        /* \"#utility.yul\":2286:2317   */\n      tag_550\n        /* \"#utility.yul\":2311:2316   */\n      dup2\n        /* \"#utility.yul\":2286:2317   */\n      tag_581\n      jump\t// in\n        /* \"#utility.yul\":2352:2787   */\n    tag_582:\n        /* \"#utility.yul\":2405:2408   */\n      0x00\n        /* \"#utility.yul\":2443:2448   */\n      dup2\n        /* \"#utility.yul\":2437:2449   */\n      mload\n        /* \"#utility.yul\":2470:2476   */\n      dup1\n        /* \"#utility.yul\":2465:2468   */\n      dup5\n        /* \"#utility.yul\":2458:2477   */\n      mstore\n        /* \"#utility.yul\":2496:2500   */\n      0x20\n        /* \"#utility.yul\":2525:2527   */\n      dup1\n        /* \"#utility.yul\":2520:2523   */\n      dup6\n        /* \"#utility.yul\":2516:2528   */\n      add\n        /* \"#utility.yul\":2509:2528   */\n      swap5\n      pop\n        /* \"#utility.yul\":2562:2564   */\n      dup1\n        /* \"#utility.yul\":2555:2560   */\n      dup5\n        /* \"#utility.yul\":2551:2565   */\n      add\n        /* \"#utility.yul\":2583:2584   */\n      0x00\n        /* \"#utility.yul\":2593:2762   */\n    tag_606:\n        /* \"#utility.yul\":2607:2613   */\n      dup4\n        /* \"#utility.yul\":2604:2605   */\n      dup2\n        /* \"#utility.yul\":2601:2614   */\n      lt\n        /* \"#utility.yul\":2593:2762   */\n      iszero\n      tag_608\n      jumpi\n        /* \"#utility.yul\":2668:2681   */\n      dup2\n      mload\n        /* \"#utility.yul\":2656:2682   */\n      dup8\n      mstore\n        /* \"#utility.yul\":2702:2714   */\n      swap6\n      dup3\n      add\n      swap6\n        /* \"#utility.yul\":2737:2752   */\n      swap1\n      dup3\n      add\n      swap1\n        /* \"#utility.yul\":2629:2630   */\n      0x01\n        /* \"#utility.yul\":2622:2631   */\n      add\n        /* \"#utility.yul\":2593:2762   */\n      jump(tag_606)\n    tag_608:\n      pop\n        /* \"#utility.yul\":2778:2781   */\n      swap5\n      swap6\n        /* \"#utility.yul\":2352:2787   */\n      swap5\n      pop\n      pop\n      pop\n      pop\n      pop\n      jump\t// out\n        /* \"#utility.yul\":2792:3667   */\n    tag_59:\n        /* \"#utility.yul\":3077:3079   */\n      0x60\n        /* \"#utility.yul\":3066:3075   */\n      dup2\n        /* \"#utility.yul\":3059:3080   */\n      mstore\n        /* \"#utility.yul\":3040:3044   */\n      0x00\n        /* \"#utility.yul\":3103:3159   */\n      tag_610\n        /* \"#utility.yul\":3155:3157   */\n      0x60\n        /* \"#utility.yul\":3144:3153   */\n      dup4\n        /* \"#utility.yul\":3140:3158   */\n      add\n        /* \"#utility.yul\":3132:3138   */\n      dup7\n        /* \"#utility.yul\":3103:3159   */\n      tag_582\n      jump\t// in\n    tag_610:\n        /* \"#utility.yul\":3216:3238   */\n      dup3\n      dup2\n      sub\n        /* \"#utility.yul\":3178:3180   */\n      0x20\n        /* \"#utility.yul\":3196:3214   */\n      dup5\n      dup2\n      add\n        /* \"#utility.yul\":3189:3239   */\n      swap2\n      swap1\n      swap2\n      mstore\n        /* \"#utility.yul\":3288:3301   */\n      dup6\n      mload\n        /* \"#utility.yul\":3310:3332   */\n      dup1\n      dup4\n      mstore\n        /* \"#utility.yul\":3386:3401   */\n      dup7\n      dup3\n      add\n      swap3\n        /* \"#utility.yul\":3348:3363   */\n      dup3\n      add\n      swap1\n        /* \"#utility.yul\":3419:3420   */\n      0x00\n        /* \"#utility.yul\":3429:3598   */\n    tag_611:\n        /* \"#utility.yul\":3443:3449   */\n      dup2\n        /* \"#utility.yul\":3440:3441   */\n      dup2\n        /* \"#utility.yul\":3437:3450   */\n      lt\n        /* \"#utility.yul\":3429:3598   */\n      iszero\n      tag_613\n      jumpi\n        /* \"#utility.yul\":3504:3517   */\n      dup5\n      mload\n        /* \"#utility.yul\":3492:3518   */\n      dup4\n      mstore\n        /* \"#utility.yul\":3573:3588   */\n      swap4\n      dup4\n      add\n      swap4\n        /* \"#utility.yul\":3538:3550   */\n      swap2\n      dup4\n      add\n      swap2\n        /* \"#utility.yul\":3465:3466   */\n      0x01\n        /* \"#utility.yul\":3458:3467   */\n      add\n        /* \"#utility.yul\":3429:3598   */\n      jump(tag_611)\n    tag_613:\n        /* \"#utility.yul\":3433:3436   */\n      pop\n      pop\n        /* \"#utility.yul\":3615:3618   */\n      dup1\n        /* \"#utility.yul\":3607:3618   */\n      swap4\n      pop\n      pop\n      pop\n      pop\n        /* \"#utility.yul\":3654:3660   */\n      dup3\n        /* \"#utility.yul\":3649:3651   */\n      0x40\n        /* \"#utility.yul\":3638:3647   */\n      dup4\n        /* \"#utility.yul\":3634:3652   */\n      add\n        /* \"#utility.yul\":3627:3661   */\n      mstore\n        /* \"#utility.yul\":2792:3667   */\n      swap5\n      swap4\n      pop\n      pop\n      pop\n      pop\n      jump\t// out\n        /* \"#utility.yul\":3672:4123   */\n    tag_583:\n        /* \"#utility.yul\":3724:3727   */\n      0x00\n        /* \"#utility.yul\":3762:3767   */\n      dup2\n        /* \"#utility.yul\":3756:3768   */\n      mload\n        /* \"#utility.yul\":3789:3795   */\n      dup1\n        /* \"#utility.yul\":3784:3787   */\n      dup5\n        /* \"#utility.yul\":3777:3796   */\n      mstore\n        /* \"#utility.yul\":3815:3819   */\n      0x20\n        /* \"#utility.yul\":3844:3846   */\n      dup1\n        /* \"#utility.yul\":3839:3842   */\n      dup6\n        /* \"#utility.yul\":3835:3847   */\n      add\n        /* \"#utility.yul\":3828:3847   */\n      swap5\n      pop\n        /* \"#utility.yul\":3881:3883   */\n      dup1\n        /* \"#utility.yul\":3874:3879   */\n      dup5\n        /* \"#utility.yul\":3870:3884   */\n      add\n        /* \"#utility.yul\":3902:3903   */\n      0x00\n        /* \"#utility.yul\":3912:4098   */\n    tag_615:\n        /* \"#utility.yul\":3926:3932   */\n      dup4\n        /* \"#utility.yul\":3923:3924   */\n      dup2\n        /* \"#utility.yul\":3920:3933   */\n      lt\n        /* \"#utility.yul\":3912:4098   */\n      iszero\n      tag_608\n      jumpi\n        /* \"#utility.yul\":3991:4004   */\n      dup2\n      mload\n        /* \"#utility.yul\":4006:4016   */\n      0xffffffff\n        /* \"#utility.yul\":3987:4017   */\n      and\n        /* \"#utility.yul\":3975:4018   */\n      dup8\n      mstore\n        /* \"#utility.yul\":4038:4050   */\n      swap6\n      dup3\n      add\n      swap6\n        /* \"#utility.yul\":4073:4088   */\n      swap1\n      dup3\n      add\n      swap1\n        /* \"#utility.yul\":3948:3949   */\n      0x01\n        /* \"#utility.yul\":3941:3950   */\n      add\n        /* \"#utility.yul\":3912:4098   */\n      jump(tag_615)\n        /* \"#utility.yul\":4128:4386   */\n    tag_64:\n        /* \"#utility.yul\":4305:4307   */\n      0x20\n        /* \"#utility.yul\":4294:4303   */\n      dup2\n        /* \"#utility.yul\":4287:4308   */\n      mstore\n        /* \"#utility.yul\":4268:4272   */\n      0x00\n        /* \"#utility.yul\":4325:4380   */\n      tag_550\n        /* \"#utility.yul\":4376:4378   */\n      0x20\n        /* \"#utility.yul\":4365:4374   */\n      dup4\n        /* \"#utility.yul\":4361:4379   */\n      add\n        /* \"#utility.yul\":4353:4359   */\n      dup5\n        /* \"#utility.yul\":4325:4380   */\n      tag_583\n      jump\t// in\n        /* \"#utility.yul\":4391:4758   */\n    tag_584:\n        /* \"#utility.yul\":4454:4462   */\n      0x00\n        /* \"#utility.yul\":4464:4470   */\n      dup1\n        /* \"#utility.yul\":4518:4521   */\n      dup4\n        /* \"#utility.yul\":4511:4515   */\n      0x1f\n        /* \"#utility.yul\":4503:4509   */\n      dup5\n        /* \"#utility.yul\":4499:4516   */\n      add\n        /* \"#utility.yul\":4495:4522   */\n      slt\n        /* \"#utility.yul\":4485:4540   */\n      tag_621\n      jumpi\n        /* \"#utility.yul\":4536:4537   */\n      0x00\n        /* \"#utility.yul\":4533:4534   */\n      dup1\n        /* \"#utility.yul\":4526:4538   */\n      revert\n        /* \"#utility.yul\":4485:4540   */\n    tag_621:\n      pop\n        /* \"#utility.yul\":4559:4579   */\n      dup2\n      calldataload\n        /* \"#utility.yul\":4602:4620   */\n      0xffffffffffffffff\n        /* \"#utility.yul\":4591:4621   */\n      dup2\n      gt\n        /* \"#utility.yul\":4588:4638   */\n      iszero\n      tag_622\n      jumpi\n        /* \"#utility.yul\":4634:4635   */\n      0x00\n        /* \"#utility.yul\":4631:4632   */\n      dup1\n        /* \"#utility.yul\":4624:4636   */\n      revert\n        /* \"#utility.yul\":4588:4638   */\n    tag_622:\n        /* \"#utility.yul\":4671:4675   */\n      0x20\n        /* \"#utility.yul\":4663:4669   */\n      dup4\n        /* \"#utility.yul\":4659:4676   */\n      add\n        /* \"#utility.yul\":4647:4676   */\n      swap2\n      pop\n        /* \"#utility.yul\":4731:4734   */\n      dup4\n        /* \"#utility.yul\":4724:4728   */\n      0x20\n        /* \"#utility.yul\":4714:4720   */\n      dup3\n        /* \"#utility.yul\":4711:4712   */\n      0x05\n        /* \"#utility.yul\":4707:4721   */\n      shl\n        /* \"#utility.yul\":4699:4705   */\n      dup6\n        /* \"#utility.yul\":4695:4722   */\n      add\n        /* \"#utility.yul\":4691:4729   */\n      add\n        /* \"#utility.yul\":4688:4735   */\n      gt\n        /* \"#utility.yul\":4685:4752   */\n      iszero\n      tag_623\n      jumpi\n        /* \"#utility.yul\":4748:4749   */\n      0x00\n        /* \"#utility.yul\":4745:4746   */\n      dup1\n        /* \"#utility.yul\":4738:4750   */\n      revert\n        /* \"#utility.yul\":4685:4752   */\n    tag_623:\n        /* \"#utility.yul\":4391:4758   */\n      swap3\n      pop\n      swap3\n      swap1\n      pop\n      jump\t// out\n        /* \"#utility.yul\":4763:5671   */\n    tag_67:\n        /* \"#utility.yul\":4894:4900   */\n      0x00\n        /* \"#utility.yul\":4902:4908   */\n      dup1\n        /* \"#utility.yul\":4910:4916   */\n      0x00\n        /* \"#utility.yul\":4918:4924   */\n      dup1\n        /* \"#utility.yul\":4926:4932   */\n      0x00\n        /* \"#utility.yul\":4979:4981   */\n      0x60\n        /* \"#utility.yul\":4967:4976   */\n      dup7\n        /* \"#utility.yul\":4958:4965   */\n      dup9\n        /* \"#utility.yul\":4954:4977   */\n      sub\n        /* \"#utility.yul\":4950:4982   */\n      slt\n        /* \"#utility.yul\":4947:4999   */\n      iszero\n      tag_625\n      jumpi\n        /* \"#utility.yul\":4995:4996   */\n      0x00\n        /* \"#utility.yul\":4992:4993   */\n      dup1\n        /* \"#utility.yul\":4985:4997   */\n      revert\n        /* \"#utility.yul\":4947:4999   */\n    tag_625:\n        /* \"#utility.yul\":5034:5043   */\n      dup6\n        /* \"#utility.yul\":5021:5044   */\n      calldataload\n        /* \"#utility.yul\":5053:5084   */\n      tag_626\n        /* \"#utility.yul\":5078:5083   */\n      dup2\n        /* \"#utility.yul\":5053:5084   */\n      tag_581\n      jump\t// in\n    tag_626:\n        /* \"#utility.yul\":5103:5108   */\n      swap5\n      pop\n        /* \"#utility.yul\":5159:5161   */\n      0x20\n        /* \"#utility.yul\":5144:5162   */\n      dup7\n      add\n        /* \"#utility.yul\":5131:5163   */\n      calldataload\n        /* \"#utility.yul\":5182:5200   */\n      0xffffffffffffffff\n        /* \"#utility.yul\":5212:5226   */\n      dup1\n      dup3\n      gt\n        /* \"#utility.yul\":5209:5243   */\n      iszero\n      tag_627\n      jumpi\n        /* \"#utility.yul\":5239:5240   */\n      0x00\n        /* \"#utility.yul\":5236:5237   */\n      dup1\n        /* \"#utility.yul\":5229:5241   */\n      revert\n        /* \"#utility.yul\":5209:5243   */\n    tag_627:\n        /* \"#utility.yul\":5278:5348   */\n      tag_628\n        /* \"#utility.yul\":5340:5347   */\n      dup10\n        /* \"#utility.yul\":5331:5337   */\n      dup4\n        /* \"#utility.yul\":5320:5329   */\n      dup11\n        /* \"#utility.yul\":5316:5338   */\n      add\n        /* \"#utility.yul\":5278:5348   */\n      tag_584\n      jump\t// in\n    tag_628:\n        /* \"#utility.yul\":5367:5375   */\n      swap1\n      swap7\n      pop\n        /* \"#utility.yul\":5252:5348   */\n      swap5\n      pop\n        /* \"#utility.yul\":5455:5457   */\n      0x40\n        /* \"#utility.yul\":5440:5458   */\n      dup9\n      add\n        /* \"#utility.yul\":5427:5459   */\n      calldataload\n      swap2\n      pop\n        /* \"#utility.yul\":5471:5487   */\n      dup1\n      dup3\n      gt\n        /* \"#utility.yul\":5468:5504   */\n      iszero\n      tag_629\n      jumpi\n        /* \"#utility.yul\":5500:5501   */\n      0x00\n        /* \"#utility.yul\":5497:5498   */\n      dup1\n        /* \"#utility.yul\":5490:5502   */\n      revert\n        /* \"#utility.yul\":5468:5504   */\n    tag_629:\n      pop\n        /* \"#utility.yul\":5539:5611   */\n      tag_630\n        /* \"#utility.yul\":5603:5610   */\n      dup9\n        /* \"#utility.yul\":5592:5600   */\n      dup3\n        /* \"#utility.yul\":5581:5590   */\n      dup10\n        /* \"#utility.yul\":5577:5601   */\n      add\n        /* \"#utility.yul\":5539:5611   */\n      tag_584\n      jump\t// in\n    tag_630:\n        /* \"#utility.yul\":4763:5671   */\n      swap7\n      swap10\n      swap6\n      swap9\n      pop\n      swap4\n      swap7\n      pop\n        /* \"#utility.yul\":5630:5638   */\n      swap3\n      swap5\n        /* \"#utility.yul\":5513:5611   */\n      swap4\n        /* \"#utility.yul\":4763:5671   */\n      swap3\n      pop\n      pop\n      pop\n      jump\t// out\n        /* \"#utility.yul\":6128:6511   */\n    tag_82:\n        /* \"#utility.yul\":6205:6211   */\n      0x00\n        /* \"#utility.yul\":6213:6219   */\n      dup1\n        /* \"#utility.yul\":6221:6227   */\n      0x00\n        /* \"#utility.yul\":6274:6276   */\n      0x60\n        /* \"#utility.yul\":6262:6271   */\n      dup5\n        /* \"#utility.yul\":6253:6260   */\n      dup7\n        /* \"#utility.yul\":6249:6272   */\n      sub\n        /* \"#utility.yul\":6245:6277   */\n      slt\n        /* \"#utility.yul\":6242:6294   */\n      iszero\n      tag_634\n      jumpi\n        /* \"#utility.yul\":6290:6291   */\n      0x00\n        /* \"#utility.yul\":6287:6288   */\n      dup1\n        /* \"#utility.yul\":6280:6292   */\n      revert\n        /* \"#utility.yul\":6242:6294   */\n    tag_634:\n        /* \"#utility.yul\":6329:6338   */\n      dup4\n        /* \"#utility.yul\":6316:6339   */\n      calldataload\n        /* \"#utility.yul\":6348:6379   */\n      tag_635\n        /* \"#utility.yul\":6373:6378   */\n      dup2\n        /* \"#utility.yul\":6348:6379   */\n      tag_581\n      jump\t// in\n    tag_635:\n        /* \"#utility.yul\":6398:6403   */\n      swap6\n        /* \"#utility.yul\":6450:6452   */\n      0x20\n        /* \"#utility.yul\":6435:6453   */\n      dup6\n      add\n        /* \"#utility.yul\":6422:6454   */\n      calldataload\n      swap6\n      pop\n        /* \"#utility.yul\":6501:6503   */\n      0x40\n        /* \"#utility.yul\":6486:6504   */\n      swap1\n      swap5\n      add\n        /* \"#utility.yul\":6473:6505   */\n      calldataload\n      swap4\n        /* \"#utility.yul\":6128:6511   */\n      swap3\n      pop\n      pop\n      pop\n      jump\t// out\n        /* \"#utility.yul\":6516:7577   */\n    tag_585:\n        /* \"#utility.yul\":6588:6591   */\n      0x00\n        /* \"#utility.yul\":6619:6622   */\n      dup3\n        /* \"#utility.yul\":6651:6656   */\n      dup3\n        /* \"#utility.yul\":6645:6657   */\n      mload\n        /* \"#utility.yul\":6678:6684   */\n      dup1\n        /* \"#utility.yul\":6673:6676   */\n      dup6\n        /* \"#utility.yul\":6666:6685   */\n      mstore\n        /* \"#utility.yul\":6704:6708   */\n      0x20\n        /* \"#utility.yul\":6733:6735   */\n      dup1\n        /* \"#utility.yul\":6728:6731   */\n      dup7\n        /* \"#utility.yul\":6724:6736   */\n      add\n        /* \"#utility.yul\":6717:6736   */\n      swap6\n      pop\n        /* \"#utility.yul\":6789:6791   */\n      dup1\n        /* \"#utility.yul\":6779:6785   */\n      dup3\n        /* \"#utility.yul\":6776:6777   */\n      0x05\n        /* \"#utility.yul\":6772:6786   */\n      shl\n        /* \"#utility.yul\":6765:6770   */\n      dup5\n        /* \"#utility.yul\":6761:6787   */\n      add\n        /* \"#utility.yul\":6757:6792   */\n      add\n        /* \"#utility.yul\":6826:6828   */\n      dup2\n        /* \"#utility.yul\":6819:6824   */\n      dup7\n        /* \"#utility.yul\":6815:6829   */\n      add\n        /* \"#utility.yul\":6847:6848   */\n      0x00\n        /* \"#utility.yul\":6857:7551   */\n    tag_637:\n        /* \"#utility.yul\":6871:6877   */\n      dup5\n        /* \"#utility.yul\":6868:6869   */\n      dup2\n        /* \"#utility.yul\":6865:6878   */\n      lt\n        /* \"#utility.yul\":6857:7551   */\n      iszero\n      tag_639\n      jumpi\n        /* \"#utility.yul\":6936:6952   */\n      dup6\n      dup4\n      sub\n      not(0x1f)\n        /* \"#utility.yul\":6932:6962   */\n      add\n        /* \"#utility.yul\":6920:6963   */\n      dup10\n      mstore\n        /* \"#utility.yul\":6986:6999   */\n      dup2\n      mload\n        /* \"#utility.yul\":7052:7061   */\n      dup1\n      mload\n        /* \"#utility.yul\":7039:7062   */\n      dup5\n      mstore\n        /* \"#utility.yul\":7103:7114   */\n      dup5\n      dup2\n      add\n        /* \"#utility.yul\":7097:7115   */\n      mload\n        /* \"#utility.yul\":7082:7095   */\n      dup6\n      dup6\n      add\n        /* \"#utility.yul\":7075:7116   */\n      mstore\n        /* \"#utility.yul\":7139:7143   */\n      0x40\n        /* \"#utility.yul\":7184:7195   */\n      dup1\n      dup3\n      add\n        /* \"#utility.yul\":7178:7196   */\n      mload\n        /* \"#utility.yul\":7163:7176   */\n      swap1\n      dup6\n      add\n        /* \"#utility.yul\":7156:7197   */\n      mstore\n        /* \"#utility.yul\":7220:7224   */\n      0x60\n        /* \"#utility.yul\":7265:7276   */\n      dup1\n      dup3\n      add\n        /* \"#utility.yul\":7259:7277   */\n      mload\n        /* \"#utility.yul\":7244:7257   */\n      swap1\n      dup6\n      add\n        /* \"#utility.yul\":7237:7278   */\n      mstore\n        /* \"#utility.yul\":7301:7305   */\n      0x80\n        /* \"#utility.yul\":7344:7355   */\n      swap1\n      dup2\n      add\n        /* \"#utility.yul\":7338:7356   */\n      mload\n        /* \"#utility.yul\":7022:7026   */\n      0xa0\n        /* \"#utility.yul\":7376:7389   */\n      swap2\n      dup6\n      add\n        /* \"#utility.yul\":7369:7394   */\n      dup3\n      swap1\n      mstore\n        /* \"#utility.yul\":7338:7356   */\n      swap1\n        /* \"#utility.yul\":7415:7471   */\n      tag_640\n        /* \"#utility.yul\":7457:7470   */\n      dup2\n      dup7\n      add\n        /* \"#utility.yul\":7338:7356   */\n      dup4\n        /* \"#utility.yul\":7415:7471   */\n      tag_583\n      jump\t// in\n    tag_640:\n        /* \"#utility.yul\":7529:7541   */\n      swap11\n      dup7\n      add\n      swap11\n        /* \"#utility.yul\":7407:7471   */\n      swap5\n      pop\n      pop\n      pop\n        /* \"#utility.yul\":7494:7509   */\n      swap1\n      dup4\n      add\n      swap1\n        /* \"#utility.yul\":6893:6894   */\n      0x01\n        /* \"#utility.yul\":6886:6895   */\n      add\n        /* \"#utility.yul\":6857:7551   */\n      jump(tag_637)\n    tag_639:\n      pop\n        /* \"#utility.yul\":7567:7571   */\n      swap1\n      swap8\n        /* \"#utility.yul\":6516:7577   */\n      swap7\n      pop\n      pop\n      pop\n      pop\n      pop\n      pop\n      pop\n      jump\t// out\n        /* \"#utility.yul\":7582:7936   */\n    tag_85:\n        /* \"#utility.yul\":7835:7837   */\n      0x20\n        /* \"#utility.yul\":7824:7833   */\n      dup2\n        /* \"#utility.yul\":7817:7838   */\n      mstore\n        /* \"#utility.yul\":7798:7802   */\n      0x00\n        /* \"#utility.yul\":7855:7930   */\n      tag_550\n        /* \"#utility.yul\":7926:7928   */\n      0x20\n        /* \"#utility.yul\":7915:7924   */\n      dup4\n        /* \"#utility.yul\":7911:7929   */\n      add\n        /* \"#utility.yul\":7903:7909   */\n      dup5\n        /* \"#utility.yul\":7855:7930   */\n      tag_585\n      jump\t// in\n        /* \"#utility.yul\":7941:8068   */\n    tag_172:\n        /* \"#utility.yul\":8002:8012   */\n      0x4e487b71\n        /* \"#utility.yul\":7997:8000   */\n      0xe0\n        /* \"#utility.yul\":7993:8013   */\n      shl\n        /* \"#utility.yul\":7990:7991   */\n      0x00\n        /* \"#utility.yul\":7983:8014   */\n      mstore\n        /* \"#utility.yul\":8033:8037   */\n      0x41\n        /* \"#utility.yul\":8030:8031   */\n      0x04\n        /* \"#utility.yul\":8023:8038   */\n      mstore\n        /* \"#utility.yul\":8057:8061   */\n      0x24\n        /* \"#utility.yul\":8054:8055   */\n      0x00\n        /* \"#utility.yul\":8047:8062   */\n      revert\n        /* \"#utility.yul\":8073:9256   */\n    tag_88:\n        /* \"#utility.yul\":8166:8172   */\n      0x00\n        /* \"#utility.yul\":8174:8180   */\n      dup1\n        /* \"#utility.yul\":8227:8229   */\n      0x40\n        /* \"#utility.yul\":8215:8224   */\n      dup4\n        /* \"#utility.yul\":8206:8213   */\n      dup6\n        /* \"#utility.yul\":8202:8225   */\n      sub\n        /* \"#utility.yul\":8198:8230   */\n      slt\n        /* \"#utility.yul\":8195:8247   */\n      iszero\n      tag_645\n      jumpi\n        /* \"#utility.yul\":8243:8244   */\n      0x00\n        /* \"#utility.yul\":8240:8241   */\n      dup1\n        /* \"#utility.yul\":8233:8245   */\n      revert\n        /* \"#utility.yul\":8195:8247   */\n    tag_645:\n        /* \"#utility.yul\":8279:8288   */\n      dup3\n        /* \"#utility.yul\":8266:8289   */\n      calldataload\n        /* \"#utility.yul\":8256:8289   */\n      swap2\n      pop\n        /* \"#utility.yul\":8308:8310   */\n      0x20\n        /* \"#utility.yul\":8361:8363   */\n      dup1\n        /* \"#utility.yul\":8350:8359   */\n      dup5\n        /* \"#utility.yul\":8346:8364   */\n      add\n        /* \"#utility.yul\":8333:8365   */\n      calldataload\n        /* \"#utility.yul\":8384:8402   */\n      0xffffffffffffffff\n        /* \"#utility.yul\":8425:8427   */\n      dup1\n        /* \"#utility.yul\":8417:8423   */\n      dup3\n        /* \"#utility.yul\":8414:8428   */\n      gt\n        /* \"#utility.yul\":8411:8445   */\n      iszero\n      tag_646\n      jumpi\n        /* \"#utility.yul\":8441:8442   */\n      0x00\n        /* \"#utility.yul\":8438:8439   */\n      dup1\n        /* \"#utility.yul\":8431:8443   */\n      revert\n        /* \"#utility.yul\":8411:8445   */\n    tag_646:\n        /* \"#utility.yul\":8479:8485   */\n      dup2\n        /* \"#utility.yul\":8468:8477   */\n      dup7\n        /* \"#utility.yul\":8464:8486   */\n      add\n        /* \"#utility.yul\":8454:8486   */\n      swap2\n      pop\n        /* \"#utility.yul\":8524:8531   */\n      dup7\n        /* \"#utility.yul\":8517:8521   */\n      0x1f\n        /* \"#utility.yul\":8513:8515   */\n      dup4\n        /* \"#utility.yul\":8509:8522   */\n      add\n        /* \"#utility.yul\":8505:8532   */\n      slt\n        /* \"#utility.yul\":8495:8550   */\n      tag_647\n      jumpi\n        /* \"#utility.yul\":8546:8547   */\n      0x00\n        /* \"#utility.yul\":8543:8544   */\n      dup1\n        /* \"#utility.yul\":8536:8548   */\n      revert\n        /* \"#utility.yul\":8495:8550   */\n    tag_647:\n        /* \"#utility.yul\":8582:8584   */\n      dup2\n        /* \"#utility.yul\":8569:8585   */\n      calldataload\n        /* \"#utility.yul\":8604:8606   */\n      dup2\n        /* \"#utility.yul\":8600:8602   */\n      dup2\n        /* \"#utility.yul\":8597:8607   */\n      gt\n        /* \"#utility.yul\":8594:8630   */\n      iszero\n      tag_649\n      jumpi\n        /* \"#utility.yul\":8610:8628   */\n      tag_649\n      tag_172\n      jump\t// in\n    tag_649:\n        /* \"#utility.yul\":8656:8658   */\n      dup1\n        /* \"#utility.yul\":8653:8654   */\n      0x05\n        /* \"#utility.yul\":8649:8659   */\n      shl\n        /* \"#utility.yul\":8688:8690   */\n      0x40\n        /* \"#utility.yul\":8682:8691   */\n      mload\n        /* \"#utility.yul\":8751:8753   */\n      0x1f\n        /* \"#utility.yul\":8747:8754   */\n      not\n        /* \"#utility.yul\":8742:8744   */\n      0x3f\n        /* \"#utility.yul\":8738:8740   */\n      dup4\n        /* \"#utility.yul\":8734:8745   */\n      add\n        /* \"#utility.yul\":8730:8755   */\n      and\n        /* \"#utility.yul\":8722:8728   */\n      dup2\n        /* \"#utility.yul\":8718:8756   */\n      add\n        /* \"#utility.yul\":8806:8812   */\n      dup2\n        /* \"#utility.yul\":8794:8804   */\n      dup2\n        /* \"#utility.yul\":8791:8813   */\n      lt\n        /* \"#utility.yul\":8786:8788   */\n      dup6\n        /* \"#utility.yul\":8774:8784   */\n      dup3\n        /* \"#utility.yul\":8771:8789   */\n      gt\n        /* \"#utility.yul\":8768:8814   */\n      or\n        /* \"#utility.yul\":8765:8837   */\n      iszero\n      tag_651\n      jumpi\n        /* \"#utility.yul\":8817:8835   */\n      tag_651\n      tag_172\n      jump\t// in\n    tag_651:\n        /* \"#utility.yul\":8853:8855   */\n      0x40\n        /* \"#utility.yul\":8846:8868   */\n      mstore\n        /* \"#utility.yul\":8903:8921   */\n      swap2\n      dup3\n      mstore\n        /* \"#utility.yul\":8937:8952   */\n      dup5\n      dup3\n      add\n      swap3\n      pop\n        /* \"#utility.yul\":8979:8990   */\n      dup4\n      dup2\n      add\n        /* \"#utility.yul\":8975:8995   */\n      dup6\n      add\n      swap2\n        /* \"#utility.yul\":9007:9026   */\n      dup10\n      dup4\n      gt\n        /* \"#utility.yul\":9004:9043   */\n      iszero\n      tag_652\n      jumpi\n        /* \"#utility.yul\":9039:9040   */\n      0x00\n        /* \"#utility.yul\":9036:9037   */\n      dup1\n        /* \"#utility.yul\":9029:9041   */\n      revert\n        /* \"#utility.yul\":9004:9043   */\n    tag_652:\n        /* \"#utility.yul\":9063:9074   */\n      swap4\n      dup6\n      add\n      swap4\n        /* \"#utility.yul\":9083:9225   */\n    tag_653:\n        /* \"#utility.yul\":9099:9105   */\n      dup3\n        /* \"#utility.yul\":9094:9097   */\n      dup6\n        /* \"#utility.yul\":9091:9106   */\n      lt\n        /* \"#utility.yul\":9083:9225   */\n      iszero\n      tag_655\n      jumpi\n        /* \"#utility.yul\":9165:9182   */\n      dup5\n      calldataload\n        /* \"#utility.yul\":9153:9183   */\n      dup5\n      mstore\n        /* \"#utility.yul\":9116:9128   */\n      swap4\n      dup6\n      add\n      swap4\n        /* \"#utility.yul\":9203:9215   */\n      swap3\n      dup6\n      add\n      swap3\n        /* \"#utility.yul\":9083:9225   */\n      jump(tag_653)\n    tag_655:\n        /* \"#utility.yul\":9244:9250   */\n      dup1\n        /* \"#utility.yul\":9234:9250   */\n      swap7\n      pop\n      pop\n      pop\n      pop\n      pop\n      pop\n      pop\n        /* \"#utility.yul\":8073:9256   */\n      swap3\n      pop\n      swap3\n      swap1\n      pop\n      jump\t// out\n        /* \"#utility.yul\":9261:9424   */\n    tag_586:\n        /* \"#utility.yul\":9328:9348   */\n      dup1\n      calldataload\n        /* \"#utility.yul\":9388:9398   */\n      0xffffffff\n        /* \"#utility.yul\":9377:9399   */\n      dup2\n      and\n        /* \"#utility.yul\":9367:9400   */\n      dup2\n      eq\n        /* \"#utility.yul\":9357:9418   */\n      tag_657\n      jumpi\n        /* \"#utility.yul\":9414:9415   */\n      0x00\n        /* \"#utility.yul\":9411:9412   */\n      dup1\n        /* \"#utility.yul\":9404:9416   */\n      revert\n        /* \"#utility.yul\":9357:9418   */\n    tag_657:\n        /* \"#utility.yul\":9261:9424   */\n      swap2\n      swap1\n      pop\n      jump\t// out\n        /* \"#utility.yul\":9429:9749   */\n    tag_92:\n        /* \"#utility.yul\":9505:9511   */\n      0x00\n        /* \"#utility.yul\":9513:9519   */\n      dup1\n        /* \"#utility.yul\":9521:9527   */\n      0x00\n        /* \"#utility.yul\":9574:9576   */\n      0x60\n        /* \"#utility.yul\":9562:9571   */\n      dup5\n        /* \"#utility.yul\":9553:9560   */\n      dup7\n        /* \"#utility.yul\":9549:9572   */\n      sub\n        /* \"#utility.yul\":9545:9577   */\n      slt\n        /* \"#utility.yul\":9542:9594   */\n      iszero\n      tag_659\n      jumpi\n        /* \"#utility.yul\":9590:9591   */\n      0x00\n        /* \"#utility.yul\":9587:9588   */\n      dup1\n        /* \"#utility.yul\":9580:9592   */\n      revert\n        /* \"#utility.yul\":9542:9594   */\n    tag_659:\n        /* \"#utility.yul\":9626:9635   */\n      dup4\n        /* \"#utility.yul\":9613:9636   */\n      calldataload\n        /* \"#utility.yul\":9603:9636   */\n      swap3\n      pop\n        /* \"#utility.yul\":9683:9685   */\n      0x20\n        /* \"#utility.yul\":9672:9681   */\n      dup5\n        /* \"#utility.yul\":9668:9686   */\n      add\n        /* \"#utility.yul\":9655:9687   */\n      calldataload\n        /* \"#utility.yul\":9645:9687   */\n      swap2\n      pop\n        /* \"#utility.yul\":9706:9743   */\n      tag_660\n        /* \"#utility.yul\":9739:9741   */\n      0x40\n        /* \"#utility.yul\":9728:9737   */\n      dup6\n        /* \"#utility.yul\":9724:9742   */\n      add\n        /* \"#utility.yul\":9706:9743   */\n      tag_586\n      jump\t// in\n    tag_660:\n        /* \"#utility.yul\":9696:9743   */\n      swap1\n      pop\n        /* \"#utility.yul\":9429:9749   */\n      swap3\n      pop\n      swap3\n      pop\n      swap3\n      jump\t// out\n        /* \"#utility.yul\":10339:10764   */\n    tag_109:\n        /* \"#utility.yul\":10620:10622   */\n      0x40\n        /* \"#utility.yul\":10609:10618   */\n      dup2\n        /* \"#utility.yul\":10602:10623   */\n      mstore\n        /* \"#utility.yul\":10583:10587   */\n      0x00\n        /* \"#utility.yul\":10640:10715   */\n      tag_665\n        /* \"#utility.yul\":10711:10713   */\n      0x40\n        /* \"#utility.yul\":10700:10709   */\n      dup4\n        /* \"#utility.yul\":10696:10714   */\n      add\n        /* \"#utility.yul\":10688:10694   */\n      dup6\n        /* \"#utility.yul\":10640:10715   */\n      tag_585\n      jump\t// in\n    tag_665:\n        /* \"#utility.yul\":10632:10715   */\n      swap1\n      pop\n        /* \"#utility.yul\":10751:10757   */\n      dup3\n        /* \"#utility.yul\":10746:10748   */\n      0x20\n        /* \"#utility.yul\":10735:10744   */\n      dup4\n        /* \"#utility.yul\":10731:10749   */\n      add\n        /* \"#utility.yul\":10724:10758   */\n      mstore\n        /* \"#utility.yul\":10339:10764   */\n      swap4\n      swap3\n      pop\n      pop\n      pop\n      jump\t// out\n        /* \"#utility.yul\":10769:11341   */\n    tag_121:\n        /* \"#utility.yul\":10872:10878   */\n      0x00\n        /* \"#utility.yul\":10880:10886   */\n      dup1\n        /* \"#utility.yul\":10888:10894   */\n      0x00\n        /* \"#utility.yul\":10896:10902   */\n      dup1\n        /* \"#utility.yul\":10949:10951   */\n      0x60\n        /* \"#utility.yul\":10937:10946   */\n      dup6\n        /* \"#utility.yul\":10928:10935   */\n      dup8\n        /* \"#utility.yul\":10924:10947   */\n      sub\n        /* \"#utility.yul\":10920:10952   */\n      slt\n        /* \"#utility.yul\":10917:10969   */\n      iszero\n      tag_667\n      jumpi\n        /* \"#utility.yul\":10965:10966   */\n      0x00\n        /* \"#utility.yul\":10962:10963   */\n      dup1\n        /* \"#utility.yul\":10955:10967   */\n      revert\n        /* \"#utility.yul\":10917:10969   */\n    tag_667:\n        /* \"#utility.yul\":11001:11010   */\n      dup5\n        /* \"#utility.yul\":10988:11011   */\n      calldataload\n        /* \"#utility.yul\":10978:11011   */\n      swap4\n      pop\n        /* \"#utility.yul\":11058:11060   */\n      0x20\n        /* \"#utility.yul\":11047:11056   */\n      dup6\n        /* \"#utility.yul\":11043:11061   */\n      add\n        /* \"#utility.yul\":11030:11062   */\n      calldataload\n        /* \"#utility.yul\":11020:11062   */\n      swap3\n      pop\n        /* \"#utility.yul\":11113:11115   */\n      0x40\n        /* \"#utility.yul\":11102:11111   */\n      dup6\n        /* \"#utility.yul\":11098:11116   */\n      add\n        /* \"#utility.yul\":11085:11117   */\n      calldataload\n        /* \"#utility.yul\":11140:11158   */\n      0xffffffffffffffff\n        /* \"#utility.yul\":11132:11138   */\n      dup2\n        /* \"#utility.yul\":11129:11159   */\n      gt\n        /* \"#utility.yul\":11126:11176   */\n      iszero\n      tag_668\n      jumpi\n        /* \"#utility.yul\":11172:11173   */\n      0x00\n        /* \"#utility.yul\":11169:11170   */\n      dup1\n        /* \"#utility.yul\":11162:11174   */\n      revert\n        /* \"#utility.yul\":11126:11176   */\n    tag_668:\n        /* \"#utility.yul\":11211:11281   */\n      tag_669\n        /* \"#utility.yul\":11273:11280   */\n      dup8\n        /* \"#utility.yul\":11264:11270   */\n      dup3\n        /* \"#utility.yul\":11253:11262   */\n      dup9\n        /* \"#utility.yul\":11249:11271   */\n      add\n        /* \"#utility.yul\":11211:11281   */\n      tag_584\n      jump\t// in\n    tag_669:\n        /* \"#utility.yul\":10769:11341   */\n      swap6\n      swap9\n      swap5\n      swap8\n      pop\n        /* \"#utility.yul\":11300:11308   */\n      swap6\n      pop\n      pop\n      pop\n      pop\n        /* \"#utility.yul\":10769:11341   */\n      jump\t// out\n        /* \"#utility.yul\":11346:11534   */\n    tag_587:\n        /* \"#utility.yul\":11414:11434   */\n      dup1\n      calldataload\n      sub(shl(0x80, 0x01), 0x01)\n        /* \"#utility.yul\":11463:11509   */\n      dup2\n      and\n        /* \"#utility.yul\":11453:11510   */\n      dup2\n      eq\n        /* \"#utility.yul\":11443:11528   */\n      tag_657\n      jumpi\n        /* \"#utility.yul\":11524:11525   */\n      0x00\n        /* \"#utility.yul\":11521:11522   */\n      dup1\n        /* \"#utility.yul\":11514:11526   */\n      revert\n        /* \"#utility.yul\":11539:12181   */\n    tag_128:\n        /* \"#utility.yul\":11641:11647   */\n      0x00\n        /* \"#utility.yul\":11649:11655   */\n      dup1\n        /* \"#utility.yul\":11657:11663   */\n      0x00\n        /* \"#utility.yul\":11665:11671   */\n      dup1\n        /* \"#utility.yul\":11673:11679   */\n      0x00\n        /* \"#utility.yul\":11681:11687   */\n      dup1\n        /* \"#utility.yul\":11734:11737   */\n      0xc0\n        /* \"#utility.yul\":11722:11731   */\n      dup8\n        /* \"#utility.yul\":11713:11720   */\n      dup10\n        /* \"#utility.yul\":11709:11732   */\n      sub\n        /* \"#utility.yul\":11705:11738   */\n      slt\n        /* \"#utility.yul\":11702:11755   */\n      iszero\n      tag_673\n      jumpi\n        /* \"#utility.yul\":11751:11752   */\n      0x00\n        /* \"#utility.yul\":11748:11749   */\n      dup1\n        /* \"#utility.yul\":11741:11753   */\n      revert\n        /* \"#utility.yul\":11702:11755   */\n    tag_673:\n        /* \"#utility.yul\":11790:11799   */\n      dup7\n        /* \"#utility.yul\":11777:11800   */\n      calldataload\n        /* \"#utility.yul\":11840:11844   */\n      0xff\n        /* \"#utility.yul\":11833:11838   */\n      dup2\n        /* \"#utility.yul\":11829:11845   */\n      and\n        /* \"#utility.yul\":11822:11827   */\n      dup2\n        /* \"#utility.yul\":11819:11846   */\n      eq\n        /* \"#utility.yul\":11809:11864   */\n      tag_674\n      jumpi\n        /* \"#utility.yul\":11860:11861   */\n      0x00\n        /* \"#utility.yul\":11857:11858   */\n      dup1\n        /* \"#utility.yul\":11850:11862   */\n      revert\n        /* \"#utility.yul\":11809:11864   */\n    tag_674:\n        /* \"#utility.yul\":11883:11888   */\n      swap6\n      pop\n        /* \"#utility.yul\":11907:11945   */\n      tag_675\n        /* \"#utility.yul\":11941:11943   */\n      0x20\n        /* \"#utility.yul\":11926:11944   */\n      dup9\n      add\n        /* \"#utility.yul\":11907:11945   */\n      tag_587\n      jump\t// in\n    tag_675:\n        /* \"#utility.yul\":11897:11945   */\n      swap5\n      pop\n        /* \"#utility.yul\":11964:12002   */\n      tag_676\n        /* \"#utility.yul\":11998:12000   */\n      0x40\n        /* \"#utility.yul\":11987:11996   */\n      dup9\n        /* \"#utility.yul\":11983:12001   */\n      add\n        /* \"#utility.yul\":11964:12002   */\n      tag_587\n      jump\t// in\n    tag_676:\n        /* \"#utility.yul\":11954:12002   */\n      swap4\n      pop\n        /* \"#utility.yul\":12021:12059   */\n      tag_677\n        /* \"#utility.yul\":12055:12057   */\n      0x60\n        /* \"#utility.yul\":12044:12053   */\n      dup9\n        /* \"#utility.yul\":12040:12058   */\n      add\n        /* \"#utility.yul\":12021:12059   */\n      tag_587\n      jump\t// in\n    tag_677:\n        /* \"#utility.yul\":12011:12059   */\n      swap3\n      pop\n        /* \"#utility.yul\":12078:12117   */\n      tag_678\n        /* \"#utility.yul\":12112:12115   */\n      0x80\n        /* \"#utility.yul\":12101:12110   */\n      dup9\n        /* \"#utility.yul\":12097:12116   */\n      add\n        /* \"#utility.yul\":12078:12117   */\n      tag_587\n      jump\t// in\n    tag_678:\n        /* \"#utility.yul\":12068:12117   */\n      swap2\n      pop\n        /* \"#utility.yul\":12136:12175   */\n      tag_679\n        /* \"#utility.yul\":12170:12173   */\n      0xa0\n        /* \"#utility.yul\":12159:12168   */\n      dup9\n        /* \"#utility.yul\":12155:12174   */\n      add\n        /* \"#utility.yul\":12136:12175   */\n      tag_587\n      jump\t// in\n    tag_679:\n        /* \"#utility.yul\":12126:12175   */\n      swap1\n      pop\n        /* \"#utility.yul\":11539:12181   */\n      swap3\n      swap6\n      pop\n      swap3\n      swap6\n      pop\n      swap3\n      swap6\n      jump\t// out\n        /* \"#utility.yul\":12368:12642   */\n    tag_134:\n        /* \"#utility.yul\":12426:12432   */\n      0x00\n        /* \"#utility.yul\":12479:12481   */\n      0x20\n        /* \"#utility.yul\":12467:12476   */\n      dup3\n        /* \"#utility.yul\":12458:12465   */\n      dup5\n        /* \"#utility.yul\":12454:12477   */\n      sub\n        /* \"#utility.yul\":12450:12482   */\n      slt\n        /* \"#utility.yul\":12447:12499   */\n      iszero\n      tag_682\n      jumpi\n        /* \"#utility.yul\":12495:12496   */\n      0x00\n        /* \"#utility.yul\":12492:12493   */\n      dup1\n        /* \"#utility.yul\":12485:12497   */\n      revert\n        /* \"#utility.yul\":12447:12499   */\n    tag_682:\n        /* \"#utility.yul\":12534:12543   */\n      dup2\n        /* \"#utility.yul\":12521:12544   */\n      calldataload\n        /* \"#utility.yul\":12584:12592   */\n      0xffffff\n        /* \"#utility.yul\":12577:12582   */\n      dup2\n        /* \"#utility.yul\":12573:12593   */\n      and\n        /* \"#utility.yul\":12566:12571   */\n      dup2\n        /* \"#utility.yul\":12563:12594   */\n      eq\n        /* \"#utility.yul\":12553:12612   */\n      tag_550\n      jumpi\n        /* \"#utility.yul\":12608:12609   */\n      0x00\n        /* \"#utility.yul\":12605:12606   */\n      dup1\n        /* \"#utility.yul\":12598:12610   */\n      revert\n        /* \"#utility.yul\":12647:12962   */\n    tag_148:\n        /* \"#utility.yul\":12715:12721   */\n      0x00\n        /* \"#utility.yul\":12723:12729   */\n      dup1\n        /* \"#utility.yul\":12776:12778   */\n      0x40\n        /* \"#utility.yul\":12764:12773   */\n      dup4\n        /* \"#utility.yul\":12755:12762   */\n      dup6\n        /* \"#utility.yul\":12751:12774   */\n      sub\n        /* \"#utility.yul\":12747:12779   */\n      slt\n        /* \"#utility.yul\":12744:12796   */\n      iszero\n      tag_685\n      jumpi\n        /* \"#utility.yul\":12792:12793   */\n      0x00\n        /* \"#utility.yul\":12789:12790   */\n      dup1\n        /* \"#utility.yul\":12782:12794   */\n      revert\n        /* \"#utility.yul\":12744:12796   */\n    tag_685:\n        /* \"#utility.yul\":12831:12840   */\n      dup3\n        /* \"#utility.yul\":12818:12841   */\n      calldataload\n        /* \"#utility.yul\":12850:12881   */\n      tag_686\n        /* \"#utility.yul\":12875:12880   */\n      dup2\n        /* \"#utility.yul\":12850:12881   */\n      tag_581\n      jump\t// in\n    tag_686:\n        /* \"#utility.yul\":12900:12905   */\n      swap5\n        /* \"#utility.yul\":12952:12954   */\n      0x20\n        /* \"#utility.yul\":12937:12955   */\n      swap4\n      swap1\n      swap4\n      add\n        /* \"#utility.yul\":12924:12956   */\n      calldataload\n      swap4\n      pop\n      pop\n      pop\n        /* \"#utility.yul\":12647:12962   */\n      jump\t// out\n        /* \"#utility.yul\":12967:13228   */\n    tag_153:\n        /* \"#utility.yul\":13146:13148   */\n      0x20\n        /* \"#utility.yul\":13135:13144   */\n      dup2\n        /* \"#utility.yul\":13128:13149   */\n      mstore\n        /* \"#utility.yul\":13109:13113   */\n      0x00\n        /* \"#utility.yul\":13166:13222   */\n      tag_550\n        /* \"#utility.yul\":13218:13220   */\n      0x20\n        /* \"#utility.yul\":13207:13216   */\n      dup4\n        /* \"#utility.yul\":13203:13221   */\n      add\n        /* \"#utility.yul\":13195:13201   */\n      dup5\n        /* \"#utility.yul\":13166:13222   */\n      tag_582\n      jump\t// in\n        /* \"#utility.yul\":13233:13360   */\n    tag_588:\n        /* \"#utility.yul\":13294:13304   */\n      0x4e487b71\n        /* \"#utility.yul\":13289:13292   */\n      0xe0\n        /* \"#utility.yul\":13285:13305   */\n      shl\n        /* \"#utility.yul\":13282:13283   */\n      0x00\n        /* \"#utility.yul\":13275:13306   */\n      mstore\n        /* \"#utility.yul\":13325:13329   */\n      0x11\n        /* \"#utility.yul\":13322:13323   */\n      0x04\n        /* \"#utility.yul\":13315:13330   */\n      mstore\n        /* \"#utility.yul\":13349:13353   */\n      0x24\n        /* \"#utility.yul\":13346:13347   */\n      0x00\n        /* \"#utility.yul\":13339:13354   */\n      revert\n        /* \"#utility.yul\":13365:13493   */\n    tag_159:\n        /* \"#utility.yul\":13432:13441   */\n      dup2\n      dup2\n      sub\n        /* \"#utility.yul\":13453:13464   */\n      dup2\n      dup2\n      gt\n        /* \"#utility.yul\":13450:13487   */\n      iszero\n      tag_214\n      jumpi\n        /* \"#utility.yul\":13467:13485   */\n      tag_214\n      tag_588\n      jump\t// in\n        /* \"#utility.yul\":13498:13625   */\n    tag_162:\n        /* \"#utility.yul\":13559:13569   */\n      0x4e487b71\n        /* \"#utility.yul\":13554:13557   */\n      0xe0\n        /* \"#utility.yul\":13550:13570   */\n      shl\n        /* \"#utility.yul\":13547:13548   */\n      0x00\n        /* \"#utility.yul\":13540:13571   */\n      mstore\n        /* \"#utility.yul\":13590:13594   */\n      0x32\n        /* \"#utility.yul\":13587:13588   */\n      0x04\n        /* \"#utility.yul\":13580:13595   */\n      mstore\n        /* \"#utility.yul\":13614:13618   */\n      0x24\n        /* \"#utility.yul\":13611:13612   */\n      0x00\n        /* \"#utility.yul\":13604:13619   */\n      revert\n        /* \"#utility.yul\":13630:13755   */\n    tag_188:\n        /* \"#utility.yul\":13695:13704   */\n      dup1\n      dup3\n      add\n        /* \"#utility.yul\":13716:13726   */\n      dup1\n      dup3\n      gt\n        /* \"#utility.yul\":13713:13749   */\n      iszero\n      tag_214\n      jumpi\n        /* \"#utility.yul\":13729:13747   */\n      tag_214\n      tag_588\n      jump\t// in\n        /* \"#utility.yul\":13760:13895   */\n    tag_194:\n        /* \"#utility.yul\":13799:13802   */\n      0x00\n        /* \"#utility.yul\":13820:13837   */\n      0x01\n      dup3\n      add\n        /* \"#utility.yul\":13817:13860   */\n      tag_699\n      jumpi\n        /* \"#utility.yul\":13840:13858   */\n      tag_699\n      tag_588\n      jump\t// in\n    tag_699:\n      pop\n        /* \"#utility.yul\":13887:13888   */\n      0x01\n        /* \"#utility.yul\":13876:13889   */\n      add\n      swap1\n        /* \"#utility.yul\":13760:13895   */\n      jump\t// out\n        /* \"#utility.yul\":14153:14337   */\n    tag_279:\n        /* \"#utility.yul\":14223:14229   */\n      0x00\n        /* \"#utility.yul\":14276:14278   */\n      0x20\n        /* \"#utility.yul\":14264:14273   */\n      dup3\n        /* \"#utility.yul\":14255:14262   */\n      dup5\n        /* \"#utility.yul\":14251:14274   */\n      sub\n        /* \"#utility.yul\":14247:14279   */\n      slt\n        /* \"#utility.yul\":14244:14296   */\n      iszero\n      tag_702\n      jumpi\n        /* \"#utility.yul\":14292:14293   */\n      0x00\n        /* \"#utility.yul\":14289:14290   */\n      dup1\n        /* \"#utility.yul\":14282:14294   */\n      revert\n        /* \"#utility.yul\":14244:14296   */\n    tag_702:\n      pop\n        /* \"#utility.yul\":14315:14331   */\n      mload\n      swap2\n        /* \"#utility.yul\":14153:14337   */\n      swap1\n      pop\n      jump\t// out\n        /* \"#utility.yul\":14342:14539   */\n    tag_285:\n      sub(shl(0x80, 0x01), 0x01)\n        /* \"#utility.yul\":14464:14474   */\n      dup2\n      dup2\n      and\n        /* \"#utility.yul\":14476:14486   */\n      dup4\n      dup3\n      and\n        /* \"#utility.yul\":14460:14487   */\n      add\n      swap1\n        /* \"#utility.yul\":14499:14510   */\n      dup1\n      dup3\n      gt\n        /* \"#utility.yul\":14496:14533   */\n      iszero\n      tag_705\n      jumpi\n        /* \"#utility.yul\":14513:14531   */\n      tag_705\n      tag_588\n      jump\t// in\n    tag_705:\n        /* \"#utility.yul\":14496:14533   */\n      pop\n        /* \"#utility.yul\":14342:14539   */\n      swap3\n      swap2\n      pop\n      pop\n      jump\t// out\n        /* \"#utility.yul\":15011:15138   */\n    tag_589:\n        /* \"#utility.yul\":15072:15082   */\n      0x4e487b71\n        /* \"#utility.yul\":15067:15070   */\n      0xe0\n        /* \"#utility.yul\":15063:15083   */\n      shl\n        /* \"#utility.yul\":15060:15061   */\n      0x00\n        /* \"#utility.yul\":15053:15084   */\n      mstore\n        /* \"#utility.yul\":15103:15107   */\n      0x12\n        /* \"#utility.yul\":15100:15101   */\n      0x04\n        /* \"#utility.yul\":15093:15108   */\n      mstore\n        /* \"#utility.yul\":15127:15131   */\n      0x24\n        /* \"#utility.yul\":15124:15125   */\n      0x00\n        /* \"#utility.yul\":15117:15132   */\n      revert\n        /* \"#utility.yul\":15143:15255   */\n    tag_331:\n        /* \"#utility.yul\":15175:15176   */\n      0x00\n        /* \"#utility.yul\":15201:15202   */\n      dup3\n        /* \"#utility.yul\":15191:15226   */\n      tag_710\n      jumpi\n        /* \"#utility.yul\":15206:15224   */\n      tag_710\n      tag_589\n      jump\t// in\n    tag_710:\n      pop\n        /* \"#utility.yul\":15240:15249   */\n      mod\n      swap1\n        /* \"#utility.yul\":15143:15255   */\n      jump\t// out\n        /* \"#utility.yul\":15260:15444   */\n    tag_410:\n        /* \"#utility.yul\":15318:15324   */\n      0x00\n        /* \"#utility.yul\":15371:15373   */\n      0x20\n        /* \"#utility.yul\":15359:15368   */\n      dup3\n        /* \"#utility.yul\":15350:15357   */\n      dup5\n        /* \"#utility.yul\":15346:15369   */\n      sub\n        /* \"#utility.yul\":15342:15374   */\n      slt\n        /* \"#utility.yul\":15339:15391   */\n      iszero\n      tag_712\n      jumpi\n        /* \"#utility.yul\":15387:15388   */\n      0x00\n        /* \"#utility.yul\":15384:15385   */\n      dup1\n        /* \"#utility.yul\":15377:15389   */\n      revert\n        /* \"#utility.yul\":15339:15391   */\n    tag_712:\n        /* \"#utility.yul\":15410:15438   */\n      tag_550\n        /* \"#utility.yul\":15428:15437   */\n      dup3\n        /* \"#utility.yul\":15410:15438   */\n      tag_586\n      jump\t// in\n        /* \"#utility.yul\":15646:15920   */\n    tag_441:\n      sub(shl(0x80, 0x01), 0x01)\n        /* \"#utility.yul\":15784:15794   */\n      dup2\n      dup2\n      and\n        /* \"#utility.yul\":15796:15806   */\n      dup4\n      dup3\n      and\n        /* \"#utility.yul\":15780:15807   */\n      mul\n        /* \"#utility.yul\":15827:15847   */\n      dup1\n      dup3\n      and\n      swap2\n        /* \"#utility.yul\":15718:15752   */\n      swap1\n        /* \"#utility.yul\":15866:15890   */\n      dup3\n      dup2\n      eq\n        /* \"#utility.yul\":15856:15914   */\n      tag_717\n      jumpi\n        /* \"#utility.yul\":15894:15912   */\n      tag_717\n      tag_588\n      jump\t// in\n    tag_717:\n        /* \"#utility.yul\":15856:15914   */\n      pop\n      pop\n        /* \"#utility.yul\":15646:15920   */\n      swap3\n      swap2\n      pop\n      pop\n      jump\t// out\n        /* \"#utility.yul\":15925:16176   */\n    tag_448:\n        /* \"#utility.yul\":15995:16001   */\n      0x00\n        /* \"#utility.yul\":16048:16050   */\n      0x20\n        /* \"#utility.yul\":16036:16045   */\n      dup3\n        /* \"#utility.yul\":16027:16034   */\n      dup5\n        /* \"#utility.yul\":16023:16046   */\n      sub\n        /* \"#utility.yul\":16019:16051   */\n      slt\n        /* \"#utility.yul\":16016:16068   */\n      iszero\n      tag_719\n      jumpi\n        /* \"#utility.yul\":16064:16065   */\n      0x00\n        /* \"#utility.yul\":16061:16062   */\n      dup1\n        /* \"#utility.yul\":16054:16066   */\n      revert\n        /* \"#utility.yul\":16016:16068   */\n    tag_719:\n        /* \"#utility.yul\":16096:16105   */\n      dup2\n        /* \"#utility.yul\":16090:16106   */\n      mload\n        /* \"#utility.yul\":16115:16146   */\n      tag_550\n        /* \"#utility.yul\":16140:16145   */\n      dup2\n        /* \"#utility.yul\":16115:16146   */\n      tag_581\n      jump\t// in\n        /* \"#utility.yul\":16181:16397   */\n    tag_452:\n        /* \"#utility.yul\":16221:16222   */\n      0x00\n      sub(shl(0x80, 0x01), 0x01)\n        /* \"#utility.yul\":16308:16310   */\n      dup1\n        /* \"#utility.yul\":16305:16306   */\n      dup5\n        /* \"#utility.yul\":16301:16311   */\n      and\n        /* \"#utility.yul\":16330:16333   */\n      dup1\n        /* \"#utility.yul\":16320:16357   */\n      tag_723\n      jumpi\n        /* \"#utility.yul\":16337:16355   */\n      tag_723\n      tag_589\n      jump\t// in\n    tag_723:\n        /* \"#utility.yul\":16375:16385   */\n      swap3\n      and\n        /* \"#utility.yul\":16371:16391   */\n      swap2\n      swap1\n      swap2\n      div\n      swap3\n        /* \"#utility.yul\":16181:16397   */\n      swap2\n      pop\n      pop\n      jump\t// out\n        /* \"#utility.yul\":16402:16602   */\n    tag_456:\n      sub(shl(0x80, 0x01), 0x01)\n        /* \"#utility.yul\":16538:16548   */\n      dup3\n      dup2\n      and\n        /* \"#utility.yul\":16526:16536   */\n      dup3\n      dup3\n      and\n        /* \"#utility.yul\":16522:16549   */\n      sub\n      swap1\n        /* \"#utility.yul\":16561:16573   */\n      dup1\n      dup3\n      gt\n        /* \"#utility.yul\":16558:16596   */\n      iszero\n      tag_705\n      jumpi\n        /* \"#utility.yul\":16576:16594   */\n      tag_705\n      tag_588\n      jump\t// in\n        /* \"#utility.yul\":16607:17374   */\n    tag_458:\n        /* \"#utility.yul\":16873:16898   */\n      dup5\n      dup2\n      mstore\n        /* \"#utility.yul\":16917:16919   */\n      0x20\n        /* \"#utility.yul\":16935:16953   */\n      dup1\n      dup3\n      add\n        /* \"#utility.yul\":16928:16962   */\n      dup6\n      swap1\n      mstore\n        /* \"#utility.yul\":16861:16863   */\n      0x60\n        /* \"#utility.yul\":16993:16995   */\n      0x40\n        /* \"#utility.yul\":16978:16996   */\n      dup4\n      add\n        /* \"#utility.yul\":16971:17001   */\n      dup2\n      swap1\n      mstore\n        /* \"#utility.yul\":16846:16864   */\n      dup3\n      add\n        /* \"#utility.yul\":17036:17058   */\n      dup4\n      swap1\n      mstore\n        /* \"#utility.yul\":16813:16817   */\n      0x00\n      swap1\n        /* \"#utility.yul\":17116:17122   */\n      dup5\n      swap1\n        /* \"#utility.yul\":17089:17092   */\n      0x80\n        /* \"#utility.yul\":17074:17093   */\n      dup5\n      add\n        /* \"#utility.yul\":16813:16817   */\n      dup4\n        /* \"#utility.yul\":17150:17348   */\n    tag_728:\n        /* \"#utility.yul\":17164:17170   */\n      dup7\n        /* \"#utility.yul\":17161:17162   */\n      dup2\n        /* \"#utility.yul\":17158:17171   */\n      lt\n        /* \"#utility.yul\":17150:17348   */\n      iszero\n      tag_730\n      jumpi\n        /* \"#utility.yul\":17256:17266   */\n      0xffffffff\n        /* \"#utility.yul\":17229:17254   */\n      tag_731\n        /* \"#utility.yul\":17247:17253   */\n      dup6\n        /* \"#utility.yul\":17229:17254   */\n      tag_586\n      jump\t// in\n    tag_731:\n        /* \"#utility.yul\":17225:17267   */\n      and\n        /* \"#utility.yul\":17213:17268   */\n      dup3\n      mstore\n        /* \"#utility.yul\":17323:17338   */\n      swap3\n      dup3\n      add\n      swap3\n        /* \"#utility.yul\":17288:17300   */\n      swap1\n      dup3\n      add\n      swap1\n        /* \"#utility.yul\":17186:17187   */\n      0x01\n        /* \"#utility.yul\":17179:17188   */\n      add\n        /* \"#utility.yul\":17150:17348   */\n      jump(tag_728)\n    tag_730:\n      pop\n        /* \"#utility.yul\":17365:17368   */\n      swap9\n        /* \"#utility.yul\":16607:17374   */\n      swap8\n      pop\n      pop\n      pop\n      pop\n      pop\n      pop\n      pop\n      pop\n      jump\t// out\n        /* \"#utility.yul\":17379:17801   */\n    tag_590:\n        /* \"#utility.yul\":17468:17469   */\n      0x01\n        /* \"#utility.yul\":17511:17516   */\n      dup2\n        /* \"#utility.yul\":17468:17469   */\n      dup2\n        /* \"#utility.yul\":17525:17795   */\n    tag_733:\n        /* \"#utility.yul\":17546:17553   */\n      dup1\n        /* \"#utility.yul\":17536:17544   */\n      dup6\n        /* \"#utility.yul\":17533:17554   */\n      gt\n        /* \"#utility.yul\":17525:17795   */\n      iszero\n      tag_735\n      jumpi\n        /* \"#utility.yul\":17605:17609   */\n      dup2\n        /* \"#utility.yul\":17601:17602   */\n      0x00\n        /* \"#utility.yul\":17597:17603   */\n      not\n        /* \"#utility.yul\":17593:17610   */\n      div\n        /* \"#utility.yul\":17587:17591   */\n      dup3\n        /* \"#utility.yul\":17584:17611   */\n      gt\n        /* \"#utility.yul\":17581:17634   */\n      iszero\n      tag_737\n      jumpi\n        /* \"#utility.yul\":17614:17632   */\n      tag_737\n      tag_588\n      jump\t// in\n    tag_737:\n        /* \"#utility.yul\":17664:17671   */\n      dup1\n        /* \"#utility.yul\":17654:17662   */\n      dup6\n        /* \"#utility.yul\":17650:17672   */\n      and\n        /* \"#utility.yul\":17647:17702   */\n      iszero\n      tag_738\n      jumpi\n        /* \"#utility.yul\":17684:17700   */\n      swap2\n      dup2\n      mul\n      swap2\n        /* \"#utility.yul\":17647:17702   */\n    tag_738:\n        /* \"#utility.yul\":17763:17785   */\n      swap4\n      dup5\n      shr\n      swap4\n        /* \"#utility.yul\":17723:17738   */\n      swap1\n      dup1\n      mul\n      swap1\n        /* \"#utility.yul\":17525:17795   */\n      jump(tag_733)\n    tag_735:\n        /* \"#utility.yul\":17529:17532   */\n      pop\n        /* \"#utility.yul\":17379:17801   */\n      swap3\n      pop\n      swap3\n      swap1\n      pop\n      jump\t// out\n        /* \"#utility.yul\":17806:18612   */\n    tag_591:\n        /* \"#utility.yul\":17855:17860   */\n      0x00\n        /* \"#utility.yul\":17885:17893   */\n      dup3\n        /* \"#utility.yul\":17875:17955   */\n      tag_740\n      jumpi\n      pop\n        /* \"#utility.yul\":17926:17927   */\n      0x01\n        /* \"#utility.yul\":17940:17945   */\n      jump(tag_214)\n        /* \"#utility.yul\":17875:17955   */\n    tag_740:\n        /* \"#utility.yul\":17974:17978   */\n      dup2\n        /* \"#utility.yul\":17964:18040   */\n      tag_741\n      jumpi\n      pop\n        /* \"#utility.yul\":18011:18012   */\n      0x00\n        /* \"#utility.yul\":18025:18030   */\n      jump(tag_214)\n        /* \"#utility.yul\":17964:18040   */\n    tag_741:\n        /* \"#utility.yul\":18056:18060   */\n      dup2\n        /* \"#utility.yul\":18074:18075   */\n      0x01\n        /* \"#utility.yul\":18069:18128   */\n      dup2\n      eq\n      tag_743\n      jumpi\n        /* \"#utility.yul\":18142:18143   */\n      0x02\n        /* \"#utility.yul\":18137:18267   */\n      dup2\n      eq\n      tag_744\n      jumpi\n        /* \"#utility.yul\":18049:18267   */\n      jump(tag_742)\n        /* \"#utility.yul\":18069:18128   */\n    tag_743:\n        /* \"#utility.yul\":18099:18100   */\n      0x01\n        /* \"#utility.yul\":18090:18100   */\n      swap2\n      pop\n        /* \"#utility.yul\":18113:18118   */\n      pop\n      jump(tag_214)\n        /* \"#utility.yul\":18137:18267   */\n    tag_744:\n        /* \"#utility.yul\":18174:18177   */\n      0xff\n        /* \"#utility.yul\":18164:18172   */\n      dup5\n        /* \"#utility.yul\":18161:18178   */\n      gt\n        /* \"#utility.yul\":18158:18201   */\n      iszero\n      tag_746\n      jumpi\n        /* \"#utility.yul\":18181:18199   */\n      tag_746\n      tag_588\n      jump\t// in\n    tag_746:\n      pop\n      pop\n        /* \"#utility.yul\":18237:18238   */\n      0x01\n        /* \"#utility.yul\":18223:18239   */\n      dup3\n      shl\n        /* \"#utility.yul\":18252:18257   */\n      jump(tag_214)\n        /* \"#utility.yul\":18049:18267   */\n    tag_742:\n      pop\n        /* \"#utility.yul\":18351:18353   */\n      0x20\n        /* \"#utility.yul\":18341:18349   */\n      dup4\n        /* \"#utility.yul\":18338:18354   */\n      lt\n        /* \"#utility.yul\":18332:18335   */\n      0x0133\n        /* \"#utility.yul\":18326:18330   */\n      dup4\n        /* \"#utility.yul\":18323:18336   */\n      lt\n        /* \"#utility.yul\":18319:18355   */\n      and\n        /* \"#utility.yul\":18313:18315   */\n      0x4e\n        /* \"#utility.yul\":18303:18311   */\n      dup5\n        /* \"#utility.yul\":18300:18316   */\n      lt\n        /* \"#utility.yul\":18295:18297   */\n      0x0b\n        /* \"#utility.yul\":18289:18293   */\n      dup5\n        /* \"#utility.yul\":18286:18298   */\n      lt\n        /* \"#utility.yul\":18282:18317   */\n      and\n        /* \"#utility.yul\":18279:18356   */\n      or\n        /* \"#utility.yul\":18276:18435   */\n      iszero\n      tag_747\n      jumpi\n      pop\n        /* \"#utility.yul\":18388:18407   */\n      dup2\n      dup2\n      exp\n        /* \"#utility.yul\":18420:18425   */\n      jump(tag_214)\n        /* \"#utility.yul\":18276:18435   */\n    tag_747:\n        /* \"#utility.yul\":18467:18501   */\n      tag_748\n        /* \"#utility.yul\":18492:18500   */\n      dup4\n        /* \"#utility.yul\":18486:18490   */\n      dup4\n        /* \"#utility.yul\":18467:18501   */\n      tag_590\n      jump\t// in\n    tag_748:\n        /* \"#utility.yul\":18537:18543   */\n      dup1\n        /* \"#utility.yul\":18533:18534   */\n      0x00\n        /* \"#utility.yul\":18529:18535   */\n      not\n        /* \"#utility.yul\":18525:18544   */\n      div\n        /* \"#utility.yul\":18516:18523   */\n      dup3\n        /* \"#utility.yul\":18513:18545   */\n      gt\n        /* \"#utility.yul\":18510:18568   */\n      iszero\n      tag_750\n      jumpi\n        /* \"#utility.yul\":18548:18566   */\n      tag_750\n      tag_588\n      jump\t// in\n    tag_750:\n        /* \"#utility.yul\":18586:18606   */\n      mul\n      swap4\n        /* \"#utility.yul\":17806:18612   */\n      swap3\n      pop\n      pop\n      pop\n      jump\t// out\n        /* \"#utility.yul\":18617:18757   */\n    tag_480:\n        /* \"#utility.yul\":18675:18680   */\n      0x00\n        /* \"#utility.yul\":18704:18751   */\n      tag_550\n        /* \"#utility.yul\":18745:18749   */\n      0xff\n        /* \"#utility.yul\":18735:18743   */\n      dup5\n        /* \"#utility.yul\":18731:18750   */\n      and\n        /* \"#utility.yul\":18725:18729   */\n      dup4\n        /* \"#utility.yul\":18704:18751   */\n      tag_591\n      jump\t// in\n        /* \"#utility.yul\":21394:21671   */\n    tag_545:\n        /* \"#utility.yul\":21461:21467   */\n      0x00\n        /* \"#utility.yul\":21514:21516   */\n      0x20\n        /* \"#utility.yul\":21502:21511   */\n      dup3\n        /* \"#utility.yul\":21493:21500   */\n      dup5\n        /* \"#utility.yul\":21489:21512   */\n      sub\n        /* \"#utility.yul\":21485:21517   */\n      slt\n        /* \"#utility.yul\":21482:21534   */\n      iszero\n      tag_760\n      jumpi\n        /* \"#utility.yul\":21530:21531   */\n      0x00\n        /* \"#utility.yul\":21527:21528   */\n      dup1\n        /* \"#utility.yul\":21520:21532   */\n      revert\n        /* \"#utility.yul\":21482:21534   */\n    tag_760:\n        /* \"#utility.yul\":21562:21571   */\n      dup2\n        /* \"#utility.yul\":21556:21572   */\n      mload\n        /* \"#utility.yul\":21615:21620   */\n      dup1\n        /* \"#utility.yul\":21608:21621   */\n      iszero\n        /* \"#utility.yul\":21601:21622   */\n      iszero\n        /* \"#utility.yul\":21594:21599   */\n      dup2\n        /* \"#utility.yul\":21591:21623   */\n      eq\n        /* \"#utility.yul\":21581:21641   */\n      tag_550\n      jumpi\n        /* \"#utility.yul\":21637:21638   */\n      0x00\n        /* \"#utility.yul\":21634:21635   */\n      dup1\n        /* \"#utility.yul\":21627:21639   */\n      revert\n        /* \"#utility.yul\":21676:22088   */\n    tag_556:\n        /* \"#utility.yul\":21805:21808   */\n      0x00\n        /* \"#utility.yul\":21843:21849   */\n      dup3\n        /* \"#utility.yul\":21837:21850   */\n      mload\n        /* \"#utility.yul\":21868:21869   */\n      0x00\n        /* \"#utility.yul\":21878:22007   */\n    tag_763:\n        /* \"#utility.yul\":21892:21898   */\n      dup2\n        /* \"#utility.yul\":21889:21890   */\n      dup2\n        /* \"#utility.yul\":21886:21899   */\n      lt\n        /* \"#utility.yul\":21878:22007   */\n      iszero\n      tag_765\n      jumpi\n        /* \"#utility.yul\":21990:21994   */\n      0x20\n        /* \"#utility.yul\":21974:21988   */\n      dup2\n      dup7\n      add\n        /* \"#utility.yul\":21970:21995   */\n      dup2\n      add\n        /* \"#utility.yul\":21964:21996   */\n      mload\n        /* \"#utility.yul\":21951:21962   */\n      dup6\n      dup4\n      add\n        /* \"#utility.yul\":21944:21997   */\n      mstore\n        /* \"#utility.yul\":21907:21919   */\n      add\n        /* \"#utility.yul\":21878:22007   */\n      jump(tag_763)\n    tag_765:\n      pop\n        /* \"#utility.yul\":22062:22063   */\n      0x00\n        /* \"#utility.yul\":22026:22042   */\n      swap3\n      add\n        /* \"#utility.yul\":22051:22064   */\n      swap2\n      dup3\n      mstore\n      pop\n        /* \"#utility.yul\":22026:22042   */\n      swap2\n        /* \"#utility.yul\":21676:22088   */\n      swap1\n      pop\n      jump\t// out\n\n    auxdata: 0xa26469706673582212200b75695aa4e833eff7a51fef126d71c88303ef1a3adb1525e71249d6c9f947ec64736f6c63430008140033\n}\n",
				"bytecode": {
					"linkReferences": {},
					"object": "60c060405234801562000010575f80fd5b5060405162003a8138038062003a8183398101604081905262000033916200010a565b33806200005957604051631e4fbdf760e01b81525f600482015260240160405180910390fd5b62000064816200009f565b505f805462ffffff909416600160a01b0262ffffff60a01b19909416939093179092556001600160a01b039081166080521660a05262000159565b5f80546001600160a01b038381166001600160a01b0319831681178455604051919092169283917f8be0079c531659141344cd1fd0a4f28419497f9722a3daafe3b4186f6b6457e09190a35050565b80516001600160a01b038116811462000105575f80fd5b919050565b5f805f606084860312156200011d575f80fd5b835162ffffff8116811462000130575f80fd5b92506200014060208501620000ee565b91506200015060408501620000ee565b90509250925092565b60805160a0516138e36200019e5f395f818161030101526120b101525f81816102da01528181610dc20152818161206901528181612b060152612bc001526138e35ff3fe608060405234801561000f575f80fd5b50600436106101bb575f3560e01c80636f8af123116100f3578063b2a89b0811610093578063e53a73451161006e578063e53a7345146104a6578063ed092451146104b9578063f19c3d5b146104cc578063f2fde38b146104e1575f80fd5b8063b2a89b081461046d578063bab0cbce14610480578063cfd6aa9014610493575f80fd5b806386d32015116100ce57806386d320151461041857806389ba4116146104375780638da5cb5b1461044a578063acca07b11461045a575f80fd5b80636f8af123146103da578063715018a6146103fb57806384ae2bc614610403575f80fd5b80632f48ab7d1161015e57806338ba46141161013957806338ba4614146103435780633b0e443c146103565780634930cc991461038f5780636ed93dd0146103bc575f80fd5b80632f48ab7d146102d55780632facd139146102fc57806334bfb32f14610323575f80fd5b806321f6a5781161019957806321f6a5781461026b578063258601031461028d5780632bbb1444146102ad5780632e5a74b9146102c2575f80fd5b80630358abfc146101bf57806309f2c0191461021b5780631ef4d1fd14610240575b5f80fd5b6101d26101cd36600461301d565b6104f4565b604080516001600160801b03978816815295871660208701529390951692840192909252606083015263ffffffff16608082015290151560a082015260c0015b60405180910390f35b61022e61022936600461303d565b6105be565b60405161021296959493929190613054565b600154610253906001600160a01b031681565b6040516001600160a01b039091168152602001610212565b61027e6102793660046130a3565b610709565b604051610212939291906130f7565b6102a061029b36600461301d565b6109d1565b6040516102129190613189565b6102c06102bb3660046131e3565b610a65565b005b6102c06102d036600461303d565b610df1565b6102537f000000000000000000000000000000000000000000000000000000000000000081565b6102537f000000000000000000000000000000000000000000000000000000000000000081565b610336610331366004613260565b611377565b604051610212919061331c565b6102c0610351366004613342565b611618565b61025361036436600461341f565b600460209081525f93845260408085208252928452828420905282529020546001600160a01b031681565b6103ae61039d3660046130a3565b60036020525f908152604090205481565b604051908152602001610212565b6103c6620f424081565b60405162ffffff9091168152602001610212565b6103ed6103e83660046130a3565b611725565b604051610212929190613451565b6102c0611afb565b5f546103c690600160a01b900462ffffff1681565b6103ae6104263660046130a3565b60026020525f908152604090205481565b6102c0610445366004613472565b611b0e565b5f546001600160a01b0316610253565b6103ae6104683660046134d7565b6125c7565b6102c061047b36600461354e565b612912565b61033661048e3660046130a3565b6129ae565b6102c06104a13660046130a3565b612ac8565b6102c06104b43660046130a3565b612af2565b6102c06104c7366004613570565b612b84565b6104d4612beb565b604051610212919061359a565b6102c06104ef3660046130a3565b612c41565b5f82815260086020526040812081908190819081908190819060030161051b60018a6135c0565b8154811061052b5761052b6135d3565b5f9182526020918290206040805160c08101825260049390930290910180546001600160801b03808216808652600160801b909204811695850186905260018301541692840183905260028201546060850181905260039092015463ffffffff811660808601819052600160201b90910460ff16151560a0909501859052909e949d50919b509950975095509350505050565b5f818152600860209081526040808320815160c08101835281546001600160801b038082168352600160801b91829004811683870152600184015480821684870152919091048116606083015260028301541660808201526003820180548451818702810187019095528085528695869586958695869586959194929360a0860193909290879084015b828210156106d0575f8481526020908190206040805160c0810182526004860290920180546001600160801b038082168552600160801b90910481168486015260018083015490911692840192909252600281015460608401526003015463ffffffff81166080840152600160201b900460ff16151560a08301529083529092019101610648565b505050915250508051602082015160408301516060840151608085015160a09095015151939d929c50909a509850919650945092505050565b6060805f8061071785611725565b5090505f815167ffffffffffffffff8111156107355761073561332e565b60405190808252806020026020018201604052801561075e578160200160208202803683370190505b5090505f825167ffffffffffffffff81111561077c5761077c61332e565b6040519080825280602002602001820160405280156107a5578160200160208202803683370190505b5090505f805b84518110156108af575f8582815181106107c7576107c76135d3565b6020908102919091018101518051818301515f8281526008909452604090932091935091906003016107fa6001836135c0565b8154811061080a5761080a6135d3565b905f5260205f20906004020160030160049054906101000a900460ff16610899575f8281526008602052604090205461084c906001600160801b03168a6135e7565b985081878681518110610861576108616135d3565b60200260200101818152505080868681518110610880576108806135d3565b602090810291909101015284610895816135fa565b9550505b50505080806108a7906135fa565b9150506107ab565b508067ffffffffffffffff8111156108c9576108c961332e565b6040519080825280602002602001820160405280156108f2578160200160208202803683370190505b5096508067ffffffffffffffff81111561090e5761090e61332e565b604051908082528060200260200182016040528015610937578160200160208202803683370190505b5095505f5b818110156109c557838181518110610956576109566135d3565b6020026020010151888281518110610970576109706135d3565b60200260200101818152505082818151811061098e5761098e6135d3565b60200260200101518782815181106109a8576109a86135d3565b6020908102919091010152806109bd816135fa565b91505061093c565b50505050509193909250565b5f828152600660209081526040808320848452825291829020805483518184028101840190945280845260609392830182828015610a5757602002820191905f5260205f20905f905b82829054906101000a900463ffffffff1663ffffffff1681526020019060040190602082600301049283019260010382029150808411610a1a5790505b505050505090505b92915050565b828114610a855760405163dba17af560e01b815260040160405180910390fd5b5f805b84811015610db4575f60085f888885818110610aa657610aa66135d3565b9050602002013581526020019081526020015f206003016001868685818110610ad157610ad16135d3565b90506020020135610ae291906135c0565b81548110610af257610af26135d3565b5f918252602082206003600490920201015463ffffffff169150600881898986818110610b2157610b216135d3565b9050602002013581526020019081526020015f206003016001878786818110610b4c57610b4c6135d3565b90506020020135610b5d91906135c0565b81548110610b6d57610b6d6135d3565b5f918252602082206003600490920201015460ff600160201b90910416915063ffffffff83169003610bb257604051630cb8443360e41b815260040160405180910390fd5b8015610bd157604051630c8d9eab60e31b815260040160405180910390fd5b60045f898986818110610be657610be66135d3565b9050602002013581526020019081526020015f205f878786818110610c0d57610c0d6135d3565b602090810292909201358352508181019290925260409081015f90812063ffffffff861682529092529020546001600160a01b03163314610c61576040516330c6392160e11b815260040160405180910390fd5b60085f898986818110610c7657610c766135d3565b602090810292909201358352508101919091526040015f2054610ca2906001600160801b0316856135e7565b9350600160085f8a8a87818110610cbb57610cbb6135d3565b9050602002013581526020019081526020015f206003016001888887818110610ce657610ce66135d3565b90506020020135610cf791906135c0565b81548110610d0757610d076135d3565b905f5260205f20906004020160030160046101000a81548160ff0219169083151502179055507f1128bee023f7dcf9b3f27e6d488df4c2b5a149077a2e3437a16e8dfdbfe0f38d888885818110610d6057610d606135d3565b90506020020135878786818110610d7957610d796135d3565b90506020020135604051610d97929190918252602082015260400190565b60405180910390a150508080610dac906135fa565b915050610a88565b50610de96001600160a01b037f0000000000000000000000000000000000000000000000000000000000000000168783612c7e565b505050505050565b5f818152600860209081526040808320815160c08101835281546001600160801b038082168352600160801b91829004811683870152600184015480821684870152919091048116606083015260028301541660808201526003820180548451818702810187019095528085529194929360a0860193909290879084015b82821015610ef7575f8481526020908190206040805160c0810182526004860290920180546001600160801b038082168552600160801b90910481168486015260018083015490911692840192909252600281015460608401526003015463ffffffff81166080840152600160201b900460ff16151560a08301529083529092019101610e6f565b5050509152505060a0810151519091505f819003610f28576040516301dbb3ff60e61b815260040160405180910390fd5b5f838152600860205260408120600301610f436001846135c0565b81548110610f5357610f536135d3565b5f9182526020918290206040805160c081018252600490930290910180546001600160801b038082168552600160801b909104811694840185905260018201541691830191909152600281015460608301526003015463ffffffff8116608083015260ff600160201b90910416151560a08201529150421015610fe957604051631a6031a360e31b815260040160405180910390fd5b60608101511561100c5760405163097e1d9b60e01b815260040160405180910390fd5b6001546040805163e0c8628960e01b815290515f926001600160a01b03169163e0c86289916004808301926020929190829003018187875af1158015611054573d5f803e3d5ffd5b505050506040513d601f19601f820116820180604052508101906110789190613612565b60408051808201825287815260208082018781525f85815260078352848120935184559051600193840155606087018590528981526008909152919091209192508391600301906110c990866135c0565b815481106110d9576110d96135d3565b5f91825260208083208451918501516001600160801b03908116600160801b02928116929092176004909302019182556040840151600183018054919092166001600160801b031991909116179055606083015160028201556080808401516003909201805460a0909501511515600160201b0264ffffffffff1990951663ffffffff90931692909217939093179055908501516111779042613629565b90505f85606001518261118a9190613629565b90505f6040518060c00160405280846001600160801b03168152602001836001600160801b0316815260200188602001516001600160801b031681526020015f81526020015f63ffffffff1681526020015f1515815250905060085f8981526020019081526020015f2060030181908060018154018082558091505060019003905f5260205f2090600402015f909190919091505f820151815f015f6101000a8154816001600160801b0302191690836001600160801b031602179055506020820151815f0160106101000a8154816001600160801b0302191690836001600160801b031602179055506040820151816001015f6101000a8154816001600160801b0302191690836001600160801b03160217905550606082015181600201556080820151816003015f6101000a81548163ffffffff021916908363ffffffff16021790555060a08201518160030160046101000a81548160ff02191690831515021790555050505f60085f8a81526020019081526020015f206003018054905090507f9b4e1f1b6df74eff26420e77ce7891d410b236932a083b7c18d599fbd654a8c789828686604051611364949392919093845260208401929092526001600160801b03908116604084015216606082015260800190565b60405180910390a1505050505050505050565b6001600160a01b0383165f908152600560209081526040808320805482518185028101850190935280835260609493849084015b82821015611483578382905f5260205f2090600502016040518060a00160405290815f82015481526020016001820154815260200160028201548152602001600382015481526020016004820180548060200260200160405190810160405280929190818152602001828054801561146b57602002820191905f5260205f20905f905b82829054906101000a900463ffffffff1663ffffffff168152602001906004019060208260030104928301926001038202915080841161142e5790505b505050505081525050815260200190600101906113ab565b5050505090505f815167ffffffffffffffff8111156114a4576114a461332e565b6040519080825280602002602001820160405280156114dd57816020015b6114ca612f2f565b8152602001906001900390816114c25790505b5090505f805b8351811015611563575f8482815181106114ff576114ff6135d3565b60200260200101519050805f01518814801561151e5750806020015187145b156115505780848481518110611536576115366135d3565b6020026020010181905250828061154c906135fa565b9350505b508061155b816135fa565b9150506114e3565b508067ffffffffffffffff81111561157d5761157d61332e565b6040519080825280602002602001820160405280156115b657816020015b6115a3612f2f565b81526020019060019003908161159b5790505b5093505f5b8181101561160d578281815181106115d5576115d56135d3565b60200260200101518582815181106115ef576115ef6135d3565b60200260200101819052508080611605906135fa565b9150506115bb565b505050509392505050565b6001546001600160a01b0316331461164357604051633bfe162b60e01b815260040160405180910390fd5b5f8281526007602090815260408083208151808301835281548082526001909201548185015290845260089092528220548351919291600160801b9091046001600160801b0316908490839061169b5761169b6135d3565b60200260200101516116ad9190613664565b6116b89060016135e7565b90508060085f845f015181526020019081526020015f20600301600184602001516116e391906135c0565b815481106116f3576116f36135d3565b905f5260205f2090600402016003015f6101000a81548163ffffffff021916908363ffffffff16021790555050505050565b6001600160a01b0381165f9081526005602090815260408083208054825181850281018501909352808352606094938493929190849084015b82821015611836578382905f5260205f2090600502016040518060a00160405290815f82015481526020016001820154815260200160028201548152602001600382015481526020016004820180548060200260200160405190810160405280929190818152602001828054801561181e57602002820191905f5260205f20905f905b82829054906101000a900463ffffffff1663ffffffff16815260200190600401906020826003010492830192600103820291508084116117e15790505b5050505050815250508152602001906001019061175e565b5050505090505f815167ffffffffffffffff8111156118575761185761332e565b60405190808252806020026020018201604052801561189057816020015b61187d612f2f565b8152602001906001900390816118755790505b5090505f805b8351811015611a48575f8482815181106118b2576118b26135d3565b6020908102919091018101518051818301515f828152600890945260408420929450909290916003016118e66001846135c0565b815481106118f6576118f66135d3565b5f918252602082206003600490920201015463ffffffff1691505b8460600151811015611a305784608001518181518110611933576119336135d3565b602002602001015163ffffffff168263ffffffff1603611a1e576040805160018082528183019092525f916020808301908036833701905050905082815f81518110611981576119816135d3565b602002602001019063ffffffff16908163ffffffff16815250506040518060a001604052808681526020018581526020018760400151815260200160018152602001828152508989815181106119d9576119d96135d3565b6020908102919091018101919091525f86815260089091526040902054611a09906001600160801b03168c6135e7565b9a5087611a15816135fa565b98505050611a30565b80611a28816135fa565b915050611911565b50505050508080611a40906135fa565b915050611896565b508067ffffffffffffffff811115611a6257611a6261332e565b604051908082528060200260200182016040528015611a9b57816020015b611a88612f2f565b815260200190600190039081611a805790505b5094505f5b81811015611af257828181518110611aba57611aba6135d3565b6020026020010151868281518110611ad457611ad46135d3565b60200260200101819052508080611aea906135fa565b915050611aa0565b50505050915091565b611b03612ce2565b611b0c5f612d0e565b565b5f819003611b2f57604051635e7719ff60e01b815260040160405180910390fd5b5f848152600860209081526040808320815160c08101835281546001600160801b038082168352600160801b91829004811683870152600184015480821684870152919091048116606083015260028301541660808201526003820180548451818702810187019095528085529194929360a0860193909290879084015b82821015611c35575f8481526020908190206040805160c0810182526004860290920180546001600160801b038082168552600160801b90910481168486015260018083015490911692840192909252600281015460608401526003015463ffffffff81166080840152600160201b900460ff16151560a08301529083529092019101611bad565b5050509152505060a08101519091505f90611c516001876135c0565b81518110611c6157611c616135d3565b60200260200101519050805f01516001600160801b0316421015611c9857604051630897059760e21b815260040160405180910390fd5b80602001516001600160801b03164210611cc557604051636b5fd31b60e01b815260040160405180910390fd5b60408101516001600160801b0316831115611cf3576040516307ea7fdb60e21b815260040160405180910390fd5b5f5b83811015611f6e57848482818110611d0f57611d0f6135d3565b9050602002016020810190611d249190613677565b63ffffffff161580611d6e575082602001516001600160801b0316858583818110611d5157611d516135d3565b9050602002016020810190611d669190613677565b63ffffffff16115b15611dc157848482818110611d8557611d856135d3565b9050602002016020810190611d9a9190613677565b604051637c68015960e11b815263ffffffff90911660048201526024015b60405180910390fd5b5f878152600460209081526040808320898452909152812081878785818110611dec57611dec6135d3565b9050602002016020810190611e019190613677565b63ffffffff16815260208101919091526040015f20546001600160a01b031614611e6e57848482818110611e3757611e376135d3565b9050602002016020810190611e4c9190613677565b60405163418055d360e11b815263ffffffff9091166004820152602401611db8565b5f87815260046020908152604080832089845290915281203391878785818110611e9a57611e9a6135d3565b9050602002016020810190611eaf9190613677565b63ffffffff16815260208082019290925260409081015f90812080546001600160a01b0319166001600160a01b039590951694909417909355898352600682528083208984529091529020858583818110611f0c57611f0c6135d3565b9050602002016020810190611f219190613677565b81546001810183555f92835260209092206008830401805460079093166004026101000a63ffffffff81810219909416929093169290920217905580611f66816135fa565b915050611cf5565b5060055f336001600160a01b03166001600160a01b031681526020019081526020015f206040518060a001604052808881526020018781526020014281526020018686905081526020018686808060200260200160405190810160405280939291908181526020018383602002808284375f92018290525093909452505083546001818101865594825260209182902084516005909202019081558184015194810194909455604083015160028501556060830151600385015560808301518051939493612046935060048501929190910190612f5d565b50505060408201515f9061205a9085613690565b905061209a6001600160a01b037f00000000000000000000000000000000000000000000000000000000000000001633306001600160801b038516612d5d565b604051634a9fefc760e01b81523360048201525f907f00000000000000000000000000000000000000000000000000000000000000006001600160a01b031690634a9fefc790602401602060405180830381865afa1580156120fe573d5f803e3d5ffd5b505050506040513d601f19601f8201168201806040525081019061212291906136bb565b90506001600160a01b038116156121cc575f8054620f42409061215190600160a01b900462ffffff1685613690565b61215b91906136d6565b6001600160a01b0383165f90815260036020526040812080549293506001600160801b038416929091906121909084906135e7565b90915550506001600160a01b0382165f90815260026020526040812080546001600160801b03841692906121c59084906135e7565b9091555050505b6040830180518691906121e09083906136fb565b6001600160801b031690525060405133907ff0523de2f627f3c0bef4480ae1fdc6922de2aff9254c3f2df3fcaf121d5470bb90612224908b908b908b908b9061371b565b60405180910390a282604001516001600160801b03165f03612500576001546040805163e0c8628960e01b815290515f926001600160a01b03169163e0c86289916004808301926020929190829003018187875af1158015612288573d5f803e3d5ffd5b505050506040513d601f19601f820116820180604052508101906122ac9190613612565b6040805180820182528b815260208082018c81525f85815260078352938420925183555160019092019190915560608701839052426001600160801b038116918801919091526080880151929350909161230591613629565b90505f8660600151826123189190613629565b90505f6040518060c00160405280846001600160801b03168152602001836001600160801b0316815260200189602001516001600160801b031681526020015f81526020015f63ffffffff1681526020015f1515815250905060085f8d81526020019081526020015f2060030181908060018154018082558091505060019003905f5260205f2090600402015f909190919091505f820151815f015f6101000a8154816001600160801b0302191690836001600160801b031602179055506020820151815f0160106101000a8154816001600160801b0302191690836001600160801b031602179055506040820151816001015f6101000a8154816001600160801b0302191690836001600160801b03160217905550606082015181600201556080820151816003015f6101000a81548163ffffffff021916908363ffffffff16021790555060a08201518160030160046101000a81548160ff02191690831515021790555050505f60085f8e81526020019081526020015f206003018054905090507f9b4e1f1b6df74eff26420e77ce7891d410b236932a083b7c18d599fbd654a8c78d8286866040516124f2949392919093845260208401929092526001600160801b03908116604084015216606082015260800190565b60405180910390a150505050505b5f888152600860205260409020839060030161251d60018a6135c0565b8154811061252d5761252d6135d3565b5f9182526020918290208351928401516001600160801b03938416600160801b91851691909102176004929092020190815560408301516001820180546001600160801b03191691909316179091556060820151600282015560808201516003909101805460a09093015163ffffffff90921664ffffffffff1990931692909217600160201b911515919091021790555050505050505050565b5f6125d0612ce2565b8660ff165f036125f35760405163bb90937d60e01b815260040160405180910390fd5b856001600160801b03165f0361261c57604051637eac88d960e01b815260040160405180910390fd5b836001600160801b03165f03612645576040516306f6625760e01b815260040160405180910390fd5b42826001600160801b0316101561266f57604051632ca4094f60e21b815260040160405180910390fd5b5f61267b88600a613854565b604080516001600160801b03808b166020830152808416928201929092528189166060820152818816608082015290861660a082015290915060c00160408051601f1981840301815291815281516020928301205f81815260089093529120549092506001600160801b03161561270557604051637a471e1360e11b815260040160405180910390fd5b5f8281526008602090815260408083206001600160801b03858116600160801b908102828e161783558a8216028b8216176001830155600290910180548983166001600160801b031991909116179055815160c081019092528616815290810161276f8887613629565b6001600160801b0390811682528481166020808401919091525f6040808501829052606080860183905260809586018390528983526008845281832060039081018054600181810183559186528686208a51978b01518916600160801b02978916979097176004909102909601958655888401518682018054919098166001600160801b031991909116179096559087015160028501559486015192909401805460a08701511515600160201b0264ffffffffff1990911663ffffffff94909416939093179290921790915560098054928301815590527f6e1540171b6c0c960b71a7020d9f60077f6af931a8bbf590da0223dacf75c7af01859055519091507f3c2758c266cec0bfbf96542a5ea303429faec587fb478c002bc94c4742a837f2906128a6908a9085908b908b908b908a90613054565b60405180910390a1602081810151604080518681526001938101939093526001600160801b03878116848301529091166060830152517f9b4e1f1b6df74eff26420e77ce7891d410b236932a083b7c18d599fbd654a8c79181900360800190a150509695505050505050565b61291a612ce2565b620f424062ffffff821610612942576040516308f02dc760e21b815260040160405180910390fd5b5f546040805162ffffff600160a01b9093048316815291831660208301527fa81633b0c4a1ad81d8ca7c4930a87349bcad69f6b8b39c5e91b64c0b674aaf85910160405180910390a15f805462ffffff909216600160a01b0262ffffff60a01b19909216919091179055565b6001600160a01b0381165f908152600560209081526040808320805482518185028101850190935280835260609492939192909184015b82821015612abd578382905f5260205f2090600502016040518060a00160405290815f820154815260200160018201548152602001600282015481526020016003820154815260200160048201805480602002602001604051908101604052809291908181526020018280548015612aa557602002820191905f5260205f20905f905b82829054906101000a900463ffffffff1663ffffffff1681526020019060040190602082600301049283019260010382029150808411612a685790505b505050505081525050815260200190600101906129e5565b505050509050919050565b612ad0612ce2565b600180546001600160a01b0319166001600160a01b0392909216919091179055565b335f90815260036020526040902054612b357f00000000000000000000000000000000000000000000000000000000000000006001600160a01b03168383612c7e565b335f8181526003602052604080822091909155517f99025a6c572f7d11c4d4d32f273dd2dcf2d8841a574e65fa8e35d718a231370b90612b789084815260200190565b60405180910390a25050565b612b8c612ce2565b6001600160a01b038216612bb35760405163d92e233d60e01b815260040160405180910390fd5b612be76001600160a01b037f0000000000000000000000000000000000000000000000000000000000000000168383612c7e565b5050565b60606009805480602002602001604051908101604052809291908181526020018280548015612c3757602002820191905f5260205f20905b815481526020019060010190808311612c23575b5050505050905090565b612c49612ce2565b6001600160a01b038116612c7257604051631e4fbdf760e01b81525f6004820152602401611db8565b612c7b81612d0e565b50565b6040516001600160a01b03838116602483015260448201839052612cdd91859182169063a9059cbb906064015b604051602081830303815290604052915060e01b6020820180516001600160e01b038381831617835250505050612d9c565b505050565b5f546001600160a01b03163314611b0c5760405163118cdaa760e01b8152336004820152602401611db8565b5f80546001600160a01b038381166001600160a01b0319831681178455604051919092169283917f8be0079c531659141344cd1fd0a4f28419497f9722a3daafe3b4186f6b6457e09190a35050565b6040516001600160a01b038481166024830152838116604483015260648201839052612d969186918216906323b872dd90608401612cab565b50505050565b5f612db06001600160a01b03841683612dfd565b905080515f14158015612dd4575080806020019051810190612dd29190613862565b155b15612cdd57604051635274afe760e01b81526001600160a01b0384166004820152602401611db8565b6060612e0a83835f612e11565b9392505050565b606081471015612e365760405163cd78605960e01b8152306004820152602401611db8565b5f80856001600160a01b03168486604051612e519190613881565b5f6040518083038185875af1925050503d805f8114612e8b576040519150601f19603f3d011682016040523d82523d5f602084013e612e90565b606091505b5091509150612ea0868383612eaa565b9695505050505050565b606082612ebf57612eba82612f06565b612e0a565b8151158015612ed657506001600160a01b0384163b155b15612eff57604051639996b31560e01b81526001600160a01b0385166004820152602401611db8565b5080612e0a565b805115612f165780518082602001fd5b604051630a12f52160e11b815260040160405180910390fd5b6040518060a001604052805f80191681526020015f81526020015f81526020015f8152602001606081525090565b828054828255905f5260205f2090600701600890048101928215612ff9579160200282015f5b83821115612fc757835183826101000a81548163ffffffff021916908363ffffffff1602179055509260200192600401602081600301049283019260010302612f83565b8015612ff75782816101000a81549063ffffffff0219169055600401602081600301049283019260010302612fc7565b505b50613005929150613009565b5090565b5b80821115613005575f815560010161300a565b5f806040838503121561302e575f80fd5b50508035926020909101359150565b5f6020828403121561304d575f80fd5b5035919050565b6001600160801b039687168152948616602086015292851660408501529084166060840152909216608082015260a081019190915260c00190565b6001600160a01b0381168114612c7b575f80fd5b5f602082840312156130b3575f80fd5b8135612e0a8161308f565b5f8151808452602080850194508084015f5b838110156130ec578151875295820195908201906001016130d0565b509495945050505050565b606081525f61310960608301866130be565b8281036020848101919091528551808352868201928201905f5b8181101561313f57845183529383019391830191600101613123565b5050809350505050826040830152949350505050565b5f8151808452602080850194508084015f5b838110156130ec57815163ffffffff1687529582019590820190600101613167565b602081525f612e0a6020830184613155565b5f8083601f8401126131ab575f80fd5b50813567ffffffffffffffff8111156131c2575f80fd5b6020830191508360208260051b85010111156131dc575f80fd5b9250929050565b5f805f805f606086880312156131f7575f80fd5b85356132028161308f565b9450602086013567ffffffffffffffff8082111561321e575f80fd5b61322a89838a0161319b565b90965094506040880135915080821115613242575f80fd5b5061324f8882890161319b565b969995985093965092949392505050565b5f805f60608486031215613272575f80fd5b833561327d8161308f565b95602085013595506040909401359392505050565b5f82825180855260208086019550808260051b8401018186015f5b8481101561330f57858303601f190189528151805184528481015185850152604080820151908501526060808201519085015260809081015160a0918501829052906132fb81860183613155565b9a86019a94505050908301906001016132ad565b5090979650505050505050565b602081525f612e0a6020830184613292565b634e487b7160e01b5f52604160045260245ffd5b5f8060408385031215613353575f80fd5b8235915060208084013567ffffffffffffffff80821115613372575f80fd5b818601915086601f830112613385575f80fd5b8135818111156133975761339761332e565b8060051b604051601f19603f830116810181811085821117156133bc576133bc61332e565b6040529182528482019250838101850191898311156133d9575f80fd5b938501935b828510156133f7578435845293850193928501926133de565b8096505050505050509250929050565b803563ffffffff8116811461341a575f80fd5b919050565b5f805f60608486031215613431575f80fd5b833592506020840135915061344860408501613407565b90509250925092565b604081525f6134636040830185613292565b90508260208301529392505050565b5f805f8060608587031215613485575f80fd5b8435935060208501359250604085013567ffffffffffffffff8111156134a9575f80fd5b6134b58782880161319b565b95989497509550505050565b80356001600160801b038116811461341a575f80fd5b5f805f805f8060c087890312156134ec575f80fd5b863560ff811681146134fc575f80fd5b955061350a602088016134c1565b9450613518604088016134c1565b9350613526606088016134c1565b9250613534608088016134c1565b915061354260a088016134c1565b90509295509295509295565b5f6020828403121561355e575f80fd5b813562ffffff81168114612e0a575f80fd5b5f8060408385031215613581575f80fd5b823561358c8161308f565b946020939093013593505050565b602081525f612e0a60208301846130be565b634e487b7160e01b5f52601160045260245ffd5b81810381811115610a5f57610a5f6135ac565b634e487b7160e01b5f52603260045260245ffd5b80820180821115610a5f57610a5f6135ac565b5f6001820161360b5761360b6135ac565b5060010190565b5f60208284031215613622575f80fd5b5051919050565b6001600160801b03818116838216019080821115613649576136496135ac565b5092915050565b634e487b7160e01b5f52601260045260245ffd5b5f8261367257613672613650565b500690565b5f60208284031215613687575f80fd5b612e0a82613407565b6001600160801b038181168382160280821691908281146136b3576136b36135ac565b505092915050565b5f602082840312156136cb575f80fd5b8151612e0a8161308f565b5f6001600160801b03808416806136ef576136ef613650565b92169190910492915050565b6001600160801b03828116828216039080821115613649576136496135ac565b848152602080820185905260606040830181905282018390525f90849060808401835b868110156137675763ffffffff61375485613407565b168252928201929082019060010161373e565b5098975050505050505050565b600181815b808511156137ae57815f1904821115613794576137946135ac565b808516156137a157918102915b93841c9390800290613779565b509250929050565b5f826137c457506001610a5f565b816137d057505f610a5f565b81600181146137e657600281146137f05761380c565b6001915050610a5f565b60ff841115613801576138016135ac565b50506001821b610a5f565b5060208310610133831016604e8410600b841016171561382f575081810a610a5f565b6138398383613774565b805f190482111561384c5761384c6135ac565b029392505050565b5f612e0a60ff8416836137b6565b5f60208284031215613872575f80fd5b81518015158114612e0a575f80fd5b5f82515f5b818110156138a05760208186018101518583015201613886565b505f92019182525091905056fea26469706673582212200b75695aa4e833eff7a51fef126d71c88303ef1a3adb1525e71249d6c9f947ec64736f6c63430008140033",
					"opcodes": "PUSH1 0xC0 PUSH1 0x40 MSTORE CALLVALUE DUP1 ISZERO PUSH3 0x10 JUMPI PUSH0 DUP1 REVERT JUMPDEST POP PUSH1 0x40 MLOAD PUSH3 0x3A81 CODESIZE SUB DUP1 PUSH3 0x3A81 DUP4 CODECOPY DUP2 ADD PUSH1 0x40 DUP2 SWAP1 MSTORE PUSH3 0x33 SWAP2 PUSH3 0x10A JUMP JUMPDEST CALLER DUP1 PUSH3 0x59 JUMPI PUSH1 0x40 MLOAD PUSH4 0x1E4FBDF7 PUSH1 0xE0 SHL DUP2 MSTORE PUSH0 PUSH1 0x4 DUP3 ADD MSTORE PUSH1 0x24 ADD PUSH1 0x40 MLOAD DUP1 SWAP2 SUB SWAP1 REVERT JUMPDEST PUSH3 0x64 DUP2 PUSH3 0x9F JUMP JUMPDEST POP PUSH0 DUP1 SLOAD PUSH3 0xFFFFFF SWAP1 SWAP5 AND PUSH1 0x1 PUSH1 0xA0 SHL MUL PUSH3 0xFFFFFF PUSH1 0xA0 SHL NOT SWAP1 SWAP5 AND SWAP4 SWAP1 SWAP4 OR SWAP1 SWAP3 SSTORE PUSH1 0x1 PUSH1 0x1 PUSH1 0xA0 SHL SUB SWAP1 DUP2 AND PUSH1 0x80 MSTORE AND PUSH1 0xA0 MSTORE PUSH3 0x159 JUMP JUMPDEST PUSH0 DUP1 SLOAD PUSH1 0x1 PUSH1 0x1 PUSH1 0xA0 SHL SUB DUP4 DUP2 AND PUSH1 0x1 PUSH1 0x1 PUSH1 0xA0 SHL SUB NOT DUP4 AND DUP2 OR DUP5 SSTORE PUSH1 0x40 MLOAD SWAP2 SWAP1 SWAP3 AND SWAP3 DUP4 SWAP2 PUSH32 0x8BE0079C531659141344CD1FD0A4F28419497F9722A3DAAFE3B4186F6B6457E0 SWAP2 SWAP1 LOG3 POP POP JUMP JUMPDEST DUP1 MLOAD PUSH1 0x1 PUSH1 0x1 PUSH1 0xA0 SHL SUB DUP2 AND DUP2 EQ PUSH3 0x105 JUMPI PUSH0 DUP1 REVERT JUMPDEST SWAP2 SWAP1 POP JUMP JUMPDEST PUSH0 DUP1 PUSH0 PUSH1 0x60 DUP5 DUP7 SUB SLT ISZERO PUSH3 0x11D JUMPI PUSH0 DUP1 REVERT JUMPDEST DUP4 MLOAD PUSH3 0xFFFFFF DUP2 AND DUP2 EQ PUSH3 0x130 JUMPI PUSH0 DUP1 REVERT JUMPDEST SWAP3 POP PUSH3 0x140 PUSH1 0x20 DUP6 ADD PUSH3 0xEE JUMP JUMPDEST SWAP2 POP PUSH3 0x150 PUSH1 0x40 DUP6 ADD PUSH3 0xEE JUMP JUMPDEST SWAP1 POP SWAP3 POP SWAP3 POP SWAP3 JUMP JUMPDEST PUSH1 0x80 MLOAD PUSH1 0xA0 MLOAD PUSH2 0x38E3 PUSH3 0x19E PUSH0 CODECOPY PUSH0 DUP2 DUP2 PUSH2 0x301 ADD MSTORE PUSH2 0x20B1 ADD MSTORE PUSH0 DUP2 DUP2 PUSH2 0x2DA ADD MSTORE DUP2 DUP2 PUSH2 0xDC2 ADD MSTORE DUP2 DUP2 PUSH2 0x2069 ADD MSTORE DUP2 DUP2 PUSH2 0x2B06 ADD MSTORE PUSH2 0x2BC0 ADD MSTORE PUSH2 0x38E3 PUSH0 RETURN INVALID PUSH1 0x80 PUSH1 0x40 MSTORE CALLVALUE DUP1 ISZERO PUSH2 0xF JUMPI PUSH0 DUP1 REVERT JUMPDEST POP PUSH1 0x4 CALLDATASIZE LT PUSH2 0x1BB JUMPI PUSH0 CALLDATALOAD PUSH1 0xE0 SHR DUP1 PUSH4 0x6F8AF123 GT PUSH2 0xF3 JUMPI DUP1 PUSH4 0xB2A89B08 GT PUSH2 0x93 JUMPI DUP1 PUSH4 0xE53A7345 GT PUSH2 0x6E JUMPI DUP1 PUSH4 0xE53A7345 EQ PUSH2 0x4A6 JUMPI DUP1 PUSH4 0xED092451 EQ PUSH2 0x4B9 JUMPI DUP1 PUSH4 0xF19C3D5B EQ PUSH2 0x4CC JUMPI DUP1 PUSH4 0xF2FDE38B EQ PUSH2 0x4E1 JUMPI PUSH0 DUP1 REVERT JUMPDEST DUP1 PUSH4 0xB2A89B08 EQ PUSH2 0x46D JUMPI DUP1 PUSH4 0xBAB0CBCE EQ PUSH2 0x480 JUMPI DUP1 PUSH4 0xCFD6AA90 EQ PUSH2 0x493 JUMPI PUSH0 DUP1 REVERT JUMPDEST DUP1 PUSH4 0x86D32015 GT PUSH2 0xCE JUMPI DUP1 PUSH4 0x86D32015 EQ PUSH2 0x418 JUMPI DUP1 PUSH4 0x89BA4116 EQ PUSH2 0x437 JUMPI DUP1 PUSH4 0x8DA5CB5B EQ PUSH2 0x44A JUMPI DUP1 PUSH4 0xACCA07B1 EQ PUSH2 0x45A JUMPI PUSH0 DUP1 REVERT JUMPDEST DUP1 PUSH4 0x6F8AF123 EQ PUSH2 0x3DA JUMPI DUP1 PUSH4 0x715018A6 EQ PUSH2 0x3FB JUMPI DUP1 PUSH4 0x84AE2BC6 EQ PUSH2 0x403 JUMPI PUSH0 DUP1 REVERT JUMPDEST DUP1 PUSH4 0x2F48AB7D GT PUSH2 0x15E JUMPI DUP1 PUSH4 0x38BA4614 GT PUSH2 0x139 JUMPI DUP1 PUSH4 0x38BA4614 EQ PUSH2 0x343 JUMPI DUP1 PUSH4 0x3B0E443C EQ PUSH2 0x356 JUMPI DUP1 PUSH4 0x4930CC99 EQ PUSH2 0x38F JUMPI DUP1 PUSH4 0x6ED93DD0 EQ PUSH2 0x3BC JUMPI PUSH0 DUP1 REVERT JUMPDEST DUP1 PUSH4 0x2F48AB7D EQ PUSH2 0x2D5 JUMPI DUP1 PUSH4 0x2FACD139 EQ PUSH2 0x2FC JUMPI DUP1 PUSH4 0x34BFB32F EQ PUSH2 0x323 JUMPI PUSH0 DUP1 REVERT JUMPDEST DUP1 PUSH4 0x21F6A578 GT PUSH2 0x199 JUMPI DUP1 PUSH4 0x21F6A578 EQ PUSH2 0x26B JUMPI DUP1 PUSH4 0x25860103 EQ PUSH2 0x28D JUMPI DUP1 PUSH4 0x2BBB1444 EQ PUSH2 0x2AD JUMPI DUP1 PUSH4 0x2E5A74B9 EQ PUSH2 0x2C2 JUMPI PUSH0 DUP1 REVERT JUMPDEST DUP1 PUSH4 0x358ABFC EQ PUSH2 0x1BF JUMPI DUP1 PUSH4 0x9F2C019 EQ PUSH2 0x21B JUMPI DUP1 PUSH4 0x1EF4D1FD EQ PUSH2 0x240 JUMPI JUMPDEST PUSH0 DUP1 REVERT JUMPDEST PUSH2 0x1D2 PUSH2 0x1CD CALLDATASIZE PUSH1 0x4 PUSH2 0x301D JUMP JUMPDEST PUSH2 0x4F4 JUMP JUMPDEST PUSH1 0x40 DUP1 MLOAD PUSH1 0x1 PUSH1 0x1 PUSH1 0x80 SHL SUB SWAP8 DUP9 AND DUP2 MSTORE SWAP6 DUP8 AND PUSH1 0x20 DUP8 ADD MSTORE SWAP4 SWAP1 SWAP6 AND SWAP3 DUP5 ADD SWAP3 SWAP1 SWAP3 MSTORE PUSH1 0x60 DUP4 ADD MSTORE PUSH4 0xFFFFFFFF AND PUSH1 0x80 DUP3 ADD MSTORE SWAP1 ISZERO ISZERO PUSH1 0xA0 DUP3 ADD MSTORE PUSH1 0xC0 ADD JUMPDEST PUSH1 0x40 MLOAD DUP1 SWAP2 SUB SWAP1 RETURN JUMPDEST PUSH2 0x22E PUSH2 0x229 CALLDATASIZE PUSH1 0x4 PUSH2 0x303D JUMP JUMPDEST PUSH2 0x5BE JUMP JUMPDEST PUSH1 0x40 MLOAD PUSH2 0x212 SWAP7 SWAP6 SWAP5 SWAP4 SWAP3 SWAP2 SWAP1 PUSH2 0x3054 JUMP JUMPDEST PUSH1 0x1 SLOAD PUSH2 0x253 SWAP1 PUSH1 0x1 PUSH1 0x1 PUSH1 0xA0 SHL SUB AND DUP2 JUMP JUMPDEST PUSH1 0x40 MLOAD PUSH1 0x1 PUSH1 0x1 PUSH1 0xA0 SHL SUB SWAP1 SWAP2 AND DUP2 MSTORE PUSH1 0x20 ADD PUSH2 0x212 JUMP JUMPDEST PUSH2 0x27E PUSH2 0x279 CALLDATASIZE PUSH1 0x4 PUSH2 0x30A3 JUMP JUMPDEST PUSH2 0x709 JUMP JUMPDEST PUSH1 0x40 MLOAD PUSH2 0x212 SWAP4 SWAP3 SWAP2 SWAP1 PUSH2 0x30F7 JUMP JUMPDEST PUSH2 0x2A0 PUSH2 0x29B CALLDATASIZE PUSH1 0x4 PUSH2 0x301D JUMP JUMPDEST PUSH2 0x9D1 JUMP JUMPDEST PUSH1 0x40 MLOAD PUSH2 0x212 SWAP2 SWAP1 PUSH2 0x3189 JUMP JUMPDEST PUSH2 0x2C0 PUSH2 0x2BB CALLDATASIZE PUSH1 0x4 PUSH2 0x31E3 JUMP JUMPDEST PUSH2 0xA65 JUMP JUMPDEST STOP JUMPDEST PUSH2 0x2C0 PUSH2 0x2D0 CALLDATASIZE PUSH1 0x4 PUSH2 0x303D JUMP JUMPDEST PUSH2 0xDF1 JUMP JUMPDEST PUSH2 0x253 PUSH32 0x0 DUP2 JUMP JUMPDEST PUSH2 0x253 PUSH32 0x0 DUP2 JUMP JUMPDEST PUSH2 0x336 PUSH2 0x331 CALLDATASIZE PUSH1 0x4 PUSH2 0x3260 JUMP JUMPDEST PUSH2 0x1377 JUMP JUMPDEST PUSH1 0x40 MLOAD PUSH2 0x212 SWAP2 SWAP1 PUSH2 0x331C JUMP JUMPDEST PUSH2 0x2C0 PUSH2 0x351 CALLDATASIZE PUSH1 0x4 PUSH2 0x3342 JUMP JUMPDEST PUSH2 0x1618 JUMP JUMPDEST PUSH2 0x253 PUSH2 0x364 CALLDATASIZE PUSH1 0x4 PUSH2 0x341F JUMP JUMPDEST PUSH1 0x4 PUSH1 0x20 SWAP1 DUP2 MSTORE PUSH0 SWAP4 DUP5 MSTORE PUSH1 0x40 DUP1 DUP6 KECCAK256 DUP3 MSTORE SWAP3 DUP5 MSTORE DUP3 DUP5 KECCAK256 SWAP1 MSTORE DUP3 MSTORE SWAP1 KECCAK256 SLOAD PUSH1 0x1 PUSH1 0x1 PUSH1 0xA0 SHL SUB AND DUP2 JUMP JUMPDEST PUSH2 0x3AE PUSH2 0x39D CALLDATASIZE PUSH1 0x4 PUSH2 0x30A3 JUMP JUMPDEST PUSH1 0x3 PUSH1 0x20 MSTORE PUSH0 SWAP1 DUP2 MSTORE PUSH1 0x40 SWAP1 KECCAK256 SLOAD DUP2 JUMP JUMPDEST PUSH1 0x40 MLOAD SWAP1 DUP2 MSTORE PUSH1 0x20 ADD PUSH2 0x212 JUMP JUMPDEST PUSH2 0x3C6 PUSH3 0xF4240 DUP2 JUMP JUMPDEST PUSH1 0x40 MLOAD PUSH3 0xFFFFFF SWAP1 SWAP2 AND DUP2 MSTORE PUSH1 0x20 ADD PUSH2 0x212 JUMP JUMPDEST PUSH2 0x3ED PUSH2 0x3E8 CALLDATASIZE PUSH1 0x4 PUSH2 0x30A3 JUMP JUMPDEST PUSH2 0x1725 JUMP JUMPDEST PUSH1 0x40 MLOAD PUSH2 0x212 SWAP3 SWAP2 SWAP1 PUSH2 0x3451 JUMP JUMPDEST PUSH2 0x2C0 PUSH2 0x1AFB JUMP JUMPDEST PUSH0 SLOAD PUSH2 0x3C6 SWAP1 PUSH1 0x1 PUSH1 0xA0 SHL SWAP1 DIV PUSH3 0xFFFFFF AND DUP2 JUMP JUMPDEST PUSH2 0x3AE PUSH2 0x426 CALLDATASIZE PUSH1 0x4 PUSH2 0x30A3 JUMP JUMPDEST PUSH1 0x2 PUSH1 0x20 MSTORE PUSH0 SWAP1 DUP2 MSTORE PUSH1 0x40 SWAP1 KECCAK256 SLOAD DUP2 JUMP JUMPDEST PUSH2 0x2C0 PUSH2 0x445 CALLDATASIZE PUSH1 0x4 PUSH2 0x3472 JUMP JUMPDEST PUSH2 0x1B0E JUMP JUMPDEST PUSH0 SLOAD PUSH1 0x1 PUSH1 0x1 PUSH1 0xA0 SHL SUB AND PUSH2 0x253 JUMP JUMPDEST PUSH2 0x3AE PUSH2 0x468 CALLDATASIZE PUSH1 0x4 PUSH2 0x34D7 JUMP JUMPDEST PUSH2 0x25C7 JUMP JUMPDEST PUSH2 0x2C0 PUSH2 0x47B CALLDATASIZE PUSH1 0x4 PUSH2 0x354E JUMP JUMPDEST PUSH2 0x2912 JUMP JUMPDEST PUSH2 0x336 PUSH2 0x48E CALLDATASIZE PUSH1 0x4 PUSH2 0x30A3 JUMP JUMPDEST PUSH2 0x29AE JUMP JUMPDEST PUSH2 0x2C0 PUSH2 0x4A1 CALLDATASIZE PUSH1 0x4 PUSH2 0x30A3 JUMP JUMPDEST PUSH2 0x2AC8 JUMP JUMPDEST PUSH2 0x2C0 PUSH2 0x4B4 CALLDATASIZE PUSH1 0x4 PUSH2 0x30A3 JUMP JUMPDEST PUSH2 0x2AF2 JUMP JUMPDEST PUSH2 0x2C0 PUSH2 0x4C7 CALLDATASIZE PUSH1 0x4 PUSH2 0x3570 JUMP JUMPDEST PUSH2 0x2B84 JUMP JUMPDEST PUSH2 0x4D4 PUSH2 0x2BEB JUMP JUMPDEST PUSH1 0x40 MLOAD PUSH2 0x212 SWAP2 SWAP1 PUSH2 0x359A JUMP JUMPDEST PUSH2 0x2C0 PUSH2 0x4EF CALLDATASIZE PUSH1 0x4 PUSH2 0x30A3 JUMP JUMPDEST PUSH2 0x2C41 JUMP JUMPDEST PUSH0 DUP3 DUP2 MSTORE PUSH1 0x8 PUSH1 0x20 MSTORE PUSH1 0x40 DUP2 KECCAK256 DUP2 SWAP1 DUP2 SWAP1 DUP2 SWAP1 DUP2 SWAP1 DUP2 SWAP1 DUP2 SWAP1 PUSH1 0x3 ADD PUSH2 0x51B PUSH1 0x1 DUP11 PUSH2 0x35C0 JUMP JUMPDEST DUP2 SLOAD DUP2 LT PUSH2 0x52B JUMPI PUSH2 0x52B PUSH2 0x35D3 JUMP JUMPDEST PUSH0 SWAP2 DUP3 MSTORE PUSH1 0x20 SWAP2 DUP3 SWAP1 KECCAK256 PUSH1 0x40 DUP1 MLOAD PUSH1 0xC0 DUP2 ADD DUP3 MSTORE PUSH1 0x4 SWAP4 SWAP1 SWAP4 MUL SWAP1 SWAP2 ADD DUP1 SLOAD PUSH1 0x1 PUSH1 0x1 PUSH1 0x80 SHL SUB DUP1 DUP3 AND DUP1 DUP7 MSTORE PUSH1 0x1 PUSH1 0x80 SHL SWAP1 SWAP3 DIV DUP2 AND SWAP6 DUP6 ADD DUP7 SWAP1 MSTORE PUSH1 0x1 DUP4 ADD SLOAD AND SWAP3 DUP5 ADD DUP4 SWAP1 MSTORE PUSH1 0x2 DUP3 ADD SLOAD PUSH1 0x60 DUP6 ADD DUP2 SWAP1 MSTORE PUSH1 0x3 SWAP1 SWAP3 ADD SLOAD PUSH4 0xFFFFFFFF DUP2 AND PUSH1 0x80 DUP7 ADD DUP2 SWAP1 MSTORE PUSH1 0x1 PUSH1 0x20 SHL SWAP1 SWAP2 DIV PUSH1 0xFF AND ISZERO ISZERO PUSH1 0xA0 SWAP1 SWAP6 ADD DUP6 SWAP1 MSTORE SWAP1 SWAP15 SWAP5 SWAP14 POP SWAP2 SWAP12 POP SWAP10 POP SWAP8 POP SWAP6 POP SWAP4 POP POP POP POP JUMP JUMPDEST PUSH0 DUP2 DUP2 MSTORE PUSH1 0x8 PUSH1 0x20 SWAP1 DUP2 MSTORE PUSH1 0x40 DUP1 DUP4 KECCAK256 DUP2 MLOAD PUSH1 0xC0 DUP2 ADD DUP4 MSTORE DUP2 SLOAD PUSH1 0x1 PUSH1 0x1 PUSH1 0x80 SHL SUB DUP1 DUP3 AND DUP4 MSTORE PUSH1 0x1 PUSH1 0x80 SHL SWAP2 DUP3 SWAP1 DIV DUP2 AND DUP4 DUP8 ADD MSTORE PUSH1 0x1 DUP5 ADD SLOAD DUP1 DUP3 AND DUP5 DUP8 ADD MSTORE SWAP2 SWAP1 SWAP2 DIV DUP2 AND PUSH1 0x60 DUP4 ADD MSTORE PUSH1 0x2 DUP4 ADD SLOAD AND PUSH1 0x80 DUP3 ADD MSTORE PUSH1 0x3 DUP3 ADD DUP1 SLOAD DUP5 MLOAD DUP2 DUP8 MUL DUP2 ADD DUP8 ADD SWAP1 SWAP6 MSTORE DUP1 DUP6 MSTORE DUP7 SWAP6 DUP7 SWAP6 DUP7 SWAP6 DUP7 SWAP6 DUP7 SWAP6 DUP7 SWAP6 SWAP2 SWAP5 SWAP3 SWAP4 PUSH1 0xA0 DUP7 ADD SWAP4 SWAP1 SWAP3 SWAP1 DUP8 SWAP1 DUP5 ADD JUMPDEST DUP3 DUP3 LT ISZERO PUSH2 0x6D0 JUMPI PUSH0 DUP5 DUP2 MSTORE PUSH1 0x20 SWAP1 DUP2 SWAP1 KECCAK256 PUSH1 0x40 DUP1 MLOAD PUSH1 0xC0 DUP2 ADD DUP3 MSTORE PUSH1 0x4 DUP7 MUL SWAP1 SWAP3 ADD DUP1 SLOAD PUSH1 0x1 PUSH1 0x1 PUSH1 0x80 SHL SUB DUP1 DUP3 AND DUP6 MSTORE PUSH1 0x1 PUSH1 0x80 SHL SWAP1 SWAP2 DIV DUP2 AND DUP5 DUP7 ADD MSTORE PUSH1 0x1 DUP1 DUP4 ADD SLOAD SWAP1 SWAP2 AND SWAP3 DUP5 ADD SWAP3 SWAP1 SWAP3 MSTORE PUSH1 0x2 DUP2 ADD SLOAD PUSH1 0x60 DUP5 ADD MSTORE PUSH1 0x3 ADD SLOAD PUSH4 0xFFFFFFFF DUP2 AND PUSH1 0x80 DUP5 ADD MSTORE PUSH1 0x1 PUSH1 0x20 SHL SWAP1 DIV PUSH1 0xFF AND ISZERO ISZERO PUSH1 0xA0 DUP4 ADD MSTORE SWAP1 DUP4 MSTORE SWAP1 SWAP3 ADD SWAP2 ADD PUSH2 0x648 JUMP JUMPDEST POP POP POP SWAP2 MSTORE POP POP DUP1 MLOAD PUSH1 0x20 DUP3 ADD MLOAD PUSH1 0x40 DUP4 ADD MLOAD PUSH1 0x60 DUP5 ADD MLOAD PUSH1 0x80 DUP6 ADD MLOAD PUSH1 0xA0 SWAP1 SWAP6 ADD MLOAD MLOAD SWAP4 SWAP14 SWAP3 SWAP13 POP SWAP1 SWAP11 POP SWAP9 POP SWAP2 SWAP7 POP SWAP5 POP SWAP3 POP POP POP JUMP JUMPDEST PUSH1 0x60 DUP1 PUSH0 DUP1 PUSH2 0x717 DUP6 PUSH2 0x1725 JUMP JUMPDEST POP SWAP1 POP PUSH0 DUP2 MLOAD PUSH8 0xFFFFFFFFFFFFFFFF DUP2 GT ISZERO PUSH2 0x735 JUMPI PUSH2 0x735 PUSH2 0x332E JUMP JUMPDEST PUSH1 0x40 MLOAD SWAP1 DUP1 DUP3 MSTORE DUP1 PUSH1 0x20 MUL PUSH1 0x20 ADD DUP3 ADD PUSH1 0x40 MSTORE DUP1 ISZERO PUSH2 0x75E JUMPI DUP2 PUSH1 0x20 ADD PUSH1 0x20 DUP3 MUL DUP1 CALLDATASIZE DUP4 CALLDATACOPY ADD SWAP1 POP JUMPDEST POP SWAP1 POP PUSH0 DUP3 MLOAD PUSH8 0xFFFFFFFFFFFFFFFF DUP2 GT ISZERO PUSH2 0x77C JUMPI PUSH2 0x77C PUSH2 0x332E JUMP JUMPDEST PUSH1 0x40 MLOAD SWAP1 DUP1 DUP3 MSTORE DUP1 PUSH1 0x20 MUL PUSH1 0x20 ADD DUP3 ADD PUSH1 0x40 MSTORE DUP1 ISZERO PUSH2 0x7A5 JUMPI DUP2 PUSH1 0x20 ADD PUSH1 0x20 DUP3 MUL DUP1 CALLDATASIZE DUP4 CALLDATACOPY ADD SWAP1 POP JUMPDEST POP SWAP1 POP PUSH0 DUP1 JUMPDEST DUP5 MLOAD DUP2 LT ISZERO PUSH2 0x8AF JUMPI PUSH0 DUP6 DUP3 DUP2 MLOAD DUP2 LT PUSH2 0x7C7 JUMPI PUSH2 0x7C7 PUSH2 0x35D3 JUMP JUMPDEST PUSH1 0x20 SWAP1 DUP2 MUL SWAP2 SWAP1 SWAP2 ADD DUP2 ADD MLOAD DUP1 MLOAD DUP2 DUP4 ADD MLOAD PUSH0 DUP3 DUP2 MSTORE PUSH1 0x8 SWAP1 SWAP5 MSTORE PUSH1 0x40 SWAP1 SWAP4 KECCAK256 SWAP2 SWAP4 POP SWAP2 SWAP1 PUSH1 0x3 ADD PUSH2 0x7FA PUSH1 0x1 DUP4 PUSH2 0x35C0 JUMP JUMPDEST DUP2 SLOAD DUP2 LT PUSH2 0x80A JUMPI PUSH2 0x80A PUSH2 0x35D3 JUMP JUMPDEST SWAP1 PUSH0 MSTORE PUSH1 0x20 PUSH0 KECCAK256 SWAP1 PUSH1 0x4 MUL ADD PUSH1 0x3 ADD PUSH1 0x4 SWAP1 SLOAD SWAP1 PUSH2 0x100 EXP SWAP1 DIV PUSH1 0xFF AND PUSH2 0x899 JUMPI PUSH0 DUP3 DUP2 MSTORE PUSH1 0x8 PUSH1 0x20 MSTORE PUSH1 0x40 SWAP1 KECCAK256 SLOAD PUSH2 0x84C SWAP1 PUSH1 0x1 PUSH1 0x1 PUSH1 0x80 SHL SUB AND DUP11 PUSH2 0x35E7 JUMP JUMPDEST SWAP9 POP DUP2 DUP8 DUP7 DUP2 MLOAD DUP2 LT PUSH2 0x861 JUMPI PUSH2 0x861 PUSH2 0x35D3 JUMP JUMPDEST PUSH1 0x20 MUL PUSH1 0x20 ADD ADD DUP2 DUP2 MSTORE POP POP DUP1 DUP7 DUP7 DUP2 MLOAD DUP2 LT PUSH2 0x880 JUMPI PUSH2 0x880 PUSH2 0x35D3 JUMP JUMPDEST PUSH1 0x20 SWAP1 DUP2 MUL SWAP2 SWAP1 SWAP2 ADD ADD MSTORE DUP5 PUSH2 0x895 DUP2 PUSH2 0x35FA JUMP JUMPDEST SWAP6 POP POP JUMPDEST POP POP POP DUP1 DUP1 PUSH2 0x8A7 SWAP1 PUSH2 0x35FA JUMP JUMPDEST SWAP2 POP POP PUSH2 0x7AB JUMP JUMPDEST POP DUP1 PUSH8 0xFFFFFFFFFFFFFFFF DUP2 GT ISZERO PUSH2 0x8C9 JUMPI PUSH2 0x8C9 PUSH2 0x332E JUMP JUMPDEST PUSH1 0x40 MLOAD SWAP1 DUP1 DUP3 MSTORE DUP1 PUSH1 0x20 MUL PUSH1 0x20 ADD DUP3 ADD PUSH1 0x40 MSTORE DUP1 ISZERO PUSH2 0x8F2 JUMPI DUP2 PUSH1 0x20 ADD PUSH1 0x20 DUP3 MUL DUP1 CALLDATASIZE DUP4 CALLDATACOPY ADD SWAP1 POP JUMPDEST POP SWAP7 POP DUP1 PUSH8 0xFFFFFFFFFFFFFFFF DUP2 GT ISZERO PUSH2 0x90E JUMPI PUSH2 0x90E PUSH2 0x332E JUMP JUMPDEST PUSH1 0x40 MLOAD SWAP1 DUP1 DUP3 MSTORE DUP1 PUSH1 0x20 MUL PUSH1 0x20 ADD DUP3 ADD PUSH1 0x40 MSTORE DUP1 ISZERO PUSH2 0x937 JUMPI DUP2 PUSH1 0x20 ADD PUSH1 0x20 DUP3 MUL DUP1 CALLDATASIZE DUP4 CALLDATACOPY ADD SWAP1 POP JUMPDEST POP SWAP6 POP PUSH0 JUMPDEST DUP2 DUP2 LT ISZERO PUSH2 0x9C5 JUMPI DUP4 DUP2 DUP2 MLOAD DUP2 LT PUSH2 0x956 JUMPI PUSH2 0x956 PUSH2 0x35D3 JUMP JUMPDEST PUSH1 0x20 MUL PUSH1 0x20 ADD ADD MLOAD DUP9 DUP3 DUP2 MLOAD DUP2 LT PUSH2 0x970 JUMPI PUSH2 0x970 PUSH2 0x35D3 JUMP JUMPDEST PUSH1 0x20 MUL PUSH1 0x20 ADD ADD DUP2 DUP2 MSTORE POP POP DUP3 DUP2 DUP2 MLOAD DUP2 LT PUSH2 0x98E JUMPI PUSH2 0x98E PUSH2 0x35D3 JUMP JUMPDEST PUSH1 0x20 MUL PUSH1 0x20 ADD ADD MLOAD DUP8 DUP3 DUP2 MLOAD DUP2 LT PUSH2 0x9A8 JUMPI PUSH2 0x9A8 PUSH2 0x35D3 JUMP JUMPDEST PUSH1 0x20 SWAP1 DUP2 MUL SWAP2 SWAP1 SWAP2 ADD ADD MSTORE DUP1 PUSH2 0x9BD DUP2 PUSH2 0x35FA JUMP JUMPDEST SWAP2 POP POP PUSH2 0x93C JUMP JUMPDEST POP POP POP POP POP SWAP2 SWAP4 SWAP1 SWAP3 POP JUMP JUMPDEST PUSH0 DUP3 DUP2 MSTORE PUSH1 0x6 PUSH1 0x20 SWAP1 DUP2 MSTORE PUSH1 0x40 DUP1 DUP4 KECCAK256 DUP5 DUP5 MSTORE DUP3 MSTORE SWAP2 DUP3 SWAP1 KECCAK256 DUP1 SLOAD DUP4 MLOAD DUP2 DUP5 MUL DUP2 ADD DUP5 ADD SWAP1 SWAP5 MSTORE DUP1 DUP5 MSTORE PUSH1 0x60 SWAP4 SWAP3 DUP4 ADD DUP3 DUP3 DUP1 ISZERO PUSH2 0xA57 JUMPI PUSH1 0x20 MUL DUP3 ADD SWAP2 SWAP1 PUSH0 MSTORE PUSH1 0x20 PUSH0 KECCAK256 SWAP1 PUSH0 SWAP1 JUMPDEST DUP3 DUP3 SWAP1 SLOAD SWAP1 PUSH2 0x100 EXP SWAP1 DIV PUSH4 0xFFFFFFFF AND PUSH4 0xFFFFFFFF AND DUP2 MSTORE PUSH1 0x20 ADD SWAP1 PUSH1 0x4 ADD SWAP1 PUSH1 0x20 DUP3 PUSH1 0x3 ADD DIV SWAP3 DUP4 ADD SWAP3 PUSH1 0x1 SUB DUP3 MUL SWAP2 POP DUP1 DUP5 GT PUSH2 0xA1A JUMPI SWAP1 POP JUMPDEST POP POP POP POP POP SWAP1 POP JUMPDEST SWAP3 SWAP2 POP POP JUMP JUMPDEST DUP3 DUP2 EQ PUSH2 0xA85 JUMPI PUSH1 0x40 MLOAD PUSH4 0xDBA17AF5 PUSH1 0xE0 SHL DUP2 MSTORE PUSH1 0x4 ADD PUSH1 0x40 MLOAD DUP1 SWAP2 SUB SWAP1 REVERT JUMPDEST PUSH0 DUP1 JUMPDEST DUP5 DUP2 LT ISZERO PUSH2 0xDB4 JUMPI PUSH0 PUSH1 0x8 PUSH0 DUP9 DUP9 DUP6 DUP2 DUP2 LT PUSH2 0xAA6 JUMPI PUSH2 0xAA6 PUSH2 0x35D3 JUMP JUMPDEST SWAP1 POP PUSH1 0x20 MUL ADD CALLDATALOAD DUP2 MSTORE PUSH1 0x20 ADD SWAP1 DUP2 MSTORE PUSH1 0x20 ADD PUSH0 KECCAK256 PUSH1 0x3 ADD PUSH1 0x1 DUP7 DUP7 DUP6 DUP2 DUP2 LT PUSH2 0xAD1 JUMPI PUSH2 0xAD1 PUSH2 0x35D3 JUMP JUMPDEST SWAP1 POP PUSH1 0x20 MUL ADD CALLDATALOAD PUSH2 0xAE2 SWAP2 SWAP1 PUSH2 0x35C0 JUMP JUMPDEST DUP2 SLOAD DUP2 LT PUSH2 0xAF2 JUMPI PUSH2 0xAF2 PUSH2 0x35D3 JUMP JUMPDEST PUSH0 SWAP2 DUP3 MSTORE PUSH1 0x20 DUP3 KECCAK256 PUSH1 0x3 PUSH1 0x4 SWAP1 SWAP3 MUL ADD ADD SLOAD PUSH4 0xFFFFFFFF AND SWAP2 POP PUSH1 0x8 DUP2 DUP10 DUP10 DUP7 DUP2 DUP2 LT PUSH2 0xB21 JUMPI PUSH2 0xB21 PUSH2 0x35D3 JUMP JUMPDEST SWAP1 POP PUSH1 0x20 MUL ADD CALLDATALOAD DUP2 MSTORE PUSH1 0x20 ADD SWAP1 DUP2 MSTORE PUSH1 0x20 ADD PUSH0 KECCAK256 PUSH1 0x3 ADD PUSH1 0x1 DUP8 DUP8 DUP7 DUP2 DUP2 LT PUSH2 0xB4C JUMPI PUSH2 0xB4C PUSH2 0x35D3 JUMP JUMPDEST SWAP1 POP PUSH1 0x20 MUL ADD CALLDATALOAD PUSH2 0xB5D SWAP2 SWAP1 PUSH2 0x35C0 JUMP JUMPDEST DUP2 SLOAD DUP2 LT PUSH2 0xB6D JUMPI PUSH2 0xB6D PUSH2 0x35D3 JUMP JUMPDEST PUSH0 SWAP2 DUP3 MSTORE PUSH1 0x20 DUP3 KECCAK256 PUSH1 0x3 PUSH1 0x4 SWAP1 SWAP3 MUL ADD ADD SLOAD PUSH1 0xFF PUSH1 0x1 PUSH1 0x20 SHL SWAP1 SWAP2 DIV AND SWAP2 POP PUSH4 0xFFFFFFFF DUP4 AND SWAP1 SUB PUSH2 0xBB2 JUMPI PUSH1 0x40 MLOAD PUSH4 0xCB84433 PUSH1 0xE4 SHL DUP2 MSTORE PUSH1 0x4 ADD PUSH1 0x40 MLOAD DUP1 SWAP2 SUB SWAP1 REVERT JUMPDEST DUP1 ISZERO PUSH2 0xBD1 JUMPI PUSH1 0x40 MLOAD PUSH4 0xC8D9EAB PUSH1 0xE3 SHL DUP2 MSTORE PUSH1 0x4 ADD PUSH1 0x40 MLOAD DUP1 SWAP2 SUB SWAP1 REVERT JUMPDEST PUSH1 0x4 PUSH0 DUP10 DUP10 DUP7 DUP2 DUP2 LT PUSH2 0xBE6 JUMPI PUSH2 0xBE6 PUSH2 0x35D3 JUMP JUMPDEST SWAP1 POP PUSH1 0x20 MUL ADD CALLDATALOAD DUP2 MSTORE PUSH1 0x20 ADD SWAP1 DUP2 MSTORE PUSH1 0x20 ADD PUSH0 KECCAK256 PUSH0 DUP8 DUP8 DUP7 DUP2 DUP2 LT PUSH2 0xC0D JUMPI PUSH2 0xC0D PUSH2 0x35D3 JUMP JUMPDEST PUSH1 0x20 SWAP1 DUP2 MUL SWAP3 SWAP1 SWAP3 ADD CALLDATALOAD DUP4 MSTORE POP DUP2 DUP2 ADD SWAP3 SWAP1 SWAP3 MSTORE PUSH1 0x40 SWAP1 DUP2 ADD PUSH0 SWAP1 DUP2 KECCAK256 PUSH4 0xFFFFFFFF DUP7 AND DUP3 MSTORE SWAP1 SWAP3 MSTORE SWAP1 KECCAK256 SLOAD PUSH1 0x1 PUSH1 0x1 PUSH1 0xA0 SHL SUB AND CALLER EQ PUSH2 0xC61 JUMPI PUSH1 0x40 MLOAD PUSH4 0x30C63921 PUSH1 0xE1 SHL DUP2 MSTORE PUSH1 0x4 ADD PUSH1 0x40 MLOAD DUP1 SWAP2 SUB SWAP1 REVERT JUMPDEST PUSH1 0x8 PUSH0 DUP10 DUP10 DUP7 DUP2 DUP2 LT PUSH2 0xC76 JUMPI PUSH2 0xC76 PUSH2 0x35D3 JUMP JUMPDEST PUSH1 0x20 SWAP1 DUP2 MUL SWAP3 SWAP1 SWAP3 ADD CALLDATALOAD DUP4 MSTORE POP DUP2 ADD SWAP2 SWAP1 SWAP2 MSTORE PUSH1 0x40 ADD PUSH0 KECCAK256 SLOAD PUSH2 0xCA2 SWAP1 PUSH1 0x1 PUSH1 0x1 PUSH1 0x80 SHL SUB AND DUP6 PUSH2 0x35E7 JUMP JUMPDEST SWAP4 POP PUSH1 0x1 PUSH1 0x8 PUSH0 DUP11 DUP11 DUP8 DUP2 DUP2 LT PUSH2 0xCBB JUMPI PUSH2 0xCBB PUSH2 0x35D3 JUMP JUMPDEST SWAP1 POP PUSH1 0x20 MUL ADD CALLDATALOAD DUP2 MSTORE PUSH1 0x20 ADD SWAP1 DUP2 MSTORE PUSH1 0x20 ADD PUSH0 KECCAK256 PUSH1 0x3 ADD PUSH1 0x1 DUP9 DUP9 DUP8 DUP2 DUP2 LT PUSH2 0xCE6 JUMPI PUSH2 0xCE6 PUSH2 0x35D3 JUMP JUMPDEST SWAP1 POP PUSH1 0x20 MUL ADD CALLDATALOAD PUSH2 0xCF7 SWAP2 SWAP1 PUSH2 0x35C0 JUMP JUMPDEST DUP2 SLOAD DUP2 LT PUSH2 0xD07 JUMPI PUSH2 0xD07 PUSH2 0x35D3 JUMP JUMPDEST SWAP1 PUSH0 MSTORE PUSH1 0x20 PUSH0 KECCAK256 SWAP1 PUSH1 0x4 MUL ADD PUSH1 0x3 ADD PUSH1 0x4 PUSH2 0x100 EXP DUP2 SLOAD DUP2 PUSH1 0xFF MUL NOT AND SWAP1 DUP4 ISZERO ISZERO MUL OR SWAP1 SSTORE POP PUSH32 0x1128BEE023F7DCF9B3F27E6D488DF4C2B5A149077A2E3437A16E8DFDBFE0F38D DUP9 DUP9 DUP6 DUP2 DUP2 LT PUSH2 0xD60 JUMPI PUSH2 0xD60 PUSH2 0x35D3 JUMP JUMPDEST SWAP1 POP PUSH1 0x20 MUL ADD CALLDATALOAD DUP8 DUP8 DUP7 DUP2 DUP2 LT PUSH2 0xD79 JUMPI PUSH2 0xD79 PUSH2 0x35D3 JUMP JUMPDEST SWAP1 POP PUSH1 0x20 MUL ADD CALLDATALOAD PUSH1 0x40 MLOAD PUSH2 0xD97 SWAP3 SWAP2 SWAP1 SWAP2 DUP3 MSTORE PUSH1 0x20 DUP3 ADD MSTORE PUSH1 0x40 ADD SWAP1 JUMP JUMPDEST PUSH1 0x40 MLOAD DUP1 SWAP2 SUB SWAP1 LOG1 POP POP DUP1 DUP1 PUSH2 0xDAC SWAP1 PUSH2 0x35FA JUMP JUMPDEST SWAP2 POP POP PUSH2 0xA88 JUMP JUMPDEST POP PUSH2 0xDE9 PUSH1 0x1 PUSH1 0x1 PUSH1 0xA0 SHL SUB PUSH32 0x0 AND DUP8 DUP4 PUSH2 0x2C7E JUMP JUMPDEST POP POP POP POP POP POP JUMP JUMPDEST PUSH0 DUP2 DUP2 MSTORE PUSH1 0x8 PUSH1 0x20 SWAP1 DUP2 MSTORE PUSH1 0x40 DUP1 DUP4 KECCAK256 DUP2 MLOAD PUSH1 0xC0 DUP2 ADD DUP4 MSTORE DUP2 SLOAD PUSH1 0x1 PUSH1 0x1 PUSH1 0x80 SHL SUB DUP1 DUP3 AND DUP4 MSTORE PUSH1 0x1 PUSH1 0x80 SHL SWAP2 DUP3 SWAP1 DIV DUP2 AND DUP4 DUP8 ADD MSTORE PUSH1 0x1 DUP5 ADD SLOAD DUP1 DUP3 AND DUP5 DUP8 ADD MSTORE SWAP2 SWAP1 SWAP2 DIV DUP2 AND PUSH1 0x60 DUP4 ADD MSTORE PUSH1 0x2 DUP4 ADD SLOAD AND PUSH1 0x80 DUP3 ADD MSTORE PUSH1 0x3 DUP3 ADD DUP1 SLOAD DUP5 MLOAD DUP2 DUP8 MUL DUP2 ADD DUP8 ADD SWAP1 SWAP6 MSTORE DUP1 DUP6 MSTORE SWAP2 SWAP5 SWAP3 SWAP4 PUSH1 0xA0 DUP7 ADD SWAP4 SWAP1 SWAP3 SWAP1 DUP8 SWAP1 DUP5 ADD JUMPDEST DUP3 DUP3 LT ISZERO PUSH2 0xEF7 JUMPI PUSH0 DUP5 DUP2 MSTORE PUSH1 0x20 SWAP1 DUP2 SWAP1 KECCAK256 PUSH1 0x40 DUP1 MLOAD PUSH1 0xC0 DUP2 ADD DUP3 MSTORE PUSH1 0x4 DUP7 MUL SWAP1 SWAP3 ADD DUP1 SLOAD PUSH1 0x1 PUSH1 0x1 PUSH1 0x80 SHL SUB DUP1 DUP3 AND DUP6 MSTORE PUSH1 0x1 PUSH1 0x80 SHL SWAP1 SWAP2 DIV DUP2 AND DUP5 DUP7 ADD MSTORE PUSH1 0x1 DUP1 DUP4 ADD SLOAD SWAP1 SWAP2 AND SWAP3 DUP5 ADD SWAP3 SWAP1 SWAP3 MSTORE PUSH1 0x2 DUP2 ADD SLOAD PUSH1 0x60 DUP5 ADD MSTORE PUSH1 0x3 ADD SLOAD PUSH4 0xFFFFFFFF DUP2 AND PUSH1 0x80 DUP5 ADD MSTORE PUSH1 0x1 PUSH1 0x20 SHL SWAP1 DIV PUSH1 0xFF AND ISZERO ISZERO PUSH1 0xA0 DUP4 ADD MSTORE SWAP1 DUP4 MSTORE SWAP1 SWAP3 ADD SWAP2 ADD PUSH2 0xE6F JUMP JUMPDEST POP POP POP SWAP2 MSTORE POP POP PUSH1 0xA0 DUP2 ADD MLOAD MLOAD SWAP1 SWAP2 POP PUSH0 DUP2 SWAP1 SUB PUSH2 0xF28 JUMPI PUSH1 0x40 MLOAD PUSH4 0x1DBB3FF PUSH1 0xE6 SHL DUP2 MSTORE PUSH1 0x4 ADD PUSH1 0x40 MLOAD DUP1 SWAP2 SUB SWAP1 REVERT JUMPDEST PUSH0 DUP4 DUP2 MSTORE PUSH1 0x8 PUSH1 0x20 MSTORE PUSH1 0x40 DUP2 KECCAK256 PUSH1 0x3 ADD PUSH2 0xF43 PUSH1 0x1 DUP5 PUSH2 0x35C0 JUMP JUMPDEST DUP2 SLOAD DUP2 LT PUSH2 0xF53 JUMPI PUSH2 0xF53 PUSH2 0x35D3 JUMP JUMPDEST PUSH0 SWAP2 DUP3 MSTORE PUSH1 0x20 SWAP2 DUP3 SWAP1 KECCAK256 PUSH1 0x40 DUP1 MLOAD PUSH1 0xC0 DUP2 ADD DUP3 MSTORE PUSH1 0x4 SWAP1 SWAP4 MUL SWAP1 SWAP2 ADD DUP1 SLOAD PUSH1 0x1 PUSH1 0x1 PUSH1 0x80 SHL SUB DUP1 DUP3 AND DUP6 MSTORE PUSH1 0x1 PUSH1 0x80 SHL SWAP1 SWAP2 DIV DUP2 AND SWAP5 DUP5 ADD DUP6 SWAP1 MSTORE PUSH1 0x1 DUP3 ADD SLOAD AND SWAP2 DUP4 ADD SWAP2 SWAP1 SWAP2 MSTORE PUSH1 0x2 DUP2 ADD SLOAD PUSH1 0x60 DUP4 ADD MSTORE PUSH1 0x3 ADD SLOAD PUSH4 0xFFFFFFFF DUP2 AND PUSH1 0x80 DUP4 ADD MSTORE PUSH1 0xFF PUSH1 0x1 PUSH1 0x20 SHL SWAP1 SWAP2 DIV AND ISZERO ISZERO PUSH1 0xA0 DUP3 ADD MSTORE SWAP2 POP TIMESTAMP LT ISZERO PUSH2 0xFE9 JUMPI PUSH1 0x40 MLOAD PUSH4 0x1A6031A3 PUSH1 0xE3 SHL DUP2 MSTORE PUSH1 0x4 ADD PUSH1 0x40 MLOAD DUP1 SWAP2 SUB SWAP1 REVERT JUMPDEST PUSH1 0x60 DUP2 ADD MLOAD ISZERO PUSH2 0x100C JUMPI PUSH1 0x40 MLOAD PUSH4 0x97E1D9B PUSH1 0xE0 SHL DUP2 MSTORE PUSH1 0x4 ADD PUSH1 0x40 MLOAD DUP1 SWAP2 SUB SWAP1 REVERT JUMPDEST PUSH1 0x1 SLOAD PUSH1 0x40 DUP1 MLOAD PUSH4 0xE0C86289 PUSH1 0xE0 SHL DUP2 MSTORE SWAP1 MLOAD PUSH0 SWAP3 PUSH1 0x1 PUSH1 0x1 PUSH1 0xA0 SHL SUB AND SWAP2 PUSH4 0xE0C86289 SWAP2 PUSH1 0x4 DUP1 DUP4 ADD SWAP3 PUSH1 0x20 SWAP3 SWAP2 SWAP1 DUP3 SWAP1 SUB ADD DUP2 DUP8 DUP8 GAS CALL ISZERO DUP1 ISZERO PUSH2 0x1054 JUMPI RETURNDATASIZE PUSH0 DUP1 RETURNDATACOPY RETURNDATASIZE PUSH0 REVERT JUMPDEST POP POP POP POP PUSH1 0x40 MLOAD RETURNDATASIZE PUSH1 0x1F NOT PUSH1 0x1F DUP3 ADD AND DUP3 ADD DUP1 PUSH1 0x40 MSTORE POP DUP2 ADD SWAP1 PUSH2 0x1078 SWAP2 SWAP1 PUSH2 0x3612 JUMP JUMPDEST PUSH1 0x40 DUP1 MLOAD DUP1 DUP3 ADD DUP3 MSTORE DUP8 DUP2 MSTORE PUSH1 0x20 DUP1 DUP3 ADD DUP8 DUP2 MSTORE PUSH0 DUP6 DUP2 MSTORE PUSH1 0x7 DUP4 MSTORE DUP5 DUP2 KECCAK256 SWAP4 MLOAD DUP5 SSTORE SWAP1 MLOAD PUSH1 0x1 SWAP4 DUP5 ADD SSTORE PUSH1 0x60 DUP8 ADD DUP6 SWAP1 MSTORE DUP10 DUP2 MSTORE PUSH1 0x8 SWAP1 SWAP2 MSTORE SWAP2 SWAP1 SWAP2 KECCAK256 SWAP2 SWAP3 POP DUP4 SWAP2 PUSH1 0x3 ADD SWAP1 PUSH2 0x10C9 SWAP1 DUP7 PUSH2 0x35C0 JUMP JUMPDEST DUP2 SLOAD DUP2 LT PUSH2 0x10D9 JUMPI PUSH2 0x10D9 PUSH2 0x35D3 JUMP JUMPDEST PUSH0 SWAP2 DUP3 MSTORE PUSH1 0x20 DUP1 DUP4 KECCAK256 DUP5 MLOAD SWAP2 DUP6 ADD MLOAD PUSH1 0x1 PUSH1 0x1 PUSH1 0x80 SHL SUB SWAP1 DUP2 AND PUSH1 0x1 PUSH1 0x80 SHL MUL SWAP3 DUP2 AND SWAP3 SWAP1 SWAP3 OR PUSH1 0x4 SWAP1 SWAP4 MUL ADD SWAP2 DUP3 SSTORE PUSH1 0x40 DUP5 ADD MLOAD PUSH1 0x1 DUP4 ADD DUP1 SLOAD SWAP2 SWAP1 SWAP3 AND PUSH1 0x1 PUSH1 0x1 PUSH1 0x80 SHL SUB NOT SWAP2 SWAP1 SWAP2 AND OR SWAP1 SSTORE PUSH1 0x60 DUP4 ADD MLOAD PUSH1 0x2 DUP3 ADD SSTORE PUSH1 0x80 DUP1 DUP5 ADD MLOAD PUSH1 0x3 SWAP1 SWAP3 ADD DUP1 SLOAD PUSH1 0xA0 SWAP1 SWAP6 ADD MLOAD ISZERO ISZERO PUSH1 0x1 PUSH1 0x20 SHL MUL PUSH5 0xFFFFFFFFFF NOT SWAP1 SWAP6 AND PUSH4 0xFFFFFFFF SWAP1 SWAP4 AND SWAP3 SWAP1 SWAP3 OR SWAP4 SWAP1 SWAP4 OR SWAP1 SSTORE SWAP1 DUP6 ADD MLOAD PUSH2 0x1177 SWAP1 TIMESTAMP PUSH2 0x3629 JUMP JUMPDEST SWAP1 POP PUSH0 DUP6 PUSH1 0x60 ADD MLOAD DUP3 PUSH2 0x118A SWAP2 SWAP1 PUSH2 0x3629 JUMP JUMPDEST SWAP1 POP PUSH0 PUSH1 0x40 MLOAD DUP1 PUSH1 0xC0 ADD PUSH1 0x40 MSTORE DUP1 DUP5 PUSH1 0x1 PUSH1 0x1 PUSH1 0x80 SHL SUB AND DUP2 MSTORE PUSH1 0x20 ADD DUP4 PUSH1 0x1 PUSH1 0x1 PUSH1 0x80 SHL SUB AND DUP2 MSTORE PUSH1 0x20 ADD DUP9 PUSH1 0x20 ADD MLOAD PUSH1 0x1 PUSH1 0x1 PUSH1 0x80 SHL SUB AND DUP2 MSTORE PUSH1 0x20 ADD PUSH0 DUP2 MSTORE PUSH1 0x20 ADD PUSH0 PUSH4 0xFFFFFFFF AND DUP2 MSTORE PUSH1 0x20 ADD PUSH0 ISZERO ISZERO DUP2 MSTORE POP SWAP1 POP PUSH1 0x8 PUSH0 DUP10 DUP2 MSTORE PUSH1 0x20 ADD SWAP1 DUP2 MSTORE PUSH1 0x20 ADD PUSH0 KECCAK256 PUSH1 0x3 ADD DUP2 SWAP1 DUP1 PUSH1 0x1 DUP2 SLOAD ADD DUP1 DUP3 SSTORE DUP1 SWAP2 POP POP PUSH1 0x1 SWAP1 SUB SWAP1 PUSH0 MSTORE PUSH1 0x20 PUSH0 KECCAK256 SWAP1 PUSH1 0x4 MUL ADD PUSH0 SWAP1 SWAP2 SWAP1 SWAP2 SWAP1 SWAP2 POP PUSH0 DUP3 ADD MLOAD DUP2 PUSH0 ADD PUSH0 PUSH2 0x100 EXP DUP2 SLOAD DUP2 PUSH1 0x1 PUSH1 0x1 PUSH1 0x80 SHL SUB MUL NOT AND SWAP1 DUP4 PUSH1 0x1 PUSH1 0x1 PUSH1 0x80 SHL SUB AND MUL OR SWAP1 SSTORE POP PUSH1 0x20 DUP3 ADD MLOAD DUP2 PUSH0 ADD PUSH1 0x10 PUSH2 0x100 EXP DUP2 SLOAD DUP2 PUSH1 0x1 PUSH1 0x1 PUSH1 0x80 SHL SUB MUL NOT AND SWAP1 DUP4 PUSH1 0x1 PUSH1 0x1 PUSH1 0x80 SHL SUB AND MUL OR SWAP1 SSTORE POP PUSH1 0x40 DUP3 ADD MLOAD DUP2 PUSH1 0x1 ADD PUSH0 PUSH2 0x100 EXP DUP2 SLOAD DUP2 PUSH1 0x1 PUSH1 0x1 PUSH1 0x80 SHL SUB MUL NOT AND SWAP1 DUP4 PUSH1 0x1 PUSH1 0x1 PUSH1 0x80 SHL SUB AND MUL OR SWAP1 SSTORE POP PUSH1 0x60 DUP3 ADD MLOAD DUP2 PUSH1 0x2 ADD SSTORE PUSH1 0x80 DUP3 ADD MLOAD DUP2 PUSH1 0x3 ADD PUSH0 PUSH2 0x100 EXP DUP2 SLOAD DUP2 PUSH4 0xFFFFFFFF MUL NOT AND SWAP1 DUP4 PUSH4 0xFFFFFFFF AND MUL OR SWAP1 SSTORE POP PUSH1 0xA0 DUP3 ADD MLOAD DUP2 PUSH1 0x3 ADD PUSH1 0x4 PUSH2 0x100 EXP DUP2 SLOAD DUP2 PUSH1 0xFF MUL NOT AND SWAP1 DUP4 ISZERO ISZERO MUL OR SWAP1 SSTORE POP POP POP PUSH0 PUSH1 0x8 PUSH0 DUP11 DUP2 MSTORE PUSH1 0x20 ADD SWAP1 DUP2 MSTORE PUSH1 0x20 ADD PUSH0 KECCAK256 PUSH1 0x3 ADD DUP1 SLOAD SWAP1 POP SWAP1 POP PUSH32 0x9B4E1F1B6DF74EFF26420E77CE7891D410B236932A083B7C18D599FBD654A8C7 DUP10 DUP3 DUP7 DUP7 PUSH1 0x40 MLOAD PUSH2 0x1364 SWAP5 SWAP4 SWAP3 SWAP2 SWAP1 SWAP4 DUP5 MSTORE PUSH1 0x20 DUP5 ADD SWAP3 SWAP1 SWAP3 MSTORE PUSH1 0x1 PUSH1 0x1 PUSH1 0x80 SHL SUB SWAP1 DUP2 AND PUSH1 0x40 DUP5 ADD MSTORE AND PUSH1 0x60 DUP3 ADD MSTORE PUSH1 0x80 ADD SWAP1 JUMP JUMPDEST PUSH1 0x40 MLOAD DUP1 SWAP2 SUB SWAP1 LOG1 POP POP POP POP POP POP POP POP POP JUMP JUMPDEST PUSH1 0x1 PUSH1 0x1 PUSH1 0xA0 SHL SUB DUP4 AND PUSH0 SWAP1 DUP2 MSTORE PUSH1 0x5 PUSH1 0x20 SWAP1 DUP2 MSTORE PUSH1 0x40 DUP1 DUP4 KECCAK256 DUP1 SLOAD DUP3 MLOAD DUP2 DUP6 MUL DUP2 ADD DUP6 ADD SWAP1 SWAP4 MSTORE DUP1 DUP4 MSTORE PUSH1 0x60 SWAP5 SWAP4 DUP5 SWAP1 DUP5 ADD JUMPDEST DUP3 DUP3 LT ISZERO PUSH2 0x1483 JUMPI DUP4 DUP3 SWAP1 PUSH0 MSTORE PUSH1 0x20 PUSH0 KECCAK256 SWAP1 PUSH1 0x5 MUL ADD PUSH1 0x40 MLOAD DUP1 PUSH1 0xA0 ADD PUSH1 0x40 MSTORE SWAP1 DUP2 PUSH0 DUP3 ADD SLOAD DUP2 MSTORE PUSH1 0x20 ADD PUSH1 0x1 DUP3 ADD SLOAD DUP2 MSTORE PUSH1 0x20 ADD PUSH1 0x2 DUP3 ADD SLOAD DUP2 MSTORE PUSH1 0x20 ADD PUSH1 0x3 DUP3 ADD SLOAD DUP2 MSTORE PUSH1 0x20 ADD PUSH1 0x4 DUP3 ADD DUP1 SLOAD DUP1 PUSH1 0x20 MUL PUSH1 0x20 ADD PUSH1 0x40 MLOAD SWAP1 DUP2 ADD PUSH1 0x40 MSTORE DUP1 SWAP3 SWAP2 SWAP1 DUP2 DUP2 MSTORE PUSH1 0x20 ADD DUP3 DUP1 SLOAD DUP1 ISZERO PUSH2 0x146B JUMPI PUSH1 0x20 MUL DUP3 ADD SWAP2 SWAP1 PUSH0 MSTORE PUSH1 0x20 PUSH0 KECCAK256 SWAP1 PUSH0 SWAP1 JUMPDEST DUP3 DUP3 SWAP1 SLOAD SWAP1 PUSH2 0x100 EXP SWAP1 DIV PUSH4 0xFFFFFFFF AND PUSH4 0xFFFFFFFF AND DUP2 MSTORE PUSH1 0x20 ADD SWAP1 PUSH1 0x4 ADD SWAP1 PUSH1 0x20 DUP3 PUSH1 0x3 ADD DIV SWAP3 DUP4 ADD SWAP3 PUSH1 0x1 SUB DUP3 MUL SWAP2 POP DUP1 DUP5 GT PUSH2 0x142E JUMPI SWAP1 POP JUMPDEST POP POP POP POP POP DUP2 MSTORE POP POP DUP2 MSTORE PUSH1 0x20 ADD SWAP1 PUSH1 0x1 ADD SWAP1 PUSH2 0x13AB JUMP JUMPDEST POP POP POP POP SWAP1 POP PUSH0 DUP2 MLOAD PUSH8 0xFFFFFFFFFFFFFFFF DUP2 GT ISZERO PUSH2 0x14A4 JUMPI PUSH2 0x14A4 PUSH2 0x332E JUMP JUMPDEST PUSH1 0x40 MLOAD SWAP1 DUP1 DUP3 MSTORE DUP1 PUSH1 0x20 MUL PUSH1 0x20 ADD DUP3 ADD PUSH1 0x40 MSTORE DUP1 ISZERO PUSH2 0x14DD JUMPI DUP2 PUSH1 0x20 ADD JUMPDEST PUSH2 0x14CA PUSH2 0x2F2F JUMP JUMPDEST DUP2 MSTORE PUSH1 0x20 ADD SWAP1 PUSH1 0x1 SWAP1 SUB SWAP1 DUP2 PUSH2 0x14C2 JUMPI SWAP1 POP JUMPDEST POP SWAP1 POP PUSH0 DUP1 JUMPDEST DUP4 MLOAD DUP2 LT ISZERO PUSH2 0x1563 JUMPI PUSH0 DUP5 DUP3 DUP2 MLOAD DUP2 LT PUSH2 0x14FF JUMPI PUSH2 0x14FF PUSH2 0x35D3 JUMP JUMPDEST PUSH1 0x20 MUL PUSH1 0x20 ADD ADD MLOAD SWAP1 POP DUP1 PUSH0 ADD MLOAD DUP9 EQ DUP1 ISZERO PUSH2 0x151E JUMPI POP DUP1 PUSH1 0x20 ADD MLOAD DUP8 EQ JUMPDEST ISZERO PUSH2 0x1550 JUMPI DUP1 DUP5 DUP5 DUP2 MLOAD DUP2 LT PUSH2 0x1536 JUMPI PUSH2 0x1536 PUSH2 0x35D3 JUMP JUMPDEST PUSH1 0x20 MUL PUSH1 0x20 ADD ADD DUP2 SWAP1 MSTORE POP DUP3 DUP1 PUSH2 0x154C SWAP1 PUSH2 0x35FA JUMP JUMPDEST SWAP4 POP POP JUMPDEST POP DUP1 PUSH2 0x155B DUP2 PUSH2 0x35FA JUMP JUMPDEST SWAP2 POP POP PUSH2 0x14E3 JUMP JUMPDEST POP DUP1 PUSH8 0xFFFFFFFFFFFFFFFF DUP2 GT ISZERO PUSH2 0x157D JUMPI PUSH2 0x157D PUSH2 0x332E JUMP JUMPDEST PUSH1 0x40 MLOAD SWAP1 DUP1 DUP3 MSTORE DUP1 PUSH1 0x20 MUL PUSH1 0x20 ADD DUP3 ADD PUSH1 0x40 MSTORE DUP1 ISZERO PUSH2 0x15B6 JUMPI DUP2 PUSH1 0x20 ADD JUMPDEST PUSH2 0x15A3 PUSH2 0x2F2F JUMP JUMPDEST DUP2 MSTORE PUSH1 0x20 ADD SWAP1 PUSH1 0x1 SWAP1 SUB SWAP1 DUP2 PUSH2 0x159B JUMPI SWAP1 POP JUMPDEST POP SWAP4 POP PUSH0 JUMPDEST DUP2 DUP2 LT ISZERO PUSH2 0x160D JUMPI DUP3 DUP2 DUP2 MLOAD DUP2 LT PUSH2 0x15D5 JUMPI PUSH2 0x15D5 PUSH2 0x35D3 JUMP JUMPDEST PUSH1 0x20 MUL PUSH1 0x20 ADD ADD MLOAD DUP6 DUP3 DUP2 MLOAD DUP2 LT PUSH2 0x15EF JUMPI PUSH2 0x15EF PUSH2 0x35D3 JUMP JUMPDEST PUSH1 0x20 MUL PUSH1 0x20 ADD ADD DUP2 SWAP1 MSTORE POP DUP1 DUP1 PUSH2 0x1605 SWAP1 PUSH2 0x35FA JUMP JUMPDEST SWAP2 POP POP PUSH2 0x15BB JUMP JUMPDEST POP POP POP POP SWAP4 SWAP3 POP POP POP JUMP JUMPDEST PUSH1 0x1 SLOAD PUSH1 0x1 PUSH1 0x1 PUSH1 0xA0 SHL SUB AND CALLER EQ PUSH2 0x1643 JUMPI PUSH1 0x40 MLOAD PUSH4 0x3BFE162B PUSH1 0xE0 SHL DUP2 MSTORE PUSH1 0x4 ADD PUSH1 0x40 MLOAD DUP1 SWAP2 SUB SWAP1 REVERT JUMPDEST PUSH0 DUP3 DUP2 MSTORE PUSH1 0x7 PUSH1 0x20 SWAP1 DUP2 MSTORE PUSH1 0x40 DUP1 DUP4 KECCAK256 DUP2 MLOAD DUP1 DUP4 ADD DUP4 MSTORE DUP2 SLOAD DUP1 DUP3 MSTORE PUSH1 0x1 SWAP1 SWAP3 ADD SLOAD DUP2 DUP6 ADD MSTORE SWAP1 DUP5 MSTORE PUSH1 0x8 SWAP1 SWAP3 MSTORE DUP3 KECCAK256 SLOAD DUP4 MLOAD SWAP2 SWAP3 SWAP2 PUSH1 0x1 PUSH1 0x80 SHL SWAP1 SWAP2 DIV PUSH1 0x1 PUSH1 0x1 PUSH1 0x80 SHL SUB AND SWAP1 DUP5 SWAP1 DUP4 SWAP1 PUSH2 0x169B JUMPI PUSH2 0x169B PUSH2 0x35D3 JUMP JUMPDEST PUSH1 0x20 MUL PUSH1 0x20 ADD ADD MLOAD PUSH2 0x16AD SWAP2 SWAP1 PUSH2 0x3664 JUMP JUMPDEST PUSH2 0x16B8 SWAP1 PUSH1 0x1 PUSH2 0x35E7 JUMP JUMPDEST SWAP1 POP DUP1 PUSH1 0x8 PUSH0 DUP5 PUSH0 ADD MLOAD DUP2 MSTORE PUSH1 0x20 ADD SWAP1 DUP2 MSTORE PUSH1 0x20 ADD PUSH0 KECCAK256 PUSH1 0x3 ADD PUSH1 0x1 DUP5 PUSH1 0x20 ADD MLOAD PUSH2 0x16E3 SWAP2 SWAP1 PUSH2 0x35C0 JUMP JUMPDEST DUP2 SLOAD DUP2 LT PUSH2 0x16F3 JUMPI PUSH2 0x16F3 PUSH2 0x35D3 JUMP JUMPDEST SWAP1 PUSH0 MSTORE PUSH1 0x20 PUSH0 KECCAK256 SWAP1 PUSH1 0x4 MUL ADD PUSH1 0x3 ADD PUSH0 PUSH2 0x100 EXP DUP2 SLOAD DUP2 PUSH4 0xFFFFFFFF MUL NOT AND SWAP1 DUP4 PUSH4 0xFFFFFFFF AND MUL OR SWAP1 SSTORE POP POP POP POP POP JUMP JUMPDEST PUSH1 0x1 PUSH1 0x1 PUSH1 0xA0 SHL SUB DUP2 AND PUSH0 SWAP1 DUP2 MSTORE PUSH1 0x5 PUSH1 0x20 SWAP1 DUP2 MSTORE PUSH1 0x40 DUP1 DUP4 KECCAK256 DUP1 SLOAD DUP3 MLOAD DUP2 DUP6 MUL DUP2 ADD DUP6 ADD SWAP1 SWAP4 MSTORE DUP1 DUP4 MSTORE PUSH1 0x60 SWAP5 SWAP4 DUP5 SWAP4 SWAP3 SWAP2 SWAP1 DUP5 SWAP1 DUP5 ADD JUMPDEST DUP3 DUP3 LT ISZERO PUSH2 0x1836 JUMPI DUP4 DUP3 SWAP1 PUSH0 MSTORE PUSH1 0x20 PUSH0 KECCAK256 SWAP1 PUSH1 0x5 MUL ADD PUSH1 0x40 MLOAD DUP1 PUSH1 0xA0 ADD PUSH1 0x40 MSTORE SWAP1 DUP2 PUSH0 DUP3 ADD SLOAD DUP2 MSTORE PUSH1 0x20 ADD PUSH1 0x1 DUP3 ADD SLOAD DUP2 MSTORE PUSH1 0x20 ADD PUSH1 0x2 DUP3 ADD SLOAD DUP2 MSTORE PUSH1 0x20 ADD PUSH1 0x3 DUP3 ADD SLOAD DUP2 MSTORE PUSH1 0x20 ADD PUSH1 0x4 DUP3 ADD DUP1 SLOAD DUP1 PUSH1 0x20 MUL PUSH1 0x20 ADD PUSH1 0x40 MLOAD SWAP1 DUP2 ADD PUSH1 0x40 MSTORE DUP1 SWAP3 SWAP2 SWAP1 DUP2 DUP2 MSTORE PUSH1 0x20 ADD DUP3 DUP1 SLOAD DUP1 ISZERO PUSH2 0x181E JUMPI PUSH1 0x20 MUL DUP3 ADD SWAP2 SWAP1 PUSH0 MSTORE PUSH1 0x20 PUSH0 KECCAK256 SWAP1 PUSH0 SWAP1 JUMPDEST DUP3 DUP3 SWAP1 SLOAD SWAP1 PUSH2 0x100 EXP SWAP1 DIV PUSH4 0xFFFFFFFF AND PUSH4 0xFFFFFFFF AND DUP2 MSTORE PUSH1 0x20 ADD SWAP1 PUSH1 0x4 ADD SWAP1 PUSH1 0x20 DUP3 PUSH1 0x3 ADD DIV SWAP3 DUP4 ADD SWAP3 PUSH1 0x1 SUB DUP3 MUL SWAP2 POP DUP1 DUP5 GT PUSH2 0x17E1 JUMPI SWAP1 POP JUMPDEST POP POP POP POP POP DUP2 MSTORE POP POP DUP2 MSTORE PUSH1 0x20 ADD SWAP1 PUSH1 0x1 ADD SWAP1 PUSH2 0x175E JUMP JUMPDEST POP POP POP POP SWAP1 POP PUSH0 DUP2 MLOAD PUSH8 0xFFFFFFFFFFFFFFFF DUP2 GT ISZERO PUSH2 0x1857 JUMPI PUSH2 0x1857 PUSH2 0x332E JUMP JUMPDEST PUSH1 0x40 MLOAD SWAP1 DUP1 DUP3 MSTORE DUP1 PUSH1 0x20 MUL PUSH1 0x20 ADD DUP3 ADD PUSH1 0x40 MSTORE DUP1 ISZERO PUSH2 0x1890 JUMPI DUP2 PUSH1 0x20 ADD JUMPDEST PUSH2 0x187D PUSH2 0x2F2F JUMP JUMPDEST DUP2 MSTORE PUSH1 0x20 ADD SWAP1 PUSH1 0x1 SWAP1 SUB SWAP1 DUP2 PUSH2 0x1875 JUMPI SWAP1 POP JUMPDEST POP SWAP1 POP PUSH0 DUP1 JUMPDEST DUP4 MLOAD DUP2 LT ISZERO PUSH2 0x1A48 JUMPI PUSH0 DUP5 DUP3 DUP2 MLOAD DUP2 LT PUSH2 0x18B2 JUMPI PUSH2 0x18B2 PUSH2 0x35D3 JUMP JUMPDEST PUSH1 0x20 SWAP1 DUP2 MUL SWAP2 SWAP1 SWAP2 ADD DUP2 ADD MLOAD DUP1 MLOAD DUP2 DUP4 ADD MLOAD PUSH0 DUP3 DUP2 MSTORE PUSH1 0x8 SWAP1 SWAP5 MSTORE PUSH1 0x40 DUP5 KECCAK256 SWAP3 SWAP5 POP SWAP1 SWAP3 SWAP1 SWAP2 PUSH1 0x3 ADD PUSH2 0x18E6 PUSH1 0x1 DUP5 PUSH2 0x35C0 JUMP JUMPDEST DUP2 SLOAD DUP2 LT PUSH2 0x18F6 JUMPI PUSH2 0x18F6 PUSH2 0x35D3 JUMP JUMPDEST PUSH0 SWAP2 DUP3 MSTORE PUSH1 0x20 DUP3 KECCAK256 PUSH1 0x3 PUSH1 0x4 SWAP1 SWAP3 MUL ADD ADD SLOAD PUSH4 0xFFFFFFFF AND SWAP2 POP JUMPDEST DUP5 PUSH1 0x60 ADD MLOAD DUP2 LT ISZERO PUSH2 0x1A30 JUMPI DUP5 PUSH1 0x80 ADD MLOAD DUP2 DUP2 MLOAD DUP2 LT PUSH2 0x1933 JUMPI PUSH2 0x1933 PUSH2 0x35D3 JUMP JUMPDEST PUSH1 0x20 MUL PUSH1 0x20 ADD ADD MLOAD PUSH4 0xFFFFFFFF AND DUP3 PUSH4 0xFFFFFFFF AND SUB PUSH2 0x1A1E JUMPI PUSH1 0x40 DUP1 MLOAD PUSH1 0x1 DUP1 DUP3 MSTORE DUP2 DUP4 ADD SWAP1 SWAP3 MSTORE PUSH0 SWAP2 PUSH1 0x20 DUP1 DUP4 ADD SWAP1 DUP1 CALLDATASIZE DUP4 CALLDATACOPY ADD SWAP1 POP POP SWAP1 POP DUP3 DUP2 PUSH0 DUP2 MLOAD DUP2 LT PUSH2 0x1981 JUMPI PUSH2 0x1981 PUSH2 0x35D3 JUMP JUMPDEST PUSH1 0x20 MUL PUSH1 0x20 ADD ADD SWAP1 PUSH4 0xFFFFFFFF AND SWAP1 DUP2 PUSH4 0xFFFFFFFF AND DUP2 MSTORE POP POP PUSH1 0x40 MLOAD DUP1 PUSH1 0xA0 ADD PUSH1 0x40 MSTORE DUP1 DUP7 DUP2 MSTORE PUSH1 0x20 ADD DUP6 DUP2 MSTORE PUSH1 0x20 ADD DUP8 PUSH1 0x40 ADD MLOAD DUP2 MSTORE PUSH1 0x20 ADD PUSH1 0x1 DUP2 MSTORE PUSH1 0x20 ADD DUP3 DUP2 MSTORE POP DUP10 DUP10 DUP2 MLOAD DUP2 LT PUSH2 0x19D9 JUMPI PUSH2 0x19D9 PUSH2 0x35D3 JUMP JUMPDEST PUSH1 0x20 SWAP1 DUP2 MUL SWAP2 SWAP1 SWAP2 ADD DUP2 ADD SWAP2 SWAP1 SWAP2 MSTORE PUSH0 DUP7 DUP2 MSTORE PUSH1 0x8 SWAP1 SWAP2 MSTORE PUSH1 0x40 SWAP1 KECCAK256 SLOAD PUSH2 0x1A09 SWAP1 PUSH1 0x1 PUSH1 0x1 PUSH1 0x80 SHL SUB AND DUP13 PUSH2 0x35E7 JUMP JUMPDEST SWAP11 POP DUP8 PUSH2 0x1A15 DUP2 PUSH2 0x35FA JUMP JUMPDEST SWAP9 POP POP POP PUSH2 0x1A30 JUMP JUMPDEST DUP1 PUSH2 0x1A28 DUP2 PUSH2 0x35FA JUMP JUMPDEST SWAP2 POP POP PUSH2 0x1911 JUMP JUMPDEST POP POP POP POP POP DUP1 DUP1 PUSH2 0x1A40 SWAP1 PUSH2 0x35FA JUMP JUMPDEST SWAP2 POP POP PUSH2 0x1896 JUMP JUMPDEST POP DUP1 PUSH8 0xFFFFFFFFFFFFFFFF DUP2 GT ISZERO PUSH2 0x1A62 JUMPI PUSH2 0x1A62 PUSH2 0x332E JUMP JUMPDEST PUSH1 0x40 MLOAD SWAP1 DUP1 DUP3 MSTORE DUP1 PUSH1 0x20 MUL PUSH1 0x20 ADD DUP3 ADD PUSH1 0x40 MSTORE DUP1 ISZERO PUSH2 0x1A9B JUMPI DUP2 PUSH1 0x20 ADD JUMPDEST PUSH2 0x1A88 PUSH2 0x2F2F JUMP JUMPDEST DUP2 MSTORE PUSH1 0x20 ADD SWAP1 PUSH1 0x1 SWAP1 SUB SWAP1 DUP2 PUSH2 0x1A80 JUMPI SWAP1 POP JUMPDEST POP SWAP5 POP PUSH0 JUMPDEST DUP2 DUP2 LT ISZERO PUSH2 0x1AF2 JUMPI DUP3 DUP2 DUP2 MLOAD DUP2 LT PUSH2 0x1ABA JUMPI PUSH2 0x1ABA PUSH2 0x35D3 JUMP JUMPDEST PUSH1 0x20 MUL PUSH1 0x20 ADD ADD MLOAD DUP7 DUP3 DUP2 MLOAD DUP2 LT PUSH2 0x1AD4 JUMPI PUSH2 0x1AD4 PUSH2 0x35D3 JUMP JUMPDEST PUSH1 0x20 MUL PUSH1 0x20 ADD ADD DUP2 SWAP1 MSTORE POP DUP1 DUP1 PUSH2 0x1AEA SWAP1 PUSH2 0x35FA JUMP JUMPDEST SWAP2 POP POP PUSH2 0x1AA0 JUMP JUMPDEST POP POP POP POP SWAP2 POP SWAP2 JUMP JUMPDEST PUSH2 0x1B03 PUSH2 0x2CE2 JUMP JUMPDEST PUSH2 0x1B0C PUSH0 PUSH2 0x2D0E JUMP JUMPDEST JUMP JUMPDEST PUSH0 DUP2 SWAP1 SUB PUSH2 0x1B2F JUMPI PUSH1 0x40 MLOAD PUSH4 0x5E7719FF PUSH1 0xE0 SHL DUP2 MSTORE PUSH1 0x4 ADD PUSH1 0x40 MLOAD DUP1 SWAP2 SUB SWAP1 REVERT JUMPDEST PUSH0 DUP5 DUP2 MSTORE PUSH1 0x8 PUSH1 0x20 SWAP1 DUP2 MSTORE PUSH1 0x40 DUP1 DUP4 KECCAK256 DUP2 MLOAD PUSH1 0xC0 DUP2 ADD DUP4 MSTORE DUP2 SLOAD PUSH1 0x1 PUSH1 0x1 PUSH1 0x80 SHL SUB DUP1 DUP3 AND DUP4 MSTORE PUSH1 0x1 PUSH1 0x80 SHL SWAP2 DUP3 SWAP1 DIV DUP2 AND DUP4 DUP8 ADD MSTORE PUSH1 0x1 DUP5 ADD SLOAD DUP1 DUP3 AND DUP5 DUP8 ADD MSTORE SWAP2 SWAP1 SWAP2 DIV DUP2 AND PUSH1 0x60 DUP4 ADD MSTORE PUSH1 0x2 DUP4 ADD SLOAD AND PUSH1 0x80 DUP3 ADD MSTORE PUSH1 0x3 DUP3 ADD DUP1 SLOAD DUP5 MLOAD DUP2 DUP8 MUL DUP2 ADD DUP8 ADD SWAP1 SWAP6 MSTORE DUP1 DUP6 MSTORE SWAP2 SWAP5 SWAP3 SWAP4 PUSH1 0xA0 DUP7 ADD SWAP4 SWAP1 SWAP3 SWAP1 DUP8 SWAP1 DUP5 ADD JUMPDEST DUP3 DUP3 LT ISZERO PUSH2 0x1C35 JUMPI PUSH0 DUP5 DUP2 MSTORE PUSH1 0x20 SWAP1 DUP2 SWAP1 KECCAK256 PUSH1 0x40 DUP1 MLOAD PUSH1 0xC0 DUP2 ADD DUP3 MSTORE PUSH1 0x4 DUP7 MUL SWAP1 SWAP3 ADD DUP1 SLOAD PUSH1 0x1 PUSH1 0x1 PUSH1 0x80 SHL SUB DUP1 DUP3 AND DUP6 MSTORE PUSH1 0x1 PUSH1 0x80 SHL SWAP1 SWAP2 DIV DUP2 AND DUP5 DUP7 ADD MSTORE PUSH1 0x1 DUP1 DUP4 ADD SLOAD SWAP1 SWAP2 AND SWAP3 DUP5 ADD SWAP3 SWAP1 SWAP3 MSTORE PUSH1 0x2 DUP2 ADD SLOAD PUSH1 0x60 DUP5 ADD MSTORE PUSH1 0x3 ADD SLOAD PUSH4 0xFFFFFFFF DUP2 AND PUSH1 0x80 DUP5 ADD MSTORE PUSH1 0x1 PUSH1 0x20 SHL SWAP1 DIV PUSH1 0xFF AND ISZERO ISZERO PUSH1 0xA0 DUP4 ADD MSTORE SWAP1 DUP4 MSTORE SWAP1 SWAP3 ADD SWAP2 ADD PUSH2 0x1BAD JUMP JUMPDEST POP POP POP SWAP2 MSTORE POP POP PUSH1 0xA0 DUP2 ADD MLOAD SWAP1 SWAP2 POP PUSH0 SWAP1 PUSH2 0x1C51 PUSH1 0x1 DUP8 PUSH2 0x35C0 JUMP JUMPDEST DUP2 MLOAD DUP2 LT PUSH2 0x1C61 JUMPI PUSH2 0x1C61 PUSH2 0x35D3 JUMP JUMPDEST PUSH1 0x20 MUL PUSH1 0x20 ADD ADD MLOAD SWAP1 POP DUP1 PUSH0 ADD MLOAD PUSH1 0x1 PUSH1 0x1 PUSH1 0x80 SHL SUB AND TIMESTAMP LT ISZERO PUSH2 0x1C98 JUMPI PUSH1 0x40 MLOAD PUSH4 0x8970597 PUSH1 0xE2 SHL DUP2 MSTORE PUSH1 0x4 ADD PUSH1 0x40 MLOAD DUP1 SWAP2 SUB SWAP1 REVERT JUMPDEST DUP1 PUSH1 0x20 ADD MLOAD PUSH1 0x1 PUSH1 0x1 PUSH1 0x80 SHL SUB AND TIMESTAMP LT PUSH2 0x1CC5 JUMPI PUSH1 0x40 MLOAD PUSH4 0x6B5FD31B PUSH1 0xE0 SHL DUP2 MSTORE PUSH1 0x4 ADD PUSH1 0x40 MLOAD DUP1 SWAP2 SUB SWAP1 REVERT JUMPDEST PUSH1 0x40 DUP2 ADD MLOAD PUSH1 0x1 PUSH1 0x1 PUSH1 0x80 SHL SUB AND DUP4 GT ISZERO PUSH2 0x1CF3 JUMPI PUSH1 0x40 MLOAD PUSH4 0x7EA7FDB PUSH1 0xE2 SHL DUP2 MSTORE PUSH1 0x4 ADD PUSH1 0x40 MLOAD DUP1 SWAP2 SUB SWAP1 REVERT JUMPDEST PUSH0 JUMPDEST DUP4 DUP2 LT ISZERO PUSH2 0x1F6E JUMPI DUP5 DUP5 DUP3 DUP2 DUP2 LT PUSH2 0x1D0F JUMPI PUSH2 0x1D0F PUSH2 0x35D3 JUMP JUMPDEST SWAP1 POP PUSH1 0x20 MUL ADD PUSH1 0x20 DUP2 ADD SWAP1 PUSH2 0x1D24 SWAP2 SWAP1 PUSH2 0x3677 JUMP JUMPDEST PUSH4 0xFFFFFFFF AND ISZERO DUP1 PUSH2 0x1D6E JUMPI POP DUP3 PUSH1 0x20 ADD MLOAD PUSH1 0x1 PUSH1 0x1 PUSH1 0x80 SHL SUB AND DUP6 DUP6 DUP4 DUP2 DUP2 LT PUSH2 0x1D51 JUMPI PUSH2 0x1D51 PUSH2 0x35D3 JUMP JUMPDEST SWAP1 POP PUSH1 0x20 MUL ADD PUSH1 0x20 DUP2 ADD SWAP1 PUSH2 0x1D66 SWAP2 SWAP1 PUSH2 0x3677 JUMP JUMPDEST PUSH4 0xFFFFFFFF AND GT JUMPDEST ISZERO PUSH2 0x1DC1 JUMPI DUP5 DUP5 DUP3 DUP2 DUP2 LT PUSH2 0x1D85 JUMPI PUSH2 0x1D85 PUSH2 0x35D3 JUMP JUMPDEST SWAP1 POP PUSH1 0x20 MUL ADD PUSH1 0x20 DUP2 ADD SWAP1 PUSH2 0x1D9A SWAP2 SWAP1 PUSH2 0x3677 JUMP JUMPDEST PUSH1 0x40 MLOAD PUSH4 0x7C680159 PUSH1 0xE1 SHL DUP2 MSTORE PUSH4 0xFFFFFFFF SWAP1 SWAP2 AND PUSH1 0x4 DUP3 ADD MSTORE PUSH1 0x24 ADD JUMPDEST PUSH1 0x40 MLOAD DUP1 SWAP2 SUB SWAP1 REVERT JUMPDEST PUSH0 DUP8 DUP2 MSTORE PUSH1 0x4 PUSH1 0x20 SWAP1 DUP2 MSTORE PUSH1 0x40 DUP1 DUP4 KECCAK256 DUP10 DUP5 MSTORE SWAP1 SWAP2 MSTORE DUP2 KECCAK256 DUP2 DUP8 DUP8 DUP6 DUP2 DUP2 LT PUSH2 0x1DEC JUMPI PUSH2 0x1DEC PUSH2 0x35D3 JUMP JUMPDEST SWAP1 POP PUSH1 0x20 MUL ADD PUSH1 0x20 DUP2 ADD SWAP1 PUSH2 0x1E01 SWAP2 SWAP1 PUSH2 0x3677 JUMP JUMPDEST PUSH4 0xFFFFFFFF AND DUP2 MSTORE PUSH1 0x20 DUP2 ADD SWAP2 SWAP1 SWAP2 MSTORE PUSH1 0x40 ADD PUSH0 KECCAK256 SLOAD PUSH1 0x1 PUSH1 0x1 PUSH1 0xA0 SHL SUB AND EQ PUSH2 0x1E6E JUMPI DUP5 DUP5 DUP3 DUP2 DUP2 LT PUSH2 0x1E37 JUMPI PUSH2 0x1E37 PUSH2 0x35D3 JUMP JUMPDEST SWAP1 POP PUSH1 0x20 MUL ADD PUSH1 0x20 DUP2 ADD SWAP1 PUSH2 0x1E4C SWAP2 SWAP1 PUSH2 0x3677 JUMP JUMPDEST PUSH1 0x40 MLOAD PUSH4 0x418055D3 PUSH1 0xE1 SHL DUP2 MSTORE PUSH4 0xFFFFFFFF SWAP1 SWAP2 AND PUSH1 0x4 DUP3 ADD MSTORE PUSH1 0x24 ADD PUSH2 0x1DB8 JUMP JUMPDEST PUSH0 DUP8 DUP2 MSTORE PUSH1 0x4 PUSH1 0x20 SWAP1 DUP2 MSTORE PUSH1 0x40 DUP1 DUP4 KECCAK256 DUP10 DUP5 MSTORE SWAP1 SWAP2 MSTORE DUP2 KECCAK256 CALLER SWAP2 DUP8 DUP8 DUP6 DUP2 DUP2 LT PUSH2 0x1E9A JUMPI PUSH2 0x1E9A PUSH2 0x35D3 JUMP JUMPDEST SWAP1 POP PUSH1 0x20 MUL ADD PUSH1 0x20 DUP2 ADD SWAP1 PUSH2 0x1EAF SWAP2 SWAP1 PUSH2 0x3677 JUMP JUMPDEST PUSH4 0xFFFFFFFF AND DUP2 MSTORE PUSH1 0x20 DUP1 DUP3 ADD SWAP3 SWAP1 SWAP3 MSTORE PUSH1 0x40 SWAP1 DUP2 ADD PUSH0 SWAP1 DUP2 KECCAK256 DUP1 SLOAD PUSH1 0x1 PUSH1 0x1 PUSH1 0xA0 SHL SUB NOT AND PUSH1 0x1 PUSH1 0x1 PUSH1 0xA0 SHL SUB SWAP6 SWAP1 SWAP6 AND SWAP5 SWAP1 SWAP5 OR SWAP1 SWAP4 SSTORE DUP10 DUP4 MSTORE PUSH1 0x6 DUP3 MSTORE DUP1 DUP4 KECCAK256 DUP10 DUP5 MSTORE SWAP1 SWAP2 MSTORE SWAP1 KECCAK256 DUP6 DUP6 DUP4 DUP2 DUP2 LT PUSH2 0x1F0C JUMPI PUSH2 0x1F0C PUSH2 0x35D3 JUMP JUMPDEST SWAP1 POP PUSH1 0x20 MUL ADD PUSH1 0x20 DUP2 ADD SWAP1 PUSH2 0x1F21 SWAP2 SWAP1 PUSH2 0x3677 JUMP JUMPDEST DUP2 SLOAD PUSH1 0x1 DUP2 ADD DUP4 SSTORE PUSH0 SWAP3 DUP4 MSTORE PUSH1 0x20 SWAP1 SWAP3 KECCAK256 PUSH1 0x8 DUP4 DIV ADD DUP1 SLOAD PUSH1 0x7 SWAP1 SWAP4 AND PUSH1 0x4 MUL PUSH2 0x100 EXP PUSH4 0xFFFFFFFF DUP2 DUP2 MUL NOT SWAP1 SWAP5 AND SWAP3 SWAP1 SWAP4 AND SWAP3 SWAP1 SWAP3 MUL OR SWAP1 SSTORE DUP1 PUSH2 0x1F66 DUP2 PUSH2 0x35FA JUMP JUMPDEST SWAP2 POP POP PUSH2 0x1CF5 JUMP JUMPDEST POP PUSH1 0x5 PUSH0 CALLER PUSH1 0x1 PUSH1 0x1 PUSH1 0xA0 SHL SUB AND PUSH1 0x1 PUSH1 0x1 PUSH1 0xA0 SHL SUB AND DUP2 MSTORE PUSH1 0x20 ADD SWAP1 DUP2 MSTORE PUSH1 0x20 ADD PUSH0 KECCAK256 PUSH1 0x40 MLOAD DUP1 PUSH1 0xA0 ADD PUSH1 0x40 MSTORE DUP1 DUP9 DUP2 MSTORE PUSH1 0x20 ADD DUP8 DUP2 MSTORE PUSH1 0x20 ADD TIMESTAMP DUP2 MSTORE PUSH1 0x20 ADD DUP7 DUP7 SWAP1 POP DUP2 MSTORE PUSH1 0x20 ADD DUP7 DUP7 DUP1 DUP1 PUSH1 0x20 MUL PUSH1 0x20 ADD PUSH1 0x40 MLOAD SWAP1 DUP2 ADD PUSH1 0x40 MSTORE DUP1 SWAP4 SWAP3 SWAP2 SWAP1 DUP2 DUP2 MSTORE PUSH1 0x20 ADD DUP4 DUP4 PUSH1 0x20 MUL DUP1 DUP3 DUP5 CALLDATACOPY PUSH0 SWAP3 ADD DUP3 SWAP1 MSTORE POP SWAP4 SWAP1 SWAP5 MSTORE POP POP DUP4 SLOAD PUSH1 0x1 DUP2 DUP2 ADD DUP7 SSTORE SWAP5 DUP3 MSTORE PUSH1 0x20 SWAP2 DUP3 SWAP1 KECCAK256 DUP5 MLOAD PUSH1 0x5 SWAP1 SWAP3 MUL ADD SWAP1 DUP2 SSTORE DUP2 DUP5 ADD MLOAD SWAP5 DUP2 ADD SWAP5 SWAP1 SWAP5 SSTORE PUSH1 0x40 DUP4 ADD MLOAD PUSH1 0x2 DUP6 ADD SSTORE PUSH1 0x60 DUP4 ADD MLOAD PUSH1 0x3 DUP6 ADD SSTORE PUSH1 0x80 DUP4 ADD MLOAD DUP1 MLOAD SWAP4 SWAP5 SWAP4 PUSH2 0x2046 SWAP4 POP PUSH1 0x4 DUP6 ADD SWAP3 SWAP2 SWAP1 SWAP2 ADD SWAP1 PUSH2 0x2F5D JUMP JUMPDEST POP POP POP PUSH1 0x40 DUP3 ADD MLOAD PUSH0 SWAP1 PUSH2 0x205A SWAP1 DUP6 PUSH2 0x3690 JUMP JUMPDEST SWAP1 POP PUSH2 0x209A PUSH1 0x1 PUSH1 0x1 PUSH1 0xA0 SHL SUB PUSH32 0x0 AND CALLER ADDRESS PUSH1 0x1 PUSH1 0x1 PUSH1 0x80 SHL SUB DUP6 AND PUSH2 0x2D5D JUMP JUMPDEST PUSH1 0x40 MLOAD PUSH4 0x4A9FEFC7 PUSH1 0xE0 SHL DUP2 MSTORE CALLER PUSH1 0x4 DUP3 ADD MSTORE PUSH0 SWAP1 PUSH32 0x0 PUSH1 0x1 PUSH1 0x1 PUSH1 0xA0 SHL SUB AND SWAP1 PUSH4 0x4A9FEFC7 SWAP1 PUSH1 0x24 ADD PUSH1 0x20 PUSH1 0x40 MLOAD DUP1 DUP4 SUB DUP2 DUP7 GAS STATICCALL ISZERO DUP1 ISZERO PUSH2 0x20FE JUMPI RETURNDATASIZE PUSH0 DUP1 RETURNDATACOPY RETURNDATASIZE PUSH0 REVERT JUMPDEST POP POP POP POP PUSH1 0x40 MLOAD RETURNDATASIZE PUSH1 0x1F NOT PUSH1 0x1F DUP3 ADD AND DUP3 ADD DUP1 PUSH1 0x40 MSTORE POP DUP2 ADD SWAP1 PUSH2 0x2122 SWAP2 SWAP1 PUSH2 0x36BB JUMP JUMPDEST SWAP1 POP PUSH1 0x1 PUSH1 0x1 PUSH1 0xA0 SHL SUB DUP2 AND ISZERO PUSH2 0x21CC JUMPI PUSH0 DUP1 SLOAD PUSH3 0xF4240 SWAP1 PUSH2 0x2151 SWAP1 PUSH1 0x1 PUSH1 0xA0 SHL SWAP1 DIV PUSH3 0xFFFFFF AND DUP6 PUSH2 0x3690 JUMP JUMPDEST PUSH2 0x215B SWAP2 SWAP1 PUSH2 0x36D6 JUMP JUMPDEST PUSH1 0x1 PUSH1 0x1 PUSH1 0xA0 SHL SUB DUP4 AND PUSH0 SWAP1 DUP2 MSTORE PUSH1 0x3 PUSH1 0x20 MSTORE PUSH1 0x40 DUP2 KECCAK256 DUP1 SLOAD SWAP3 SWAP4 POP PUSH1 0x1 PUSH1 0x1 PUSH1 0x80 SHL SUB DUP5 AND SWAP3 SWAP1 SWAP2 SWAP1 PUSH2 0x2190 SWAP1 DUP5 SWAP1 PUSH2 0x35E7 JUMP JUMPDEST SWAP1 SWAP2 SSTORE POP POP PUSH1 0x1 PUSH1 0x1 PUSH1 0xA0 SHL SUB DUP3 AND PUSH0 SWAP1 DUP2 MSTORE PUSH1 0x2 PUSH1 0x20 MSTORE PUSH1 0x40 DUP2 KECCAK256 DUP1 SLOAD PUSH1 0x1 PUSH1 0x1 PUSH1 0x80 SHL SUB DUP5 AND SWAP3 SWAP1 PUSH2 0x21C5 SWAP1 DUP5 SWAP1 PUSH2 0x35E7 JUMP JUMPDEST SWAP1 SWAP2 SSTORE POP POP POP JUMPDEST PUSH1 0x40 DUP4 ADD DUP1 MLOAD DUP7 SWAP2 SWAP1 PUSH2 0x21E0 SWAP1 DUP4 SWAP1 PUSH2 0x36FB JUMP JUMPDEST PUSH1 0x1 PUSH1 0x1 PUSH1 0x80 SHL SUB AND SWAP1 MSTORE POP PUSH1 0x40 MLOAD CALLER SWAP1 PUSH32 0xF0523DE2F627F3C0BEF4480AE1FDC6922DE2AFF9254C3F2DF3FCAF121D5470BB SWAP1 PUSH2 0x2224 SWAP1 DUP12 SWAP1 DUP12 SWAP1 DUP12 SWAP1 DUP12 SWAP1 PUSH2 0x371B JUMP JUMPDEST PUSH1 0x40 MLOAD DUP1 SWAP2 SUB SWAP1 LOG2 DUP3 PUSH1 0x40 ADD MLOAD PUSH1 0x1 PUSH1 0x1 PUSH1 0x80 SHL SUB AND PUSH0 SUB PUSH2 0x2500 JUMPI PUSH1 0x1 SLOAD PUSH1 0x40 DUP1 MLOAD PUSH4 0xE0C86289 PUSH1 0xE0 SHL DUP2 MSTORE SWAP1 MLOAD PUSH0 SWAP3 PUSH1 0x1 PUSH1 0x1 PUSH1 0xA0 SHL SUB AND SWAP2 PUSH4 0xE0C86289 SWAP2 PUSH1 0x4 DUP1 DUP4 ADD SWAP3 PUSH1 0x20 SWAP3 SWAP2 SWAP1 DUP3 SWAP1 SUB ADD DUP2 DUP8 DUP8 GAS CALL ISZERO DUP1 ISZERO PUSH2 0x2288 JUMPI RETURNDATASIZE PUSH0 DUP1 RETURNDATACOPY RETURNDATASIZE PUSH0 REVERT JUMPDEST POP POP POP POP PUSH1 0x40 MLOAD RETURNDATASIZE PUSH1 0x1F NOT PUSH1 0x1F DUP3 ADD AND DUP3 ADD DUP1 PUSH1 0x40 MSTORE POP DUP2 ADD SWAP1 PUSH2 0x22AC SWAP2 SWAP1 PUSH2 0x3612 JUMP JUMPDEST PUSH1 0x40 DUP1 MLOAD DUP1 DUP3 ADD DUP3 MSTORE DUP12 DUP2 MSTORE PUSH1 0x20 DUP1 DUP3 ADD DUP13 DUP2 MSTORE PUSH0 DUP6 DUP2 MSTORE PUSH1 0x7 DUP4 MSTORE SWAP4 DUP5 KECCAK256 SWAP3 MLOAD DUP4 SSTORE MLOAD PUSH1 0x1 SWAP1 SWAP3 ADD SWAP2 SWAP1 SWAP2 SSTORE PUSH1 0x60 DUP8 ADD DUP4 SWAP1 MSTORE TIMESTAMP PUSH1 0x1 PUSH1 0x1 PUSH1 0x80 SHL SUB DUP2 AND SWAP2 DUP9 ADD SWAP2 SWAP1 SWAP2 MSTORE PUSH1 0x80 DUP9 ADD MLOAD SWAP3 SWAP4 POP SWAP1 SWAP2 PUSH2 0x2305 SWAP2 PUSH2 0x3629 JUMP JUMPDEST SWAP1 POP PUSH0 DUP7 PUSH1 0x60 ADD MLOAD DUP3 PUSH2 0x2318 SWAP2 SWAP1 PUSH2 0x3629 JUMP JUMPDEST SWAP1 POP PUSH0 PUSH1 0x40 MLOAD DUP1 PUSH1 0xC0 ADD PUSH1 0x40 MSTORE DUP1 DUP5 PUSH1 0x1 PUSH1 0x1 PUSH1 0x80 SHL SUB AND DUP2 MSTORE PUSH1 0x20 ADD DUP4 PUSH1 0x1 PUSH1 0x1 PUSH1 0x80 SHL SUB AND DUP2 MSTORE PUSH1 0x20 ADD DUP10 PUSH1 0x20 ADD MLOAD PUSH1 0x1 PUSH1 0x1 PUSH1 0x80 SHL SUB AND DUP2 MSTORE PUSH1 0x20 ADD PUSH0 DUP2 MSTORE PUSH1 0x20 ADD PUSH0 PUSH4 0xFFFFFFFF AND DUP2 MSTORE PUSH1 0x20 ADD PUSH0 ISZERO ISZERO DUP2 MSTORE POP SWAP1 POP PUSH1 0x8 PUSH0 DUP14 DUP2 MSTORE PUSH1 0x20 ADD SWAP1 DUP2 MSTORE PUSH1 0x20 ADD PUSH0 KECCAK256 PUSH1 0x3 ADD DUP2 SWAP1 DUP1 PUSH1 0x1 DUP2 SLOAD ADD DUP1 DUP3 SSTORE DUP1 SWAP2 POP POP PUSH1 0x1 SWAP1 SUB SWAP1 PUSH0 MSTORE PUSH1 0x20 PUSH0 KECCAK256 SWAP1 PUSH1 0x4 MUL ADD PUSH0 SWAP1 SWAP2 SWAP1 SWAP2 SWAP1 SWAP2 POP PUSH0 DUP3 ADD MLOAD DUP2 PUSH0 ADD PUSH0 PUSH2 0x100 EXP DUP2 SLOAD DUP2 PUSH1 0x1 PUSH1 0x1 PUSH1 0x80 SHL SUB MUL NOT AND SWAP1 DUP4 PUSH1 0x1 PUSH1 0x1 PUSH1 0x80 SHL SUB AND MUL OR SWAP1 SSTORE POP PUSH1 0x20 DUP3 ADD MLOAD DUP2 PUSH0 ADD PUSH1 0x10 PUSH2 0x100 EXP DUP2 SLOAD DUP2 PUSH1 0x1 PUSH1 0x1 PUSH1 0x80 SHL SUB MUL NOT AND SWAP1 DUP4 PUSH1 0x1 PUSH1 0x1 PUSH1 0x80 SHL SUB AND MUL OR SWAP1 SSTORE POP PUSH1 0x40 DUP3 ADD MLOAD DUP2 PUSH1 0x1 ADD PUSH0 PUSH2 0x100 EXP DUP2 SLOAD DUP2 PUSH1 0x1 PUSH1 0x1 PUSH1 0x80 SHL SUB MUL NOT AND SWAP1 DUP4 PUSH1 0x1 PUSH1 0x1 PUSH1 0x80 SHL SUB AND MUL OR SWAP1 SSTORE POP PUSH1 0x60 DUP3 ADD MLOAD DUP2 PUSH1 0x2 ADD SSTORE PUSH1 0x80 DUP3 ADD MLOAD DUP2 PUSH1 0x3 ADD PUSH0 PUSH2 0x100 EXP DUP2 SLOAD DUP2 PUSH4 0xFFFFFFFF MUL NOT AND SWAP1 DUP4 PUSH4 0xFFFFFFFF AND MUL OR SWAP1 SSTORE POP PUSH1 0xA0 DUP3 ADD MLOAD DUP2 PUSH1 0x3 ADD PUSH1 0x4 PUSH2 0x100 EXP DUP2 SLOAD DUP2 PUSH1 0xFF MUL NOT AND SWAP1 DUP4 ISZERO ISZERO MUL OR SWAP1 SSTORE POP POP POP PUSH0 PUSH1 0x8 PUSH0 DUP15 DUP2 MSTORE PUSH1 0x20 ADD SWAP1 DUP2 MSTORE PUSH1 0x20 ADD PUSH0 KECCAK256 PUSH1 0x3 ADD DUP1 SLOAD SWAP1 POP SWAP1 POP PUSH32 0x9B4E1F1B6DF74EFF26420E77CE7891D410B236932A083B7C18D599FBD654A8C7 DUP14 DUP3 DUP7 DUP7 PUSH1 0x40 MLOAD PUSH2 0x24F2 SWAP5 SWAP4 SWAP3 SWAP2 SWAP1 SWAP4 DUP5 MSTORE PUSH1 0x20 DUP5 ADD SWAP3 SWAP1 SWAP3 MSTORE PUSH1 0x1 PUSH1 0x1 PUSH1 0x80 SHL SUB SWAP1 DUP2 AND PUSH1 0x40 DUP5 ADD MSTORE AND PUSH1 0x60 DUP3 ADD MSTORE PUSH1 0x80 ADD SWAP1 JUMP JUMPDEST PUSH1 0x40 MLOAD DUP1 SWAP2 SUB SWAP1 LOG1 POP POP POP POP POP JUMPDEST PUSH0 DUP9 DUP2 MSTORE PUSH1 0x8 PUSH1 0x20 MSTORE PUSH1 0x40 SWAP1 KECCAK256 DUP4 SWAP1 PUSH1 0x3 ADD PUSH2 0x251D PUSH1 0x1 DUP11 PUSH2 0x35C0 JUMP JUMPDEST DUP2 SLOAD DUP2 LT PUSH2 0x252D JUMPI PUSH2 0x252D PUSH2 0x35D3 JUMP JUMPDEST PUSH0 SWAP2 DUP3 MSTORE PUSH1 0x20 SWAP2 DUP3 SWAP1 KECCAK256 DUP4 MLOAD SWAP3 DUP5 ADD MLOAD PUSH1 0x1 PUSH1 0x1 PUSH1 0x80 SHL SUB SWAP4 DUP5 AND PUSH1 0x1 PUSH1 0x80 SHL SWAP2 DUP6 AND SWAP2 SWAP1 SWAP2 MUL OR PUSH1 0x4 SWAP3 SWAP1 SWAP3 MUL ADD SWAP1 DUP2 SSTORE PUSH1 0x40 DUP4 ADD MLOAD PUSH1 0x1 DUP3 ADD DUP1 SLOAD PUSH1 0x1 PUSH1 0x1 PUSH1 0x80 SHL SUB NOT AND SWAP2 SWAP1 SWAP4 AND OR SWAP1 SWAP2 SSTORE PUSH1 0x60 DUP3 ADD MLOAD PUSH1 0x2 DUP3 ADD SSTORE PUSH1 0x80 DUP3 ADD MLOAD PUSH1 0x3 SWAP1 SWAP2 ADD DUP1 SLOAD PUSH1 0xA0 SWAP1 SWAP4 ADD MLOAD PUSH4 0xFFFFFFFF SWAP1 SWAP3 AND PUSH5 0xFFFFFFFFFF NOT SWAP1 SWAP4 AND SWAP3 SWAP1 SWAP3 OR PUSH1 0x1 PUSH1 0x20 SHL SWAP2 ISZERO ISZERO SWAP2 SWAP1 SWAP2 MUL OR SWAP1 SSTORE POP POP POP POP POP POP POP POP JUMP JUMPDEST PUSH0 PUSH2 0x25D0 PUSH2 0x2CE2 JUMP JUMPDEST DUP7 PUSH1 0xFF AND PUSH0 SUB PUSH2 0x25F3 JUMPI PUSH1 0x40 MLOAD PUSH4 0xBB90937D PUSH1 0xE0 SHL DUP2 MSTORE PUSH1 0x4 ADD PUSH1 0x40 MLOAD DUP1 SWAP2 SUB SWAP1 REVERT JUMPDEST DUP6 PUSH1 0x1 PUSH1 0x1 PUSH1 0x80 SHL SUB AND PUSH0 SUB PUSH2 0x261C JUMPI PUSH1 0x40 MLOAD PUSH4 0x7EAC88D9 PUSH1 0xE0 SHL DUP2 MSTORE PUSH1 0x4 ADD PUSH1 0x40 MLOAD DUP1 SWAP2 SUB SWAP1 REVERT JUMPDEST DUP4 PUSH1 0x1 PUSH1 0x1 PUSH1 0x80 SHL SUB AND PUSH0 SUB PUSH2 0x2645 JUMPI PUSH1 0x40 MLOAD PUSH4 0x6F66257 PUSH1 0xE0 SHL DUP2 MSTORE PUSH1 0x4 ADD PUSH1 0x40 MLOAD DUP1 SWAP2 SUB SWAP1 REVERT JUMPDEST TIMESTAMP DUP3 PUSH1 0x1 PUSH1 0x1 PUSH1 0x80 SHL SUB AND LT ISZERO PUSH2 0x266F JUMPI PUSH1 0x40 MLOAD PUSH4 0x2CA4094F PUSH1 0xE2 SHL DUP2 MSTORE PUSH1 0x4 ADD PUSH1 0x40 MLOAD DUP1 SWAP2 SUB SWAP1 REVERT JUMPDEST PUSH0 PUSH2 0x267B DUP9 PUSH1 0xA PUSH2 0x3854 JUMP JUMPDEST PUSH1 0x40 DUP1 MLOAD PUSH1 0x1 PUSH1 0x1 PUSH1 0x80 SHL SUB DUP1 DUP12 AND PUSH1 0x20 DUP4 ADD MSTORE DUP1 DUP5 AND SWAP3 DUP3 ADD SWAP3 SWAP1 SWAP3 MSTORE DUP2 DUP10 AND PUSH1 0x60 DUP3 ADD MSTORE DUP2 DUP9 AND PUSH1 0x80 DUP3 ADD MSTORE SWAP1 DUP7 AND PUSH1 0xA0 DUP3 ADD MSTORE SWAP1 SWAP2 POP PUSH1 0xC0 ADD PUSH1 0x40 DUP1 MLOAD PUSH1 0x1F NOT DUP2 DUP5 SUB ADD DUP2 MSTORE SWAP2 DUP2 MSTORE DUP2 MLOAD PUSH1 0x20 SWAP3 DUP4 ADD KECCAK256 PUSH0 DUP2 DUP2 MSTORE PUSH1 0x8 SWAP1 SWAP4 MSTORE SWAP2 KECCAK256 SLOAD SWAP1 SWAP3 POP PUSH1 0x1 PUSH1 0x1 PUSH1 0x80 SHL SUB AND ISZERO PUSH2 0x2705 JUMPI PUSH1 0x40 MLOAD PUSH4 0x7A471E13 PUSH1 0xE1 SHL DUP2 MSTORE PUSH1 0x4 ADD PUSH1 0x40 MLOAD DUP1 SWAP2 SUB SWAP1 REVERT JUMPDEST PUSH0 DUP3 DUP2 MSTORE PUSH1 0x8 PUSH1 0x20 SWAP1 DUP2 MSTORE PUSH1 0x40 DUP1 DUP4 KECCAK256 PUSH1 0x1 PUSH1 0x1 PUSH1 0x80 SHL SUB DUP6 DUP2 AND PUSH1 0x1 PUSH1 0x80 SHL SWAP1 DUP2 MUL DUP3 DUP15 AND OR DUP4 SSTORE DUP11 DUP3 AND MUL DUP12 DUP3 AND OR PUSH1 0x1 DUP4 ADD SSTORE PUSH1 0x2 SWAP1 SWAP2 ADD DUP1 SLOAD DUP10 DUP4 AND PUSH1 0x1 PUSH1 0x1 PUSH1 0x80 SHL SUB NOT SWAP2 SWAP1 SWAP2 AND OR SWAP1 SSTORE DUP2 MLOAD PUSH1 0xC0 DUP2 ADD SWAP1 SWAP3 MSTORE DUP7 AND DUP2 MSTORE SWAP1 DUP2 ADD PUSH2 0x276F DUP9 DUP8 PUSH2 0x3629 JUMP JUMPDEST PUSH1 0x1 PUSH1 0x1 PUSH1 0x80 SHL SUB SWAP1 DUP2 AND DUP3 MSTORE DUP5 DUP2 AND PUSH1 0x20 DUP1 DUP5 ADD SWAP2 SWAP1 SWAP2 MSTORE PUSH0 PUSH1 0x40 DUP1 DUP6 ADD DUP3 SWAP1 MSTORE PUSH1 0x60 DUP1 DUP7 ADD DUP4 SWAP1 MSTORE PUSH1 0x80 SWAP6 DUP7 ADD DUP4 SWAP1 MSTORE DUP10 DUP4 MSTORE PUSH1 0x8 DUP5 MSTORE DUP2 DUP4 KECCAK256 PUSH1 0x3 SWAP1 DUP2 ADD DUP1 SLOAD PUSH1 0x1 DUP2 DUP2 ADD DUP4 SSTORE SWAP2 DUP7 MSTORE DUP7 DUP7 KECCAK256 DUP11 MLOAD SWAP8 DUP12 ADD MLOAD DUP10 AND PUSH1 0x1 PUSH1 0x80 SHL MUL SWAP8 DUP10 AND SWAP8 SWAP1 SWAP8 OR PUSH1 0x4 SWAP1 SWAP2 MUL SWAP1 SWAP7 ADD SWAP6 DUP7 SSTORE DUP9 DUP5 ADD MLOAD DUP7 DUP3 ADD DUP1 SLOAD SWAP2 SWAP1 SWAP9 AND PUSH1 0x1 PUSH1 0x1 PUSH1 0x80 SHL SUB NOT SWAP2 SWAP1 SWAP2 AND OR SWAP1 SWAP7 SSTORE SWAP1 DUP8 ADD MLOAD PUSH1 0x2 DUP6 ADD SSTORE SWAP5 DUP7 ADD MLOAD SWAP3 SWAP1 SWAP5 ADD DUP1 SLOAD PUSH1 0xA0 DUP8 ADD MLOAD ISZERO ISZERO PUSH1 0x1 PUSH1 0x20 SHL MUL PUSH5 0xFFFFFFFFFF NOT SWAP1 SWAP2 AND PUSH4 0xFFFFFFFF SWAP5 SWAP1 SWAP5 AND SWAP4 SWAP1 SWAP4 OR SWAP3 SWAP1 SWAP3 OR SWAP1 SWAP2 SSTORE PUSH1 0x9 DUP1 SLOAD SWAP3 DUP4 ADD DUP2 SSTORE SWAP1 MSTORE PUSH32 0x6E1540171B6C0C960B71A7020D9F60077F6AF931A8BBF590DA0223DACF75C7AF ADD DUP6 SWAP1 SSTORE MLOAD SWAP1 SWAP2 POP PUSH32 0x3C2758C266CEC0BFBF96542A5EA303429FAEC587FB478C002BC94C4742A837F2 SWAP1 PUSH2 0x28A6 SWAP1 DUP11 SWAP1 DUP6 SWAP1 DUP12 SWAP1 DUP12 SWAP1 DUP12 SWAP1 DUP11 SWAP1 PUSH2 0x3054 JUMP JUMPDEST PUSH1 0x40 MLOAD DUP1 SWAP2 SUB SWAP1 LOG1 PUSH1 0x20 DUP2 DUP2 ADD MLOAD PUSH1 0x40 DUP1 MLOAD DUP7 DUP2 MSTORE PUSH1 0x1 SWAP4 DUP2 ADD SWAP4 SWAP1 SWAP4 MSTORE PUSH1 0x1 PUSH1 0x1 PUSH1 0x80 SHL SUB DUP8 DUP2 AND DUP5 DUP4 ADD MSTORE SWAP1 SWAP2 AND PUSH1 0x60 DUP4 ADD MSTORE MLOAD PUSH32 0x9B4E1F1B6DF74EFF26420E77CE7891D410B236932A083B7C18D599FBD654A8C7 SWAP2 DUP2 SWAP1 SUB PUSH1 0x80 ADD SWAP1 LOG1 POP POP SWAP7 SWAP6 POP POP POP POP POP POP JUMP JUMPDEST PUSH2 0x291A PUSH2 0x2CE2 JUMP JUMPDEST PUSH3 0xF4240 PUSH3 0xFFFFFF DUP3 AND LT PUSH2 0x2942 JUMPI PUSH1 0x40 MLOAD PUSH4 0x8F02DC7 PUSH1 0xE2 SHL DUP2 MSTORE PUSH1 0x4 ADD PUSH1 0x40 MLOAD DUP1 SWAP2 SUB SWAP1 REVERT JUMPDEST PUSH0 SLOAD PUSH1 0x40 DUP1 MLOAD PUSH3 0xFFFFFF PUSH1 0x1 PUSH1 0xA0 SHL SWAP1 SWAP4 DIV DUP4 AND DUP2 MSTORE SWAP2 DUP4 AND PUSH1 0x20 DUP4 ADD MSTORE PUSH32 0xA81633B0C4A1AD81D8CA7C4930A87349BCAD69F6B8B39C5E91B64C0B674AAF85 SWAP2 ADD PUSH1 0x40 MLOAD DUP1 SWAP2 SUB SWAP1 LOG1 PUSH0 DUP1 SLOAD PUSH3 0xFFFFFF SWAP1 SWAP3 AND PUSH1 0x1 PUSH1 0xA0 SHL MUL PUSH3 0xFFFFFF PUSH1 0xA0 SHL NOT SWAP1 SWAP3 AND SWAP2 SWAP1 SWAP2 OR SWAP1 SSTORE JUMP JUMPDEST PUSH1 0x1 PUSH1 0x1 PUSH1 0xA0 SHL SUB DUP2 AND PUSH0 SWAP1 DUP2 MSTORE PUSH1 0x5 PUSH1 0x20 SWAP1 DUP2 MSTORE PUSH1 0x40 DUP1 DUP4 KECCAK256 DUP1 SLOAD DUP3 MLOAD DUP2 DUP6 MUL DUP2 ADD DUP6 ADD SWAP1 SWAP4 MSTORE DUP1 DUP4 MSTORE PUSH1 0x60 SWAP5 SWAP3 SWAP4 SWAP2 SWAP3 SWAP1 SWAP2 DUP5 ADD JUMPDEST DUP3 DUP3 LT ISZERO PUSH2 0x2ABD JUMPI DUP4 DUP3 SWAP1 PUSH0 MSTORE PUSH1 0x20 PUSH0 KECCAK256 SWAP1 PUSH1 0x5 MUL ADD PUSH1 0x40 MLOAD DUP1 PUSH1 0xA0 ADD PUSH1 0x40 MSTORE SWAP1 DUP2 PUSH0 DUP3 ADD SLOAD DUP2 MSTORE PUSH1 0x20 ADD PUSH1 0x1 DUP3 ADD SLOAD DUP2 MSTORE PUSH1 0x20 ADD PUSH1 0x2 DUP3 ADD SLOAD DUP2 MSTORE PUSH1 0x20 ADD PUSH1 0x3 DUP3 ADD SLOAD DUP2 MSTORE PUSH1 0x20 ADD PUSH1 0x4 DUP3 ADD DUP1 SLOAD DUP1 PUSH1 0x20 MUL PUSH1 0x20 ADD PUSH1 0x40 MLOAD SWAP1 DUP2 ADD PUSH1 0x40 MSTORE DUP1 SWAP3 SWAP2 SWAP1 DUP2 DUP2 MSTORE PUSH1 0x20 ADD DUP3 DUP1 SLOAD DUP1 ISZERO PUSH2 0x2AA5 JUMPI PUSH1 0x20 MUL DUP3 ADD SWAP2 SWAP1 PUSH0 MSTORE PUSH1 0x20 PUSH0 KECCAK256 SWAP1 PUSH0 SWAP1 JUMPDEST DUP3 DUP3 SWAP1 SLOAD SWAP1 PUSH2 0x100 EXP SWAP1 DIV PUSH4 0xFFFFFFFF AND PUSH4 0xFFFFFFFF AND DUP2 MSTORE PUSH1 0x20 ADD SWAP1 PUSH1 0x4 ADD SWAP1 PUSH1 0x20 DUP3 PUSH1 0x3 ADD DIV SWAP3 DUP4 ADD SWAP3 PUSH1 0x1 SUB DUP3 MUL SWAP2 POP DUP1 DUP5 GT PUSH2 0x2A68 JUMPI SWAP1 POP JUMPDEST POP POP POP POP POP DUP2 MSTORE POP POP DUP2 MSTORE PUSH1 0x20 ADD SWAP1 PUSH1 0x1 ADD SWAP1 PUSH2 0x29E5 JUMP JUMPDEST POP POP POP POP SWAP1 POP SWAP2 SWAP1 POP JUMP JUMPDEST PUSH2 0x2AD0 PUSH2 0x2CE2 JUMP JUMPDEST PUSH1 0x1 DUP1 SLOAD PUSH1 0x1 PUSH1 0x1 PUSH1 0xA0 SHL SUB NOT AND PUSH1 0x1 PUSH1 0x1 PUSH1 0xA0 SHL SUB SWAP3 SWAP1 SWAP3 AND SWAP2 SWAP1 SWAP2 OR SWAP1 SSTORE JUMP JUMPDEST CALLER PUSH0 SWAP1 DUP2 MSTORE PUSH1 0x3 PUSH1 0x20 MSTORE PUSH1 0x40 SWAP1 KECCAK256 SLOAD PUSH2 0x2B35 PUSH32 0x0 PUSH1 0x1 PUSH1 0x1 PUSH1 0xA0 SHL SUB AND DUP4 DUP4 PUSH2 0x2C7E JUMP JUMPDEST CALLER PUSH0 DUP2 DUP2 MSTORE PUSH1 0x3 PUSH1 0x20 MSTORE PUSH1 0x40 DUP1 DUP3 KECCAK256 SWAP2 SWAP1 SWAP2 SSTORE MLOAD PUSH32 0x99025A6C572F7D11C4D4D32F273DD2DCF2D8841A574E65FA8E35D718A231370B SWAP1 PUSH2 0x2B78 SWAP1 DUP5 DUP2 MSTORE PUSH1 0x20 ADD SWAP1 JUMP JUMPDEST PUSH1 0x40 MLOAD DUP1 SWAP2 SUB SWAP1 LOG2 POP POP JUMP JUMPDEST PUSH2 0x2B8C PUSH2 0x2CE2 JUMP JUMPDEST PUSH1 0x1 PUSH1 0x1 PUSH1 0xA0 SHL SUB DUP3 AND PUSH2 0x2BB3 JUMPI PUSH1 0x40 MLOAD PUSH4 0xD92E233D PUSH1 0xE0 SHL DUP2 MSTORE PUSH1 0x4 ADD PUSH1 0x40 MLOAD DUP1 SWAP2 SUB SWAP1 REVERT JUMPDEST PUSH2 0x2BE7 PUSH1 0x1 PUSH1 0x1 PUSH1 0xA0 SHL SUB PUSH32 0x0 AND DUP4 DUP4 PUSH2 0x2C7E JUMP JUMPDEST POP POP JUMP JUMPDEST PUSH1 0x60 PUSH1 0x9 DUP1 SLOAD DUP1 PUSH1 0x20 MUL PUSH1 0x20 ADD PUSH1 0x40 MLOAD SWAP1 DUP2 ADD PUSH1 0x40 MSTORE DUP1 SWAP3 SWAP2 SWAP1 DUP2 DUP2 MSTORE PUSH1 0x20 ADD DUP3 DUP1 SLOAD DUP1 ISZERO PUSH2 0x2C37 JUMPI PUSH1 0x20 MUL DUP3 ADD SWAP2 SWAP1 PUSH0 MSTORE PUSH1 0x20 PUSH0 KECCAK256 SWAP1 JUMPDEST DUP2 SLOAD DUP2 MSTORE PUSH1 0x20 ADD SWAP1 PUSH1 0x1 ADD SWAP1 DUP1 DUP4 GT PUSH2 0x2C23 JUMPI JUMPDEST POP POP POP POP POP SWAP1 POP SWAP1 JUMP JUMPDEST PUSH2 0x2C49 PUSH2 0x2CE2 JUMP JUMPDEST PUSH1 0x1 PUSH1 0x1 PUSH1 0xA0 SHL SUB DUP2 AND PUSH2 0x2C72 JUMPI PUSH1 0x40 MLOAD PUSH4 0x1E4FBDF7 PUSH1 0xE0 SHL DUP2 MSTORE PUSH0 PUSH1 0x4 DUP3 ADD MSTORE PUSH1 0x24 ADD PUSH2 0x1DB8 JUMP JUMPDEST PUSH2 0x2C7B DUP2 PUSH2 0x2D0E JUMP JUMPDEST POP JUMP JUMPDEST PUSH1 0x40 MLOAD PUSH1 0x1 PUSH1 0x1 PUSH1 0xA0 SHL SUB DUP4 DUP2 AND PUSH1 0x24 DUP4 ADD MSTORE PUSH1 0x44 DUP3 ADD DUP4 SWAP1 MSTORE PUSH2 0x2CDD SWAP2 DUP6 SWAP2 DUP3 AND SWAP1 PUSH4 0xA9059CBB SWAP1 PUSH1 0x64 ADD JUMPDEST PUSH1 0x40 MLOAD PUSH1 0x20 DUP2 DUP4 SUB SUB DUP2 MSTORE SWAP1 PUSH1 0x40 MSTORE SWAP2 POP PUSH1 0xE0 SHL PUSH1 0x20 DUP3 ADD DUP1 MLOAD PUSH1 0x1 PUSH1 0x1 PUSH1 0xE0 SHL SUB DUP4 DUP2 DUP4 AND OR DUP4 MSTORE POP POP POP POP PUSH2 0x2D9C JUMP JUMPDEST POP POP POP JUMP JUMPDEST PUSH0 SLOAD PUSH1 0x1 PUSH1 0x1 PUSH1 0xA0 SHL SUB AND CALLER EQ PUSH2 0x1B0C JUMPI PUSH1 0x40 MLOAD PUSH4 0x118CDAA7 PUSH1 0xE0 SHL DUP2 MSTORE CALLER PUSH1 0x4 DUP3 ADD MSTORE PUSH1 0x24 ADD PUSH2 0x1DB8 JUMP JUMPDEST PUSH0 DUP1 SLOAD PUSH1 0x1 PUSH1 0x1 PUSH1 0xA0 SHL SUB DUP4 DUP2 AND PUSH1 0x1 PUSH1 0x1 PUSH1 0xA0 SHL SUB NOT DUP4 AND DUP2 OR DUP5 SSTORE PUSH1 0x40 MLOAD SWAP2 SWAP1 SWAP3 AND SWAP3 DUP4 SWAP2 PUSH32 0x8BE0079C531659141344CD1FD0A4F28419497F9722A3DAAFE3B4186F6B6457E0 SWAP2 SWAP1 LOG3 POP POP JUMP JUMPDEST PUSH1 0x40 MLOAD PUSH1 0x1 PUSH1 0x1 PUSH1 0xA0 SHL SUB DUP5 DUP2 AND PUSH1 0x24 DUP4 ADD MSTORE DUP4 DUP2 AND PUSH1 0x44 DUP4 ADD MSTORE PUSH1 0x64 DUP3 ADD DUP4 SWAP1 MSTORE PUSH2 0x2D96 SWAP2 DUP7 SWAP2 DUP3 AND SWAP1 PUSH4 0x23B872DD SWAP1 PUSH1 0x84 ADD PUSH2 0x2CAB JUMP JUMPDEST POP POP POP POP JUMP JUMPDEST PUSH0 PUSH2 0x2DB0 PUSH1 0x1 PUSH1 0x1 PUSH1 0xA0 SHL SUB DUP5 AND DUP4 PUSH2 0x2DFD JUMP JUMPDEST SWAP1 POP DUP1 MLOAD PUSH0 EQ ISZERO DUP1 ISZERO PUSH2 0x2DD4 JUMPI POP DUP1 DUP1 PUSH1 0x20 ADD SWAP1 MLOAD DUP2 ADD SWAP1 PUSH2 0x2DD2 SWAP2 SWAP1 PUSH2 0x3862 JUMP JUMPDEST ISZERO JUMPDEST ISZERO PUSH2 0x2CDD JUMPI PUSH1 0x40 MLOAD PUSH4 0x5274AFE7 PUSH1 0xE0 SHL DUP2 MSTORE PUSH1 0x1 PUSH1 0x1 PUSH1 0xA0 SHL SUB DUP5 AND PUSH1 0x4 DUP3 ADD MSTORE PUSH1 0x24 ADD PUSH2 0x1DB8 JUMP JUMPDEST PUSH1 0x60 PUSH2 0x2E0A DUP4 DUP4 PUSH0 PUSH2 0x2E11 JUMP JUMPDEST SWAP4 SWAP3 POP POP POP JUMP JUMPDEST PUSH1 0x60 DUP2 SELFBALANCE LT ISZERO PUSH2 0x2E36 JUMPI PUSH1 0x40 MLOAD PUSH4 0xCD786059 PUSH1 0xE0 SHL DUP2 MSTORE ADDRESS PUSH1 0x4 DUP3 ADD MSTORE PUSH1 0x24 ADD PUSH2 0x1DB8 JUMP JUMPDEST PUSH0 DUP1 DUP6 PUSH1 0x1 PUSH1 0x1 PUSH1 0xA0 SHL SUB AND DUP5 DUP7 PUSH1 0x40 MLOAD PUSH2 0x2E51 SWAP2 SWAP1 PUSH2 0x3881 JUMP JUMPDEST PUSH0 PUSH1 0x40 MLOAD DUP1 DUP4 SUB DUP2 DUP6 DUP8 GAS CALL SWAP3 POP POP POP RETURNDATASIZE DUP1 PUSH0 DUP2 EQ PUSH2 0x2E8B JUMPI PUSH1 0x40 MLOAD SWAP2 POP PUSH1 0x1F NOT PUSH1 0x3F RETURNDATASIZE ADD AND DUP3 ADD PUSH1 0x40 MSTORE RETURNDATASIZE DUP3 MSTORE RETURNDATASIZE PUSH0 PUSH1 0x20 DUP5 ADD RETURNDATACOPY PUSH2 0x2E90 JUMP JUMPDEST PUSH1 0x60 SWAP2 POP JUMPDEST POP SWAP2 POP SWAP2 POP PUSH2 0x2EA0 DUP7 DUP4 DUP4 PUSH2 0x2EAA JUMP JUMPDEST SWAP7 SWAP6 POP POP POP POP POP POP JUMP JUMPDEST PUSH1 0x60 DUP3 PUSH2 0x2EBF JUMPI PUSH2 0x2EBA DUP3 PUSH2 0x2F06 JUMP JUMPDEST PUSH2 0x2E0A JUMP JUMPDEST DUP2 MLOAD ISZERO DUP1 ISZERO PUSH2 0x2ED6 JUMPI POP PUSH1 0x1 PUSH1 0x1 PUSH1 0xA0 SHL SUB DUP5 AND EXTCODESIZE ISZERO JUMPDEST ISZERO PUSH2 0x2EFF JUMPI PUSH1 0x40 MLOAD PUSH4 0x9996B315 PUSH1 0xE0 SHL DUP2 MSTORE PUSH1 0x1 PUSH1 0x1 PUSH1 0xA0 SHL SUB DUP6 AND PUSH1 0x4 DUP3 ADD MSTORE PUSH1 0x24 ADD PUSH2 0x1DB8 JUMP JUMPDEST POP DUP1 PUSH2 0x2E0A JUMP JUMPDEST DUP1 MLOAD ISZERO PUSH2 0x2F16 JUMPI DUP1 MLOAD DUP1 DUP3 PUSH1 0x20 ADD REVERT JUMPDEST PUSH1 0x40 MLOAD PUSH4 0xA12F521 PUSH1 0xE1 SHL DUP2 MSTORE PUSH1 0x4 ADD PUSH1 0x40 MLOAD DUP1 SWAP2 SUB SWAP1 REVERT JUMPDEST PUSH1 0x40 MLOAD DUP1 PUSH1 0xA0 ADD PUSH1 0x40 MSTORE DUP1 PUSH0 DUP1 NOT AND DUP2 MSTORE PUSH1 0x20 ADD PUSH0 DUP2 MSTORE PUSH1 0x20 ADD PUSH0 DUP2 MSTORE PUSH1 0x20 ADD PUSH0 DUP2 MSTORE PUSH1 0x20 ADD PUSH1 0x60 DUP2 MSTORE POP SWAP1 JUMP JUMPDEST DUP3 DUP1 SLOAD DUP3 DUP3 SSTORE SWAP1 PUSH0 MSTORE PUSH1 0x20 PUSH0 KECCAK256 SWAP1 PUSH1 0x7 ADD PUSH1 0x8 SWAP1 DIV DUP2 ADD SWAP3 DUP3 ISZERO PUSH2 0x2FF9 JUMPI SWAP2 PUSH1 0x20 MUL DUP3 ADD PUSH0 JUMPDEST DUP4 DUP3 GT ISZERO PUSH2 0x2FC7 JUMPI DUP4 MLOAD DUP4 DUP3 PUSH2 0x100 EXP DUP2 SLOAD DUP2 PUSH4 0xFFFFFFFF MUL NOT AND SWAP1 DUP4 PUSH4 0xFFFFFFFF AND MUL OR SWAP1 SSTORE POP SWAP3 PUSH1 0x20 ADD SWAP3 PUSH1 0x4 ADD PUSH1 0x20 DUP2 PUSH1 0x3 ADD DIV SWAP3 DUP4 ADD SWAP3 PUSH1 0x1 SUB MUL PUSH2 0x2F83 JUMP JUMPDEST DUP1 ISZERO PUSH2 0x2FF7 JUMPI DUP3 DUP2 PUSH2 0x100 EXP DUP2 SLOAD SWAP1 PUSH4 0xFFFFFFFF MUL NOT AND SWAP1 SSTORE PUSH1 0x4 ADD PUSH1 0x20 DUP2 PUSH1 0x3 ADD DIV SWAP3 DUP4 ADD SWAP3 PUSH1 0x1 SUB MUL PUSH2 0x2FC7 JUMP JUMPDEST POP JUMPDEST POP PUSH2 0x3005 SWAP3 SWAP2 POP PUSH2 0x3009 JUMP JUMPDEST POP SWAP1 JUMP JUMPDEST JUMPDEST DUP1 DUP3 GT ISZERO PUSH2 0x3005 JUMPI PUSH0 DUP2 SSTORE PUSH1 0x1 ADD PUSH2 0x300A JUMP JUMPDEST PUSH0 DUP1 PUSH1 0x40 DUP4 DUP6 SUB SLT ISZERO PUSH2 0x302E JUMPI PUSH0 DUP1 REVERT JUMPDEST POP POP DUP1 CALLDATALOAD SWAP3 PUSH1 0x20 SWAP1 SWAP2 ADD CALLDATALOAD SWAP2 POP JUMP JUMPDEST PUSH0 PUSH1 0x20 DUP3 DUP5 SUB SLT ISZERO PUSH2 0x304D JUMPI PUSH0 DUP1 REVERT JUMPDEST POP CALLDATALOAD SWAP2 SWAP1 POP JUMP JUMPDEST PUSH1 0x1 PUSH1 0x1 PUSH1 0x80 SHL SUB SWAP7 DUP8 AND DUP2 MSTORE SWAP5 DUP7 AND PUSH1 0x20 DUP7 ADD MSTORE SWAP3 DUP6 AND PUSH1 0x40 DUP6 ADD MSTORE SWAP1 DUP5 AND PUSH1 0x60 DUP5 ADD MSTORE SWAP1 SWAP3 AND PUSH1 0x80 DUP3 ADD MSTORE PUSH1 0xA0 DUP2 ADD SWAP2 SWAP1 SWAP2 MSTORE PUSH1 0xC0 ADD SWAP1 JUMP JUMPDEST PUSH1 0x1 PUSH1 0x1 PUSH1 0xA0 SHL SUB DUP2 AND DUP2 EQ PUSH2 0x2C7B JUMPI PUSH0 DUP1 REVERT JUMPDEST PUSH0 PUSH1 0x20 DUP3 DUP5 SUB SLT ISZERO PUSH2 0x30B3 JUMPI PUSH0 DUP1 REVERT JUMPDEST DUP2 CALLDATALOAD PUSH2 0x2E0A DUP2 PUSH2 0x308F JUMP JUMPDEST PUSH0 DUP2 MLOAD DUP1 DUP5 MSTORE PUSH1 0x20 DUP1 DUP6 ADD SWAP5 POP DUP1 DUP5 ADD PUSH0 JUMPDEST DUP4 DUP2 LT ISZERO PUSH2 0x30EC JUMPI DUP2 MLOAD DUP8 MSTORE SWAP6 DUP3 ADD SWAP6 SWAP1 DUP3 ADD SWAP1 PUSH1 0x1 ADD PUSH2 0x30D0 JUMP JUMPDEST POP SWAP5 SWAP6 SWAP5 POP POP POP POP POP JUMP JUMPDEST PUSH1 0x60 DUP2 MSTORE PUSH0 PUSH2 0x3109 PUSH1 0x60 DUP4 ADD DUP7 PUSH2 0x30BE JUMP JUMPDEST DUP3 DUP2 SUB PUSH1 0x20 DUP5 DUP2 ADD SWAP2 SWAP1 SWAP2 MSTORE DUP6 MLOAD DUP1 DUP4 MSTORE DUP7 DUP3 ADD SWAP3 DUP3 ADD SWAP1 PUSH0 JUMPDEST DUP2 DUP2 LT ISZERO PUSH2 0x313F JUMPI DUP5 MLOAD DUP4 MSTORE SWAP4 DUP4 ADD SWAP4 SWAP2 DUP4 ADD SWAP2 PUSH1 0x1 ADD PUSH2 0x3123 JUMP JUMPDEST POP POP DUP1 SWAP4 POP POP POP POP DUP3 PUSH1 0x40 DUP4 ADD MSTORE SWAP5 SWAP4 POP POP POP POP JUMP JUMPDEST PUSH0 DUP2 MLOAD DUP1 DUP5 MSTORE PUSH1 0x20 DUP1 DUP6 ADD SWAP5 POP DUP1 DUP5 ADD PUSH0 JUMPDEST DUP4 DUP2 LT ISZERO PUSH2 0x30EC JUMPI DUP2 MLOAD PUSH4 0xFFFFFFFF AND DUP8 MSTORE SWAP6 DUP3 ADD SWAP6 SWAP1 DUP3 ADD SWAP1 PUSH1 0x1 ADD PUSH2 0x3167 JUMP JUMPDEST PUSH1 0x20 DUP2 MSTORE PUSH0 PUSH2 0x2E0A PUSH1 0x20 DUP4 ADD DUP5 PUSH2 0x3155 JUMP JUMPDEST PUSH0 DUP1 DUP4 PUSH1 0x1F DUP5 ADD SLT PUSH2 0x31AB JUMPI PUSH0 DUP1 REVERT JUMPDEST POP DUP2 CALLDATALOAD PUSH8 0xFFFFFFFFFFFFFFFF DUP2 GT ISZERO PUSH2 0x31C2 JUMPI PUSH0 DUP1 REVERT JUMPDEST PUSH1 0x20 DUP4 ADD SWAP2 POP DUP4 PUSH1 0x20 DUP3 PUSH1 0x5 SHL DUP6 ADD ADD GT ISZERO PUSH2 0x31DC JUMPI PUSH0 DUP1 REVERT JUMPDEST SWAP3 POP SWAP3 SWAP1 POP JUMP JUMPDEST PUSH0 DUP1 PUSH0 DUP1 PUSH0 PUSH1 0x60 DUP7 DUP9 SUB SLT ISZERO PUSH2 0x31F7 JUMPI PUSH0 DUP1 REVERT JUMPDEST DUP6 CALLDATALOAD PUSH2 0x3202 DUP2 PUSH2 0x308F JUMP JUMPDEST SWAP5 POP PUSH1 0x20 DUP7 ADD CALLDATALOAD PUSH8 0xFFFFFFFFFFFFFFFF DUP1 DUP3 GT ISZERO PUSH2 0x321E JUMPI PUSH0 DUP1 REVERT JUMPDEST PUSH2 0x322A DUP10 DUP4 DUP11 ADD PUSH2 0x319B JUMP JUMPDEST SWAP1 SWAP7 POP SWAP5 POP PUSH1 0x40 DUP9 ADD CALLDATALOAD SWAP2 POP DUP1 DUP3 GT ISZERO PUSH2 0x3242 JUMPI PUSH0 DUP1 REVERT JUMPDEST POP PUSH2 0x324F DUP9 DUP3 DUP10 ADD PUSH2 0x319B JUMP JUMPDEST SWAP7 SWAP10 SWAP6 SWAP9 POP SWAP4 SWAP7 POP SWAP3 SWAP5 SWAP4 SWAP3 POP POP POP JUMP JUMPDEST PUSH0 DUP1 PUSH0 PUSH1 0x60 DUP5 DUP7 SUB SLT ISZERO PUSH2 0x3272 JUMPI PUSH0 DUP1 REVERT JUMPDEST DUP4 CALLDATALOAD PUSH2 0x327D DUP2 PUSH2 0x308F JUMP JUMPDEST SWAP6 PUSH1 0x20 DUP6 ADD CALLDATALOAD SWAP6 POP PUSH1 0x40 SWAP1 SWAP5 ADD CALLDATALOAD SWAP4 SWAP3 POP POP POP JUMP JUMPDEST PUSH0 DUP3 DUP3 MLOAD DUP1 DUP6 MSTORE PUSH1 0x20 DUP1 DUP7 ADD SWAP6 POP DUP1 DUP3 PUSH1 0x5 SHL DUP5 ADD ADD DUP2 DUP7 ADD PUSH0 JUMPDEST DUP5 DUP2 LT ISZERO PUSH2 0x330F JUMPI DUP6 DUP4 SUB PUSH1 0x1F NOT ADD DUP10 MSTORE DUP2 MLOAD DUP1 MLOAD DUP5 MSTORE DUP5 DUP2 ADD MLOAD DUP6 DUP6 ADD MSTORE PUSH1 0x40 DUP1 DUP3 ADD MLOAD SWAP1 DUP6 ADD MSTORE PUSH1 0x60 DUP1 DUP3 ADD MLOAD SWAP1 DUP6 ADD MSTORE PUSH1 0x80 SWAP1 DUP2 ADD MLOAD PUSH1 0xA0 SWAP2 DUP6 ADD DUP3 SWAP1 MSTORE SWAP1 PUSH2 0x32FB DUP2 DUP7 ADD DUP4 PUSH2 0x3155 JUMP JUMPDEST SWAP11 DUP7 ADD SWAP11 SWAP5 POP POP POP SWAP1 DUP4 ADD SWAP1 PUSH1 0x1 ADD PUSH2 0x32AD JUMP JUMPDEST POP SWAP1 SWAP8 SWAP7 POP POP POP POP POP POP POP JUMP JUMPDEST PUSH1 0x20 DUP2 MSTORE PUSH0 PUSH2 0x2E0A PUSH1 0x20 DUP4 ADD DUP5 PUSH2 0x3292 JUMP JUMPDEST PUSH4 0x4E487B71 PUSH1 0xE0 SHL PUSH0 MSTORE PUSH1 0x41 PUSH1 0x4 MSTORE PUSH1 0x24 PUSH0 REVERT JUMPDEST PUSH0 DUP1 PUSH1 0x40 DUP4 DUP6 SUB SLT ISZERO PUSH2 0x3353 JUMPI PUSH0 DUP1 REVERT JUMPDEST DUP3 CALLDATALOAD SWAP2 POP PUSH1 0x20 DUP1 DUP5 ADD CALLDATALOAD PUSH8 0xFFFFFFFFFFFFFFFF DUP1 DUP3 GT ISZERO PUSH2 0x3372 JUMPI PUSH0 DUP1 REVERT JUMPDEST DUP2 DUP7 ADD SWAP2 POP DUP7 PUSH1 0x1F DUP4 ADD SLT PUSH2 0x3385 JUMPI PUSH0 DUP1 REVERT JUMPDEST DUP2 CALLDATALOAD DUP2 DUP2 GT ISZERO PUSH2 0x3397 JUMPI PUSH2 0x3397 PUSH2 0x332E JUMP JUMPDEST DUP1 PUSH1 0x5 SHL PUSH1 0x40 MLOAD PUSH1 0x1F NOT PUSH1 0x3F DUP4 ADD AND DUP2 ADD DUP2 DUP2 LT DUP6 DUP3 GT OR ISZERO PUSH2 0x33BC JUMPI PUSH2 0x33BC PUSH2 0x332E JUMP JUMPDEST PUSH1 0x40 MSTORE SWAP2 DUP3 MSTORE DUP5 DUP3 ADD SWAP3 POP DUP4 DUP2 ADD DUP6 ADD SWAP2 DUP10 DUP4 GT ISZERO PUSH2 0x33D9 JUMPI PUSH0 DUP1 REVERT JUMPDEST SWAP4 DUP6 ADD SWAP4 JUMPDEST DUP3 DUP6 LT ISZERO PUSH2 0x33F7 JUMPI DUP5 CALLDATALOAD DUP5 MSTORE SWAP4 DUP6 ADD SWAP4 SWAP3 DUP6 ADD SWAP3 PUSH2 0x33DE JUMP JUMPDEST DUP1 SWAP7 POP POP POP POP POP POP POP SWAP3 POP SWAP3 SWAP1 POP JUMP JUMPDEST DUP1 CALLDATALOAD PUSH4 0xFFFFFFFF DUP2 AND DUP2 EQ PUSH2 0x341A JUMPI PUSH0 DUP1 REVERT JUMPDEST SWAP2 SWAP1 POP JUMP JUMPDEST PUSH0 DUP1 PUSH0 PUSH1 0x60 DUP5 DUP7 SUB SLT ISZERO PUSH2 0x3431 JUMPI PUSH0 DUP1 REVERT JUMPDEST DUP4 CALLDATALOAD SWAP3 POP PUSH1 0x20 DUP5 ADD CALLDATALOAD SWAP2 POP PUSH2 0x3448 PUSH1 0x40 DUP6 ADD PUSH2 0x3407 JUMP JUMPDEST SWAP1 POP SWAP3 POP SWAP3 POP SWAP3 JUMP JUMPDEST PUSH1 0x40 DUP2 MSTORE PUSH0 PUSH2 0x3463 PUSH1 0x40 DUP4 ADD DUP6 PUSH2 0x3292 JUMP JUMPDEST SWAP1 POP DUP3 PUSH1 0x20 DUP4 ADD MSTORE SWAP4 SWAP3 POP POP POP JUMP JUMPDEST PUSH0 DUP1 PUSH0 DUP1 PUSH1 0x60 DUP6 DUP8 SUB SLT ISZERO PUSH2 0x3485 JUMPI PUSH0 DUP1 REVERT JUMPDEST DUP5 CALLDATALOAD SWAP4 POP PUSH1 0x20 DUP6 ADD CALLDATALOAD SWAP3 POP PUSH1 0x40 DUP6 ADD CALLDATALOAD PUSH8 0xFFFFFFFFFFFFFFFF DUP2 GT ISZERO PUSH2 0x34A9 JUMPI PUSH0 DUP1 REVERT JUMPDEST PUSH2 0x34B5 DUP8 DUP3 DUP9 ADD PUSH2 0x319B JUMP JUMPDEST SWAP6 SWAP9 SWAP5 SWAP8 POP SWAP6 POP POP POP POP JUMP JUMPDEST DUP1 CALLDATALOAD PUSH1 0x1 PUSH1 0x1 PUSH1 0x80 SHL SUB DUP2 AND DUP2 EQ PUSH2 0x341A JUMPI PUSH0 DUP1 REVERT JUMPDEST PUSH0 DUP1 PUSH0 DUP1 PUSH0 DUP1 PUSH1 0xC0 DUP8 DUP10 SUB SLT ISZERO PUSH2 0x34EC JUMPI PUSH0 DUP1 REVERT JUMPDEST DUP7 CALLDATALOAD PUSH1 0xFF DUP2 AND DUP2 EQ PUSH2 0x34FC JUMPI PUSH0 DUP1 REVERT JUMPDEST SWAP6 POP PUSH2 0x350A PUSH1 0x20 DUP9 ADD PUSH2 0x34C1 JUMP JUMPDEST SWAP5 POP PUSH2 0x3518 PUSH1 0x40 DUP9 ADD PUSH2 0x34C1 JUMP JUMPDEST SWAP4 POP PUSH2 0x3526 PUSH1 0x60 DUP9 ADD PUSH2 0x34C1 JUMP JUMPDEST SWAP3 POP PUSH2 0x3534 PUSH1 0x80 DUP9 ADD PUSH2 0x34C1 JUMP JUMPDEST SWAP2 POP PUSH2 0x3542 PUSH1 0xA0 DUP9 ADD PUSH2 0x34C1 JUMP JUMPDEST SWAP1 POP SWAP3 SWAP6 POP SWAP3 SWAP6 POP SWAP3 SWAP6 JUMP JUMPDEST PUSH0 PUSH1 0x20 DUP3 DUP5 SUB SLT ISZERO PUSH2 0x355E JUMPI PUSH0 DUP1 REVERT JUMPDEST DUP2 CALLDATALOAD PUSH3 0xFFFFFF DUP2 AND DUP2 EQ PUSH2 0x2E0A JUMPI PUSH0 DUP1 REVERT JUMPDEST PUSH0 DUP1 PUSH1 0x40 DUP4 DUP6 SUB SLT ISZERO PUSH2 0x3581 JUMPI PUSH0 DUP1 REVERT JUMPDEST DUP3 CALLDATALOAD PUSH2 0x358C DUP2 PUSH2 0x308F JUMP JUMPDEST SWAP5 PUSH1 0x20 SWAP4 SWAP1 SWAP4 ADD CALLDATALOAD SWAP4 POP POP POP JUMP JUMPDEST PUSH1 0x20 DUP2 MSTORE PUSH0 PUSH2 0x2E0A PUSH1 0x20 DUP4 ADD DUP5 PUSH2 0x30BE JUMP JUMPDEST PUSH4 0x4E487B71 PUSH1 0xE0 SHL PUSH0 MSTORE PUSH1 0x11 PUSH1 0x4 MSTORE PUSH1 0x24 PUSH0 REVERT JUMPDEST DUP2 DUP2 SUB DUP2 DUP2 GT ISZERO PUSH2 0xA5F JUMPI PUSH2 0xA5F PUSH2 0x35AC JUMP JUMPDEST PUSH4 0x4E487B71 PUSH1 0xE0 SHL PUSH0 MSTORE PUSH1 0x32 PUSH1 0x4 MSTORE PUSH1 0x24 PUSH0 REVERT JUMPDEST DUP1 DUP3 ADD DUP1 DUP3 GT ISZERO PUSH2 0xA5F JUMPI PUSH2 0xA5F PUSH2 0x35AC JUMP JUMPDEST PUSH0 PUSH1 0x1 DUP3 ADD PUSH2 0x360B JUMPI PUSH2 0x360B PUSH2 0x35AC JUMP JUMPDEST POP PUSH1 0x1 ADD SWAP1 JUMP JUMPDEST PUSH0 PUSH1 0x20 DUP3 DUP5 SUB SLT ISZERO PUSH2 0x3622 JUMPI PUSH0 DUP1 REVERT JUMPDEST POP MLOAD SWAP2 SWAP1 POP JUMP JUMPDEST PUSH1 0x1 PUSH1 0x1 PUSH1 0x80 SHL SUB DUP2 DUP2 AND DUP4 DUP3 AND ADD SWAP1 DUP1 DUP3 GT ISZERO PUSH2 0x3649 JUMPI PUSH2 0x3649 PUSH2 0x35AC JUMP JUMPDEST POP SWAP3 SWAP2 POP POP JUMP JUMPDEST PUSH4 0x4E487B71 PUSH1 0xE0 SHL PUSH0 MSTORE PUSH1 0x12 PUSH1 0x4 MSTORE PUSH1 0x24 PUSH0 REVERT JUMPDEST PUSH0 DUP3 PUSH2 0x3672 JUMPI PUSH2 0x3672 PUSH2 0x3650 JUMP JUMPDEST POP MOD SWAP1 JUMP JUMPDEST PUSH0 PUSH1 0x20 DUP3 DUP5 SUB SLT ISZERO PUSH2 0x3687 JUMPI PUSH0 DUP1 REVERT JUMPDEST PUSH2 0x2E0A DUP3 PUSH2 0x3407 JUMP JUMPDEST PUSH1 0x1 PUSH1 0x1 PUSH1 0x80 SHL SUB DUP2 DUP2 AND DUP4 DUP3 AND MUL DUP1 DUP3 AND SWAP2 SWAP1 DUP3 DUP2 EQ PUSH2 0x36B3 JUMPI PUSH2 0x36B3 PUSH2 0x35AC JUMP JUMPDEST POP POP SWAP3 SWAP2 POP POP JUMP JUMPDEST PUSH0 PUSH1 0x20 DUP3 DUP5 SUB SLT ISZERO PUSH2 0x36CB JUMPI PUSH0 DUP1 REVERT JUMPDEST DUP2 MLOAD PUSH2 0x2E0A DUP2 PUSH2 0x308F JUMP JUMPDEST PUSH0 PUSH1 0x1 PUSH1 0x1 PUSH1 0x80 SHL SUB DUP1 DUP5 AND DUP1 PUSH2 0x36EF JUMPI PUSH2 0x36EF PUSH2 0x3650 JUMP JUMPDEST SWAP3 AND SWAP2 SWAP1 SWAP2 DIV SWAP3 SWAP2 POP POP JUMP JUMPDEST PUSH1 0x1 PUSH1 0x1 PUSH1 0x80 SHL SUB DUP3 DUP2 AND DUP3 DUP3 AND SUB SWAP1 DUP1 DUP3 GT ISZERO PUSH2 0x3649 JUMPI PUSH2 0x3649 PUSH2 0x35AC JUMP JUMPDEST DUP5 DUP2 MSTORE PUSH1 0x20 DUP1 DUP3 ADD DUP6 SWAP1 MSTORE PUSH1 0x60 PUSH1 0x40 DUP4 ADD DUP2 SWAP1 MSTORE DUP3 ADD DUP4 SWAP1 MSTORE PUSH0 SWAP1 DUP5 SWAP1 PUSH1 0x80 DUP5 ADD DUP4 JUMPDEST DUP7 DUP2 LT ISZERO PUSH2 0x3767 JUMPI PUSH4 0xFFFFFFFF PUSH2 0x3754 DUP6 PUSH2 0x3407 JUMP JUMPDEST AND DUP3 MSTORE SWAP3 DUP3 ADD SWAP3 SWAP1 DUP3 ADD SWAP1 PUSH1 0x1 ADD PUSH2 0x373E JUMP JUMPDEST POP SWAP9 SWAP8 POP POP POP POP POP POP POP POP JUMP JUMPDEST PUSH1 0x1 DUP2 DUP2 JUMPDEST DUP1 DUP6 GT ISZERO PUSH2 0x37AE JUMPI DUP2 PUSH0 NOT DIV DUP3 GT ISZERO PUSH2 0x3794 JUMPI PUSH2 0x3794 PUSH2 0x35AC JUMP JUMPDEST DUP1 DUP6 AND ISZERO PUSH2 0x37A1 JUMPI SWAP2 DUP2 MUL SWAP2 JUMPDEST SWAP4 DUP5 SHR SWAP4 SWAP1 DUP1 MUL SWAP1 PUSH2 0x3779 JUMP JUMPDEST POP SWAP3 POP SWAP3 SWAP1 POP JUMP JUMPDEST PUSH0 DUP3 PUSH2 0x37C4 JUMPI POP PUSH1 0x1 PUSH2 0xA5F JUMP JUMPDEST DUP2 PUSH2 0x37D0 JUMPI POP PUSH0 PUSH2 0xA5F JUMP JUMPDEST DUP2 PUSH1 0x1 DUP2 EQ PUSH2 0x37E6 JUMPI PUSH1 0x2 DUP2 EQ PUSH2 0x37F0 JUMPI PUSH2 0x380C JUMP JUMPDEST PUSH1 0x1 SWAP2 POP POP PUSH2 0xA5F JUMP JUMPDEST PUSH1 0xFF DUP5 GT ISZERO PUSH2 0x3801 JUMPI PUSH2 0x3801 PUSH2 0x35AC JUMP JUMPDEST POP POP PUSH1 0x1 DUP3 SHL PUSH2 0xA5F JUMP JUMPDEST POP PUSH1 0x20 DUP4 LT PUSH2 0x133 DUP4 LT AND PUSH1 0x4E DUP5 LT PUSH1 0xB DUP5 LT AND OR ISZERO PUSH2 0x382F JUMPI POP DUP2 DUP2 EXP PUSH2 0xA5F JUMP JUMPDEST PUSH2 0x3839 DUP4 DUP4 PUSH2 0x3774 JUMP JUMPDEST DUP1 PUSH0 NOT DIV DUP3 GT ISZERO PUSH2 0x384C JUMPI PUSH2 0x384C PUSH2 0x35AC JUMP JUMPDEST MUL SWAP4 SWAP3 POP POP POP JUMP JUMPDEST PUSH0 PUSH2 0x2E0A PUSH1 0xFF DUP5 AND DUP4 PUSH2 0x37B6 JUMP JUMPDEST PUSH0 PUSH1 0x20 DUP3 DUP5 SUB SLT ISZERO PUSH2 0x3872 JUMPI PUSH0 DUP1 REVERT JUMPDEST DUP2 MLOAD DUP1 ISZERO ISZERO DUP2 EQ PUSH2 0x2E0A JUMPI PUSH0 DUP1 REVERT JUMPDEST PUSH0 DUP3 MLOAD PUSH0 JUMPDEST DUP2 DUP2 LT ISZERO PUSH2 0x38A0 JUMPI PUSH1 0x20 DUP2 DUP7 ADD DUP2 ADD MLOAD DUP6 DUP4 ADD MSTORE ADD PUSH2 0x3886 JUMP JUMPDEST POP PUSH0 SWAP3 ADD SWAP2 DUP3 MSTORE POP SWAP2 SWAP1 POP JUMP INVALID LOG2 PUSH5 0x6970667358 0x22 SLT KECCAK256 SIGNEXTEND PUSH22 0x695AA4E833EFF7A51FEF126D71C88303EF1A3ADB1525 0xE7 SLT 0x49 0xD6 0xC9 0xF9 SELFBALANCE 0xEC PUSH5 0x736F6C6343 STOP ADDMOD EQ STOP CALLER "
				},
				"gasEstimates": {
					"creation": {
						"codeDepositCost": "2912600",
						"executionCost": "infinite",
						"totalCost": "infinite"
					},
					"external": {
						"HUNDRED_PERCENT()": "314",
						"buyTickets(bytes32,uint256,uint32[])": "infinite",
						"claimPrizes(address,bytes32[],uint256[])": "infinite",
						"collectReferralReward(address)": "infinite",
						"createPool(uint8,uint128,uint128,uint128,uint128,uint128)": "infinite",
						"drawEndedRoundAndOpenNewRound(bytes32)": "infinite",
						"fulfillRandomWords(uint256,uint256[])": "infinite",
						"getAllParticipationRecords(address)": "infinite",
						"getAllPoolIds()": "infinite",
						"getParticipationRecordsByPoolRound(address,bytes32,uint256)": "infinite",
						"getPoolInfo(bytes32)": "infinite",
						"getRoundInfo(bytes32,uint256)": "11591",
						"getSoldTickets(bytes32,uint256)": "infinite",
						"getTicketOwner(bytes32,uint256,uint32)": "2784",
						"getUnclaimedPrizes(address)": "infinite",
						"getWonParticipationRecords(address)": "infinite",
						"owner()": "2418",
						"referralFee()": "2418",
						"referralRewardAccumulated(address)": "2555",
						"referralRewardAccured(address)": "2599",
						"renounceOwnership()": "infinite",
						"setVRFConsumer(address)": "26815",
						"transferOwnership(address)": "infinite",
						"updateReferralFee(uint24)": "30222",
						"usdt()": "infinite",
						"userRegistar()": "infinite",
						"vrfConsumer()": "2427",
						"withdrawUsdt(address,uint256)": "infinite"
					}
				},
				"methodIdentifiers": {
					"HUNDRED_PERCENT()": "6ed93dd0",
					"buyTickets(bytes32,uint256,uint32[])": "89ba4116",
					"claimPrizes(address,bytes32[],uint256[])": "2bbb1444",
					"collectReferralReward(address)": "e53a7345",
					"createPool(uint8,uint128,uint128,uint128,uint128,uint128)": "acca07b1",
					"drawEndedRoundAndOpenNewRound(bytes32)": "2e5a74b9",
					"fulfillRandomWords(uint256,uint256[])": "38ba4614",
					"getAllParticipationRecords(address)": "bab0cbce",
					"getAllPoolIds()": "f19c3d5b",
					"getParticipationRecordsByPoolRound(address,bytes32,uint256)": "34bfb32f",
					"getPoolInfo(bytes32)": "09f2c019",
					"getRoundInfo(bytes32,uint256)": "0358abfc",
					"getSoldTickets(bytes32,uint256)": "25860103",
					"getTicketOwner(bytes32,uint256,uint32)": "3b0e443c",
					"getUnclaimedPrizes(address)": "21f6a578",
					"getWonParticipationRecords(address)": "6f8af123",
					"owner()": "8da5cb5b",
					"referralFee()": "84ae2bc6",
					"referralRewardAccumulated(address)": "86d32015",
					"referralRewardAccured(address)": "4930cc99",
					"renounceOwnership()": "715018a6",
					"setVRFConsumer(address)": "cfd6aa90",
					"transferOwnership(address)": "f2fde38b",
					"updateReferralFee(uint24)": "b2a89b08",
					"usdt()": "2f48ab7d",
					"userRegistar()": "2facd139",
					"vrfConsumer()": "1ef4d1fd",
					"withdrawUsdt(address,uint256)": "ed092451"
				}
			},
			"storageLayout": {
				"storage": [
					{
						"astId": 8,
						"contract": "contracts/PoolManager.sol:PoolManager",
						"label": "_owner",
						"offset": 0,
						"slot": "0",
						"type": "t_address"
					},
					{
						"astId": 858,
						"contract": "contracts/PoolManager.sol:PoolManager",
						"label": "referralFee",
						"offset": 20,
						"slot": "0",
						"type": "t_uint24"
					},
					{
						"astId": 867,
						"contract": "contracts/PoolManager.sol:PoolManager",
						"label": "vrfConsumer",
						"offset": 0,
						"slot": "1",
						"type": "t_contract(IVRFConsumer)2894"
					},
					{
						"astId": 871,
						"contract": "contracts/PoolManager.sol:PoolManager",
						"label": "referralRewardAccumulated",
						"offset": 0,
						"slot": "2",
						"type": "t_mapping(t_address,t_uint256)"
					},
					{
						"astId": 875,
						"contract": "contracts/PoolManager.sol:PoolManager",
						"label": "referralRewardAccured",
						"offset": 0,
						"slot": "3",
						"type": "t_mapping(t_address,t_uint256)"
					},
					{
						"astId": 883,
						"contract": "contracts/PoolManager.sol:PoolManager",
						"label": "getTicketOwner",
						"offset": 0,
						"slot": "4",
						"type": "t_mapping(t_bytes32,t_mapping(t_uint256,t_mapping(t_uint32,t_address)))"
					},
					{
						"astId": 889,
						"contract": "contracts/PoolManager.sol:PoolManager",
						"label": "_userParticipationRecords",
						"offset": 0,
						"slot": "5",
						"type": "t_mapping(t_address,t_array(t_struct(ParticipationRecord)2628_storage)dyn_storage)"
					},
					{
						"astId": 896,
						"contract": "contracts/PoolManager.sol:PoolManager",
						"label": "_soldTickets",
						"offset": 0,
						"slot": "6",
						"type": "t_mapping(t_bytes32,t_mapping(t_uint256,t_array(t_uint32)dyn_storage))"
					},
					{
						"astId": 901,
						"contract": "contracts/PoolManager.sol:PoolManager",
						"label": "_vrfRequestInfoMap",
						"offset": 0,
						"slot": "7",
						"type": "t_mapping(t_uint256,t_struct(VRFRequestInfo)2633_storage)"
					},
					{
						"astId": 906,
						"contract": "contracts/PoolManager.sol:PoolManager",
						"label": "_poolInfoMap",
						"offset": 0,
						"slot": "8",
						"type": "t_mapping(t_bytes32,t_struct(PoolInfo)2603_storage)"
					},
					{
						"astId": 909,
						"contract": "contracts/PoolManager.sol:PoolManager",
						"label": "_poolIds",
						"offset": 0,
						"slot": "9",
						"type": "t_array(t_bytes32)dyn_storage"
					}
				],
				"types": {
					"t_address": {
						"encoding": "inplace",
						"label": "address",
						"numberOfBytes": "20"
					},
					"t_array(t_bytes32)dyn_storage": {
						"base": "t_bytes32",
						"encoding": "dynamic_array",
						"label": "bytes32[]",
						"numberOfBytes": "32"
					},
					"t_array(t_struct(ParticipationRecord)2628_storage)dyn_storage": {
						"base": "t_struct(ParticipationRecord)2628_storage",
						"encoding": "dynamic_array",
						"label": "struct IPoolManager.ParticipationRecord[]",
						"numberOfBytes": "32"
					},
					"t_array(t_struct(RoundInfo)2616_storage)dyn_storage": {
						"base": "t_struct(RoundInfo)2616_storage",
						"encoding": "dynamic_array",
						"label": "struct IPoolManager.RoundInfo[]",
						"numberOfBytes": "32"
					},
					"t_array(t_uint32)dyn_storage": {
						"base": "t_uint32",
						"encoding": "dynamic_array",
						"label": "uint32[]",
						"numberOfBytes": "32"
					},
					"t_bool": {
						"encoding": "inplace",
						"label": "bool",
						"numberOfBytes": "1"
					},
					"t_bytes32": {
						"encoding": "inplace",
						"label": "bytes32",
						"numberOfBytes": "32"
					},
					"t_contract(IVRFConsumer)2894": {
						"encoding": "inplace",
						"label": "contract IVRFConsumer",
						"numberOfBytes": "20"
					},
					"t_mapping(t_address,t_array(t_struct(ParticipationRecord)2628_storage)dyn_storage)": {
						"encoding": "mapping",
						"key": "t_address",
						"label": "mapping(address => struct IPoolManager.ParticipationRecord[])",
						"numberOfBytes": "32",
						"value": "t_array(t_struct(ParticipationRecord)2628_storage)dyn_storage"
					},
					"t_mapping(t_address,t_uint256)": {
						"encoding": "mapping",
						"key": "t_address",
						"label": "mapping(address => uint256)",
						"numberOfBytes": "32",
						"value": "t_uint256"
					},
					"t_mapping(t_bytes32,t_mapping(t_uint256,t_array(t_uint32)dyn_storage))": {
						"encoding": "mapping",
						"key": "t_bytes32",
						"label": "mapping(bytes32 => mapping(uint256 => uint32[]))",
						"numberOfBytes": "32",
						"value": "t_mapping(t_uint256,t_array(t_uint32)dyn_storage)"
					},
					"t_mapping(t_bytes32,t_mapping(t_uint256,t_mapping(t_uint32,t_address)))": {
						"encoding": "mapping",
						"key": "t_bytes32",
						"label": "mapping(bytes32 => mapping(uint256 => mapping(uint32 => address)))",
						"numberOfBytes": "32",
						"value": "t_mapping(t_uint256,t_mapping(t_uint32,t_address))"
					},
					"t_mapping(t_bytes32,t_struct(PoolInfo)2603_storage)": {
						"encoding": "mapping",
						"key": "t_bytes32",
						"label": "mapping(bytes32 => struct IPoolManager.PoolInfo)",
						"numberOfBytes": "32",
						"value": "t_struct(PoolInfo)2603_storage"
					},
					"t_mapping(t_uint256,t_array(t_uint32)dyn_storage)": {
						"encoding": "mapping",
						"key": "t_uint256",
						"label": "mapping(uint256 => uint32[])",
						"numberOfBytes": "32",
						"value": "t_array(t_uint32)dyn_storage"
					},
					"t_mapping(t_uint256,t_mapping(t_uint32,t_address))": {
						"encoding": "mapping",
						"key": "t_uint256",
						"label": "mapping(uint256 => mapping(uint32 => address))",
						"numberOfBytes": "32",
						"value": "t_mapping(t_uint32,t_address)"
					},
					"t_mapping(t_uint256,t_struct(VRFRequestInfo)2633_storage)": {
						"encoding": "mapping",
						"key": "t_uint256",
						"label": "mapping(uint256 => struct IPoolManager.VRFRequestInfo)",
						"numberOfBytes": "32",
						"value": "t_struct(VRFRequestInfo)2633_storage"
					},
					"t_mapping(t_uint32,t_address)": {
						"encoding": "mapping",
						"key": "t_uint32",
						"label": "mapping(uint32 => address)",
						"numberOfBytes": "32",
						"value": "t_address"
					},
					"t_struct(ParticipationRecord)2628_storage": {
						"encoding": "inplace",
						"label": "struct IPoolManager.ParticipationRecord",
						"members": [
							{
								"astId": 2618,
								"contract": "contracts/PoolManager.sol:PoolManager",
								"label": "poolId",
								"offset": 0,
								"slot": "0",
								"type": "t_bytes32"
							},
							{
								"astId": 2620,
								"contract": "contracts/PoolManager.sol:PoolManager",
								"label": "roundId",
								"offset": 0,
								"slot": "1",
								"type": "t_uint256"
							},
							{
								"astId": 2622,
								"contract": "contracts/PoolManager.sol:PoolManager",
								"label": "timestamp",
								"offset": 0,
								"slot": "2",
								"type": "t_uint256"
							},
							{
								"astId": 2624,
								"contract": "contracts/PoolManager.sol:PoolManager",
								"label": "ticketsCount",
								"offset": 0,
								"slot": "3",
								"type": "t_uint256"
							},
							{
								"astId": 2627,
								"contract": "contracts/PoolManager.sol:PoolManager",
								"label": "tickets",
								"offset": 0,
								"slot": "4",
								"type": "t_array(t_uint32)dyn_storage"
							}
						],
						"numberOfBytes": "160"
					},
					"t_struct(PoolInfo)2603_storage": {
						"encoding": "inplace",
						"label": "struct IPoolManager.PoolInfo",
						"members": [
							{
								"astId": 2590,
								"contract": "contracts/PoolManager.sol:PoolManager",
								"label": "prize",
								"offset": 0,
								"slot": "0",
								"type": "t_uint128"
							},
							{
								"astId": 2592,
								"contract": "contracts/PoolManager.sol:PoolManager",
								"label": "totalTickets",
								"offset": 16,
								"slot": "0",
								"type": "t_uint128"
							},
							{
								"astId": 2594,
								"contract": "contracts/PoolManager.sol:PoolManager",
								"label": "pricePerTicket",
								"offset": 0,
								"slot": "1",
								"type": "t_uint128"
							},
							{
								"astId": 2596,
								"contract": "contracts/PoolManager.sol:PoolManager",
								"label": "roundDuration",
								"offset": 16,
								"slot": "1",
								"type": "t_uint128"
							},
							{
								"astId": 2598,
								"contract": "contracts/PoolManager.sol:PoolManager",
								"label": "roundGapTime",
								"offset": 0,
								"slot": "2",
								"type": "t_uint128"
							},
							{
								"astId": 2602,
								"contract": "contracts/PoolManager.sol:PoolManager",
								"label": "roundInfos",
								"offset": 0,
								"slot": "3",
								"type": "t_array(t_struct(RoundInfo)2616_storage)dyn_storage"
							}
						],
						"numberOfBytes": "128"
					},
					"t_struct(RoundInfo)2616_storage": {
						"encoding": "inplace",
						"label": "struct IPoolManager.RoundInfo",
						"members": [
							{
								"astId": 2605,
								"contract": "contracts/PoolManager.sol:PoolManager",
								"label": "startTime",
								"offset": 0,
								"slot": "0",
								"type": "t_uint128"
							},
							{
								"astId": 2607,
								"contract": "contracts/PoolManager.sol:PoolManager",
								"label": "endTime",
								"offset": 16,
								"slot": "0",
								"type": "t_uint128"
							},
							{
								"astId": 2609,
								"contract": "contracts/PoolManager.sol:PoolManager",
								"label": "leftTickets",
								"offset": 0,
								"slot": "1",
								"type": "t_uint128"
							},
							{
								"astId": 2611,
								"contract": "contracts/PoolManager.sol:PoolManager",
								"label": "vrfRequestId",
								"offset": 0,
								"slot": "2",
								"type": "t_uint256"
							},
							{
								"astId": 2613,
								"contract": "contracts/PoolManager.sol:PoolManager",
								"label": "winNumber",
								"offset": 0,
								"slot": "3",
								"type": "t_uint32"
							},
							{
								"astId": 2615,
								"contract": "contracts/PoolManager.sol:PoolManager",
								"label": "isClaimed",
								"offset": 4,
								"slot": "3",
								"type": "t_bool"
							}
						],
						"numberOfBytes": "128"
					},
					"t_struct(VRFRequestInfo)2633_storage": {
						"encoding": "inplace",
						"label": "struct IPoolManager.VRFRequestInfo",
						"members": [
							{
								"astId": 2630,
								"contract": "contracts/PoolManager.sol:PoolManager",
								"label": "poolId",
								"offset": 0,
								"slot": "0",
								"type": "t_bytes32"
							},
							{
								"astId": 2632,
								"contract": "contracts/PoolManager.sol:PoolManager",
								"label": "roundId",
								"offset": 0,
								"slot": "1",
								"type": "t_uint256"
							}
						],
						"numberOfBytes": "64"
					},
					"t_uint128": {
						"encoding": "inplace",
						"label": "uint128",
						"numberOfBytes": "16"
					},
					"t_uint24": {
						"encoding": "inplace",
						"label": "uint24",
						"numberOfBytes": "3"
					},
					"t_uint256": {
						"encoding": "inplace",
						"label": "uint256",
						"numberOfBytes": "32"
					},
					"t_uint32": {
						"encoding": "inplace",
						"label": "uint32",
						"numberOfBytes": "4"
					}
				}
			},
			"userdoc": {
				"kind": "user",
				"methods": {},
				"version": 1
			}
		}
	}
}