{
	"data": {
		"bytecode": {
			"linkReferences": {},
			"object": "60c060405234801562000010575f80fd5b5060405162003a8138038062003a8183398101604081905262000033916200010a565b33806200005957604051631e4fbdf760e01b81525f600482015260240160405180910390fd5b62000064816200009f565b505f805462ffffff909416600160a01b0262ffffff60a01b19909416939093179092556001600160a01b039081166080521660a05262000159565b5f80546001600160a01b038381166001600160a01b0319831681178455604051919092169283917f8be0079c531659141344cd1fd0a4f28419497f9722a3daafe3b4186f6b6457e09190a35050565b80516001600160a01b038116811462000105575f80fd5b919050565b5f805f606084860312156200011d575f80fd5b835162ffffff8116811462000130575f80fd5b92506200014060208501620000ee565b91506200015060408501620000ee565b90509250925092565b60805160a0516138e36200019e5f395f818161030101526120b101525f81816102da01528181610dc20152818161206901528181612b060152612bc001526138e35ff3fe608060405234801561000f575f80fd5b50600436106101bb575f3560e01c80636f8af123116100f3578063b2a89b0811610093578063e53a73451161006e578063e53a7345146104a6578063ed092451146104b9578063f19c3d5b146104cc578063f2fde38b146104e1575f80fd5b8063b2a89b081461046d578063bab0cbce14610480578063cfd6aa9014610493575f80fd5b806386d32015116100ce57806386d320151461041857806389ba4116146104375780638da5cb5b1461044a578063acca07b11461045a575f80fd5b80636f8af123146103da578063715018a6146103fb57806384ae2bc614610403575f80fd5b80632f48ab7d1161015e57806338ba46141161013957806338ba4614146103435780633b0e443c146103565780634930cc991461038f5780636ed93dd0146103bc575f80fd5b80632f48ab7d146102d55780632facd139146102fc57806334bfb32f14610323575f80fd5b806321f6a5781161019957806321f6a5781461026b578063258601031461028d5780632bbb1444146102ad5780632e5a74b9146102c2575f80fd5b80630358abfc146101bf57806309f2c0191461021b5780631ef4d1fd14610240575b5f80fd5b6101d26101cd36600461301d565b6104f4565b604080516001600160801b03978816815295871660208701529390951692840192909252606083015263ffffffff16608082015290151560a082015260c0015b60405180910390f35b61022e61022936600461303d565b6105be565b60405161021296959493929190613054565b600154610253906001600160a01b031681565b6040516001600160a01b039091168152602001610212565b61027e6102793660046130a3565b610709565b604051610212939291906130f7565b6102a061029b36600461301d565b6109d1565b6040516102129190613189565b6102c06102bb3660046131e3565b610a65565b005b6102c06102d036600461303d565b610df1565b6102537f000000000000000000000000000000000000000000000000000000000000000081565b6102537f000000000000000000000000000000000000000000000000000000000000000081565b610336610331366004613260565b611377565b604051610212919061331c565b6102c0610351366004613342565b611618565b61025361036436600461341f565b600460209081525f93845260408085208252928452828420905282529020546001600160a01b031681565b6103ae61039d3660046130a3565b60036020525f908152604090205481565b604051908152602001610212565b6103c6620f424081565b60405162ffffff9091168152602001610212565b6103ed6103e83660046130a3565b611725565b604051610212929190613451565b6102c0611afb565b5f546103c690600160a01b900462ffffff1681565b6103ae6104263660046130a3565b60026020525f908152604090205481565b6102c0610445366004613472565b611b0e565b5f546001600160a01b0316610253565b6103ae6104683660046134d7565b6125c7565b6102c061047b36600461354e565b612912565b61033661048e3660046130a3565b6129ae565b6102c06104a13660046130a3565b612ac8565b6102c06104b43660046130a3565b612af2565b6102c06104c7366004613570565b612b84565b6104d4612beb565b604051610212919061359a565b6102c06104ef3660046130a3565b612c41565b5f82815260086020526040812081908190819081908190819060030161051b60018a6135c0565b8154811061052b5761052b6135d3565b5f9182526020918290206040805160c08101825260049390930290910180546001600160801b03808216808652600160801b909204811695850186905260018301541692840183905260028201546060850181905260039092015463ffffffff811660808601819052600160201b90910460ff16151560a0909501859052909e949d50919b509950975095509350505050565b5f818152600860209081526040808320815160c08101835281546001600160801b038082168352600160801b91829004811683870152600184015480821684870152919091048116606083015260028301541660808201526003820180548451818702810187019095528085528695869586958695869586959194929360a0860193909290879084015b828210156106d0575f8481526020908190206040805160c0810182526004860290920180546001600160801b038082168552600160801b90910481168486015260018083015490911692840192909252600281015460608401526003015463ffffffff81166080840152600160201b900460ff16151560a08301529083529092019101610648565b505050915250508051602082015160408301516060840151608085015160a09095015151939d929c50909a509850919650945092505050565b6060805f8061071785611725565b5090505f815167ffffffffffffffff8111156107355761073561332e565b60405190808252806020026020018201604052801561075e578160200160208202803683370190505b5090505f825167ffffffffffffffff81111561077c5761077c61332e565b6040519080825280602002602001820160405280156107a5578160200160208202803683370190505b5090505f805b84518110156108af575f8582815181106107c7576107c76135d3565b6020908102919091018101518051818301515f8281526008909452604090932091935091906003016107fa6001836135c0565b8154811061080a5761080a6135d3565b905f5260205f20906004020160030160049054906101000a900460ff16610899575f8281526008602052604090205461084c906001600160801b03168a6135e7565b985081878681518110610861576108616135d3565b60200260200101818152505080868681518110610880576108806135d3565b602090810291909101015284610895816135fa565b9550505b50505080806108a7906135fa565b9150506107ab565b508067ffffffffffffffff8111156108c9576108c961332e565b6040519080825280602002602001820160405280156108f2578160200160208202803683370190505b5096508067ffffffffffffffff81111561090e5761090e61332e565b604051908082528060200260200182016040528015610937578160200160208202803683370190505b5095505f5b818110156109c557838181518110610956576109566135d3565b6020026020010151888281518110610970576109706135d3565b60200260200101818152505082818151811061098e5761098e6135d3565b60200260200101518782815181106109a8576109a86135d3565b6020908102919091010152806109bd816135fa565b91505061093c565b50505050509193909250565b5f828152600660209081526040808320848452825291829020805483518184028101840190945280845260609392830182828015610a5757602002820191905f5260205f20905f905b82829054906101000a900463ffffffff1663ffffffff1681526020019060040190602082600301049283019260010382029150808411610a1a5790505b505050505090505b92915050565b828114610a855760405163dba17af560e01b815260040160405180910390fd5b5f805b84811015610db4575f60085f888885818110610aa657610aa66135d3565b9050602002013581526020019081526020015f206003016001868685818110610ad157610ad16135d3565b90506020020135610ae291906135c0565b81548110610af257610af26135d3565b5f918252602082206003600490920201015463ffffffff169150600881898986818110610b2157610b216135d3565b9050602002013581526020019081526020015f206003016001878786818110610b4c57610b4c6135d3565b90506020020135610b5d91906135c0565b81548110610b6d57610b6d6135d3565b5f918252602082206003600490920201015460ff600160201b90910416915063ffffffff83169003610bb257604051630cb8443360e41b815260040160405180910390fd5b8015610bd157604051630c8d9eab60e31b815260040160405180910390fd5b60045f898986818110610be657610be66135d3565b9050602002013581526020019081526020015f205f878786818110610c0d57610c0d6135d3565b602090810292909201358352508181019290925260409081015f90812063ffffffff861682529092529020546001600160a01b03163314610c61576040516330c6392160e11b815260040160405180910390fd5b60085f898986818110610c7657610c766135d3565b602090810292909201358352508101919091526040015f2054610ca2906001600160801b0316856135e7565b9350600160085f8a8a87818110610cbb57610cbb6135d3565b9050602002013581526020019081526020015f206003016001888887818110610ce657610ce66135d3565b90506020020135610cf791906135c0565b81548110610d0757610d076135d3565b905f5260205f20906004020160030160046101000a81548160ff0219169083151502179055507f1128bee023f7dcf9b3f27e6d488df4c2b5a149077a2e3437a16e8dfdbfe0f38d888885818110610d6057610d606135d3565b90506020020135878786818110610d7957610d796135d3565b90506020020135604051610d97929190918252602082015260400190565b60405180910390a150508080610dac906135fa565b915050610a88565b50610de96001600160a01b037f0000000000000000000000000000000000000000000000000000000000000000168783612c7e565b505050505050565b5f818152600860209081526040808320815160c08101835281546001600160801b038082168352600160801b91829004811683870152600184015480821684870152919091048116606083015260028301541660808201526003820180548451818702810187019095528085529194929360a0860193909290879084015b82821015610ef7575f8481526020908190206040805160c0810182526004860290920180546001600160801b038082168552600160801b90910481168486015260018083015490911692840192909252600281015460608401526003015463ffffffff81166080840152600160201b900460ff16151560a08301529083529092019101610e6f565b5050509152505060a0810151519091505f819003610f28576040516301dbb3ff60e61b815260040160405180910390fd5b5f838152600860205260408120600301610f436001846135c0565b81548110610f5357610f536135d3565b5f9182526020918290206040805160c081018252600490930290910180546001600160801b038082168552600160801b909104811694840185905260018201541691830191909152600281015460608301526003015463ffffffff8116608083015260ff600160201b90910416151560a08201529150421015610fe957604051631a6031a360e31b815260040160405180910390fd5b60608101511561100c5760405163097e1d9b60e01b815260040160405180910390fd5b6001546040805163e0c8628960e01b815290515f926001600160a01b03169163e0c86289916004808301926020929190829003018187875af1158015611054573d5f803e3d5ffd5b505050506040513d601f19601f820116820180604052508101906110789190613612565b60408051808201825287815260208082018781525f85815260078352848120935184559051600193840155606087018590528981526008909152919091209192508391600301906110c990866135c0565b815481106110d9576110d96135d3565b5f91825260208083208451918501516001600160801b03908116600160801b02928116929092176004909302019182556040840151600183018054919092166001600160801b031991909116179055606083015160028201556080808401516003909201805460a0909501511515600160201b0264ffffffffff1990951663ffffffff90931692909217939093179055908501516111779042613629565b90505f85606001518261118a9190613629565b90505f6040518060c00160405280846001600160801b03168152602001836001600160801b0316815260200188602001516001600160801b031681526020015f81526020015f63ffffffff1681526020015f1515815250905060085f8981526020019081526020015f2060030181908060018154018082558091505060019003905f5260205f2090600402015f909190919091505f820151815f015f6101000a8154816001600160801b0302191690836001600160801b031602179055506020820151815f0160106101000a8154816001600160801b0302191690836001600160801b031602179055506040820151816001015f6101000a8154816001600160801b0302191690836001600160801b03160217905550606082015181600201556080820151816003015f6101000a81548163ffffffff021916908363ffffffff16021790555060a08201518160030160046101000a81548160ff02191690831515021790555050505f60085f8a81526020019081526020015f206003018054905090507f9b4e1f1b6df74eff26420e77ce7891d410b236932a083b7c18d599fbd654a8c789828686604051611364949392919093845260208401929092526001600160801b03908116604084015216606082015260800190565b60405180910390a1505050505050505050565b6001600160a01b0383165f908152600560209081526040808320805482518185028101850190935280835260609493849084015b82821015611483578382905f5260205f2090600502016040518060a00160405290815f82015481526020016001820154815260200160028201548152602001600382015481526020016004820180548060200260200160405190810160405280929190818152602001828054801561146b57602002820191905f5260205f20905f905b82829054906101000a900463ffffffff1663ffffffff168152602001906004019060208260030104928301926001038202915080841161142e5790505b505050505081525050815260200190600101906113ab565b5050505090505f815167ffffffffffffffff8111156114a4576114a461332e565b6040519080825280602002602001820160405280156114dd57816020015b6114ca612f2f565b8152602001906001900390816114c25790505b5090505f805b8351811015611563575f8482815181106114ff576114ff6135d3565b60200260200101519050805f01518814801561151e5750806020015187145b156115505780848481518110611536576115366135d3565b6020026020010181905250828061154c906135fa565b9350505b508061155b816135fa565b9150506114e3565b508067ffffffffffffffff81111561157d5761157d61332e565b6040519080825280602002602001820160405280156115b657816020015b6115a3612f2f565b81526020019060019003908161159b5790505b5093505f5b8181101561160d578281815181106115d5576115d56135d3565b60200260200101518582815181106115ef576115ef6135d3565b60200260200101819052508080611605906135fa565b9150506115bb565b505050509392505050565b6001546001600160a01b0316331461164357604051633bfe162b60e01b815260040160405180910390fd5b5f8281526007602090815260408083208151808301835281548082526001909201548185015290845260089092528220548351919291600160801b9091046001600160801b0316908490839061169b5761169b6135d3565b60200260200101516116ad9190613664565b6116b89060016135e7565b90508060085f845f015181526020019081526020015f20600301600184602001516116e391906135c0565b815481106116f3576116f36135d3565b905f5260205f2090600402016003015f6101000a81548163ffffffff021916908363ffffffff16021790555050505050565b6001600160a01b0381165f9081526005602090815260408083208054825181850281018501909352808352606094938493929190849084015b82821015611836578382905f5260205f2090600502016040518060a00160405290815f82015481526020016001820154815260200160028201548152602001600382015481526020016004820180548060200260200160405190810160405280929190818152602001828054801561181e57602002820191905f5260205f20905f905b82829054906101000a900463ffffffff1663ffffffff16815260200190600401906020826003010492830192600103820291508084116117e15790505b5050505050815250508152602001906001019061175e565b5050505090505f815167ffffffffffffffff8111156118575761185761332e565b60405190808252806020026020018201604052801561189057816020015b61187d612f2f565b8152602001906001900390816118755790505b5090505f805b8351811015611a48575f8482815181106118b2576118b26135d3565b6020908102919091018101518051818301515f828152600890945260408420929450909290916003016118e66001846135c0565b815481106118f6576118f66135d3565b5f918252602082206003600490920201015463ffffffff1691505b8460600151811015611a305784608001518181518110611933576119336135d3565b602002602001015163ffffffff168263ffffffff1603611a1e576040805160018082528183019092525f916020808301908036833701905050905082815f81518110611981576119816135d3565b602002602001019063ffffffff16908163ffffffff16815250506040518060a001604052808681526020018581526020018760400151815260200160018152602001828152508989815181106119d9576119d96135d3565b6020908102919091018101919091525f86815260089091526040902054611a09906001600160801b03168c6135e7565b9a5087611a15816135fa565b98505050611a30565b80611a28816135fa565b915050611911565b50505050508080611a40906135fa565b915050611896565b508067ffffffffffffffff811115611a6257611a6261332e565b604051908082528060200260200182016040528015611a9b57816020015b611a88612f2f565b815260200190600190039081611a805790505b5094505f5b81811015611af257828181518110611aba57611aba6135d3565b6020026020010151868281518110611ad457611ad46135d3565b60200260200101819052508080611aea906135fa565b915050611aa0565b50505050915091565b611b03612ce2565b611b0c5f612d0e565b565b5f819003611b2f57604051635e7719ff60e01b815260040160405180910390fd5b5f848152600860209081526040808320815160c08101835281546001600160801b038082168352600160801b91829004811683870152600184015480821684870152919091048116606083015260028301541660808201526003820180548451818702810187019095528085529194929360a0860193909290879084015b82821015611c35575f8481526020908190206040805160c0810182526004860290920180546001600160801b038082168552600160801b90910481168486015260018083015490911692840192909252600281015460608401526003015463ffffffff81166080840152600160201b900460ff16151560a08301529083529092019101611bad565b5050509152505060a08101519091505f90611c516001876135c0565b81518110611c6157611c616135d3565b60200260200101519050805f01516001600160801b0316421015611c9857604051630897059760e21b815260040160405180910390fd5b80602001516001600160801b03164210611cc557604051636b5fd31b60e01b815260040160405180910390fd5b60408101516001600160801b0316831115611cf3576040516307ea7fdb60e21b815260040160405180910390fd5b5f5b83811015611f6e57848482818110611d0f57611d0f6135d3565b9050602002016020810190611d249190613677565b63ffffffff161580611d6e575082602001516001600160801b0316858583818110611d5157611d516135d3565b9050602002016020810190611d669190613677565b63ffffffff16115b15611dc157848482818110611d8557611d856135d3565b9050602002016020810190611d9a9190613677565b604051637c68015960e11b815263ffffffff90911660048201526024015b60405180910390fd5b5f878152600460209081526040808320898452909152812081878785818110611dec57611dec6135d3565b9050602002016020810190611e019190613677565b63ffffffff16815260208101919091526040015f20546001600160a01b031614611e6e57848482818110611e3757611e376135d3565b9050602002016020810190611e4c9190613677565b60405163418055d360e11b815263ffffffff9091166004820152602401611db8565b5f87815260046020908152604080832089845290915281203391878785818110611e9a57611e9a6135d3565b9050602002016020810190611eaf9190613677565b63ffffffff16815260208082019290925260409081015f90812080546001600160a01b0319166001600160a01b039590951694909417909355898352600682528083208984529091529020858583818110611f0c57611f0c6135d3565b9050602002016020810190611f219190613677565b81546001810183555f92835260209092206008830401805460079093166004026101000a63ffffffff81810219909416929093169290920217905580611f66816135fa565b915050611cf5565b5060055f336001600160a01b03166001600160a01b031681526020019081526020015f206040518060a001604052808881526020018781526020014281526020018686905081526020018686808060200260200160405190810160405280939291908181526020018383602002808284375f92018290525093909452505083546001818101865594825260209182902084516005909202019081558184015194810194909455604083015160028501556060830151600385015560808301518051939493612046935060048501929190910190612f5d565b50505060408201515f9061205a9085613690565b905061209a6001600160a01b037f00000000000000000000000000000000000000000000000000000000000000001633306001600160801b038516612d5d565b604051634a9fefc760e01b81523360048201525f907f00000000000000000000000000000000000000000000000000000000000000006001600160a01b031690634a9fefc790602401602060405180830381865afa1580156120fe573d5f803e3d5ffd5b505050506040513d601f19601f8201168201806040525081019061212291906136bb565b90506001600160a01b038116156121cc575f8054620f42409061215190600160a01b900462ffffff1685613690565b61215b91906136d6565b6001600160a01b0383165f90815260036020526040812080549293506001600160801b038416929091906121909084906135e7565b90915550506001600160a01b0382165f90815260026020526040812080546001600160801b03841692906121c59084906135e7565b9091555050505b6040830180518691906121e09083906136fb565b6001600160801b031690525060405133907ff0523de2f627f3c0bef4480ae1fdc6922de2aff9254c3f2df3fcaf121d5470bb90612224908b908b908b908b9061371b565b60405180910390a282604001516001600160801b03165f03612500576001546040805163e0c8628960e01b815290515f926001600160a01b03169163e0c86289916004808301926020929190829003018187875af1158015612288573d5f803e3d5ffd5b505050506040513d601f19601f820116820180604052508101906122ac9190613612565b6040805180820182528b815260208082018c81525f85815260078352938420925183555160019092019190915560608701839052426001600160801b038116918801919091526080880151929350909161230591613629565b90505f8660600151826123189190613629565b90505f6040518060c00160405280846001600160801b03168152602001836001600160801b0316815260200189602001516001600160801b031681526020015f81526020015f63ffffffff1681526020015f1515815250905060085f8d81526020019081526020015f2060030181908060018154018082558091505060019003905f5260205f2090600402015f909190919091505f820151815f015f6101000a8154816001600160801b0302191690836001600160801b031602179055506020820151815f0160106101000a8154816001600160801b0302191690836001600160801b031602179055506040820151816001015f6101000a8154816001600160801b0302191690836001600160801b03160217905550606082015181600201556080820151816003015f6101000a81548163ffffffff021916908363ffffffff16021790555060a08201518160030160046101000a81548160ff02191690831515021790555050505f60085f8e81526020019081526020015f206003018054905090507f9b4e1f1b6df74eff26420e77ce7891d410b236932a083b7c18d599fbd654a8c78d8286866040516124f2949392919093845260208401929092526001600160801b03908116604084015216606082015260800190565b60405180910390a150505050505b5f888152600860205260409020839060030161251d60018a6135c0565b8154811061252d5761252d6135d3565b5f9182526020918290208351928401516001600160801b03938416600160801b91851691909102176004929092020190815560408301516001820180546001600160801b03191691909316179091556060820151600282015560808201516003909101805460a09093015163ffffffff90921664ffffffffff1990931692909217600160201b911515919091021790555050505050505050565b5f6125d0612ce2565b8660ff165f036125f35760405163bb90937d60e01b815260040160405180910390fd5b856001600160801b03165f0361261c57604051637eac88d960e01b815260040160405180910390fd5b836001600160801b03165f03612645576040516306f6625760e01b815260040160405180910390fd5b42826001600160801b0316101561266f57604051632ca4094f60e21b815260040160405180910390fd5b5f61267b88600a613854565b604080516001600160801b03808b166020830152808416928201929092528189166060820152818816608082015290861660a082015290915060c00160408051601f1981840301815291815281516020928301205f81815260089093529120549092506001600160801b03161561270557604051637a471e1360e11b815260040160405180910390fd5b5f8281526008602090815260408083206001600160801b03858116600160801b908102828e161783558a8216028b8216176001830155600290910180548983166001600160801b031991909116179055815160c081019092528616815290810161276f8887613629565b6001600160801b0390811682528481166020808401919091525f6040808501829052606080860183905260809586018390528983526008845281832060039081018054600181810183559186528686208a51978b01518916600160801b02978916979097176004909102909601958655888401518682018054919098166001600160801b031991909116179096559087015160028501559486015192909401805460a08701511515600160201b0264ffffffffff1990911663ffffffff94909416939093179290921790915560098054928301815590527f6e1540171b6c0c960b71a7020d9f60077f6af931a8bbf590da0223dacf75c7af01859055519091507f3c2758c266cec0bfbf96542a5ea303429faec587fb478c002bc94c4742a837f2906128a6908a9085908b908b908b908a90613054565b60405180910390a1602081810151604080518681526001938101939093526001600160801b03878116848301529091166060830152517f9b4e1f1b6df74eff26420e77ce7891d410b236932a083b7c18d599fbd654a8c79181900360800190a150509695505050505050565b61291a612ce2565b620f424062ffffff821610612942576040516308f02dc760e21b815260040160405180910390fd5b5f546040805162ffffff600160a01b9093048316815291831660208301527fa81633b0c4a1ad81d8ca7c4930a87349bcad69f6b8b39c5e91b64c0b674aaf85910160405180910390a15f805462ffffff909216600160a01b0262ffffff60a01b19909216919091179055565b6001600160a01b0381165f908152600560209081526040808320805482518185028101850190935280835260609492939192909184015b82821015612abd578382905f5260205f2090600502016040518060a00160405290815f820154815260200160018201548152602001600282015481526020016003820154815260200160048201805480602002602001604051908101604052809291908181526020018280548015612aa557602002820191905f5260205f20905f905b82829054906101000a900463ffffffff1663ffffffff1681526020019060040190602082600301049283019260010382029150808411612a685790505b505050505081525050815260200190600101906129e5565b505050509050919050565b612ad0612ce2565b600180546001600160a01b0319166001600160a01b0392909216919091179055565b335f90815260036020526040902054612b357f00000000000000000000000000000000000000000000000000000000000000006001600160a01b03168383612c7e565b335f8181526003602052604080822091909155517f99025a6c572f7d11c4d4d32f273dd2dcf2d8841a574e65fa8e35d718a231370b90612b789084815260200190565b60405180910390a25050565b612b8c612ce2565b6001600160a01b038216612bb35760405163d92e233d60e01b815260040160405180910390fd5b612be76001600160a01b037f0000000000000000000000000000000000000000000000000000000000000000168383612c7e565b5050565b60606009805480602002602001604051908101604052809291908181526020018280548015612c3757602002820191905f5260205f20905b815481526020019060010190808311612c23575b5050505050905090565b612c49612ce2565b6001600160a01b038116612c7257604051631e4fbdf760e01b81525f6004820152602401611db8565b612c7b81612d0e565b50565b6040516001600160a01b03838116602483015260448201839052612cdd91859182169063a9059cbb906064015b604051602081830303815290604052915060e01b6020820180516001600160e01b038381831617835250505050612d9c565b505050565b5f546001600160a01b03163314611b0c5760405163118cdaa760e01b8152336004820152602401611db8565b5f80546001600160a01b038381166001600160a01b0319831681178455604051919092169283917f8be0079c531659141344cd1fd0a4f28419497f9722a3daafe3b4186f6b6457e09190a35050565b6040516001600160a01b038481166024830152838116604483015260648201839052612d969186918216906323b872dd90608401612cab565b50505050565b5f612db06001600160a01b03841683612dfd565b905080515f14158015612dd4575080806020019051810190612dd29190613862565b155b15612cdd57604051635274afe760e01b81526001600160a01b0384166004820152602401611db8565b6060612e0a83835f612e11565b9392505050565b606081471015612e365760405163cd78605960e01b8152306004820152602401611db8565b5f80856001600160a01b03168486604051612e519190613881565b5f6040518083038185875af1925050503d805f8114612e8b576040519150601f19603f3d011682016040523d82523d5f602084013e612e90565b606091505b5091509150612ea0868383612eaa565b9695505050505050565b606082612ebf57612eba82612f06565b612e0a565b8151158015612ed657506001600160a01b0384163b155b15612eff57604051639996b31560e01b81526001600160a01b0385166004820152602401611db8565b5080612e0a565b805115612f165780518082602001fd5b604051630a12f52160e11b815260040160405180910390fd5b6040518060a001604052805f80191681526020015f81526020015f81526020015f8152602001606081525090565b828054828255905f5260205f2090600701600890048101928215612ff9579160200282015f5b83821115612fc757835183826101000a81548163ffffffff021916908363ffffffff1602179055509260200192600401602081600301049283019260010302612f83565b8015612ff75782816101000a81549063ffffffff0219169055600401602081600301049283019260010302612fc7565b505b50613005929150613009565b5090565b5b80821115613005575f815560010161300a565b5f806040838503121561302e575f80fd5b50508035926020909101359150565b5f6020828403121561304d575f80fd5b5035919050565b6001600160801b039687168152948616602086015292851660408501529084166060840152909216608082015260a081019190915260c00190565b6001600160a01b0381168114612c7b575f80fd5b5f602082840312156130b3575f80fd5b8135612e0a8161308f565b5f8151808452602080850194508084015f5b838110156130ec578151875295820195908201906001016130d0565b509495945050505050565b606081525f61310960608301866130be565b8281036020848101919091528551808352868201928201905f5b8181101561313f57845183529383019391830191600101613123565b5050809350505050826040830152949350505050565b5f8151808452602080850194508084015f5b838110156130ec57815163ffffffff1687529582019590820190600101613167565b602081525f612e0a6020830184613155565b5f8083601f8401126131ab575f80fd5b50813567ffffffffffffffff8111156131c2575f80fd5b6020830191508360208260051b85010111156131dc575f80fd5b9250929050565b5f805f805f606086880312156131f7575f80fd5b85356132028161308f565b9450602086013567ffffffffffffffff8082111561321e575f80fd5b61322a89838a0161319b565b90965094506040880135915080821115613242575f80fd5b5061324f8882890161319b565b969995985093965092949392505050565b5f805f60608486031215613272575f80fd5b833561327d8161308f565b95602085013595506040909401359392505050565b5f82825180855260208086019550808260051b8401018186015f5b8481101561330f57858303601f190189528151805184528481015185850152604080820151908501526060808201519085015260809081015160a0918501829052906132fb81860183613155565b9a86019a94505050908301906001016132ad565b5090979650505050505050565b602081525f612e0a6020830184613292565b634e487b7160e01b5f52604160045260245ffd5b5f8060408385031215613353575f80fd5b8235915060208084013567ffffffffffffffff80821115613372575f80fd5b818601915086601f830112613385575f80fd5b8135818111156133975761339761332e565b8060051b604051601f19603f830116810181811085821117156133bc576133bc61332e565b6040529182528482019250838101850191898311156133d9575f80fd5b938501935b828510156133f7578435845293850193928501926133de565b8096505050505050509250929050565b803563ffffffff8116811461341a575f80fd5b919050565b5f805f60608486031215613431575f80fd5b833592506020840135915061344860408501613407565b90509250925092565b604081525f6134636040830185613292565b90508260208301529392505050565b5f805f8060608587031215613485575f80fd5b8435935060208501359250604085013567ffffffffffffffff8111156134a9575f80fd5b6134b58782880161319b565b95989497509550505050565b80356001600160801b038116811461341a575f80fd5b5f805f805f8060c087890312156134ec575f80fd5b863560ff811681146134fc575f80fd5b955061350a602088016134c1565b9450613518604088016134c1565b9350613526606088016134c1565b9250613534608088016134c1565b915061354260a088016134c1565b90509295509295509295565b5f6020828403121561355e575f80fd5b813562ffffff81168114612e0a575f80fd5b5f8060408385031215613581575f80fd5b823561358c8161308f565b946020939093013593505050565b602081525f612e0a60208301846130be565b634e487b7160e01b5f52601160045260245ffd5b81810381811115610a5f57610a5f6135ac565b634e487b7160e01b5f52603260045260245ffd5b80820180821115610a5f57610a5f6135ac565b5f6001820161360b5761360b6135ac565b5060010190565b5f60208284031215613622575f80fd5b5051919050565b6001600160801b03818116838216019080821115613649576136496135ac565b5092915050565b634e487b7160e01b5f52601260045260245ffd5b5f8261367257613672613650565b500690565b5f60208284031215613687575f80fd5b612e0a82613407565b6001600160801b038181168382160280821691908281146136b3576136b36135ac565b505092915050565b5f602082840312156136cb575f80fd5b8151612e0a8161308f565b5f6001600160801b03808416806136ef576136ef613650565b92169190910492915050565b6001600160801b03828116828216039080821115613649576136496135ac565b848152602080820185905260606040830181905282018390525f90849060808401835b868110156137675763ffffffff61375485613407565b168252928201929082019060010161373e565b5098975050505050505050565b600181815b808511156137ae57815f1904821115613794576137946135ac565b808516156137a157918102915b93841c9390800290613779565b509250929050565b5f826137c457506001610a5f565b816137d057505f610a5f565b81600181146137e657600281146137f05761380c565b6001915050610a5f565b60ff841115613801576138016135ac565b50506001821b610a5f565b5060208310610133831016604e8410600b841016171561382f575081810a610a5f565b6138398383613774565b805f190482111561384c5761384c6135ac565b029392505050565b5f612e0a60ff8416836137b6565b5f60208284031215613872575f80fd5b81518015158114612e0a575f80fd5b5f82515f5b818110156138a05760208186018101518583015201613886565b505f92019182525091905056fea26469706673582212200b75695aa4e833eff7a51fef126d71c88303ef1a3adb1525e71249d6c9f947ec64736f6c63430008140033",
			"opcodes": "PUSH1 0xC0 PUSH1 0x40 MSTORE CALLVALUE DUP1 ISZERO PUSH3 0x10 JUMPI PUSH0 DUP1 REVERT JUMPDEST POP PUSH1 0x40 MLOAD PUSH3 0x3A81 CODESIZE SUB DUP1 PUSH3 0x3A81 DUP4 CODECOPY DUP2 ADD PUSH1 0x40 DUP2 SWAP1 MSTORE PUSH3 0x33 SWAP2 PUSH3 0x10A JUMP JUMPDEST CALLER DUP1 PUSH3 0x59 JUMPI PUSH1 0x40 MLOAD PUSH4 0x1E4FBDF7 PUSH1 0xE0 SHL DUP2 MSTORE PUSH0 PUSH1 0x4 DUP3 ADD MSTORE PUSH1 0x24 ADD PUSH1 0x40 MLOAD DUP1 SWAP2 SUB SWAP1 REVERT JUMPDEST PUSH3 0x64 DUP2 PUSH3 0x9F JUMP JUMPDEST POP PUSH0 DUP1 SLOAD PUSH3 0xFFFFFF SWAP1 SWAP5 AND PUSH1 0x1 PUSH1 0xA0 SHL MUL PUSH3 0xFFFFFF PUSH1 0xA0 SHL NOT SWAP1 SWAP5 AND SWAP4 SWAP1 SWAP4 OR SWAP1 SWAP3 SSTORE PUSH1 0x1 PUSH1 0x1 PUSH1 0xA0 SHL SUB SWAP1 DUP2 AND PUSH1 0x80 MSTORE AND PUSH1 0xA0 MSTORE PUSH3 0x159 JUMP JUMPDEST PUSH0 DUP1 SLOAD PUSH1 0x1 PUSH1 0x1 PUSH1 0xA0 SHL SUB DUP4 DUP2 AND PUSH1 0x1 PUSH1 0x1 PUSH1 0xA0 SHL SUB NOT DUP4 AND DUP2 OR DUP5 SSTORE PUSH1 0x40 MLOAD SWAP2 SWAP1 SWAP3 AND SWAP3 DUP4 SWAP2 PUSH32 0x8BE0079C531659141344CD1FD0A4F28419497F9722A3DAAFE3B4186F6B6457E0 SWAP2 SWAP1 LOG3 POP POP JUMP JUMPDEST DUP1 MLOAD PUSH1 0x1 PUSH1 0x1 PUSH1 0xA0 SHL SUB DUP2 AND DUP2 EQ PUSH3 0x105 JUMPI PUSH0 DUP1 REVERT JUMPDEST SWAP2 SWAP1 POP JUMP JUMPDEST PUSH0 DUP1 PUSH0 PUSH1 0x60 DUP5 DUP7 SUB SLT ISZERO PUSH3 0x11D JUMPI PUSH0 DUP1 REVERT JUMPDEST DUP4 MLOAD PUSH3 0xFFFFFF DUP2 AND DUP2 EQ PUSH3 0x130 JUMPI PUSH0 DUP1 REVERT JUMPDEST SWAP3 POP PUSH3 0x140 PUSH1 0x20 DUP6 ADD PUSH3 0xEE JUMP JUMPDEST SWAP2 POP PUSH3 0x150 PUSH1 0x40 DUP6 ADD PUSH3 0xEE JUMP JUMPDEST SWAP1 POP SWAP3 POP SWAP3 POP SWAP3 JUMP JUMPDEST PUSH1 0x80 MLOAD PUSH1 0xA0 MLOAD PUSH2 0x38E3 PUSH3 0x19E PUSH0 CODECOPY PUSH0 DUP2 DUP2 PUSH2 0x301 ADD MSTORE PUSH2 0x20B1 ADD MSTORE PUSH0 DUP2 DUP2 PUSH2 0x2DA ADD MSTORE DUP2 DUP2 PUSH2 0xDC2 ADD MSTORE DUP2 DUP2 PUSH2 0x2069 ADD MSTORE DUP2 DUP2 PUSH2 0x2B06 ADD MSTORE PUSH2 0x2BC0 ADD MSTORE PUSH2 0x38E3 PUSH0 RETURN INVALID PUSH1 0x80 PUSH1 0x40 MSTORE CALLVALUE DUP1 ISZERO PUSH2 0xF JUMPI PUSH0 DUP1 REVERT JUMPDEST POP PUSH1 0x4 CALLDATASIZE LT PUSH2 0x1BB JUMPI PUSH0 CALLDATALOAD PUSH1 0xE0 SHR DUP1 PUSH4 0x6F8AF123 GT PUSH2 0xF3 JUMPI DUP1 PUSH4 0xB2A89B08 GT PUSH2 0x93 JUMPI DUP1 PUSH4 0xE53A7345 GT PUSH2 0x6E JUMPI DUP1 PUSH4 0xE53A7345 EQ PUSH2 0x4A6 JUMPI DUP1 PUSH4 0xED092451 EQ PUSH2 0x4B9 JUMPI DUP1 PUSH4 0xF19C3D5B EQ PUSH2 0x4CC JUMPI DUP1 PUSH4 0xF2FDE38B EQ PUSH2 0x4E1 JUMPI PUSH0 DUP1 REVERT JUMPDEST DUP1 PUSH4 0xB2A89B08 EQ PUSH2 0x46D JUMPI DUP1 PUSH4 0xBAB0CBCE EQ PUSH2 0x480 JUMPI DUP1 PUSH4 0xCFD6AA90 EQ PUSH2 0x493 JUMPI PUSH0 DUP1 REVERT JUMPDEST DUP1 PUSH4 0x86D32015 GT PUSH2 0xCE JUMPI DUP1 PUSH4 0x86D32015 EQ PUSH2 0x418 JUMPI DUP1 PUSH4 0x89BA4116 EQ PUSH2 0x437 JUMPI DUP1 PUSH4 0x8DA5CB5B EQ PUSH2 0x44A JUMPI DUP1 PUSH4 0xACCA07B1 EQ PUSH2 0x45A JUMPI PUSH0 DUP1 REVERT JUMPDEST DUP1 PUSH4 0x6F8AF123 EQ PUSH2 0x3DA JUMPI DUP1 PUSH4 0x715018A6 EQ PUSH2 0x3FB JUMPI DUP1 PUSH4 0x84AE2BC6 EQ PUSH2 0x403 JUMPI PUSH0 DUP1 REVERT JUMPDEST DUP1 PUSH4 0x2F48AB7D GT PUSH2 0x15E JUMPI DUP1 PUSH4 0x38BA4614 GT PUSH2 0x139 JUMPI DUP1 PUSH4 0x38BA4614 EQ PUSH2 0x343 JUMPI DUP1 PUSH4 0x3B0E443C EQ PUSH2 0x356 JUMPI DUP1 PUSH4 0x4930CC99 EQ PUSH2 0x38F JUMPI DUP1 PUSH4 0x6ED93DD0 EQ PUSH2 0x3BC JUMPI PUSH0 DUP1 REVERT JUMPDEST DUP1 PUSH4 0x2F48AB7D EQ PUSH2 0x2D5 JUMPI DUP1 PUSH4 0x2FACD139 EQ PUSH2 0x2FC JUMPI DUP1 PUSH4 0x34BFB32F EQ PUSH2 0x323 JUMPI PUSH0 DUP1 REVERT JUMPDEST DUP1 PUSH4 0x21F6A578 GT PUSH2 0x199 JUMPI DUP1 PUSH4 0x21F6A578 EQ PUSH2 0x26B JUMPI DUP1 PUSH4 0x25860103 EQ PUSH2 0x28D JUMPI DUP1 PUSH4 0x2BBB1444 EQ PUSH2 0x2AD JUMPI DUP1 PUSH4 0x2E5A74B9 EQ PUSH2 0x2C2 JUMPI PUSH0 DUP1 REVERT JUMPDEST DUP1 PUSH4 0x358ABFC EQ PUSH2 0x1BF JUMPI DUP1 PUSH4 0x9F2C019 EQ PUSH2 0x21B JUMPI DUP1 PUSH4 0x1EF4D1FD EQ PUSH2 0x240 JUMPI JUMPDEST PUSH0 DUP1 REVERT JUMPDEST PUSH2 0x1D2 PUSH2 0x1CD CALLDATASIZE PUSH1 0x4 PUSH2 0x301D JUMP JUMPDEST PUSH2 0x4F4 JUMP JUMPDEST PUSH1 0x40 DUP1 MLOAD PUSH1 0x1 PUSH1 0x1 PUSH1 0x80 SHL SUB SWAP8 DUP9 AND DUP2 MSTORE SWAP6 DUP8 AND PUSH1 0x20 DUP8 ADD MSTORE SWAP4 SWAP1 SWAP6 AND SWAP3 DUP5 ADD SWAP3 SWAP1 SWAP3 MSTORE PUSH1 0x60 DUP4 ADD MSTORE PUSH4 0xFFFFFFFF AND PUSH1 0x80 DUP3 ADD MSTORE SWAP1 ISZERO ISZERO PUSH1 0xA0 DUP3 ADD MSTORE PUSH1 0xC0 ADD JUMPDEST PUSH1 0x40 MLOAD DUP1 SWAP2 SUB SWAP1 RETURN JUMPDEST PUSH2 0x22E PUSH2 0x229 CALLDATASIZE PUSH1 0x4 PUSH2 0x303D JUMP JUMPDEST PUSH2 0x5BE JUMP JUMPDEST PUSH1 0x40 MLOAD PUSH2 0x212 SWAP7 SWAP6 SWAP5 SWAP4 SWAP3 SWAP2 SWAP1 PUSH2 0x3054 JUMP JUMPDEST PUSH1 0x1 SLOAD PUSH2 0x253 SWAP1 PUSH1 0x1 PUSH1 0x1 PUSH1 0xA0 SHL SUB AND DUP2 JUMP JUMPDEST PUSH1 0x40 MLOAD PUSH1 0x1 PUSH1 0x1 PUSH1 0xA0 SHL SUB SWAP1 SWAP2 AND DUP2 MSTORE PUSH1 0x20 ADD PUSH2 0x212 JUMP JUMPDEST PUSH2 0x27E PUSH2 0x279 CALLDATASIZE PUSH1 0x4 PUSH2 0x30A3 JUMP JUMPDEST PUSH2 0x709 JUMP JUMPDEST PUSH1 0x40 MLOAD PUSH2 0x212 SWAP4 SWAP3 SWAP2 SWAP1 PUSH2 0x30F7 JUMP JUMPDEST PUSH2 0x2A0 PUSH2 0x29B CALLDATASIZE PUSH1 0x4 PUSH2 0x301D JUMP JUMPDEST PUSH2 0x9D1 JUMP JUMPDEST PUSH1 0x40 MLOAD PUSH2 0x212 SWAP2 SWAP1 PUSH2 0x3189 JUMP JUMPDEST PUSH2 0x2C0 PUSH2 0x2BB CALLDATASIZE PUSH1 0x4 PUSH2 0x31E3 JUMP JUMPDEST PUSH2 0xA65 JUMP JUMPDEST STOP JUMPDEST PUSH2 0x2C0 PUSH2 0x2D0 CALLDATASIZE PUSH1 0x4 PUSH2 0x303D JUMP JUMPDEST PUSH2 0xDF1 JUMP JUMPDEST PUSH2 0x253 PUSH32 0x0 DUP2 JUMP JUMPDEST PUSH2 0x253 PUSH32 0x0 DUP2 JUMP JUMPDEST PUSH2 0x336 PUSH2 0x331 CALLDATASIZE PUSH1 0x4 PUSH2 0x3260 JUMP JUMPDEST PUSH2 0x1377 JUMP JUMPDEST PUSH1 0x40 MLOAD PUSH2 0x212 SWAP2 SWAP1 PUSH2 0x331C JUMP JUMPDEST PUSH2 0x2C0 PUSH2 0x351 CALLDATASIZE PUSH1 0x4 PUSH2 0x3342 JUMP JUMPDEST PUSH2 0x1618 JUMP JUMPDEST PUSH2 0x253 PUSH2 0x364 CALLDATASIZE PUSH1 0x4 PUSH2 0x341F JUMP JUMPDEST PUSH1 0x4 PUSH1 0x20 SWAP1 DUP2 MSTORE PUSH0 SWAP4 DUP5 MSTORE PUSH1 0x40 DUP1 DUP6 KECCAK256 DUP3 MSTORE SWAP3 DUP5 MSTORE DUP3 DUP5 KECCAK256 SWAP1 MSTORE DUP3 MSTORE SWAP1 KECCAK256 SLOAD PUSH1 0x1 PUSH1 0x1 PUSH1 0xA0 SHL SUB AND DUP2 JUMP JUMPDEST PUSH2 0x3AE PUSH2 0x39D CALLDATASIZE PUSH1 0x4 PUSH2 0x30A3 JUMP JUMPDEST PUSH1 0x3 PUSH1 0x20 MSTORE PUSH0 SWAP1 DUP2 MSTORE PUSH1 0x40 SWAP1 KECCAK256 SLOAD DUP2 JUMP JUMPDEST PUSH1 0x40 MLOAD SWAP1 DUP2 MSTORE PUSH1 0x20 ADD PUSH2 0x212 JUMP JUMPDEST PUSH2 0x3C6 PUSH3 0xF4240 DUP2 JUMP JUMPDEST PUSH1 0x40 MLOAD PUSH3 0xFFFFFF SWAP1 SWAP2 AND DUP2 MSTORE PUSH1 0x20 ADD PUSH2 0x212 JUMP JUMPDEST PUSH2 0x3ED PUSH2 0x3E8 CALLDATASIZE PUSH1 0x4 PUSH2 0x30A3 JUMP JUMPDEST PUSH2 0x1725 JUMP JUMPDEST PUSH1 0x40 MLOAD PUSH2 0x212 SWAP3 SWAP2 SWAP1 PUSH2 0x3451 JUMP JUMPDEST PUSH2 0x2C0 PUSH2 0x1AFB JUMP JUMPDEST PUSH0 SLOAD PUSH2 0x3C6 SWAP1 PUSH1 0x1 PUSH1 0xA0 SHL SWAP1 DIV PUSH3 0xFFFFFF AND DUP2 JUMP JUMPDEST PUSH2 0x3AE PUSH2 0x426 CALLDATASIZE PUSH1 0x4 PUSH2 0x30A3 JUMP JUMPDEST PUSH1 0x2 PUSH1 0x20 MSTORE PUSH0 SWAP1 DUP2 MSTORE PUSH1 0x40 SWAP1 KECCAK256 SLOAD DUP2 JUMP JUMPDEST PUSH2 0x2C0 PUSH2 0x445 CALLDATASIZE PUSH1 0x4 PUSH2 0x3472 JUMP JUMPDEST PUSH2 0x1B0E JUMP JUMPDEST PUSH0 SLOAD PUSH1 0x1 PUSH1 0x1 PUSH1 0xA0 SHL SUB AND PUSH2 0x253 JUMP JUMPDEST PUSH2 0x3AE PUSH2 0x468 CALLDATASIZE PUSH1 0x4 PUSH2 0x34D7 JUMP JUMPDEST PUSH2 0x25C7 JUMP JUMPDEST PUSH2 0x2C0 PUSH2 0x47B CALLDATASIZE PUSH1 0x4 PUSH2 0x354E JUMP JUMPDEST PUSH2 0x2912 JUMP JUMPDEST PUSH2 0x336 PUSH2 0x48E CALLDATASIZE PUSH1 0x4 PUSH2 0x30A3 JUMP JUMPDEST PUSH2 0x29AE JUMP JUMPDEST PUSH2 0x2C0 PUSH2 0x4A1 CALLDATASIZE PUSH1 0x4 PUSH2 0x30A3 JUMP JUMPDEST PUSH2 0x2AC8 JUMP JUMPDEST PUSH2 0x2C0 PUSH2 0x4B4 CALLDATASIZE PUSH1 0x4 PUSH2 0x30A3 JUMP JUMPDEST PUSH2 0x2AF2 JUMP JUMPDEST PUSH2 0x2C0 PUSH2 0x4C7 CALLDATASIZE PUSH1 0x4 PUSH2 0x3570 JUMP JUMPDEST PUSH2 0x2B84 JUMP JUMPDEST PUSH2 0x4D4 PUSH2 0x2BEB JUMP JUMPDEST PUSH1 0x40 MLOAD PUSH2 0x212 SWAP2 SWAP1 PUSH2 0x359A JUMP JUMPDEST PUSH2 0x2C0 PUSH2 0x4EF CALLDATASIZE PUSH1 0x4 PUSH2 0x30A3 JUMP JUMPDEST PUSH2 0x2C41 JUMP JUMPDEST PUSH0 DUP3 DUP2 MSTORE PUSH1 0x8 PUSH1 0x20 MSTORE PUSH1 0x40 DUP2 KECCAK256 DUP2 SWAP1 DUP2 SWAP1 DUP2 SWAP1 DUP2 SWAP1 DUP2 SWAP1 DUP2 SWAP1 PUSH1 0x3 ADD PUSH2 0x51B PUSH1 0x1 DUP11 PUSH2 0x35C0 JUMP JUMPDEST DUP2 SLOAD DUP2 LT PUSH2 0x52B JUMPI PUSH2 0x52B PUSH2 0x35D3 JUMP JUMPDEST PUSH0 SWAP2 DUP3 MSTORE PUSH1 0x20 SWAP2 DUP3 SWAP1 KECCAK256 PUSH1 0x40 DUP1 MLOAD PUSH1 0xC0 DUP2 ADD DUP3 MSTORE PUSH1 0x4 SWAP4 SWAP1 SWAP4 MUL SWAP1 SWAP2 ADD DUP1 SLOAD PUSH1 0x1 PUSH1 0x1 PUSH1 0x80 SHL SUB DUP1 DUP3 AND DUP1 DUP7 MSTORE PUSH1 0x1 PUSH1 0x80 SHL SWAP1 SWAP3 DIV DUP2 AND SWAP6 DUP6 ADD DUP7 SWAP1 MSTORE PUSH1 0x1 DUP4 ADD SLOAD AND SWAP3 DUP5 ADD DUP4 SWAP1 MSTORE PUSH1 0x2 DUP3 ADD SLOAD PUSH1 0x60 DUP6 ADD DUP2 SWAP1 MSTORE PUSH1 0x3 SWAP1 SWAP3 ADD SLOAD PUSH4 0xFFFFFFFF DUP2 AND PUSH1 0x80 DUP7 ADD DUP2 SWAP1 MSTORE PUSH1 0x1 PUSH1 0x20 SHL SWAP1 SWAP2 DIV PUSH1 0xFF AND ISZERO ISZERO PUSH1 0xA0 SWAP1 SWAP6 ADD DUP6 SWAP1 MSTORE SWAP1 SWAP15 SWAP5 SWAP14 POP SWAP2 SWAP12 POP SWAP10 POP SWAP8 POP SWAP6 POP SWAP4 POP POP POP POP JUMP JUMPDEST PUSH0 DUP2 DUP2 MSTORE PUSH1 0x8 PUSH1 0x20 SWAP1 DUP2 MSTORE PUSH1 0x40 DUP1 DUP4 KECCAK256 DUP2 MLOAD PUSH1 0xC0 DUP2 ADD DUP4 MSTORE DUP2 SLOAD PUSH1 0x1 PUSH1 0x1 PUSH1 0x80 SHL SUB DUP1 DUP3 AND DUP4 MSTORE PUSH1 0x1 PUSH1 0x80 SHL SWAP2 DUP3 SWAP1 DIV DUP2 AND DUP4 DUP8 ADD MSTORE PUSH1 0x1 DUP5 ADD SLOAD DUP1 DUP3 AND DUP5 DUP8 ADD MSTORE SWAP2 SWAP1 SWAP2 DIV DUP2 AND PUSH1 0x60 DUP4 ADD MSTORE PUSH1 0x2 DUP4 ADD SLOAD AND PUSH1 0x80 DUP3 ADD MSTORE PUSH1 0x3 DUP3 ADD DUP1 SLOAD DUP5 MLOAD DUP2 DUP8 MUL DUP2 ADD DUP8 ADD SWAP1 SWAP6 MSTORE DUP1 DUP6 MSTORE DUP7 SWAP6 DUP7 SWAP6 DUP7 SWAP6 DUP7 SWAP6 DUP7 SWAP6 DUP7 SWAP6 SWAP2 SWAP5 SWAP3 SWAP4 PUSH1 0xA0 DUP7 ADD SWAP4 SWAP1 SWAP3 SWAP1 DUP8 SWAP1 DUP5 ADD JUMPDEST DUP3 DUP3 LT ISZERO PUSH2 0x6D0 JUMPI PUSH0 DUP5 DUP2 MSTORE PUSH1 0x20 SWAP1 DUP2 SWAP1 KECCAK256 PUSH1 0x40 DUP1 MLOAD PUSH1 0xC0 DUP2 ADD DUP3 MSTORE PUSH1 0x4 DUP7 MUL SWAP1 SWAP3 ADD DUP1 SLOAD PUSH1 0x1 PUSH1 0x1 PUSH1 0x80 SHL SUB DUP1 DUP3 AND DUP6 MSTORE PUSH1 0x1 PUSH1 0x80 SHL SWAP1 SWAP2 DIV DUP2 AND DUP5 DUP7 ADD MSTORE PUSH1 0x1 DUP1 DUP4 ADD SLOAD SWAP1 SWAP2 AND SWAP3 DUP5 ADD SWAP3 SWAP1 SWAP3 MSTORE PUSH1 0x2 DUP2 ADD SLOAD PUSH1 0x60 DUP5 ADD MSTORE PUSH1 0x3 ADD SLOAD PUSH4 0xFFFFFFFF DUP2 AND PUSH1 0x80 DUP5 ADD MSTORE PUSH1 0x1 PUSH1 0x20 SHL SWAP1 DIV PUSH1 0xFF AND ISZERO ISZERO PUSH1 0xA0 DUP4 ADD MSTORE SWAP1 DUP4 MSTORE SWAP1 SWAP3 ADD SWAP2 ADD PUSH2 0x648 JUMP JUMPDEST POP POP POP SWAP2 MSTORE POP POP DUP1 MLOAD PUSH1 0x20 DUP3 ADD MLOAD PUSH1 0x40 DUP4 ADD MLOAD PUSH1 0x60 DUP5 ADD MLOAD PUSH1 0x80 DUP6 ADD MLOAD PUSH1 0xA0 SWAP1 SWAP6 ADD MLOAD MLOAD SWAP4 SWAP14 SWAP3 SWAP13 POP SWAP1 SWAP11 POP SWAP9 POP SWAP2 SWAP7 POP SWAP5 POP SWAP3 POP POP POP JUMP JUMPDEST PUSH1 0x60 DUP1 PUSH0 DUP1 PUSH2 0x717 DUP6 PUSH2 0x1725 JUMP JUMPDEST POP SWAP1 POP PUSH0 DUP2 MLOAD PUSH8 0xFFFFFFFFFFFFFFFF DUP2 GT ISZERO PUSH2 0x735 JUMPI PUSH2 0x735 PUSH2 0x332E JUMP JUMPDEST PUSH1 0x40 MLOAD SWAP1 DUP1 DUP3 MSTORE DUP1 PUSH1 0x20 MUL PUSH1 0x20 ADD DUP3 ADD PUSH1 0x40 MSTORE DUP1 ISZERO PUSH2 0x75E JUMPI DUP2 PUSH1 0x20 ADD PUSH1 0x20 DUP3 MUL DUP1 CALLDATASIZE DUP4 CALLDATACOPY ADD SWAP1 POP JUMPDEST POP SWAP1 POP PUSH0 DUP3 MLOAD PUSH8 0xFFFFFFFFFFFFFFFF DUP2 GT ISZERO PUSH2 0x77C JUMPI PUSH2 0x77C PUSH2 0x332E JUMP JUMPDEST PUSH1 0x40 MLOAD SWAP1 DUP1 DUP3 MSTORE DUP1 PUSH1 0x20 MUL PUSH1 0x20 ADD DUP3 ADD PUSH1 0x40 MSTORE DUP1 ISZERO PUSH2 0x7A5 JUMPI DUP2 PUSH1 0x20 ADD PUSH1 0x20 DUP3 MUL DUP1 CALLDATASIZE DUP4 CALLDATACOPY ADD SWAP1 POP JUMPDEST POP SWAP1 POP PUSH0 DUP1 JUMPDEST DUP5 MLOAD DUP2 LT ISZERO PUSH2 0x8AF JUMPI PUSH0 DUP6 DUP3 DUP2 MLOAD DUP2 LT PUSH2 0x7C7 JUMPI PUSH2 0x7C7 PUSH2 0x35D3 JUMP JUMPDEST PUSH1 0x20 SWAP1 DUP2 MUL SWAP2 SWAP1 SWAP2 ADD DUP2 ADD MLOAD DUP1 MLOAD DUP2 DUP4 ADD MLOAD PUSH0 DUP3 DUP2 MSTORE PUSH1 0x8 SWAP1 SWAP5 MSTORE PUSH1 0x40 SWAP1 SWAP4 KECCAK256 SWAP2 SWAP4 POP SWAP2 SWAP1 PUSH1 0x3 ADD PUSH2 0x7FA PUSH1 0x1 DUP4 PUSH2 0x35C0 JUMP JUMPDEST DUP2 SLOAD DUP2 LT PUSH2 0x80A JUMPI PUSH2 0x80A PUSH2 0x35D3 JUMP JUMPDEST SWAP1 PUSH0 MSTORE PUSH1 0x20 PUSH0 KECCAK256 SWAP1 PUSH1 0x4 MUL ADD PUSH1 0x3 ADD PUSH1 0x4 SWAP1 SLOAD SWAP1 PUSH2 0x100 EXP SWAP1 DIV PUSH1 0xFF AND PUSH2 0x899 JUMPI PUSH0 DUP3 DUP2 MSTORE PUSH1 0x8 PUSH1 0x20 MSTORE PUSH1 0x40 SWAP1 KECCAK256 SLOAD PUSH2 0x84C SWAP1 PUSH1 0x1 PUSH1 0x1 PUSH1 0x80 SHL SUB AND DUP11 PUSH2 0x35E7 JUMP JUMPDEST SWAP9 POP DUP2 DUP8 DUP7 DUP2 MLOAD DUP2 LT PUSH2 0x861 JUMPI PUSH2 0x861 PUSH2 0x35D3 JUMP JUMPDEST PUSH1 0x20 MUL PUSH1 0x20 ADD ADD DUP2 DUP2 MSTORE POP POP DUP1 DUP7 DUP7 DUP2 MLOAD DUP2 LT PUSH2 0x880 JUMPI PUSH2 0x880 PUSH2 0x35D3 JUMP JUMPDEST PUSH1 0x20 SWAP1 DUP2 MUL SWAP2 SWAP1 SWAP2 ADD ADD MSTORE DUP5 PUSH2 0x895 DUP2 PUSH2 0x35FA JUMP JUMPDEST SWAP6 POP POP JUMPDEST POP POP POP DUP1 DUP1 PUSH2 0x8A7 SWAP1 PUSH2 0x35FA JUMP JUMPDEST SWAP2 POP POP PUSH2 0x7AB JUMP JUMPDEST POP DUP1 PUSH8 0xFFFFFFFFFFFFFFFF DUP2 GT ISZERO PUSH2 0x8C9 JUMPI PUSH2 0x8C9 PUSH2 0x332E JUMP JUMPDEST PUSH1 0x40 MLOAD SWAP1 DUP1 DUP3 MSTORE DUP1 PUSH1 0x20 MUL PUSH1 0x20 ADD DUP3 ADD PUSH1 0x40 MSTORE DUP1 ISZERO PUSH2 0x8F2 JUMPI DUP2 PUSH1 0x20 ADD PUSH1 0x20 DUP3 MUL DUP1 CALLDATASIZE DUP4 CALLDATACOPY ADD SWAP1 POP JUMPDEST POP SWAP7 POP DUP1 PUSH8 0xFFFFFFFFFFFFFFFF DUP2 GT ISZERO PUSH2 0x90E JUMPI PUSH2 0x90E PUSH2 0x332E JUMP JUMPDEST PUSH1 0x40 MLOAD SWAP1 DUP1 DUP3 MSTORE DUP1 PUSH1 0x20 MUL PUSH1 0x20 ADD DUP3 ADD PUSH1 0x40 MSTORE DUP1 ISZERO PUSH2 0x937 JUMPI DUP2 PUSH1 0x20 ADD PUSH1 0x20 DUP3 MUL DUP1 CALLDATASIZE DUP4 CALLDATACOPY ADD SWAP1 POP JUMPDEST POP SWAP6 POP PUSH0 JUMPDEST DUP2 DUP2 LT ISZERO PUSH2 0x9C5 JUMPI DUP4 DUP2 DUP2 MLOAD DUP2 LT PUSH2 0x956 JUMPI PUSH2 0x956 PUSH2 0x35D3 JUMP JUMPDEST PUSH1 0x20 MUL PUSH1 0x20 ADD ADD MLOAD DUP9 DUP3 DUP2 MLOAD DUP2 LT PUSH2 0x970 JUMPI PUSH2 0x970 PUSH2 0x35D3 JUMP JUMPDEST PUSH1 0x20 MUL PUSH1 0x20 ADD ADD DUP2 DUP2 MSTORE POP POP DUP3 DUP2 DUP2 MLOAD DUP2 LT PUSH2 0x98E JUMPI PUSH2 0x98E PUSH2 0x35D3 JUMP JUMPDEST PUSH1 0x20 MUL PUSH1 0x20 ADD ADD MLOAD DUP8 DUP3 DUP2 MLOAD DUP2 LT PUSH2 0x9A8 JUMPI PUSH2 0x9A8 PUSH2 0x35D3 JUMP JUMPDEST PUSH1 0x20 SWAP1 DUP2 MUL SWAP2 SWAP1 SWAP2 ADD ADD MSTORE DUP1 PUSH2 0x9BD DUP2 PUSH2 0x35FA JUMP JUMPDEST SWAP2 POP POP PUSH2 0x93C JUMP JUMPDEST POP POP POP POP POP SWAP2 SWAP4 SWAP1 SWAP3 POP JUMP JUMPDEST PUSH0 DUP3 DUP2 MSTORE PUSH1 0x6 PUSH1 0x20 SWAP1 DUP2 MSTORE PUSH1 0x40 DUP1 DUP4 KECCAK256 DUP5 DUP5 MSTORE DUP3 MSTORE SWAP2 DUP3 SWAP1 KECCAK256 DUP1 SLOAD DUP4 MLOAD DUP2 DUP5 MUL DUP2 ADD DUP5 ADD SWAP1 SWAP5 MSTORE DUP1 DUP5 MSTORE PUSH1 0x60 SWAP4 SWAP3 DUP4 ADD DUP3 DUP3 DUP1 ISZERO PUSH2 0xA57 JUMPI PUSH1 0x20 MUL DUP3 ADD SWAP2 SWAP1 PUSH0 MSTORE PUSH1 0x20 PUSH0 KECCAK256 SWAP1 PUSH0 SWAP1 JUMPDEST DUP3 DUP3 SWAP1 SLOAD SWAP1 PUSH2 0x100 EXP SWAP1 DIV PUSH4 0xFFFFFFFF AND PUSH4 0xFFFFFFFF AND DUP2 MSTORE PUSH1 0x20 ADD SWAP1 PUSH1 0x4 ADD SWAP1 PUSH1 0x20 DUP3 PUSH1 0x3 ADD DIV SWAP3 DUP4 ADD SWAP3 PUSH1 0x1 SUB DUP3 MUL SWAP2 POP DUP1 DUP5 GT PUSH2 0xA1A JUMPI SWAP1 POP JUMPDEST POP POP POP POP POP SWAP1 POP JUMPDEST SWAP3 SWAP2 POP POP JUMP JUMPDEST DUP3 DUP2 EQ PUSH2 0xA85 JUMPI PUSH1 0x40 MLOAD PUSH4 0xDBA17AF5 PUSH1 0xE0 SHL DUP2 MSTORE PUSH1 0x4 ADD PUSH1 0x40 MLOAD DUP1 SWAP2 SUB SWAP1 REVERT JUMPDEST PUSH0 DUP1 JUMPDEST DUP5 DUP2 LT ISZERO PUSH2 0xDB4 JUMPI PUSH0 PUSH1 0x8 PUSH0 DUP9 DUP9 DUP6 DUP2 DUP2 LT PUSH2 0xAA6 JUMPI PUSH2 0xAA6 PUSH2 0x35D3 JUMP JUMPDEST SWAP1 POP PUSH1 0x20 MUL ADD CALLDATALOAD DUP2 MSTORE PUSH1 0x20 ADD SWAP1 DUP2 MSTORE PUSH1 0x20 ADD PUSH0 KECCAK256 PUSH1 0x3 ADD PUSH1 0x1 DUP7 DUP7 DUP6 DUP2 DUP2 LT PUSH2 0xAD1 JUMPI PUSH2 0xAD1 PUSH2 0x35D3 JUMP JUMPDEST SWAP1 POP PUSH1 0x20 MUL ADD CALLDATALOAD PUSH2 0xAE2 SWAP2 SWAP1 PUSH2 0x35C0 JUMP JUMPDEST DUP2 SLOAD DUP2 LT PUSH2 0xAF2 JUMPI PUSH2 0xAF2 PUSH2 0x35D3 JUMP JUMPDEST PUSH0 SWAP2 DUP3 MSTORE PUSH1 0x20 DUP3 KECCAK256 PUSH1 0x3 PUSH1 0x4 SWAP1 SWAP3 MUL ADD ADD SLOAD PUSH4 0xFFFFFFFF AND SWAP2 POP PUSH1 0x8 DUP2 DUP10 DUP10 DUP7 DUP2 DUP2 LT PUSH2 0xB21 JUMPI PUSH2 0xB21 PUSH2 0x35D3 JUMP JUMPDEST SWAP1 POP PUSH1 0x20 MUL ADD CALLDATALOAD DUP2 MSTORE PUSH1 0x20 ADD SWAP1 DUP2 MSTORE PUSH1 0x20 ADD PUSH0 KECCAK256 PUSH1 0x3 ADD PUSH1 0x1 DUP8 DUP8 DUP7 DUP2 DUP2 LT PUSH2 0xB4C JUMPI PUSH2 0xB4C PUSH2 0x35D3 JUMP JUMPDEST SWAP1 POP PUSH1 0x20 MUL ADD CALLDATALOAD PUSH2 0xB5D SWAP2 SWAP1 PUSH2 0x35C0 JUMP JUMPDEST DUP2 SLOAD DUP2 LT PUSH2 0xB6D JUMPI PUSH2 0xB6D PUSH2 0x35D3 JUMP JUMPDEST PUSH0 SWAP2 DUP3 MSTORE PUSH1 0x20 DUP3 KECCAK256 PUSH1 0x3 PUSH1 0x4 SWAP1 SWAP3 MUL ADD ADD SLOAD PUSH1 0xFF PUSH1 0x1 PUSH1 0x20 SHL SWAP1 SWAP2 DIV AND SWAP2 POP PUSH4 0xFFFFFFFF DUP4 AND SWAP1 SUB PUSH2 0xBB2 JUMPI PUSH1 0x40 MLOAD PUSH4 0xCB84433 PUSH1 0xE4 SHL DUP2 MSTORE PUSH1 0x4 ADD PUSH1 0x40 MLOAD DUP1 SWAP2 SUB SWAP1 REVERT JUMPDEST DUP1 ISZERO PUSH2 0xBD1 JUMPI PUSH1 0x40 MLOAD PUSH4 0xC8D9EAB PUSH1 0xE3 SHL DUP2 MSTORE PUSH1 0x4 ADD PUSH1 0x40 MLOAD DUP1 SWAP2 SUB SWAP1 REVERT JUMPDEST PUSH1 0x4 PUSH0 DUP10 DUP10 DUP7 DUP2 DUP2 LT PUSH2 0xBE6 JUMPI PUSH2 0xBE6 PUSH2 0x35D3 JUMP JUMPDEST SWAP1 POP PUSH1 0x20 MUL ADD CALLDATALOAD DUP2 MSTORE PUSH1 0x20 ADD SWAP1 DUP2 MSTORE PUSH1 0x20 ADD PUSH0 KECCAK256 PUSH0 DUP8 DUP8 DUP7 DUP2 DUP2 LT PUSH2 0xC0D JUMPI PUSH2 0xC0D PUSH2 0x35D3 JUMP JUMPDEST PUSH1 0x20 SWAP1 DUP2 MUL SWAP3 SWAP1 SWAP3 ADD CALLDATALOAD DUP4 MSTORE POP DUP2 DUP2 ADD SWAP3 SWAP1 SWAP3 MSTORE PUSH1 0x40 SWAP1 DUP2 ADD PUSH0 SWAP1 DUP2 KECCAK256 PUSH4 0xFFFFFFFF DUP7 AND DUP3 MSTORE SWAP1 SWAP3 MSTORE SWAP1 KECCAK256 SLOAD PUSH1 0x1 PUSH1 0x1 PUSH1 0xA0 SHL SUB AND CALLER EQ PUSH2 0xC61 JUMPI PUSH1 0x40 MLOAD PUSH4 0x30C63921 PUSH1 0xE1 SHL DUP2 MSTORE PUSH1 0x4 ADD PUSH1 0x40 MLOAD DUP1 SWAP2 SUB SWAP1 REVERT JUMPDEST PUSH1 0x8 PUSH0 DUP10 DUP10 DUP7 DUP2 DUP2 LT PUSH2 0xC76 JUMPI PUSH2 0xC76 PUSH2 0x35D3 JUMP JUMPDEST PUSH1 0x20 SWAP1 DUP2 MUL SWAP3 SWAP1 SWAP3 ADD CALLDATALOAD DUP4 MSTORE POP DUP2 ADD SWAP2 SWAP1 SWAP2 MSTORE PUSH1 0x40 ADD PUSH0 KECCAK256 SLOAD PUSH2 0xCA2 SWAP1 PUSH1 0x1 PUSH1 0x1 PUSH1 0x80 SHL SUB AND DUP6 PUSH2 0x35E7 JUMP JUMPDEST SWAP4 POP PUSH1 0x1 PUSH1 0x8 PUSH0 DUP11 DUP11 DUP8 DUP2 DUP2 LT PUSH2 0xCBB JUMPI PUSH2 0xCBB PUSH2 0x35D3 JUMP JUMPDEST SWAP1 POP PUSH1 0x20 MUL ADD CALLDATALOAD DUP2 MSTORE PUSH1 0x20 ADD SWAP1 DUP2 MSTORE PUSH1 0x20 ADD PUSH0 KECCAK256 PUSH1 0x3 ADD PUSH1 0x1 DUP9 DUP9 DUP8 DUP2 DUP2 LT PUSH2 0xCE6 JUMPI PUSH2 0xCE6 PUSH2 0x35D3 JUMP JUMPDEST SWAP1 POP PUSH1 0x20 MUL ADD CALLDATALOAD PUSH2 0xCF7 SWAP2 SWAP1 PUSH2 0x35C0 JUMP JUMPDEST DUP2 SLOAD DUP2 LT PUSH2 0xD07 JUMPI PUSH2 0xD07 PUSH2 0x35D3 JUMP JUMPDEST SWAP1 PUSH0 MSTORE PUSH1 0x20 PUSH0 KECCAK256 SWAP1 PUSH1 0x4 MUL ADD PUSH1 0x3 ADD PUSH1 0x4 PUSH2 0x100 EXP DUP2 SLOAD DUP2 PUSH1 0xFF MUL NOT AND SWAP1 DUP4 ISZERO ISZERO MUL OR SWAP1 SSTORE POP PUSH32 0x1128BEE023F7DCF9B3F27E6D488DF4C2B5A149077A2E3437A16E8DFDBFE0F38D DUP9 DUP9 DUP6 DUP2 DUP2 LT PUSH2 0xD60 JUMPI PUSH2 0xD60 PUSH2 0x35D3 JUMP JUMPDEST SWAP1 POP PUSH1 0x20 MUL ADD CALLDATALOAD DUP8 DUP8 DUP7 DUP2 DUP2 LT PUSH2 0xD79 JUMPI PUSH2 0xD79 PUSH2 0x35D3 JUMP JUMPDEST SWAP1 POP PUSH1 0x20 MUL ADD CALLDATALOAD PUSH1 0x40 MLOAD PUSH2 0xD97 SWAP3 SWAP2 SWAP1 SWAP2 DUP3 MSTORE PUSH1 0x20 DUP3 ADD MSTORE PUSH1 0x40 ADD SWAP1 JUMP JUMPDEST PUSH1 0x40 MLOAD DUP1 SWAP2 SUB SWAP1 LOG1 POP POP DUP1 DUP1 PUSH2 0xDAC SWAP1 PUSH2 0x35FA JUMP JUMPDEST SWAP2 POP POP PUSH2 0xA88 JUMP JUMPDEST POP PUSH2 0xDE9 PUSH1 0x1 PUSH1 0x1 PUSH1 0xA0 SHL SUB PUSH32 0x0 AND DUP8 DUP4 PUSH2 0x2C7E JUMP JUMPDEST POP POP POP POP POP POP JUMP JUMPDEST PUSH0 DUP2 DUP2 MSTORE PUSH1 0x8 PUSH1 0x20 SWAP1 DUP2 MSTORE PUSH1 0x40 DUP1 DUP4 KECCAK256 DUP2 MLOAD PUSH1 0xC0 DUP2 ADD DUP4 MSTORE DUP2 SLOAD PUSH1 0x1 PUSH1 0x1 PUSH1 0x80 SHL SUB DUP1 DUP3 AND DUP4 MSTORE PUSH1 0x1 PUSH1 0x80 SHL SWAP2 DUP3 SWAP1 DIV DUP2 AND DUP4 DUP8 ADD MSTORE PUSH1 0x1 DUP5 ADD SLOAD DUP1 DUP3 AND DUP5 DUP8 ADD MSTORE SWAP2 SWAP1 SWAP2 DIV DUP2 AND PUSH1 0x60 DUP4 ADD MSTORE PUSH1 0x2 DUP4 ADD SLOAD AND PUSH1 0x80 DUP3 ADD MSTORE PUSH1 0x3 DUP3 ADD DUP1 SLOAD DUP5 MLOAD DUP2 DUP8 MUL DUP2 ADD DUP8 ADD SWAP1 SWAP6 MSTORE DUP1 DUP6 MSTORE SWAP2 SWAP5 SWAP3 SWAP4 PUSH1 0xA0 DUP7 ADD SWAP4 SWAP1 SWAP3 SWAP1 DUP8 SWAP1 DUP5 ADD JUMPDEST DUP3 DUP3 LT ISZERO PUSH2 0xEF7 JUMPI PUSH0 DUP5 DUP2 MSTORE PUSH1 0x20 SWAP1 DUP2 SWAP1 KECCAK256 PUSH1 0x40 DUP1 MLOAD PUSH1 0xC0 DUP2 ADD DUP3 MSTORE PUSH1 0x4 DUP7 MUL SWAP1 SWAP3 ADD DUP1 SLOAD PUSH1 0x1 PUSH1 0x1 PUSH1 0x80 SHL SUB DUP1 DUP3 AND DUP6 MSTORE PUSH1 0x1 PUSH1 0x80 SHL SWAP1 SWAP2 DIV DUP2 AND DUP5 DUP7 ADD MSTORE PUSH1 0x1 DUP1 DUP4 ADD SLOAD SWAP1 SWAP2 AND SWAP3 DUP5 ADD SWAP3 SWAP1 SWAP3 MSTORE PUSH1 0x2 DUP2 ADD SLOAD PUSH1 0x60 DUP5 ADD MSTORE PUSH1 0x3 ADD SLOAD PUSH4 0xFFFFFFFF DUP2 AND PUSH1 0x80 DUP5 ADD MSTORE PUSH1 0x1 PUSH1 0x20 SHL SWAP1 DIV PUSH1 0xFF AND ISZERO ISZERO PUSH1 0xA0 DUP4 ADD MSTORE SWAP1 DUP4 MSTORE SWAP1 SWAP3 ADD SWAP2 ADD PUSH2 0xE6F JUMP JUMPDEST POP POP POP SWAP2 MSTORE POP POP PUSH1 0xA0 DUP2 ADD MLOAD MLOAD SWAP1 SWAP2 POP PUSH0 DUP2 SWAP1 SUB PUSH2 0xF28 JUMPI PUSH1 0x40 MLOAD PUSH4 0x1DBB3FF PUSH1 0xE6 SHL DUP2 MSTORE PUSH1 0x4 ADD PUSH1 0x40 MLOAD DUP1 SWAP2 SUB SWAP1 REVERT JUMPDEST PUSH0 DUP4 DUP2 MSTORE PUSH1 0x8 PUSH1 0x20 MSTORE PUSH1 0x40 DUP2 KECCAK256 PUSH1 0x3 ADD PUSH2 0xF43 PUSH1 0x1 DUP5 PUSH2 0x35C0 JUMP JUMPDEST DUP2 SLOAD DUP2 LT PUSH2 0xF53 JUMPI PUSH2 0xF53 PUSH2 0x35D3 JUMP JUMPDEST PUSH0 SWAP2 DUP3 MSTORE PUSH1 0x20 SWAP2 DUP3 SWAP1 KECCAK256 PUSH1 0x40 DUP1 MLOAD PUSH1 0xC0 DUP2 ADD DUP3 MSTORE PUSH1 0x4 SWAP1 SWAP4 MUL SWAP1 SWAP2 ADD DUP1 SLOAD PUSH1 0x1 PUSH1 0x1 PUSH1 0x80 SHL SUB DUP1 DUP3 AND DUP6 MSTORE PUSH1 0x1 PUSH1 0x80 SHL SWAP1 SWAP2 DIV DUP2 AND SWAP5 DUP5 ADD DUP6 SWAP1 MSTORE PUSH1 0x1 DUP3 ADD SLOAD AND SWAP2 DUP4 ADD SWAP2 SWAP1 SWAP2 MSTORE PUSH1 0x2 DUP2 ADD SLOAD PUSH1 0x60 DUP4 ADD MSTORE PUSH1 0x3 ADD SLOAD PUSH4 0xFFFFFFFF DUP2 AND PUSH1 0x80 DUP4 ADD MSTORE PUSH1 0xFF PUSH1 0x1 PUSH1 0x20 SHL SWAP1 SWAP2 DIV AND ISZERO ISZERO PUSH1 0xA0 DUP3 ADD MSTORE SWAP2 POP TIMESTAMP LT ISZERO PUSH2 0xFE9 JUMPI PUSH1 0x40 MLOAD PUSH4 0x1A6031A3 PUSH1 0xE3 SHL DUP2 MSTORE PUSH1 0x4 ADD PUSH1 0x40 MLOAD DUP1 SWAP2 SUB SWAP1 REVERT JUMPDEST PUSH1 0x60 DUP2 ADD MLOAD ISZERO PUSH2 0x100C JUMPI PUSH1 0x40 MLOAD PUSH4 0x97E1D9B PUSH1 0xE0 SHL DUP2 MSTORE PUSH1 0x4 ADD PUSH1 0x40 MLOAD DUP1 SWAP2 SUB SWAP1 REVERT JUMPDEST PUSH1 0x1 SLOAD PUSH1 0x40 DUP1 MLOAD PUSH4 0xE0C86289 PUSH1 0xE0 SHL DUP2 MSTORE SWAP1 MLOAD PUSH0 SWAP3 PUSH1 0x1 PUSH1 0x1 PUSH1 0xA0 SHL SUB AND SWAP2 PUSH4 0xE0C86289 SWAP2 PUSH1 0x4 DUP1 DUP4 ADD SWAP3 PUSH1 0x20 SWAP3 SWAP2 SWAP1 DUP3 SWAP1 SUB ADD DUP2 DUP8 DUP8 GAS CALL ISZERO DUP1 ISZERO PUSH2 0x1054 JUMPI RETURNDATASIZE PUSH0 DUP1 RETURNDATACOPY RETURNDATASIZE PUSH0 REVERT JUMPDEST POP POP POP POP PUSH1 0x40 MLOAD RETURNDATASIZE PUSH1 0x1F NOT PUSH1 0x1F DUP3 ADD AND DUP3 ADD DUP1 PUSH1 0x40 MSTORE POP DUP2 ADD SWAP1 PUSH2 0x1078 SWAP2 SWAP1 PUSH2 0x3612 JUMP JUMPDEST PUSH1 0x40 DUP1 MLOAD DUP1 DUP3 ADD DUP3 MSTORE DUP8 DUP2 MSTORE PUSH1 0x20 DUP1 DUP3 ADD DUP8 DUP2 MSTORE PUSH0 DUP6 DUP2 MSTORE PUSH1 0x7 DUP4 MSTORE DUP5 DUP2 KECCAK256 SWAP4 MLOAD DUP5 SSTORE SWAP1 MLOAD PUSH1 0x1 SWAP4 DUP5 ADD SSTORE PUSH1 0x60 DUP8 ADD DUP6 SWAP1 MSTORE DUP10 DUP2 MSTORE PUSH1 0x8 SWAP1 SWAP2 MSTORE SWAP2 SWAP1 SWAP2 KECCAK256 SWAP2 SWAP3 POP DUP4 SWAP2 PUSH1 0x3 ADD SWAP1 PUSH2 0x10C9 SWAP1 DUP7 PUSH2 0x35C0 JUMP JUMPDEST DUP2 SLOAD DUP2 LT PUSH2 0x10D9 JUMPI PUSH2 0x10D9 PUSH2 0x35D3 JUMP JUMPDEST PUSH0 SWAP2 DUP3 MSTORE PUSH1 0x20 DUP1 DUP4 KECCAK256 DUP5 MLOAD SWAP2 DUP6 ADD MLOAD PUSH1 0x1 PUSH1 0x1 PUSH1 0x80 SHL SUB SWAP1 DUP2 AND PUSH1 0x1 PUSH1 0x80 SHL MUL SWAP3 DUP2 AND SWAP3 SWAP1 SWAP3 OR PUSH1 0x4 SWAP1 SWAP4 MUL ADD SWAP2 DUP3 SSTORE PUSH1 0x40 DUP5 ADD MLOAD PUSH1 0x1 DUP4 ADD DUP1 SLOAD SWAP2 SWAP1 SWAP3 AND PUSH1 0x1 PUSH1 0x1 PUSH1 0x80 SHL SUB NOT SWAP2 SWAP1 SWAP2 AND OR SWAP1 SSTORE PUSH1 0x60 DUP4 ADD MLOAD PUSH1 0x2 DUP3 ADD SSTORE PUSH1 0x80 DUP1 DUP5 ADD MLOAD PUSH1 0x3 SWAP1 SWAP3 ADD DUP1 SLOAD PUSH1 0xA0 SWAP1 SWAP6 ADD MLOAD ISZERO ISZERO PUSH1 0x1 PUSH1 0x20 SHL MUL PUSH5 0xFFFFFFFFFF NOT SWAP1 SWAP6 AND PUSH4 0xFFFFFFFF SWAP1 SWAP4 AND SWAP3 SWAP1 SWAP3 OR SWAP4 SWAP1 SWAP4 OR SWAP1 SSTORE SWAP1 DUP6 ADD MLOAD PUSH2 0x1177 SWAP1 TIMESTAMP PUSH2 0x3629 JUMP JUMPDEST SWAP1 POP PUSH0 DUP6 PUSH1 0x60 ADD MLOAD DUP3 PUSH2 0x118A SWAP2 SWAP1 PUSH2 0x3629 JUMP JUMPDEST SWAP1 POP PUSH0 PUSH1 0x40 MLOAD DUP1 PUSH1 0xC0 ADD PUSH1 0x40 MSTORE DUP1 DUP5 PUSH1 0x1 PUSH1 0x1 PUSH1 0x80 SHL SUB AND DUP2 MSTORE PUSH1 0x20 ADD DUP4 PUSH1 0x1 PUSH1 0x1 PUSH1 0x80 SHL SUB AND DUP2 MSTORE PUSH1 0x20 ADD DUP9 PUSH1 0x20 ADD MLOAD PUSH1 0x1 PUSH1 0x1 PUSH1 0x80 SHL SUB AND DUP2 MSTORE PUSH1 0x20 ADD PUSH0 DUP2 MSTORE PUSH1 0x20 ADD PUSH0 PUSH4 0xFFFFFFFF AND DUP2 MSTORE PUSH1 0x20 ADD PUSH0 ISZERO ISZERO DUP2 MSTORE POP SWAP1 POP PUSH1 0x8 PUSH0 DUP10 DUP2 MSTORE PUSH1 0x20 ADD SWAP1 DUP2 MSTORE PUSH1 0x20 ADD PUSH0 KECCAK256 PUSH1 0x3 ADD DUP2 SWAP1 DUP1 PUSH1 0x1 DUP2 SLOAD ADD DUP1 DUP3 SSTORE DUP1 SWAP2 POP POP PUSH1 0x1 SWAP1 SUB SWAP1 PUSH0 MSTORE PUSH1 0x20 PUSH0 KECCAK256 SWAP1 PUSH1 0x4 MUL ADD PUSH0 SWAP1 SWAP2 SWAP1 SWAP2 SWAP1 SWAP2 POP PUSH0 DUP3 ADD MLOAD DUP2 PUSH0 ADD PUSH0 PUSH2 0x100 EXP DUP2 SLOAD DUP2 PUSH1 0x1 PUSH1 0x1 PUSH1 0x80 SHL SUB MUL NOT AND SWAP1 DUP4 PUSH1 0x1 PUSH1 0x1 PUSH1 0x80 SHL SUB AND MUL OR SWAP1 SSTORE POP PUSH1 0x20 DUP3 ADD MLOAD DUP2 PUSH0 ADD PUSH1 0x10 PUSH2 0x100 EXP DUP2 SLOAD DUP2 PUSH1 0x1 PUSH1 0x1 PUSH1 0x80 SHL SUB MUL NOT AND SWAP1 DUP4 PUSH1 0x1 PUSH1 0x1 PUSH1 0x80 SHL SUB AND MUL OR SWAP1 SSTORE POP PUSH1 0x40 DUP3 ADD MLOAD DUP2 PUSH1 0x1 ADD PUSH0 PUSH2 0x100 EXP DUP2 SLOAD DUP2 PUSH1 0x1 PUSH1 0x1 PUSH1 0x80 SHL SUB MUL NOT AND SWAP1 DUP4 PUSH1 0x1 PUSH1 0x1 PUSH1 0x80 SHL SUB AND MUL OR SWAP1 SSTORE POP PUSH1 0x60 DUP3 ADD MLOAD DUP2 PUSH1 0x2 ADD SSTORE PUSH1 0x80 DUP3 ADD MLOAD DUP2 PUSH1 0x3 ADD PUSH0 PUSH2 0x100 EXP DUP2 SLOAD DUP2 PUSH4 0xFFFFFFFF MUL NOT AND SWAP1 DUP4 PUSH4 0xFFFFFFFF AND MUL OR SWAP1 SSTORE POP PUSH1 0xA0 DUP3 ADD MLOAD DUP2 PUSH1 0x3 ADD PUSH1 0x4 PUSH2 0x100 EXP DUP2 SLOAD DUP2 PUSH1 0xFF MUL NOT AND SWAP1 DUP4 ISZERO ISZERO MUL OR SWAP1 SSTORE POP POP POP PUSH0 PUSH1 0x8 PUSH0 DUP11 DUP2 MSTORE PUSH1 0x20 ADD SWAP1 DUP2 MSTORE PUSH1 0x20 ADD PUSH0 KECCAK256 PUSH1 0x3 ADD DUP1 SLOAD SWAP1 POP SWAP1 POP PUSH32 0x9B4E1F1B6DF74EFF26420E77CE7891D410B236932A083B7C18D599FBD654A8C7 DUP10 DUP3 DUP7 DUP7 PUSH1 0x40 MLOAD PUSH2 0x1364 SWAP5 SWAP4 SWAP3 SWAP2 SWAP1 SWAP4 DUP5 MSTORE PUSH1 0x20 DUP5 ADD SWAP3 SWAP1 SWAP3 MSTORE PUSH1 0x1 PUSH1 0x1 PUSH1 0x80 SHL SUB SWAP1 DUP2 AND PUSH1 0x40 DUP5 ADD MSTORE AND PUSH1 0x60 DUP3 ADD MSTORE PUSH1 0x80 ADD SWAP1 JUMP JUMPDEST PUSH1 0x40 MLOAD DUP1 SWAP2 SUB SWAP1 LOG1 POP POP POP POP POP POP POP POP POP JUMP JUMPDEST PUSH1 0x1 PUSH1 0x1 PUSH1 0xA0 SHL SUB DUP4 AND PUSH0 SWAP1 DUP2 MSTORE PUSH1 0x5 PUSH1 0x20 SWAP1 DUP2 MSTORE PUSH1 0x40 DUP1 DUP4 KECCAK256 DUP1 SLOAD DUP3 MLOAD DUP2 DUP6 MUL DUP2 ADD DUP6 ADD SWAP1 SWAP4 MSTORE DUP1 DUP4 MSTORE PUSH1 0x60 SWAP5 SWAP4 DUP5 SWAP1 DUP5 ADD JUMPDEST DUP3 DUP3 LT ISZERO PUSH2 0x1483 JUMPI DUP4 DUP3 SWAP1 PUSH0 MSTORE PUSH1 0x20 PUSH0 KECCAK256 SWAP1 PUSH1 0x5 MUL ADD PUSH1 0x40 MLOAD DUP1 PUSH1 0xA0 ADD PUSH1 0x40 MSTORE SWAP1 DUP2 PUSH0 DUP3 ADD SLOAD DUP2 MSTORE PUSH1 0x20 ADD PUSH1 0x1 DUP3 ADD SLOAD DUP2 MSTORE PUSH1 0x20 ADD PUSH1 0x2 DUP3 ADD SLOAD DUP2 MSTORE PUSH1 0x20 ADD PUSH1 0x3 DUP3 ADD SLOAD DUP2 MSTORE PUSH1 0x20 ADD PUSH1 0x4 DUP3 ADD DUP1 SLOAD DUP1 PUSH1 0x20 MUL PUSH1 0x20 ADD PUSH1 0x40 MLOAD SWAP1 DUP2 ADD PUSH1 0x40 MSTORE DUP1 SWAP3 SWAP2 SWAP1 DUP2 DUP2 MSTORE PUSH1 0x20 ADD DUP3 DUP1 SLOAD DUP1 ISZERO PUSH2 0x146B JUMPI PUSH1 0x20 MUL DUP3 ADD SWAP2 SWAP1 PUSH0 MSTORE PUSH1 0x20 PUSH0 KECCAK256 SWAP1 PUSH0 SWAP1 JUMPDEST DUP3 DUP3 SWAP1 SLOAD SWAP1 PUSH2 0x100 EXP SWAP1 DIV PUSH4 0xFFFFFFFF AND PUSH4 0xFFFFFFFF AND DUP2 MSTORE PUSH1 0x20 ADD SWAP1 PUSH1 0x4 ADD SWAP1 PUSH1 0x20 DUP3 PUSH1 0x3 ADD DIV SWAP3 DUP4 ADD SWAP3 PUSH1 0x1 SUB DUP3 MUL SWAP2 POP DUP1 DUP5 GT PUSH2 0x142E JUMPI SWAP1 POP JUMPDEST POP POP POP POP POP DUP2 MSTORE POP POP DUP2 MSTORE PUSH1 0x20 ADD SWAP1 PUSH1 0x1 ADD SWAP1 PUSH2 0x13AB JUMP JUMPDEST POP POP POP POP SWAP1 POP PUSH0 DUP2 MLOAD PUSH8 0xFFFFFFFFFFFFFFFF DUP2 GT ISZERO PUSH2 0x14A4 JUMPI PUSH2 0x14A4 PUSH2 0x332E JUMP JUMPDEST PUSH1 0x40 MLOAD SWAP1 DUP1 DUP3 MSTORE DUP1 PUSH1 0x20 MUL PUSH1 0x20 ADD DUP3 ADD PUSH1 0x40 MSTORE DUP1 ISZERO PUSH2 0x14DD JUMPI DUP2 PUSH1 0x20 ADD JUMPDEST PUSH2 0x14CA PUSH2 0x2F2F JUMP JUMPDEST DUP2 MSTORE PUSH1 0x20 ADD SWAP1 PUSH1 0x1 SWAP1 SUB SWAP1 DUP2 PUSH2 0x14C2 JUMPI SWAP1 POP JUMPDEST POP SWAP1 POP PUSH0 DUP1 JUMPDEST DUP4 MLOAD DUP2 LT ISZERO PUSH2 0x1563 JUMPI PUSH0 DUP5 DUP3 DUP2 MLOAD DUP2 LT PUSH2 0x14FF JUMPI PUSH2 0x14FF PUSH2 0x35D3 JUMP JUMPDEST PUSH1 0x20 MUL PUSH1 0x20 ADD ADD MLOAD SWAP1 POP DUP1 PUSH0 ADD MLOAD DUP9 EQ DUP1 ISZERO PUSH2 0x151E JUMPI POP DUP1 PUSH1 0x20 ADD MLOAD DUP8 EQ JUMPDEST ISZERO PUSH2 0x1550 JUMPI DUP1 DUP5 DUP5 DUP2 MLOAD DUP2 LT PUSH2 0x1536 JUMPI PUSH2 0x1536 PUSH2 0x35D3 JUMP JUMPDEST PUSH1 0x20 MUL PUSH1 0x20 ADD ADD DUP2 SWAP1 MSTORE POP DUP3 DUP1 PUSH2 0x154C SWAP1 PUSH2 0x35FA JUMP JUMPDEST SWAP4 POP POP JUMPDEST POP DUP1 PUSH2 0x155B DUP2 PUSH2 0x35FA JUMP JUMPDEST SWAP2 POP POP PUSH2 0x14E3 JUMP JUMPDEST POP DUP1 PUSH8 0xFFFFFFFFFFFFFFFF DUP2 GT ISZERO PUSH2 0x157D JUMPI PUSH2 0x157D PUSH2 0x332E JUMP JUMPDEST PUSH1 0x40 MLOAD SWAP1 DUP1 DUP3 MSTORE DUP1 PUSH1 0x20 MUL PUSH1 0x20 ADD DUP3 ADD PUSH1 0x40 MSTORE DUP1 ISZERO PUSH2 0x15B6 JUMPI DUP2 PUSH1 0x20 ADD JUMPDEST PUSH2 0x15A3 PUSH2 0x2F2F JUMP JUMPDEST DUP2 MSTORE PUSH1 0x20 ADD SWAP1 PUSH1 0x1 SWAP1 SUB SWAP1 DUP2 PUSH2 0x159B JUMPI SWAP1 POP JUMPDEST POP SWAP4 POP PUSH0 JUMPDEST DUP2 DUP2 LT ISZERO PUSH2 0x160D JUMPI DUP3 DUP2 DUP2 MLOAD DUP2 LT PUSH2 0x15D5 JUMPI PUSH2 0x15D5 PUSH2 0x35D3 JUMP JUMPDEST PUSH1 0x20 MUL PUSH1 0x20 ADD ADD MLOAD DUP6 DUP3 DUP2 MLOAD DUP2 LT PUSH2 0x15EF JUMPI PUSH2 0x15EF PUSH2 0x35D3 JUMP JUMPDEST PUSH1 0x20 MUL PUSH1 0x20 ADD ADD DUP2 SWAP1 MSTORE POP DUP1 DUP1 PUSH2 0x1605 SWAP1 PUSH2 0x35FA JUMP JUMPDEST SWAP2 POP POP PUSH2 0x15BB JUMP JUMPDEST POP POP POP POP SWAP4 SWAP3 POP POP POP JUMP JUMPDEST PUSH1 0x1 SLOAD PUSH1 0x1 PUSH1 0x1 PUSH1 0xA0 SHL SUB AND CALLER EQ PUSH2 0x1643 JUMPI PUSH1 0x40 MLOAD PUSH4 0x3BFE162B PUSH1 0xE0 SHL DUP2 MSTORE PUSH1 0x4 ADD PUSH1 0x40 MLOAD DUP1 SWAP2 SUB SWAP1 REVERT JUMPDEST PUSH0 DUP3 DUP2 MSTORE PUSH1 0x7 PUSH1 0x20 SWAP1 DUP2 MSTORE PUSH1 0x40 DUP1 DUP4 KECCAK256 DUP2 MLOAD DUP1 DUP4 ADD DUP4 MSTORE DUP2 SLOAD DUP1 DUP3 MSTORE PUSH1 0x1 SWAP1 SWAP3 ADD SLOAD DUP2 DUP6 ADD MSTORE SWAP1 DUP5 MSTORE PUSH1 0x8 SWAP1 SWAP3 MSTORE DUP3 KECCAK256 SLOAD DUP4 MLOAD SWAP2 SWAP3 SWAP2 PUSH1 0x1 PUSH1 0x80 SHL SWAP1 SWAP2 DIV PUSH1 0x1 PUSH1 0x1 PUSH1 0x80 SHL SUB AND SWAP1 DUP5 SWAP1 DUP4 SWAP1 PUSH2 0x169B JUMPI PUSH2 0x169B PUSH2 0x35D3 JUMP JUMPDEST PUSH1 0x20 MUL PUSH1 0x20 ADD ADD MLOAD PUSH2 0x16AD SWAP2 SWAP1 PUSH2 0x3664 JUMP JUMPDEST PUSH2 0x16B8 SWAP1 PUSH1 0x1 PUSH2 0x35E7 JUMP JUMPDEST SWAP1 POP DUP1 PUSH1 0x8 PUSH0 DUP5 PUSH0 ADD MLOAD DUP2 MSTORE PUSH1 0x20 ADD SWAP1 DUP2 MSTORE PUSH1 0x20 ADD PUSH0 KECCAK256 PUSH1 0x3 ADD PUSH1 0x1 DUP5 PUSH1 0x20 ADD MLOAD PUSH2 0x16E3 SWAP2 SWAP1 PUSH2 0x35C0 JUMP JUMPDEST DUP2 SLOAD DUP2 LT PUSH2 0x16F3 JUMPI PUSH2 0x16F3 PUSH2 0x35D3 JUMP JUMPDEST SWAP1 PUSH0 MSTORE PUSH1 0x20 PUSH0 KECCAK256 SWAP1 PUSH1 0x4 MUL ADD PUSH1 0x3 ADD PUSH0 PUSH2 0x100 EXP DUP2 SLOAD DUP2 PUSH4 0xFFFFFFFF MUL NOT AND SWAP1 DUP4 PUSH4 0xFFFFFFFF AND MUL OR SWAP1 SSTORE POP POP POP POP POP JUMP JUMPDEST PUSH1 0x1 PUSH1 0x1 PUSH1 0xA0 SHL SUB DUP2 AND PUSH0 SWAP1 DUP2 MSTORE PUSH1 0x5 PUSH1 0x20 SWAP1 DUP2 MSTORE PUSH1 0x40 DUP1 DUP4 KECCAK256 DUP1 SLOAD DUP3 MLOAD DUP2 DUP6 MUL DUP2 ADD DUP6 ADD SWAP1 SWAP4 MSTORE DUP1 DUP4 MSTORE PUSH1 0x60 SWAP5 SWAP4 DUP5 SWAP4 SWAP3 SWAP2 SWAP1 DUP5 SWAP1 DUP5 ADD JUMPDEST DUP3 DUP3 LT ISZERO PUSH2 0x1836 JUMPI DUP4 DUP3 SWAP1 PUSH0 MSTORE PUSH1 0x20 PUSH0 KECCAK256 SWAP1 PUSH1 0x5 MUL ADD PUSH1 0x40 MLOAD DUP1 PUSH1 0xA0 ADD PUSH1 0x40 MSTORE SWAP1 DUP2 PUSH0 DUP3 ADD SLOAD DUP2 MSTORE PUSH1 0x20 ADD PUSH1 0x1 DUP3 ADD SLOAD DUP2 MSTORE PUSH1 0x20 ADD PUSH1 0x2 DUP3 ADD SLOAD DUP2 MSTORE PUSH1 0x20 ADD PUSH1 0x3 DUP3 ADD SLOAD DUP2 MSTORE PUSH1 0x20 ADD PUSH1 0x4 DUP3 ADD DUP1 SLOAD DUP1 PUSH1 0x20 MUL PUSH1 0x20 ADD PUSH1 0x40 MLOAD SWAP1 DUP2 ADD PUSH1 0x40 MSTORE DUP1 SWAP3 SWAP2 SWAP1 DUP2 DUP2 MSTORE PUSH1 0x20 ADD DUP3 DUP1 SLOAD DUP1 ISZERO PUSH2 0x181E JUMPI PUSH1 0x20 MUL DUP3 ADD SWAP2 SWAP1 PUSH0 MSTORE PUSH1 0x20 PUSH0 KECCAK256 SWAP1 PUSH0 SWAP1 JUMPDEST DUP3 DUP3 SWAP1 SLOAD SWAP1 PUSH2 0x100 EXP SWAP1 DIV PUSH4 0xFFFFFFFF AND PUSH4 0xFFFFFFFF AND DUP2 MSTORE PUSH1 0x20 ADD SWAP1 PUSH1 0x4 ADD SWAP1 PUSH1 0x20 DUP3 PUSH1 0x3 ADD DIV SWAP3 DUP4 ADD SWAP3 PUSH1 0x1 SUB DUP3 MUL SWAP2 POP DUP1 DUP5 GT PUSH2 0x17E1 JUMPI SWAP1 POP JUMPDEST POP POP POP POP POP DUP2 MSTORE POP POP DUP2 MSTORE PUSH1 0x20 ADD SWAP1 PUSH1 0x1 ADD SWAP1 PUSH2 0x175E JUMP JUMPDEST POP POP POP POP SWAP1 POP PUSH0 DUP2 MLOAD PUSH8 0xFFFFFFFFFFFFFFFF DUP2 GT ISZERO PUSH2 0x1857 JUMPI PUSH2 0x1857 PUSH2 0x332E JUMP JUMPDEST PUSH1 0x40 MLOAD SWAP1 DUP1 DUP3 MSTORE DUP1 PUSH1 0x20 MUL PUSH1 0x20 ADD DUP3 ADD PUSH1 0x40 MSTORE DUP1 ISZERO PUSH2 0x1890 JUMPI DUP2 PUSH1 0x20 ADD JUMPDEST PUSH2 0x187D PUSH2 0x2F2F JUMP JUMPDEST DUP2 MSTORE PUSH1 0x20 ADD SWAP1 PUSH1 0x1 SWAP1 SUB SWAP1 DUP2 PUSH2 0x1875 JUMPI SWAP1 POP JUMPDEST POP SWAP1 POP PUSH0 DUP1 JUMPDEST DUP4 MLOAD DUP2 LT ISZERO PUSH2 0x1A48 JUMPI PUSH0 DUP5 DUP3 DUP2 MLOAD DUP2 LT PUSH2 0x18B2 JUMPI PUSH2 0x18B2 PUSH2 0x35D3 JUMP JUMPDEST PUSH1 0x20 SWAP1 DUP2 MUL SWAP2 SWAP1 SWAP2 ADD DUP2 ADD MLOAD DUP1 MLOAD DUP2 DUP4 ADD MLOAD PUSH0 DUP3 DUP2 MSTORE PUSH1 0x8 SWAP1 SWAP5 MSTORE PUSH1 0x40 DUP5 KECCAK256 SWAP3 SWAP5 POP SWAP1 SWAP3 SWAP1 SWAP2 PUSH1 0x3 ADD PUSH2 0x18E6 PUSH1 0x1 DUP5 PUSH2 0x35C0 JUMP JUMPDEST DUP2 SLOAD DUP2 LT PUSH2 0x18F6 JUMPI PUSH2 0x18F6 PUSH2 0x35D3 JUMP JUMPDEST PUSH0 SWAP2 DUP3 MSTORE PUSH1 0x20 DUP3 KECCAK256 PUSH1 0x3 PUSH1 0x4 SWAP1 SWAP3 MUL ADD ADD SLOAD PUSH4 0xFFFFFFFF AND SWAP2 POP JUMPDEST DUP5 PUSH1 0x60 ADD MLOAD DUP2 LT ISZERO PUSH2 0x1A30 JUMPI DUP5 PUSH1 0x80 ADD MLOAD DUP2 DUP2 MLOAD DUP2 LT PUSH2 0x1933 JUMPI PUSH2 0x1933 PUSH2 0x35D3 JUMP JUMPDEST PUSH1 0x20 MUL PUSH1 0x20 ADD ADD MLOAD PUSH4 0xFFFFFFFF AND DUP3 PUSH4 0xFFFFFFFF AND SUB PUSH2 0x1A1E JUMPI PUSH1 0x40 DUP1 MLOAD PUSH1 0x1 DUP1 DUP3 MSTORE DUP2 DUP4 ADD SWAP1 SWAP3 MSTORE PUSH0 SWAP2 PUSH1 0x20 DUP1 DUP4 ADD SWAP1 DUP1 CALLDATASIZE DUP4 CALLDATACOPY ADD SWAP1 POP POP SWAP1 POP DUP3 DUP2 PUSH0 DUP2 MLOAD DUP2 LT PUSH2 0x1981 JUMPI PUSH2 0x1981 PUSH2 0x35D3 JUMP JUMPDEST PUSH1 0x20 MUL PUSH1 0x20 ADD ADD SWAP1 PUSH4 0xFFFFFFFF AND SWAP1 DUP2 PUSH4 0xFFFFFFFF AND DUP2 MSTORE POP POP PUSH1 0x40 MLOAD DUP1 PUSH1 0xA0 ADD PUSH1 0x40 MSTORE DUP1 DUP7 DUP2 MSTORE PUSH1 0x20 ADD DUP6 DUP2 MSTORE PUSH1 0x20 ADD DUP8 PUSH1 0x40 ADD MLOAD DUP2 MSTORE PUSH1 0x20 ADD PUSH1 0x1 DUP2 MSTORE PUSH1 0x20 ADD DUP3 DUP2 MSTORE POP DUP10 DUP10 DUP2 MLOAD DUP2 LT PUSH2 0x19D9 JUMPI PUSH2 0x19D9 PUSH2 0x35D3 JUMP JUMPDEST PUSH1 0x20 SWAP1 DUP2 MUL SWAP2 SWAP1 SWAP2 ADD DUP2 ADD SWAP2 SWAP1 SWAP2 MSTORE PUSH0 DUP7 DUP2 MSTORE PUSH1 0x8 SWAP1 SWAP2 MSTORE PUSH1 0x40 SWAP1 KECCAK256 SLOAD PUSH2 0x1A09 SWAP1 PUSH1 0x1 PUSH1 0x1 PUSH1 0x80 SHL SUB AND DUP13 PUSH2 0x35E7 JUMP JUMPDEST SWAP11 POP DUP8 PUSH2 0x1A15 DUP2 PUSH2 0x35FA JUMP JUMPDEST SWAP9 POP POP POP PUSH2 0x1A30 JUMP JUMPDEST DUP1 PUSH2 0x1A28 DUP2 PUSH2 0x35FA JUMP JUMPDEST SWAP2 POP POP PUSH2 0x1911 JUMP JUMPDEST POP POP POP POP POP DUP1 DUP1 PUSH2 0x1A40 SWAP1 PUSH2 0x35FA JUMP JUMPDEST SWAP2 POP POP PUSH2 0x1896 JUMP JUMPDEST POP DUP1 PUSH8 0xFFFFFFFFFFFFFFFF DUP2 GT ISZERO PUSH2 0x1A62 JUMPI PUSH2 0x1A62 PUSH2 0x332E JUMP JUMPDEST PUSH1 0x40 MLOAD SWAP1 DUP1 DUP3 MSTORE DUP1 PUSH1 0x20 MUL PUSH1 0x20 ADD DUP3 ADD PUSH1 0x40 MSTORE DUP1 ISZERO PUSH2 0x1A9B JUMPI DUP2 PUSH1 0x20 ADD JUMPDEST PUSH2 0x1A88 PUSH2 0x2F2F JUMP JUMPDEST DUP2 MSTORE PUSH1 0x20 ADD SWAP1 PUSH1 0x1 SWAP1 SUB SWAP1 DUP2 PUSH2 0x1A80 JUMPI SWAP1 POP JUMPDEST POP SWAP5 POP PUSH0 JUMPDEST DUP2 DUP2 LT ISZERO PUSH2 0x1AF2 JUMPI DUP3 DUP2 DUP2 MLOAD DUP2 LT PUSH2 0x1ABA JUMPI PUSH2 0x1ABA PUSH2 0x35D3 JUMP JUMPDEST PUSH1 0x20 MUL PUSH1 0x20 ADD ADD MLOAD DUP7 DUP3 DUP2 MLOAD DUP2 LT PUSH2 0x1AD4 JUMPI PUSH2 0x1AD4 PUSH2 0x35D3 JUMP JUMPDEST PUSH1 0x20 MUL PUSH1 0x20 ADD ADD DUP2 SWAP1 MSTORE POP DUP1 DUP1 PUSH2 0x1AEA SWAP1 PUSH2 0x35FA JUMP JUMPDEST SWAP2 POP POP PUSH2 0x1AA0 JUMP JUMPDEST POP POP POP POP SWAP2 POP SWAP2 JUMP JUMPDEST PUSH2 0x1B03 PUSH2 0x2CE2 JUMP JUMPDEST PUSH2 0x1B0C PUSH0 PUSH2 0x2D0E JUMP JUMPDEST JUMP JUMPDEST PUSH0 DUP2 SWAP1 SUB PUSH2 0x1B2F JUMPI PUSH1 0x40 MLOAD PUSH4 0x5E7719FF PUSH1 0xE0 SHL DUP2 MSTORE PUSH1 0x4 ADD PUSH1 0x40 MLOAD DUP1 SWAP2 SUB SWAP1 REVERT JUMPDEST PUSH0 DUP5 DUP2 MSTORE PUSH1 0x8 PUSH1 0x20 SWAP1 DUP2 MSTORE PUSH1 0x40 DUP1 DUP4 KECCAK256 DUP2 MLOAD PUSH1 0xC0 DUP2 ADD DUP4 MSTORE DUP2 SLOAD PUSH1 0x1 PUSH1 0x1 PUSH1 0x80 SHL SUB DUP1 DUP3 AND DUP4 MSTORE PUSH1 0x1 PUSH1 0x80 SHL SWAP2 DUP3 SWAP1 DIV DUP2 AND DUP4 DUP8 ADD MSTORE PUSH1 0x1 DUP5 ADD SLOAD DUP1 DUP3 AND DUP5 DUP8 ADD MSTORE SWAP2 SWAP1 SWAP2 DIV DUP2 AND PUSH1 0x60 DUP4 ADD MSTORE PUSH1 0x2 DUP4 ADD SLOAD AND PUSH1 0x80 DUP3 ADD MSTORE PUSH1 0x3 DUP3 ADD DUP1 SLOAD DUP5 MLOAD DUP2 DUP8 MUL DUP2 ADD DUP8 ADD SWAP1 SWAP6 MSTORE DUP1 DUP6 MSTORE SWAP2 SWAP5 SWAP3 SWAP4 PUSH1 0xA0 DUP7 ADD SWAP4 SWAP1 SWAP3 SWAP1 DUP8 SWAP1 DUP5 ADD JUMPDEST DUP3 DUP3 LT ISZERO PUSH2 0x1C35 JUMPI PUSH0 DUP5 DUP2 MSTORE PUSH1 0x20 SWAP1 DUP2 SWAP1 KECCAK256 PUSH1 0x40 DUP1 MLOAD PUSH1 0xC0 DUP2 ADD DUP3 MSTORE PUSH1 0x4 DUP7 MUL SWAP1 SWAP3 ADD DUP1 SLOAD PUSH1 0x1 PUSH1 0x1 PUSH1 0x80 SHL SUB DUP1 DUP3 AND DUP6 MSTORE PUSH1 0x1 PUSH1 0x80 SHL SWAP1 SWAP2 DIV DUP2 AND DUP5 DUP7 ADD MSTORE PUSH1 0x1 DUP1 DUP4 ADD SLOAD SWAP1 SWAP2 AND SWAP3 DUP5 ADD SWAP3 SWAP1 SWAP3 MSTORE PUSH1 0x2 DUP2 ADD SLOAD PUSH1 0x60 DUP5 ADD MSTORE PUSH1 0x3 ADD SLOAD PUSH4 0xFFFFFFFF DUP2 AND PUSH1 0x80 DUP5 ADD MSTORE PUSH1 0x1 PUSH1 0x20 SHL SWAP1 DIV PUSH1 0xFF AND ISZERO ISZERO PUSH1 0xA0 DUP4 ADD MSTORE SWAP1 DUP4 MSTORE SWAP1 SWAP3 ADD SWAP2 ADD PUSH2 0x1BAD JUMP JUMPDEST POP POP POP SWAP2 MSTORE POP POP PUSH1 0xA0 DUP2 ADD MLOAD SWAP1 SWAP2 POP PUSH0 SWAP1 PUSH2 0x1C51 PUSH1 0x1 DUP8 PUSH2 0x35C0 JUMP JUMPDEST DUP2 MLOAD DUP2 LT PUSH2 0x1C61 JUMPI PUSH2 0x1C61 PUSH2 0x35D3 JUMP JUMPDEST PUSH1 0x20 MUL PUSH1 0x20 ADD ADD MLOAD SWAP1 POP DUP1 PUSH0 ADD MLOAD PUSH1 0x1 PUSH1 0x1 PUSH1 0x80 SHL SUB AND TIMESTAMP LT ISZERO PUSH2 0x1C98 JUMPI PUSH1 0x40 MLOAD PUSH4 0x8970597 PUSH1 0xE2 SHL DUP2 MSTORE PUSH1 0x4 ADD PUSH1 0x40 MLOAD DUP1 SWAP2 SUB SWAP1 REVERT JUMPDEST DUP1 PUSH1 0x20 ADD MLOAD PUSH1 0x1 PUSH1 0x1 PUSH1 0x80 SHL SUB AND TIMESTAMP LT PUSH2 0x1CC5 JUMPI PUSH1 0x40 MLOAD PUSH4 0x6B5FD31B PUSH1 0xE0 SHL DUP2 MSTORE PUSH1 0x4 ADD PUSH1 0x40 MLOAD DUP1 SWAP2 SUB SWAP1 REVERT JUMPDEST PUSH1 0x40 DUP2 ADD MLOAD PUSH1 0x1 PUSH1 0x1 PUSH1 0x80 SHL SUB AND DUP4 GT ISZERO PUSH2 0x1CF3 JUMPI PUSH1 0x40 MLOAD PUSH4 0x7EA7FDB PUSH1 0xE2 SHL DUP2 MSTORE PUSH1 0x4 ADD PUSH1 0x40 MLOAD DUP1 SWAP2 SUB SWAP1 REVERT JUMPDEST PUSH0 JUMPDEST DUP4 DUP2 LT ISZERO PUSH2 0x1F6E JUMPI DUP5 DUP5 DUP3 DUP2 DUP2 LT PUSH2 0x1D0F JUMPI PUSH2 0x1D0F PUSH2 0x35D3 JUMP JUMPDEST SWAP1 POP PUSH1 0x20 MUL ADD PUSH1 0x20 DUP2 ADD SWAP1 PUSH2 0x1D24 SWAP2 SWAP1 PUSH2 0x3677 JUMP JUMPDEST PUSH4 0xFFFFFFFF AND ISZERO DUP1 PUSH2 0x1D6E JUMPI POP DUP3 PUSH1 0x20 ADD MLOAD PUSH1 0x1 PUSH1 0x1 PUSH1 0x80 SHL SUB AND DUP6 DUP6 DUP4 DUP2 DUP2 LT PUSH2 0x1D51 JUMPI PUSH2 0x1D51 PUSH2 0x35D3 JUMP JUMPDEST SWAP1 POP PUSH1 0x20 MUL ADD PUSH1 0x20 DUP2 ADD SWAP1 PUSH2 0x1D66 SWAP2 SWAP1 PUSH2 0x3677 JUMP JUMPDEST PUSH4 0xFFFFFFFF AND GT JUMPDEST ISZERO PUSH2 0x1DC1 JUMPI DUP5 DUP5 DUP3 DUP2 DUP2 LT PUSH2 0x1D85 JUMPI PUSH2 0x1D85 PUSH2 0x35D3 JUMP JUMPDEST SWAP1 POP PUSH1 0x20 MUL ADD PUSH1 0x20 DUP2 ADD SWAP1 PUSH2 0x1D9A SWAP2 SWAP1 PUSH2 0x3677 JUMP JUMPDEST PUSH1 0x40 MLOAD PUSH4 0x7C680159 PUSH1 0xE1 SHL DUP2 MSTORE PUSH4 0xFFFFFFFF SWAP1 SWAP2 AND PUSH1 0x4 DUP3 ADD MSTORE PUSH1 0x24 ADD JUMPDEST PUSH1 0x40 MLOAD DUP1 SWAP2 SUB SWAP1 REVERT JUMPDEST PUSH0 DUP8 DUP2 MSTORE PUSH1 0x4 PUSH1 0x20 SWAP1 DUP2 MSTORE PUSH1 0x40 DUP1 DUP4 KECCAK256 DUP10 DUP5 MSTORE SWAP1 SWAP2 MSTORE DUP2 KECCAK256 DUP2 DUP8 DUP8 DUP6 DUP2 DUP2 LT PUSH2 0x1DEC JUMPI PUSH2 0x1DEC PUSH2 0x35D3 JUMP JUMPDEST SWAP1 POP PUSH1 0x20 MUL ADD PUSH1 0x20 DUP2 ADD SWAP1 PUSH2 0x1E01 SWAP2 SWAP1 PUSH2 0x3677 JUMP JUMPDEST PUSH4 0xFFFFFFFF AND DUP2 MSTORE PUSH1 0x20 DUP2 ADD SWAP2 SWAP1 SWAP2 MSTORE PUSH1 0x40 ADD PUSH0 KECCAK256 SLOAD PUSH1 0x1 PUSH1 0x1 PUSH1 0xA0 SHL SUB AND EQ PUSH2 0x1E6E JUMPI DUP5 DUP5 DUP3 DUP2 DUP2 LT PUSH2 0x1E37 JUMPI PUSH2 0x1E37 PUSH2 0x35D3 JUMP JUMPDEST SWAP1 POP PUSH1 0x20 MUL ADD PUSH1 0x20 DUP2 ADD SWAP1 PUSH2 0x1E4C SWAP2 SWAP1 PUSH2 0x3677 JUMP JUMPDEST PUSH1 0x40 MLOAD PUSH4 0x418055D3 PUSH1 0xE1 SHL DUP2 MSTORE PUSH4 0xFFFFFFFF SWAP1 SWAP2 AND PUSH1 0x4 DUP3 ADD MSTORE PUSH1 0x24 ADD PUSH2 0x1DB8 JUMP JUMPDEST PUSH0 DUP8 DUP2 MSTORE PUSH1 0x4 PUSH1 0x20 SWAP1 DUP2 MSTORE PUSH1 0x40 DUP1 DUP4 KECCAK256 DUP10 DUP5 MSTORE SWAP1 SWAP2 MSTORE DUP2 KECCAK256 CALLER SWAP2 DUP8 DUP8 DUP6 DUP2 DUP2 LT PUSH2 0x1E9A JUMPI PUSH2 0x1E9A PUSH2 0x35D3 JUMP JUMPDEST SWAP1 POP PUSH1 0x20 MUL ADD PUSH1 0x20 DUP2 ADD SWAP1 PUSH2 0x1EAF SWAP2 SWAP1 PUSH2 0x3677 JUMP JUMPDEST PUSH4 0xFFFFFFFF AND DUP2 MSTORE PUSH1 0x20 DUP1 DUP3 ADD SWAP3 SWAP1 SWAP3 MSTORE PUSH1 0x40 SWAP1 DUP2 ADD PUSH0 SWAP1 DUP2 KECCAK256 DUP1 SLOAD PUSH1 0x1 PUSH1 0x1 PUSH1 0xA0 SHL SUB NOT AND PUSH1 0x1 PUSH1 0x1 PUSH1 0xA0 SHL SUB SWAP6 SWAP1 SWAP6 AND SWAP5 SWAP1 SWAP5 OR SWAP1 SWAP4 SSTORE DUP10 DUP4 MSTORE PUSH1 0x6 DUP3 MSTORE DUP1 DUP4 KECCAK256 DUP10 DUP5 MSTORE SWAP1 SWAP2 MSTORE SWAP1 KECCAK256 DUP6 DUP6 DUP4 DUP2 DUP2 LT PUSH2 0x1F0C JUMPI PUSH2 0x1F0C PUSH2 0x35D3 JUMP JUMPDEST SWAP1 POP PUSH1 0x20 MUL ADD PUSH1 0x20 DUP2 ADD SWAP1 PUSH2 0x1F21 SWAP2 SWAP1 PUSH2 0x3677 JUMP JUMPDEST DUP2 SLOAD PUSH1 0x1 DUP2 ADD DUP4 SSTORE PUSH0 SWAP3 DUP4 MSTORE PUSH1 0x20 SWAP1 SWAP3 KECCAK256 PUSH1 0x8 DUP4 DIV ADD DUP1 SLOAD PUSH1 0x7 SWAP1 SWAP4 AND PUSH1 0x4 MUL PUSH2 0x100 EXP PUSH4 0xFFFFFFFF DUP2 DUP2 MUL NOT SWAP1 SWAP5 AND SWAP3 SWAP1 SWAP4 AND SWAP3 SWAP1 SWAP3 MUL OR SWAP1 SSTORE DUP1 PUSH2 0x1F66 DUP2 PUSH2 0x35FA JUMP JUMPDEST SWAP2 POP POP PUSH2 0x1CF5 JUMP JUMPDEST POP PUSH1 0x5 PUSH0 CALLER PUSH1 0x1 PUSH1 0x1 PUSH1 0xA0 SHL SUB AND PUSH1 0x1 PUSH1 0x1 PUSH1 0xA0 SHL SUB AND DUP2 MSTORE PUSH1 0x20 ADD SWAP1 DUP2 MSTORE PUSH1 0x20 ADD PUSH0 KECCAK256 PUSH1 0x40 MLOAD DUP1 PUSH1 0xA0 ADD PUSH1 0x40 MSTORE DUP1 DUP9 DUP2 MSTORE PUSH1 0x20 ADD DUP8 DUP2 MSTORE PUSH1 0x20 ADD TIMESTAMP DUP2 MSTORE PUSH1 0x20 ADD DUP7 DUP7 SWAP1 POP DUP2 MSTORE PUSH1 0x20 ADD DUP7 DUP7 DUP1 DUP1 PUSH1 0x20 MUL PUSH1 0x20 ADD PUSH1 0x40 MLOAD SWAP1 DUP2 ADD PUSH1 0x40 MSTORE DUP1 SWAP4 SWAP3 SWAP2 SWAP1 DUP2 DUP2 MSTORE PUSH1 0x20 ADD DUP4 DUP4 PUSH1 0x20 MUL DUP1 DUP3 DUP5 CALLDATACOPY PUSH0 SWAP3 ADD DUP3 SWAP1 MSTORE POP SWAP4 SWAP1 SWAP5 MSTORE POP POP DUP4 SLOAD PUSH1 0x1 DUP2 DUP2 ADD DUP7 SSTORE SWAP5 DUP3 MSTORE PUSH1 0x20 SWAP2 DUP3 SWAP1 KECCAK256 DUP5 MLOAD PUSH1 0x5 SWAP1 SWAP3 MUL ADD SWAP1 DUP2 SSTORE DUP2 DUP5 ADD MLOAD SWAP5 DUP2 ADD SWAP5 SWAP1 SWAP5 SSTORE PUSH1 0x40 DUP4 ADD MLOAD PUSH1 0x2 DUP6 ADD SSTORE PUSH1 0x60 DUP4 ADD MLOAD PUSH1 0x3 DUP6 ADD SSTORE PUSH1 0x80 DUP4 ADD MLOAD DUP1 MLOAD SWAP4 SWAP5 SWAP4 PUSH2 0x2046 SWAP4 POP PUSH1 0x4 DUP6 ADD SWAP3 SWAP2 SWAP1 SWAP2 ADD SWAP1 PUSH2 0x2F5D JUMP JUMPDEST POP POP POP PUSH1 0x40 DUP3 ADD MLOAD PUSH0 SWAP1 PUSH2 0x205A SWAP1 DUP6 PUSH2 0x3690 JUMP JUMPDEST SWAP1 POP PUSH2 0x209A PUSH1 0x1 PUSH1 0x1 PUSH1 0xA0 SHL SUB PUSH32 0x0 AND CALLER ADDRESS PUSH1 0x1 PUSH1 0x1 PUSH1 0x80 SHL SUB DUP6 AND PUSH2 0x2D5D JUMP JUMPDEST PUSH1 0x40 MLOAD PUSH4 0x4A9FEFC7 PUSH1 0xE0 SHL DUP2 MSTORE CALLER PUSH1 0x4 DUP3 ADD MSTORE PUSH0 SWAP1 PUSH32 0x0 PUSH1 0x1 PUSH1 0x1 PUSH1 0xA0 SHL SUB AND SWAP1 PUSH4 0x4A9FEFC7 SWAP1 PUSH1 0x24 ADD PUSH1 0x20 PUSH1 0x40 MLOAD DUP1 DUP4 SUB DUP2 DUP7 GAS STATICCALL ISZERO DUP1 ISZERO PUSH2 0x20FE JUMPI RETURNDATASIZE PUSH0 DUP1 RETURNDATACOPY RETURNDATASIZE PUSH0 REVERT JUMPDEST POP POP POP POP PUSH1 0x40 MLOAD RETURNDATASIZE PUSH1 0x1F NOT PUSH1 0x1F DUP3 ADD AND DUP3 ADD DUP1 PUSH1 0x40 MSTORE POP DUP2 ADD SWAP1 PUSH2 0x2122 SWAP2 SWAP1 PUSH2 0x36BB JUMP JUMPDEST SWAP1 POP PUSH1 0x1 PUSH1 0x1 PUSH1 0xA0 SHL SUB DUP2 AND ISZERO PUSH2 0x21CC JUMPI PUSH0 DUP1 SLOAD PUSH3 0xF4240 SWAP1 PUSH2 0x2151 SWAP1 PUSH1 0x1 PUSH1 0xA0 SHL SWAP1 DIV PUSH3 0xFFFFFF AND DUP6 PUSH2 0x3690 JUMP JUMPDEST PUSH2 0x215B SWAP2 SWAP1 PUSH2 0x36D6 JUMP JUMPDEST PUSH1 0x1 PUSH1 0x1 PUSH1 0xA0 SHL SUB DUP4 AND PUSH0 SWAP1 DUP2 MSTORE PUSH1 0x3 PUSH1 0x20 MSTORE PUSH1 0x40 DUP2 KECCAK256 DUP1 SLOAD SWAP3 SWAP4 POP PUSH1 0x1 PUSH1 0x1 PUSH1 0x80 SHL SUB DUP5 AND SWAP3 SWAP1 SWAP2 SWAP1 PUSH2 0x2190 SWAP1 DUP5 SWAP1 PUSH2 0x35E7 JUMP JUMPDEST SWAP1 SWAP2 SSTORE POP POP PUSH1 0x1 PUSH1 0x1 PUSH1 0xA0 SHL SUB DUP3 AND PUSH0 SWAP1 DUP2 MSTORE PUSH1 0x2 PUSH1 0x20 MSTORE PUSH1 0x40 DUP2 KECCAK256 DUP1 SLOAD PUSH1 0x1 PUSH1 0x1 PUSH1 0x80 SHL SUB DUP5 AND SWAP3 SWAP1 PUSH2 0x21C5 SWAP1 DUP5 SWAP1 PUSH2 0x35E7 JUMP JUMPDEST SWAP1 SWAP2 SSTORE POP POP POP JUMPDEST PUSH1 0x40 DUP4 ADD DUP1 MLOAD DUP7 SWAP2 SWAP1 PUSH2 0x21E0 SWAP1 DUP4 SWAP1 PUSH2 0x36FB JUMP JUMPDEST PUSH1 0x1 PUSH1 0x1 PUSH1 0x80 SHL SUB AND SWAP1 MSTORE POP PUSH1 0x40 MLOAD CALLER SWAP1 PUSH32 0xF0523DE2F627F3C0BEF4480AE1FDC6922DE2AFF9254C3F2DF3FCAF121D5470BB SWAP1 PUSH2 0x2224 SWAP1 DUP12 SWAP1 DUP12 SWAP1 DUP12 SWAP1 DUP12 SWAP1 PUSH2 0x371B JUMP JUMPDEST PUSH1 0x40 MLOAD DUP1 SWAP2 SUB SWAP1 LOG2 DUP3 PUSH1 0x40 ADD MLOAD PUSH1 0x1 PUSH1 0x1 PUSH1 0x80 SHL SUB AND PUSH0 SUB PUSH2 0x2500 JUMPI PUSH1 0x1 SLOAD PUSH1 0x40 DUP1 MLOAD PUSH4 0xE0C86289 PUSH1 0xE0 SHL DUP2 MSTORE SWAP1 MLOAD PUSH0 SWAP3 PUSH1 0x1 PUSH1 0x1 PUSH1 0xA0 SHL SUB AND SWAP2 PUSH4 0xE0C86289 SWAP2 PUSH1 0x4 DUP1 DUP4 ADD SWAP3 PUSH1 0x20 SWAP3 SWAP2 SWAP1 DUP3 SWAP1 SUB ADD DUP2 DUP8 DUP8 GAS CALL ISZERO DUP1 ISZERO PUSH2 0x2288 JUMPI RETURNDATASIZE PUSH0 DUP1 RETURNDATACOPY RETURNDATASIZE PUSH0 REVERT JUMPDEST POP POP POP POP PUSH1 0x40 MLOAD RETURNDATASIZE PUSH1 0x1F NOT PUSH1 0x1F DUP3 ADD AND DUP3 ADD DUP1 PUSH1 0x40 MSTORE POP DUP2 ADD SWAP1 PUSH2 0x22AC SWAP2 SWAP1 PUSH2 0x3612 JUMP JUMPDEST PUSH1 0x40 DUP1 MLOAD DUP1 DUP3 ADD DUP3 MSTORE DUP12 DUP2 MSTORE PUSH1 0x20 DUP1 DUP3 ADD DUP13 DUP2 MSTORE PUSH0 DUP6 DUP2 MSTORE PUSH1 0x7 DUP4 MSTORE SWAP4 DUP5 KECCAK256 SWAP3 MLOAD DUP4 SSTORE MLOAD PUSH1 0x1 SWAP1 SWAP3 ADD SWAP2 SWAP1 SWAP2 SSTORE PUSH1 0x60 DUP8 ADD DUP4 SWAP1 MSTORE TIMESTAMP PUSH1 0x1 PUSH1 0x1 PUSH1 0x80 SHL SUB DUP2 AND SWAP2 DUP9 ADD SWAP2 SWAP1 SWAP2 MSTORE PUSH1 0x80 DUP9 ADD MLOAD SWAP3 SWAP4 POP SWAP1 SWAP2 PUSH2 0x2305 SWAP2 PUSH2 0x3629 JUMP JUMPDEST SWAP1 POP PUSH0 DUP7 PUSH1 0x60 ADD MLOAD DUP3 PUSH2 0x2318 SWAP2 SWAP1 PUSH2 0x3629 JUMP JUMPDEST SWAP1 POP PUSH0 PUSH1 0x40 MLOAD DUP1 PUSH1 0xC0 ADD PUSH1 0x40 MSTORE DUP1 DUP5 PUSH1 0x1 PUSH1 0x1 PUSH1 0x80 SHL SUB AND DUP2 MSTORE PUSH1 0x20 ADD DUP4 PUSH1 0x1 PUSH1 0x1 PUSH1 0x80 SHL SUB AND DUP2 MSTORE PUSH1 0x20 ADD DUP10 PUSH1 0x20 ADD MLOAD PUSH1 0x1 PUSH1 0x1 PUSH1 0x80 SHL SUB AND DUP2 MSTORE PUSH1 0x20 ADD PUSH0 DUP2 MSTORE PUSH1 0x20 ADD PUSH0 PUSH4 0xFFFFFFFF AND DUP2 MSTORE PUSH1 0x20 ADD PUSH0 ISZERO ISZERO DUP2 MSTORE POP SWAP1 POP PUSH1 0x8 PUSH0 DUP14 DUP2 MSTORE PUSH1 0x20 ADD SWAP1 DUP2 MSTORE PUSH1 0x20 ADD PUSH0 KECCAK256 PUSH1 0x3 ADD DUP2 SWAP1 DUP1 PUSH1 0x1 DUP2 SLOAD ADD DUP1 DUP3 SSTORE DUP1 SWAP2 POP POP PUSH1 0x1 SWAP1 SUB SWAP1 PUSH0 MSTORE PUSH1 0x20 PUSH0 KECCAK256 SWAP1 PUSH1 0x4 MUL ADD PUSH0 SWAP1 SWAP2 SWAP1 SWAP2 SWAP1 SWAP2 POP PUSH0 DUP3 ADD MLOAD DUP2 PUSH0 ADD PUSH0 PUSH2 0x100 EXP DUP2 SLOAD DUP2 PUSH1 0x1 PUSH1 0x1 PUSH1 0x80 SHL SUB MUL NOT AND SWAP1 DUP4 PUSH1 0x1 PUSH1 0x1 PUSH1 0x80 SHL SUB AND MUL OR SWAP1 SSTORE POP PUSH1 0x20 DUP3 ADD MLOAD DUP2 PUSH0 ADD PUSH1 0x10 PUSH2 0x100 EXP DUP2 SLOAD DUP2 PUSH1 0x1 PUSH1 0x1 PUSH1 0x80 SHL SUB MUL NOT AND SWAP1 DUP4 PUSH1 0x1 PUSH1 0x1 PUSH1 0x80 SHL SUB AND MUL OR SWAP1 SSTORE POP PUSH1 0x40 DUP3 ADD MLOAD DUP2 PUSH1 0x1 ADD PUSH0 PUSH2 0x100 EXP DUP2 SLOAD DUP2 PUSH1 0x1 PUSH1 0x1 PUSH1 0x80 SHL SUB MUL NOT AND SWAP1 DUP4 PUSH1 0x1 PUSH1 0x1 PUSH1 0x80 SHL SUB AND MUL OR SWAP1 SSTORE POP PUSH1 0x60 DUP3 ADD MLOAD DUP2 PUSH1 0x2 ADD SSTORE PUSH1 0x80 DUP3 ADD MLOAD DUP2 PUSH1 0x3 ADD PUSH0 PUSH2 0x100 EXP DUP2 SLOAD DUP2 PUSH4 0xFFFFFFFF MUL NOT AND SWAP1 DUP4 PUSH4 0xFFFFFFFF AND MUL OR SWAP1 SSTORE POP PUSH1 0xA0 DUP3 ADD MLOAD DUP2 PUSH1 0x3 ADD PUSH1 0x4 PUSH2 0x100 EXP DUP2 SLOAD DUP2 PUSH1 0xFF MUL NOT AND SWAP1 DUP4 ISZERO ISZERO MUL OR SWAP1 SSTORE POP POP POP PUSH0 PUSH1 0x8 PUSH0 DUP15 DUP2 MSTORE PUSH1 0x20 ADD SWAP1 DUP2 MSTORE PUSH1 0x20 ADD PUSH0 KECCAK256 PUSH1 0x3 ADD DUP1 SLOAD SWAP1 POP SWAP1 POP PUSH32 0x9B4E1F1B6DF74EFF26420E77CE7891D410B236932A083B7C18D599FBD654A8C7 DUP14 DUP3 DUP7 DUP7 PUSH1 0x40 MLOAD PUSH2 0x24F2 SWAP5 SWAP4 SWAP3 SWAP2 SWAP1 SWAP4 DUP5 MSTORE PUSH1 0x20 DUP5 ADD SWAP3 SWAP1 SWAP3 MSTORE PUSH1 0x1 PUSH1 0x1 PUSH1 0x80 SHL SUB SWAP1 DUP2 AND PUSH1 0x40 DUP5 ADD MSTORE AND PUSH1 0x60 DUP3 ADD MSTORE PUSH1 0x80 ADD SWAP1 JUMP JUMPDEST PUSH1 0x40 MLOAD DUP1 SWAP2 SUB SWAP1 LOG1 POP POP POP POP POP JUMPDEST PUSH0 DUP9 DUP2 MSTORE PUSH1 0x8 PUSH1 0x20 MSTORE PUSH1 0x40 SWAP1 KECCAK256 DUP4 SWAP1 PUSH1 0x3 ADD PUSH2 0x251D PUSH1 0x1 DUP11 PUSH2 0x35C0 JUMP JUMPDEST DUP2 SLOAD DUP2 LT PUSH2 0x252D JUMPI PUSH2 0x252D PUSH2 0x35D3 JUMP JUMPDEST PUSH0 SWAP2 DUP3 MSTORE PUSH1 0x20 SWAP2 DUP3 SWAP1 KECCAK256 DUP4 MLOAD SWAP3 DUP5 ADD MLOAD PUSH1 0x1 PUSH1 0x1 PUSH1 0x80 SHL SUB SWAP4 DUP5 AND PUSH1 0x1 PUSH1 0x80 SHL SWAP2 DUP6 AND SWAP2 SWAP1 SWAP2 MUL OR PUSH1 0x4 SWAP3 SWAP1 SWAP3 MUL ADD SWAP1 DUP2 SSTORE PUSH1 0x40 DUP4 ADD MLOAD PUSH1 0x1 DUP3 ADD DUP1 SLOAD PUSH1 0x1 PUSH1 0x1 PUSH1 0x80 SHL SUB NOT AND SWAP2 SWAP1 SWAP4 AND OR SWAP1 SWAP2 SSTORE PUSH1 0x60 DUP3 ADD MLOAD PUSH1 0x2 DUP3 ADD SSTORE PUSH1 0x80 DUP3 ADD MLOAD PUSH1 0x3 SWAP1 SWAP2 ADD DUP1 SLOAD PUSH1 0xA0 SWAP1 SWAP4 ADD MLOAD PUSH4 0xFFFFFFFF SWAP1 SWAP3 AND PUSH5 0xFFFFFFFFFF NOT SWAP1 SWAP4 AND SWAP3 SWAP1 SWAP3 OR PUSH1 0x1 PUSH1 0x20 SHL SWAP2 ISZERO ISZERO SWAP2 SWAP1 SWAP2 MUL OR SWAP1 SSTORE POP POP POP POP POP POP POP POP JUMP JUMPDEST PUSH0 PUSH2 0x25D0 PUSH2 0x2CE2 JUMP JUMPDEST DUP7 PUSH1 0xFF AND PUSH0 SUB PUSH2 0x25F3 JUMPI PUSH1 0x40 MLOAD PUSH4 0xBB90937D PUSH1 0xE0 SHL DUP2 MSTORE PUSH1 0x4 ADD PUSH1 0x40 MLOAD DUP1 SWAP2 SUB SWAP1 REVERT JUMPDEST DUP6 PUSH1 0x1 PUSH1 0x1 PUSH1 0x80 SHL SUB AND PUSH0 SUB PUSH2 0x261C JUMPI PUSH1 0x40 MLOAD PUSH4 0x7EAC88D9 PUSH1 0xE0 SHL DUP2 MSTORE PUSH1 0x4 ADD PUSH1 0x40 MLOAD DUP1 SWAP2 SUB SWAP1 REVERT JUMPDEST DUP4 PUSH1 0x1 PUSH1 0x1 PUSH1 0x80 SHL SUB AND PUSH0 SUB PUSH2 0x2645 JUMPI PUSH1 0x40 MLOAD PUSH4 0x6F66257 PUSH1 0xE0 SHL DUP2 MSTORE PUSH1 0x4 ADD PUSH1 0x40 MLOAD DUP1 SWAP2 SUB SWAP1 REVERT JUMPDEST TIMESTAMP DUP3 PUSH1 0x1 PUSH1 0x1 PUSH1 0x80 SHL SUB AND LT ISZERO PUSH2 0x266F JUMPI PUSH1 0x40 MLOAD PUSH4 0x2CA4094F PUSH1 0xE2 SHL DUP2 MSTORE PUSH1 0x4 ADD PUSH1 0x40 MLOAD DUP1 SWAP2 SUB SWAP1 REVERT JUMPDEST PUSH0 PUSH2 0x267B DUP9 PUSH1 0xA PUSH2 0x3854 JUMP JUMPDEST PUSH1 0x40 DUP1 MLOAD PUSH1 0x1 PUSH1 0x1 PUSH1 0x80 SHL SUB DUP1 DUP12 AND PUSH1 0x20 DUP4 ADD MSTORE DUP1 DUP5 AND SWAP3 DUP3 ADD SWAP3 SWAP1 SWAP3 MSTORE DUP2 DUP10 AND PUSH1 0x60 DUP3 ADD MSTORE DUP2 DUP9 AND PUSH1 0x80 DUP3 ADD MSTORE SWAP1 DUP7 AND PUSH1 0xA0 DUP3 ADD MSTORE SWAP1 SWAP2 POP PUSH1 0xC0 ADD PUSH1 0x40 DUP1 MLOAD PUSH1 0x1F NOT DUP2 DUP5 SUB ADD DUP2 MSTORE SWAP2 DUP2 MSTORE DUP2 MLOAD PUSH1 0x20 SWAP3 DUP4 ADD KECCAK256 PUSH0 DUP2 DUP2 MSTORE PUSH1 0x8 SWAP1 SWAP4 MSTORE SWAP2 KECCAK256 SLOAD SWAP1 SWAP3 POP PUSH1 0x1 PUSH1 0x1 PUSH1 0x80 SHL SUB AND ISZERO PUSH2 0x2705 JUMPI PUSH1 0x40 MLOAD PUSH4 0x7A471E13 PUSH1 0xE1 SHL DUP2 MSTORE PUSH1 0x4 ADD PUSH1 0x40 MLOAD DUP1 SWAP2 SUB SWAP1 REVERT JUMPDEST PUSH0 DUP3 DUP2 MSTORE PUSH1 0x8 PUSH1 0x20 SWAP1 DUP2 MSTORE PUSH1 0x40 DUP1 DUP4 KECCAK256 PUSH1 0x1 PUSH1 0x1 PUSH1 0x80 SHL SUB DUP6 DUP2 AND PUSH1 0x1 PUSH1 0x80 SHL SWAP1 DUP2 MUL DUP3 DUP15 AND OR DUP4 SSTORE DUP11 DUP3 AND MUL DUP12 DUP3 AND OR PUSH1 0x1 DUP4 ADD SSTORE PUSH1 0x2 SWAP1 SWAP2 ADD DUP1 SLOAD DUP10 DUP4 AND PUSH1 0x1 PUSH1 0x1 PUSH1 0x80 SHL SUB NOT SWAP2 SWAP1 SWAP2 AND OR SWAP1 SSTORE DUP2 MLOAD PUSH1 0xC0 DUP2 ADD SWAP1 SWAP3 MSTORE DUP7 AND DUP2 MSTORE SWAP1 DUP2 ADD PUSH2 0x276F DUP9 DUP8 PUSH2 0x3629 JUMP JUMPDEST PUSH1 0x1 PUSH1 0x1 PUSH1 0x80 SHL SUB SWAP1 DUP2 AND DUP3 MSTORE DUP5 DUP2 AND PUSH1 0x20 DUP1 DUP5 ADD SWAP2 SWAP1 SWAP2 MSTORE PUSH0 PUSH1 0x40 DUP1 DUP6 ADD DUP3 SWAP1 MSTORE PUSH1 0x60 DUP1 DUP7 ADD DUP4 SWAP1 MSTORE PUSH1 0x80 SWAP6 DUP7 ADD DUP4 SWAP1 MSTORE DUP10 DUP4 MSTORE PUSH1 0x8 DUP5 MSTORE DUP2 DUP4 KECCAK256 PUSH1 0x3 SWAP1 DUP2 ADD DUP1 SLOAD PUSH1 0x1 DUP2 DUP2 ADD DUP4 SSTORE SWAP2 DUP7 MSTORE DUP7 DUP7 KECCAK256 DUP11 MLOAD SWAP8 DUP12 ADD MLOAD DUP10 AND PUSH1 0x1 PUSH1 0x80 SHL MUL SWAP8 DUP10 AND SWAP8 SWAP1 SWAP8 OR PUSH1 0x4 SWAP1 SWAP2 MUL SWAP1 SWAP7 ADD SWAP6 DUP7 SSTORE DUP9 DUP5 ADD MLOAD DUP7 DUP3 ADD DUP1 SLOAD SWAP2 SWAP1 SWAP9 AND PUSH1 0x1 PUSH1 0x1 PUSH1 0x80 SHL SUB NOT SWAP2 SWAP1 SWAP2 AND OR SWAP1 SWAP7 SSTORE SWAP1 DUP8 ADD MLOAD PUSH1 0x2 DUP6 ADD SSTORE SWAP5 DUP7 ADD MLOAD SWAP3 SWAP1 SWAP5 ADD DUP1 SLOAD PUSH1 0xA0 DUP8 ADD MLOAD ISZERO ISZERO PUSH1 0x1 PUSH1 0x20 SHL MUL PUSH5 0xFFFFFFFFFF NOT SWAP1 SWAP2 AND PUSH4 0xFFFFFFFF SWAP5 SWAP1 SWAP5 AND SWAP4 SWAP1 SWAP4 OR SWAP3 SWAP1 SWAP3 OR SWAP1 SWAP2 SSTORE PUSH1 0x9 DUP1 SLOAD SWAP3 DUP4 ADD DUP2 SSTORE SWAP1 MSTORE PUSH32 0x6E1540171B6C0C960B71A7020D9F60077F6AF931A8BBF590DA0223DACF75C7AF ADD DUP6 SWAP1 SSTORE MLOAD SWAP1 SWAP2 POP PUSH32 0x3C2758C266CEC0BFBF96542A5EA303429FAEC587FB478C002BC94C4742A837F2 SWAP1 PUSH2 0x28A6 SWAP1 DUP11 SWAP1 DUP6 SWAP1 DUP12 SWAP1 DUP12 SWAP1 DUP12 SWAP1 DUP11 SWAP1 PUSH2 0x3054 JUMP JUMPDEST PUSH1 0x40 MLOAD DUP1 SWAP2 SUB SWAP1 LOG1 PUSH1 0x20 DUP2 DUP2 ADD MLOAD PUSH1 0x40 DUP1 MLOAD DUP7 DUP2 MSTORE PUSH1 0x1 SWAP4 DUP2 ADD SWAP4 SWAP1 SWAP4 MSTORE PUSH1 0x1 PUSH1 0x1 PUSH1 0x80 SHL SUB DUP8 DUP2 AND DUP5 DUP4 ADD MSTORE SWAP1 SWAP2 AND PUSH1 0x60 DUP4 ADD MSTORE MLOAD PUSH32 0x9B4E1F1B6DF74EFF26420E77CE7891D410B236932A083B7C18D599FBD654A8C7 SWAP2 DUP2 SWAP1 SUB PUSH1 0x80 ADD SWAP1 LOG1 POP POP SWAP7 SWAP6 POP POP POP POP POP POP JUMP JUMPDEST PUSH2 0x291A PUSH2 0x2CE2 JUMP JUMPDEST PUSH3 0xF4240 PUSH3 0xFFFFFF DUP3 AND LT PUSH2 0x2942 JUMPI PUSH1 0x40 MLOAD PUSH4 0x8F02DC7 PUSH1 0xE2 SHL DUP2 MSTORE PUSH1 0x4 ADD PUSH1 0x40 MLOAD DUP1 SWAP2 SUB SWAP1 REVERT JUMPDEST PUSH0 SLOAD PUSH1 0x40 DUP1 MLOAD PUSH3 0xFFFFFF PUSH1 0x1 PUSH1 0xA0 SHL SWAP1 SWAP4 DIV DUP4 AND DUP2 MSTORE SWAP2 DUP4 AND PUSH1 0x20 DUP4 ADD MSTORE PUSH32 0xA81633B0C4A1AD81D8CA7C4930A87349BCAD69F6B8B39C5E91B64C0B674AAF85 SWAP2 ADD PUSH1 0x40 MLOAD DUP1 SWAP2 SUB SWAP1 LOG1 PUSH0 DUP1 SLOAD PUSH3 0xFFFFFF SWAP1 SWAP3 AND PUSH1 0x1 PUSH1 0xA0 SHL MUL PUSH3 0xFFFFFF PUSH1 0xA0 SHL NOT SWAP1 SWAP3 AND SWAP2 SWAP1 SWAP2 OR SWAP1 SSTORE JUMP JUMPDEST PUSH1 0x1 PUSH1 0x1 PUSH1 0xA0 SHL SUB DUP2 AND PUSH0 SWAP1 DUP2 MSTORE PUSH1 0x5 PUSH1 0x20 SWAP1 DUP2 MSTORE PUSH1 0x40 DUP1 DUP4 KECCAK256 DUP1 SLOAD DUP3 MLOAD DUP2 DUP6 MUL DUP2 ADD DUP6 ADD SWAP1 SWAP4 MSTORE DUP1 DUP4 MSTORE PUSH1 0x60 SWAP5 SWAP3 SWAP4 SWAP2 SWAP3 SWAP1 SWAP2 DUP5 ADD JUMPDEST DUP3 DUP3 LT ISZERO PUSH2 0x2ABD JUMPI DUP4 DUP3 SWAP1 PUSH0 MSTORE PUSH1 0x20 PUSH0 KECCAK256 SWAP1 PUSH1 0x5 MUL ADD PUSH1 0x40 MLOAD DUP1 PUSH1 0xA0 ADD PUSH1 0x40 MSTORE SWAP1 DUP2 PUSH0 DUP3 ADD SLOAD DUP2 MSTORE PUSH1 0x20 ADD PUSH1 0x1 DUP3 ADD SLOAD DUP2 MSTORE PUSH1 0x20 ADD PUSH1 0x2 DUP3 ADD SLOAD DUP2 MSTORE PUSH1 0x20 ADD PUSH1 0x3 DUP3 ADD SLOAD DUP2 MSTORE PUSH1 0x20 ADD PUSH1 0x4 DUP3 ADD DUP1 SLOAD DUP1 PUSH1 0x20 MUL PUSH1 0x20 ADD PUSH1 0x40 MLOAD SWAP1 DUP2 ADD PUSH1 0x40 MSTORE DUP1 SWAP3 SWAP2 SWAP1 DUP2 DUP2 MSTORE PUSH1 0x20 ADD DUP3 DUP1 SLOAD DUP1 ISZERO PUSH2 0x2AA5 JUMPI PUSH1 0x20 MUL DUP3 ADD SWAP2 SWAP1 PUSH0 MSTORE PUSH1 0x20 PUSH0 KECCAK256 SWAP1 PUSH0 SWAP1 JUMPDEST DUP3 DUP3 SWAP1 SLOAD SWAP1 PUSH2 0x100 EXP SWAP1 DIV PUSH4 0xFFFFFFFF AND PUSH4 0xFFFFFFFF AND DUP2 MSTORE PUSH1 0x20 ADD SWAP1 PUSH1 0x4 ADD SWAP1 PUSH1 0x20 DUP3 PUSH1 0x3 ADD DIV SWAP3 DUP4 ADD SWAP3 PUSH1 0x1 SUB DUP3 MUL SWAP2 POP DUP1 DUP5 GT PUSH2 0x2A68 JUMPI SWAP1 POP JUMPDEST POP POP POP POP POP DUP2 MSTORE POP POP DUP2 MSTORE PUSH1 0x20 ADD SWAP1 PUSH1 0x1 ADD SWAP1 PUSH2 0x29E5 JUMP JUMPDEST POP POP POP POP SWAP1 POP SWAP2 SWAP1 POP JUMP JUMPDEST PUSH2 0x2AD0 PUSH2 0x2CE2 JUMP JUMPDEST PUSH1 0x1 DUP1 SLOAD PUSH1 0x1 PUSH1 0x1 PUSH1 0xA0 SHL SUB NOT AND PUSH1 0x1 PUSH1 0x1 PUSH1 0xA0 SHL SUB SWAP3 SWAP1 SWAP3 AND SWAP2 SWAP1 SWAP2 OR SWAP1 SSTORE JUMP JUMPDEST CALLER PUSH0 SWAP1 DUP2 MSTORE PUSH1 0x3 PUSH1 0x20 MSTORE PUSH1 0x40 SWAP1 KECCAK256 SLOAD PUSH2 0x2B35 PUSH32 0x0 PUSH1 0x1 PUSH1 0x1 PUSH1 0xA0 SHL SUB AND DUP4 DUP4 PUSH2 0x2C7E JUMP JUMPDEST CALLER PUSH0 DUP2 DUP2 MSTORE PUSH1 0x3 PUSH1 0x20 MSTORE PUSH1 0x40 DUP1 DUP3 KECCAK256 SWAP2 SWAP1 SWAP2 SSTORE MLOAD PUSH32 0x99025A6C572F7D11C4D4D32F273DD2DCF2D8841A574E65FA8E35D718A231370B SWAP1 PUSH2 0x2B78 SWAP1 DUP5 DUP2 MSTORE PUSH1 0x20 ADD SWAP1 JUMP JUMPDEST PUSH1 0x40 MLOAD DUP1 SWAP2 SUB SWAP1 LOG2 POP POP JUMP JUMPDEST PUSH2 0x2B8C PUSH2 0x2CE2 JUMP JUMPDEST PUSH1 0x1 PUSH1 0x1 PUSH1 0xA0 SHL SUB DUP3 AND PUSH2 0x2BB3 JUMPI PUSH1 0x40 MLOAD PUSH4 0xD92E233D PUSH1 0xE0 SHL DUP2 MSTORE PUSH1 0x4 ADD PUSH1 0x40 MLOAD DUP1 SWAP2 SUB SWAP1 REVERT JUMPDEST PUSH2 0x2BE7 PUSH1 0x1 PUSH1 0x1 PUSH1 0xA0 SHL SUB PUSH32 0x0 AND DUP4 DUP4 PUSH2 0x2C7E JUMP JUMPDEST POP POP JUMP JUMPDEST PUSH1 0x60 PUSH1 0x9 DUP1 SLOAD DUP1 PUSH1 0x20 MUL PUSH1 0x20 ADD PUSH1 0x40 MLOAD SWAP1 DUP2 ADD PUSH1 0x40 MSTORE DUP1 SWAP3 SWAP2 SWAP1 DUP2 DUP2 MSTORE PUSH1 0x20 ADD DUP3 DUP1 SLOAD DUP1 ISZERO PUSH2 0x2C37 JUMPI PUSH1 0x20 MUL DUP3 ADD SWAP2 SWAP1 PUSH0 MSTORE PUSH1 0x20 PUSH0 KECCAK256 SWAP1 JUMPDEST DUP2 SLOAD DUP2 MSTORE PUSH1 0x20 ADD SWAP1 PUSH1 0x1 ADD SWAP1 DUP1 DUP4 GT PUSH2 0x2C23 JUMPI JUMPDEST POP POP POP POP POP SWAP1 POP SWAP1 JUMP JUMPDEST PUSH2 0x2C49 PUSH2 0x2CE2 JUMP JUMPDEST PUSH1 0x1 PUSH1 0x1 PUSH1 0xA0 SHL SUB DUP2 AND PUSH2 0x2C72 JUMPI PUSH1 0x40 MLOAD PUSH4 0x1E4FBDF7 PUSH1 0xE0 SHL DUP2 MSTORE PUSH0 PUSH1 0x4 DUP3 ADD MSTORE PUSH1 0x24 ADD PUSH2 0x1DB8 JUMP JUMPDEST PUSH2 0x2C7B DUP2 PUSH2 0x2D0E JUMP JUMPDEST POP JUMP JUMPDEST PUSH1 0x40 MLOAD PUSH1 0x1 PUSH1 0x1 PUSH1 0xA0 SHL SUB DUP4 DUP2 AND PUSH1 0x24 DUP4 ADD MSTORE PUSH1 0x44 DUP3 ADD DUP4 SWAP1 MSTORE PUSH2 0x2CDD SWAP2 DUP6 SWAP2 DUP3 AND SWAP1 PUSH4 0xA9059CBB SWAP1 PUSH1 0x64 ADD JUMPDEST PUSH1 0x40 MLOAD PUSH1 0x20 DUP2 DUP4 SUB SUB DUP2 MSTORE SWAP1 PUSH1 0x40 MSTORE SWAP2 POP PUSH1 0xE0 SHL PUSH1 0x20 DUP3 ADD DUP1 MLOAD PUSH1 0x1 PUSH1 0x1 PUSH1 0xE0 SHL SUB DUP4 DUP2 DUP4 AND OR DUP4 MSTORE POP POP POP POP PUSH2 0x2D9C JUMP JUMPDEST POP POP POP JUMP JUMPDEST PUSH0 SLOAD PUSH1 0x1 PUSH1 0x1 PUSH1 0xA0 SHL SUB AND CALLER EQ PUSH2 0x1B0C JUMPI PUSH1 0x40 MLOAD PUSH4 0x118CDAA7 PUSH1 0xE0 SHL DUP2 MSTORE CALLER PUSH1 0x4 DUP3 ADD MSTORE PUSH1 0x24 ADD PUSH2 0x1DB8 JUMP JUMPDEST PUSH0 DUP1 SLOAD PUSH1 0x1 PUSH1 0x1 PUSH1 0xA0 SHL SUB DUP4 DUP2 AND PUSH1 0x1 PUSH1 0x1 PUSH1 0xA0 SHL SUB NOT DUP4 AND DUP2 OR DUP5 SSTORE PUSH1 0x40 MLOAD SWAP2 SWAP1 SWAP3 AND SWAP3 DUP4 SWAP2 PUSH32 0x8BE0079C531659141344CD1FD0A4F28419497F9722A3DAAFE3B4186F6B6457E0 SWAP2 SWAP1 LOG3 POP POP JUMP JUMPDEST PUSH1 0x40 MLOAD PUSH1 0x1 PUSH1 0x1 PUSH1 0xA0 SHL SUB DUP5 DUP2 AND PUSH1 0x24 DUP4 ADD MSTORE DUP4 DUP2 AND PUSH1 0x44 DUP4 ADD MSTORE PUSH1 0x64 DUP3 ADD DUP4 SWAP1 MSTORE PUSH2 0x2D96 SWAP2 DUP7 SWAP2 DUP3 AND SWAP1 PUSH4 0x23B872DD SWAP1 PUSH1 0x84 ADD PUSH2 0x2CAB JUMP JUMPDEST POP POP POP POP JUMP JUMPDEST PUSH0 PUSH2 0x2DB0 PUSH1 0x1 PUSH1 0x1 PUSH1 0xA0 SHL SUB DUP5 AND DUP4 PUSH2 0x2DFD JUMP JUMPDEST SWAP1 POP DUP1 MLOAD PUSH0 EQ ISZERO DUP1 ISZERO PUSH2 0x2DD4 JUMPI POP DUP1 DUP1 PUSH1 0x20 ADD SWAP1 MLOAD DUP2 ADD SWAP1 PUSH2 0x2DD2 SWAP2 SWAP1 PUSH2 0x3862 JUMP JUMPDEST ISZERO JUMPDEST ISZERO PUSH2 0x2CDD JUMPI PUSH1 0x40 MLOAD PUSH4 0x5274AFE7 PUSH1 0xE0 SHL DUP2 MSTORE PUSH1 0x1 PUSH1 0x1 PUSH1 0xA0 SHL SUB DUP5 AND PUSH1 0x4 DUP3 ADD MSTORE PUSH1 0x24 ADD PUSH2 0x1DB8 JUMP JUMPDEST PUSH1 0x60 PUSH2 0x2E0A DUP4 DUP4 PUSH0 PUSH2 0x2E11 JUMP JUMPDEST SWAP4 SWAP3 POP POP POP JUMP JUMPDEST PUSH1 0x60 DUP2 SELFBALANCE LT ISZERO PUSH2 0x2E36 JUMPI PUSH1 0x40 MLOAD PUSH4 0xCD786059 PUSH1 0xE0 SHL DUP2 MSTORE ADDRESS PUSH1 0x4 DUP3 ADD MSTORE PUSH1 0x24 ADD PUSH2 0x1DB8 JUMP JUMPDEST PUSH0 DUP1 DUP6 PUSH1 0x1 PUSH1 0x1 PUSH1 0xA0 SHL SUB AND DUP5 DUP7 PUSH1 0x40 MLOAD PUSH2 0x2E51 SWAP2 SWAP1 PUSH2 0x3881 JUMP JUMPDEST PUSH0 PUSH1 0x40 MLOAD DUP1 DUP4 SUB DUP2 DUP6 DUP8 GAS CALL SWAP3 POP POP POP RETURNDATASIZE DUP1 PUSH0 DUP2 EQ PUSH2 0x2E8B JUMPI PUSH1 0x40 MLOAD SWAP2 POP PUSH1 0x1F NOT PUSH1 0x3F RETURNDATASIZE ADD AND DUP3 ADD PUSH1 0x40 MSTORE RETURNDATASIZE DUP3 MSTORE RETURNDATASIZE PUSH0 PUSH1 0x20 DUP5 ADD RETURNDATACOPY PUSH2 0x2E90 JUMP JUMPDEST PUSH1 0x60 SWAP2 POP JUMPDEST POP SWAP2 POP SWAP2 POP PUSH2 0x2EA0 DUP7 DUP4 DUP4 PUSH2 0x2EAA JUMP JUMPDEST SWAP7 SWAP6 POP POP POP POP POP POP JUMP JUMPDEST PUSH1 0x60 DUP3 PUSH2 0x2EBF JUMPI PUSH2 0x2EBA DUP3 PUSH2 0x2F06 JUMP JUMPDEST PUSH2 0x2E0A JUMP JUMPDEST DUP2 MLOAD ISZERO DUP1 ISZERO PUSH2 0x2ED6 JUMPI POP PUSH1 0x1 PUSH1 0x1 PUSH1 0xA0 SHL SUB DUP5 AND EXTCODESIZE ISZERO JUMPDEST ISZERO PUSH2 0x2EFF JUMPI PUSH1 0x40 MLOAD PUSH4 0x9996B315 PUSH1 0xE0 SHL DUP2 MSTORE PUSH1 0x1 PUSH1 0x1 PUSH1 0xA0 SHL SUB DUP6 AND PUSH1 0x4 DUP3 ADD MSTORE PUSH1 0x24 ADD PUSH2 0x1DB8 JUMP JUMPDEST POP DUP1 PUSH2 0x2E0A JUMP JUMPDEST DUP1 MLOAD ISZERO PUSH2 0x2F16 JUMPI DUP1 MLOAD DUP1 DUP3 PUSH1 0x20 ADD REVERT JUMPDEST PUSH1 0x40 MLOAD PUSH4 0xA12F521 PUSH1 0xE1 SHL DUP2 MSTORE PUSH1 0x4 ADD PUSH1 0x40 MLOAD DUP1 SWAP2 SUB SWAP1 REVERT JUMPDEST PUSH1 0x40 MLOAD DUP1 PUSH1 0xA0 ADD PUSH1 0x40 MSTORE DUP1 PUSH0 DUP1 NOT AND DUP2 MSTORE PUSH1 0x20 ADD PUSH0 DUP2 MSTORE PUSH1 0x20 ADD PUSH0 DUP2 MSTORE PUSH1 0x20 ADD PUSH0 DUP2 MSTORE PUSH1 0x20 ADD PUSH1 0x60 DUP2 MSTORE POP SWAP1 JUMP JUMPDEST DUP3 DUP1 SLOAD DUP3 DUP3 SSTORE SWAP1 PUSH0 MSTORE PUSH1 0x20 PUSH0 KECCAK256 SWAP1 PUSH1 0x7 ADD PUSH1 0x8 SWAP1 DIV DUP2 ADD SWAP3 DUP3 ISZERO PUSH2 0x2FF9 JUMPI SWAP2 PUSH1 0x20 MUL DUP3 ADD PUSH0 JUMPDEST DUP4 DUP3 GT ISZERO PUSH2 0x2FC7 JUMPI DUP4 MLOAD DUP4 DUP3 PUSH2 0x100 EXP DUP2 SLOAD DUP2 PUSH4 0xFFFFFFFF MUL NOT AND SWAP1 DUP4 PUSH4 0xFFFFFFFF AND MUL OR SWAP1 SSTORE POP SWAP3 PUSH1 0x20 ADD SWAP3 PUSH1 0x4 ADD PUSH1 0x20 DUP2 PUSH1 0x3 ADD DIV SWAP3 DUP4 ADD SWAP3 PUSH1 0x1 SUB MUL PUSH2 0x2F83 JUMP JUMPDEST DUP1 ISZERO PUSH2 0x2FF7 JUMPI DUP3 DUP2 PUSH2 0x100 EXP DUP2 SLOAD SWAP1 PUSH4 0xFFFFFFFF MUL NOT AND SWAP1 SSTORE PUSH1 0x4 ADD PUSH1 0x20 DUP2 PUSH1 0x3 ADD DIV SWAP3 DUP4 ADD SWAP3 PUSH1 0x1 SUB MUL PUSH2 0x2FC7 JUMP JUMPDEST POP JUMPDEST POP PUSH2 0x3005 SWAP3 SWAP2 POP PUSH2 0x3009 JUMP JUMPDEST POP SWAP1 JUMP JUMPDEST JUMPDEST DUP1 DUP3 GT ISZERO PUSH2 0x3005 JUMPI PUSH0 DUP2 SSTORE PUSH1 0x1 ADD PUSH2 0x300A JUMP JUMPDEST PUSH0 DUP1 PUSH1 0x40 DUP4 DUP6 SUB SLT ISZERO PUSH2 0x302E JUMPI PUSH0 DUP1 REVERT JUMPDEST POP POP DUP1 CALLDATALOAD SWAP3 PUSH1 0x20 SWAP1 SWAP2 ADD CALLDATALOAD SWAP2 POP JUMP JUMPDEST PUSH0 PUSH1 0x20 DUP3 DUP5 SUB SLT ISZERO PUSH2 0x304D JUMPI PUSH0 DUP1 REVERT JUMPDEST POP CALLDATALOAD SWAP2 SWAP1 POP JUMP JUMPDEST PUSH1 0x1 PUSH1 0x1 PUSH1 0x80 SHL SUB SWAP7 DUP8 AND DUP2 MSTORE SWAP5 DUP7 AND PUSH1 0x20 DUP7 ADD MSTORE SWAP3 DUP6 AND PUSH1 0x40 DUP6 ADD MSTORE SWAP1 DUP5 AND PUSH1 0x60 DUP5 ADD MSTORE SWAP1 SWAP3 AND PUSH1 0x80 DUP3 ADD MSTORE PUSH1 0xA0 DUP2 ADD SWAP2 SWAP1 SWAP2 MSTORE PUSH1 0xC0 ADD SWAP1 JUMP JUMPDEST PUSH1 0x1 PUSH1 0x1 PUSH1 0xA0 SHL SUB DUP2 AND DUP2 EQ PUSH2 0x2C7B JUMPI PUSH0 DUP1 REVERT JUMPDEST PUSH0 PUSH1 0x20 DUP3 DUP5 SUB SLT ISZERO PUSH2 0x30B3 JUMPI PUSH0 DUP1 REVERT JUMPDEST DUP2 CALLDATALOAD PUSH2 0x2E0A DUP2 PUSH2 0x308F JUMP JUMPDEST PUSH0 DUP2 MLOAD DUP1 DUP5 MSTORE PUSH1 0x20 DUP1 DUP6 ADD SWAP5 POP DUP1 DUP5 ADD PUSH0 JUMPDEST DUP4 DUP2 LT ISZERO PUSH2 0x30EC JUMPI DUP2 MLOAD DUP8 MSTORE SWAP6 DUP3 ADD SWAP6 SWAP1 DUP3 ADD SWAP1 PUSH1 0x1 ADD PUSH2 0x30D0 JUMP JUMPDEST POP SWAP5 SWAP6 SWAP5 POP POP POP POP POP JUMP JUMPDEST PUSH1 0x60 DUP2 MSTORE PUSH0 PUSH2 0x3109 PUSH1 0x60 DUP4 ADD DUP7 PUSH2 0x30BE JUMP JUMPDEST DUP3 DUP2 SUB PUSH1 0x20 DUP5 DUP2 ADD SWAP2 SWAP1 SWAP2 MSTORE DUP6 MLOAD DUP1 DUP4 MSTORE DUP7 DUP3 ADD SWAP3 DUP3 ADD SWAP1 PUSH0 JUMPDEST DUP2 DUP2 LT ISZERO PUSH2 0x313F JUMPI DUP5 MLOAD DUP4 MSTORE SWAP4 DUP4 ADD SWAP4 SWAP2 DUP4 ADD SWAP2 PUSH1 0x1 ADD PUSH2 0x3123 JUMP JUMPDEST POP POP DUP1 SWAP4 POP POP POP POP DUP3 PUSH1 0x40 DUP4 ADD MSTORE SWAP5 SWAP4 POP POP POP POP JUMP JUMPDEST PUSH0 DUP2 MLOAD DUP1 DUP5 MSTORE PUSH1 0x20 DUP1 DUP6 ADD SWAP5 POP DUP1 DUP5 ADD PUSH0 JUMPDEST DUP4 DUP2 LT ISZERO PUSH2 0x30EC JUMPI DUP2 MLOAD PUSH4 0xFFFFFFFF AND DUP8 MSTORE SWAP6 DUP3 ADD SWAP6 SWAP1 DUP3 ADD SWAP1 PUSH1 0x1 ADD PUSH2 0x3167 JUMP JUMPDEST PUSH1 0x20 DUP2 MSTORE PUSH0 PUSH2 0x2E0A PUSH1 0x20 DUP4 ADD DUP5 PUSH2 0x3155 JUMP JUMPDEST PUSH0 DUP1 DUP4 PUSH1 0x1F DUP5 ADD SLT PUSH2 0x31AB JUMPI PUSH0 DUP1 REVERT JUMPDEST POP DUP2 CALLDATALOAD PUSH8 0xFFFFFFFFFFFFFFFF DUP2 GT ISZERO PUSH2 0x31C2 JUMPI PUSH0 DUP1 REVERT JUMPDEST PUSH1 0x20 DUP4 ADD SWAP2 POP DUP4 PUSH1 0x20 DUP3 PUSH1 0x5 SHL DUP6 ADD ADD GT ISZERO PUSH2 0x31DC JUMPI PUSH0 DUP1 REVERT JUMPDEST SWAP3 POP SWAP3 SWAP1 POP JUMP JUMPDEST PUSH0 DUP1 PUSH0 DUP1 PUSH0 PUSH1 0x60 DUP7 DUP9 SUB SLT ISZERO PUSH2 0x31F7 JUMPI PUSH0 DUP1 REVERT JUMPDEST DUP6 CALLDATALOAD PUSH2 0x3202 DUP2 PUSH2 0x308F JUMP JUMPDEST SWAP5 POP PUSH1 0x20 DUP7 ADD CALLDATALOAD PUSH8 0xFFFFFFFFFFFFFFFF DUP1 DUP3 GT ISZERO PUSH2 0x321E JUMPI PUSH0 DUP1 REVERT JUMPDEST PUSH2 0x322A DUP10 DUP4 DUP11 ADD PUSH2 0x319B JUMP JUMPDEST SWAP1 SWAP7 POP SWAP5 POP PUSH1 0x40 DUP9 ADD CALLDATALOAD SWAP2 POP DUP1 DUP3 GT ISZERO PUSH2 0x3242 JUMPI PUSH0 DUP1 REVERT JUMPDEST POP PUSH2 0x324F DUP9 DUP3 DUP10 ADD PUSH2 0x319B JUMP JUMPDEST SWAP7 SWAP10 SWAP6 SWAP9 POP SWAP4 SWAP7 POP SWAP3 SWAP5 SWAP4 SWAP3 POP POP POP JUMP JUMPDEST PUSH0 DUP1 PUSH0 PUSH1 0x60 DUP5 DUP7 SUB SLT ISZERO PUSH2 0x3272 JUMPI PUSH0 DUP1 REVERT JUMPDEST DUP4 CALLDATALOAD PUSH2 0x327D DUP2 PUSH2 0x308F JUMP JUMPDEST SWAP6 PUSH1 0x20 DUP6 ADD CALLDATALOAD SWAP6 POP PUSH1 0x40 SWAP1 SWAP5 ADD CALLDATALOAD SWAP4 SWAP3 POP POP POP JUMP JUMPDEST PUSH0 DUP3 DUP3 MLOAD DUP1 DUP6 MSTORE PUSH1 0x20 DUP1 DUP7 ADD SWAP6 POP DUP1 DUP3 PUSH1 0x5 SHL DUP5 ADD ADD DUP2 DUP7 ADD PUSH0 JUMPDEST DUP5 DUP2 LT ISZERO PUSH2 0x330F JUMPI DUP6 DUP4 SUB PUSH1 0x1F NOT ADD DUP10 MSTORE DUP2 MLOAD DUP1 MLOAD DUP5 MSTORE DUP5 DUP2 ADD MLOAD DUP6 DUP6 ADD MSTORE PUSH1 0x40 DUP1 DUP3 ADD MLOAD SWAP1 DUP6 ADD MSTORE PUSH1 0x60 DUP1 DUP3 ADD MLOAD SWAP1 DUP6 ADD MSTORE PUSH1 0x80 SWAP1 DUP2 ADD MLOAD PUSH1 0xA0 SWAP2 DUP6 ADD DUP3 SWAP1 MSTORE SWAP1 PUSH2 0x32FB DUP2 DUP7 ADD DUP4 PUSH2 0x3155 JUMP JUMPDEST SWAP11 DUP7 ADD SWAP11 SWAP5 POP POP POP SWAP1 DUP4 ADD SWAP1 PUSH1 0x1 ADD PUSH2 0x32AD JUMP JUMPDEST POP SWAP1 SWAP8 SWAP7 POP POP POP POP POP POP POP JUMP JUMPDEST PUSH1 0x20 DUP2 MSTORE PUSH0 PUSH2 0x2E0A PUSH1 0x20 DUP4 ADD DUP5 PUSH2 0x3292 JUMP JUMPDEST PUSH4 0x4E487B71 PUSH1 0xE0 SHL PUSH0 MSTORE PUSH1 0x41 PUSH1 0x4 MSTORE PUSH1 0x24 PUSH0 REVERT JUMPDEST PUSH0 DUP1 PUSH1 0x40 DUP4 DUP6 SUB SLT ISZERO PUSH2 0x3353 JUMPI PUSH0 DUP1 REVERT JUMPDEST DUP3 CALLDATALOAD SWAP2 POP PUSH1 0x20 DUP1 DUP5 ADD CALLDATALOAD PUSH8 0xFFFFFFFFFFFFFFFF DUP1 DUP3 GT ISZERO PUSH2 0x3372 JUMPI PUSH0 DUP1 REVERT JUMPDEST DUP2 DUP7 ADD SWAP2 POP DUP7 PUSH1 0x1F DUP4 ADD SLT PUSH2 0x3385 JUMPI PUSH0 DUP1 REVERT JUMPDEST DUP2 CALLDATALOAD DUP2 DUP2 GT ISZERO PUSH2 0x3397 JUMPI PUSH2 0x3397 PUSH2 0x332E JUMP JUMPDEST DUP1 PUSH1 0x5 SHL PUSH1 0x40 MLOAD PUSH1 0x1F NOT PUSH1 0x3F DUP4 ADD AND DUP2 ADD DUP2 DUP2 LT DUP6 DUP3 GT OR ISZERO PUSH2 0x33BC JUMPI PUSH2 0x33BC PUSH2 0x332E JUMP JUMPDEST PUSH1 0x40 MSTORE SWAP2 DUP3 MSTORE DUP5 DUP3 ADD SWAP3 POP DUP4 DUP2 ADD DUP6 ADD SWAP2 DUP10 DUP4 GT ISZERO PUSH2 0x33D9 JUMPI PUSH0 DUP1 REVERT JUMPDEST SWAP4 DUP6 ADD SWAP4 JUMPDEST DUP3 DUP6 LT ISZERO PUSH2 0x33F7 JUMPI DUP5 CALLDATALOAD DUP5 MSTORE SWAP4 DUP6 ADD SWAP4 SWAP3 DUP6 ADD SWAP3 PUSH2 0x33DE JUMP JUMPDEST DUP1 SWAP7 POP POP POP POP POP POP POP SWAP3 POP SWAP3 SWAP1 POP JUMP JUMPDEST DUP1 CALLDATALOAD PUSH4 0xFFFFFFFF DUP2 AND DUP2 EQ PUSH2 0x341A JUMPI PUSH0 DUP1 REVERT JUMPDEST SWAP2 SWAP1 POP JUMP JUMPDEST PUSH0 DUP1 PUSH0 PUSH1 0x60 DUP5 DUP7 SUB SLT ISZERO PUSH2 0x3431 JUMPI PUSH0 DUP1 REVERT JUMPDEST DUP4 CALLDATALOAD SWAP3 POP PUSH1 0x20 DUP5 ADD CALLDATALOAD SWAP2 POP PUSH2 0x3448 PUSH1 0x40 DUP6 ADD PUSH2 0x3407 JUMP JUMPDEST SWAP1 POP SWAP3 POP SWAP3 POP SWAP3 JUMP JUMPDEST PUSH1 0x40 DUP2 MSTORE PUSH0 PUSH2 0x3463 PUSH1 0x40 DUP4 ADD DUP6 PUSH2 0x3292 JUMP JUMPDEST SWAP1 POP DUP3 PUSH1 0x20 DUP4 ADD MSTORE SWAP4 SWAP3 POP POP POP JUMP JUMPDEST PUSH0 DUP1 PUSH0 DUP1 PUSH1 0x60 DUP6 DUP8 SUB SLT ISZERO PUSH2 0x3485 JUMPI PUSH0 DUP1 REVERT JUMPDEST DUP5 CALLDATALOAD SWAP4 POP PUSH1 0x20 DUP6 ADD CALLDATALOAD SWAP3 POP PUSH1 0x40 DUP6 ADD CALLDATALOAD PUSH8 0xFFFFFFFFFFFFFFFF DUP2 GT ISZERO PUSH2 0x34A9 JUMPI PUSH0 DUP1 REVERT JUMPDEST PUSH2 0x34B5 DUP8 DUP3 DUP9 ADD PUSH2 0x319B JUMP JUMPDEST SWAP6 SWAP9 SWAP5 SWAP8 POP SWAP6 POP POP POP POP JUMP JUMPDEST DUP1 CALLDATALOAD PUSH1 0x1 PUSH1 0x1 PUSH1 0x80 SHL SUB DUP2 AND DUP2 EQ PUSH2 0x341A JUMPI PUSH0 DUP1 REVERT JUMPDEST PUSH0 DUP1 PUSH0 DUP1 PUSH0 DUP1 PUSH1 0xC0 DUP8 DUP10 SUB SLT ISZERO PUSH2 0x34EC JUMPI PUSH0 DUP1 REVERT JUMPDEST DUP7 CALLDATALOAD PUSH1 0xFF DUP2 AND DUP2 EQ PUSH2 0x34FC JUMPI PUSH0 DUP1 REVERT JUMPDEST SWAP6 POP PUSH2 0x350A PUSH1 0x20 DUP9 ADD PUSH2 0x34C1 JUMP JUMPDEST SWAP5 POP PUSH2 0x3518 PUSH1 0x40 DUP9 ADD PUSH2 0x34C1 JUMP JUMPDEST SWAP4 POP PUSH2 0x3526 PUSH1 0x60 DUP9 ADD PUSH2 0x34C1 JUMP JUMPDEST SWAP3 POP PUSH2 0x3534 PUSH1 0x80 DUP9 ADD PUSH2 0x34C1 JUMP JUMPDEST SWAP2 POP PUSH2 0x3542 PUSH1 0xA0 DUP9 ADD PUSH2 0x34C1 JUMP JUMPDEST SWAP1 POP SWAP3 SWAP6 POP SWAP3 SWAP6 POP SWAP3 SWAP6 JUMP JUMPDEST PUSH0 PUSH1 0x20 DUP3 DUP5 SUB SLT ISZERO PUSH2 0x355E JUMPI PUSH0 DUP1 REVERT JUMPDEST DUP2 CALLDATALOAD PUSH3 0xFFFFFF DUP2 AND DUP2 EQ PUSH2 0x2E0A JUMPI PUSH0 DUP1 REVERT JUMPDEST PUSH0 DUP1 PUSH1 0x40 DUP4 DUP6 SUB SLT ISZERO PUSH2 0x3581 JUMPI PUSH0 DUP1 REVERT JUMPDEST DUP3 CALLDATALOAD PUSH2 0x358C DUP2 PUSH2 0x308F JUMP JUMPDEST SWAP5 PUSH1 0x20 SWAP4 SWAP1 SWAP4 ADD CALLDATALOAD SWAP4 POP POP POP JUMP JUMPDEST PUSH1 0x20 DUP2 MSTORE PUSH0 PUSH2 0x2E0A PUSH1 0x20 DUP4 ADD DUP5 PUSH2 0x30BE JUMP JUMPDEST PUSH4 0x4E487B71 PUSH1 0xE0 SHL PUSH0 MSTORE PUSH1 0x11 PUSH1 0x4 MSTORE PUSH1 0x24 PUSH0 REVERT JUMPDEST DUP2 DUP2 SUB DUP2 DUP2 GT ISZERO PUSH2 0xA5F JUMPI PUSH2 0xA5F PUSH2 0x35AC JUMP JUMPDEST PUSH4 0x4E487B71 PUSH1 0xE0 SHL PUSH0 MSTORE PUSH1 0x32 PUSH1 0x4 MSTORE PUSH1 0x24 PUSH0 REVERT JUMPDEST DUP1 DUP3 ADD DUP1 DUP3 GT ISZERO PUSH2 0xA5F JUMPI PUSH2 0xA5F PUSH2 0x35AC JUMP JUMPDEST PUSH0 PUSH1 0x1 DUP3 ADD PUSH2 0x360B JUMPI PUSH2 0x360B PUSH2 0x35AC JUMP JUMPDEST POP PUSH1 0x1 ADD SWAP1 JUMP JUMPDEST PUSH0 PUSH1 0x20 DUP3 DUP5 SUB SLT ISZERO PUSH2 0x3622 JUMPI PUSH0 DUP1 REVERT JUMPDEST POP MLOAD SWAP2 SWAP1 POP JUMP JUMPDEST PUSH1 0x1 PUSH1 0x1 PUSH1 0x80 SHL SUB DUP2 DUP2 AND DUP4 DUP3 AND ADD SWAP1 DUP1 DUP3 GT ISZERO PUSH2 0x3649 JUMPI PUSH2 0x3649 PUSH2 0x35AC JUMP JUMPDEST POP SWAP3 SWAP2 POP POP JUMP JUMPDEST PUSH4 0x4E487B71 PUSH1 0xE0 SHL PUSH0 MSTORE PUSH1 0x12 PUSH1 0x4 MSTORE PUSH1 0x24 PUSH0 REVERT JUMPDEST PUSH0 DUP3 PUSH2 0x3672 JUMPI PUSH2 0x3672 PUSH2 0x3650 JUMP JUMPDEST POP MOD SWAP1 JUMP JUMPDEST PUSH0 PUSH1 0x20 DUP3 DUP5 SUB SLT ISZERO PUSH2 0x3687 JUMPI PUSH0 DUP1 REVERT JUMPDEST PUSH2 0x2E0A DUP3 PUSH2 0x3407 JUMP JUMPDEST PUSH1 0x1 PUSH1 0x1 PUSH1 0x80 SHL SUB DUP2 DUP2 AND DUP4 DUP3 AND MUL DUP1 DUP3 AND SWAP2 SWAP1 DUP3 DUP2 EQ PUSH2 0x36B3 JUMPI PUSH2 0x36B3 PUSH2 0x35AC JUMP JUMPDEST POP POP SWAP3 SWAP2 POP POP JUMP JUMPDEST PUSH0 PUSH1 0x20 DUP3 DUP5 SUB SLT ISZERO PUSH2 0x36CB JUMPI PUSH0 DUP1 REVERT JUMPDEST DUP2 MLOAD PUSH2 0x2E0A DUP2 PUSH2 0x308F JUMP JUMPDEST PUSH0 PUSH1 0x1 PUSH1 0x1 PUSH1 0x80 SHL SUB DUP1 DUP5 AND DUP1 PUSH2 0x36EF JUMPI PUSH2 0x36EF PUSH2 0x3650 JUMP JUMPDEST SWAP3 AND SWAP2 SWAP1 SWAP2 DIV SWAP3 SWAP2 POP POP JUMP JUMPDEST PUSH1 0x1 PUSH1 0x1 PUSH1 0x80 SHL SUB DUP3 DUP2 AND DUP3 DUP3 AND SUB SWAP1 DUP1 DUP3 GT ISZERO PUSH2 0x3649 JUMPI PUSH2 0x3649 PUSH2 0x35AC JUMP JUMPDEST DUP5 DUP2 MSTORE PUSH1 0x20 DUP1 DUP3 ADD DUP6 SWAP1 MSTORE PUSH1 0x60 PUSH1 0x40 DUP4 ADD DUP2 SWAP1 MSTORE DUP3 ADD DUP4 SWAP1 MSTORE PUSH0 SWAP1 DUP5 SWAP1 PUSH1 0x80 DUP5 ADD DUP4 JUMPDEST DUP7 DUP2 LT ISZERO PUSH2 0x3767 JUMPI PUSH4 0xFFFFFFFF PUSH2 0x3754 DUP6 PUSH2 0x3407 JUMP JUMPDEST AND DUP3 MSTORE SWAP3 DUP3 ADD SWAP3 SWAP1 DUP3 ADD SWAP1 PUSH1 0x1 ADD PUSH2 0x373E JUMP JUMPDEST POP SWAP9 SWAP8 POP POP POP POP POP POP POP POP JUMP JUMPDEST PUSH1 0x1 DUP2 DUP2 JUMPDEST DUP1 DUP6 GT ISZERO PUSH2 0x37AE JUMPI DUP2 PUSH0 NOT DIV DUP3 GT ISZERO PUSH2 0x3794 JUMPI PUSH2 0x3794 PUSH2 0x35AC JUMP JUMPDEST DUP1 DUP6 AND ISZERO PUSH2 0x37A1 JUMPI SWAP2 DUP2 MUL SWAP2 JUMPDEST SWAP4 DUP5 SHR SWAP4 SWAP1 DUP1 MUL SWAP1 PUSH2 0x3779 JUMP JUMPDEST POP SWAP3 POP SWAP3 SWAP1 POP JUMP JUMPDEST PUSH0 DUP3 PUSH2 0x37C4 JUMPI POP PUSH1 0x1 PUSH2 0xA5F JUMP JUMPDEST DUP2 PUSH2 0x37D0 JUMPI POP PUSH0 PUSH2 0xA5F JUMP JUMPDEST DUP2 PUSH1 0x1 DUP2 EQ PUSH2 0x37E6 JUMPI PUSH1 0x2 DUP2 EQ PUSH2 0x37F0 JUMPI PUSH2 0x380C JUMP JUMPDEST PUSH1 0x1 SWAP2 POP POP PUSH2 0xA5F JUMP JUMPDEST PUSH1 0xFF DUP5 GT ISZERO PUSH2 0x3801 JUMPI PUSH2 0x3801 PUSH2 0x35AC JUMP JUMPDEST POP POP PUSH1 0x1 DUP3 SHL PUSH2 0xA5F JUMP JUMPDEST POP PUSH1 0x20 DUP4 LT PUSH2 0x133 DUP4 LT AND PUSH1 0x4E DUP5 LT PUSH1 0xB DUP5 LT AND OR ISZERO PUSH2 0x382F JUMPI POP DUP2 DUP2 EXP PUSH2 0xA5F JUMP JUMPDEST PUSH2 0x3839 DUP4 DUP4 PUSH2 0x3774 JUMP JUMPDEST DUP1 PUSH0 NOT DIV DUP3 GT ISZERO PUSH2 0x384C JUMPI PUSH2 0x384C PUSH2 0x35AC JUMP JUMPDEST MUL SWAP4 SWAP3 POP POP POP JUMP JUMPDEST PUSH0 PUSH2 0x2E0A PUSH1 0xFF DUP5 AND DUP4 PUSH2 0x37B6 JUMP JUMPDEST PUSH0 PUSH1 0x20 DUP3 DUP5 SUB SLT ISZERO PUSH2 0x3872 JUMPI PUSH0 DUP1 REVERT JUMPDEST DUP2 MLOAD DUP1 ISZERO ISZERO DUP2 EQ PUSH2 0x2E0A JUMPI PUSH0 DUP1 REVERT JUMPDEST PUSH0 DUP3 MLOAD PUSH0 JUMPDEST DUP2 DUP2 LT ISZERO PUSH2 0x38A0 JUMPI PUSH1 0x20 DUP2 DUP7 ADD DUP2 ADD MLOAD DUP6 DUP4 ADD MSTORE ADD PUSH2 0x3886 JUMP JUMPDEST POP PUSH0 SWAP3 ADD SWAP2 DUP3 MSTORE POP SWAP2 SWAP1 POP JUMP INVALID LOG2 PUSH5 0x6970667358 0x22 SLT KECCAK256 SIGNEXTEND PUSH22 0x695AA4E833EFF7A51FEF126D71C88303EF1A3ADB1525 0xE7 SLT 0x49 0xD6 0xC9 0xF9 SELFBALANCE 0xEC PUSH5 0x736F6C6343 STOP ADDMOD EQ STOP CALLER "
		},
		"gasEstimates": {
			"creation": {
				"codeDepositCost": "2912600",
				"executionCost": "infinite",
				"totalCost": "infinite"
			},
			"external": {
				"HUNDRED_PERCENT()": "314",
				"buyTickets(bytes32,uint256,uint32[])": "infinite",
				"claimPrizes(address,bytes32[],uint256[])": "infinite",
				"collectReferralReward(address)": "infinite",
				"createPool(uint8,uint128,uint128,uint128,uint128,uint128)": "infinite",
				"drawEndedRoundAndOpenNewRound(bytes32)": "infinite",
				"fulfillRandomWords(uint256,uint256[])": "infinite",
				"getAllParticipationRecords(address)": "infinite",
				"getAllPoolIds()": "infinite",
				"getParticipationRecordsByPoolRound(address,bytes32,uint256)": "infinite",
				"getPoolInfo(bytes32)": "infinite",
				"getRoundInfo(bytes32,uint256)": "11591",
				"getSoldTickets(bytes32,uint256)": "infinite",
				"getTicketOwner(bytes32,uint256,uint32)": "2784",
				"getUnclaimedPrizes(address)": "infinite",
				"getWonParticipationRecords(address)": "infinite",
				"owner()": "2418",
				"referralFee()": "2418",
				"referralRewardAccumulated(address)": "2555",
				"referralRewardAccured(address)": "2599",
				"renounceOwnership()": "infinite",
				"setVRFConsumer(address)": "26815",
				"transferOwnership(address)": "infinite",
				"updateReferralFee(uint24)": "30222",
				"usdt()": "infinite",
				"userRegistar()": "infinite",
				"vrfConsumer()": "2427",
				"withdrawUsdt(address,uint256)": "infinite"
			}
		},
		"methodIdentifiers": {
			"HUNDRED_PERCENT()": "6ed93dd0",
			"buyTickets(bytes32,uint256,uint32[])": "89ba4116",
			"claimPrizes(address,bytes32[],uint256[])": "2bbb1444",
			"collectReferralReward(address)": "e53a7345",
			"createPool(uint8,uint128,uint128,uint128,uint128,uint128)": "acca07b1",
			"drawEndedRoundAndOpenNewRound(bytes32)": "2e5a74b9",
			"fulfillRandomWords(uint256,uint256[])": "38ba4614",
			"getAllParticipationRecords(address)": "bab0cbce",
			"getAllPoolIds()": "f19c3d5b",
			"getParticipationRecordsByPoolRound(address,bytes32,uint256)": "34bfb32f",
			"getPoolInfo(bytes32)": "09f2c019",
			"getRoundInfo(bytes32,uint256)": "0358abfc",
			"getSoldTickets(bytes32,uint256)": "25860103",
			"getTicketOwner(bytes32,uint256,uint32)": "3b0e443c",
			"getUnclaimedPrizes(address)": "21f6a578",
			"getWonParticipationRecords(address)": "6f8af123",
			"owner()": "8da5cb5b",
			"referralFee()": "84ae2bc6",
			"referralRewardAccumulated(address)": "86d32015",
			"referralRewardAccured(address)": "4930cc99",
			"renounceOwnership()": "715018a6",
			"setVRFConsumer(address)": "cfd6aa90",
			"transferOwnership(address)": "f2fde38b",
			"updateReferralFee(uint24)": "b2a89b08",
			"usdt()": "2f48ab7d",
			"userRegistar()": "2facd139",
			"vrfConsumer()": "1ef4d1fd",
			"withdrawUsdt(address,uint256)": "ed092451"
		}
	},
	"abi": [
		{
			"inputs": [
				{
					"internalType": "uint24",
					"name": "referralFee_",
					"type": "uint24"
				},
				{
					"internalType": "address",
					"name": "usdt_",
					"type": "address"
				},
				{
					"internalType": "address",
					"name": "userRegistar_",
					"type": "address"
				}
			],
			"stateMutability": "nonpayable",
			"type": "constructor"
		},
		{
			"inputs": [
				{
					"internalType": "address",
					"name": "target",
					"type": "address"
				}
			],
			"name": "AddressEmptyCode",
			"type": "error"
		},
		{
			"inputs": [
				{
					"internalType": "address",
					"name": "account",
					"type": "address"
				}
			],
			"name": "AddressInsufficientBalance",
			"type": "error"
		},
		{
			"inputs": [],
			"name": "AlreadyClaimed",
			"type": "error"
		},
		{
			"inputs": [],
			"name": "AlreadyDrawn",
			"type": "error"
		},
		{
			"inputs": [],
			"name": "DifferentArrayLength",
			"type": "error"
		},
		{
			"inputs": [],
			"name": "FailedInnerCall",
			"type": "error"
		},
		{
			"inputs": [],
			"name": "InvalidMsgSender",
			"type": "error"
		},
		{
			"inputs": [],
			"name": "InvalidStartTime",
			"type": "error"
		},
		{
			"inputs": [
				{
					"internalType": "uint32",
					"name": "ticket",
					"type": "uint32"
				}
			],
			"name": "InvalidTicket",
			"type": "error"
		},
		{
			"inputs": [],
			"name": "NoTicketSpecified",
			"type": "error"
		},
		{
			"inputs": [],
			"name": "NotEnded",
			"type": "error"
		},
		{
			"inputs": [],
			"name": "NotEnoughTicketsLeft",
			"type": "error"
		},
		{
			"inputs": [],
			"name": "NotRegistered",
			"type": "error"
		},
		{
			"inputs": [],
			"name": "NotWinner",
			"type": "error"
		},
		{
			"inputs": [],
			"name": "OverHundredPercent",
			"type": "error"
		},
		{
			"inputs": [
				{
					"internalType": "address",
					"name": "owner",
					"type": "address"
				}
			],
			"name": "OwnableInvalidOwner",
			"type": "error"
		},
		{
			"inputs": [
				{
					"internalType": "address",
					"name": "account",
					"type": "address"
				}
			],
			"name": "OwnableUnauthorizedAccount",
			"type": "error"
		},
		{
			"inputs": [],
			"name": "PoolExists",
			"type": "error"
		},
		{
			"inputs": [],
			"name": "PoolNotFound",
			"type": "error"
		},
		{
			"inputs": [],
			"name": "RoundEnded",
			"type": "error"
		},
		{
			"inputs": [],
			"name": "RoundNotStart",
			"type": "error"
		},
		{
			"inputs": [
				{
					"internalType": "address",
					"name": "token",
					"type": "address"
				}
			],
			"name": "SafeERC20FailedOperation",
			"type": "error"
		},
		{
			"inputs": [
				{
					"internalType": "uint32",
					"name": "ticket",
					"type": "uint32"
				}
			],
			"name": "TicketSold",
			"type": "error"
		},
		{
			"inputs": [],
			"name": "TooManyTickets",
			"type": "error"
		},
		{
			"inputs": [],
			"name": "ZeroAddress",
			"type": "error"
		},
		{
			"inputs": [],
			"name": "ZeroPrize",
			"type": "error"
		},
		{
			"inputs": [],
			"name": "ZeroRoundDuration",
			"type": "error"
		},
		{
			"inputs": [],
			"name": "ZeroTicketsExp",
			"type": "error"
		},
		{
			"inputs": [],
			"name": "ZeroWinNumber",
			"type": "error"
		},
		{
			"anonymous": false,
			"inputs": [
				{
					"indexed": false,
					"internalType": "bytes32",
					"name": "poolId",
					"type": "bytes32"
				},
				{
					"indexed": false,
					"internalType": "uint256",
					"name": "roundId",
					"type": "uint256"
				},
				{
					"indexed": false,
					"internalType": "uint128",
					"name": "startTime",
					"type": "uint128"
				},
				{
					"indexed": false,
					"internalType": "uint128",
					"name": "endTime",
					"type": "uint128"
				}
			],
			"name": "NewRoundOpened",
			"type": "event"
		},
		{
			"anonymous": false,
			"inputs": [
				{
					"indexed": true,
					"internalType": "address",
					"name": "previousOwner",
					"type": "address"
				},
				{
					"indexed": true,
					"internalType": "address",
					"name": "newOwner",
					"type": "address"
				}
			],
			"name": "OwnershipTransferred",
			"type": "event"
		},
		{
			"anonymous": false,
			"inputs": [
				{
					"indexed": false,
					"internalType": "uint128",
					"name": "prize",
					"type": "uint128"
				},
				{
					"indexed": false,
					"internalType": "uint128",
					"name": "totalTickets",
					"type": "uint128"
				},
				{
					"indexed": false,
					"internalType": "uint128",
					"name": "pricePerTicket",
					"type": "uint128"
				},
				{
					"indexed": false,
					"internalType": "uint128",
					"name": "roundDuration",
					"type": "uint128"
				},
				{
					"indexed": false,
					"internalType": "uint128",
					"name": "roundGapTime",
					"type": "uint128"
				},
				{
					"indexed": false,
					"internalType": "bytes32",
					"name": "poolId",
					"type": "bytes32"
				}
			],
			"name": "PoolCreated",
			"type": "event"
		},
		{
			"anonymous": false,
			"inputs": [
				{
					"indexed": false,
					"internalType": "bytes32",
					"name": "poolId",
					"type": "bytes32"
				},
				{
					"indexed": false,
					"internalType": "uint256",
					"name": "roundId",
					"type": "uint256"
				}
			],
			"name": "PrizeClaimed",
			"type": "event"
		},
		{
			"anonymous": false,
			"inputs": [
				{
					"indexed": false,
					"internalType": "uint24",
					"name": "oldReferralFee",
					"type": "uint24"
				},
				{
					"indexed": false,
					"internalType": "uint24",
					"name": "newReferralFee",
					"type": "uint24"
				}
			],
			"name": "ReferralFeeUpdated",
			"type": "event"
		},
		{
			"anonymous": false,
			"inputs": [
				{
					"indexed": true,
					"internalType": "address",
					"name": "referrer",
					"type": "address"
				},
				{
					"indexed": false,
					"internalType": "uint256",
					"name": "amount",
					"type": "uint256"
				}
			],
			"name": "ReferralRewardCollected",
			"type": "event"
		},
		{
			"anonymous": false,
			"inputs": [
				{
					"indexed": true,
					"internalType": "address",
					"name": "owner",
					"type": "address"
				},
				{
					"indexed": false,
					"internalType": "bytes32",
					"name": "poolId",
					"type": "bytes32"
				},
				{
					"indexed": false,
					"internalType": "uint256",
					"name": "roundId",
					"type": "uint256"
				},
				{
					"indexed": false,
					"internalType": "uint32[]",
					"name": "tickets",
					"type": "uint32[]"
				}
			],
			"name": "TicketsSold",
			"type": "event"
		},
		{
			"anonymous": false,
			"inputs": [
				{
					"indexed": true,
					"internalType": "address",
					"name": "oldTreasury",
					"type": "address"
				},
				{
					"indexed": true,
					"internalType": "address",
					"name": "newTreasury",
					"type": "address"
				}
			],
			"name": "TreasuryUpdated",
			"type": "event"
		},
		{
			"inputs": [],
			"name": "HUNDRED_PERCENT",
			"outputs": [
				{
					"internalType": "uint24",
					"name": "",
					"type": "uint24"
				}
			],
			"stateMutability": "view",
			"type": "function"
		},
		{
			"inputs": [
				{
					"internalType": "bytes32",
					"name": "poolId",
					"type": "bytes32"
				},
				{
					"internalType": "uint256",
					"name": "roundId",
					"type": "uint256"
				},
				{
					"internalType": "uint32[]",
					"name": "tickets",
					"type": "uint32[]"
				}
			],
			"name": "buyTickets",
			"outputs": [],
			"stateMutability": "nonpayable",
			"type": "function"
		},
		{
			"inputs": [
				{
					"internalType": "address",
					"name": "to",
					"type": "address"
				},
				{
					"internalType": "bytes32[]",
					"name": "poolIds",
					"type": "bytes32[]"
				},
				{
					"internalType": "uint256[]",
					"name": "roundIds",
					"type": "uint256[]"
				}
			],
			"name": "claimPrizes",
			"outputs": [],
			"stateMutability": "nonpayable",
			"type": "function"
		},
		{
			"inputs": [
				{
					"internalType": "address",
					"name": "to",
					"type": "address"
				}
			],
			"name": "collectReferralReward",
			"outputs": [],
			"stateMutability": "nonpayable",
			"type": "function"
		},
		{
			"inputs": [
				{
					"internalType": "uint8",
					"name": "totalTicketsExp",
					"type": "uint8"
				},
				{
					"internalType": "uint128",
					"name": "prize",
					"type": "uint128"
				},
				{
					"internalType": "uint128",
					"name": "pricePerTicket",
					"type": "uint128"
				},
				{
					"internalType": "uint128",
					"name": "roundDuration",
					"type": "uint128"
				},
				{
					"internalType": "uint128",
					"name": "roundGapTime",
					"type": "uint128"
				},
				{
					"internalType": "uint128",
					"name": "startTime",
					"type": "uint128"
				}
			],
			"name": "createPool",
			"outputs": [
				{
					"internalType": "bytes32",
					"name": "poolId",
					"type": "bytes32"
				}
			],
			"stateMutability": "nonpayable",
			"type": "function"
		},
		{
			"inputs": [
				{
					"internalType": "bytes32",
					"name": "poolId",
					"type": "bytes32"
				}
			],
			"name": "drawEndedRoundAndOpenNewRound",
			"outputs": [],
			"stateMutability": "nonpayable",
			"type": "function"
		},
		{
			"inputs": [
				{
					"internalType": "uint256",
					"name": "requestId",
					"type": "uint256"
				},
				{
					"internalType": "uint256[]",
					"name": "randomWords",
					"type": "uint256[]"
				}
			],
			"name": "fulfillRandomWords",
			"outputs": [],
			"stateMutability": "nonpayable",
			"type": "function"
		},
		{
			"inputs": [
				{
					"internalType": "address",
					"name": "user",
					"type": "address"
				}
			],
			"name": "getAllParticipationRecords",
			"outputs": [
				{
					"components": [
						{
							"internalType": "bytes32",
							"name": "poolId",
							"type": "bytes32"
						},
						{
							"internalType": "uint256",
							"name": "roundId",
							"type": "uint256"
						},
						{
							"internalType": "uint256",
							"name": "timestamp",
							"type": "uint256"
						},
						{
							"internalType": "uint256",
							"name": "ticketsCount",
							"type": "uint256"
						},
						{
							"internalType": "uint32[]",
							"name": "tickets",
							"type": "uint32[]"
						}
					],
					"internalType": "struct IPoolManager.ParticipationRecord[]",
					"name": "",
					"type": "tuple[]"
				}
			],
			"stateMutability": "view",
			"type": "function"
		},
		{
			"inputs": [],
			"name": "getAllPoolIds",
			"outputs": [
				{
					"internalType": "bytes32[]",
					"name": "poolIds",
					"type": "bytes32[]"
				}
			],
			"stateMutability": "view",
			"type": "function"
		},
		{
			"inputs": [
				{
					"internalType": "address",
					"name": "user",
					"type": "address"
				},
				{
					"internalType": "bytes32",
					"name": "poolId",
					"type": "bytes32"
				},
				{
					"internalType": "uint256",
					"name": "roundId",
					"type": "uint256"
				}
			],
			"name": "getParticipationRecordsByPoolRound",
			"outputs": [
				{
					"components": [
						{
							"internalType": "bytes32",
							"name": "poolId",
							"type": "bytes32"
						},
						{
							"internalType": "uint256",
							"name": "roundId",
							"type": "uint256"
						},
						{
							"internalType": "uint256",
							"name": "timestamp",
							"type": "uint256"
						},
						{
							"internalType": "uint256",
							"name": "ticketsCount",
							"type": "uint256"
						},
						{
							"internalType": "uint32[]",
							"name": "tickets",
							"type": "uint32[]"
						}
					],
					"internalType": "struct IPoolManager.ParticipationRecord[]",
					"name": "records",
					"type": "tuple[]"
				}
			],
			"stateMutability": "view",
			"type": "function"
		},
		{
			"inputs": [
				{
					"internalType": "bytes32",
					"name": "poolId",
					"type": "bytes32"
				}
			],
			"name": "getPoolInfo",
			"outputs": [
				{
					"internalType": "uint128",
					"name": "prize",
					"type": "uint128"
				},
				{
					"internalType": "uint128",
					"name": "totalTickets",
					"type": "uint128"
				},
				{
					"internalType": "uint128",
					"name": "pricePerTicket",
					"type": "uint128"
				},
				{
					"internalType": "uint128",
					"name": "roundDuration",
					"type": "uint128"
				},
				{
					"internalType": "uint128",
					"name": "roundGapTime",
					"type": "uint128"
				},
				{
					"internalType": "uint256",
					"name": "currentRound",
					"type": "uint256"
				}
			],
			"stateMutability": "view",
			"type": "function"
		},
		{
			"inputs": [
				{
					"internalType": "bytes32",
					"name": "poolId",
					"type": "bytes32"
				},
				{
					"internalType": "uint256",
					"name": "roundId",
					"type": "uint256"
				}
			],
			"name": "getRoundInfo",
			"outputs": [
				{
					"internalType": "uint128",
					"name": "startTime",
					"type": "uint128"
				},
				{
					"internalType": "uint128",
					"name": "endTime",
					"type": "uint128"
				},
				{
					"internalType": "uint128",
					"name": "leftTickets",
					"type": "uint128"
				},
				{
					"internalType": "uint256",
					"name": "vrfRequestId",
					"type": "uint256"
				},
				{
					"internalType": "uint32",
					"name": "winNumber",
					"type": "uint32"
				},
				{
					"internalType": "bool",
					"name": "isClaimed",
					"type": "bool"
				}
			],
			"stateMutability": "view",
			"type": "function"
		},
		{
			"inputs": [
				{
					"internalType": "bytes32",
					"name": "poolId",
					"type": "bytes32"
				},
				{
					"internalType": "uint256",
					"name": "roundId",
					"type": "uint256"
				}
			],
			"name": "getSoldTickets",
			"outputs": [
				{
					"internalType": "uint32[]",
					"name": "",
					"type": "uint32[]"
				}
			],
			"stateMutability": "view",
			"type": "function"
		},
		{
			"inputs": [
				{
					"internalType": "bytes32",
					"name": "poolId",
					"type": "bytes32"
				},
				{
					"internalType": "uint256",
					"name": "roundId",
					"type": "uint256"
				},
				{
					"internalType": "uint32",
					"name": "ticket",
					"type": "uint32"
				}
			],
			"name": "getTicketOwner",
			"outputs": [
				{
					"internalType": "address",
					"name": "owner",
					"type": "address"
				}
			],
			"stateMutability": "view",
			"type": "function"
		},
		{
			"inputs": [
				{
					"internalType": "address",
					"name": "user",
					"type": "address"
				}
			],
			"name": "getUnclaimedPrizes",
			"outputs": [
				{
					"internalType": "bytes32[]",
					"name": "poolIds",
					"type": "bytes32[]"
				},
				{
					"internalType": "uint256[]",
					"name": "roundIds",
					"type": "uint256[]"
				},
				{
					"internalType": "uint256",
					"name": "totalPrizes",
					"type": "uint256"
				}
			],
			"stateMutability": "view",
			"type": "function"
		},
		{
			"inputs": [
				{
					"internalType": "address",
					"name": "user",
					"type": "address"
				}
			],
			"name": "getWonParticipationRecords",
			"outputs": [
				{
					"components": [
						{
							"internalType": "bytes32",
							"name": "poolId",
							"type": "bytes32"
						},
						{
							"internalType": "uint256",
							"name": "roundId",
							"type": "uint256"
						},
						{
							"internalType": "uint256",
							"name": "timestamp",
							"type": "uint256"
						},
						{
							"internalType": "uint256",
							"name": "ticketsCount",
							"type": "uint256"
						},
						{
							"internalType": "uint32[]",
							"name": "tickets",
							"type": "uint32[]"
						}
					],
					"internalType": "struct IPoolManager.ParticipationRecord[]",
					"name": "records",
					"type": "tuple[]"
				},
				{
					"internalType": "uint256",
					"name": "totalPrizes",
					"type": "uint256"
				}
			],
			"stateMutability": "view",
			"type": "function"
		},
		{
			"inputs": [],
			"name": "owner",
			"outputs": [
				{
					"internalType": "address",
					"name": "",
					"type": "address"
				}
			],
			"stateMutability": "view",
			"type": "function"
		},
		{
			"inputs": [],
			"name": "referralFee",
			"outputs": [
				{
					"internalType": "uint24",
					"name": "",
					"type": "uint24"
				}
			],
			"stateMutability": "view",
			"type": "function"
		},
		{
			"inputs": [
				{
					"internalType": "address",
					"name": "referrer",
					"type": "address"
				}
			],
			"name": "referralRewardAccumulated",
			"outputs": [
				{
					"internalType": "uint256",
					"name": "",
					"type": "uint256"
				}
			],
			"stateMutability": "view",
			"type": "function"
		},
		{
			"inputs": [
				{
					"internalType": "address",
					"name": "referrer",
					"type": "address"
				}
			],
			"name": "referralRewardAccured",
			"outputs": [
				{
					"internalType": "uint256",
					"name": "",
					"type": "uint256"
				}
			],
			"stateMutability": "view",
			"type": "function"
		},
		{
			"inputs": [],
			"name": "renounceOwnership",
			"outputs": [],
			"stateMutability": "nonpayable",
			"type": "function"
		},
		{
			"inputs": [
				{
					"internalType": "address",
					"name": "vrfConsumer_",
					"type": "address"
				}
			],
			"name": "setVRFConsumer",
			"outputs": [],
			"stateMutability": "nonpayable",
			"type": "function"
		},
		{
			"inputs": [
				{
					"internalType": "address",
					"name": "newOwner",
					"type": "address"
				}
			],
			"name": "transferOwnership",
			"outputs": [],
			"stateMutability": "nonpayable",
			"type": "function"
		},
		{
			"inputs": [
				{
					"internalType": "uint24",
					"name": "newReferralFee",
					"type": "uint24"
				}
			],
			"name": "updateReferralFee",
			"outputs": [],
			"stateMutability": "nonpayable",
			"type": "function"
		},
		{
			"inputs": [],
			"name": "usdt",
			"outputs": [
				{
					"internalType": "contract IERC20",
					"name": "",
					"type": "address"
				}
			],
			"stateMutability": "view",
			"type": "function"
		},
		{
			"inputs": [],
			"name": "userRegistar",
			"outputs": [
				{
					"internalType": "contract IUserRegistar",
					"name": "",
					"type": "address"
				}
			],
			"stateMutability": "view",
			"type": "function"
		},
		{
			"inputs": [],
			"name": "vrfConsumer",
			"outputs": [
				{
					"internalType": "contract IVRFConsumer",
					"name": "",
					"type": "address"
				}
			],
			"stateMutability": "view",
			"type": "function"
		},
		{
			"inputs": [
				{
					"internalType": "address",
					"name": "to",
					"type": "address"
				},
				{
					"internalType": "uint256",
					"name": "amount",
					"type": "uint256"
				}
			],
			"name": "withdrawUsdt",
			"outputs": [],
			"stateMutability": "nonpayable",
			"type": "function"
		}
	]
}