{
	"data": {
		"bytecode": {
			"linkReferences": {},
			"object": "6101006040526003600260086101000a81548161ffff021916908361ffff160217905550620186a06002600a6101000a81548163ffffffff021916908363ffffffff160217905550348015610052575f80fd5b50604051616688380380616688833981810160405281019061007491906103e6565b82335f73ffffffffffffffffffffffffffffffffffffffff168173ffffffffffffffffffffffffffffffffffffffff16036100e6575f6040517f1e4fbdf70000000000000000000000000000000000000000000000000000000081526004016100dd919061047e565b60405180910390fd5b6100f58161021f60201b60201c565b508073ffffffffffffffffffffffffffffffffffffffff1660808173ffffffffffffffffffffffffffffffffffffffff168152505050855f60146101000a81548162ffffff021916908362ffffff1602179055508473ffffffffffffffffffffffffffffffffffffffff1660a08173ffffffffffffffffffffffffffffffffffffffff16815250508373ffffffffffffffffffffffffffffffffffffffff1660c08173ffffffffffffffffffffffffffffffffffffffff16815250508273ffffffffffffffffffffffffffffffffffffffff1660e08173ffffffffffffffffffffffffffffffffffffffff1681525050816001819055508060025f6101000a81548167ffffffffffffffff021916908367ffffffffffffffff160217905550505050505050610497565b5f805f9054906101000a900473ffffffffffffffffffffffffffffffffffffffff169050815f806101000a81548173ffffffffffffffffffffffffffffffffffffffff021916908373ffffffffffffffffffffffffffffffffffffffff1602179055508173ffffffffffffffffffffffffffffffffffffffff168173ffffffffffffffffffffffffffffffffffffffff167f8be0079c531659141344cd1fd0a4f28419497f9722a3daafe3b4186f6b6457e060405160405180910390a35050565b5f80fd5b5f62ffffff82169050919050565b6102fb816102e4565b8114610305575f80fd5b50565b5f81519050610316816102f2565b92915050565b5f73ffffffffffffffffffffffffffffffffffffffff82169050919050565b5f6103458261031c565b9050919050565b6103558161033b565b811461035f575f80fd5b50565b5f815190506103708161034c565b92915050565b5f819050919050565b61038881610376565b8114610392575f80fd5b50565b5f815190506103a38161037f565b92915050565b5f67ffffffffffffffff82169050919050565b6103c5816103a9565b81146103cf575f80fd5b50565b5f815190506103e0816103bc565b92915050565b5f805f805f8060c08789031215610400576103ff6102e0565b5b5f61040d89828a01610308565b965050602061041e89828a01610362565b955050604061042f89828a01610362565b945050606061044089828a01610362565b935050608061045189828a01610395565b92505060a061046289828a016103d2565b9150509295509295509295565b6104788161033b565b82525050565b5f6020820190506104915f83018461046f565b92915050565b60805160a05160c05160e05161617f6105095f395f8181611c340152818161333701526138ef01525f818161218c015281816125f301526130b301525f8181611597015281816121680152818161306b015281816140bb015261423201525f8181610cb50152610d09015261617f5ff3fe608060405234801561000f575f80fd5b506004361061020f575f3560e01c806384ae2bc611610123578063b2a89b08116100ab578063e7fa67e51161007a578063e7fa67e514610631578063eb1d28bb1461064d578063ed0924511461066b578063f19c3d5b14610687578063f2fde38b146106a55761020f565b8063b2a89b08146105bd578063cf248b70146105d9578063d13fe011146105f7578063e53a7345146106155761020f565b80638da5cb5b116100f25780638da5cb5b14610519578063a3e56fa814610537578063a84db89414610555578063acca07b114610571578063b0e8d086146105a15761020f565b806384ae2bc61461049357806386d32015146104b157806389ba4116146104e15780638cf7d45d146104fd5761020f565b80632f48ab7d116101a65780634930cc99116101755780634930cc99146103ed57806361728f391461041d5780636ed93dd01461043b5780636f8af12314610459578063715018a6146104895761020f565b80632f48ab7d146103515780632facd1391461036f5780633a8646321461038d5780633b0e443c146103bd5761020f565b806324f74697116101e257806324f74697146102cb57806325860103146102e95780632bbb1444146103195780632e5a74b9146103355761020f565b80630358abfc1461021357806309f2c019146102485780631fe543e31461027d57806321f6a57814610299575b5f80fd5b61022d60048036038101906102289190614a65565b6106c1565b60405161023f96959493929190614b14565b60405180910390f35b610262600480360381019061025d9190614b73565b6108ec565b60405161027496959493929190614b9e565b60405180910390f35b61029760048036038101906102929190614d4d565b610cb3565b005b6102b360048036038101906102ae9190614e01565b610d73565b6040516102c293929190614f9a565b60405180910390f35b6102d3611087565b6040516102e09190614fdd565b60405180910390f35b61030360048036038101906102fe9190614a65565b61109d565b60405161031091906150ad565b60405180910390f35b610333600480360381019061032e919061517b565b611160565b005b61034f600480360381019061034a9190614b73565b6115e3565b005b610359612166565b6040516103669190615267565b60405180910390f35b61037761218a565b60405161038491906152a0565b60405180910390f35b6103a760048036038101906103a29190614e01565b6121ae565b6040516103b491906153a1565b60405180910390f35b6103d760048036038101906103d291906153eb565b61227f565b6040516103e4919061544a565b60405180910390f35b61040760048036038101906104029190614e01565b6122c7565b6040516104149190615463565b60405180910390f35b6104256122dc565b604051610432919061548b565b60405180910390f35b6104436122e2565b60405161045091906154c1565b60405180910390f35b610473600480360381019061046e9190614e01565b6122e9565b60405161048091906153a1565b60405180910390f35b6104916125b4565b005b61049b6125c7565b6040516104a891906154c1565b60405180910390f35b6104cb60048036038101906104c69190614e01565b6125db565b6040516104d89190615463565b60405180910390f35b6104fb60048036038101906104f6919061552f565b6125f0565b005b610517600480360381019061051291906155d7565b61389e565b005b6105216138c6565b60405161052e919061544a565b60405180910390f35b61053f6138ed565b60405161054c9190615622565b60405180910390f35b61056f600480360381019061056a9190615678565b613911565b005b61058b60048036038101906105869190615703565b613944565b604051610598919061548b565b60405180910390f35b6105bb60048036038101906105b6919061578c565b613f76565b005b6105d760048036038101906105d291906157e1565b613fa2565b005b6105e161405a565b6040516105ee91906154c1565b60405180910390f35b6105ff61405f565b60405161060c919061581b565b60405180910390f35b61062f600480360381019061062a9190614e01565b614073565b005b61064b60048036038101906106469190614b73565b614193565b005b6106556141a5565b6040516106629190615843565b60405180910390f35b6106856004803603810190610680919061585c565b6141be565b005b61068f61427a565b60405161069c919061589a565b60405180910390f35b6106bf60048036038101906106ba9190614e01565b6142d0565b005b5f805f805f805f60085f8a81526020019081526020015f206003016001896106e991906158e7565b815481106106fa576106f961591a565b5b905f5260205f2090600502016040518060e00160405290815f82015f9054906101000a90046fffffffffffffffffffffffffffffffff166fffffffffffffffffffffffffffffffff166fffffffffffffffffffffffffffffffff1681526020015f820160109054906101000a90046fffffffffffffffffffffffffffffffff166fffffffffffffffffffffffffffffffff166fffffffffffffffffffffffffffffffff168152602001600182015f9054906101000a90046fffffffffffffffffffffffffffffffff166fffffffffffffffffffffffffffffffff166fffffffffffffffffffffffffffffffff16815260200160028201548152602001600382015f9054906101000a900463ffffffff1663ffffffff1663ffffffff1681526020016003820160049054906101000a900460ff16151515158152602001600482018054806020026020016040519081016040528092919081815260200182805480156108ad57602002820191905f5260205f20905f905b82829054906101000a900463ffffffff1663ffffffff16815260200190600401906020826003010492830192600103820291508084116108705790505b5050505050815250509050805f01519650806020015195508060400151945080606001519350806080015192508060a001519150509295509295509295565b5f805f805f805f60085f8981526020019081526020015f206040518060c00160405290815f82015f9054906101000a90046fffffffffffffffffffffffffffffffff166fffffffffffffffffffffffffffffffff166fffffffffffffffffffffffffffffffff1681526020015f820160109054906101000a90046fffffffffffffffffffffffffffffffff166fffffffffffffffffffffffffffffffff166fffffffffffffffffffffffffffffffff168152602001600182015f9054906101000a90046fffffffffffffffffffffffffffffffff166fffffffffffffffffffffffffffffffff166fffffffffffffffffffffffffffffffff1681526020016001820160109054906101000a90046fffffffffffffffffffffffffffffffff166fffffffffffffffffffffffffffffffff166fffffffffffffffffffffffffffffffff168152602001600282015f9054906101000a90046fffffffffffffffffffffffffffffffff166fffffffffffffffffffffffffffffffff166fffffffffffffffffffffffffffffffff16815260200160038201805480602002602001604051908101604052809291908181526020015f905b82821015610c75578382905f5260205f2090600502016040518060e00160405290815f82015f9054906101000a90046fffffffffffffffffffffffffffffffff166fffffffffffffffffffffffffffffffff166fffffffffffffffffffffffffffffffff1681526020015f820160109054906101000a90046fffffffffffffffffffffffffffffffff166fffffffffffffffffffffffffffffffff166fffffffffffffffffffffffffffffffff168152602001600182015f9054906101000a90046fffffffffffffffffffffffffffffffff166fffffffffffffffffffffffffffffffff166fffffffffffffffffffffffffffffffff16815260200160028201548152602001600382015f9054906101000a900463ffffffff1663ffffffff1663ffffffff1681526020016003820160049054906101000a900460ff1615151515815260200160048201805480602002602001604051908101604052809291908181526020018280548015610c5d57602002820191905f5260205f20905f905b82829054906101000a900463ffffffff1663ffffffff1681526020019060040190602082600301049283019260010382029150808411610c205790505b50505050508152505081526020019060010190610aa0565b50505050815250509050805f01519650806020015195508060400151945080606001519350806080015192508060a001515191505091939550919395565b7f000000000000000000000000000000000000000000000000000000000000000073ffffffffffffffffffffffffffffffffffffffff163373ffffffffffffffffffffffffffffffffffffffff1614610d6557337f00000000000000000000000000000000000000000000000000000000000000006040517f1cf993f4000000000000000000000000000000000000000000000000000000008152600401610d5c929190615947565b60405180910390fd5b610d6f8282614354565b5050565b6060805f80610d81856122e9565b90505f815167ffffffffffffffff811115610d9f57610d9e614c11565b5b604051908082528060200260200182016040528015610dcd5781602001602082028036833780820191505090505b5090505f825167ffffffffffffffff811115610dec57610deb614c11565b5b604051908082528060200260200182016040528015610e1a5781602001602082028036833780820191505090505b5090505f805f90505b8451811015610f59575f858281518110610e4057610e3f61591a565b5b602002602001015190505f815f015190505f8260200151905060085f8381526020019081526020015f20600301600182610e7a91906158e7565b81548110610e8b57610e8a61591a565b5b905f5260205f20906005020160030160049054906101000a900460ff16610f495760085f8381526020019081526020015f205f015f9054906101000a90046fffffffffffffffffffffffffffffffff166fffffffffffffffffffffffffffffffff1689610ef8919061596e565b985081878681518110610f0e57610f0d61591a565b5b60200260200101818152505080868681518110610f2e57610f2d61591a565b5b6020026020010181815250508480610f45906159a1565b9550505b5050508080600101915050610e23565b508067ffffffffffffffff811115610f7457610f73614c11565b5b604051908082528060200260200182016040528015610fa25781602001602082028036833780820191505090505b5096508067ffffffffffffffff811115610fbf57610fbe614c11565b5b604051908082528060200260200182016040528015610fed5781602001602082028036833780820191505090505b5095505f5b8181101561107b5783818151811061100d5761100c61591a565b5b60200260200101518882815181106110285761102761591a565b5b6020026020010181815250508281815181106110475761104661591a565b5b60200260200101518782815181106110625761106161591a565b5b6020026020010181815250508080600101915050610ff2565b50505050509193909250565b6002600a9054906101000a900463ffffffff1681565b606060085f8481526020019081526020015f206003016001836110c091906158e7565b815481106110d1576110d061591a565b5b905f5260205f20906005020160040180548060200260200160405190810160405280929190818152602001828054801561115357602002820191905f5260205f20905f905b82829054906101000a900463ffffffff1663ffffffff16815260200190600401906020826003010492830192600103820291508084116111165790505b5050505050905092915050565b81819050848490501461119f576040517fdba17af500000000000000000000000000000000000000000000000000000000815260040160405180910390fd5b5f805f90505b8585905081101561158f575f60085f8888858181106111c7576111c661591a565b5b9050602002013581526020019081526020015f2060030160018686858181106111f3576111f261591a565b5b9050602002013561120491906158e7565b815481106112155761121461591a565b5b905f5260205f2090600502016003015f9054906101000a900463ffffffff1690505f60085f89898681811061124d5761124c61591a565b5b9050602002013581526020019081526020015f2060030160018787868181106112795761127861591a565b5b9050602002013561128a91906158e7565b8154811061129b5761129a61591a565b5b905f5260205f20906005020160030160049054906101000a900460ff1690505f8263ffffffff16036112f9576040517fcb84433000000000000000000000000000000000000000000000000000000000815260040160405180910390fd5b8015611331576040517f646cf55800000000000000000000000000000000000000000000000000000000815260040160405180910390fd5b60055f8989868181106113475761134661591a565b5b9050602002013581526020019081526020015f205f87878681811061136f5761136e61591a565b5b9050602002013581526020019081526020015f205f8363ffffffff1663ffffffff1681526020019081526020015f205f9054906101000a900473ffffffffffffffffffffffffffffffffffffffff1673ffffffffffffffffffffffffffffffffffffffff163373ffffffffffffffffffffffffffffffffffffffff1614611422576040517f618c724200000000000000000000000000000000000000000000000000000000815260040160405180910390fd5b60085f8989868181106114385761143761591a565b5b9050602002013581526020019081526020015f205f015f9054906101000a90046fffffffffffffffffffffffffffffffff166fffffffffffffffffffffffffffffffff1684611487919061596e565b9350600160085f8a8a878181106114a1576114a061591a565b5b9050602002013581526020019081526020015f2060030160018888878181106114cd576114cc61591a565b5b905060200201356114de91906158e7565b815481106114ef576114ee61591a565b5b905f5260205f20906005020160030160046101000a81548160ff0219169083151502179055507f1128bee023f7dcf9b3f27e6d488df4c2b5a149077a2e3437a16e8dfdbfe0f38d8888858181106115495761154861591a565b5b905060200201358787868181106115635761156261591a565b5b905060200201356040516115789291906159e8565b60405180910390a1505080806001019150506111a5565b506115db86827f000000000000000000000000000000000000000000000000000000000000000073ffffffffffffffffffffffffffffffffffffffff1661446b9092919063ffffffff16565b505050505050565b5f60085f8381526020019081526020015f206040518060c00160405290815f82015f9054906101000a90046fffffffffffffffffffffffffffffffff166fffffffffffffffffffffffffffffffff166fffffffffffffffffffffffffffffffff1681526020015f820160109054906101000a90046fffffffffffffffffffffffffffffffff166fffffffffffffffffffffffffffffffff166fffffffffffffffffffffffffffffffff168152602001600182015f9054906101000a90046fffffffffffffffffffffffffffffffff166fffffffffffffffffffffffffffffffff166fffffffffffffffffffffffffffffffff1681526020016001820160109054906101000a90046fffffffffffffffffffffffffffffffff166fffffffffffffffffffffffffffffffff166fffffffffffffffffffffffffffffffff168152602001600282015f9054906101000a90046fffffffffffffffffffffffffffffffff166fffffffffffffffffffffffffffffffff166fffffffffffffffffffffffffffffffff16815260200160038201805480602002602001604051908101604052809291908181526020015f905b82821015611966578382905f5260205f2090600502016040518060e00160405290815f82015f9054906101000a90046fffffffffffffffffffffffffffffffff166fffffffffffffffffffffffffffffffff166fffffffffffffffffffffffffffffffff1681526020015f820160109054906101000a90046fffffffffffffffffffffffffffffffff166fffffffffffffffffffffffffffffffff166fffffffffffffffffffffffffffffffff168152602001600182015f9054906101000a90046fffffffffffffffffffffffffffffffff166fffffffffffffffffffffffffffffffff166fffffffffffffffffffffffffffffffff16815260200160028201548152602001600382015f9054906101000a900463ffffffff1663ffffffff1663ffffffff1681526020016003820160049054906101000a900460ff161515151581526020016004820180548060200260200160405190810160405280929190818152602001828054801561194e57602002820191905f5260205f20905f905b82829054906101000a900463ffffffff1663ffffffff16815260200190600401906020826003010492830192600103820291508084116119115790505b50505050508152505081526020019060010190611791565b505050508152505090505f8160a001515190505f81036119b2576040517f76ecffc000000000000000000000000000000000000000000000000000000000815260040160405180910390fd5b5f60085f8581526020019081526020015f206003016001836119d491906158e7565b815481106119e5576119e461591a565b5b905f5260205f2090600502016040518060e00160405290815f82015f9054906101000a90046fffffffffffffffffffffffffffffffff166fffffffffffffffffffffffffffffffff166fffffffffffffffffffffffffffffffff1681526020015f820160109054906101000a90046fffffffffffffffffffffffffffffffff166fffffffffffffffffffffffffffffffff166fffffffffffffffffffffffffffffffff168152602001600182015f9054906101000a90046fffffffffffffffffffffffffffffffff166fffffffffffffffffffffffffffffffff166fffffffffffffffffffffffffffffffff16815260200160028201548152602001600382015f9054906101000a900463ffffffff1663ffffffff1663ffffffff1681526020016003820160049054906101000a900460ff1615151515815260200160048201805480602002602001604051908101604052809291908181526020018280548015611b9857602002820191905f5260205f20905f905b82829054906101000a900463ffffffff1663ffffffff1681526020019060040190602082600301049283019260010382029150808411611b5b5790505b505050505081525050905080602001516fffffffffffffffffffffffffffffffff16421015611bf3576040517fd3018d1800000000000000000000000000000000000000000000000000000000815260040160405180910390fd5b5f81606001511115611c31576040517f097e1d9b00000000000000000000000000000000000000000000000000000000815260040160405180910390fd5b5f7f000000000000000000000000000000000000000000000000000000000000000073ffffffffffffffffffffffffffffffffffffffff16635d3b1d3060015460025f9054906101000a900467ffffffffffffffff16600260089054906101000a900461ffff166002600a9054906101000a900463ffffffff1660016040518663ffffffff1660e01b8152600401611ccd959493929190615a48565b6020604051808303815f875af1158015611ce9573d5f803e3d5ffd5b505050506040513d601f19601f82011682018060405250810190611d0d9190615aad565b905060405180604001604052808681526020018481525060075f8381526020019081526020015f205f820151815f015560208201518160010155905050808260600181815250508160085f8781526020019081526020015f20600301600185611d7691906158e7565b81548110611d8757611d8661591a565b5b905f5260205f2090600502015f820151815f015f6101000a8154816fffffffffffffffffffffffffffffffff02191690836fffffffffffffffffffffffffffffffff1602179055506020820151815f0160106101000a8154816fffffffffffffffffffffffffffffffff02191690836fffffffffffffffffffffffffffffffff1602179055506040820151816001015f6101000a8154816fffffffffffffffffffffffffffffffff02191690836fffffffffffffffffffffffffffffffff160217905550606082015181600201556080820151816003015f6101000a81548163ffffffff021916908363ffffffff16021790555060a08201518160030160046101000a81548160ff02191690831515021790555060c0820151816004019080519060200190611eb79291906148ff565b509050505f846080015142611ecc9190615ad8565b90505f856060015182611edf9190615ad8565b90505f6040518060e00160405280846fffffffffffffffffffffffffffffffff168152602001836fffffffffffffffffffffffffffffffff16815260200188602001516fffffffffffffffffffffffffffffffff1681526020015f81526020015f63ffffffff1681526020015f151581526020015f67ffffffffffffffff811115611f6d57611f6c614c11565b5b604051908082528060200260200182016040528015611f9b5781602001602082028036833780820191505090505b50815250905060085f8981526020019081526020015f2060030181908060018154018082558091505060019003905f5260205f2090600502015f909190919091505f820151815f015f6101000a8154816fffffffffffffffffffffffffffffffff02191690836fffffffffffffffffffffffffffffffff1602179055506020820151815f0160106101000a8154816fffffffffffffffffffffffffffffffff02191690836fffffffffffffffffffffffffffffffff1602179055506040820151816001015f6101000a8154816fffffffffffffffffffffffffffffffff02191690836fffffffffffffffffffffffffffffffff160217905550606082015181600201556080820151816003015f6101000a81548163ffffffff021916908363ffffffff16021790555060a08201518160030160046101000a81548160ff02191690831515021790555060c08201518160040190805190602001906121009291906148ff565b5050505f60085f8a81526020019081526020015f206003018054905090507f9b4e1f1b6df74eff26420e77ce7891d410b236932a083b7c18d599fbd654a8c7898286866040516121539493929190615b1b565b60405180910390a1505050505050505050565b7f000000000000000000000000000000000000000000000000000000000000000081565b7f000000000000000000000000000000000000000000000000000000000000000081565b606060065f8373ffffffffffffffffffffffffffffffffffffffff1673ffffffffffffffffffffffffffffffffffffffff1681526020019081526020015f20805480602002602001604051908101604052809291908181526020015f905b82821015612274578382905f5260205f2090600302016040518060600160405290815f820154815260200160018201548152602001600282015f9054906101000a900463ffffffff1663ffffffff1663ffffffff16815250508152602001906001019061220c565b505050509050919050565b6005602052825f5260405f20602052815f5260405f20602052805f5260405f205f92509250509054906101000a900473ffffffffffffffffffffffffffffffffffffffff1681565b6004602052805f5260405f205f915090505481565b60015481565b620f424081565b60605f60065f8473ffffffffffffffffffffffffffffffffffffffff1673ffffffffffffffffffffffffffffffffffffffff1681526020019081526020015f20805480602002602001604051908101604052809291908181526020015f905b828210156123b0578382905f5260205f2090600302016040518060600160405290815f820154815260200160018201548152602001600282015f9054906101000a900463ffffffff1663ffffffff1663ffffffff168152505081526020019060010190612348565b5050505090505f815167ffffffffffffffff8111156123d2576123d1614c11565b5b6040519080825280602002602001820160405280156124005781602001602082028036833780820191505090505b5090505f805f90505b83518110156124ea575f8482815181106124265761242561591a565b5b602002602001015190505f815f015190505f826020015190505f60085f8481526020019081526020015f2060030160018361246191906158e7565b815481106124725761247161591a565b5b905f5260205f2090600502016003015f9054906101000a900463ffffffff169050836040015163ffffffff168163ffffffff16036124d957848787815181106124be576124bd61591a565b5b60200260200101818152505085806124d5906159a1565b9650505b505050508080600101915050612409565b508067ffffffffffffffff81111561250557612504614c11565b5b60405190808252806020026020018201604052801561253e57816020015b61252b6149ac565b8152602001906001900390816125235790505b5093505f5b818110156125ab578383828151811061255f5761255e61591a565b5b6020026020010151815181106125785761257761591a565b5b60200260200101518582815181106125935761259261591a565b5b60200260200101819052508080600101915050612543565b50505050919050565b6125bc6144ea565b6125c55f614571565b565b5f60149054906101000a900462ffffff1681565b6003602052805f5260405f205f915090505481565b5f7f000000000000000000000000000000000000000000000000000000000000000073ffffffffffffffffffffffffffffffffffffffff16632b956ff7336040518263ffffffff1660e01b815260040161264a919061544a565b602060405180830381865afa158015612665573d5f803e3d5ffd5b505050506040513d601f19601f820116820180604052508101906126899190615aad565b036126c0576040517faba4733900000000000000000000000000000000000000000000000000000000815260040160405180910390fd5b5f82829050036126fc576040517f5e7719ff00000000000000000000000000000000000000000000000000000000815260040160405180910390fd5b606462ffffff1682829050111561273f576040517f3f4ac48600000000000000000000000000000000000000000000000000000000815260040160405180910390fd5b5f60085f8681526020019081526020015f206040518060c00160405290815f82015f9054906101000a90046fffffffffffffffffffffffffffffffff166fffffffffffffffffffffffffffffffff166fffffffffffffffffffffffffffffffff1681526020015f820160109054906101000a90046fffffffffffffffffffffffffffffffff166fffffffffffffffffffffffffffffffff166fffffffffffffffffffffffffffffffff168152602001600182015f9054906101000a90046fffffffffffffffffffffffffffffffff166fffffffffffffffffffffffffffffffff166fffffffffffffffffffffffffffffffff1681526020016001820160109054906101000a90046fffffffffffffffffffffffffffffffff166fffffffffffffffffffffffffffffffff166fffffffffffffffffffffffffffffffff168152602001600282015f9054906101000a90046fffffffffffffffffffffffffffffffff166fffffffffffffffffffffffffffffffff166fffffffffffffffffffffffffffffffff16815260200160038201805480602002602001604051908101604052809291908181526020015f905b82821015612ac2578382905f5260205f2090600502016040518060e00160405290815f82015f9054906101000a90046fffffffffffffffffffffffffffffffff166fffffffffffffffffffffffffffffffff166fffffffffffffffffffffffffffffffff1681526020015f820160109054906101000a90046fffffffffffffffffffffffffffffffff166fffffffffffffffffffffffffffffffff166fffffffffffffffffffffffffffffffff168152602001600182015f9054906101000a90046fffffffffffffffffffffffffffffffff166fffffffffffffffffffffffffffffffff166fffffffffffffffffffffffffffffffff16815260200160028201548152602001600382015f9054906101000a900463ffffffff1663ffffffff1663ffffffff1681526020016003820160049054906101000a900460ff1615151515815260200160048201805480602002602001604051908101604052809291908181526020018280548015612aaa57602002820191905f5260205f20905f905b82829054906101000a900463ffffffff1663ffffffff1681526020019060040190602082600301049283019260010382029150808411612a6d5790505b505050505081525050815260200190600101906128ed565b505050508152505090505f8160a00151600186612adf91906158e7565b81518110612af057612aef61591a565b5b60200260200101519050805f01516fffffffffffffffffffffffffffffffff16421015612b49576040517f225c165c00000000000000000000000000000000000000000000000000000000815260040160405180910390fd5b80602001516fffffffffffffffffffffffffffffffff164210612b98576040517f6b5fd31b00000000000000000000000000000000000000000000000000000000815260040160405180910390fd5b80604001516fffffffffffffffffffffffffffffffff16848490501115612beb576040517f1fa9ff6c00000000000000000000000000000000000000000000000000000000815260040160405180910390fd5b5f5b8484905081101561303a575f858583818110612c0c57612c0b61591a565b5b9050602002016020810190612c21919061578c565b63ffffffff161480612c75575082602001516fffffffffffffffffffffffffffffffff16858583818110612c5857612c5761591a565b5b9050602002016020810190612c6d919061578c565b63ffffffff16115b15612cde57848482818110612c8d57612c8c61591a565b5b9050602002016020810190612ca2919061578c565b6040517ff8d002b2000000000000000000000000000000000000000000000000000000008152600401612cd59190614fdd565b60405180910390fd5b5f73ffffffffffffffffffffffffffffffffffffffff1660055f8981526020019081526020015f205f8881526020019081526020015f205f878785818110612d2957612d2861591a565b5b9050602002016020810190612d3e919061578c565b63ffffffff1663ffffffff1681526020019081526020015f205f9054906101000a900473ffffffffffffffffffffffffffffffffffffffff1673ffffffffffffffffffffffffffffffffffffffff1614612df657848482818110612da557612da461591a565b5b9050602002016020810190612dba919061578c565b6040517f8300aba6000000000000000000000000000000000000000000000000000000008152600401612ded9190614fdd565b60405180910390fd5b3360055f8981526020019081526020015f205f8881526020019081526020015f205f878785818110612e2b57612e2a61591a565b5b9050602002016020810190612e40919061578c565b63ffffffff1663ffffffff1681526020019081526020015f205f6101000a81548173ffffffffffffffffffffffffffffffffffffffff021916908373ffffffffffffffffffffffffffffffffffffffff16021790555060085f8881526020019081526020015f20600301600187612eb791906158e7565b81548110612ec857612ec761591a565b5b905f5260205f209060050201600401858583818110612eea57612ee961591a565b5b9050602002016020810190612eff919061578c565b908060018154018082558091505060019003905f5260205f2090600891828204019190066004029091909190916101000a81548163ffffffff021916908363ffffffff16021790555060065f3373ffffffffffffffffffffffffffffffffffffffff1673ffffffffffffffffffffffffffffffffffffffff1681526020019081526020015f206040518060600160405280898152602001888152602001878785818110612faf57612fae61591a565b5b9050602002016020810190612fc4919061578c565b63ffffffff16815250908060018154018082558091505060019003905f5260205f2090600302015f909190919091505f820151815f0155602082015181600101556040820151816002015f6101000a81548163ffffffff021916908363ffffffff16021790555050508080600101915050612bed565b505f82604001518585905061304f9190615b5e565b90506130b03330836fffffffffffffffffffffffffffffffff167f000000000000000000000000000000000000000000000000000000000000000073ffffffffffffffffffffffffffffffffffffffff16614632909392919063ffffffff16565b5f7f000000000000000000000000000000000000000000000000000000000000000073ffffffffffffffffffffffffffffffffffffffff16634a9fefc7336040518263ffffffff1660e01b815260040161310a919061544a565b602060405180830381865afa158015613125573d5f803e3d5ffd5b505050506040513d601f19601f820116820180604052508101906131499190615bae565b90505f73ffffffffffffffffffffffffffffffffffffffff168173ffffffffffffffffffffffffffffffffffffffff1614613281575f620f424062ffffff165f60149054906101000a900462ffffff1662ffffff16846131a99190615b5e565b6131b39190615c06565b9050806fffffffffffffffffffffffffffffffff1660045f8473ffffffffffffffffffffffffffffffffffffffff1673ffffffffffffffffffffffffffffffffffffffff1681526020019081526020015f205f828254613213919061596e565b92505081905550806fffffffffffffffffffffffffffffffff1660035f8473ffffffffffffffffffffffffffffffffffffffff1673ffffffffffffffffffffffffffffffffffffffff1681526020019081526020015f205f828254613278919061596e565b92505081905550505b85859050836040018181516132969190615c36565b9150906fffffffffffffffffffffffffffffffff1690816fffffffffffffffffffffffffffffffff16815250503373ffffffffffffffffffffffffffffffffffffffff167ff0523de2f627f3c0bef4480ae1fdc6922de2aff9254c3f2df3fcaf121d5470bb8989898960405161330f9493929190615cff565b60405180910390a25f83604001516fffffffffffffffffffffffffffffffff160361372d575f7f000000000000000000000000000000000000000000000000000000000000000073ffffffffffffffffffffffffffffffffffffffff16635d3b1d3060015460025f9054906101000a900467ffffffffffffffff16600260089054906101000a900461ffff166002600a9054906101000a900463ffffffff1660016040518663ffffffff1660e01b81526004016133d0959493929190615a48565b6020604051808303815f875af11580156133ec573d5f803e3d5ffd5b505050506040513d601f19601f820116820180604052508101906134109190615aad565b905060405180604001604052808a81526020018981525060075f8381526020019081526020015f205f820151815f015560208201518160010155905050808460600181815250504284602001906fffffffffffffffffffffffffffffffff1690816fffffffffffffffffffffffffffffffff16815250505f8560800151426134989190615ad8565b90505f8660600151826134ab9190615ad8565b90505f6040518060e00160405280846fffffffffffffffffffffffffffffffff168152602001836fffffffffffffffffffffffffffffffff16815260200189602001516fffffffffffffffffffffffffffffffff1681526020015f81526020015f63ffffffff1681526020015f151581526020015f67ffffffffffffffff81111561353957613538614c11565b5b6040519080825280602002602001820160405280156135675781602001602082028036833780820191505090505b50815250905060085f8d81526020019081526020015f2060030181908060018154018082558091505060019003905f5260205f2090600502015f909190919091505f820151815f015f6101000a8154816fffffffffffffffffffffffffffffffff02191690836fffffffffffffffffffffffffffffffff1602179055506020820151815f0160106101000a8154816fffffffffffffffffffffffffffffffff02191690836fffffffffffffffffffffffffffffffff1602179055506040820151816001015f6101000a8154816fffffffffffffffffffffffffffffffff02191690836fffffffffffffffffffffffffffffffff160217905550606082015181600201556080820151816003015f6101000a81548163ffffffff021916908363ffffffff16021790555060a08201518160030160046101000a81548160ff02191690831515021790555060c08201518160040190805190602001906136cc9291906148ff565b5050505f60085f8e81526020019081526020015f206003018054905090507f9b4e1f1b6df74eff26420e77ce7891d410b236932a083b7c18d599fbd654a8c78d82868660405161371f9493929190615b1b565b60405180910390a150505050505b8260085f8a81526020019081526020015f2060030160018961374f91906158e7565b815481106137605761375f61591a565b5b905f5260205f2090600502015f820151815f015f6101000a8154816fffffffffffffffffffffffffffffffff02191690836fffffffffffffffffffffffffffffffff1602179055506020820151815f0160106101000a8154816fffffffffffffffffffffffffffffffff02191690836fffffffffffffffffffffffffffffffff1602179055506040820151816001015f6101000a8154816fffffffffffffffffffffffffffffffff02191690836fffffffffffffffffffffffffffffffff160217905550606082015181600201556080820151816003015f6101000a81548163ffffffff021916908363ffffffff16021790555060a08201518160030160046101000a81548160ff02191690831515021790555060c08201518160040190805190602001906138909291906148ff565b509050505050505050505050565b6138a66144ea565b80600260086101000a81548161ffff021916908361ffff16021790555050565b5f805f9054906101000a900473ffffffffffffffffffffffffffffffffffffffff16905090565b7f000000000000000000000000000000000000000000000000000000000000000081565b6139196144ea565b8060025f6101000a81548167ffffffffffffffff021916908367ffffffffffffffff16021790555050565b5f61394d6144ea565b5f8760ff1603613989576040517fbb90937d00000000000000000000000000000000000000000000000000000000815260040160405180910390fd5b5f866fffffffffffffffffffffffffffffffff16036139d4576040517f7eac88d900000000000000000000000000000000000000000000000000000000815260040160405180910390fd5b5f846fffffffffffffffffffffffffffffffff1603613a1f576040517f06f6625700000000000000000000000000000000000000000000000000000000815260040160405180910390fd5b42826fffffffffffffffffffffffffffffffff161015613a6b576040517fb290253c00000000000000000000000000000000000000000000000000000000815260040160405180910390fd5b5f87600a613a799190615e6c565b90508681878787604051602001613a94959493929190615eb6565b6040516020818303038152906040528051906020012091505f60085f8481526020019081526020015f205f015f9054906101000a90046fffffffffffffffffffffffffffffffff166fffffffffffffffffffffffffffffffff161115613b26576040517ff48e3c2600000000000000000000000000000000000000000000000000000000815260040160405180910390fd5b8660085f8481526020019081526020015f205f015f6101000a8154816fffffffffffffffffffffffffffffffff02191690836fffffffffffffffffffffffffffffffff1602179055508060085f8481526020019081526020015f205f0160106101000a8154816fffffffffffffffffffffffffffffffff02191690836fffffffffffffffffffffffffffffffff1602179055508560085f8481526020019081526020015f206001015f6101000a8154816fffffffffffffffffffffffffffffffff02191690836fffffffffffffffffffffffffffffffff1602179055508460085f8481526020019081526020015f2060010160106101000a8154816fffffffffffffffffffffffffffffffff02191690836fffffffffffffffffffffffffffffffff1602179055508360085f8481526020019081526020015f206002015f6101000a8154816fffffffffffffffffffffffffffffffff02191690836fffffffffffffffffffffffffffffffff1602179055505f6040518060e00160405280856fffffffffffffffffffffffffffffffff1681526020018786613cc89190615ad8565b6fffffffffffffffffffffffffffffffff168152602001836fffffffffffffffffffffffffffffffff1681526020015f81526020015f63ffffffff1681526020015f151581526020015f67ffffffffffffffff811115613d2b57613d2a614c11565b5b604051908082528060200260200182016040528015613d595781602001602082028036833780820191505090505b50815250905060085f8481526020019081526020015f2060030181908060018154018082558091505060019003905f5260205f2090600502015f909190919091505f820151815f015f6101000a8154816fffffffffffffffffffffffffffffffff02191690836fffffffffffffffffffffffffffffffff1602179055506020820151815f0160106101000a8154816fffffffffffffffffffffffffffffffff02191690836fffffffffffffffffffffffffffffffff1602179055506040820151816001015f6101000a8154816fffffffffffffffffffffffffffffffff02191690836fffffffffffffffffffffffffffffffff160217905550606082015181600201556080820151816003015f6101000a81548163ffffffff021916908363ffffffff16021790555060a08201518160030160046101000a81548160ff02191690831515021790555060c0820151816004019080519060200190613ebe9291906148ff565b505050600983908060018154018082558091505060019003905f5260205f20015f90919091909150557f3c2758c266cec0bfbf96542a5ea303429faec587fb478c002bc94c4742a837f2888389898988604051613f2096959493929190615f07565b60405180910390a17f9b4e1f1b6df74eff26420e77ce7891d410b236932a083b7c18d599fbd654a8c7836001868460200151604051613f629493929190615f96565b60405180910390a150509695505050505050565b613f7e6144ea565b806002600a6101000a81548163ffffffff021916908363ffffffff16021790555050565b613faa6144ea565b620f424062ffffff168162ffffff1610613ff0576040517f23c0b71c00000000000000000000000000000000000000000000000000000000815260040160405180910390fd5b7fa81633b0c4a1ad81d8ca7c4930a87349bcad69f6b8b39c5e91b64c0b674aaf855f60149054906101000a900462ffffff1682604051614031929190615fd9565b60405180910390a1805f60146101000a81548162ffffff021916908362ffffff16021790555050565b606481565b600260089054906101000a900461ffff1681565b5f60045f3373ffffffffffffffffffffffffffffffffffffffff1673ffffffffffffffffffffffffffffffffffffffff1681526020019081526020015f205490506140ff82827f000000000000000000000000000000000000000000000000000000000000000073ffffffffffffffffffffffffffffffffffffffff1661446b9092919063ffffffff16565b5f60045f3373ffffffffffffffffffffffffffffffffffffffff1673ffffffffffffffffffffffffffffffffffffffff1681526020019081526020015f20819055503373ffffffffffffffffffffffffffffffffffffffff167f99025a6c572f7d11c4d4d32f273dd2dcf2d8841a574e65fa8e35d718a231370b826040516141879190615463565b60405180910390a25050565b61419b6144ea565b8060018190555050565b60025f9054906101000a900467ffffffffffffffff1681565b6141c66144ea565b5f73ffffffffffffffffffffffffffffffffffffffff168273ffffffffffffffffffffffffffffffffffffffff160361422b576040517fd92e233d00000000000000000000000000000000000000000000000000000000815260040160405180910390fd5b61427682827f000000000000000000000000000000000000000000000000000000000000000073ffffffffffffffffffffffffffffffffffffffff1661446b9092919063ffffffff16565b5050565b606060098054806020026020016040519081016040528092919081815260200182805480156142c657602002820191905f5260205f20905b8154815260200190600101908083116142b2575b5050505050905090565b6142d86144ea565b5f73ffffffffffffffffffffffffffffffffffffffff168173ffffffffffffffffffffffffffffffffffffffff1603614348575f6040517f1e4fbdf700000000000000000000000000000000000000000000000000000000815260040161433f919061544a565b60405180910390fd5b61435181614571565b50565b5f60075f8481526020019081526020015f206040518060400160405290815f820154815260200160018201548152505090505f600160085f845f015181526020019081526020015f205f0160109054906101000a90046fffffffffffffffffffffffffffffffff166fffffffffffffffffffffffffffffffff16845f815181106143e1576143e061591a565b5b60200260200101516143f39190616000565b6143fd919061596e565b90508060085f845f015181526020019081526020015f206003016001846020015161442891906158e7565b815481106144395761443861591a565b5b905f5260205f2090600502016003015f6101000a81548163ffffffff021916908363ffffffff16021790555050505050565b6144e5838473ffffffffffffffffffffffffffffffffffffffff1663a9059cbb858560405160240161449e929190616030565b604051602081830303815290604052915060e01b6020820180517bffffffffffffffffffffffffffffffffffffffffffffffffffffffff83818316178352505050506146b4565b505050565b6144f2614749565b73ffffffffffffffffffffffffffffffffffffffff166145106138c6565b73ffffffffffffffffffffffffffffffffffffffff161461456f57614533614749565b6040517f118cdaa7000000000000000000000000000000000000000000000000000000008152600401614566919061544a565b60405180910390fd5b565b5f805f9054906101000a900473ffffffffffffffffffffffffffffffffffffffff169050815f806101000a81548173ffffffffffffffffffffffffffffffffffffffff021916908373ffffffffffffffffffffffffffffffffffffffff1602179055508173ffffffffffffffffffffffffffffffffffffffff168173ffffffffffffffffffffffffffffffffffffffff167f8be0079c531659141344cd1fd0a4f28419497f9722a3daafe3b4186f6b6457e060405160405180910390a35050565b6146ae848573ffffffffffffffffffffffffffffffffffffffff166323b872dd86868660405160240161466793929190616057565b604051602081830303815290604052915060e01b6020820180517bffffffffffffffffffffffffffffffffffffffffffffffffffffffff83818316178352505050506146b4565b50505050565b5f6146de828473ffffffffffffffffffffffffffffffffffffffff1661475090919063ffffffff16565b90505f81511415801561470257508080602001905181019061470091906160b6565b155b1561474457826040517f5274afe700000000000000000000000000000000000000000000000000000000815260040161473b919061544a565b60405180910390fd5b505050565b5f33905090565b606061475d83835f614765565b905092915050565b6060814710156147ac57306040517fcd7860590000000000000000000000000000000000000000000000000000000081526004016147a3919061544a565b60405180910390fd5b5f808573ffffffffffffffffffffffffffffffffffffffff1684866040516147d49190616133565b5f6040518083038185875af1925050503d805f811461480e576040519150601f19603f3d011682016040523d82523d5f602084013e614813565b606091505b509150915061482386838361482e565b925050509392505050565b6060826148435761483e826148bb565b6148b3565b5f825114801561486957505f8473ffffffffffffffffffffffffffffffffffffffff163b145b156148ab57836040517f9996b3150000000000000000000000000000000000000000000000000000000081526004016148a2919061544a565b60405180910390fd5b8190506148b4565b5b9392505050565b5f815111156148cd5780518082602001fd5b6040517f1425ea4200000000000000000000000000000000000000000000000000000000815260040160405180910390fd5b828054828255905f5260205f209060070160089004810192821561499b579160200282015f5b8382111561496957835183826101000a81548163ffffffff021916908363ffffffff1602179055509260200192600401602081600301049283019260010302614925565b80156149995782816101000a81549063ffffffff0219169055600401602081600301049283019260010302614969565b505b5090506149a891906149d3565b5090565b60405180606001604052805f80191681526020015f81526020015f63ffffffff1681525090565b5b808211156149ea575f815f9055506001016149d4565b5090565b5f604051905090565b5f80fd5b5f80fd5b5f819050919050565b614a11816149ff565b8114614a1b575f80fd5b50565b5f81359050614a2c81614a08565b92915050565b5f819050919050565b614a4481614a32565b8114614a4e575f80fd5b50565b5f81359050614a5f81614a3b565b92915050565b5f8060408385031215614a7b57614a7a6149f7565b5b5f614a8885828601614a1e565b9250506020614a9985828601614a51565b9150509250929050565b5f6fffffffffffffffffffffffffffffffff82169050919050565b614ac781614aa3565b82525050565b614ad681614a32565b82525050565b5f63ffffffff82169050919050565b614af481614adc565b82525050565b5f8115159050919050565b614b0e81614afa565b82525050565b5f60c082019050614b275f830189614abe565b614b346020830188614abe565b614b416040830187614abe565b614b4e6060830186614acd565b614b5b6080830185614aeb565b614b6860a0830184614b05565b979650505050505050565b5f60208284031215614b8857614b876149f7565b5b5f614b9584828501614a1e565b91505092915050565b5f60c082019050614bb15f830189614abe565b614bbe6020830188614abe565b614bcb6040830187614abe565b614bd86060830186614abe565b614be56080830185614abe565b614bf260a0830184614acd565b979650505050505050565b5f80fd5b5f601f19601f8301169050919050565b7f4e487b71000000000000000000000000000000000000000000000000000000005f52604160045260245ffd5b614c4782614c01565b810181811067ffffffffffffffff82111715614c6657614c65614c11565b5b80604052505050565b5f614c786149ee565b9050614c848282614c3e565b919050565b5f67ffffffffffffffff821115614ca357614ca2614c11565b5b602082029050602081019050919050565b5f80fd5b5f614cca614cc584614c89565b614c6f565b90508083825260208201905060208402830185811115614ced57614cec614cb4565b5b835b81811015614d165780614d028882614a51565b845260208401935050602081019050614cef565b5050509392505050565b5f82601f830112614d3457614d33614bfd565b5b8135614d44848260208601614cb8565b91505092915050565b5f8060408385031215614d6357614d626149f7565b5b5f614d7085828601614a51565b925050602083013567ffffffffffffffff811115614d9157614d906149fb565b5b614d9d85828601614d20565b9150509250929050565b5f73ffffffffffffffffffffffffffffffffffffffff82169050919050565b5f614dd082614da7565b9050919050565b614de081614dc6565b8114614dea575f80fd5b50565b5f81359050614dfb81614dd7565b92915050565b5f60208284031215614e1657614e156149f7565b5b5f614e2384828501614ded565b91505092915050565b5f81519050919050565b5f82825260208201905092915050565b5f819050602082019050919050565b614e5e816149ff565b82525050565b5f614e6f8383614e55565b60208301905092915050565b5f602082019050919050565b5f614e9182614e2c565b614e9b8185614e36565b9350614ea683614e46565b805f5b83811015614ed6578151614ebd8882614e64565b9750614ec883614e7b565b925050600181019050614ea9565b5085935050505092915050565b5f81519050919050565b5f82825260208201905092915050565b5f819050602082019050919050565b614f1581614a32565b82525050565b5f614f268383614f0c565b60208301905092915050565b5f602082019050919050565b5f614f4882614ee3565b614f528185614eed565b9350614f5d83614efd565b805f5b83811015614f8d578151614f748882614f1b565b9750614f7f83614f32565b925050600181019050614f60565b5085935050505092915050565b5f6060820190508181035f830152614fb28186614e87565b90508181036020830152614fc68185614f3e565b9050614fd56040830184614acd565b949350505050565b5f602082019050614ff05f830184614aeb565b92915050565b5f81519050919050565b5f82825260208201905092915050565b5f819050602082019050919050565b61502881614adc565b82525050565b5f615039838361501f565b60208301905092915050565b5f602082019050919050565b5f61505b82614ff6565b6150658185615000565b935061507083615010565b805f5b838110156150a0578151615087888261502e565b975061509283615045565b925050600181019050615073565b5085935050505092915050565b5f6020820190508181035f8301526150c58184615051565b905092915050565b5f80fd5b5f8083601f8401126150e6576150e5614bfd565b5b8235905067ffffffffffffffff811115615103576151026150cd565b5b60208301915083602082028301111561511f5761511e614cb4565b5b9250929050565b5f8083601f84011261513b5761513a614bfd565b5b8235905067ffffffffffffffff811115615158576151576150cd565b5b60208301915083602082028301111561517457615173614cb4565b5b9250929050565b5f805f805f60608688031215615194576151936149f7565b5b5f6151a188828901614ded565b955050602086013567ffffffffffffffff8111156151c2576151c16149fb565b5b6151ce888289016150d1565b9450945050604086013567ffffffffffffffff8111156151f1576151f06149fb565b5b6151fd88828901615126565b92509250509295509295909350565b5f819050919050565b5f61522f61522a61522584614da7565b61520c565b614da7565b9050919050565b5f61524082615215565b9050919050565b5f61525182615236565b9050919050565b61526181615247565b82525050565b5f60208201905061527a5f830184615258565b92915050565b5f61528a82615236565b9050919050565b61529a81615280565b82525050565b5f6020820190506152b35f830184615291565b92915050565b5f81519050919050565b5f82825260208201905092915050565b5f819050602082019050919050565b606082015f8201516152f65f850182614e55565b5060208201516153096020850182614f0c565b50604082015161531c604085018261501f565b50505050565b5f61532d83836152e2565b60608301905092915050565b5f602082019050919050565b5f61534f826152b9565b61535981856152c3565b9350615364836152d3565b805f5b8381101561539457815161537b8882615322565b975061538683615339565b925050600181019050615367565b5085935050505092915050565b5f6020820190508181035f8301526153b98184615345565b905092915050565b6153ca81614adc565b81146153d4575f80fd5b50565b5f813590506153e5816153c1565b92915050565b5f805f60608486031215615402576154016149f7565b5b5f61540f86828701614a1e565b935050602061542086828701614a51565b9250506040615431868287016153d7565b9150509250925092565b61544481614dc6565b82525050565b5f60208201905061545d5f83018461543b565b92915050565b5f6020820190506154765f830184614acd565b92915050565b615485816149ff565b82525050565b5f60208201905061549e5f83018461547c565b92915050565b5f62ffffff82169050919050565b6154bb816154a4565b82525050565b5f6020820190506154d45f8301846154b2565b92915050565b5f8083601f8401126154ef576154ee614bfd565b5b8235905067ffffffffffffffff81111561550c5761550b6150cd565b5b60208301915083602082028301111561552857615527614cb4565b5b9250929050565b5f805f8060608587031215615547576155466149f7565b5b5f61555487828801614a1e565b945050602061556587828801614a51565b935050604085013567ffffffffffffffff811115615586576155856149fb565b5b615592878288016154da565b925092505092959194509250565b5f61ffff82169050919050565b6155b6816155a0565b81146155c0575f80fd5b50565b5f813590506155d1816155ad565b92915050565b5f602082840312156155ec576155eb6149f7565b5b5f6155f9848285016155c3565b91505092915050565b5f61560c82615236565b9050919050565b61561c81615602565b82525050565b5f6020820190506156355f830184615613565b92915050565b5f67ffffffffffffffff82169050919050565b6156578161563b565b8114615661575f80fd5b50565b5f813590506156728161564e565b92915050565b5f6020828403121561568d5761568c6149f7565b5b5f61569a84828501615664565b91505092915050565b5f60ff82169050919050565b6156b8816156a3565b81146156c2575f80fd5b50565b5f813590506156d3816156af565b92915050565b6156e281614aa3565b81146156ec575f80fd5b50565b5f813590506156fd816156d9565b92915050565b5f805f805f8060c0878903121561571d5761571c6149f7565b5b5f61572a89828a016156c5565b965050602061573b89828a016156ef565b955050604061574c89828a016156ef565b945050606061575d89828a016156ef565b935050608061576e89828a016156ef565b92505060a061577f89828a016156ef565b9150509295509295509295565b5f602082840312156157a1576157a06149f7565b5b5f6157ae848285016153d7565b91505092915050565b6157c0816154a4565b81146157ca575f80fd5b50565b5f813590506157db816157b7565b92915050565b5f602082840312156157f6576157f56149f7565b5b5f615803848285016157cd565b91505092915050565b615815816155a0565b82525050565b5f60208201905061582e5f83018461580c565b92915050565b61583d8161563b565b82525050565b5f6020820190506158565f830184615834565b92915050565b5f8060408385031215615872576158716149f7565b5b5f61587f85828601614ded565b925050602061589085828601614a51565b9150509250929050565b5f6020820190508181035f8301526158b28184614e87565b905092915050565b7f4e487b71000000000000000000000000000000000000000000000000000000005f52601160045260245ffd5b5f6158f182614a32565b91506158fc83614a32565b9250828203905081811115615914576159136158ba565b5b92915050565b7f4e487b71000000000000000000000000000000000000000000000000000000005f52603260045260245ffd5b5f60408201905061595a5f83018561543b565b615967602083018461543b565b9392505050565b5f61597882614a32565b915061598383614a32565b925082820190508082111561599b5761599a6158ba565b5b92915050565b5f6159ab82614a32565b91507fffffffffffffffffffffffffffffffffffffffffffffffffffffffffffffffff82036159dd576159dc6158ba565b5b600182019050919050565b5f6040820190506159fb5f83018561547c565b615a086020830184614acd565b9392505050565b5f819050919050565b5f615a32615a2d615a2884615a0f565b61520c565b614adc565b9050919050565b615a4281615a18565b82525050565b5f60a082019050615a5b5f83018861547c565b615a686020830187615834565b615a75604083018661580c565b615a826060830185614aeb565b615a8f6080830184615a39565b9695505050505050565b5f81519050615aa781614a3b565b92915050565b5f60208284031215615ac257615ac16149f7565b5b5f615acf84828501615a99565b91505092915050565b5f615ae282614aa3565b9150615aed83614aa3565b925082820190506fffffffffffffffffffffffffffffffff811115615b1557615b146158ba565b5b92915050565b5f608082019050615b2e5f83018761547c565b615b3b6020830186614acd565b615b486040830185614abe565b615b556060830184614abe565b95945050505050565b5f615b6882614aa3565b9150615b7383614aa3565b9250828202615b8181614aa3565b9150808214615b9357615b926158ba565b5b5092915050565b5f81519050615ba881614dd7565b92915050565b5f60208284031215615bc357615bc26149f7565b5b5f615bd084828501615b9a565b91505092915050565b7f4e487b71000000000000000000000000000000000000000000000000000000005f52601260045260245ffd5b5f615c1082614aa3565b9150615c1b83614aa3565b925082615c2b57615c2a615bd9565b5b828204905092915050565b5f615c4082614aa3565b9150615c4b83614aa3565b925082820390506fffffffffffffffffffffffffffffffff811115615c7357615c726158ba565b5b92915050565b5f819050919050565b5f615c9060208401846153d7565b905092915050565b5f602082019050919050565b5f615caf8385615000565b9350615cba82615c79565b805f5b85811015615cf257615ccf8284615c82565b615cd9888261502e565b9750615ce483615c98565b925050600181019050615cbd565b5085925050509392505050565b5f606082019050615d125f83018761547c565b615d1f6020830186614acd565b8181036040830152615d32818486615ca4565b905095945050505050565b5f8160011c9050919050565b5f808291508390505b6001851115615d9257808604811115615d6e57615d6d6158ba565b5b6001851615615d7d5780820291505b8081029050615d8b85615d3d565b9450615d52565b94509492505050565b5f82615daa5760019050615e65565b81615db7575f9050615e65565b8160018114615dcd5760028114615dd757615e06565b6001915050615e65565b60ff841115615de957615de86158ba565b5b8360020a915084821115615e0057615dff6158ba565b5b50615e65565b5060208310610133831016604e8410600b8410161715615e3b5782820a905083811115615e3657615e356158ba565b5b615e65565b615e488484846001615d49565b92509050818404811115615e5f57615e5e6158ba565b5b81810290505b9392505050565b5f615e7682614a32565b9150615e81836156a3565b9250615eae7fffffffffffffffffffffffffffffffffffffffffffffffffffffffffffffffff8484615d9b565b905092915050565b5f60a082019050615ec95f830188614abe565b615ed66020830187614abe565b615ee36040830186614abe565b615ef06060830185614abe565b615efd6080830184614abe565b9695505050505050565b5f60c082019050615f1a5f830189614abe565b615f276020830188614abe565b615f346040830187614abe565b615f416060830186614abe565b615f4e6080830185614abe565b615f5b60a083018461547c565b979650505050505050565b5f615f80615f7b615f7684615a0f565b61520c565b614a32565b9050919050565b615f9081615f66565b82525050565b5f608082019050615fa95f83018761547c565b615fb66020830186615f87565b615fc36040830185614abe565b615fd06060830184614abe565b95945050505050565b5f604082019050615fec5f8301856154b2565b615ff960208301846154b2565b9392505050565b5f61600a82614a32565b915061601583614a32565b92508261602557616024615bd9565b5b828206905092915050565b5f6040820190506160435f83018561543b565b6160506020830184614acd565b9392505050565b5f60608201905061606a5f83018661543b565b616077602083018561543b565b6160846040830184614acd565b949350505050565b61609581614afa565b811461609f575f80fd5b50565b5f815190506160b08161608c565b92915050565b5f602082840312156160cb576160ca6149f7565b5b5f6160d8848285016160a2565b91505092915050565b5f81519050919050565b5f81905092915050565b8281835e5f83830152505050565b5f61610d826160e1565b61611781856160eb565b93506161278185602086016160f5565b80840191505092915050565b5f61613e8284616103565b91508190509291505056fea2646970667358221220e7cc81b013f47fc82edbc62e1c163f0ad23ec565fcfc0a87bf9e977b940be7c664736f6c63430008190033",
			"opcodes": "PUSH2 0x100 PUSH1 0x40 MSTORE PUSH1 0x3 PUSH1 0x2 PUSH1 0x8 PUSH2 0x100 EXP DUP2 SLOAD DUP2 PUSH2 0xFFFF MUL NOT AND SWAP1 DUP4 PUSH2 0xFFFF AND MUL OR SWAP1 SSTORE POP PUSH3 0x186A0 PUSH1 0x2 PUSH1 0xA PUSH2 0x100 EXP DUP2 SLOAD DUP2 PUSH4 0xFFFFFFFF MUL NOT AND SWAP1 DUP4 PUSH4 0xFFFFFFFF AND MUL OR SWAP1 SSTORE POP CALLVALUE DUP1 ISZERO PUSH2 0x52 JUMPI PUSH0 DUP1 REVERT JUMPDEST POP PUSH1 0x40 MLOAD PUSH2 0x6688 CODESIZE SUB DUP1 PUSH2 0x6688 DUP4 CODECOPY DUP2 DUP2 ADD PUSH1 0x40 MSTORE DUP2 ADD SWAP1 PUSH2 0x74 SWAP2 SWAP1 PUSH2 0x3E6 JUMP JUMPDEST DUP3 CALLER PUSH0 PUSH20 0xFFFFFFFFFFFFFFFFFFFFFFFFFFFFFFFFFFFFFFFF AND DUP2 PUSH20 0xFFFFFFFFFFFFFFFFFFFFFFFFFFFFFFFFFFFFFFFF AND SUB PUSH2 0xE6 JUMPI PUSH0 PUSH1 0x40 MLOAD PUSH32 0x1E4FBDF700000000000000000000000000000000000000000000000000000000 DUP2 MSTORE PUSH1 0x4 ADD PUSH2 0xDD SWAP2 SWAP1 PUSH2 0x47E JUMP JUMPDEST PUSH1 0x40 MLOAD DUP1 SWAP2 SUB SWAP1 REVERT JUMPDEST PUSH2 0xF5 DUP2 PUSH2 0x21F PUSH1 0x20 SHL PUSH1 0x20 SHR JUMP JUMPDEST POP DUP1 PUSH20 0xFFFFFFFFFFFFFFFFFFFFFFFFFFFFFFFFFFFFFFFF AND PUSH1 0x80 DUP2 PUSH20 0xFFFFFFFFFFFFFFFFFFFFFFFFFFFFFFFFFFFFFFFF AND DUP2 MSTORE POP POP POP DUP6 PUSH0 PUSH1 0x14 PUSH2 0x100 EXP DUP2 SLOAD DUP2 PUSH3 0xFFFFFF MUL NOT AND SWAP1 DUP4 PUSH3 0xFFFFFF AND MUL OR SWAP1 SSTORE POP DUP5 PUSH20 0xFFFFFFFFFFFFFFFFFFFFFFFFFFFFFFFFFFFFFFFF AND PUSH1 0xA0 DUP2 PUSH20 0xFFFFFFFFFFFFFFFFFFFFFFFFFFFFFFFFFFFFFFFF AND DUP2 MSTORE POP POP DUP4 PUSH20 0xFFFFFFFFFFFFFFFFFFFFFFFFFFFFFFFFFFFFFFFF AND PUSH1 0xC0 DUP2 PUSH20 0xFFFFFFFFFFFFFFFFFFFFFFFFFFFFFFFFFFFFFFFF AND DUP2 MSTORE POP POP DUP3 PUSH20 0xFFFFFFFFFFFFFFFFFFFFFFFFFFFFFFFFFFFFFFFF AND PUSH1 0xE0 DUP2 PUSH20 0xFFFFFFFFFFFFFFFFFFFFFFFFFFFFFFFFFFFFFFFF AND DUP2 MSTORE POP POP DUP2 PUSH1 0x1 DUP2 SWAP1 SSTORE POP DUP1 PUSH1 0x2 PUSH0 PUSH2 0x100 EXP DUP2 SLOAD DUP2 PUSH8 0xFFFFFFFFFFFFFFFF MUL NOT AND SWAP1 DUP4 PUSH8 0xFFFFFFFFFFFFFFFF AND MUL OR SWAP1 SSTORE POP POP POP POP POP POP POP PUSH2 0x497 JUMP JUMPDEST PUSH0 DUP1 PUSH0 SWAP1 SLOAD SWAP1 PUSH2 0x100 EXP SWAP1 DIV PUSH20 0xFFFFFFFFFFFFFFFFFFFFFFFFFFFFFFFFFFFFFFFF AND SWAP1 POP DUP2 PUSH0 DUP1 PUSH2 0x100 EXP DUP2 SLOAD DUP2 PUSH20 0xFFFFFFFFFFFFFFFFFFFFFFFFFFFFFFFFFFFFFFFF MUL NOT AND SWAP1 DUP4 PUSH20 0xFFFFFFFFFFFFFFFFFFFFFFFFFFFFFFFFFFFFFFFF AND MUL OR SWAP1 SSTORE POP DUP2 PUSH20 0xFFFFFFFFFFFFFFFFFFFFFFFFFFFFFFFFFFFFFFFF AND DUP2 PUSH20 0xFFFFFFFFFFFFFFFFFFFFFFFFFFFFFFFFFFFFFFFF AND PUSH32 0x8BE0079C531659141344CD1FD0A4F28419497F9722A3DAAFE3B4186F6B6457E0 PUSH1 0x40 MLOAD PUSH1 0x40 MLOAD DUP1 SWAP2 SUB SWAP1 LOG3 POP POP JUMP JUMPDEST PUSH0 DUP1 REVERT JUMPDEST PUSH0 PUSH3 0xFFFFFF DUP3 AND SWAP1 POP SWAP2 SWAP1 POP JUMP JUMPDEST PUSH2 0x2FB DUP2 PUSH2 0x2E4 JUMP JUMPDEST DUP2 EQ PUSH2 0x305 JUMPI PUSH0 DUP1 REVERT JUMPDEST POP JUMP JUMPDEST PUSH0 DUP2 MLOAD SWAP1 POP PUSH2 0x316 DUP2 PUSH2 0x2F2 JUMP JUMPDEST SWAP3 SWAP2 POP POP JUMP JUMPDEST PUSH0 PUSH20 0xFFFFFFFFFFFFFFFFFFFFFFFFFFFFFFFFFFFFFFFF DUP3 AND SWAP1 POP SWAP2 SWAP1 POP JUMP JUMPDEST PUSH0 PUSH2 0x345 DUP3 PUSH2 0x31C JUMP JUMPDEST SWAP1 POP SWAP2 SWAP1 POP JUMP JUMPDEST PUSH2 0x355 DUP2 PUSH2 0x33B JUMP JUMPDEST DUP2 EQ PUSH2 0x35F JUMPI PUSH0 DUP1 REVERT JUMPDEST POP JUMP JUMPDEST PUSH0 DUP2 MLOAD SWAP1 POP PUSH2 0x370 DUP2 PUSH2 0x34C JUMP JUMPDEST SWAP3 SWAP2 POP POP JUMP JUMPDEST PUSH0 DUP2 SWAP1 POP SWAP2 SWAP1 POP JUMP JUMPDEST PUSH2 0x388 DUP2 PUSH2 0x376 JUMP JUMPDEST DUP2 EQ PUSH2 0x392 JUMPI PUSH0 DUP1 REVERT JUMPDEST POP JUMP JUMPDEST PUSH0 DUP2 MLOAD SWAP1 POP PUSH2 0x3A3 DUP2 PUSH2 0x37F JUMP JUMPDEST SWAP3 SWAP2 POP POP JUMP JUMPDEST PUSH0 PUSH8 0xFFFFFFFFFFFFFFFF DUP3 AND SWAP1 POP SWAP2 SWAP1 POP JUMP JUMPDEST PUSH2 0x3C5 DUP2 PUSH2 0x3A9 JUMP JUMPDEST DUP2 EQ PUSH2 0x3CF JUMPI PUSH0 DUP1 REVERT JUMPDEST POP JUMP JUMPDEST PUSH0 DUP2 MLOAD SWAP1 POP PUSH2 0x3E0 DUP2 PUSH2 0x3BC JUMP JUMPDEST SWAP3 SWAP2 POP POP JUMP JUMPDEST PUSH0 DUP1 PUSH0 DUP1 PUSH0 DUP1 PUSH1 0xC0 DUP8 DUP10 SUB SLT ISZERO PUSH2 0x400 JUMPI PUSH2 0x3FF PUSH2 0x2E0 JUMP JUMPDEST JUMPDEST PUSH0 PUSH2 0x40D DUP10 DUP3 DUP11 ADD PUSH2 0x308 JUMP JUMPDEST SWAP7 POP POP PUSH1 0x20 PUSH2 0x41E DUP10 DUP3 DUP11 ADD PUSH2 0x362 JUMP JUMPDEST SWAP6 POP POP PUSH1 0x40 PUSH2 0x42F DUP10 DUP3 DUP11 ADD PUSH2 0x362 JUMP JUMPDEST SWAP5 POP POP PUSH1 0x60 PUSH2 0x440 DUP10 DUP3 DUP11 ADD PUSH2 0x362 JUMP JUMPDEST SWAP4 POP POP PUSH1 0x80 PUSH2 0x451 DUP10 DUP3 DUP11 ADD PUSH2 0x395 JUMP JUMPDEST SWAP3 POP POP PUSH1 0xA0 PUSH2 0x462 DUP10 DUP3 DUP11 ADD PUSH2 0x3D2 JUMP JUMPDEST SWAP2 POP POP SWAP3 SWAP6 POP SWAP3 SWAP6 POP SWAP3 SWAP6 JUMP JUMPDEST PUSH2 0x478 DUP2 PUSH2 0x33B JUMP JUMPDEST DUP3 MSTORE POP POP JUMP JUMPDEST PUSH0 PUSH1 0x20 DUP3 ADD SWAP1 POP PUSH2 0x491 PUSH0 DUP4 ADD DUP5 PUSH2 0x46F JUMP JUMPDEST SWAP3 SWAP2 POP POP JUMP JUMPDEST PUSH1 0x80 MLOAD PUSH1 0xA0 MLOAD PUSH1 0xC0 MLOAD PUSH1 0xE0 MLOAD PUSH2 0x617F PUSH2 0x509 PUSH0 CODECOPY PUSH0 DUP2 DUP2 PUSH2 0x1C34 ADD MSTORE DUP2 DUP2 PUSH2 0x3337 ADD MSTORE PUSH2 0x38EF ADD MSTORE PUSH0 DUP2 DUP2 PUSH2 0x218C ADD MSTORE DUP2 DUP2 PUSH2 0x25F3 ADD MSTORE PUSH2 0x30B3 ADD MSTORE PUSH0 DUP2 DUP2 PUSH2 0x1597 ADD MSTORE DUP2 DUP2 PUSH2 0x2168 ADD MSTORE DUP2 DUP2 PUSH2 0x306B ADD MSTORE DUP2 DUP2 PUSH2 0x40BB ADD MSTORE PUSH2 0x4232 ADD MSTORE PUSH0 DUP2 DUP2 PUSH2 0xCB5 ADD MSTORE PUSH2 0xD09 ADD MSTORE PUSH2 0x617F PUSH0 RETURN INVALID PUSH1 0x80 PUSH1 0x40 MSTORE CALLVALUE DUP1 ISZERO PUSH2 0xF JUMPI PUSH0 DUP1 REVERT JUMPDEST POP PUSH1 0x4 CALLDATASIZE LT PUSH2 0x20F JUMPI PUSH0 CALLDATALOAD PUSH1 0xE0 SHR DUP1 PUSH4 0x84AE2BC6 GT PUSH2 0x123 JUMPI DUP1 PUSH4 0xB2A89B08 GT PUSH2 0xAB JUMPI DUP1 PUSH4 0xE7FA67E5 GT PUSH2 0x7A JUMPI DUP1 PUSH4 0xE7FA67E5 EQ PUSH2 0x631 JUMPI DUP1 PUSH4 0xEB1D28BB EQ PUSH2 0x64D JUMPI DUP1 PUSH4 0xED092451 EQ PUSH2 0x66B JUMPI DUP1 PUSH4 0xF19C3D5B EQ PUSH2 0x687 JUMPI DUP1 PUSH4 0xF2FDE38B EQ PUSH2 0x6A5 JUMPI PUSH2 0x20F JUMP JUMPDEST DUP1 PUSH4 0xB2A89B08 EQ PUSH2 0x5BD JUMPI DUP1 PUSH4 0xCF248B70 EQ PUSH2 0x5D9 JUMPI DUP1 PUSH4 0xD13FE011 EQ PUSH2 0x5F7 JUMPI DUP1 PUSH4 0xE53A7345 EQ PUSH2 0x615 JUMPI PUSH2 0x20F JUMP JUMPDEST DUP1 PUSH4 0x8DA5CB5B GT PUSH2 0xF2 JUMPI DUP1 PUSH4 0x8DA5CB5B EQ PUSH2 0x519 JUMPI DUP1 PUSH4 0xA3E56FA8 EQ PUSH2 0x537 JUMPI DUP1 PUSH4 0xA84DB894 EQ PUSH2 0x555 JUMPI DUP1 PUSH4 0xACCA07B1 EQ PUSH2 0x571 JUMPI DUP1 PUSH4 0xB0E8D086 EQ PUSH2 0x5A1 JUMPI PUSH2 0x20F JUMP JUMPDEST DUP1 PUSH4 0x84AE2BC6 EQ PUSH2 0x493 JUMPI DUP1 PUSH4 0x86D32015 EQ PUSH2 0x4B1 JUMPI DUP1 PUSH4 0x89BA4116 EQ PUSH2 0x4E1 JUMPI DUP1 PUSH4 0x8CF7D45D EQ PUSH2 0x4FD JUMPI PUSH2 0x20F JUMP JUMPDEST DUP1 PUSH4 0x2F48AB7D GT PUSH2 0x1A6 JUMPI DUP1 PUSH4 0x4930CC99 GT PUSH2 0x175 JUMPI DUP1 PUSH4 0x4930CC99 EQ PUSH2 0x3ED JUMPI DUP1 PUSH4 0x61728F39 EQ PUSH2 0x41D JUMPI DUP1 PUSH4 0x6ED93DD0 EQ PUSH2 0x43B JUMPI DUP1 PUSH4 0x6F8AF123 EQ PUSH2 0x459 JUMPI DUP1 PUSH4 0x715018A6 EQ PUSH2 0x489 JUMPI PUSH2 0x20F JUMP JUMPDEST DUP1 PUSH4 0x2F48AB7D EQ PUSH2 0x351 JUMPI DUP1 PUSH4 0x2FACD139 EQ PUSH2 0x36F JUMPI DUP1 PUSH4 0x3A864632 EQ PUSH2 0x38D JUMPI DUP1 PUSH4 0x3B0E443C EQ PUSH2 0x3BD JUMPI PUSH2 0x20F JUMP JUMPDEST DUP1 PUSH4 0x24F74697 GT PUSH2 0x1E2 JUMPI DUP1 PUSH4 0x24F74697 EQ PUSH2 0x2CB JUMPI DUP1 PUSH4 0x25860103 EQ PUSH2 0x2E9 JUMPI DUP1 PUSH4 0x2BBB1444 EQ PUSH2 0x319 JUMPI DUP1 PUSH4 0x2E5A74B9 EQ PUSH2 0x335 JUMPI PUSH2 0x20F JUMP JUMPDEST DUP1 PUSH4 0x358ABFC EQ PUSH2 0x213 JUMPI DUP1 PUSH4 0x9F2C019 EQ PUSH2 0x248 JUMPI DUP1 PUSH4 0x1FE543E3 EQ PUSH2 0x27D JUMPI DUP1 PUSH4 0x21F6A578 EQ PUSH2 0x299 JUMPI JUMPDEST PUSH0 DUP1 REVERT JUMPDEST PUSH2 0x22D PUSH1 0x4 DUP1 CALLDATASIZE SUB DUP2 ADD SWAP1 PUSH2 0x228 SWAP2 SWAP1 PUSH2 0x4A65 JUMP JUMPDEST PUSH2 0x6C1 JUMP JUMPDEST PUSH1 0x40 MLOAD PUSH2 0x23F SWAP7 SWAP6 SWAP5 SWAP4 SWAP3 SWAP2 SWAP1 PUSH2 0x4B14 JUMP JUMPDEST PUSH1 0x40 MLOAD DUP1 SWAP2 SUB SWAP1 RETURN JUMPDEST PUSH2 0x262 PUSH1 0x4 DUP1 CALLDATASIZE SUB DUP2 ADD SWAP1 PUSH2 0x25D SWAP2 SWAP1 PUSH2 0x4B73 JUMP JUMPDEST PUSH2 0x8EC JUMP JUMPDEST PUSH1 0x40 MLOAD PUSH2 0x274 SWAP7 SWAP6 SWAP5 SWAP4 SWAP3 SWAP2 SWAP1 PUSH2 0x4B9E JUMP JUMPDEST PUSH1 0x40 MLOAD DUP1 SWAP2 SUB SWAP1 RETURN JUMPDEST PUSH2 0x297 PUSH1 0x4 DUP1 CALLDATASIZE SUB DUP2 ADD SWAP1 PUSH2 0x292 SWAP2 SWAP1 PUSH2 0x4D4D JUMP JUMPDEST PUSH2 0xCB3 JUMP JUMPDEST STOP JUMPDEST PUSH2 0x2B3 PUSH1 0x4 DUP1 CALLDATASIZE SUB DUP2 ADD SWAP1 PUSH2 0x2AE SWAP2 SWAP1 PUSH2 0x4E01 JUMP JUMPDEST PUSH2 0xD73 JUMP JUMPDEST PUSH1 0x40 MLOAD PUSH2 0x2C2 SWAP4 SWAP3 SWAP2 SWAP1 PUSH2 0x4F9A JUMP JUMPDEST PUSH1 0x40 MLOAD DUP1 SWAP2 SUB SWAP1 RETURN JUMPDEST PUSH2 0x2D3 PUSH2 0x1087 JUMP JUMPDEST PUSH1 0x40 MLOAD PUSH2 0x2E0 SWAP2 SWAP1 PUSH2 0x4FDD JUMP JUMPDEST PUSH1 0x40 MLOAD DUP1 SWAP2 SUB SWAP1 RETURN JUMPDEST PUSH2 0x303 PUSH1 0x4 DUP1 CALLDATASIZE SUB DUP2 ADD SWAP1 PUSH2 0x2FE SWAP2 SWAP1 PUSH2 0x4A65 JUMP JUMPDEST PUSH2 0x109D JUMP JUMPDEST PUSH1 0x40 MLOAD PUSH2 0x310 SWAP2 SWAP1 PUSH2 0x50AD JUMP JUMPDEST PUSH1 0x40 MLOAD DUP1 SWAP2 SUB SWAP1 RETURN JUMPDEST PUSH2 0x333 PUSH1 0x4 DUP1 CALLDATASIZE SUB DUP2 ADD SWAP1 PUSH2 0x32E SWAP2 SWAP1 PUSH2 0x517B JUMP JUMPDEST PUSH2 0x1160 JUMP JUMPDEST STOP JUMPDEST PUSH2 0x34F PUSH1 0x4 DUP1 CALLDATASIZE SUB DUP2 ADD SWAP1 PUSH2 0x34A SWAP2 SWAP1 PUSH2 0x4B73 JUMP JUMPDEST PUSH2 0x15E3 JUMP JUMPDEST STOP JUMPDEST PUSH2 0x359 PUSH2 0x2166 JUMP JUMPDEST PUSH1 0x40 MLOAD PUSH2 0x366 SWAP2 SWAP1 PUSH2 0x5267 JUMP JUMPDEST PUSH1 0x40 MLOAD DUP1 SWAP2 SUB SWAP1 RETURN JUMPDEST PUSH2 0x377 PUSH2 0x218A JUMP JUMPDEST PUSH1 0x40 MLOAD PUSH2 0x384 SWAP2 SWAP1 PUSH2 0x52A0 JUMP JUMPDEST PUSH1 0x40 MLOAD DUP1 SWAP2 SUB SWAP1 RETURN JUMPDEST PUSH2 0x3A7 PUSH1 0x4 DUP1 CALLDATASIZE SUB DUP2 ADD SWAP1 PUSH2 0x3A2 SWAP2 SWAP1 PUSH2 0x4E01 JUMP JUMPDEST PUSH2 0x21AE JUMP JUMPDEST PUSH1 0x40 MLOAD PUSH2 0x3B4 SWAP2 SWAP1 PUSH2 0x53A1 JUMP JUMPDEST PUSH1 0x40 MLOAD DUP1 SWAP2 SUB SWAP1 RETURN JUMPDEST PUSH2 0x3D7 PUSH1 0x4 DUP1 CALLDATASIZE SUB DUP2 ADD SWAP1 PUSH2 0x3D2 SWAP2 SWAP1 PUSH2 0x53EB JUMP JUMPDEST PUSH2 0x227F JUMP JUMPDEST PUSH1 0x40 MLOAD PUSH2 0x3E4 SWAP2 SWAP1 PUSH2 0x544A JUMP JUMPDEST PUSH1 0x40 MLOAD DUP1 SWAP2 SUB SWAP1 RETURN JUMPDEST PUSH2 0x407 PUSH1 0x4 DUP1 CALLDATASIZE SUB DUP2 ADD SWAP1 PUSH2 0x402 SWAP2 SWAP1 PUSH2 0x4E01 JUMP JUMPDEST PUSH2 0x22C7 JUMP JUMPDEST PUSH1 0x40 MLOAD PUSH2 0x414 SWAP2 SWAP1 PUSH2 0x5463 JUMP JUMPDEST PUSH1 0x40 MLOAD DUP1 SWAP2 SUB SWAP1 RETURN JUMPDEST PUSH2 0x425 PUSH2 0x22DC JUMP JUMPDEST PUSH1 0x40 MLOAD PUSH2 0x432 SWAP2 SWAP1 PUSH2 0x548B JUMP JUMPDEST PUSH1 0x40 MLOAD DUP1 SWAP2 SUB SWAP1 RETURN JUMPDEST PUSH2 0x443 PUSH2 0x22E2 JUMP JUMPDEST PUSH1 0x40 MLOAD PUSH2 0x450 SWAP2 SWAP1 PUSH2 0x54C1 JUMP JUMPDEST PUSH1 0x40 MLOAD DUP1 SWAP2 SUB SWAP1 RETURN JUMPDEST PUSH2 0x473 PUSH1 0x4 DUP1 CALLDATASIZE SUB DUP2 ADD SWAP1 PUSH2 0x46E SWAP2 SWAP1 PUSH2 0x4E01 JUMP JUMPDEST PUSH2 0x22E9 JUMP JUMPDEST PUSH1 0x40 MLOAD PUSH2 0x480 SWAP2 SWAP1 PUSH2 0x53A1 JUMP JUMPDEST PUSH1 0x40 MLOAD DUP1 SWAP2 SUB SWAP1 RETURN JUMPDEST PUSH2 0x491 PUSH2 0x25B4 JUMP JUMPDEST STOP JUMPDEST PUSH2 0x49B PUSH2 0x25C7 JUMP JUMPDEST PUSH1 0x40 MLOAD PUSH2 0x4A8 SWAP2 SWAP1 PUSH2 0x54C1 JUMP JUMPDEST PUSH1 0x40 MLOAD DUP1 SWAP2 SUB SWAP1 RETURN JUMPDEST PUSH2 0x4CB PUSH1 0x4 DUP1 CALLDATASIZE SUB DUP2 ADD SWAP1 PUSH2 0x4C6 SWAP2 SWAP1 PUSH2 0x4E01 JUMP JUMPDEST PUSH2 0x25DB JUMP JUMPDEST PUSH1 0x40 MLOAD PUSH2 0x4D8 SWAP2 SWAP1 PUSH2 0x5463 JUMP JUMPDEST PUSH1 0x40 MLOAD DUP1 SWAP2 SUB SWAP1 RETURN JUMPDEST PUSH2 0x4FB PUSH1 0x4 DUP1 CALLDATASIZE SUB DUP2 ADD SWAP1 PUSH2 0x4F6 SWAP2 SWAP1 PUSH2 0x552F JUMP JUMPDEST PUSH2 0x25F0 JUMP JUMPDEST STOP JUMPDEST PUSH2 0x517 PUSH1 0x4 DUP1 CALLDATASIZE SUB DUP2 ADD SWAP1 PUSH2 0x512 SWAP2 SWAP1 PUSH2 0x55D7 JUMP JUMPDEST PUSH2 0x389E JUMP JUMPDEST STOP JUMPDEST PUSH2 0x521 PUSH2 0x38C6 JUMP JUMPDEST PUSH1 0x40 MLOAD PUSH2 0x52E SWAP2 SWAP1 PUSH2 0x544A JUMP JUMPDEST PUSH1 0x40 MLOAD DUP1 SWAP2 SUB SWAP1 RETURN JUMPDEST PUSH2 0x53F PUSH2 0x38ED JUMP JUMPDEST PUSH1 0x40 MLOAD PUSH2 0x54C SWAP2 SWAP1 PUSH2 0x5622 JUMP JUMPDEST PUSH1 0x40 MLOAD DUP1 SWAP2 SUB SWAP1 RETURN JUMPDEST PUSH2 0x56F PUSH1 0x4 DUP1 CALLDATASIZE SUB DUP2 ADD SWAP1 PUSH2 0x56A SWAP2 SWAP1 PUSH2 0x5678 JUMP JUMPDEST PUSH2 0x3911 JUMP JUMPDEST STOP JUMPDEST PUSH2 0x58B PUSH1 0x4 DUP1 CALLDATASIZE SUB DUP2 ADD SWAP1 PUSH2 0x586 SWAP2 SWAP1 PUSH2 0x5703 JUMP JUMPDEST PUSH2 0x3944 JUMP JUMPDEST PUSH1 0x40 MLOAD PUSH2 0x598 SWAP2 SWAP1 PUSH2 0x548B JUMP JUMPDEST PUSH1 0x40 MLOAD DUP1 SWAP2 SUB SWAP1 RETURN JUMPDEST PUSH2 0x5BB PUSH1 0x4 DUP1 CALLDATASIZE SUB DUP2 ADD SWAP1 PUSH2 0x5B6 SWAP2 SWAP1 PUSH2 0x578C JUMP JUMPDEST PUSH2 0x3F76 JUMP JUMPDEST STOP JUMPDEST PUSH2 0x5D7 PUSH1 0x4 DUP1 CALLDATASIZE SUB DUP2 ADD SWAP1 PUSH2 0x5D2 SWAP2 SWAP1 PUSH2 0x57E1 JUMP JUMPDEST PUSH2 0x3FA2 JUMP JUMPDEST STOP JUMPDEST PUSH2 0x5E1 PUSH2 0x405A JUMP JUMPDEST PUSH1 0x40 MLOAD PUSH2 0x5EE SWAP2 SWAP1 PUSH2 0x54C1 JUMP JUMPDEST PUSH1 0x40 MLOAD DUP1 SWAP2 SUB SWAP1 RETURN JUMPDEST PUSH2 0x5FF PUSH2 0x405F JUMP JUMPDEST PUSH1 0x40 MLOAD PUSH2 0x60C SWAP2 SWAP1 PUSH2 0x581B JUMP JUMPDEST PUSH1 0x40 MLOAD DUP1 SWAP2 SUB SWAP1 RETURN JUMPDEST PUSH2 0x62F PUSH1 0x4 DUP1 CALLDATASIZE SUB DUP2 ADD SWAP1 PUSH2 0x62A SWAP2 SWAP1 PUSH2 0x4E01 JUMP JUMPDEST PUSH2 0x4073 JUMP JUMPDEST STOP JUMPDEST PUSH2 0x64B PUSH1 0x4 DUP1 CALLDATASIZE SUB DUP2 ADD SWAP1 PUSH2 0x646 SWAP2 SWAP1 PUSH2 0x4B73 JUMP JUMPDEST PUSH2 0x4193 JUMP JUMPDEST STOP JUMPDEST PUSH2 0x655 PUSH2 0x41A5 JUMP JUMPDEST PUSH1 0x40 MLOAD PUSH2 0x662 SWAP2 SWAP1 PUSH2 0x5843 JUMP JUMPDEST PUSH1 0x40 MLOAD DUP1 SWAP2 SUB SWAP1 RETURN JUMPDEST PUSH2 0x685 PUSH1 0x4 DUP1 CALLDATASIZE SUB DUP2 ADD SWAP1 PUSH2 0x680 SWAP2 SWAP1 PUSH2 0x585C JUMP JUMPDEST PUSH2 0x41BE JUMP JUMPDEST STOP JUMPDEST PUSH2 0x68F PUSH2 0x427A JUMP JUMPDEST PUSH1 0x40 MLOAD PUSH2 0x69C SWAP2 SWAP1 PUSH2 0x589A JUMP JUMPDEST PUSH1 0x40 MLOAD DUP1 SWAP2 SUB SWAP1 RETURN JUMPDEST PUSH2 0x6BF PUSH1 0x4 DUP1 CALLDATASIZE SUB DUP2 ADD SWAP1 PUSH2 0x6BA SWAP2 SWAP1 PUSH2 0x4E01 JUMP JUMPDEST PUSH2 0x42D0 JUMP JUMPDEST STOP JUMPDEST PUSH0 DUP1 PUSH0 DUP1 PUSH0 DUP1 PUSH0 PUSH1 0x8 PUSH0 DUP11 DUP2 MSTORE PUSH1 0x20 ADD SWAP1 DUP2 MSTORE PUSH1 0x20 ADD PUSH0 KECCAK256 PUSH1 0x3 ADD PUSH1 0x1 DUP10 PUSH2 0x6E9 SWAP2 SWAP1 PUSH2 0x58E7 JUMP JUMPDEST DUP2 SLOAD DUP2 LT PUSH2 0x6FA JUMPI PUSH2 0x6F9 PUSH2 0x591A JUMP JUMPDEST JUMPDEST SWAP1 PUSH0 MSTORE PUSH1 0x20 PUSH0 KECCAK256 SWAP1 PUSH1 0x5 MUL ADD PUSH1 0x40 MLOAD DUP1 PUSH1 0xE0 ADD PUSH1 0x40 MSTORE SWAP1 DUP2 PUSH0 DUP3 ADD PUSH0 SWAP1 SLOAD SWAP1 PUSH2 0x100 EXP SWAP1 DIV PUSH16 0xFFFFFFFFFFFFFFFFFFFFFFFFFFFFFFFF AND PUSH16 0xFFFFFFFFFFFFFFFFFFFFFFFFFFFFFFFF AND PUSH16 0xFFFFFFFFFFFFFFFFFFFFFFFFFFFFFFFF AND DUP2 MSTORE PUSH1 0x20 ADD PUSH0 DUP3 ADD PUSH1 0x10 SWAP1 SLOAD SWAP1 PUSH2 0x100 EXP SWAP1 DIV PUSH16 0xFFFFFFFFFFFFFFFFFFFFFFFFFFFFFFFF AND PUSH16 0xFFFFFFFFFFFFFFFFFFFFFFFFFFFFFFFF AND PUSH16 0xFFFFFFFFFFFFFFFFFFFFFFFFFFFFFFFF AND DUP2 MSTORE PUSH1 0x20 ADD PUSH1 0x1 DUP3 ADD PUSH0 SWAP1 SLOAD SWAP1 PUSH2 0x100 EXP SWAP1 DIV PUSH16 0xFFFFFFFFFFFFFFFFFFFFFFFFFFFFFFFF AND PUSH16 0xFFFFFFFFFFFFFFFFFFFFFFFFFFFFFFFF AND PUSH16 0xFFFFFFFFFFFFFFFFFFFFFFFFFFFFFFFF AND DUP2 MSTORE PUSH1 0x20 ADD PUSH1 0x2 DUP3 ADD SLOAD DUP2 MSTORE PUSH1 0x20 ADD PUSH1 0x3 DUP3 ADD PUSH0 SWAP1 SLOAD SWAP1 PUSH2 0x100 EXP SWAP1 DIV PUSH4 0xFFFFFFFF AND PUSH4 0xFFFFFFFF AND PUSH4 0xFFFFFFFF AND DUP2 MSTORE PUSH1 0x20 ADD PUSH1 0x3 DUP3 ADD PUSH1 0x4 SWAP1 SLOAD SWAP1 PUSH2 0x100 EXP SWAP1 DIV PUSH1 0xFF AND ISZERO ISZERO ISZERO ISZERO DUP2 MSTORE PUSH1 0x20 ADD PUSH1 0x4 DUP3 ADD DUP1 SLOAD DUP1 PUSH1 0x20 MUL PUSH1 0x20 ADD PUSH1 0x40 MLOAD SWAP1 DUP2 ADD PUSH1 0x40 MSTORE DUP1 SWAP3 SWAP2 SWAP1 DUP2 DUP2 MSTORE PUSH1 0x20 ADD DUP3 DUP1 SLOAD DUP1 ISZERO PUSH2 0x8AD JUMPI PUSH1 0x20 MUL DUP3 ADD SWAP2 SWAP1 PUSH0 MSTORE PUSH1 0x20 PUSH0 KECCAK256 SWAP1 PUSH0 SWAP1 JUMPDEST DUP3 DUP3 SWAP1 SLOAD SWAP1 PUSH2 0x100 EXP SWAP1 DIV PUSH4 0xFFFFFFFF AND PUSH4 0xFFFFFFFF AND DUP2 MSTORE PUSH1 0x20 ADD SWAP1 PUSH1 0x4 ADD SWAP1 PUSH1 0x20 DUP3 PUSH1 0x3 ADD DIV SWAP3 DUP4 ADD SWAP3 PUSH1 0x1 SUB DUP3 MUL SWAP2 POP DUP1 DUP5 GT PUSH2 0x870 JUMPI SWAP1 POP JUMPDEST POP POP POP POP POP DUP2 MSTORE POP POP SWAP1 POP DUP1 PUSH0 ADD MLOAD SWAP7 POP DUP1 PUSH1 0x20 ADD MLOAD SWAP6 POP DUP1 PUSH1 0x40 ADD MLOAD SWAP5 POP DUP1 PUSH1 0x60 ADD MLOAD SWAP4 POP DUP1 PUSH1 0x80 ADD MLOAD SWAP3 POP DUP1 PUSH1 0xA0 ADD MLOAD SWAP2 POP POP SWAP3 SWAP6 POP SWAP3 SWAP6 POP SWAP3 SWAP6 JUMP JUMPDEST PUSH0 DUP1 PUSH0 DUP1 PUSH0 DUP1 PUSH0 PUSH1 0x8 PUSH0 DUP10 DUP2 MSTORE PUSH1 0x20 ADD SWAP1 DUP2 MSTORE PUSH1 0x20 ADD PUSH0 KECCAK256 PUSH1 0x40 MLOAD DUP1 PUSH1 0xC0 ADD PUSH1 0x40 MSTORE SWAP1 DUP2 PUSH0 DUP3 ADD PUSH0 SWAP1 SLOAD SWAP1 PUSH2 0x100 EXP SWAP1 DIV PUSH16 0xFFFFFFFFFFFFFFFFFFFFFFFFFFFFFFFF AND PUSH16 0xFFFFFFFFFFFFFFFFFFFFFFFFFFFFFFFF AND PUSH16 0xFFFFFFFFFFFFFFFFFFFFFFFFFFFFFFFF AND DUP2 MSTORE PUSH1 0x20 ADD PUSH0 DUP3 ADD PUSH1 0x10 SWAP1 SLOAD SWAP1 PUSH2 0x100 EXP SWAP1 DIV PUSH16 0xFFFFFFFFFFFFFFFFFFFFFFFFFFFFFFFF AND PUSH16 0xFFFFFFFFFFFFFFFFFFFFFFFFFFFFFFFF AND PUSH16 0xFFFFFFFFFFFFFFFFFFFFFFFFFFFFFFFF AND DUP2 MSTORE PUSH1 0x20 ADD PUSH1 0x1 DUP3 ADD PUSH0 SWAP1 SLOAD SWAP1 PUSH2 0x100 EXP SWAP1 DIV PUSH16 0xFFFFFFFFFFFFFFFFFFFFFFFFFFFFFFFF AND PUSH16 0xFFFFFFFFFFFFFFFFFFFFFFFFFFFFFFFF AND PUSH16 0xFFFFFFFFFFFFFFFFFFFFFFFFFFFFFFFF AND DUP2 MSTORE PUSH1 0x20 ADD PUSH1 0x1 DUP3 ADD PUSH1 0x10 SWAP1 SLOAD SWAP1 PUSH2 0x100 EXP SWAP1 DIV PUSH16 0xFFFFFFFFFFFFFFFFFFFFFFFFFFFFFFFF AND PUSH16 0xFFFFFFFFFFFFFFFFFFFFFFFFFFFFFFFF AND PUSH16 0xFFFFFFFFFFFFFFFFFFFFFFFFFFFFFFFF AND DUP2 MSTORE PUSH1 0x20 ADD PUSH1 0x2 DUP3 ADD PUSH0 SWAP1 SLOAD SWAP1 PUSH2 0x100 EXP SWAP1 DIV PUSH16 0xFFFFFFFFFFFFFFFFFFFFFFFFFFFFFFFF AND PUSH16 0xFFFFFFFFFFFFFFFFFFFFFFFFFFFFFFFF AND PUSH16 0xFFFFFFFFFFFFFFFFFFFFFFFFFFFFFFFF AND DUP2 MSTORE PUSH1 0x20 ADD PUSH1 0x3 DUP3 ADD DUP1 SLOAD DUP1 PUSH1 0x20 MUL PUSH1 0x20 ADD PUSH1 0x40 MLOAD SWAP1 DUP2 ADD PUSH1 0x40 MSTORE DUP1 SWAP3 SWAP2 SWAP1 DUP2 DUP2 MSTORE PUSH1 0x20 ADD PUSH0 SWAP1 JUMPDEST DUP3 DUP3 LT ISZERO PUSH2 0xC75 JUMPI DUP4 DUP3 SWAP1 PUSH0 MSTORE PUSH1 0x20 PUSH0 KECCAK256 SWAP1 PUSH1 0x5 MUL ADD PUSH1 0x40 MLOAD DUP1 PUSH1 0xE0 ADD PUSH1 0x40 MSTORE SWAP1 DUP2 PUSH0 DUP3 ADD PUSH0 SWAP1 SLOAD SWAP1 PUSH2 0x100 EXP SWAP1 DIV PUSH16 0xFFFFFFFFFFFFFFFFFFFFFFFFFFFFFFFF AND PUSH16 0xFFFFFFFFFFFFFFFFFFFFFFFFFFFFFFFF AND PUSH16 0xFFFFFFFFFFFFFFFFFFFFFFFFFFFFFFFF AND DUP2 MSTORE PUSH1 0x20 ADD PUSH0 DUP3 ADD PUSH1 0x10 SWAP1 SLOAD SWAP1 PUSH2 0x100 EXP SWAP1 DIV PUSH16 0xFFFFFFFFFFFFFFFFFFFFFFFFFFFFFFFF AND PUSH16 0xFFFFFFFFFFFFFFFFFFFFFFFFFFFFFFFF AND PUSH16 0xFFFFFFFFFFFFFFFFFFFFFFFFFFFFFFFF AND DUP2 MSTORE PUSH1 0x20 ADD PUSH1 0x1 DUP3 ADD PUSH0 SWAP1 SLOAD SWAP1 PUSH2 0x100 EXP SWAP1 DIV PUSH16 0xFFFFFFFFFFFFFFFFFFFFFFFFFFFFFFFF AND PUSH16 0xFFFFFFFFFFFFFFFFFFFFFFFFFFFFFFFF AND PUSH16 0xFFFFFFFFFFFFFFFFFFFFFFFFFFFFFFFF AND DUP2 MSTORE PUSH1 0x20 ADD PUSH1 0x2 DUP3 ADD SLOAD DUP2 MSTORE PUSH1 0x20 ADD PUSH1 0x3 DUP3 ADD PUSH0 SWAP1 SLOAD SWAP1 PUSH2 0x100 EXP SWAP1 DIV PUSH4 0xFFFFFFFF AND PUSH4 0xFFFFFFFF AND PUSH4 0xFFFFFFFF AND DUP2 MSTORE PUSH1 0x20 ADD PUSH1 0x3 DUP3 ADD PUSH1 0x4 SWAP1 SLOAD SWAP1 PUSH2 0x100 EXP SWAP1 DIV PUSH1 0xFF AND ISZERO ISZERO ISZERO ISZERO DUP2 MSTORE PUSH1 0x20 ADD PUSH1 0x4 DUP3 ADD DUP1 SLOAD DUP1 PUSH1 0x20 MUL PUSH1 0x20 ADD PUSH1 0x40 MLOAD SWAP1 DUP2 ADD PUSH1 0x40 MSTORE DUP1 SWAP3 SWAP2 SWAP1 DUP2 DUP2 MSTORE PUSH1 0x20 ADD DUP3 DUP1 SLOAD DUP1 ISZERO PUSH2 0xC5D JUMPI PUSH1 0x20 MUL DUP3 ADD SWAP2 SWAP1 PUSH0 MSTORE PUSH1 0x20 PUSH0 KECCAK256 SWAP1 PUSH0 SWAP1 JUMPDEST DUP3 DUP3 SWAP1 SLOAD SWAP1 PUSH2 0x100 EXP SWAP1 DIV PUSH4 0xFFFFFFFF AND PUSH4 0xFFFFFFFF AND DUP2 MSTORE PUSH1 0x20 ADD SWAP1 PUSH1 0x4 ADD SWAP1 PUSH1 0x20 DUP3 PUSH1 0x3 ADD DIV SWAP3 DUP4 ADD SWAP3 PUSH1 0x1 SUB DUP3 MUL SWAP2 POP DUP1 DUP5 GT PUSH2 0xC20 JUMPI SWAP1 POP JUMPDEST POP POP POP POP POP DUP2 MSTORE POP POP DUP2 MSTORE PUSH1 0x20 ADD SWAP1 PUSH1 0x1 ADD SWAP1 PUSH2 0xAA0 JUMP JUMPDEST POP POP POP POP DUP2 MSTORE POP POP SWAP1 POP DUP1 PUSH0 ADD MLOAD SWAP7 POP DUP1 PUSH1 0x20 ADD MLOAD SWAP6 POP DUP1 PUSH1 0x40 ADD MLOAD SWAP5 POP DUP1 PUSH1 0x60 ADD MLOAD SWAP4 POP DUP1 PUSH1 0x80 ADD MLOAD SWAP3 POP DUP1 PUSH1 0xA0 ADD MLOAD MLOAD SWAP2 POP POP SWAP2 SWAP4 SWAP6 POP SWAP2 SWAP4 SWAP6 JUMP JUMPDEST PUSH32 0x0 PUSH20 0xFFFFFFFFFFFFFFFFFFFFFFFFFFFFFFFFFFFFFFFF AND CALLER PUSH20 0xFFFFFFFFFFFFFFFFFFFFFFFFFFFFFFFFFFFFFFFF AND EQ PUSH2 0xD65 JUMPI CALLER PUSH32 0x0 PUSH1 0x40 MLOAD PUSH32 0x1CF993F400000000000000000000000000000000000000000000000000000000 DUP2 MSTORE PUSH1 0x4 ADD PUSH2 0xD5C SWAP3 SWAP2 SWAP1 PUSH2 0x5947 JUMP JUMPDEST PUSH1 0x40 MLOAD DUP1 SWAP2 SUB SWAP1 REVERT JUMPDEST PUSH2 0xD6F DUP3 DUP3 PUSH2 0x4354 JUMP JUMPDEST POP POP JUMP JUMPDEST PUSH1 0x60 DUP1 PUSH0 DUP1 PUSH2 0xD81 DUP6 PUSH2 0x22E9 JUMP JUMPDEST SWAP1 POP PUSH0 DUP2 MLOAD PUSH8 0xFFFFFFFFFFFFFFFF DUP2 GT ISZERO PUSH2 0xD9F JUMPI PUSH2 0xD9E PUSH2 0x4C11 JUMP JUMPDEST JUMPDEST PUSH1 0x40 MLOAD SWAP1 DUP1 DUP3 MSTORE DUP1 PUSH1 0x20 MUL PUSH1 0x20 ADD DUP3 ADD PUSH1 0x40 MSTORE DUP1 ISZERO PUSH2 0xDCD JUMPI DUP2 PUSH1 0x20 ADD PUSH1 0x20 DUP3 MUL DUP1 CALLDATASIZE DUP4 CALLDATACOPY DUP1 DUP3 ADD SWAP2 POP POP SWAP1 POP JUMPDEST POP SWAP1 POP PUSH0 DUP3 MLOAD PUSH8 0xFFFFFFFFFFFFFFFF DUP2 GT ISZERO PUSH2 0xDEC JUMPI PUSH2 0xDEB PUSH2 0x4C11 JUMP JUMPDEST JUMPDEST PUSH1 0x40 MLOAD SWAP1 DUP1 DUP3 MSTORE DUP1 PUSH1 0x20 MUL PUSH1 0x20 ADD DUP3 ADD PUSH1 0x40 MSTORE DUP1 ISZERO PUSH2 0xE1A JUMPI DUP2 PUSH1 0x20 ADD PUSH1 0x20 DUP3 MUL DUP1 CALLDATASIZE DUP4 CALLDATACOPY DUP1 DUP3 ADD SWAP2 POP POP SWAP1 POP JUMPDEST POP SWAP1 POP PUSH0 DUP1 PUSH0 SWAP1 POP JUMPDEST DUP5 MLOAD DUP2 LT ISZERO PUSH2 0xF59 JUMPI PUSH0 DUP6 DUP3 DUP2 MLOAD DUP2 LT PUSH2 0xE40 JUMPI PUSH2 0xE3F PUSH2 0x591A JUMP JUMPDEST JUMPDEST PUSH1 0x20 MUL PUSH1 0x20 ADD ADD MLOAD SWAP1 POP PUSH0 DUP2 PUSH0 ADD MLOAD SWAP1 POP PUSH0 DUP3 PUSH1 0x20 ADD MLOAD SWAP1 POP PUSH1 0x8 PUSH0 DUP4 DUP2 MSTORE PUSH1 0x20 ADD SWAP1 DUP2 MSTORE PUSH1 0x20 ADD PUSH0 KECCAK256 PUSH1 0x3 ADD PUSH1 0x1 DUP3 PUSH2 0xE7A SWAP2 SWAP1 PUSH2 0x58E7 JUMP JUMPDEST DUP2 SLOAD DUP2 LT PUSH2 0xE8B JUMPI PUSH2 0xE8A PUSH2 0x591A JUMP JUMPDEST JUMPDEST SWAP1 PUSH0 MSTORE PUSH1 0x20 PUSH0 KECCAK256 SWAP1 PUSH1 0x5 MUL ADD PUSH1 0x3 ADD PUSH1 0x4 SWAP1 SLOAD SWAP1 PUSH2 0x100 EXP SWAP1 DIV PUSH1 0xFF AND PUSH2 0xF49 JUMPI PUSH1 0x8 PUSH0 DUP4 DUP2 MSTORE PUSH1 0x20 ADD SWAP1 DUP2 MSTORE PUSH1 0x20 ADD PUSH0 KECCAK256 PUSH0 ADD PUSH0 SWAP1 SLOAD SWAP1 PUSH2 0x100 EXP SWAP1 DIV PUSH16 0xFFFFFFFFFFFFFFFFFFFFFFFFFFFFFFFF AND PUSH16 0xFFFFFFFFFFFFFFFFFFFFFFFFFFFFFFFF AND DUP10 PUSH2 0xEF8 SWAP2 SWAP1 PUSH2 0x596E JUMP JUMPDEST SWAP9 POP DUP2 DUP8 DUP7 DUP2 MLOAD DUP2 LT PUSH2 0xF0E JUMPI PUSH2 0xF0D PUSH2 0x591A JUMP JUMPDEST JUMPDEST PUSH1 0x20 MUL PUSH1 0x20 ADD ADD DUP2 DUP2 MSTORE POP POP DUP1 DUP7 DUP7 DUP2 MLOAD DUP2 LT PUSH2 0xF2E JUMPI PUSH2 0xF2D PUSH2 0x591A JUMP JUMPDEST JUMPDEST PUSH1 0x20 MUL PUSH1 0x20 ADD ADD DUP2 DUP2 MSTORE POP POP DUP5 DUP1 PUSH2 0xF45 SWAP1 PUSH2 0x59A1 JUMP JUMPDEST SWAP6 POP POP JUMPDEST POP POP POP DUP1 DUP1 PUSH1 0x1 ADD SWAP2 POP POP PUSH2 0xE23 JUMP JUMPDEST POP DUP1 PUSH8 0xFFFFFFFFFFFFFFFF DUP2 GT ISZERO PUSH2 0xF74 JUMPI PUSH2 0xF73 PUSH2 0x4C11 JUMP JUMPDEST JUMPDEST PUSH1 0x40 MLOAD SWAP1 DUP1 DUP3 MSTORE DUP1 PUSH1 0x20 MUL PUSH1 0x20 ADD DUP3 ADD PUSH1 0x40 MSTORE DUP1 ISZERO PUSH2 0xFA2 JUMPI DUP2 PUSH1 0x20 ADD PUSH1 0x20 DUP3 MUL DUP1 CALLDATASIZE DUP4 CALLDATACOPY DUP1 DUP3 ADD SWAP2 POP POP SWAP1 POP JUMPDEST POP SWAP7 POP DUP1 PUSH8 0xFFFFFFFFFFFFFFFF DUP2 GT ISZERO PUSH2 0xFBF JUMPI PUSH2 0xFBE PUSH2 0x4C11 JUMP JUMPDEST JUMPDEST PUSH1 0x40 MLOAD SWAP1 DUP1 DUP3 MSTORE DUP1 PUSH1 0x20 MUL PUSH1 0x20 ADD DUP3 ADD PUSH1 0x40 MSTORE DUP1 ISZERO PUSH2 0xFED JUMPI DUP2 PUSH1 0x20 ADD PUSH1 0x20 DUP3 MUL DUP1 CALLDATASIZE DUP4 CALLDATACOPY DUP1 DUP3 ADD SWAP2 POP POP SWAP1 POP JUMPDEST POP SWAP6 POP PUSH0 JUMPDEST DUP2 DUP2 LT ISZERO PUSH2 0x107B JUMPI DUP4 DUP2 DUP2 MLOAD DUP2 LT PUSH2 0x100D JUMPI PUSH2 0x100C PUSH2 0x591A JUMP JUMPDEST JUMPDEST PUSH1 0x20 MUL PUSH1 0x20 ADD ADD MLOAD DUP9 DUP3 DUP2 MLOAD DUP2 LT PUSH2 0x1028 JUMPI PUSH2 0x1027 PUSH2 0x591A JUMP JUMPDEST JUMPDEST PUSH1 0x20 MUL PUSH1 0x20 ADD ADD DUP2 DUP2 MSTORE POP POP DUP3 DUP2 DUP2 MLOAD DUP2 LT PUSH2 0x1047 JUMPI PUSH2 0x1046 PUSH2 0x591A JUMP JUMPDEST JUMPDEST PUSH1 0x20 MUL PUSH1 0x20 ADD ADD MLOAD DUP8 DUP3 DUP2 MLOAD DUP2 LT PUSH2 0x1062 JUMPI PUSH2 0x1061 PUSH2 0x591A JUMP JUMPDEST JUMPDEST PUSH1 0x20 MUL PUSH1 0x20 ADD ADD DUP2 DUP2 MSTORE POP POP DUP1 DUP1 PUSH1 0x1 ADD SWAP2 POP POP PUSH2 0xFF2 JUMP JUMPDEST POP POP POP POP POP SWAP2 SWAP4 SWAP1 SWAP3 POP JUMP JUMPDEST PUSH1 0x2 PUSH1 0xA SWAP1 SLOAD SWAP1 PUSH2 0x100 EXP SWAP1 DIV PUSH4 0xFFFFFFFF AND DUP2 JUMP JUMPDEST PUSH1 0x60 PUSH1 0x8 PUSH0 DUP5 DUP2 MSTORE PUSH1 0x20 ADD SWAP1 DUP2 MSTORE PUSH1 0x20 ADD PUSH0 KECCAK256 PUSH1 0x3 ADD PUSH1 0x1 DUP4 PUSH2 0x10C0 SWAP2 SWAP1 PUSH2 0x58E7 JUMP JUMPDEST DUP2 SLOAD DUP2 LT PUSH2 0x10D1 JUMPI PUSH2 0x10D0 PUSH2 0x591A JUMP JUMPDEST JUMPDEST SWAP1 PUSH0 MSTORE PUSH1 0x20 PUSH0 KECCAK256 SWAP1 PUSH1 0x5 MUL ADD PUSH1 0x4 ADD DUP1 SLOAD DUP1 PUSH1 0x20 MUL PUSH1 0x20 ADD PUSH1 0x40 MLOAD SWAP1 DUP2 ADD PUSH1 0x40 MSTORE DUP1 SWAP3 SWAP2 SWAP1 DUP2 DUP2 MSTORE PUSH1 0x20 ADD DUP3 DUP1 SLOAD DUP1 ISZERO PUSH2 0x1153 JUMPI PUSH1 0x20 MUL DUP3 ADD SWAP2 SWAP1 PUSH0 MSTORE PUSH1 0x20 PUSH0 KECCAK256 SWAP1 PUSH0 SWAP1 JUMPDEST DUP3 DUP3 SWAP1 SLOAD SWAP1 PUSH2 0x100 EXP SWAP1 DIV PUSH4 0xFFFFFFFF AND PUSH4 0xFFFFFFFF AND DUP2 MSTORE PUSH1 0x20 ADD SWAP1 PUSH1 0x4 ADD SWAP1 PUSH1 0x20 DUP3 PUSH1 0x3 ADD DIV SWAP3 DUP4 ADD SWAP3 PUSH1 0x1 SUB DUP3 MUL SWAP2 POP DUP1 DUP5 GT PUSH2 0x1116 JUMPI SWAP1 POP JUMPDEST POP POP POP POP POP SWAP1 POP SWAP3 SWAP2 POP POP JUMP JUMPDEST DUP2 DUP2 SWAP1 POP DUP5 DUP5 SWAP1 POP EQ PUSH2 0x119F JUMPI PUSH1 0x40 MLOAD PUSH32 0xDBA17AF500000000000000000000000000000000000000000000000000000000 DUP2 MSTORE PUSH1 0x4 ADD PUSH1 0x40 MLOAD DUP1 SWAP2 SUB SWAP1 REVERT JUMPDEST PUSH0 DUP1 PUSH0 SWAP1 POP JUMPDEST DUP6 DUP6 SWAP1 POP DUP2 LT ISZERO PUSH2 0x158F JUMPI PUSH0 PUSH1 0x8 PUSH0 DUP9 DUP9 DUP6 DUP2 DUP2 LT PUSH2 0x11C7 JUMPI PUSH2 0x11C6 PUSH2 0x591A JUMP JUMPDEST JUMPDEST SWAP1 POP PUSH1 0x20 MUL ADD CALLDATALOAD DUP2 MSTORE PUSH1 0x20 ADD SWAP1 DUP2 MSTORE PUSH1 0x20 ADD PUSH0 KECCAK256 PUSH1 0x3 ADD PUSH1 0x1 DUP7 DUP7 DUP6 DUP2 DUP2 LT PUSH2 0x11F3 JUMPI PUSH2 0x11F2 PUSH2 0x591A JUMP JUMPDEST JUMPDEST SWAP1 POP PUSH1 0x20 MUL ADD CALLDATALOAD PUSH2 0x1204 SWAP2 SWAP1 PUSH2 0x58E7 JUMP JUMPDEST DUP2 SLOAD DUP2 LT PUSH2 0x1215 JUMPI PUSH2 0x1214 PUSH2 0x591A JUMP JUMPDEST JUMPDEST SWAP1 PUSH0 MSTORE PUSH1 0x20 PUSH0 KECCAK256 SWAP1 PUSH1 0x5 MUL ADD PUSH1 0x3 ADD PUSH0 SWAP1 SLOAD SWAP1 PUSH2 0x100 EXP SWAP1 DIV PUSH4 0xFFFFFFFF AND SWAP1 POP PUSH0 PUSH1 0x8 PUSH0 DUP10 DUP10 DUP7 DUP2 DUP2 LT PUSH2 0x124D JUMPI PUSH2 0x124C PUSH2 0x591A JUMP JUMPDEST JUMPDEST SWAP1 POP PUSH1 0x20 MUL ADD CALLDATALOAD DUP2 MSTORE PUSH1 0x20 ADD SWAP1 DUP2 MSTORE PUSH1 0x20 ADD PUSH0 KECCAK256 PUSH1 0x3 ADD PUSH1 0x1 DUP8 DUP8 DUP7 DUP2 DUP2 LT PUSH2 0x1279 JUMPI PUSH2 0x1278 PUSH2 0x591A JUMP JUMPDEST JUMPDEST SWAP1 POP PUSH1 0x20 MUL ADD CALLDATALOAD PUSH2 0x128A SWAP2 SWAP1 PUSH2 0x58E7 JUMP JUMPDEST DUP2 SLOAD DUP2 LT PUSH2 0x129B JUMPI PUSH2 0x129A PUSH2 0x591A JUMP JUMPDEST JUMPDEST SWAP1 PUSH0 MSTORE PUSH1 0x20 PUSH0 KECCAK256 SWAP1 PUSH1 0x5 MUL ADD PUSH1 0x3 ADD PUSH1 0x4 SWAP1 SLOAD SWAP1 PUSH2 0x100 EXP SWAP1 DIV PUSH1 0xFF AND SWAP1 POP PUSH0 DUP3 PUSH4 0xFFFFFFFF AND SUB PUSH2 0x12F9 JUMPI PUSH1 0x40 MLOAD PUSH32 0xCB84433000000000000000000000000000000000000000000000000000000000 DUP2 MSTORE PUSH1 0x4 ADD PUSH1 0x40 MLOAD DUP1 SWAP2 SUB SWAP1 REVERT JUMPDEST DUP1 ISZERO PUSH2 0x1331 JUMPI PUSH1 0x40 MLOAD PUSH32 0x646CF55800000000000000000000000000000000000000000000000000000000 DUP2 MSTORE PUSH1 0x4 ADD PUSH1 0x40 MLOAD DUP1 SWAP2 SUB SWAP1 REVERT JUMPDEST PUSH1 0x5 PUSH0 DUP10 DUP10 DUP7 DUP2 DUP2 LT PUSH2 0x1347 JUMPI PUSH2 0x1346 PUSH2 0x591A JUMP JUMPDEST JUMPDEST SWAP1 POP PUSH1 0x20 MUL ADD CALLDATALOAD DUP2 MSTORE PUSH1 0x20 ADD SWAP1 DUP2 MSTORE PUSH1 0x20 ADD PUSH0 KECCAK256 PUSH0 DUP8 DUP8 DUP7 DUP2 DUP2 LT PUSH2 0x136F JUMPI PUSH2 0x136E PUSH2 0x591A JUMP JUMPDEST JUMPDEST SWAP1 POP PUSH1 0x20 MUL ADD CALLDATALOAD DUP2 MSTORE PUSH1 0x20 ADD SWAP1 DUP2 MSTORE PUSH1 0x20 ADD PUSH0 KECCAK256 PUSH0 DUP4 PUSH4 0xFFFFFFFF AND PUSH4 0xFFFFFFFF AND DUP2 MSTORE PUSH1 0x20 ADD SWAP1 DUP2 MSTORE PUSH1 0x20 ADD PUSH0 KECCAK256 PUSH0 SWAP1 SLOAD SWAP1 PUSH2 0x100 EXP SWAP1 DIV PUSH20 0xFFFFFFFFFFFFFFFFFFFFFFFFFFFFFFFFFFFFFFFF AND PUSH20 0xFFFFFFFFFFFFFFFFFFFFFFFFFFFFFFFFFFFFFFFF AND CALLER PUSH20 0xFFFFFFFFFFFFFFFFFFFFFFFFFFFFFFFFFFFFFFFF AND EQ PUSH2 0x1422 JUMPI PUSH1 0x40 MLOAD PUSH32 0x618C724200000000000000000000000000000000000000000000000000000000 DUP2 MSTORE PUSH1 0x4 ADD PUSH1 0x40 MLOAD DUP1 SWAP2 SUB SWAP1 REVERT JUMPDEST PUSH1 0x8 PUSH0 DUP10 DUP10 DUP7 DUP2 DUP2 LT PUSH2 0x1438 JUMPI PUSH2 0x1437 PUSH2 0x591A JUMP JUMPDEST JUMPDEST SWAP1 POP PUSH1 0x20 MUL ADD CALLDATALOAD DUP2 MSTORE PUSH1 0x20 ADD SWAP1 DUP2 MSTORE PUSH1 0x20 ADD PUSH0 KECCAK256 PUSH0 ADD PUSH0 SWAP1 SLOAD SWAP1 PUSH2 0x100 EXP SWAP1 DIV PUSH16 0xFFFFFFFFFFFFFFFFFFFFFFFFFFFFFFFF AND PUSH16 0xFFFFFFFFFFFFFFFFFFFFFFFFFFFFFFFF AND DUP5 PUSH2 0x1487 SWAP2 SWAP1 PUSH2 0x596E JUMP JUMPDEST SWAP4 POP PUSH1 0x1 PUSH1 0x8 PUSH0 DUP11 DUP11 DUP8 DUP2 DUP2 LT PUSH2 0x14A1 JUMPI PUSH2 0x14A0 PUSH2 0x591A JUMP JUMPDEST JUMPDEST SWAP1 POP PUSH1 0x20 MUL ADD CALLDATALOAD DUP2 MSTORE PUSH1 0x20 ADD SWAP1 DUP2 MSTORE PUSH1 0x20 ADD PUSH0 KECCAK256 PUSH1 0x3 ADD PUSH1 0x1 DUP9 DUP9 DUP8 DUP2 DUP2 LT PUSH2 0x14CD JUMPI PUSH2 0x14CC PUSH2 0x591A JUMP JUMPDEST JUMPDEST SWAP1 POP PUSH1 0x20 MUL ADD CALLDATALOAD PUSH2 0x14DE SWAP2 SWAP1 PUSH2 0x58E7 JUMP JUMPDEST DUP2 SLOAD DUP2 LT PUSH2 0x14EF JUMPI PUSH2 0x14EE PUSH2 0x591A JUMP JUMPDEST JUMPDEST SWAP1 PUSH0 MSTORE PUSH1 0x20 PUSH0 KECCAK256 SWAP1 PUSH1 0x5 MUL ADD PUSH1 0x3 ADD PUSH1 0x4 PUSH2 0x100 EXP DUP2 SLOAD DUP2 PUSH1 0xFF MUL NOT AND SWAP1 DUP4 ISZERO ISZERO MUL OR SWAP1 SSTORE POP PUSH32 0x1128BEE023F7DCF9B3F27E6D488DF4C2B5A149077A2E3437A16E8DFDBFE0F38D DUP9 DUP9 DUP6 DUP2 DUP2 LT PUSH2 0x1549 JUMPI PUSH2 0x1548 PUSH2 0x591A JUMP JUMPDEST JUMPDEST SWAP1 POP PUSH1 0x20 MUL ADD CALLDATALOAD DUP8 DUP8 DUP7 DUP2 DUP2 LT PUSH2 0x1563 JUMPI PUSH2 0x1562 PUSH2 0x591A JUMP JUMPDEST JUMPDEST SWAP1 POP PUSH1 0x20 MUL ADD CALLDATALOAD PUSH1 0x40 MLOAD PUSH2 0x1578 SWAP3 SWAP2 SWAP1 PUSH2 0x59E8 JUMP JUMPDEST PUSH1 0x40 MLOAD DUP1 SWAP2 SUB SWAP1 LOG1 POP POP DUP1 DUP1 PUSH1 0x1 ADD SWAP2 POP POP PUSH2 0x11A5 JUMP JUMPDEST POP PUSH2 0x15DB DUP7 DUP3 PUSH32 0x0 PUSH20 0xFFFFFFFFFFFFFFFFFFFFFFFFFFFFFFFFFFFFFFFF AND PUSH2 0x446B SWAP1 SWAP3 SWAP2 SWAP1 PUSH4 0xFFFFFFFF AND JUMP JUMPDEST POP POP POP POP POP POP JUMP JUMPDEST PUSH0 PUSH1 0x8 PUSH0 DUP4 DUP2 MSTORE PUSH1 0x20 ADD SWAP1 DUP2 MSTORE PUSH1 0x20 ADD PUSH0 KECCAK256 PUSH1 0x40 MLOAD DUP1 PUSH1 0xC0 ADD PUSH1 0x40 MSTORE SWAP1 DUP2 PUSH0 DUP3 ADD PUSH0 SWAP1 SLOAD SWAP1 PUSH2 0x100 EXP SWAP1 DIV PUSH16 0xFFFFFFFFFFFFFFFFFFFFFFFFFFFFFFFF AND PUSH16 0xFFFFFFFFFFFFFFFFFFFFFFFFFFFFFFFF AND PUSH16 0xFFFFFFFFFFFFFFFFFFFFFFFFFFFFFFFF AND DUP2 MSTORE PUSH1 0x20 ADD PUSH0 DUP3 ADD PUSH1 0x10 SWAP1 SLOAD SWAP1 PUSH2 0x100 EXP SWAP1 DIV PUSH16 0xFFFFFFFFFFFFFFFFFFFFFFFFFFFFFFFF AND PUSH16 0xFFFFFFFFFFFFFFFFFFFFFFFFFFFFFFFF AND PUSH16 0xFFFFFFFFFFFFFFFFFFFFFFFFFFFFFFFF AND DUP2 MSTORE PUSH1 0x20 ADD PUSH1 0x1 DUP3 ADD PUSH0 SWAP1 SLOAD SWAP1 PUSH2 0x100 EXP SWAP1 DIV PUSH16 0xFFFFFFFFFFFFFFFFFFFFFFFFFFFFFFFF AND PUSH16 0xFFFFFFFFFFFFFFFFFFFFFFFFFFFFFFFF AND PUSH16 0xFFFFFFFFFFFFFFFFFFFFFFFFFFFFFFFF AND DUP2 MSTORE PUSH1 0x20 ADD PUSH1 0x1 DUP3 ADD PUSH1 0x10 SWAP1 SLOAD SWAP1 PUSH2 0x100 EXP SWAP1 DIV PUSH16 0xFFFFFFFFFFFFFFFFFFFFFFFFFFFFFFFF AND PUSH16 0xFFFFFFFFFFFFFFFFFFFFFFFFFFFFFFFF AND PUSH16 0xFFFFFFFFFFFFFFFFFFFFFFFFFFFFFFFF AND DUP2 MSTORE PUSH1 0x20 ADD PUSH1 0x2 DUP3 ADD PUSH0 SWAP1 SLOAD SWAP1 PUSH2 0x100 EXP SWAP1 DIV PUSH16 0xFFFFFFFFFFFFFFFFFFFFFFFFFFFFFFFF AND PUSH16 0xFFFFFFFFFFFFFFFFFFFFFFFFFFFFFFFF AND PUSH16 0xFFFFFFFFFFFFFFFFFFFFFFFFFFFFFFFF AND DUP2 MSTORE PUSH1 0x20 ADD PUSH1 0x3 DUP3 ADD DUP1 SLOAD DUP1 PUSH1 0x20 MUL PUSH1 0x20 ADD PUSH1 0x40 MLOAD SWAP1 DUP2 ADD PUSH1 0x40 MSTORE DUP1 SWAP3 SWAP2 SWAP1 DUP2 DUP2 MSTORE PUSH1 0x20 ADD PUSH0 SWAP1 JUMPDEST DUP3 DUP3 LT ISZERO PUSH2 0x1966 JUMPI DUP4 DUP3 SWAP1 PUSH0 MSTORE PUSH1 0x20 PUSH0 KECCAK256 SWAP1 PUSH1 0x5 MUL ADD PUSH1 0x40 MLOAD DUP1 PUSH1 0xE0 ADD PUSH1 0x40 MSTORE SWAP1 DUP2 PUSH0 DUP3 ADD PUSH0 SWAP1 SLOAD SWAP1 PUSH2 0x100 EXP SWAP1 DIV PUSH16 0xFFFFFFFFFFFFFFFFFFFFFFFFFFFFFFFF AND PUSH16 0xFFFFFFFFFFFFFFFFFFFFFFFFFFFFFFFF AND PUSH16 0xFFFFFFFFFFFFFFFFFFFFFFFFFFFFFFFF AND DUP2 MSTORE PUSH1 0x20 ADD PUSH0 DUP3 ADD PUSH1 0x10 SWAP1 SLOAD SWAP1 PUSH2 0x100 EXP SWAP1 DIV PUSH16 0xFFFFFFFFFFFFFFFFFFFFFFFFFFFFFFFF AND PUSH16 0xFFFFFFFFFFFFFFFFFFFFFFFFFFFFFFFF AND PUSH16 0xFFFFFFFFFFFFFFFFFFFFFFFFFFFFFFFF AND DUP2 MSTORE PUSH1 0x20 ADD PUSH1 0x1 DUP3 ADD PUSH0 SWAP1 SLOAD SWAP1 PUSH2 0x100 EXP SWAP1 DIV PUSH16 0xFFFFFFFFFFFFFFFFFFFFFFFFFFFFFFFF AND PUSH16 0xFFFFFFFFFFFFFFFFFFFFFFFFFFFFFFFF AND PUSH16 0xFFFFFFFFFFFFFFFFFFFFFFFFFFFFFFFF AND DUP2 MSTORE PUSH1 0x20 ADD PUSH1 0x2 DUP3 ADD SLOAD DUP2 MSTORE PUSH1 0x20 ADD PUSH1 0x3 DUP3 ADD PUSH0 SWAP1 SLOAD SWAP1 PUSH2 0x100 EXP SWAP1 DIV PUSH4 0xFFFFFFFF AND PUSH4 0xFFFFFFFF AND PUSH4 0xFFFFFFFF AND DUP2 MSTORE PUSH1 0x20 ADD PUSH1 0x3 DUP3 ADD PUSH1 0x4 SWAP1 SLOAD SWAP1 PUSH2 0x100 EXP SWAP1 DIV PUSH1 0xFF AND ISZERO ISZERO ISZERO ISZERO DUP2 MSTORE PUSH1 0x20 ADD PUSH1 0x4 DUP3 ADD DUP1 SLOAD DUP1 PUSH1 0x20 MUL PUSH1 0x20 ADD PUSH1 0x40 MLOAD SWAP1 DUP2 ADD PUSH1 0x40 MSTORE DUP1 SWAP3 SWAP2 SWAP1 DUP2 DUP2 MSTORE PUSH1 0x20 ADD DUP3 DUP1 SLOAD DUP1 ISZERO PUSH2 0x194E JUMPI PUSH1 0x20 MUL DUP3 ADD SWAP2 SWAP1 PUSH0 MSTORE PUSH1 0x20 PUSH0 KECCAK256 SWAP1 PUSH0 SWAP1 JUMPDEST DUP3 DUP3 SWAP1 SLOAD SWAP1 PUSH2 0x100 EXP SWAP1 DIV PUSH4 0xFFFFFFFF AND PUSH4 0xFFFFFFFF AND DUP2 MSTORE PUSH1 0x20 ADD SWAP1 PUSH1 0x4 ADD SWAP1 PUSH1 0x20 DUP3 PUSH1 0x3 ADD DIV SWAP3 DUP4 ADD SWAP3 PUSH1 0x1 SUB DUP3 MUL SWAP2 POP DUP1 DUP5 GT PUSH2 0x1911 JUMPI SWAP1 POP JUMPDEST POP POP POP POP POP DUP2 MSTORE POP POP DUP2 MSTORE PUSH1 0x20 ADD SWAP1 PUSH1 0x1 ADD SWAP1 PUSH2 0x1791 JUMP JUMPDEST POP POP POP POP DUP2 MSTORE POP POP SWAP1 POP PUSH0 DUP2 PUSH1 0xA0 ADD MLOAD MLOAD SWAP1 POP PUSH0 DUP2 SUB PUSH2 0x19B2 JUMPI PUSH1 0x40 MLOAD PUSH32 0x76ECFFC000000000000000000000000000000000000000000000000000000000 DUP2 MSTORE PUSH1 0x4 ADD PUSH1 0x40 MLOAD DUP1 SWAP2 SUB SWAP1 REVERT JUMPDEST PUSH0 PUSH1 0x8 PUSH0 DUP6 DUP2 MSTORE PUSH1 0x20 ADD SWAP1 DUP2 MSTORE PUSH1 0x20 ADD PUSH0 KECCAK256 PUSH1 0x3 ADD PUSH1 0x1 DUP4 PUSH2 0x19D4 SWAP2 SWAP1 PUSH2 0x58E7 JUMP JUMPDEST DUP2 SLOAD DUP2 LT PUSH2 0x19E5 JUMPI PUSH2 0x19E4 PUSH2 0x591A JUMP JUMPDEST JUMPDEST SWAP1 PUSH0 MSTORE PUSH1 0x20 PUSH0 KECCAK256 SWAP1 PUSH1 0x5 MUL ADD PUSH1 0x40 MLOAD DUP1 PUSH1 0xE0 ADD PUSH1 0x40 MSTORE SWAP1 DUP2 PUSH0 DUP3 ADD PUSH0 SWAP1 SLOAD SWAP1 PUSH2 0x100 EXP SWAP1 DIV PUSH16 0xFFFFFFFFFFFFFFFFFFFFFFFFFFFFFFFF AND PUSH16 0xFFFFFFFFFFFFFFFFFFFFFFFFFFFFFFFF AND PUSH16 0xFFFFFFFFFFFFFFFFFFFFFFFFFFFFFFFF AND DUP2 MSTORE PUSH1 0x20 ADD PUSH0 DUP3 ADD PUSH1 0x10 SWAP1 SLOAD SWAP1 PUSH2 0x100 EXP SWAP1 DIV PUSH16 0xFFFFFFFFFFFFFFFFFFFFFFFFFFFFFFFF AND PUSH16 0xFFFFFFFFFFFFFFFFFFFFFFFFFFFFFFFF AND PUSH16 0xFFFFFFFFFFFFFFFFFFFFFFFFFFFFFFFF AND DUP2 MSTORE PUSH1 0x20 ADD PUSH1 0x1 DUP3 ADD PUSH0 SWAP1 SLOAD SWAP1 PUSH2 0x100 EXP SWAP1 DIV PUSH16 0xFFFFFFFFFFFFFFFFFFFFFFFFFFFFFFFF AND PUSH16 0xFFFFFFFFFFFFFFFFFFFFFFFFFFFFFFFF AND PUSH16 0xFFFFFFFFFFFFFFFFFFFFFFFFFFFFFFFF AND DUP2 MSTORE PUSH1 0x20 ADD PUSH1 0x2 DUP3 ADD SLOAD DUP2 MSTORE PUSH1 0x20 ADD PUSH1 0x3 DUP3 ADD PUSH0 SWAP1 SLOAD SWAP1 PUSH2 0x100 EXP SWAP1 DIV PUSH4 0xFFFFFFFF AND PUSH4 0xFFFFFFFF AND PUSH4 0xFFFFFFFF AND DUP2 MSTORE PUSH1 0x20 ADD PUSH1 0x3 DUP3 ADD PUSH1 0x4 SWAP1 SLOAD SWAP1 PUSH2 0x100 EXP SWAP1 DIV PUSH1 0xFF AND ISZERO ISZERO ISZERO ISZERO DUP2 MSTORE PUSH1 0x20 ADD PUSH1 0x4 DUP3 ADD DUP1 SLOAD DUP1 PUSH1 0x20 MUL PUSH1 0x20 ADD PUSH1 0x40 MLOAD SWAP1 DUP2 ADD PUSH1 0x40 MSTORE DUP1 SWAP3 SWAP2 SWAP1 DUP2 DUP2 MSTORE PUSH1 0x20 ADD DUP3 DUP1 SLOAD DUP1 ISZERO PUSH2 0x1B98 JUMPI PUSH1 0x20 MUL DUP3 ADD SWAP2 SWAP1 PUSH0 MSTORE PUSH1 0x20 PUSH0 KECCAK256 SWAP1 PUSH0 SWAP1 JUMPDEST DUP3 DUP3 SWAP1 SLOAD SWAP1 PUSH2 0x100 EXP SWAP1 DIV PUSH4 0xFFFFFFFF AND PUSH4 0xFFFFFFFF AND DUP2 MSTORE PUSH1 0x20 ADD SWAP1 PUSH1 0x4 ADD SWAP1 PUSH1 0x20 DUP3 PUSH1 0x3 ADD DIV SWAP3 DUP4 ADD SWAP3 PUSH1 0x1 SUB DUP3 MUL SWAP2 POP DUP1 DUP5 GT PUSH2 0x1B5B JUMPI SWAP1 POP JUMPDEST POP POP POP POP POP DUP2 MSTORE POP POP SWAP1 POP DUP1 PUSH1 0x20 ADD MLOAD PUSH16 0xFFFFFFFFFFFFFFFFFFFFFFFFFFFFFFFF AND TIMESTAMP LT ISZERO PUSH2 0x1BF3 JUMPI PUSH1 0x40 MLOAD PUSH32 0xD3018D1800000000000000000000000000000000000000000000000000000000 DUP2 MSTORE PUSH1 0x4 ADD PUSH1 0x40 MLOAD DUP1 SWAP2 SUB SWAP1 REVERT JUMPDEST PUSH0 DUP2 PUSH1 0x60 ADD MLOAD GT ISZERO PUSH2 0x1C31 JUMPI PUSH1 0x40 MLOAD PUSH32 0x97E1D9B00000000000000000000000000000000000000000000000000000000 DUP2 MSTORE PUSH1 0x4 ADD PUSH1 0x40 MLOAD DUP1 SWAP2 SUB SWAP1 REVERT JUMPDEST PUSH0 PUSH32 0x0 PUSH20 0xFFFFFFFFFFFFFFFFFFFFFFFFFFFFFFFFFFFFFFFF AND PUSH4 0x5D3B1D30 PUSH1 0x1 SLOAD PUSH1 0x2 PUSH0 SWAP1 SLOAD SWAP1 PUSH2 0x100 EXP SWAP1 DIV PUSH8 0xFFFFFFFFFFFFFFFF AND PUSH1 0x2 PUSH1 0x8 SWAP1 SLOAD SWAP1 PUSH2 0x100 EXP SWAP1 DIV PUSH2 0xFFFF AND PUSH1 0x2 PUSH1 0xA SWAP1 SLOAD SWAP1 PUSH2 0x100 EXP SWAP1 DIV PUSH4 0xFFFFFFFF AND PUSH1 0x1 PUSH1 0x40 MLOAD DUP7 PUSH4 0xFFFFFFFF AND PUSH1 0xE0 SHL DUP2 MSTORE PUSH1 0x4 ADD PUSH2 0x1CCD SWAP6 SWAP5 SWAP4 SWAP3 SWAP2 SWAP1 PUSH2 0x5A48 JUMP JUMPDEST PUSH1 0x20 PUSH1 0x40 MLOAD DUP1 DUP4 SUB DUP2 PUSH0 DUP8 GAS CALL ISZERO DUP1 ISZERO PUSH2 0x1CE9 JUMPI RETURNDATASIZE PUSH0 DUP1 RETURNDATACOPY RETURNDATASIZE PUSH0 REVERT JUMPDEST POP POP POP POP PUSH1 0x40 MLOAD RETURNDATASIZE PUSH1 0x1F NOT PUSH1 0x1F DUP3 ADD AND DUP3 ADD DUP1 PUSH1 0x40 MSTORE POP DUP2 ADD SWAP1 PUSH2 0x1D0D SWAP2 SWAP1 PUSH2 0x5AAD JUMP JUMPDEST SWAP1 POP PUSH1 0x40 MLOAD DUP1 PUSH1 0x40 ADD PUSH1 0x40 MSTORE DUP1 DUP7 DUP2 MSTORE PUSH1 0x20 ADD DUP5 DUP2 MSTORE POP PUSH1 0x7 PUSH0 DUP4 DUP2 MSTORE PUSH1 0x20 ADD SWAP1 DUP2 MSTORE PUSH1 0x20 ADD PUSH0 KECCAK256 PUSH0 DUP3 ADD MLOAD DUP2 PUSH0 ADD SSTORE PUSH1 0x20 DUP3 ADD MLOAD DUP2 PUSH1 0x1 ADD SSTORE SWAP1 POP POP DUP1 DUP3 PUSH1 0x60 ADD DUP2 DUP2 MSTORE POP POP DUP2 PUSH1 0x8 PUSH0 DUP8 DUP2 MSTORE PUSH1 0x20 ADD SWAP1 DUP2 MSTORE PUSH1 0x20 ADD PUSH0 KECCAK256 PUSH1 0x3 ADD PUSH1 0x1 DUP6 PUSH2 0x1D76 SWAP2 SWAP1 PUSH2 0x58E7 JUMP JUMPDEST DUP2 SLOAD DUP2 LT PUSH2 0x1D87 JUMPI PUSH2 0x1D86 PUSH2 0x591A JUMP JUMPDEST JUMPDEST SWAP1 PUSH0 MSTORE PUSH1 0x20 PUSH0 KECCAK256 SWAP1 PUSH1 0x5 MUL ADD PUSH0 DUP3 ADD MLOAD DUP2 PUSH0 ADD PUSH0 PUSH2 0x100 EXP DUP2 SLOAD DUP2 PUSH16 0xFFFFFFFFFFFFFFFFFFFFFFFFFFFFFFFF MUL NOT AND SWAP1 DUP4 PUSH16 0xFFFFFFFFFFFFFFFFFFFFFFFFFFFFFFFF AND MUL OR SWAP1 SSTORE POP PUSH1 0x20 DUP3 ADD MLOAD DUP2 PUSH0 ADD PUSH1 0x10 PUSH2 0x100 EXP DUP2 SLOAD DUP2 PUSH16 0xFFFFFFFFFFFFFFFFFFFFFFFFFFFFFFFF MUL NOT AND SWAP1 DUP4 PUSH16 0xFFFFFFFFFFFFFFFFFFFFFFFFFFFFFFFF AND MUL OR SWAP1 SSTORE POP PUSH1 0x40 DUP3 ADD MLOAD DUP2 PUSH1 0x1 ADD PUSH0 PUSH2 0x100 EXP DUP2 SLOAD DUP2 PUSH16 0xFFFFFFFFFFFFFFFFFFFFFFFFFFFFFFFF MUL NOT AND SWAP1 DUP4 PUSH16 0xFFFFFFFFFFFFFFFFFFFFFFFFFFFFFFFF AND MUL OR SWAP1 SSTORE POP PUSH1 0x60 DUP3 ADD MLOAD DUP2 PUSH1 0x2 ADD SSTORE PUSH1 0x80 DUP3 ADD MLOAD DUP2 PUSH1 0x3 ADD PUSH0 PUSH2 0x100 EXP DUP2 SLOAD DUP2 PUSH4 0xFFFFFFFF MUL NOT AND SWAP1 DUP4 PUSH4 0xFFFFFFFF AND MUL OR SWAP1 SSTORE POP PUSH1 0xA0 DUP3 ADD MLOAD DUP2 PUSH1 0x3 ADD PUSH1 0x4 PUSH2 0x100 EXP DUP2 SLOAD DUP2 PUSH1 0xFF MUL NOT AND SWAP1 DUP4 ISZERO ISZERO MUL OR SWAP1 SSTORE POP PUSH1 0xC0 DUP3 ADD MLOAD DUP2 PUSH1 0x4 ADD SWAP1 DUP1 MLOAD SWAP1 PUSH1 0x20 ADD SWAP1 PUSH2 0x1EB7 SWAP3 SWAP2 SWAP1 PUSH2 0x48FF JUMP JUMPDEST POP SWAP1 POP POP PUSH0 DUP5 PUSH1 0x80 ADD MLOAD TIMESTAMP PUSH2 0x1ECC SWAP2 SWAP1 PUSH2 0x5AD8 JUMP JUMPDEST SWAP1 POP PUSH0 DUP6 PUSH1 0x60 ADD MLOAD DUP3 PUSH2 0x1EDF SWAP2 SWAP1 PUSH2 0x5AD8 JUMP JUMPDEST SWAP1 POP PUSH0 PUSH1 0x40 MLOAD DUP1 PUSH1 0xE0 ADD PUSH1 0x40 MSTORE DUP1 DUP5 PUSH16 0xFFFFFFFFFFFFFFFFFFFFFFFFFFFFFFFF AND DUP2 MSTORE PUSH1 0x20 ADD DUP4 PUSH16 0xFFFFFFFFFFFFFFFFFFFFFFFFFFFFFFFF AND DUP2 MSTORE PUSH1 0x20 ADD DUP9 PUSH1 0x20 ADD MLOAD PUSH16 0xFFFFFFFFFFFFFFFFFFFFFFFFFFFFFFFF AND DUP2 MSTORE PUSH1 0x20 ADD PUSH0 DUP2 MSTORE PUSH1 0x20 ADD PUSH0 PUSH4 0xFFFFFFFF AND DUP2 MSTORE PUSH1 0x20 ADD PUSH0 ISZERO ISZERO DUP2 MSTORE PUSH1 0x20 ADD PUSH0 PUSH8 0xFFFFFFFFFFFFFFFF DUP2 GT ISZERO PUSH2 0x1F6D JUMPI PUSH2 0x1F6C PUSH2 0x4C11 JUMP JUMPDEST JUMPDEST PUSH1 0x40 MLOAD SWAP1 DUP1 DUP3 MSTORE DUP1 PUSH1 0x20 MUL PUSH1 0x20 ADD DUP3 ADD PUSH1 0x40 MSTORE DUP1 ISZERO PUSH2 0x1F9B JUMPI DUP2 PUSH1 0x20 ADD PUSH1 0x20 DUP3 MUL DUP1 CALLDATASIZE DUP4 CALLDATACOPY DUP1 DUP3 ADD SWAP2 POP POP SWAP1 POP JUMPDEST POP DUP2 MSTORE POP SWAP1 POP PUSH1 0x8 PUSH0 DUP10 DUP2 MSTORE PUSH1 0x20 ADD SWAP1 DUP2 MSTORE PUSH1 0x20 ADD PUSH0 KECCAK256 PUSH1 0x3 ADD DUP2 SWAP1 DUP1 PUSH1 0x1 DUP2 SLOAD ADD DUP1 DUP3 SSTORE DUP1 SWAP2 POP POP PUSH1 0x1 SWAP1 SUB SWAP1 PUSH0 MSTORE PUSH1 0x20 PUSH0 KECCAK256 SWAP1 PUSH1 0x5 MUL ADD PUSH0 SWAP1 SWAP2 SWAP1 SWAP2 SWAP1 SWAP2 POP PUSH0 DUP3 ADD MLOAD DUP2 PUSH0 ADD PUSH0 PUSH2 0x100 EXP DUP2 SLOAD DUP2 PUSH16 0xFFFFFFFFFFFFFFFFFFFFFFFFFFFFFFFF MUL NOT AND SWAP1 DUP4 PUSH16 0xFFFFFFFFFFFFFFFFFFFFFFFFFFFFFFFF AND MUL OR SWAP1 SSTORE POP PUSH1 0x20 DUP3 ADD MLOAD DUP2 PUSH0 ADD PUSH1 0x10 PUSH2 0x100 EXP DUP2 SLOAD DUP2 PUSH16 0xFFFFFFFFFFFFFFFFFFFFFFFFFFFFFFFF MUL NOT AND SWAP1 DUP4 PUSH16 0xFFFFFFFFFFFFFFFFFFFFFFFFFFFFFFFF AND MUL OR SWAP1 SSTORE POP PUSH1 0x40 DUP3 ADD MLOAD DUP2 PUSH1 0x1 ADD PUSH0 PUSH2 0x100 EXP DUP2 SLOAD DUP2 PUSH16 0xFFFFFFFFFFFFFFFFFFFFFFFFFFFFFFFF MUL NOT AND SWAP1 DUP4 PUSH16 0xFFFFFFFFFFFFFFFFFFFFFFFFFFFFFFFF AND MUL OR SWAP1 SSTORE POP PUSH1 0x60 DUP3 ADD MLOAD DUP2 PUSH1 0x2 ADD SSTORE PUSH1 0x80 DUP3 ADD MLOAD DUP2 PUSH1 0x3 ADD PUSH0 PUSH2 0x100 EXP DUP2 SLOAD DUP2 PUSH4 0xFFFFFFFF MUL NOT AND SWAP1 DUP4 PUSH4 0xFFFFFFFF AND MUL OR SWAP1 SSTORE POP PUSH1 0xA0 DUP3 ADD MLOAD DUP2 PUSH1 0x3 ADD PUSH1 0x4 PUSH2 0x100 EXP DUP2 SLOAD DUP2 PUSH1 0xFF MUL NOT AND SWAP1 DUP4 ISZERO ISZERO MUL OR SWAP1 SSTORE POP PUSH1 0xC0 DUP3 ADD MLOAD DUP2 PUSH1 0x4 ADD SWAP1 DUP1 MLOAD SWAP1 PUSH1 0x20 ADD SWAP1 PUSH2 0x2100 SWAP3 SWAP2 SWAP1 PUSH2 0x48FF JUMP JUMPDEST POP POP POP PUSH0 PUSH1 0x8 PUSH0 DUP11 DUP2 MSTORE PUSH1 0x20 ADD SWAP1 DUP2 MSTORE PUSH1 0x20 ADD PUSH0 KECCAK256 PUSH1 0x3 ADD DUP1 SLOAD SWAP1 POP SWAP1 POP PUSH32 0x9B4E1F1B6DF74EFF26420E77CE7891D410B236932A083B7C18D599FBD654A8C7 DUP10 DUP3 DUP7 DUP7 PUSH1 0x40 MLOAD PUSH2 0x2153 SWAP5 SWAP4 SWAP3 SWAP2 SWAP1 PUSH2 0x5B1B JUMP JUMPDEST PUSH1 0x40 MLOAD DUP1 SWAP2 SUB SWAP1 LOG1 POP POP POP POP POP POP POP POP POP JUMP JUMPDEST PUSH32 0x0 DUP2 JUMP JUMPDEST PUSH32 0x0 DUP2 JUMP JUMPDEST PUSH1 0x60 PUSH1 0x6 PUSH0 DUP4 PUSH20 0xFFFFFFFFFFFFFFFFFFFFFFFFFFFFFFFFFFFFFFFF AND PUSH20 0xFFFFFFFFFFFFFFFFFFFFFFFFFFFFFFFFFFFFFFFF AND DUP2 MSTORE PUSH1 0x20 ADD SWAP1 DUP2 MSTORE PUSH1 0x20 ADD PUSH0 KECCAK256 DUP1 SLOAD DUP1 PUSH1 0x20 MUL PUSH1 0x20 ADD PUSH1 0x40 MLOAD SWAP1 DUP2 ADD PUSH1 0x40 MSTORE DUP1 SWAP3 SWAP2 SWAP1 DUP2 DUP2 MSTORE PUSH1 0x20 ADD PUSH0 SWAP1 JUMPDEST DUP3 DUP3 LT ISZERO PUSH2 0x2274 JUMPI DUP4 DUP3 SWAP1 PUSH0 MSTORE PUSH1 0x20 PUSH0 KECCAK256 SWAP1 PUSH1 0x3 MUL ADD PUSH1 0x40 MLOAD DUP1 PUSH1 0x60 ADD PUSH1 0x40 MSTORE SWAP1 DUP2 PUSH0 DUP3 ADD SLOAD DUP2 MSTORE PUSH1 0x20 ADD PUSH1 0x1 DUP3 ADD SLOAD DUP2 MSTORE PUSH1 0x20 ADD PUSH1 0x2 DUP3 ADD PUSH0 SWAP1 SLOAD SWAP1 PUSH2 0x100 EXP SWAP1 DIV PUSH4 0xFFFFFFFF AND PUSH4 0xFFFFFFFF AND PUSH4 0xFFFFFFFF AND DUP2 MSTORE POP POP DUP2 MSTORE PUSH1 0x20 ADD SWAP1 PUSH1 0x1 ADD SWAP1 PUSH2 0x220C JUMP JUMPDEST POP POP POP POP SWAP1 POP SWAP2 SWAP1 POP JUMP JUMPDEST PUSH1 0x5 PUSH1 0x20 MSTORE DUP3 PUSH0 MSTORE PUSH1 0x40 PUSH0 KECCAK256 PUSH1 0x20 MSTORE DUP2 PUSH0 MSTORE PUSH1 0x40 PUSH0 KECCAK256 PUSH1 0x20 MSTORE DUP1 PUSH0 MSTORE PUSH1 0x40 PUSH0 KECCAK256 PUSH0 SWAP3 POP SWAP3 POP POP SWAP1 SLOAD SWAP1 PUSH2 0x100 EXP SWAP1 DIV PUSH20 0xFFFFFFFFFFFFFFFFFFFFFFFFFFFFFFFFFFFFFFFF AND DUP2 JUMP JUMPDEST PUSH1 0x4 PUSH1 0x20 MSTORE DUP1 PUSH0 MSTORE PUSH1 0x40 PUSH0 KECCAK256 PUSH0 SWAP2 POP SWAP1 POP SLOAD DUP2 JUMP JUMPDEST PUSH1 0x1 SLOAD DUP2 JUMP JUMPDEST PUSH3 0xF4240 DUP2 JUMP JUMPDEST PUSH1 0x60 PUSH0 PUSH1 0x6 PUSH0 DUP5 PUSH20 0xFFFFFFFFFFFFFFFFFFFFFFFFFFFFFFFFFFFFFFFF AND PUSH20 0xFFFFFFFFFFFFFFFFFFFFFFFFFFFFFFFFFFFFFFFF AND DUP2 MSTORE PUSH1 0x20 ADD SWAP1 DUP2 MSTORE PUSH1 0x20 ADD PUSH0 KECCAK256 DUP1 SLOAD DUP1 PUSH1 0x20 MUL PUSH1 0x20 ADD PUSH1 0x40 MLOAD SWAP1 DUP2 ADD PUSH1 0x40 MSTORE DUP1 SWAP3 SWAP2 SWAP1 DUP2 DUP2 MSTORE PUSH1 0x20 ADD PUSH0 SWAP1 JUMPDEST DUP3 DUP3 LT ISZERO PUSH2 0x23B0 JUMPI DUP4 DUP3 SWAP1 PUSH0 MSTORE PUSH1 0x20 PUSH0 KECCAK256 SWAP1 PUSH1 0x3 MUL ADD PUSH1 0x40 MLOAD DUP1 PUSH1 0x60 ADD PUSH1 0x40 MSTORE SWAP1 DUP2 PUSH0 DUP3 ADD SLOAD DUP2 MSTORE PUSH1 0x20 ADD PUSH1 0x1 DUP3 ADD SLOAD DUP2 MSTORE PUSH1 0x20 ADD PUSH1 0x2 DUP3 ADD PUSH0 SWAP1 SLOAD SWAP1 PUSH2 0x100 EXP SWAP1 DIV PUSH4 0xFFFFFFFF AND PUSH4 0xFFFFFFFF AND PUSH4 0xFFFFFFFF AND DUP2 MSTORE POP POP DUP2 MSTORE PUSH1 0x20 ADD SWAP1 PUSH1 0x1 ADD SWAP1 PUSH2 0x2348 JUMP JUMPDEST POP POP POP POP SWAP1 POP PUSH0 DUP2 MLOAD PUSH8 0xFFFFFFFFFFFFFFFF DUP2 GT ISZERO PUSH2 0x23D2 JUMPI PUSH2 0x23D1 PUSH2 0x4C11 JUMP JUMPDEST JUMPDEST PUSH1 0x40 MLOAD SWAP1 DUP1 DUP3 MSTORE DUP1 PUSH1 0x20 MUL PUSH1 0x20 ADD DUP3 ADD PUSH1 0x40 MSTORE DUP1 ISZERO PUSH2 0x2400 JUMPI DUP2 PUSH1 0x20 ADD PUSH1 0x20 DUP3 MUL DUP1 CALLDATASIZE DUP4 CALLDATACOPY DUP1 DUP3 ADD SWAP2 POP POP SWAP1 POP JUMPDEST POP SWAP1 POP PUSH0 DUP1 PUSH0 SWAP1 POP JUMPDEST DUP4 MLOAD DUP2 LT ISZERO PUSH2 0x24EA JUMPI PUSH0 DUP5 DUP3 DUP2 MLOAD DUP2 LT PUSH2 0x2426 JUMPI PUSH2 0x2425 PUSH2 0x591A JUMP JUMPDEST JUMPDEST PUSH1 0x20 MUL PUSH1 0x20 ADD ADD MLOAD SWAP1 POP PUSH0 DUP2 PUSH0 ADD MLOAD SWAP1 POP PUSH0 DUP3 PUSH1 0x20 ADD MLOAD SWAP1 POP PUSH0 PUSH1 0x8 PUSH0 DUP5 DUP2 MSTORE PUSH1 0x20 ADD SWAP1 DUP2 MSTORE PUSH1 0x20 ADD PUSH0 KECCAK256 PUSH1 0x3 ADD PUSH1 0x1 DUP4 PUSH2 0x2461 SWAP2 SWAP1 PUSH2 0x58E7 JUMP JUMPDEST DUP2 SLOAD DUP2 LT PUSH2 0x2472 JUMPI PUSH2 0x2471 PUSH2 0x591A JUMP JUMPDEST JUMPDEST SWAP1 PUSH0 MSTORE PUSH1 0x20 PUSH0 KECCAK256 SWAP1 PUSH1 0x5 MUL ADD PUSH1 0x3 ADD PUSH0 SWAP1 SLOAD SWAP1 PUSH2 0x100 EXP SWAP1 DIV PUSH4 0xFFFFFFFF AND SWAP1 POP DUP4 PUSH1 0x40 ADD MLOAD PUSH4 0xFFFFFFFF AND DUP2 PUSH4 0xFFFFFFFF AND SUB PUSH2 0x24D9 JUMPI DUP5 DUP8 DUP8 DUP2 MLOAD DUP2 LT PUSH2 0x24BE JUMPI PUSH2 0x24BD PUSH2 0x591A JUMP JUMPDEST JUMPDEST PUSH1 0x20 MUL PUSH1 0x20 ADD ADD DUP2 DUP2 MSTORE POP POP DUP6 DUP1 PUSH2 0x24D5 SWAP1 PUSH2 0x59A1 JUMP JUMPDEST SWAP7 POP POP JUMPDEST POP POP POP POP DUP1 DUP1 PUSH1 0x1 ADD SWAP2 POP POP PUSH2 0x2409 JUMP JUMPDEST POP DUP1 PUSH8 0xFFFFFFFFFFFFFFFF DUP2 GT ISZERO PUSH2 0x2505 JUMPI PUSH2 0x2504 PUSH2 0x4C11 JUMP JUMPDEST JUMPDEST PUSH1 0x40 MLOAD SWAP1 DUP1 DUP3 MSTORE DUP1 PUSH1 0x20 MUL PUSH1 0x20 ADD DUP3 ADD PUSH1 0x40 MSTORE DUP1 ISZERO PUSH2 0x253E JUMPI DUP2 PUSH1 0x20 ADD JUMPDEST PUSH2 0x252B PUSH2 0x49AC JUMP JUMPDEST DUP2 MSTORE PUSH1 0x20 ADD SWAP1 PUSH1 0x1 SWAP1 SUB SWAP1 DUP2 PUSH2 0x2523 JUMPI SWAP1 POP JUMPDEST POP SWAP4 POP PUSH0 JUMPDEST DUP2 DUP2 LT ISZERO PUSH2 0x25AB JUMPI DUP4 DUP4 DUP3 DUP2 MLOAD DUP2 LT PUSH2 0x255F JUMPI PUSH2 0x255E PUSH2 0x591A JUMP JUMPDEST JUMPDEST PUSH1 0x20 MUL PUSH1 0x20 ADD ADD MLOAD DUP2 MLOAD DUP2 LT PUSH2 0x2578 JUMPI PUSH2 0x2577 PUSH2 0x591A JUMP JUMPDEST JUMPDEST PUSH1 0x20 MUL PUSH1 0x20 ADD ADD MLOAD DUP6 DUP3 DUP2 MLOAD DUP2 LT PUSH2 0x2593 JUMPI PUSH2 0x2592 PUSH2 0x591A JUMP JUMPDEST JUMPDEST PUSH1 0x20 MUL PUSH1 0x20 ADD ADD DUP2 SWAP1 MSTORE POP DUP1 DUP1 PUSH1 0x1 ADD SWAP2 POP POP PUSH2 0x2543 JUMP JUMPDEST POP POP POP POP SWAP2 SWAP1 POP JUMP JUMPDEST PUSH2 0x25BC PUSH2 0x44EA JUMP JUMPDEST PUSH2 0x25C5 PUSH0 PUSH2 0x4571 JUMP JUMPDEST JUMP JUMPDEST PUSH0 PUSH1 0x14 SWAP1 SLOAD SWAP1 PUSH2 0x100 EXP SWAP1 DIV PUSH3 0xFFFFFF AND DUP2 JUMP JUMPDEST PUSH1 0x3 PUSH1 0x20 MSTORE DUP1 PUSH0 MSTORE PUSH1 0x40 PUSH0 KECCAK256 PUSH0 SWAP2 POP SWAP1 POP SLOAD DUP2 JUMP JUMPDEST PUSH0 PUSH32 0x0 PUSH20 0xFFFFFFFFFFFFFFFFFFFFFFFFFFFFFFFFFFFFFFFF AND PUSH4 0x2B956FF7 CALLER PUSH1 0x40 MLOAD DUP3 PUSH4 0xFFFFFFFF AND PUSH1 0xE0 SHL DUP2 MSTORE PUSH1 0x4 ADD PUSH2 0x264A SWAP2 SWAP1 PUSH2 0x544A JUMP JUMPDEST PUSH1 0x20 PUSH1 0x40 MLOAD DUP1 DUP4 SUB DUP2 DUP7 GAS STATICCALL ISZERO DUP1 ISZERO PUSH2 0x2665 JUMPI RETURNDATASIZE PUSH0 DUP1 RETURNDATACOPY RETURNDATASIZE PUSH0 REVERT JUMPDEST POP POP POP POP PUSH1 0x40 MLOAD RETURNDATASIZE PUSH1 0x1F NOT PUSH1 0x1F DUP3 ADD AND DUP3 ADD DUP1 PUSH1 0x40 MSTORE POP DUP2 ADD SWAP1 PUSH2 0x2689 SWAP2 SWAP1 PUSH2 0x5AAD JUMP JUMPDEST SUB PUSH2 0x26C0 JUMPI PUSH1 0x40 MLOAD PUSH32 0xABA4733900000000000000000000000000000000000000000000000000000000 DUP2 MSTORE PUSH1 0x4 ADD PUSH1 0x40 MLOAD DUP1 SWAP2 SUB SWAP1 REVERT JUMPDEST PUSH0 DUP3 DUP3 SWAP1 POP SUB PUSH2 0x26FC JUMPI PUSH1 0x40 MLOAD PUSH32 0x5E7719FF00000000000000000000000000000000000000000000000000000000 DUP2 MSTORE PUSH1 0x4 ADD PUSH1 0x40 MLOAD DUP1 SWAP2 SUB SWAP1 REVERT JUMPDEST PUSH1 0x64 PUSH3 0xFFFFFF AND DUP3 DUP3 SWAP1 POP GT ISZERO PUSH2 0x273F JUMPI PUSH1 0x40 MLOAD PUSH32 0x3F4AC48600000000000000000000000000000000000000000000000000000000 DUP2 MSTORE PUSH1 0x4 ADD PUSH1 0x40 MLOAD DUP1 SWAP2 SUB SWAP1 REVERT JUMPDEST PUSH0 PUSH1 0x8 PUSH0 DUP7 DUP2 MSTORE PUSH1 0x20 ADD SWAP1 DUP2 MSTORE PUSH1 0x20 ADD PUSH0 KECCAK256 PUSH1 0x40 MLOAD DUP1 PUSH1 0xC0 ADD PUSH1 0x40 MSTORE SWAP1 DUP2 PUSH0 DUP3 ADD PUSH0 SWAP1 SLOAD SWAP1 PUSH2 0x100 EXP SWAP1 DIV PUSH16 0xFFFFFFFFFFFFFFFFFFFFFFFFFFFFFFFF AND PUSH16 0xFFFFFFFFFFFFFFFFFFFFFFFFFFFFFFFF AND PUSH16 0xFFFFFFFFFFFFFFFFFFFFFFFFFFFFFFFF AND DUP2 MSTORE PUSH1 0x20 ADD PUSH0 DUP3 ADD PUSH1 0x10 SWAP1 SLOAD SWAP1 PUSH2 0x100 EXP SWAP1 DIV PUSH16 0xFFFFFFFFFFFFFFFFFFFFFFFFFFFFFFFF AND PUSH16 0xFFFFFFFFFFFFFFFFFFFFFFFFFFFFFFFF AND PUSH16 0xFFFFFFFFFFFFFFFFFFFFFFFFFFFFFFFF AND DUP2 MSTORE PUSH1 0x20 ADD PUSH1 0x1 DUP3 ADD PUSH0 SWAP1 SLOAD SWAP1 PUSH2 0x100 EXP SWAP1 DIV PUSH16 0xFFFFFFFFFFFFFFFFFFFFFFFFFFFFFFFF AND PUSH16 0xFFFFFFFFFFFFFFFFFFFFFFFFFFFFFFFF AND PUSH16 0xFFFFFFFFFFFFFFFFFFFFFFFFFFFFFFFF AND DUP2 MSTORE PUSH1 0x20 ADD PUSH1 0x1 DUP3 ADD PUSH1 0x10 SWAP1 SLOAD SWAP1 PUSH2 0x100 EXP SWAP1 DIV PUSH16 0xFFFFFFFFFFFFFFFFFFFFFFFFFFFFFFFF AND PUSH16 0xFFFFFFFFFFFFFFFFFFFFFFFFFFFFFFFF AND PUSH16 0xFFFFFFFFFFFFFFFFFFFFFFFFFFFFFFFF AND DUP2 MSTORE PUSH1 0x20 ADD PUSH1 0x2 DUP3 ADD PUSH0 SWAP1 SLOAD SWAP1 PUSH2 0x100 EXP SWAP1 DIV PUSH16 0xFFFFFFFFFFFFFFFFFFFFFFFFFFFFFFFF AND PUSH16 0xFFFFFFFFFFFFFFFFFFFFFFFFFFFFFFFF AND PUSH16 0xFFFFFFFFFFFFFFFFFFFFFFFFFFFFFFFF AND DUP2 MSTORE PUSH1 0x20 ADD PUSH1 0x3 DUP3 ADD DUP1 SLOAD DUP1 PUSH1 0x20 MUL PUSH1 0x20 ADD PUSH1 0x40 MLOAD SWAP1 DUP2 ADD PUSH1 0x40 MSTORE DUP1 SWAP3 SWAP2 SWAP1 DUP2 DUP2 MSTORE PUSH1 0x20 ADD PUSH0 SWAP1 JUMPDEST DUP3 DUP3 LT ISZERO PUSH2 0x2AC2 JUMPI DUP4 DUP3 SWAP1 PUSH0 MSTORE PUSH1 0x20 PUSH0 KECCAK256 SWAP1 PUSH1 0x5 MUL ADD PUSH1 0x40 MLOAD DUP1 PUSH1 0xE0 ADD PUSH1 0x40 MSTORE SWAP1 DUP2 PUSH0 DUP3 ADD PUSH0 SWAP1 SLOAD SWAP1 PUSH2 0x100 EXP SWAP1 DIV PUSH16 0xFFFFFFFFFFFFFFFFFFFFFFFFFFFFFFFF AND PUSH16 0xFFFFFFFFFFFFFFFFFFFFFFFFFFFFFFFF AND PUSH16 0xFFFFFFFFFFFFFFFFFFFFFFFFFFFFFFFF AND DUP2 MSTORE PUSH1 0x20 ADD PUSH0 DUP3 ADD PUSH1 0x10 SWAP1 SLOAD SWAP1 PUSH2 0x100 EXP SWAP1 DIV PUSH16 0xFFFFFFFFFFFFFFFFFFFFFFFFFFFFFFFF AND PUSH16 0xFFFFFFFFFFFFFFFFFFFFFFFFFFFFFFFF AND PUSH16 0xFFFFFFFFFFFFFFFFFFFFFFFFFFFFFFFF AND DUP2 MSTORE PUSH1 0x20 ADD PUSH1 0x1 DUP3 ADD PUSH0 SWAP1 SLOAD SWAP1 PUSH2 0x100 EXP SWAP1 DIV PUSH16 0xFFFFFFFFFFFFFFFFFFFFFFFFFFFFFFFF AND PUSH16 0xFFFFFFFFFFFFFFFFFFFFFFFFFFFFFFFF AND PUSH16 0xFFFFFFFFFFFFFFFFFFFFFFFFFFFFFFFF AND DUP2 MSTORE PUSH1 0x20 ADD PUSH1 0x2 DUP3 ADD SLOAD DUP2 MSTORE PUSH1 0x20 ADD PUSH1 0x3 DUP3 ADD PUSH0 SWAP1 SLOAD SWAP1 PUSH2 0x100 EXP SWAP1 DIV PUSH4 0xFFFFFFFF AND PUSH4 0xFFFFFFFF AND PUSH4 0xFFFFFFFF AND DUP2 MSTORE PUSH1 0x20 ADD PUSH1 0x3 DUP3 ADD PUSH1 0x4 SWAP1 SLOAD SWAP1 PUSH2 0x100 EXP SWAP1 DIV PUSH1 0xFF AND ISZERO ISZERO ISZERO ISZERO DUP2 MSTORE PUSH1 0x20 ADD PUSH1 0x4 DUP3 ADD DUP1 SLOAD DUP1 PUSH1 0x20 MUL PUSH1 0x20 ADD PUSH1 0x40 MLOAD SWAP1 DUP2 ADD PUSH1 0x40 MSTORE DUP1 SWAP3 SWAP2 SWAP1 DUP2 DUP2 MSTORE PUSH1 0x20 ADD DUP3 DUP1 SLOAD DUP1 ISZERO PUSH2 0x2AAA JUMPI PUSH1 0x20 MUL DUP3 ADD SWAP2 SWAP1 PUSH0 MSTORE PUSH1 0x20 PUSH0 KECCAK256 SWAP1 PUSH0 SWAP1 JUMPDEST DUP3 DUP3 SWAP1 SLOAD SWAP1 PUSH2 0x100 EXP SWAP1 DIV PUSH4 0xFFFFFFFF AND PUSH4 0xFFFFFFFF AND DUP2 MSTORE PUSH1 0x20 ADD SWAP1 PUSH1 0x4 ADD SWAP1 PUSH1 0x20 DUP3 PUSH1 0x3 ADD DIV SWAP3 DUP4 ADD SWAP3 PUSH1 0x1 SUB DUP3 MUL SWAP2 POP DUP1 DUP5 GT PUSH2 0x2A6D JUMPI SWAP1 POP JUMPDEST POP POP POP POP POP DUP2 MSTORE POP POP DUP2 MSTORE PUSH1 0x20 ADD SWAP1 PUSH1 0x1 ADD SWAP1 PUSH2 0x28ED JUMP JUMPDEST POP POP POP POP DUP2 MSTORE POP POP SWAP1 POP PUSH0 DUP2 PUSH1 0xA0 ADD MLOAD PUSH1 0x1 DUP7 PUSH2 0x2ADF SWAP2 SWAP1 PUSH2 0x58E7 JUMP JUMPDEST DUP2 MLOAD DUP2 LT PUSH2 0x2AF0 JUMPI PUSH2 0x2AEF PUSH2 0x591A JUMP JUMPDEST JUMPDEST PUSH1 0x20 MUL PUSH1 0x20 ADD ADD MLOAD SWAP1 POP DUP1 PUSH0 ADD MLOAD PUSH16 0xFFFFFFFFFFFFFFFFFFFFFFFFFFFFFFFF AND TIMESTAMP LT ISZERO PUSH2 0x2B49 JUMPI PUSH1 0x40 MLOAD PUSH32 0x225C165C00000000000000000000000000000000000000000000000000000000 DUP2 MSTORE PUSH1 0x4 ADD PUSH1 0x40 MLOAD DUP1 SWAP2 SUB SWAP1 REVERT JUMPDEST DUP1 PUSH1 0x20 ADD MLOAD PUSH16 0xFFFFFFFFFFFFFFFFFFFFFFFFFFFFFFFF AND TIMESTAMP LT PUSH2 0x2B98 JUMPI PUSH1 0x40 MLOAD PUSH32 0x6B5FD31B00000000000000000000000000000000000000000000000000000000 DUP2 MSTORE PUSH1 0x4 ADD PUSH1 0x40 MLOAD DUP1 SWAP2 SUB SWAP1 REVERT JUMPDEST DUP1 PUSH1 0x40 ADD MLOAD PUSH16 0xFFFFFFFFFFFFFFFFFFFFFFFFFFFFFFFF AND DUP5 DUP5 SWAP1 POP GT ISZERO PUSH2 0x2BEB JUMPI PUSH1 0x40 MLOAD PUSH32 0x1FA9FF6C00000000000000000000000000000000000000000000000000000000 DUP2 MSTORE PUSH1 0x4 ADD PUSH1 0x40 MLOAD DUP1 SWAP2 SUB SWAP1 REVERT JUMPDEST PUSH0 JUMPDEST DUP5 DUP5 SWAP1 POP DUP2 LT ISZERO PUSH2 0x303A JUMPI PUSH0 DUP6 DUP6 DUP4 DUP2 DUP2 LT PUSH2 0x2C0C JUMPI PUSH2 0x2C0B PUSH2 0x591A JUMP JUMPDEST JUMPDEST SWAP1 POP PUSH1 0x20 MUL ADD PUSH1 0x20 DUP2 ADD SWAP1 PUSH2 0x2C21 SWAP2 SWAP1 PUSH2 0x578C JUMP JUMPDEST PUSH4 0xFFFFFFFF AND EQ DUP1 PUSH2 0x2C75 JUMPI POP DUP3 PUSH1 0x20 ADD MLOAD PUSH16 0xFFFFFFFFFFFFFFFFFFFFFFFFFFFFFFFF AND DUP6 DUP6 DUP4 DUP2 DUP2 LT PUSH2 0x2C58 JUMPI PUSH2 0x2C57 PUSH2 0x591A JUMP JUMPDEST JUMPDEST SWAP1 POP PUSH1 0x20 MUL ADD PUSH1 0x20 DUP2 ADD SWAP1 PUSH2 0x2C6D SWAP2 SWAP1 PUSH2 0x578C JUMP JUMPDEST PUSH4 0xFFFFFFFF AND GT JUMPDEST ISZERO PUSH2 0x2CDE JUMPI DUP5 DUP5 DUP3 DUP2 DUP2 LT PUSH2 0x2C8D JUMPI PUSH2 0x2C8C PUSH2 0x591A JUMP JUMPDEST JUMPDEST SWAP1 POP PUSH1 0x20 MUL ADD PUSH1 0x20 DUP2 ADD SWAP1 PUSH2 0x2CA2 SWAP2 SWAP1 PUSH2 0x578C JUMP JUMPDEST PUSH1 0x40 MLOAD PUSH32 0xF8D002B200000000000000000000000000000000000000000000000000000000 DUP2 MSTORE PUSH1 0x4 ADD PUSH2 0x2CD5 SWAP2 SWAP1 PUSH2 0x4FDD JUMP JUMPDEST PUSH1 0x40 MLOAD DUP1 SWAP2 SUB SWAP1 REVERT JUMPDEST PUSH0 PUSH20 0xFFFFFFFFFFFFFFFFFFFFFFFFFFFFFFFFFFFFFFFF AND PUSH1 0x5 PUSH0 DUP10 DUP2 MSTORE PUSH1 0x20 ADD SWAP1 DUP2 MSTORE PUSH1 0x20 ADD PUSH0 KECCAK256 PUSH0 DUP9 DUP2 MSTORE PUSH1 0x20 ADD SWAP1 DUP2 MSTORE PUSH1 0x20 ADD PUSH0 KECCAK256 PUSH0 DUP8 DUP8 DUP6 DUP2 DUP2 LT PUSH2 0x2D29 JUMPI PUSH2 0x2D28 PUSH2 0x591A JUMP JUMPDEST JUMPDEST SWAP1 POP PUSH1 0x20 MUL ADD PUSH1 0x20 DUP2 ADD SWAP1 PUSH2 0x2D3E SWAP2 SWAP1 PUSH2 0x578C JUMP JUMPDEST PUSH4 0xFFFFFFFF AND PUSH4 0xFFFFFFFF AND DUP2 MSTORE PUSH1 0x20 ADD SWAP1 DUP2 MSTORE PUSH1 0x20 ADD PUSH0 KECCAK256 PUSH0 SWAP1 SLOAD SWAP1 PUSH2 0x100 EXP SWAP1 DIV PUSH20 0xFFFFFFFFFFFFFFFFFFFFFFFFFFFFFFFFFFFFFFFF AND PUSH20 0xFFFFFFFFFFFFFFFFFFFFFFFFFFFFFFFFFFFFFFFF AND EQ PUSH2 0x2DF6 JUMPI DUP5 DUP5 DUP3 DUP2 DUP2 LT PUSH2 0x2DA5 JUMPI PUSH2 0x2DA4 PUSH2 0x591A JUMP JUMPDEST JUMPDEST SWAP1 POP PUSH1 0x20 MUL ADD PUSH1 0x20 DUP2 ADD SWAP1 PUSH2 0x2DBA SWAP2 SWAP1 PUSH2 0x578C JUMP JUMPDEST PUSH1 0x40 MLOAD PUSH32 0x8300ABA600000000000000000000000000000000000000000000000000000000 DUP2 MSTORE PUSH1 0x4 ADD PUSH2 0x2DED SWAP2 SWAP1 PUSH2 0x4FDD JUMP JUMPDEST PUSH1 0x40 MLOAD DUP1 SWAP2 SUB SWAP1 REVERT JUMPDEST CALLER PUSH1 0x5 PUSH0 DUP10 DUP2 MSTORE PUSH1 0x20 ADD SWAP1 DUP2 MSTORE PUSH1 0x20 ADD PUSH0 KECCAK256 PUSH0 DUP9 DUP2 MSTORE PUSH1 0x20 ADD SWAP1 DUP2 MSTORE PUSH1 0x20 ADD PUSH0 KECCAK256 PUSH0 DUP8 DUP8 DUP6 DUP2 DUP2 LT PUSH2 0x2E2B JUMPI PUSH2 0x2E2A PUSH2 0x591A JUMP JUMPDEST JUMPDEST SWAP1 POP PUSH1 0x20 MUL ADD PUSH1 0x20 DUP2 ADD SWAP1 PUSH2 0x2E40 SWAP2 SWAP1 PUSH2 0x578C JUMP JUMPDEST PUSH4 0xFFFFFFFF AND PUSH4 0xFFFFFFFF AND DUP2 MSTORE PUSH1 0x20 ADD SWAP1 DUP2 MSTORE PUSH1 0x20 ADD PUSH0 KECCAK256 PUSH0 PUSH2 0x100 EXP DUP2 SLOAD DUP2 PUSH20 0xFFFFFFFFFFFFFFFFFFFFFFFFFFFFFFFFFFFFFFFF MUL NOT AND SWAP1 DUP4 PUSH20 0xFFFFFFFFFFFFFFFFFFFFFFFFFFFFFFFFFFFFFFFF AND MUL OR SWAP1 SSTORE POP PUSH1 0x8 PUSH0 DUP9 DUP2 MSTORE PUSH1 0x20 ADD SWAP1 DUP2 MSTORE PUSH1 0x20 ADD PUSH0 KECCAK256 PUSH1 0x3 ADD PUSH1 0x1 DUP8 PUSH2 0x2EB7 SWAP2 SWAP1 PUSH2 0x58E7 JUMP JUMPDEST DUP2 SLOAD DUP2 LT PUSH2 0x2EC8 JUMPI PUSH2 0x2EC7 PUSH2 0x591A JUMP JUMPDEST JUMPDEST SWAP1 PUSH0 MSTORE PUSH1 0x20 PUSH0 KECCAK256 SWAP1 PUSH1 0x5 MUL ADD PUSH1 0x4 ADD DUP6 DUP6 DUP4 DUP2 DUP2 LT PUSH2 0x2EEA JUMPI PUSH2 0x2EE9 PUSH2 0x591A JUMP JUMPDEST JUMPDEST SWAP1 POP PUSH1 0x20 MUL ADD PUSH1 0x20 DUP2 ADD SWAP1 PUSH2 0x2EFF SWAP2 SWAP1 PUSH2 0x578C JUMP JUMPDEST SWAP1 DUP1 PUSH1 0x1 DUP2 SLOAD ADD DUP1 DUP3 SSTORE DUP1 SWAP2 POP POP PUSH1 0x1 SWAP1 SUB SWAP1 PUSH0 MSTORE PUSH1 0x20 PUSH0 KECCAK256 SWAP1 PUSH1 0x8 SWAP2 DUP3 DUP3 DIV ADD SWAP2 SWAP1 MOD PUSH1 0x4 MUL SWAP1 SWAP2 SWAP1 SWAP2 SWAP1 SWAP2 PUSH2 0x100 EXP DUP2 SLOAD DUP2 PUSH4 0xFFFFFFFF MUL NOT AND SWAP1 DUP4 PUSH4 0xFFFFFFFF AND MUL OR SWAP1 SSTORE POP PUSH1 0x6 PUSH0 CALLER PUSH20 0xFFFFFFFFFFFFFFFFFFFFFFFFFFFFFFFFFFFFFFFF AND PUSH20 0xFFFFFFFFFFFFFFFFFFFFFFFFFFFFFFFFFFFFFFFF AND DUP2 MSTORE PUSH1 0x20 ADD SWAP1 DUP2 MSTORE PUSH1 0x20 ADD PUSH0 KECCAK256 PUSH1 0x40 MLOAD DUP1 PUSH1 0x60 ADD PUSH1 0x40 MSTORE DUP1 DUP10 DUP2 MSTORE PUSH1 0x20 ADD DUP9 DUP2 MSTORE PUSH1 0x20 ADD DUP8 DUP8 DUP6 DUP2 DUP2 LT PUSH2 0x2FAF JUMPI PUSH2 0x2FAE PUSH2 0x591A JUMP JUMPDEST JUMPDEST SWAP1 POP PUSH1 0x20 MUL ADD PUSH1 0x20 DUP2 ADD SWAP1 PUSH2 0x2FC4 SWAP2 SWAP1 PUSH2 0x578C JUMP JUMPDEST PUSH4 0xFFFFFFFF AND DUP2 MSTORE POP SWAP1 DUP1 PUSH1 0x1 DUP2 SLOAD ADD DUP1 DUP3 SSTORE DUP1 SWAP2 POP POP PUSH1 0x1 SWAP1 SUB SWAP1 PUSH0 MSTORE PUSH1 0x20 PUSH0 KECCAK256 SWAP1 PUSH1 0x3 MUL ADD PUSH0 SWAP1 SWAP2 SWAP1 SWAP2 SWAP1 SWAP2 POP PUSH0 DUP3 ADD MLOAD DUP2 PUSH0 ADD SSTORE PUSH1 0x20 DUP3 ADD MLOAD DUP2 PUSH1 0x1 ADD SSTORE PUSH1 0x40 DUP3 ADD MLOAD DUP2 PUSH1 0x2 ADD PUSH0 PUSH2 0x100 EXP DUP2 SLOAD DUP2 PUSH4 0xFFFFFFFF MUL NOT AND SWAP1 DUP4 PUSH4 0xFFFFFFFF AND MUL OR SWAP1 SSTORE POP POP POP DUP1 DUP1 PUSH1 0x1 ADD SWAP2 POP POP PUSH2 0x2BED JUMP JUMPDEST POP PUSH0 DUP3 PUSH1 0x40 ADD MLOAD DUP6 DUP6 SWAP1 POP PUSH2 0x304F SWAP2 SWAP1 PUSH2 0x5B5E JUMP JUMPDEST SWAP1 POP PUSH2 0x30B0 CALLER ADDRESS DUP4 PUSH16 0xFFFFFFFFFFFFFFFFFFFFFFFFFFFFFFFF AND PUSH32 0x0 PUSH20 0xFFFFFFFFFFFFFFFFFFFFFFFFFFFFFFFFFFFFFFFF AND PUSH2 0x4632 SWAP1 SWAP4 SWAP3 SWAP2 SWAP1 PUSH4 0xFFFFFFFF AND JUMP JUMPDEST PUSH0 PUSH32 0x0 PUSH20 0xFFFFFFFFFFFFFFFFFFFFFFFFFFFFFFFFFFFFFFFF AND PUSH4 0x4A9FEFC7 CALLER PUSH1 0x40 MLOAD DUP3 PUSH4 0xFFFFFFFF AND PUSH1 0xE0 SHL DUP2 MSTORE PUSH1 0x4 ADD PUSH2 0x310A SWAP2 SWAP1 PUSH2 0x544A JUMP JUMPDEST PUSH1 0x20 PUSH1 0x40 MLOAD DUP1 DUP4 SUB DUP2 DUP7 GAS STATICCALL ISZERO DUP1 ISZERO PUSH2 0x3125 JUMPI RETURNDATASIZE PUSH0 DUP1 RETURNDATACOPY RETURNDATASIZE PUSH0 REVERT JUMPDEST POP POP POP POP PUSH1 0x40 MLOAD RETURNDATASIZE PUSH1 0x1F NOT PUSH1 0x1F DUP3 ADD AND DUP3 ADD DUP1 PUSH1 0x40 MSTORE POP DUP2 ADD SWAP1 PUSH2 0x3149 SWAP2 SWAP1 PUSH2 0x5BAE JUMP JUMPDEST SWAP1 POP PUSH0 PUSH20 0xFFFFFFFFFFFFFFFFFFFFFFFFFFFFFFFFFFFFFFFF AND DUP2 PUSH20 0xFFFFFFFFFFFFFFFFFFFFFFFFFFFFFFFFFFFFFFFF AND EQ PUSH2 0x3281 JUMPI PUSH0 PUSH3 0xF4240 PUSH3 0xFFFFFF AND PUSH0 PUSH1 0x14 SWAP1 SLOAD SWAP1 PUSH2 0x100 EXP SWAP1 DIV PUSH3 0xFFFFFF AND PUSH3 0xFFFFFF AND DUP5 PUSH2 0x31A9 SWAP2 SWAP1 PUSH2 0x5B5E JUMP JUMPDEST PUSH2 0x31B3 SWAP2 SWAP1 PUSH2 0x5C06 JUMP JUMPDEST SWAP1 POP DUP1 PUSH16 0xFFFFFFFFFFFFFFFFFFFFFFFFFFFFFFFF AND PUSH1 0x4 PUSH0 DUP5 PUSH20 0xFFFFFFFFFFFFFFFFFFFFFFFFFFFFFFFFFFFFFFFF AND PUSH20 0xFFFFFFFFFFFFFFFFFFFFFFFFFFFFFFFFFFFFFFFF AND DUP2 MSTORE PUSH1 0x20 ADD SWAP1 DUP2 MSTORE PUSH1 0x20 ADD PUSH0 KECCAK256 PUSH0 DUP3 DUP3 SLOAD PUSH2 0x3213 SWAP2 SWAP1 PUSH2 0x596E JUMP JUMPDEST SWAP3 POP POP DUP2 SWAP1 SSTORE POP DUP1 PUSH16 0xFFFFFFFFFFFFFFFFFFFFFFFFFFFFFFFF AND PUSH1 0x3 PUSH0 DUP5 PUSH20 0xFFFFFFFFFFFFFFFFFFFFFFFFFFFFFFFFFFFFFFFF AND PUSH20 0xFFFFFFFFFFFFFFFFFFFFFFFFFFFFFFFFFFFFFFFF AND DUP2 MSTORE PUSH1 0x20 ADD SWAP1 DUP2 MSTORE PUSH1 0x20 ADD PUSH0 KECCAK256 PUSH0 DUP3 DUP3 SLOAD PUSH2 0x3278 SWAP2 SWAP1 PUSH2 0x596E JUMP JUMPDEST SWAP3 POP POP DUP2 SWAP1 SSTORE POP POP JUMPDEST DUP6 DUP6 SWAP1 POP DUP4 PUSH1 0x40 ADD DUP2 DUP2 MLOAD PUSH2 0x3296 SWAP2 SWAP1 PUSH2 0x5C36 JUMP JUMPDEST SWAP2 POP SWAP1 PUSH16 0xFFFFFFFFFFFFFFFFFFFFFFFFFFFFFFFF AND SWAP1 DUP2 PUSH16 0xFFFFFFFFFFFFFFFFFFFFFFFFFFFFFFFF AND DUP2 MSTORE POP POP CALLER PUSH20 0xFFFFFFFFFFFFFFFFFFFFFFFFFFFFFFFFFFFFFFFF AND PUSH32 0xF0523DE2F627F3C0BEF4480AE1FDC6922DE2AFF9254C3F2DF3FCAF121D5470BB DUP10 DUP10 DUP10 DUP10 PUSH1 0x40 MLOAD PUSH2 0x330F SWAP5 SWAP4 SWAP3 SWAP2 SWAP1 PUSH2 0x5CFF JUMP JUMPDEST PUSH1 0x40 MLOAD DUP1 SWAP2 SUB SWAP1 LOG2 PUSH0 DUP4 PUSH1 0x40 ADD MLOAD PUSH16 0xFFFFFFFFFFFFFFFFFFFFFFFFFFFFFFFF AND SUB PUSH2 0x372D JUMPI PUSH0 PUSH32 0x0 PUSH20 0xFFFFFFFFFFFFFFFFFFFFFFFFFFFFFFFFFFFFFFFF AND PUSH4 0x5D3B1D30 PUSH1 0x1 SLOAD PUSH1 0x2 PUSH0 SWAP1 SLOAD SWAP1 PUSH2 0x100 EXP SWAP1 DIV PUSH8 0xFFFFFFFFFFFFFFFF AND PUSH1 0x2 PUSH1 0x8 SWAP1 SLOAD SWAP1 PUSH2 0x100 EXP SWAP1 DIV PUSH2 0xFFFF AND PUSH1 0x2 PUSH1 0xA SWAP1 SLOAD SWAP1 PUSH2 0x100 EXP SWAP1 DIV PUSH4 0xFFFFFFFF AND PUSH1 0x1 PUSH1 0x40 MLOAD DUP7 PUSH4 0xFFFFFFFF AND PUSH1 0xE0 SHL DUP2 MSTORE PUSH1 0x4 ADD PUSH2 0x33D0 SWAP6 SWAP5 SWAP4 SWAP3 SWAP2 SWAP1 PUSH2 0x5A48 JUMP JUMPDEST PUSH1 0x20 PUSH1 0x40 MLOAD DUP1 DUP4 SUB DUP2 PUSH0 DUP8 GAS CALL ISZERO DUP1 ISZERO PUSH2 0x33EC JUMPI RETURNDATASIZE PUSH0 DUP1 RETURNDATACOPY RETURNDATASIZE PUSH0 REVERT JUMPDEST POP POP POP POP PUSH1 0x40 MLOAD RETURNDATASIZE PUSH1 0x1F NOT PUSH1 0x1F DUP3 ADD AND DUP3 ADD DUP1 PUSH1 0x40 MSTORE POP DUP2 ADD SWAP1 PUSH2 0x3410 SWAP2 SWAP1 PUSH2 0x5AAD JUMP JUMPDEST SWAP1 POP PUSH1 0x40 MLOAD DUP1 PUSH1 0x40 ADD PUSH1 0x40 MSTORE DUP1 DUP11 DUP2 MSTORE PUSH1 0x20 ADD DUP10 DUP2 MSTORE POP PUSH1 0x7 PUSH0 DUP4 DUP2 MSTORE PUSH1 0x20 ADD SWAP1 DUP2 MSTORE PUSH1 0x20 ADD PUSH0 KECCAK256 PUSH0 DUP3 ADD MLOAD DUP2 PUSH0 ADD SSTORE PUSH1 0x20 DUP3 ADD MLOAD DUP2 PUSH1 0x1 ADD SSTORE SWAP1 POP POP DUP1 DUP5 PUSH1 0x60 ADD DUP2 DUP2 MSTORE POP POP TIMESTAMP DUP5 PUSH1 0x20 ADD SWAP1 PUSH16 0xFFFFFFFFFFFFFFFFFFFFFFFFFFFFFFFF AND SWAP1 DUP2 PUSH16 0xFFFFFFFFFFFFFFFFFFFFFFFFFFFFFFFF AND DUP2 MSTORE POP POP PUSH0 DUP6 PUSH1 0x80 ADD MLOAD TIMESTAMP PUSH2 0x3498 SWAP2 SWAP1 PUSH2 0x5AD8 JUMP JUMPDEST SWAP1 POP PUSH0 DUP7 PUSH1 0x60 ADD MLOAD DUP3 PUSH2 0x34AB SWAP2 SWAP1 PUSH2 0x5AD8 JUMP JUMPDEST SWAP1 POP PUSH0 PUSH1 0x40 MLOAD DUP1 PUSH1 0xE0 ADD PUSH1 0x40 MSTORE DUP1 DUP5 PUSH16 0xFFFFFFFFFFFFFFFFFFFFFFFFFFFFFFFF AND DUP2 MSTORE PUSH1 0x20 ADD DUP4 PUSH16 0xFFFFFFFFFFFFFFFFFFFFFFFFFFFFFFFF AND DUP2 MSTORE PUSH1 0x20 ADD DUP10 PUSH1 0x20 ADD MLOAD PUSH16 0xFFFFFFFFFFFFFFFFFFFFFFFFFFFFFFFF AND DUP2 MSTORE PUSH1 0x20 ADD PUSH0 DUP2 MSTORE PUSH1 0x20 ADD PUSH0 PUSH4 0xFFFFFFFF AND DUP2 MSTORE PUSH1 0x20 ADD PUSH0 ISZERO ISZERO DUP2 MSTORE PUSH1 0x20 ADD PUSH0 PUSH8 0xFFFFFFFFFFFFFFFF DUP2 GT ISZERO PUSH2 0x3539 JUMPI PUSH2 0x3538 PUSH2 0x4C11 JUMP JUMPDEST JUMPDEST PUSH1 0x40 MLOAD SWAP1 DUP1 DUP3 MSTORE DUP1 PUSH1 0x20 MUL PUSH1 0x20 ADD DUP3 ADD PUSH1 0x40 MSTORE DUP1 ISZERO PUSH2 0x3567 JUMPI DUP2 PUSH1 0x20 ADD PUSH1 0x20 DUP3 MUL DUP1 CALLDATASIZE DUP4 CALLDATACOPY DUP1 DUP3 ADD SWAP2 POP POP SWAP1 POP JUMPDEST POP DUP2 MSTORE POP SWAP1 POP PUSH1 0x8 PUSH0 DUP14 DUP2 MSTORE PUSH1 0x20 ADD SWAP1 DUP2 MSTORE PUSH1 0x20 ADD PUSH0 KECCAK256 PUSH1 0x3 ADD DUP2 SWAP1 DUP1 PUSH1 0x1 DUP2 SLOAD ADD DUP1 DUP3 SSTORE DUP1 SWAP2 POP POP PUSH1 0x1 SWAP1 SUB SWAP1 PUSH0 MSTORE PUSH1 0x20 PUSH0 KECCAK256 SWAP1 PUSH1 0x5 MUL ADD PUSH0 SWAP1 SWAP2 SWAP1 SWAP2 SWAP1 SWAP2 POP PUSH0 DUP3 ADD MLOAD DUP2 PUSH0 ADD PUSH0 PUSH2 0x100 EXP DUP2 SLOAD DUP2 PUSH16 0xFFFFFFFFFFFFFFFFFFFFFFFFFFFFFFFF MUL NOT AND SWAP1 DUP4 PUSH16 0xFFFFFFFFFFFFFFFFFFFFFFFFFFFFFFFF AND MUL OR SWAP1 SSTORE POP PUSH1 0x20 DUP3 ADD MLOAD DUP2 PUSH0 ADD PUSH1 0x10 PUSH2 0x100 EXP DUP2 SLOAD DUP2 PUSH16 0xFFFFFFFFFFFFFFFFFFFFFFFFFFFFFFFF MUL NOT AND SWAP1 DUP4 PUSH16 0xFFFFFFFFFFFFFFFFFFFFFFFFFFFFFFFF AND MUL OR SWAP1 SSTORE POP PUSH1 0x40 DUP3 ADD MLOAD DUP2 PUSH1 0x1 ADD PUSH0 PUSH2 0x100 EXP DUP2 SLOAD DUP2 PUSH16 0xFFFFFFFFFFFFFFFFFFFFFFFFFFFFFFFF MUL NOT AND SWAP1 DUP4 PUSH16 0xFFFFFFFFFFFFFFFFFFFFFFFFFFFFFFFF AND MUL OR SWAP1 SSTORE POP PUSH1 0x60 DUP3 ADD MLOAD DUP2 PUSH1 0x2 ADD SSTORE PUSH1 0x80 DUP3 ADD MLOAD DUP2 PUSH1 0x3 ADD PUSH0 PUSH2 0x100 EXP DUP2 SLOAD DUP2 PUSH4 0xFFFFFFFF MUL NOT AND SWAP1 DUP4 PUSH4 0xFFFFFFFF AND MUL OR SWAP1 SSTORE POP PUSH1 0xA0 DUP3 ADD MLOAD DUP2 PUSH1 0x3 ADD PUSH1 0x4 PUSH2 0x100 EXP DUP2 SLOAD DUP2 PUSH1 0xFF MUL NOT AND SWAP1 DUP4 ISZERO ISZERO MUL OR SWAP1 SSTORE POP PUSH1 0xC0 DUP3 ADD MLOAD DUP2 PUSH1 0x4 ADD SWAP1 DUP1 MLOAD SWAP1 PUSH1 0x20 ADD SWAP1 PUSH2 0x36CC SWAP3 SWAP2 SWAP1 PUSH2 0x48FF JUMP JUMPDEST POP POP POP PUSH0 PUSH1 0x8 PUSH0 DUP15 DUP2 MSTORE PUSH1 0x20 ADD SWAP1 DUP2 MSTORE PUSH1 0x20 ADD PUSH0 KECCAK256 PUSH1 0x3 ADD DUP1 SLOAD SWAP1 POP SWAP1 POP PUSH32 0x9B4E1F1B6DF74EFF26420E77CE7891D410B236932A083B7C18D599FBD654A8C7 DUP14 DUP3 DUP7 DUP7 PUSH1 0x40 MLOAD PUSH2 0x371F SWAP5 SWAP4 SWAP3 SWAP2 SWAP1 PUSH2 0x5B1B JUMP JUMPDEST PUSH1 0x40 MLOAD DUP1 SWAP2 SUB SWAP1 LOG1 POP POP POP POP POP JUMPDEST DUP3 PUSH1 0x8 PUSH0 DUP11 DUP2 MSTORE PUSH1 0x20 ADD SWAP1 DUP2 MSTORE PUSH1 0x20 ADD PUSH0 KECCAK256 PUSH1 0x3 ADD PUSH1 0x1 DUP10 PUSH2 0x374F SWAP2 SWAP1 PUSH2 0x58E7 JUMP JUMPDEST DUP2 SLOAD DUP2 LT PUSH2 0x3760 JUMPI PUSH2 0x375F PUSH2 0x591A JUMP JUMPDEST JUMPDEST SWAP1 PUSH0 MSTORE PUSH1 0x20 PUSH0 KECCAK256 SWAP1 PUSH1 0x5 MUL ADD PUSH0 DUP3 ADD MLOAD DUP2 PUSH0 ADD PUSH0 PUSH2 0x100 EXP DUP2 SLOAD DUP2 PUSH16 0xFFFFFFFFFFFFFFFFFFFFFFFFFFFFFFFF MUL NOT AND SWAP1 DUP4 PUSH16 0xFFFFFFFFFFFFFFFFFFFFFFFFFFFFFFFF AND MUL OR SWAP1 SSTORE POP PUSH1 0x20 DUP3 ADD MLOAD DUP2 PUSH0 ADD PUSH1 0x10 PUSH2 0x100 EXP DUP2 SLOAD DUP2 PUSH16 0xFFFFFFFFFFFFFFFFFFFFFFFFFFFFFFFF MUL NOT AND SWAP1 DUP4 PUSH16 0xFFFFFFFFFFFFFFFFFFFFFFFFFFFFFFFF AND MUL OR SWAP1 SSTORE POP PUSH1 0x40 DUP3 ADD MLOAD DUP2 PUSH1 0x1 ADD PUSH0 PUSH2 0x100 EXP DUP2 SLOAD DUP2 PUSH16 0xFFFFFFFFFFFFFFFFFFFFFFFFFFFFFFFF MUL NOT AND SWAP1 DUP4 PUSH16 0xFFFFFFFFFFFFFFFFFFFFFFFFFFFFFFFF AND MUL OR SWAP1 SSTORE POP PUSH1 0x60 DUP3 ADD MLOAD DUP2 PUSH1 0x2 ADD SSTORE PUSH1 0x80 DUP3 ADD MLOAD DUP2 PUSH1 0x3 ADD PUSH0 PUSH2 0x100 EXP DUP2 SLOAD DUP2 PUSH4 0xFFFFFFFF MUL NOT AND SWAP1 DUP4 PUSH4 0xFFFFFFFF AND MUL OR SWAP1 SSTORE POP PUSH1 0xA0 DUP3 ADD MLOAD DUP2 PUSH1 0x3 ADD PUSH1 0x4 PUSH2 0x100 EXP DUP2 SLOAD DUP2 PUSH1 0xFF MUL NOT AND SWAP1 DUP4 ISZERO ISZERO MUL OR SWAP1 SSTORE POP PUSH1 0xC0 DUP3 ADD MLOAD DUP2 PUSH1 0x4 ADD SWAP1 DUP1 MLOAD SWAP1 PUSH1 0x20 ADD SWAP1 PUSH2 0x3890 SWAP3 SWAP2 SWAP1 PUSH2 0x48FF JUMP JUMPDEST POP SWAP1 POP POP POP POP POP POP POP POP POP POP JUMP JUMPDEST PUSH2 0x38A6 PUSH2 0x44EA JUMP JUMPDEST DUP1 PUSH1 0x2 PUSH1 0x8 PUSH2 0x100 EXP DUP2 SLOAD DUP2 PUSH2 0xFFFF MUL NOT AND SWAP1 DUP4 PUSH2 0xFFFF AND MUL OR SWAP1 SSTORE POP POP JUMP JUMPDEST PUSH0 DUP1 PUSH0 SWAP1 SLOAD SWAP1 PUSH2 0x100 EXP SWAP1 DIV PUSH20 0xFFFFFFFFFFFFFFFFFFFFFFFFFFFFFFFFFFFFFFFF AND SWAP1 POP SWAP1 JUMP JUMPDEST PUSH32 0x0 DUP2 JUMP JUMPDEST PUSH2 0x3919 PUSH2 0x44EA JUMP JUMPDEST DUP1 PUSH1 0x2 PUSH0 PUSH2 0x100 EXP DUP2 SLOAD DUP2 PUSH8 0xFFFFFFFFFFFFFFFF MUL NOT AND SWAP1 DUP4 PUSH8 0xFFFFFFFFFFFFFFFF AND MUL OR SWAP1 SSTORE POP POP JUMP JUMPDEST PUSH0 PUSH2 0x394D PUSH2 0x44EA JUMP JUMPDEST PUSH0 DUP8 PUSH1 0xFF AND SUB PUSH2 0x3989 JUMPI PUSH1 0x40 MLOAD PUSH32 0xBB90937D00000000000000000000000000000000000000000000000000000000 DUP2 MSTORE PUSH1 0x4 ADD PUSH1 0x40 MLOAD DUP1 SWAP2 SUB SWAP1 REVERT JUMPDEST PUSH0 DUP7 PUSH16 0xFFFFFFFFFFFFFFFFFFFFFFFFFFFFFFFF AND SUB PUSH2 0x39D4 JUMPI PUSH1 0x40 MLOAD PUSH32 0x7EAC88D900000000000000000000000000000000000000000000000000000000 DUP2 MSTORE PUSH1 0x4 ADD PUSH1 0x40 MLOAD DUP1 SWAP2 SUB SWAP1 REVERT JUMPDEST PUSH0 DUP5 PUSH16 0xFFFFFFFFFFFFFFFFFFFFFFFFFFFFFFFF AND SUB PUSH2 0x3A1F JUMPI PUSH1 0x40 MLOAD PUSH32 0x6F6625700000000000000000000000000000000000000000000000000000000 DUP2 MSTORE PUSH1 0x4 ADD PUSH1 0x40 MLOAD DUP1 SWAP2 SUB SWAP1 REVERT JUMPDEST TIMESTAMP DUP3 PUSH16 0xFFFFFFFFFFFFFFFFFFFFFFFFFFFFFFFF AND LT ISZERO PUSH2 0x3A6B JUMPI PUSH1 0x40 MLOAD PUSH32 0xB290253C00000000000000000000000000000000000000000000000000000000 DUP2 MSTORE PUSH1 0x4 ADD PUSH1 0x40 MLOAD DUP1 SWAP2 SUB SWAP1 REVERT JUMPDEST PUSH0 DUP8 PUSH1 0xA PUSH2 0x3A79 SWAP2 SWAP1 PUSH2 0x5E6C JUMP JUMPDEST SWAP1 POP DUP7 DUP2 DUP8 DUP8 DUP8 PUSH1 0x40 MLOAD PUSH1 0x20 ADD PUSH2 0x3A94 SWAP6 SWAP5 SWAP4 SWAP3 SWAP2 SWAP1 PUSH2 0x5EB6 JUMP JUMPDEST PUSH1 0x40 MLOAD PUSH1 0x20 DUP2 DUP4 SUB SUB DUP2 MSTORE SWAP1 PUSH1 0x40 MSTORE DUP1 MLOAD SWAP1 PUSH1 0x20 ADD KECCAK256 SWAP2 POP PUSH0 PUSH1 0x8 PUSH0 DUP5 DUP2 MSTORE PUSH1 0x20 ADD SWAP1 DUP2 MSTORE PUSH1 0x20 ADD PUSH0 KECCAK256 PUSH0 ADD PUSH0 SWAP1 SLOAD SWAP1 PUSH2 0x100 EXP SWAP1 DIV PUSH16 0xFFFFFFFFFFFFFFFFFFFFFFFFFFFFFFFF AND PUSH16 0xFFFFFFFFFFFFFFFFFFFFFFFFFFFFFFFF AND GT ISZERO PUSH2 0x3B26 JUMPI PUSH1 0x40 MLOAD PUSH32 0xF48E3C2600000000000000000000000000000000000000000000000000000000 DUP2 MSTORE PUSH1 0x4 ADD PUSH1 0x40 MLOAD DUP1 SWAP2 SUB SWAP1 REVERT JUMPDEST DUP7 PUSH1 0x8 PUSH0 DUP5 DUP2 MSTORE PUSH1 0x20 ADD SWAP1 DUP2 MSTORE PUSH1 0x20 ADD PUSH0 KECCAK256 PUSH0 ADD PUSH0 PUSH2 0x100 EXP DUP2 SLOAD DUP2 PUSH16 0xFFFFFFFFFFFFFFFFFFFFFFFFFFFFFFFF MUL NOT AND SWAP1 DUP4 PUSH16 0xFFFFFFFFFFFFFFFFFFFFFFFFFFFFFFFF AND MUL OR SWAP1 SSTORE POP DUP1 PUSH1 0x8 PUSH0 DUP5 DUP2 MSTORE PUSH1 0x20 ADD SWAP1 DUP2 MSTORE PUSH1 0x20 ADD PUSH0 KECCAK256 PUSH0 ADD PUSH1 0x10 PUSH2 0x100 EXP DUP2 SLOAD DUP2 PUSH16 0xFFFFFFFFFFFFFFFFFFFFFFFFFFFFFFFF MUL NOT AND SWAP1 DUP4 PUSH16 0xFFFFFFFFFFFFFFFFFFFFFFFFFFFFFFFF AND MUL OR SWAP1 SSTORE POP DUP6 PUSH1 0x8 PUSH0 DUP5 DUP2 MSTORE PUSH1 0x20 ADD SWAP1 DUP2 MSTORE PUSH1 0x20 ADD PUSH0 KECCAK256 PUSH1 0x1 ADD PUSH0 PUSH2 0x100 EXP DUP2 SLOAD DUP2 PUSH16 0xFFFFFFFFFFFFFFFFFFFFFFFFFFFFFFFF MUL NOT AND SWAP1 DUP4 PUSH16 0xFFFFFFFFFFFFFFFFFFFFFFFFFFFFFFFF AND MUL OR SWAP1 SSTORE POP DUP5 PUSH1 0x8 PUSH0 DUP5 DUP2 MSTORE PUSH1 0x20 ADD SWAP1 DUP2 MSTORE PUSH1 0x20 ADD PUSH0 KECCAK256 PUSH1 0x1 ADD PUSH1 0x10 PUSH2 0x100 EXP DUP2 SLOAD DUP2 PUSH16 0xFFFFFFFFFFFFFFFFFFFFFFFFFFFFFFFF MUL NOT AND SWAP1 DUP4 PUSH16 0xFFFFFFFFFFFFFFFFFFFFFFFFFFFFFFFF AND MUL OR SWAP1 SSTORE POP DUP4 PUSH1 0x8 PUSH0 DUP5 DUP2 MSTORE PUSH1 0x20 ADD SWAP1 DUP2 MSTORE PUSH1 0x20 ADD PUSH0 KECCAK256 PUSH1 0x2 ADD PUSH0 PUSH2 0x100 EXP DUP2 SLOAD DUP2 PUSH16 0xFFFFFFFFFFFFFFFFFFFFFFFFFFFFFFFF MUL NOT AND SWAP1 DUP4 PUSH16 0xFFFFFFFFFFFFFFFFFFFFFFFFFFFFFFFF AND MUL OR SWAP1 SSTORE POP PUSH0 PUSH1 0x40 MLOAD DUP1 PUSH1 0xE0 ADD PUSH1 0x40 MSTORE DUP1 DUP6 PUSH16 0xFFFFFFFFFFFFFFFFFFFFFFFFFFFFFFFF AND DUP2 MSTORE PUSH1 0x20 ADD DUP8 DUP7 PUSH2 0x3CC8 SWAP2 SWAP1 PUSH2 0x5AD8 JUMP JUMPDEST PUSH16 0xFFFFFFFFFFFFFFFFFFFFFFFFFFFFFFFF AND DUP2 MSTORE PUSH1 0x20 ADD DUP4 PUSH16 0xFFFFFFFFFFFFFFFFFFFFFFFFFFFFFFFF AND DUP2 MSTORE PUSH1 0x20 ADD PUSH0 DUP2 MSTORE PUSH1 0x20 ADD PUSH0 PUSH4 0xFFFFFFFF AND DUP2 MSTORE PUSH1 0x20 ADD PUSH0 ISZERO ISZERO DUP2 MSTORE PUSH1 0x20 ADD PUSH0 PUSH8 0xFFFFFFFFFFFFFFFF DUP2 GT ISZERO PUSH2 0x3D2B JUMPI PUSH2 0x3D2A PUSH2 0x4C11 JUMP JUMPDEST JUMPDEST PUSH1 0x40 MLOAD SWAP1 DUP1 DUP3 MSTORE DUP1 PUSH1 0x20 MUL PUSH1 0x20 ADD DUP3 ADD PUSH1 0x40 MSTORE DUP1 ISZERO PUSH2 0x3D59 JUMPI DUP2 PUSH1 0x20 ADD PUSH1 0x20 DUP3 MUL DUP1 CALLDATASIZE DUP4 CALLDATACOPY DUP1 DUP3 ADD SWAP2 POP POP SWAP1 POP JUMPDEST POP DUP2 MSTORE POP SWAP1 POP PUSH1 0x8 PUSH0 DUP5 DUP2 MSTORE PUSH1 0x20 ADD SWAP1 DUP2 MSTORE PUSH1 0x20 ADD PUSH0 KECCAK256 PUSH1 0x3 ADD DUP2 SWAP1 DUP1 PUSH1 0x1 DUP2 SLOAD ADD DUP1 DUP3 SSTORE DUP1 SWAP2 POP POP PUSH1 0x1 SWAP1 SUB SWAP1 PUSH0 MSTORE PUSH1 0x20 PUSH0 KECCAK256 SWAP1 PUSH1 0x5 MUL ADD PUSH0 SWAP1 SWAP2 SWAP1 SWAP2 SWAP1 SWAP2 POP PUSH0 DUP3 ADD MLOAD DUP2 PUSH0 ADD PUSH0 PUSH2 0x100 EXP DUP2 SLOAD DUP2 PUSH16 0xFFFFFFFFFFFFFFFFFFFFFFFFFFFFFFFF MUL NOT AND SWAP1 DUP4 PUSH16 0xFFFFFFFFFFFFFFFFFFFFFFFFFFFFFFFF AND MUL OR SWAP1 SSTORE POP PUSH1 0x20 DUP3 ADD MLOAD DUP2 PUSH0 ADD PUSH1 0x10 PUSH2 0x100 EXP DUP2 SLOAD DUP2 PUSH16 0xFFFFFFFFFFFFFFFFFFFFFFFFFFFFFFFF MUL NOT AND SWAP1 DUP4 PUSH16 0xFFFFFFFFFFFFFFFFFFFFFFFFFFFFFFFF AND MUL OR SWAP1 SSTORE POP PUSH1 0x40 DUP3 ADD MLOAD DUP2 PUSH1 0x1 ADD PUSH0 PUSH2 0x100 EXP DUP2 SLOAD DUP2 PUSH16 0xFFFFFFFFFFFFFFFFFFFFFFFFFFFFFFFF MUL NOT AND SWAP1 DUP4 PUSH16 0xFFFFFFFFFFFFFFFFFFFFFFFFFFFFFFFF AND MUL OR SWAP1 SSTORE POP PUSH1 0x60 DUP3 ADD MLOAD DUP2 PUSH1 0x2 ADD SSTORE PUSH1 0x80 DUP3 ADD MLOAD DUP2 PUSH1 0x3 ADD PUSH0 PUSH2 0x100 EXP DUP2 SLOAD DUP2 PUSH4 0xFFFFFFFF MUL NOT AND SWAP1 DUP4 PUSH4 0xFFFFFFFF AND MUL OR SWAP1 SSTORE POP PUSH1 0xA0 DUP3 ADD MLOAD DUP2 PUSH1 0x3 ADD PUSH1 0x4 PUSH2 0x100 EXP DUP2 SLOAD DUP2 PUSH1 0xFF MUL NOT AND SWAP1 DUP4 ISZERO ISZERO MUL OR SWAP1 SSTORE POP PUSH1 0xC0 DUP3 ADD MLOAD DUP2 PUSH1 0x4 ADD SWAP1 DUP1 MLOAD SWAP1 PUSH1 0x20 ADD SWAP1 PUSH2 0x3EBE SWAP3 SWAP2 SWAP1 PUSH2 0x48FF JUMP JUMPDEST POP POP POP PUSH1 0x9 DUP4 SWAP1 DUP1 PUSH1 0x1 DUP2 SLOAD ADD DUP1 DUP3 SSTORE DUP1 SWAP2 POP POP PUSH1 0x1 SWAP1 SUB SWAP1 PUSH0 MSTORE PUSH1 0x20 PUSH0 KECCAK256 ADD PUSH0 SWAP1 SWAP2 SWAP1 SWAP2 SWAP1 SWAP2 POP SSTORE PUSH32 0x3C2758C266CEC0BFBF96542A5EA303429FAEC587FB478C002BC94C4742A837F2 DUP9 DUP4 DUP10 DUP10 DUP10 DUP9 PUSH1 0x40 MLOAD PUSH2 0x3F20 SWAP7 SWAP6 SWAP5 SWAP4 SWAP3 SWAP2 SWAP1 PUSH2 0x5F07 JUMP JUMPDEST PUSH1 0x40 MLOAD DUP1 SWAP2 SUB SWAP1 LOG1 PUSH32 0x9B4E1F1B6DF74EFF26420E77CE7891D410B236932A083B7C18D599FBD654A8C7 DUP4 PUSH1 0x1 DUP7 DUP5 PUSH1 0x20 ADD MLOAD PUSH1 0x40 MLOAD PUSH2 0x3F62 SWAP5 SWAP4 SWAP3 SWAP2 SWAP1 PUSH2 0x5F96 JUMP JUMPDEST PUSH1 0x40 MLOAD DUP1 SWAP2 SUB SWAP1 LOG1 POP POP SWAP7 SWAP6 POP POP POP POP POP POP JUMP JUMPDEST PUSH2 0x3F7E PUSH2 0x44EA JUMP JUMPDEST DUP1 PUSH1 0x2 PUSH1 0xA PUSH2 0x100 EXP DUP2 SLOAD DUP2 PUSH4 0xFFFFFFFF MUL NOT AND SWAP1 DUP4 PUSH4 0xFFFFFFFF AND MUL OR SWAP1 SSTORE POP POP JUMP JUMPDEST PUSH2 0x3FAA PUSH2 0x44EA JUMP JUMPDEST PUSH3 0xF4240 PUSH3 0xFFFFFF AND DUP2 PUSH3 0xFFFFFF AND LT PUSH2 0x3FF0 JUMPI PUSH1 0x40 MLOAD PUSH32 0x23C0B71C00000000000000000000000000000000000000000000000000000000 DUP2 MSTORE PUSH1 0x4 ADD PUSH1 0x40 MLOAD DUP1 SWAP2 SUB SWAP1 REVERT JUMPDEST PUSH32 0xA81633B0C4A1AD81D8CA7C4930A87349BCAD69F6B8B39C5E91B64C0B674AAF85 PUSH0 PUSH1 0x14 SWAP1 SLOAD SWAP1 PUSH2 0x100 EXP SWAP1 DIV PUSH3 0xFFFFFF AND DUP3 PUSH1 0x40 MLOAD PUSH2 0x4031 SWAP3 SWAP2 SWAP1 PUSH2 0x5FD9 JUMP JUMPDEST PUSH1 0x40 MLOAD DUP1 SWAP2 SUB SWAP1 LOG1 DUP1 PUSH0 PUSH1 0x14 PUSH2 0x100 EXP DUP2 SLOAD DUP2 PUSH3 0xFFFFFF MUL NOT AND SWAP1 DUP4 PUSH3 0xFFFFFF AND MUL OR SWAP1 SSTORE POP POP JUMP JUMPDEST PUSH1 0x64 DUP2 JUMP JUMPDEST PUSH1 0x2 PUSH1 0x8 SWAP1 SLOAD SWAP1 PUSH2 0x100 EXP SWAP1 DIV PUSH2 0xFFFF AND DUP2 JUMP JUMPDEST PUSH0 PUSH1 0x4 PUSH0 CALLER PUSH20 0xFFFFFFFFFFFFFFFFFFFFFFFFFFFFFFFFFFFFFFFF AND PUSH20 0xFFFFFFFFFFFFFFFFFFFFFFFFFFFFFFFFFFFFFFFF AND DUP2 MSTORE PUSH1 0x20 ADD SWAP1 DUP2 MSTORE PUSH1 0x20 ADD PUSH0 KECCAK256 SLOAD SWAP1 POP PUSH2 0x40FF DUP3 DUP3 PUSH32 0x0 PUSH20 0xFFFFFFFFFFFFFFFFFFFFFFFFFFFFFFFFFFFFFFFF AND PUSH2 0x446B SWAP1 SWAP3 SWAP2 SWAP1 PUSH4 0xFFFFFFFF AND JUMP JUMPDEST PUSH0 PUSH1 0x4 PUSH0 CALLER PUSH20 0xFFFFFFFFFFFFFFFFFFFFFFFFFFFFFFFFFFFFFFFF AND PUSH20 0xFFFFFFFFFFFFFFFFFFFFFFFFFFFFFFFFFFFFFFFF AND DUP2 MSTORE PUSH1 0x20 ADD SWAP1 DUP2 MSTORE PUSH1 0x20 ADD PUSH0 KECCAK256 DUP2 SWAP1 SSTORE POP CALLER PUSH20 0xFFFFFFFFFFFFFFFFFFFFFFFFFFFFFFFFFFFFFFFF AND PUSH32 0x99025A6C572F7D11C4D4D32F273DD2DCF2D8841A574E65FA8E35D718A231370B DUP3 PUSH1 0x40 MLOAD PUSH2 0x4187 SWAP2 SWAP1 PUSH2 0x5463 JUMP JUMPDEST PUSH1 0x40 MLOAD DUP1 SWAP2 SUB SWAP1 LOG2 POP POP JUMP JUMPDEST PUSH2 0x419B PUSH2 0x44EA JUMP JUMPDEST DUP1 PUSH1 0x1 DUP2 SWAP1 SSTORE POP POP JUMP JUMPDEST PUSH1 0x2 PUSH0 SWAP1 SLOAD SWAP1 PUSH2 0x100 EXP SWAP1 DIV PUSH8 0xFFFFFFFFFFFFFFFF AND DUP2 JUMP JUMPDEST PUSH2 0x41C6 PUSH2 0x44EA JUMP JUMPDEST PUSH0 PUSH20 0xFFFFFFFFFFFFFFFFFFFFFFFFFFFFFFFFFFFFFFFF AND DUP3 PUSH20 0xFFFFFFFFFFFFFFFFFFFFFFFFFFFFFFFFFFFFFFFF AND SUB PUSH2 0x422B JUMPI PUSH1 0x40 MLOAD PUSH32 0xD92E233D00000000000000000000000000000000000000000000000000000000 DUP2 MSTORE PUSH1 0x4 ADD PUSH1 0x40 MLOAD DUP1 SWAP2 SUB SWAP1 REVERT JUMPDEST PUSH2 0x4276 DUP3 DUP3 PUSH32 0x0 PUSH20 0xFFFFFFFFFFFFFFFFFFFFFFFFFFFFFFFFFFFFFFFF AND PUSH2 0x446B SWAP1 SWAP3 SWAP2 SWAP1 PUSH4 0xFFFFFFFF AND JUMP JUMPDEST POP POP JUMP JUMPDEST PUSH1 0x60 PUSH1 0x9 DUP1 SLOAD DUP1 PUSH1 0x20 MUL PUSH1 0x20 ADD PUSH1 0x40 MLOAD SWAP1 DUP2 ADD PUSH1 0x40 MSTORE DUP1 SWAP3 SWAP2 SWAP1 DUP2 DUP2 MSTORE PUSH1 0x20 ADD DUP3 DUP1 SLOAD DUP1 ISZERO PUSH2 0x42C6 JUMPI PUSH1 0x20 MUL DUP3 ADD SWAP2 SWAP1 PUSH0 MSTORE PUSH1 0x20 PUSH0 KECCAK256 SWAP1 JUMPDEST DUP2 SLOAD DUP2 MSTORE PUSH1 0x20 ADD SWAP1 PUSH1 0x1 ADD SWAP1 DUP1 DUP4 GT PUSH2 0x42B2 JUMPI JUMPDEST POP POP POP POP POP SWAP1 POP SWAP1 JUMP JUMPDEST PUSH2 0x42D8 PUSH2 0x44EA JUMP JUMPDEST PUSH0 PUSH20 0xFFFFFFFFFFFFFFFFFFFFFFFFFFFFFFFFFFFFFFFF AND DUP2 PUSH20 0xFFFFFFFFFFFFFFFFFFFFFFFFFFFFFFFFFFFFFFFF AND SUB PUSH2 0x4348 JUMPI PUSH0 PUSH1 0x40 MLOAD PUSH32 0x1E4FBDF700000000000000000000000000000000000000000000000000000000 DUP2 MSTORE PUSH1 0x4 ADD PUSH2 0x433F SWAP2 SWAP1 PUSH2 0x544A JUMP JUMPDEST PUSH1 0x40 MLOAD DUP1 SWAP2 SUB SWAP1 REVERT JUMPDEST PUSH2 0x4351 DUP2 PUSH2 0x4571 JUMP JUMPDEST POP JUMP JUMPDEST PUSH0 PUSH1 0x7 PUSH0 DUP5 DUP2 MSTORE PUSH1 0x20 ADD SWAP1 DUP2 MSTORE PUSH1 0x20 ADD PUSH0 KECCAK256 PUSH1 0x40 MLOAD DUP1 PUSH1 0x40 ADD PUSH1 0x40 MSTORE SWAP1 DUP2 PUSH0 DUP3 ADD SLOAD DUP2 MSTORE PUSH1 0x20 ADD PUSH1 0x1 DUP3 ADD SLOAD DUP2 MSTORE POP POP SWAP1 POP PUSH0 PUSH1 0x1 PUSH1 0x8 PUSH0 DUP5 PUSH0 ADD MLOAD DUP2 MSTORE PUSH1 0x20 ADD SWAP1 DUP2 MSTORE PUSH1 0x20 ADD PUSH0 KECCAK256 PUSH0 ADD PUSH1 0x10 SWAP1 SLOAD SWAP1 PUSH2 0x100 EXP SWAP1 DIV PUSH16 0xFFFFFFFFFFFFFFFFFFFFFFFFFFFFFFFF AND PUSH16 0xFFFFFFFFFFFFFFFFFFFFFFFFFFFFFFFF AND DUP5 PUSH0 DUP2 MLOAD DUP2 LT PUSH2 0x43E1 JUMPI PUSH2 0x43E0 PUSH2 0x591A JUMP JUMPDEST JUMPDEST PUSH1 0x20 MUL PUSH1 0x20 ADD ADD MLOAD PUSH2 0x43F3 SWAP2 SWAP1 PUSH2 0x6000 JUMP JUMPDEST PUSH2 0x43FD SWAP2 SWAP1 PUSH2 0x596E JUMP JUMPDEST SWAP1 POP DUP1 PUSH1 0x8 PUSH0 DUP5 PUSH0 ADD MLOAD DUP2 MSTORE PUSH1 0x20 ADD SWAP1 DUP2 MSTORE PUSH1 0x20 ADD PUSH0 KECCAK256 PUSH1 0x3 ADD PUSH1 0x1 DUP5 PUSH1 0x20 ADD MLOAD PUSH2 0x4428 SWAP2 SWAP1 PUSH2 0x58E7 JUMP JUMPDEST DUP2 SLOAD DUP2 LT PUSH2 0x4439 JUMPI PUSH2 0x4438 PUSH2 0x591A JUMP JUMPDEST JUMPDEST SWAP1 PUSH0 MSTORE PUSH1 0x20 PUSH0 KECCAK256 SWAP1 PUSH1 0x5 MUL ADD PUSH1 0x3 ADD PUSH0 PUSH2 0x100 EXP DUP2 SLOAD DUP2 PUSH4 0xFFFFFFFF MUL NOT AND SWAP1 DUP4 PUSH4 0xFFFFFFFF AND MUL OR SWAP1 SSTORE POP POP POP POP POP JUMP JUMPDEST PUSH2 0x44E5 DUP4 DUP5 PUSH20 0xFFFFFFFFFFFFFFFFFFFFFFFFFFFFFFFFFFFFFFFF AND PUSH4 0xA9059CBB DUP6 DUP6 PUSH1 0x40 MLOAD PUSH1 0x24 ADD PUSH2 0x449E SWAP3 SWAP2 SWAP1 PUSH2 0x6030 JUMP JUMPDEST PUSH1 0x40 MLOAD PUSH1 0x20 DUP2 DUP4 SUB SUB DUP2 MSTORE SWAP1 PUSH1 0x40 MSTORE SWAP2 POP PUSH1 0xE0 SHL PUSH1 0x20 DUP3 ADD DUP1 MLOAD PUSH28 0xFFFFFFFFFFFFFFFFFFFFFFFFFFFFFFFFFFFFFFFFFFFFFFFFFFFFFFFF DUP4 DUP2 DUP4 AND OR DUP4 MSTORE POP POP POP POP PUSH2 0x46B4 JUMP JUMPDEST POP POP POP JUMP JUMPDEST PUSH2 0x44F2 PUSH2 0x4749 JUMP JUMPDEST PUSH20 0xFFFFFFFFFFFFFFFFFFFFFFFFFFFFFFFFFFFFFFFF AND PUSH2 0x4510 PUSH2 0x38C6 JUMP JUMPDEST PUSH20 0xFFFFFFFFFFFFFFFFFFFFFFFFFFFFFFFFFFFFFFFF AND EQ PUSH2 0x456F JUMPI PUSH2 0x4533 PUSH2 0x4749 JUMP JUMPDEST PUSH1 0x40 MLOAD PUSH32 0x118CDAA700000000000000000000000000000000000000000000000000000000 DUP2 MSTORE PUSH1 0x4 ADD PUSH2 0x4566 SWAP2 SWAP1 PUSH2 0x544A JUMP JUMPDEST PUSH1 0x40 MLOAD DUP1 SWAP2 SUB SWAP1 REVERT JUMPDEST JUMP JUMPDEST PUSH0 DUP1 PUSH0 SWAP1 SLOAD SWAP1 PUSH2 0x100 EXP SWAP1 DIV PUSH20 0xFFFFFFFFFFFFFFFFFFFFFFFFFFFFFFFFFFFFFFFF AND SWAP1 POP DUP2 PUSH0 DUP1 PUSH2 0x100 EXP DUP2 SLOAD DUP2 PUSH20 0xFFFFFFFFFFFFFFFFFFFFFFFFFFFFFFFFFFFFFFFF MUL NOT AND SWAP1 DUP4 PUSH20 0xFFFFFFFFFFFFFFFFFFFFFFFFFFFFFFFFFFFFFFFF AND MUL OR SWAP1 SSTORE POP DUP2 PUSH20 0xFFFFFFFFFFFFFFFFFFFFFFFFFFFFFFFFFFFFFFFF AND DUP2 PUSH20 0xFFFFFFFFFFFFFFFFFFFFFFFFFFFFFFFFFFFFFFFF AND PUSH32 0x8BE0079C531659141344CD1FD0A4F28419497F9722A3DAAFE3B4186F6B6457E0 PUSH1 0x40 MLOAD PUSH1 0x40 MLOAD DUP1 SWAP2 SUB SWAP1 LOG3 POP POP JUMP JUMPDEST PUSH2 0x46AE DUP5 DUP6 PUSH20 0xFFFFFFFFFFFFFFFFFFFFFFFFFFFFFFFFFFFFFFFF AND PUSH4 0x23B872DD DUP7 DUP7 DUP7 PUSH1 0x40 MLOAD PUSH1 0x24 ADD PUSH2 0x4667 SWAP4 SWAP3 SWAP2 SWAP1 PUSH2 0x6057 JUMP JUMPDEST PUSH1 0x40 MLOAD PUSH1 0x20 DUP2 DUP4 SUB SUB DUP2 MSTORE SWAP1 PUSH1 0x40 MSTORE SWAP2 POP PUSH1 0xE0 SHL PUSH1 0x20 DUP3 ADD DUP1 MLOAD PUSH28 0xFFFFFFFFFFFFFFFFFFFFFFFFFFFFFFFFFFFFFFFFFFFFFFFFFFFFFFFF DUP4 DUP2 DUP4 AND OR DUP4 MSTORE POP POP POP POP PUSH2 0x46B4 JUMP JUMPDEST POP POP POP POP JUMP JUMPDEST PUSH0 PUSH2 0x46DE DUP3 DUP5 PUSH20 0xFFFFFFFFFFFFFFFFFFFFFFFFFFFFFFFFFFFFFFFF AND PUSH2 0x4750 SWAP1 SWAP2 SWAP1 PUSH4 0xFFFFFFFF AND JUMP JUMPDEST SWAP1 POP PUSH0 DUP2 MLOAD EQ ISZERO DUP1 ISZERO PUSH2 0x4702 JUMPI POP DUP1 DUP1 PUSH1 0x20 ADD SWAP1 MLOAD DUP2 ADD SWAP1 PUSH2 0x4700 SWAP2 SWAP1 PUSH2 0x60B6 JUMP JUMPDEST ISZERO JUMPDEST ISZERO PUSH2 0x4744 JUMPI DUP3 PUSH1 0x40 MLOAD PUSH32 0x5274AFE700000000000000000000000000000000000000000000000000000000 DUP2 MSTORE PUSH1 0x4 ADD PUSH2 0x473B SWAP2 SWAP1 PUSH2 0x544A JUMP JUMPDEST PUSH1 0x40 MLOAD DUP1 SWAP2 SUB SWAP1 REVERT JUMPDEST POP POP POP JUMP JUMPDEST PUSH0 CALLER SWAP1 POP SWAP1 JUMP JUMPDEST PUSH1 0x60 PUSH2 0x475D DUP4 DUP4 PUSH0 PUSH2 0x4765 JUMP JUMPDEST SWAP1 POP SWAP3 SWAP2 POP POP JUMP JUMPDEST PUSH1 0x60 DUP2 SELFBALANCE LT ISZERO PUSH2 0x47AC JUMPI ADDRESS PUSH1 0x40 MLOAD PUSH32 0xCD78605900000000000000000000000000000000000000000000000000000000 DUP2 MSTORE PUSH1 0x4 ADD PUSH2 0x47A3 SWAP2 SWAP1 PUSH2 0x544A JUMP JUMPDEST PUSH1 0x40 MLOAD DUP1 SWAP2 SUB SWAP1 REVERT JUMPDEST PUSH0 DUP1 DUP6 PUSH20 0xFFFFFFFFFFFFFFFFFFFFFFFFFFFFFFFFFFFFFFFF AND DUP5 DUP7 PUSH1 0x40 MLOAD PUSH2 0x47D4 SWAP2 SWAP1 PUSH2 0x6133 JUMP JUMPDEST PUSH0 PUSH1 0x40 MLOAD DUP1 DUP4 SUB DUP2 DUP6 DUP8 GAS CALL SWAP3 POP POP POP RETURNDATASIZE DUP1 PUSH0 DUP2 EQ PUSH2 0x480E JUMPI PUSH1 0x40 MLOAD SWAP2 POP PUSH1 0x1F NOT PUSH1 0x3F RETURNDATASIZE ADD AND DUP3 ADD PUSH1 0x40 MSTORE RETURNDATASIZE DUP3 MSTORE RETURNDATASIZE PUSH0 PUSH1 0x20 DUP5 ADD RETURNDATACOPY PUSH2 0x4813 JUMP JUMPDEST PUSH1 0x60 SWAP2 POP JUMPDEST POP SWAP2 POP SWAP2 POP PUSH2 0x4823 DUP7 DUP4 DUP4 PUSH2 0x482E JUMP JUMPDEST SWAP3 POP POP POP SWAP4 SWAP3 POP POP POP JUMP JUMPDEST PUSH1 0x60 DUP3 PUSH2 0x4843 JUMPI PUSH2 0x483E DUP3 PUSH2 0x48BB JUMP JUMPDEST PUSH2 0x48B3 JUMP JUMPDEST PUSH0 DUP3 MLOAD EQ DUP1 ISZERO PUSH2 0x4869 JUMPI POP PUSH0 DUP5 PUSH20 0xFFFFFFFFFFFFFFFFFFFFFFFFFFFFFFFFFFFFFFFF AND EXTCODESIZE EQ JUMPDEST ISZERO PUSH2 0x48AB JUMPI DUP4 PUSH1 0x40 MLOAD PUSH32 0x9996B31500000000000000000000000000000000000000000000000000000000 DUP2 MSTORE PUSH1 0x4 ADD PUSH2 0x48A2 SWAP2 SWAP1 PUSH2 0x544A JUMP JUMPDEST PUSH1 0x40 MLOAD DUP1 SWAP2 SUB SWAP1 REVERT JUMPDEST DUP2 SWAP1 POP PUSH2 0x48B4 JUMP JUMPDEST JUMPDEST SWAP4 SWAP3 POP POP POP JUMP JUMPDEST PUSH0 DUP2 MLOAD GT ISZERO PUSH2 0x48CD JUMPI DUP1 MLOAD DUP1 DUP3 PUSH1 0x20 ADD REVERT JUMPDEST PUSH1 0x40 MLOAD PUSH32 0x1425EA4200000000000000000000000000000000000000000000000000000000 DUP2 MSTORE PUSH1 0x4 ADD PUSH1 0x40 MLOAD DUP1 SWAP2 SUB SWAP1 REVERT JUMPDEST DUP3 DUP1 SLOAD DUP3 DUP3 SSTORE SWAP1 PUSH0 MSTORE PUSH1 0x20 PUSH0 KECCAK256 SWAP1 PUSH1 0x7 ADD PUSH1 0x8 SWAP1 DIV DUP2 ADD SWAP3 DUP3 ISZERO PUSH2 0x499B JUMPI SWAP2 PUSH1 0x20 MUL DUP3 ADD PUSH0 JUMPDEST DUP4 DUP3 GT ISZERO PUSH2 0x4969 JUMPI DUP4 MLOAD DUP4 DUP3 PUSH2 0x100 EXP DUP2 SLOAD DUP2 PUSH4 0xFFFFFFFF MUL NOT AND SWAP1 DUP4 PUSH4 0xFFFFFFFF AND MUL OR SWAP1 SSTORE POP SWAP3 PUSH1 0x20 ADD SWAP3 PUSH1 0x4 ADD PUSH1 0x20 DUP2 PUSH1 0x3 ADD DIV SWAP3 DUP4 ADD SWAP3 PUSH1 0x1 SUB MUL PUSH2 0x4925 JUMP JUMPDEST DUP1 ISZERO PUSH2 0x4999 JUMPI DUP3 DUP2 PUSH2 0x100 EXP DUP2 SLOAD SWAP1 PUSH4 0xFFFFFFFF MUL NOT AND SWAP1 SSTORE PUSH1 0x4 ADD PUSH1 0x20 DUP2 PUSH1 0x3 ADD DIV SWAP3 DUP4 ADD SWAP3 PUSH1 0x1 SUB MUL PUSH2 0x4969 JUMP JUMPDEST POP JUMPDEST POP SWAP1 POP PUSH2 0x49A8 SWAP2 SWAP1 PUSH2 0x49D3 JUMP JUMPDEST POP SWAP1 JUMP JUMPDEST PUSH1 0x40 MLOAD DUP1 PUSH1 0x60 ADD PUSH1 0x40 MSTORE DUP1 PUSH0 DUP1 NOT AND DUP2 MSTORE PUSH1 0x20 ADD PUSH0 DUP2 MSTORE PUSH1 0x20 ADD PUSH0 PUSH4 0xFFFFFFFF AND DUP2 MSTORE POP SWAP1 JUMP JUMPDEST JUMPDEST DUP1 DUP3 GT ISZERO PUSH2 0x49EA JUMPI PUSH0 DUP2 PUSH0 SWAP1 SSTORE POP PUSH1 0x1 ADD PUSH2 0x49D4 JUMP JUMPDEST POP SWAP1 JUMP JUMPDEST PUSH0 PUSH1 0x40 MLOAD SWAP1 POP SWAP1 JUMP JUMPDEST PUSH0 DUP1 REVERT JUMPDEST PUSH0 DUP1 REVERT JUMPDEST PUSH0 DUP2 SWAP1 POP SWAP2 SWAP1 POP JUMP JUMPDEST PUSH2 0x4A11 DUP2 PUSH2 0x49FF JUMP JUMPDEST DUP2 EQ PUSH2 0x4A1B JUMPI PUSH0 DUP1 REVERT JUMPDEST POP JUMP JUMPDEST PUSH0 DUP2 CALLDATALOAD SWAP1 POP PUSH2 0x4A2C DUP2 PUSH2 0x4A08 JUMP JUMPDEST SWAP3 SWAP2 POP POP JUMP JUMPDEST PUSH0 DUP2 SWAP1 POP SWAP2 SWAP1 POP JUMP JUMPDEST PUSH2 0x4A44 DUP2 PUSH2 0x4A32 JUMP JUMPDEST DUP2 EQ PUSH2 0x4A4E JUMPI PUSH0 DUP1 REVERT JUMPDEST POP JUMP JUMPDEST PUSH0 DUP2 CALLDATALOAD SWAP1 POP PUSH2 0x4A5F DUP2 PUSH2 0x4A3B JUMP JUMPDEST SWAP3 SWAP2 POP POP JUMP JUMPDEST PUSH0 DUP1 PUSH1 0x40 DUP4 DUP6 SUB SLT ISZERO PUSH2 0x4A7B JUMPI PUSH2 0x4A7A PUSH2 0x49F7 JUMP JUMPDEST JUMPDEST PUSH0 PUSH2 0x4A88 DUP6 DUP3 DUP7 ADD PUSH2 0x4A1E JUMP JUMPDEST SWAP3 POP POP PUSH1 0x20 PUSH2 0x4A99 DUP6 DUP3 DUP7 ADD PUSH2 0x4A51 JUMP JUMPDEST SWAP2 POP POP SWAP3 POP SWAP3 SWAP1 POP JUMP JUMPDEST PUSH0 PUSH16 0xFFFFFFFFFFFFFFFFFFFFFFFFFFFFFFFF DUP3 AND SWAP1 POP SWAP2 SWAP1 POP JUMP JUMPDEST PUSH2 0x4AC7 DUP2 PUSH2 0x4AA3 JUMP JUMPDEST DUP3 MSTORE POP POP JUMP JUMPDEST PUSH2 0x4AD6 DUP2 PUSH2 0x4A32 JUMP JUMPDEST DUP3 MSTORE POP POP JUMP JUMPDEST PUSH0 PUSH4 0xFFFFFFFF DUP3 AND SWAP1 POP SWAP2 SWAP1 POP JUMP JUMPDEST PUSH2 0x4AF4 DUP2 PUSH2 0x4ADC JUMP JUMPDEST DUP3 MSTORE POP POP JUMP JUMPDEST PUSH0 DUP2 ISZERO ISZERO SWAP1 POP SWAP2 SWAP1 POP JUMP JUMPDEST PUSH2 0x4B0E DUP2 PUSH2 0x4AFA JUMP JUMPDEST DUP3 MSTORE POP POP JUMP JUMPDEST PUSH0 PUSH1 0xC0 DUP3 ADD SWAP1 POP PUSH2 0x4B27 PUSH0 DUP4 ADD DUP10 PUSH2 0x4ABE JUMP JUMPDEST PUSH2 0x4B34 PUSH1 0x20 DUP4 ADD DUP9 PUSH2 0x4ABE JUMP JUMPDEST PUSH2 0x4B41 PUSH1 0x40 DUP4 ADD DUP8 PUSH2 0x4ABE JUMP JUMPDEST PUSH2 0x4B4E PUSH1 0x60 DUP4 ADD DUP7 PUSH2 0x4ACD JUMP JUMPDEST PUSH2 0x4B5B PUSH1 0x80 DUP4 ADD DUP6 PUSH2 0x4AEB JUMP JUMPDEST PUSH2 0x4B68 PUSH1 0xA0 DUP4 ADD DUP5 PUSH2 0x4B05 JUMP JUMPDEST SWAP8 SWAP7 POP POP POP POP POP POP POP JUMP JUMPDEST PUSH0 PUSH1 0x20 DUP3 DUP5 SUB SLT ISZERO PUSH2 0x4B88 JUMPI PUSH2 0x4B87 PUSH2 0x49F7 JUMP JUMPDEST JUMPDEST PUSH0 PUSH2 0x4B95 DUP5 DUP3 DUP6 ADD PUSH2 0x4A1E JUMP JUMPDEST SWAP2 POP POP SWAP3 SWAP2 POP POP JUMP JUMPDEST PUSH0 PUSH1 0xC0 DUP3 ADD SWAP1 POP PUSH2 0x4BB1 PUSH0 DUP4 ADD DUP10 PUSH2 0x4ABE JUMP JUMPDEST PUSH2 0x4BBE PUSH1 0x20 DUP4 ADD DUP9 PUSH2 0x4ABE JUMP JUMPDEST PUSH2 0x4BCB PUSH1 0x40 DUP4 ADD DUP8 PUSH2 0x4ABE JUMP JUMPDEST PUSH2 0x4BD8 PUSH1 0x60 DUP4 ADD DUP7 PUSH2 0x4ABE JUMP JUMPDEST PUSH2 0x4BE5 PUSH1 0x80 DUP4 ADD DUP6 PUSH2 0x4ABE JUMP JUMPDEST PUSH2 0x4BF2 PUSH1 0xA0 DUP4 ADD DUP5 PUSH2 0x4ACD JUMP JUMPDEST SWAP8 SWAP7 POP POP POP POP POP POP POP JUMP JUMPDEST PUSH0 DUP1 REVERT JUMPDEST PUSH0 PUSH1 0x1F NOT PUSH1 0x1F DUP4 ADD AND SWAP1 POP SWAP2 SWAP1 POP JUMP JUMPDEST PUSH32 0x4E487B7100000000000000000000000000000000000000000000000000000000 PUSH0 MSTORE PUSH1 0x41 PUSH1 0x4 MSTORE PUSH1 0x24 PUSH0 REVERT JUMPDEST PUSH2 0x4C47 DUP3 PUSH2 0x4C01 JUMP JUMPDEST DUP2 ADD DUP2 DUP2 LT PUSH8 0xFFFFFFFFFFFFFFFF DUP3 GT OR ISZERO PUSH2 0x4C66 JUMPI PUSH2 0x4C65 PUSH2 0x4C11 JUMP JUMPDEST JUMPDEST DUP1 PUSH1 0x40 MSTORE POP POP POP JUMP JUMPDEST PUSH0 PUSH2 0x4C78 PUSH2 0x49EE JUMP JUMPDEST SWAP1 POP PUSH2 0x4C84 DUP3 DUP3 PUSH2 0x4C3E JUMP JUMPDEST SWAP2 SWAP1 POP JUMP JUMPDEST PUSH0 PUSH8 0xFFFFFFFFFFFFFFFF DUP3 GT ISZERO PUSH2 0x4CA3 JUMPI PUSH2 0x4CA2 PUSH2 0x4C11 JUMP JUMPDEST JUMPDEST PUSH1 0x20 DUP3 MUL SWAP1 POP PUSH1 0x20 DUP2 ADD SWAP1 POP SWAP2 SWAP1 POP JUMP JUMPDEST PUSH0 DUP1 REVERT JUMPDEST PUSH0 PUSH2 0x4CCA PUSH2 0x4CC5 DUP5 PUSH2 0x4C89 JUMP JUMPDEST PUSH2 0x4C6F JUMP JUMPDEST SWAP1 POP DUP1 DUP4 DUP3 MSTORE PUSH1 0x20 DUP3 ADD SWAP1 POP PUSH1 0x20 DUP5 MUL DUP4 ADD DUP6 DUP2 GT ISZERO PUSH2 0x4CED JUMPI PUSH2 0x4CEC PUSH2 0x4CB4 JUMP JUMPDEST JUMPDEST DUP4 JUMPDEST DUP2 DUP2 LT ISZERO PUSH2 0x4D16 JUMPI DUP1 PUSH2 0x4D02 DUP9 DUP3 PUSH2 0x4A51 JUMP JUMPDEST DUP5 MSTORE PUSH1 0x20 DUP5 ADD SWAP4 POP POP PUSH1 0x20 DUP2 ADD SWAP1 POP PUSH2 0x4CEF JUMP JUMPDEST POP POP POP SWAP4 SWAP3 POP POP POP JUMP JUMPDEST PUSH0 DUP3 PUSH1 0x1F DUP4 ADD SLT PUSH2 0x4D34 JUMPI PUSH2 0x4D33 PUSH2 0x4BFD JUMP JUMPDEST JUMPDEST DUP2 CALLDATALOAD PUSH2 0x4D44 DUP5 DUP3 PUSH1 0x20 DUP7 ADD PUSH2 0x4CB8 JUMP JUMPDEST SWAP2 POP POP SWAP3 SWAP2 POP POP JUMP JUMPDEST PUSH0 DUP1 PUSH1 0x40 DUP4 DUP6 SUB SLT ISZERO PUSH2 0x4D63 JUMPI PUSH2 0x4D62 PUSH2 0x49F7 JUMP JUMPDEST JUMPDEST PUSH0 PUSH2 0x4D70 DUP6 DUP3 DUP7 ADD PUSH2 0x4A51 JUMP JUMPDEST SWAP3 POP POP PUSH1 0x20 DUP4 ADD CALLDATALOAD PUSH8 0xFFFFFFFFFFFFFFFF DUP2 GT ISZERO PUSH2 0x4D91 JUMPI PUSH2 0x4D90 PUSH2 0x49FB JUMP JUMPDEST JUMPDEST PUSH2 0x4D9D DUP6 DUP3 DUP7 ADD PUSH2 0x4D20 JUMP JUMPDEST SWAP2 POP POP SWAP3 POP SWAP3 SWAP1 POP JUMP JUMPDEST PUSH0 PUSH20 0xFFFFFFFFFFFFFFFFFFFFFFFFFFFFFFFFFFFFFFFF DUP3 AND SWAP1 POP SWAP2 SWAP1 POP JUMP JUMPDEST PUSH0 PUSH2 0x4DD0 DUP3 PUSH2 0x4DA7 JUMP JUMPDEST SWAP1 POP SWAP2 SWAP1 POP JUMP JUMPDEST PUSH2 0x4DE0 DUP2 PUSH2 0x4DC6 JUMP JUMPDEST DUP2 EQ PUSH2 0x4DEA JUMPI PUSH0 DUP1 REVERT JUMPDEST POP JUMP JUMPDEST PUSH0 DUP2 CALLDATALOAD SWAP1 POP PUSH2 0x4DFB DUP2 PUSH2 0x4DD7 JUMP JUMPDEST SWAP3 SWAP2 POP POP JUMP JUMPDEST PUSH0 PUSH1 0x20 DUP3 DUP5 SUB SLT ISZERO PUSH2 0x4E16 JUMPI PUSH2 0x4E15 PUSH2 0x49F7 JUMP JUMPDEST JUMPDEST PUSH0 PUSH2 0x4E23 DUP5 DUP3 DUP6 ADD PUSH2 0x4DED JUMP JUMPDEST SWAP2 POP POP SWAP3 SWAP2 POP POP JUMP JUMPDEST PUSH0 DUP2 MLOAD SWAP1 POP SWAP2 SWAP1 POP JUMP JUMPDEST PUSH0 DUP3 DUP3 MSTORE PUSH1 0x20 DUP3 ADD SWAP1 POP SWAP3 SWAP2 POP POP JUMP JUMPDEST PUSH0 DUP2 SWAP1 POP PUSH1 0x20 DUP3 ADD SWAP1 POP SWAP2 SWAP1 POP JUMP JUMPDEST PUSH2 0x4E5E DUP2 PUSH2 0x49FF JUMP JUMPDEST DUP3 MSTORE POP POP JUMP JUMPDEST PUSH0 PUSH2 0x4E6F DUP4 DUP4 PUSH2 0x4E55 JUMP JUMPDEST PUSH1 0x20 DUP4 ADD SWAP1 POP SWAP3 SWAP2 POP POP JUMP JUMPDEST PUSH0 PUSH1 0x20 DUP3 ADD SWAP1 POP SWAP2 SWAP1 POP JUMP JUMPDEST PUSH0 PUSH2 0x4E91 DUP3 PUSH2 0x4E2C JUMP JUMPDEST PUSH2 0x4E9B DUP2 DUP6 PUSH2 0x4E36 JUMP JUMPDEST SWAP4 POP PUSH2 0x4EA6 DUP4 PUSH2 0x4E46 JUMP JUMPDEST DUP1 PUSH0 JUMPDEST DUP4 DUP2 LT ISZERO PUSH2 0x4ED6 JUMPI DUP2 MLOAD PUSH2 0x4EBD DUP9 DUP3 PUSH2 0x4E64 JUMP JUMPDEST SWAP8 POP PUSH2 0x4EC8 DUP4 PUSH2 0x4E7B JUMP JUMPDEST SWAP3 POP POP PUSH1 0x1 DUP2 ADD SWAP1 POP PUSH2 0x4EA9 JUMP JUMPDEST POP DUP6 SWAP4 POP POP POP POP SWAP3 SWAP2 POP POP JUMP JUMPDEST PUSH0 DUP2 MLOAD SWAP1 POP SWAP2 SWAP1 POP JUMP JUMPDEST PUSH0 DUP3 DUP3 MSTORE PUSH1 0x20 DUP3 ADD SWAP1 POP SWAP3 SWAP2 POP POP JUMP JUMPDEST PUSH0 DUP2 SWAP1 POP PUSH1 0x20 DUP3 ADD SWAP1 POP SWAP2 SWAP1 POP JUMP JUMPDEST PUSH2 0x4F15 DUP2 PUSH2 0x4A32 JUMP JUMPDEST DUP3 MSTORE POP POP JUMP JUMPDEST PUSH0 PUSH2 0x4F26 DUP4 DUP4 PUSH2 0x4F0C JUMP JUMPDEST PUSH1 0x20 DUP4 ADD SWAP1 POP SWAP3 SWAP2 POP POP JUMP JUMPDEST PUSH0 PUSH1 0x20 DUP3 ADD SWAP1 POP SWAP2 SWAP1 POP JUMP JUMPDEST PUSH0 PUSH2 0x4F48 DUP3 PUSH2 0x4EE3 JUMP JUMPDEST PUSH2 0x4F52 DUP2 DUP6 PUSH2 0x4EED JUMP JUMPDEST SWAP4 POP PUSH2 0x4F5D DUP4 PUSH2 0x4EFD JUMP JUMPDEST DUP1 PUSH0 JUMPDEST DUP4 DUP2 LT ISZERO PUSH2 0x4F8D JUMPI DUP2 MLOAD PUSH2 0x4F74 DUP9 DUP3 PUSH2 0x4F1B JUMP JUMPDEST SWAP8 POP PUSH2 0x4F7F DUP4 PUSH2 0x4F32 JUMP JUMPDEST SWAP3 POP POP PUSH1 0x1 DUP2 ADD SWAP1 POP PUSH2 0x4F60 JUMP JUMPDEST POP DUP6 SWAP4 POP POP POP POP SWAP3 SWAP2 POP POP JUMP JUMPDEST PUSH0 PUSH1 0x60 DUP3 ADD SWAP1 POP DUP2 DUP2 SUB PUSH0 DUP4 ADD MSTORE PUSH2 0x4FB2 DUP2 DUP7 PUSH2 0x4E87 JUMP JUMPDEST SWAP1 POP DUP2 DUP2 SUB PUSH1 0x20 DUP4 ADD MSTORE PUSH2 0x4FC6 DUP2 DUP6 PUSH2 0x4F3E JUMP JUMPDEST SWAP1 POP PUSH2 0x4FD5 PUSH1 0x40 DUP4 ADD DUP5 PUSH2 0x4ACD JUMP JUMPDEST SWAP5 SWAP4 POP POP POP POP JUMP JUMPDEST PUSH0 PUSH1 0x20 DUP3 ADD SWAP1 POP PUSH2 0x4FF0 PUSH0 DUP4 ADD DUP5 PUSH2 0x4AEB JUMP JUMPDEST SWAP3 SWAP2 POP POP JUMP JUMPDEST PUSH0 DUP2 MLOAD SWAP1 POP SWAP2 SWAP1 POP JUMP JUMPDEST PUSH0 DUP3 DUP3 MSTORE PUSH1 0x20 DUP3 ADD SWAP1 POP SWAP3 SWAP2 POP POP JUMP JUMPDEST PUSH0 DUP2 SWAP1 POP PUSH1 0x20 DUP3 ADD SWAP1 POP SWAP2 SWAP1 POP JUMP JUMPDEST PUSH2 0x5028 DUP2 PUSH2 0x4ADC JUMP JUMPDEST DUP3 MSTORE POP POP JUMP JUMPDEST PUSH0 PUSH2 0x5039 DUP4 DUP4 PUSH2 0x501F JUMP JUMPDEST PUSH1 0x20 DUP4 ADD SWAP1 POP SWAP3 SWAP2 POP POP JUMP JUMPDEST PUSH0 PUSH1 0x20 DUP3 ADD SWAP1 POP SWAP2 SWAP1 POP JUMP JUMPDEST PUSH0 PUSH2 0x505B DUP3 PUSH2 0x4FF6 JUMP JUMPDEST PUSH2 0x5065 DUP2 DUP6 PUSH2 0x5000 JUMP JUMPDEST SWAP4 POP PUSH2 0x5070 DUP4 PUSH2 0x5010 JUMP JUMPDEST DUP1 PUSH0 JUMPDEST DUP4 DUP2 LT ISZERO PUSH2 0x50A0 JUMPI DUP2 MLOAD PUSH2 0x5087 DUP9 DUP3 PUSH2 0x502E JUMP JUMPDEST SWAP8 POP PUSH2 0x5092 DUP4 PUSH2 0x5045 JUMP JUMPDEST SWAP3 POP POP PUSH1 0x1 DUP2 ADD SWAP1 POP PUSH2 0x5073 JUMP JUMPDEST POP DUP6 SWAP4 POP POP POP POP SWAP3 SWAP2 POP POP JUMP JUMPDEST PUSH0 PUSH1 0x20 DUP3 ADD SWAP1 POP DUP2 DUP2 SUB PUSH0 DUP4 ADD MSTORE PUSH2 0x50C5 DUP2 DUP5 PUSH2 0x5051 JUMP JUMPDEST SWAP1 POP SWAP3 SWAP2 POP POP JUMP JUMPDEST PUSH0 DUP1 REVERT JUMPDEST PUSH0 DUP1 DUP4 PUSH1 0x1F DUP5 ADD SLT PUSH2 0x50E6 JUMPI PUSH2 0x50E5 PUSH2 0x4BFD JUMP JUMPDEST JUMPDEST DUP3 CALLDATALOAD SWAP1 POP PUSH8 0xFFFFFFFFFFFFFFFF DUP2 GT ISZERO PUSH2 0x5103 JUMPI PUSH2 0x5102 PUSH2 0x50CD JUMP JUMPDEST JUMPDEST PUSH1 0x20 DUP4 ADD SWAP2 POP DUP4 PUSH1 0x20 DUP3 MUL DUP4 ADD GT ISZERO PUSH2 0x511F JUMPI PUSH2 0x511E PUSH2 0x4CB4 JUMP JUMPDEST JUMPDEST SWAP3 POP SWAP3 SWAP1 POP JUMP JUMPDEST PUSH0 DUP1 DUP4 PUSH1 0x1F DUP5 ADD SLT PUSH2 0x513B JUMPI PUSH2 0x513A PUSH2 0x4BFD JUMP JUMPDEST JUMPDEST DUP3 CALLDATALOAD SWAP1 POP PUSH8 0xFFFFFFFFFFFFFFFF DUP2 GT ISZERO PUSH2 0x5158 JUMPI PUSH2 0x5157 PUSH2 0x50CD JUMP JUMPDEST JUMPDEST PUSH1 0x20 DUP4 ADD SWAP2 POP DUP4 PUSH1 0x20 DUP3 MUL DUP4 ADD GT ISZERO PUSH2 0x5174 JUMPI PUSH2 0x5173 PUSH2 0x4CB4 JUMP JUMPDEST JUMPDEST SWAP3 POP SWAP3 SWAP1 POP JUMP JUMPDEST PUSH0 DUP1 PUSH0 DUP1 PUSH0 PUSH1 0x60 DUP7 DUP9 SUB SLT ISZERO PUSH2 0x5194 JUMPI PUSH2 0x5193 PUSH2 0x49F7 JUMP JUMPDEST JUMPDEST PUSH0 PUSH2 0x51A1 DUP9 DUP3 DUP10 ADD PUSH2 0x4DED JUMP JUMPDEST SWAP6 POP POP PUSH1 0x20 DUP7 ADD CALLDATALOAD PUSH8 0xFFFFFFFFFFFFFFFF DUP2 GT ISZERO PUSH2 0x51C2 JUMPI PUSH2 0x51C1 PUSH2 0x49FB JUMP JUMPDEST JUMPDEST PUSH2 0x51CE DUP9 DUP3 DUP10 ADD PUSH2 0x50D1 JUMP JUMPDEST SWAP5 POP SWAP5 POP POP PUSH1 0x40 DUP7 ADD CALLDATALOAD PUSH8 0xFFFFFFFFFFFFFFFF DUP2 GT ISZERO PUSH2 0x51F1 JUMPI PUSH2 0x51F0 PUSH2 0x49FB JUMP JUMPDEST JUMPDEST PUSH2 0x51FD DUP9 DUP3 DUP10 ADD PUSH2 0x5126 JUMP JUMPDEST SWAP3 POP SWAP3 POP POP SWAP3 SWAP6 POP SWAP3 SWAP6 SWAP1 SWAP4 POP JUMP JUMPDEST PUSH0 DUP2 SWAP1 POP SWAP2 SWAP1 POP JUMP JUMPDEST PUSH0 PUSH2 0x522F PUSH2 0x522A PUSH2 0x5225 DUP5 PUSH2 0x4DA7 JUMP JUMPDEST PUSH2 0x520C JUMP JUMPDEST PUSH2 0x4DA7 JUMP JUMPDEST SWAP1 POP SWAP2 SWAP1 POP JUMP JUMPDEST PUSH0 PUSH2 0x5240 DUP3 PUSH2 0x5215 JUMP JUMPDEST SWAP1 POP SWAP2 SWAP1 POP JUMP JUMPDEST PUSH0 PUSH2 0x5251 DUP3 PUSH2 0x5236 JUMP JUMPDEST SWAP1 POP SWAP2 SWAP1 POP JUMP JUMPDEST PUSH2 0x5261 DUP2 PUSH2 0x5247 JUMP JUMPDEST DUP3 MSTORE POP POP JUMP JUMPDEST PUSH0 PUSH1 0x20 DUP3 ADD SWAP1 POP PUSH2 0x527A PUSH0 DUP4 ADD DUP5 PUSH2 0x5258 JUMP JUMPDEST SWAP3 SWAP2 POP POP JUMP JUMPDEST PUSH0 PUSH2 0x528A DUP3 PUSH2 0x5236 JUMP JUMPDEST SWAP1 POP SWAP2 SWAP1 POP JUMP JUMPDEST PUSH2 0x529A DUP2 PUSH2 0x5280 JUMP JUMPDEST DUP3 MSTORE POP POP JUMP JUMPDEST PUSH0 PUSH1 0x20 DUP3 ADD SWAP1 POP PUSH2 0x52B3 PUSH0 DUP4 ADD DUP5 PUSH2 0x5291 JUMP JUMPDEST SWAP3 SWAP2 POP POP JUMP JUMPDEST PUSH0 DUP2 MLOAD SWAP1 POP SWAP2 SWAP1 POP JUMP JUMPDEST PUSH0 DUP3 DUP3 MSTORE PUSH1 0x20 DUP3 ADD SWAP1 POP SWAP3 SWAP2 POP POP JUMP JUMPDEST PUSH0 DUP2 SWAP1 POP PUSH1 0x20 DUP3 ADD SWAP1 POP SWAP2 SWAP1 POP JUMP JUMPDEST PUSH1 0x60 DUP3 ADD PUSH0 DUP3 ADD MLOAD PUSH2 0x52F6 PUSH0 DUP6 ADD DUP3 PUSH2 0x4E55 JUMP JUMPDEST POP PUSH1 0x20 DUP3 ADD MLOAD PUSH2 0x5309 PUSH1 0x20 DUP6 ADD DUP3 PUSH2 0x4F0C JUMP JUMPDEST POP PUSH1 0x40 DUP3 ADD MLOAD PUSH2 0x531C PUSH1 0x40 DUP6 ADD DUP3 PUSH2 0x501F JUMP JUMPDEST POP POP POP POP JUMP JUMPDEST PUSH0 PUSH2 0x532D DUP4 DUP4 PUSH2 0x52E2 JUMP JUMPDEST PUSH1 0x60 DUP4 ADD SWAP1 POP SWAP3 SWAP2 POP POP JUMP JUMPDEST PUSH0 PUSH1 0x20 DUP3 ADD SWAP1 POP SWAP2 SWAP1 POP JUMP JUMPDEST PUSH0 PUSH2 0x534F DUP3 PUSH2 0x52B9 JUMP JUMPDEST PUSH2 0x5359 DUP2 DUP6 PUSH2 0x52C3 JUMP JUMPDEST SWAP4 POP PUSH2 0x5364 DUP4 PUSH2 0x52D3 JUMP JUMPDEST DUP1 PUSH0 JUMPDEST DUP4 DUP2 LT ISZERO PUSH2 0x5394 JUMPI DUP2 MLOAD PUSH2 0x537B DUP9 DUP3 PUSH2 0x5322 JUMP JUMPDEST SWAP8 POP PUSH2 0x5386 DUP4 PUSH2 0x5339 JUMP JUMPDEST SWAP3 POP POP PUSH1 0x1 DUP2 ADD SWAP1 POP PUSH2 0x5367 JUMP JUMPDEST POP DUP6 SWAP4 POP POP POP POP SWAP3 SWAP2 POP POP JUMP JUMPDEST PUSH0 PUSH1 0x20 DUP3 ADD SWAP1 POP DUP2 DUP2 SUB PUSH0 DUP4 ADD MSTORE PUSH2 0x53B9 DUP2 DUP5 PUSH2 0x5345 JUMP JUMPDEST SWAP1 POP SWAP3 SWAP2 POP POP JUMP JUMPDEST PUSH2 0x53CA DUP2 PUSH2 0x4ADC JUMP JUMPDEST DUP2 EQ PUSH2 0x53D4 JUMPI PUSH0 DUP1 REVERT JUMPDEST POP JUMP JUMPDEST PUSH0 DUP2 CALLDATALOAD SWAP1 POP PUSH2 0x53E5 DUP2 PUSH2 0x53C1 JUMP JUMPDEST SWAP3 SWAP2 POP POP JUMP JUMPDEST PUSH0 DUP1 PUSH0 PUSH1 0x60 DUP5 DUP7 SUB SLT ISZERO PUSH2 0x5402 JUMPI PUSH2 0x5401 PUSH2 0x49F7 JUMP JUMPDEST JUMPDEST PUSH0 PUSH2 0x540F DUP7 DUP3 DUP8 ADD PUSH2 0x4A1E JUMP JUMPDEST SWAP4 POP POP PUSH1 0x20 PUSH2 0x5420 DUP7 DUP3 DUP8 ADD PUSH2 0x4A51 JUMP JUMPDEST SWAP3 POP POP PUSH1 0x40 PUSH2 0x5431 DUP7 DUP3 DUP8 ADD PUSH2 0x53D7 JUMP JUMPDEST SWAP2 POP POP SWAP3 POP SWAP3 POP SWAP3 JUMP JUMPDEST PUSH2 0x5444 DUP2 PUSH2 0x4DC6 JUMP JUMPDEST DUP3 MSTORE POP POP JUMP JUMPDEST PUSH0 PUSH1 0x20 DUP3 ADD SWAP1 POP PUSH2 0x545D PUSH0 DUP4 ADD DUP5 PUSH2 0x543B JUMP JUMPDEST SWAP3 SWAP2 POP POP JUMP JUMPDEST PUSH0 PUSH1 0x20 DUP3 ADD SWAP1 POP PUSH2 0x5476 PUSH0 DUP4 ADD DUP5 PUSH2 0x4ACD JUMP JUMPDEST SWAP3 SWAP2 POP POP JUMP JUMPDEST PUSH2 0x5485 DUP2 PUSH2 0x49FF JUMP JUMPDEST DUP3 MSTORE POP POP JUMP JUMPDEST PUSH0 PUSH1 0x20 DUP3 ADD SWAP1 POP PUSH2 0x549E PUSH0 DUP4 ADD DUP5 PUSH2 0x547C JUMP JUMPDEST SWAP3 SWAP2 POP POP JUMP JUMPDEST PUSH0 PUSH3 0xFFFFFF DUP3 AND SWAP1 POP SWAP2 SWAP1 POP JUMP JUMPDEST PUSH2 0x54BB DUP2 PUSH2 0x54A4 JUMP JUMPDEST DUP3 MSTORE POP POP JUMP JUMPDEST PUSH0 PUSH1 0x20 DUP3 ADD SWAP1 POP PUSH2 0x54D4 PUSH0 DUP4 ADD DUP5 PUSH2 0x54B2 JUMP JUMPDEST SWAP3 SWAP2 POP POP JUMP JUMPDEST PUSH0 DUP1 DUP4 PUSH1 0x1F DUP5 ADD SLT PUSH2 0x54EF JUMPI PUSH2 0x54EE PUSH2 0x4BFD JUMP JUMPDEST JUMPDEST DUP3 CALLDATALOAD SWAP1 POP PUSH8 0xFFFFFFFFFFFFFFFF DUP2 GT ISZERO PUSH2 0x550C JUMPI PUSH2 0x550B PUSH2 0x50CD JUMP JUMPDEST JUMPDEST PUSH1 0x20 DUP4 ADD SWAP2 POP DUP4 PUSH1 0x20 DUP3 MUL DUP4 ADD GT ISZERO PUSH2 0x5528 JUMPI PUSH2 0x5527 PUSH2 0x4CB4 JUMP JUMPDEST JUMPDEST SWAP3 POP SWAP3 SWAP1 POP JUMP JUMPDEST PUSH0 DUP1 PUSH0 DUP1 PUSH1 0x60 DUP6 DUP8 SUB SLT ISZERO PUSH2 0x5547 JUMPI PUSH2 0x5546 PUSH2 0x49F7 JUMP JUMPDEST JUMPDEST PUSH0 PUSH2 0x5554 DUP8 DUP3 DUP9 ADD PUSH2 0x4A1E JUMP JUMPDEST SWAP5 POP POP PUSH1 0x20 PUSH2 0x5565 DUP8 DUP3 DUP9 ADD PUSH2 0x4A51 JUMP JUMPDEST SWAP4 POP POP PUSH1 0x40 DUP6 ADD CALLDATALOAD PUSH8 0xFFFFFFFFFFFFFFFF DUP2 GT ISZERO PUSH2 0x5586 JUMPI PUSH2 0x5585 PUSH2 0x49FB JUMP JUMPDEST JUMPDEST PUSH2 0x5592 DUP8 DUP3 DUP9 ADD PUSH2 0x54DA JUMP JUMPDEST SWAP3 POP SWAP3 POP POP SWAP3 SWAP6 SWAP2 SWAP5 POP SWAP3 POP JUMP JUMPDEST PUSH0 PUSH2 0xFFFF DUP3 AND SWAP1 POP SWAP2 SWAP1 POP JUMP JUMPDEST PUSH2 0x55B6 DUP2 PUSH2 0x55A0 JUMP JUMPDEST DUP2 EQ PUSH2 0x55C0 JUMPI PUSH0 DUP1 REVERT JUMPDEST POP JUMP JUMPDEST PUSH0 DUP2 CALLDATALOAD SWAP1 POP PUSH2 0x55D1 DUP2 PUSH2 0x55AD JUMP JUMPDEST SWAP3 SWAP2 POP POP JUMP JUMPDEST PUSH0 PUSH1 0x20 DUP3 DUP5 SUB SLT ISZERO PUSH2 0x55EC JUMPI PUSH2 0x55EB PUSH2 0x49F7 JUMP JUMPDEST JUMPDEST PUSH0 PUSH2 0x55F9 DUP5 DUP3 DUP6 ADD PUSH2 0x55C3 JUMP JUMPDEST SWAP2 POP POP SWAP3 SWAP2 POP POP JUMP JUMPDEST PUSH0 PUSH2 0x560C DUP3 PUSH2 0x5236 JUMP JUMPDEST SWAP1 POP SWAP2 SWAP1 POP JUMP JUMPDEST PUSH2 0x561C DUP2 PUSH2 0x5602 JUMP JUMPDEST DUP3 MSTORE POP POP JUMP JUMPDEST PUSH0 PUSH1 0x20 DUP3 ADD SWAP1 POP PUSH2 0x5635 PUSH0 DUP4 ADD DUP5 PUSH2 0x5613 JUMP JUMPDEST SWAP3 SWAP2 POP POP JUMP JUMPDEST PUSH0 PUSH8 0xFFFFFFFFFFFFFFFF DUP3 AND SWAP1 POP SWAP2 SWAP1 POP JUMP JUMPDEST PUSH2 0x5657 DUP2 PUSH2 0x563B JUMP JUMPDEST DUP2 EQ PUSH2 0x5661 JUMPI PUSH0 DUP1 REVERT JUMPDEST POP JUMP JUMPDEST PUSH0 DUP2 CALLDATALOAD SWAP1 POP PUSH2 0x5672 DUP2 PUSH2 0x564E JUMP JUMPDEST SWAP3 SWAP2 POP POP JUMP JUMPDEST PUSH0 PUSH1 0x20 DUP3 DUP5 SUB SLT ISZERO PUSH2 0x568D JUMPI PUSH2 0x568C PUSH2 0x49F7 JUMP JUMPDEST JUMPDEST PUSH0 PUSH2 0x569A DUP5 DUP3 DUP6 ADD PUSH2 0x5664 JUMP JUMPDEST SWAP2 POP POP SWAP3 SWAP2 POP POP JUMP JUMPDEST PUSH0 PUSH1 0xFF DUP3 AND SWAP1 POP SWAP2 SWAP1 POP JUMP JUMPDEST PUSH2 0x56B8 DUP2 PUSH2 0x56A3 JUMP JUMPDEST DUP2 EQ PUSH2 0x56C2 JUMPI PUSH0 DUP1 REVERT JUMPDEST POP JUMP JUMPDEST PUSH0 DUP2 CALLDATALOAD SWAP1 POP PUSH2 0x56D3 DUP2 PUSH2 0x56AF JUMP JUMPDEST SWAP3 SWAP2 POP POP JUMP JUMPDEST PUSH2 0x56E2 DUP2 PUSH2 0x4AA3 JUMP JUMPDEST DUP2 EQ PUSH2 0x56EC JUMPI PUSH0 DUP1 REVERT JUMPDEST POP JUMP JUMPDEST PUSH0 DUP2 CALLDATALOAD SWAP1 POP PUSH2 0x56FD DUP2 PUSH2 0x56D9 JUMP JUMPDEST SWAP3 SWAP2 POP POP JUMP JUMPDEST PUSH0 DUP1 PUSH0 DUP1 PUSH0 DUP1 PUSH1 0xC0 DUP8 DUP10 SUB SLT ISZERO PUSH2 0x571D JUMPI PUSH2 0x571C PUSH2 0x49F7 JUMP JUMPDEST JUMPDEST PUSH0 PUSH2 0x572A DUP10 DUP3 DUP11 ADD PUSH2 0x56C5 JUMP JUMPDEST SWAP7 POP POP PUSH1 0x20 PUSH2 0x573B DUP10 DUP3 DUP11 ADD PUSH2 0x56EF JUMP JUMPDEST SWAP6 POP POP PUSH1 0x40 PUSH2 0x574C DUP10 DUP3 DUP11 ADD PUSH2 0x56EF JUMP JUMPDEST SWAP5 POP POP PUSH1 0x60 PUSH2 0x575D DUP10 DUP3 DUP11 ADD PUSH2 0x56EF JUMP JUMPDEST SWAP4 POP POP PUSH1 0x80 PUSH2 0x576E DUP10 DUP3 DUP11 ADD PUSH2 0x56EF JUMP JUMPDEST SWAP3 POP POP PUSH1 0xA0 PUSH2 0x577F DUP10 DUP3 DUP11 ADD PUSH2 0x56EF JUMP JUMPDEST SWAP2 POP POP SWAP3 SWAP6 POP SWAP3 SWAP6 POP SWAP3 SWAP6 JUMP JUMPDEST PUSH0 PUSH1 0x20 DUP3 DUP5 SUB SLT ISZERO PUSH2 0x57A1 JUMPI PUSH2 0x57A0 PUSH2 0x49F7 JUMP JUMPDEST JUMPDEST PUSH0 PUSH2 0x57AE DUP5 DUP3 DUP6 ADD PUSH2 0x53D7 JUMP JUMPDEST SWAP2 POP POP SWAP3 SWAP2 POP POP JUMP JUMPDEST PUSH2 0x57C0 DUP2 PUSH2 0x54A4 JUMP JUMPDEST DUP2 EQ PUSH2 0x57CA JUMPI PUSH0 DUP1 REVERT JUMPDEST POP JUMP JUMPDEST PUSH0 DUP2 CALLDATALOAD SWAP1 POP PUSH2 0x57DB DUP2 PUSH2 0x57B7 JUMP JUMPDEST SWAP3 SWAP2 POP POP JUMP JUMPDEST PUSH0 PUSH1 0x20 DUP3 DUP5 SUB SLT ISZERO PUSH2 0x57F6 JUMPI PUSH2 0x57F5 PUSH2 0x49F7 JUMP JUMPDEST JUMPDEST PUSH0 PUSH2 0x5803 DUP5 DUP3 DUP6 ADD PUSH2 0x57CD JUMP JUMPDEST SWAP2 POP POP SWAP3 SWAP2 POP POP JUMP JUMPDEST PUSH2 0x5815 DUP2 PUSH2 0x55A0 JUMP JUMPDEST DUP3 MSTORE POP POP JUMP JUMPDEST PUSH0 PUSH1 0x20 DUP3 ADD SWAP1 POP PUSH2 0x582E PUSH0 DUP4 ADD DUP5 PUSH2 0x580C JUMP JUMPDEST SWAP3 SWAP2 POP POP JUMP JUMPDEST PUSH2 0x583D DUP2 PUSH2 0x563B JUMP JUMPDEST DUP3 MSTORE POP POP JUMP JUMPDEST PUSH0 PUSH1 0x20 DUP3 ADD SWAP1 POP PUSH2 0x5856 PUSH0 DUP4 ADD DUP5 PUSH2 0x5834 JUMP JUMPDEST SWAP3 SWAP2 POP POP JUMP JUMPDEST PUSH0 DUP1 PUSH1 0x40 DUP4 DUP6 SUB SLT ISZERO PUSH2 0x5872 JUMPI PUSH2 0x5871 PUSH2 0x49F7 JUMP JUMPDEST JUMPDEST PUSH0 PUSH2 0x587F DUP6 DUP3 DUP7 ADD PUSH2 0x4DED JUMP JUMPDEST SWAP3 POP POP PUSH1 0x20 PUSH2 0x5890 DUP6 DUP3 DUP7 ADD PUSH2 0x4A51 JUMP JUMPDEST SWAP2 POP POP SWAP3 POP SWAP3 SWAP1 POP JUMP JUMPDEST PUSH0 PUSH1 0x20 DUP3 ADD SWAP1 POP DUP2 DUP2 SUB PUSH0 DUP4 ADD MSTORE PUSH2 0x58B2 DUP2 DUP5 PUSH2 0x4E87 JUMP JUMPDEST SWAP1 POP SWAP3 SWAP2 POP POP JUMP JUMPDEST PUSH32 0x4E487B7100000000000000000000000000000000000000000000000000000000 PUSH0 MSTORE PUSH1 0x11 PUSH1 0x4 MSTORE PUSH1 0x24 PUSH0 REVERT JUMPDEST PUSH0 PUSH2 0x58F1 DUP3 PUSH2 0x4A32 JUMP JUMPDEST SWAP2 POP PUSH2 0x58FC DUP4 PUSH2 0x4A32 JUMP JUMPDEST SWAP3 POP DUP3 DUP3 SUB SWAP1 POP DUP2 DUP2 GT ISZERO PUSH2 0x5914 JUMPI PUSH2 0x5913 PUSH2 0x58BA JUMP JUMPDEST JUMPDEST SWAP3 SWAP2 POP POP JUMP JUMPDEST PUSH32 0x4E487B7100000000000000000000000000000000000000000000000000000000 PUSH0 MSTORE PUSH1 0x32 PUSH1 0x4 MSTORE PUSH1 0x24 PUSH0 REVERT JUMPDEST PUSH0 PUSH1 0x40 DUP3 ADD SWAP1 POP PUSH2 0x595A PUSH0 DUP4 ADD DUP6 PUSH2 0x543B JUMP JUMPDEST PUSH2 0x5967 PUSH1 0x20 DUP4 ADD DUP5 PUSH2 0x543B JUMP JUMPDEST SWAP4 SWAP3 POP POP POP JUMP JUMPDEST PUSH0 PUSH2 0x5978 DUP3 PUSH2 0x4A32 JUMP JUMPDEST SWAP2 POP PUSH2 0x5983 DUP4 PUSH2 0x4A32 JUMP JUMPDEST SWAP3 POP DUP3 DUP3 ADD SWAP1 POP DUP1 DUP3 GT ISZERO PUSH2 0x599B JUMPI PUSH2 0x599A PUSH2 0x58BA JUMP JUMPDEST JUMPDEST SWAP3 SWAP2 POP POP JUMP JUMPDEST PUSH0 PUSH2 0x59AB DUP3 PUSH2 0x4A32 JUMP JUMPDEST SWAP2 POP PUSH32 0xFFFFFFFFFFFFFFFFFFFFFFFFFFFFFFFFFFFFFFFFFFFFFFFFFFFFFFFFFFFFFFFF DUP3 SUB PUSH2 0x59DD JUMPI PUSH2 0x59DC PUSH2 0x58BA JUMP JUMPDEST JUMPDEST PUSH1 0x1 DUP3 ADD SWAP1 POP SWAP2 SWAP1 POP JUMP JUMPDEST PUSH0 PUSH1 0x40 DUP3 ADD SWAP1 POP PUSH2 0x59FB PUSH0 DUP4 ADD DUP6 PUSH2 0x547C JUMP JUMPDEST PUSH2 0x5A08 PUSH1 0x20 DUP4 ADD DUP5 PUSH2 0x4ACD JUMP JUMPDEST SWAP4 SWAP3 POP POP POP JUMP JUMPDEST PUSH0 DUP2 SWAP1 POP SWAP2 SWAP1 POP JUMP JUMPDEST PUSH0 PUSH2 0x5A32 PUSH2 0x5A2D PUSH2 0x5A28 DUP5 PUSH2 0x5A0F JUMP JUMPDEST PUSH2 0x520C JUMP JUMPDEST PUSH2 0x4ADC JUMP JUMPDEST SWAP1 POP SWAP2 SWAP1 POP JUMP JUMPDEST PUSH2 0x5A42 DUP2 PUSH2 0x5A18 JUMP JUMPDEST DUP3 MSTORE POP POP JUMP JUMPDEST PUSH0 PUSH1 0xA0 DUP3 ADD SWAP1 POP PUSH2 0x5A5B PUSH0 DUP4 ADD DUP9 PUSH2 0x547C JUMP JUMPDEST PUSH2 0x5A68 PUSH1 0x20 DUP4 ADD DUP8 PUSH2 0x5834 JUMP JUMPDEST PUSH2 0x5A75 PUSH1 0x40 DUP4 ADD DUP7 PUSH2 0x580C JUMP JUMPDEST PUSH2 0x5A82 PUSH1 0x60 DUP4 ADD DUP6 PUSH2 0x4AEB JUMP JUMPDEST PUSH2 0x5A8F PUSH1 0x80 DUP4 ADD DUP5 PUSH2 0x5A39 JUMP JUMPDEST SWAP7 SWAP6 POP POP POP POP POP POP JUMP JUMPDEST PUSH0 DUP2 MLOAD SWAP1 POP PUSH2 0x5AA7 DUP2 PUSH2 0x4A3B JUMP JUMPDEST SWAP3 SWAP2 POP POP JUMP JUMPDEST PUSH0 PUSH1 0x20 DUP3 DUP5 SUB SLT ISZERO PUSH2 0x5AC2 JUMPI PUSH2 0x5AC1 PUSH2 0x49F7 JUMP JUMPDEST JUMPDEST PUSH0 PUSH2 0x5ACF DUP5 DUP3 DUP6 ADD PUSH2 0x5A99 JUMP JUMPDEST SWAP2 POP POP SWAP3 SWAP2 POP POP JUMP JUMPDEST PUSH0 PUSH2 0x5AE2 DUP3 PUSH2 0x4AA3 JUMP JUMPDEST SWAP2 POP PUSH2 0x5AED DUP4 PUSH2 0x4AA3 JUMP JUMPDEST SWAP3 POP DUP3 DUP3 ADD SWAP1 POP PUSH16 0xFFFFFFFFFFFFFFFFFFFFFFFFFFFFFFFF DUP2 GT ISZERO PUSH2 0x5B15 JUMPI PUSH2 0x5B14 PUSH2 0x58BA JUMP JUMPDEST JUMPDEST SWAP3 SWAP2 POP POP JUMP JUMPDEST PUSH0 PUSH1 0x80 DUP3 ADD SWAP1 POP PUSH2 0x5B2E PUSH0 DUP4 ADD DUP8 PUSH2 0x547C JUMP JUMPDEST PUSH2 0x5B3B PUSH1 0x20 DUP4 ADD DUP7 PUSH2 0x4ACD JUMP JUMPDEST PUSH2 0x5B48 PUSH1 0x40 DUP4 ADD DUP6 PUSH2 0x4ABE JUMP JUMPDEST PUSH2 0x5B55 PUSH1 0x60 DUP4 ADD DUP5 PUSH2 0x4ABE JUMP JUMPDEST SWAP6 SWAP5 POP POP POP POP POP JUMP JUMPDEST PUSH0 PUSH2 0x5B68 DUP3 PUSH2 0x4AA3 JUMP JUMPDEST SWAP2 POP PUSH2 0x5B73 DUP4 PUSH2 0x4AA3 JUMP JUMPDEST SWAP3 POP DUP3 DUP3 MUL PUSH2 0x5B81 DUP2 PUSH2 0x4AA3 JUMP JUMPDEST SWAP2 POP DUP1 DUP3 EQ PUSH2 0x5B93 JUMPI PUSH2 0x5B92 PUSH2 0x58BA JUMP JUMPDEST JUMPDEST POP SWAP3 SWAP2 POP POP JUMP JUMPDEST PUSH0 DUP2 MLOAD SWAP1 POP PUSH2 0x5BA8 DUP2 PUSH2 0x4DD7 JUMP JUMPDEST SWAP3 SWAP2 POP POP JUMP JUMPDEST PUSH0 PUSH1 0x20 DUP3 DUP5 SUB SLT ISZERO PUSH2 0x5BC3 JUMPI PUSH2 0x5BC2 PUSH2 0x49F7 JUMP JUMPDEST JUMPDEST PUSH0 PUSH2 0x5BD0 DUP5 DUP3 DUP6 ADD PUSH2 0x5B9A JUMP JUMPDEST SWAP2 POP POP SWAP3 SWAP2 POP POP JUMP JUMPDEST PUSH32 0x4E487B7100000000000000000000000000000000000000000000000000000000 PUSH0 MSTORE PUSH1 0x12 PUSH1 0x4 MSTORE PUSH1 0x24 PUSH0 REVERT JUMPDEST PUSH0 PUSH2 0x5C10 DUP3 PUSH2 0x4AA3 JUMP JUMPDEST SWAP2 POP PUSH2 0x5C1B DUP4 PUSH2 0x4AA3 JUMP JUMPDEST SWAP3 POP DUP3 PUSH2 0x5C2B JUMPI PUSH2 0x5C2A PUSH2 0x5BD9 JUMP JUMPDEST JUMPDEST DUP3 DUP3 DIV SWAP1 POP SWAP3 SWAP2 POP POP JUMP JUMPDEST PUSH0 PUSH2 0x5C40 DUP3 PUSH2 0x4AA3 JUMP JUMPDEST SWAP2 POP PUSH2 0x5C4B DUP4 PUSH2 0x4AA3 JUMP JUMPDEST SWAP3 POP DUP3 DUP3 SUB SWAP1 POP PUSH16 0xFFFFFFFFFFFFFFFFFFFFFFFFFFFFFFFF DUP2 GT ISZERO PUSH2 0x5C73 JUMPI PUSH2 0x5C72 PUSH2 0x58BA JUMP JUMPDEST JUMPDEST SWAP3 SWAP2 POP POP JUMP JUMPDEST PUSH0 DUP2 SWAP1 POP SWAP2 SWAP1 POP JUMP JUMPDEST PUSH0 PUSH2 0x5C90 PUSH1 0x20 DUP5 ADD DUP5 PUSH2 0x53D7 JUMP JUMPDEST SWAP1 POP SWAP3 SWAP2 POP POP JUMP JUMPDEST PUSH0 PUSH1 0x20 DUP3 ADD SWAP1 POP SWAP2 SWAP1 POP JUMP JUMPDEST PUSH0 PUSH2 0x5CAF DUP4 DUP6 PUSH2 0x5000 JUMP JUMPDEST SWAP4 POP PUSH2 0x5CBA DUP3 PUSH2 0x5C79 JUMP JUMPDEST DUP1 PUSH0 JUMPDEST DUP6 DUP2 LT ISZERO PUSH2 0x5CF2 JUMPI PUSH2 0x5CCF DUP3 DUP5 PUSH2 0x5C82 JUMP JUMPDEST PUSH2 0x5CD9 DUP9 DUP3 PUSH2 0x502E JUMP JUMPDEST SWAP8 POP PUSH2 0x5CE4 DUP4 PUSH2 0x5C98 JUMP JUMPDEST SWAP3 POP POP PUSH1 0x1 DUP2 ADD SWAP1 POP PUSH2 0x5CBD JUMP JUMPDEST POP DUP6 SWAP3 POP POP POP SWAP4 SWAP3 POP POP POP JUMP JUMPDEST PUSH0 PUSH1 0x60 DUP3 ADD SWAP1 POP PUSH2 0x5D12 PUSH0 DUP4 ADD DUP8 PUSH2 0x547C JUMP JUMPDEST PUSH2 0x5D1F PUSH1 0x20 DUP4 ADD DUP7 PUSH2 0x4ACD JUMP JUMPDEST DUP2 DUP2 SUB PUSH1 0x40 DUP4 ADD MSTORE PUSH2 0x5D32 DUP2 DUP5 DUP7 PUSH2 0x5CA4 JUMP JUMPDEST SWAP1 POP SWAP6 SWAP5 POP POP POP POP POP JUMP JUMPDEST PUSH0 DUP2 PUSH1 0x1 SHR SWAP1 POP SWAP2 SWAP1 POP JUMP JUMPDEST PUSH0 DUP1 DUP3 SWAP2 POP DUP4 SWAP1 POP JUMPDEST PUSH1 0x1 DUP6 GT ISZERO PUSH2 0x5D92 JUMPI DUP1 DUP7 DIV DUP2 GT ISZERO PUSH2 0x5D6E JUMPI PUSH2 0x5D6D PUSH2 0x58BA JUMP JUMPDEST JUMPDEST PUSH1 0x1 DUP6 AND ISZERO PUSH2 0x5D7D JUMPI DUP1 DUP3 MUL SWAP2 POP JUMPDEST DUP1 DUP2 MUL SWAP1 POP PUSH2 0x5D8B DUP6 PUSH2 0x5D3D JUMP JUMPDEST SWAP5 POP PUSH2 0x5D52 JUMP JUMPDEST SWAP5 POP SWAP5 SWAP3 POP POP POP JUMP JUMPDEST PUSH0 DUP3 PUSH2 0x5DAA JUMPI PUSH1 0x1 SWAP1 POP PUSH2 0x5E65 JUMP JUMPDEST DUP2 PUSH2 0x5DB7 JUMPI PUSH0 SWAP1 POP PUSH2 0x5E65 JUMP JUMPDEST DUP2 PUSH1 0x1 DUP2 EQ PUSH2 0x5DCD JUMPI PUSH1 0x2 DUP2 EQ PUSH2 0x5DD7 JUMPI PUSH2 0x5E06 JUMP JUMPDEST PUSH1 0x1 SWAP2 POP POP PUSH2 0x5E65 JUMP JUMPDEST PUSH1 0xFF DUP5 GT ISZERO PUSH2 0x5DE9 JUMPI PUSH2 0x5DE8 PUSH2 0x58BA JUMP JUMPDEST JUMPDEST DUP4 PUSH1 0x2 EXP SWAP2 POP DUP5 DUP3 GT ISZERO PUSH2 0x5E00 JUMPI PUSH2 0x5DFF PUSH2 0x58BA JUMP JUMPDEST JUMPDEST POP PUSH2 0x5E65 JUMP JUMPDEST POP PUSH1 0x20 DUP4 LT PUSH2 0x133 DUP4 LT AND PUSH1 0x4E DUP5 LT PUSH1 0xB DUP5 LT AND OR ISZERO PUSH2 0x5E3B JUMPI DUP3 DUP3 EXP SWAP1 POP DUP4 DUP2 GT ISZERO PUSH2 0x5E36 JUMPI PUSH2 0x5E35 PUSH2 0x58BA JUMP JUMPDEST JUMPDEST PUSH2 0x5E65 JUMP JUMPDEST PUSH2 0x5E48 DUP5 DUP5 DUP5 PUSH1 0x1 PUSH2 0x5D49 JUMP JUMPDEST SWAP3 POP SWAP1 POP DUP2 DUP5 DIV DUP2 GT ISZERO PUSH2 0x5E5F JUMPI PUSH2 0x5E5E PUSH2 0x58BA JUMP JUMPDEST JUMPDEST DUP2 DUP2 MUL SWAP1 POP JUMPDEST SWAP4 SWAP3 POP POP POP JUMP JUMPDEST PUSH0 PUSH2 0x5E76 DUP3 PUSH2 0x4A32 JUMP JUMPDEST SWAP2 POP PUSH2 0x5E81 DUP4 PUSH2 0x56A3 JUMP JUMPDEST SWAP3 POP PUSH2 0x5EAE PUSH32 0xFFFFFFFFFFFFFFFFFFFFFFFFFFFFFFFFFFFFFFFFFFFFFFFFFFFFFFFFFFFFFFFF DUP5 DUP5 PUSH2 0x5D9B JUMP JUMPDEST SWAP1 POP SWAP3 SWAP2 POP POP JUMP JUMPDEST PUSH0 PUSH1 0xA0 DUP3 ADD SWAP1 POP PUSH2 0x5EC9 PUSH0 DUP4 ADD DUP9 PUSH2 0x4ABE JUMP JUMPDEST PUSH2 0x5ED6 PUSH1 0x20 DUP4 ADD DUP8 PUSH2 0x4ABE JUMP JUMPDEST PUSH2 0x5EE3 PUSH1 0x40 DUP4 ADD DUP7 PUSH2 0x4ABE JUMP JUMPDEST PUSH2 0x5EF0 PUSH1 0x60 DUP4 ADD DUP6 PUSH2 0x4ABE JUMP JUMPDEST PUSH2 0x5EFD PUSH1 0x80 DUP4 ADD DUP5 PUSH2 0x4ABE JUMP JUMPDEST SWAP7 SWAP6 POP POP POP POP POP POP JUMP JUMPDEST PUSH0 PUSH1 0xC0 DUP3 ADD SWAP1 POP PUSH2 0x5F1A PUSH0 DUP4 ADD DUP10 PUSH2 0x4ABE JUMP JUMPDEST PUSH2 0x5F27 PUSH1 0x20 DUP4 ADD DUP9 PUSH2 0x4ABE JUMP JUMPDEST PUSH2 0x5F34 PUSH1 0x40 DUP4 ADD DUP8 PUSH2 0x4ABE JUMP JUMPDEST PUSH2 0x5F41 PUSH1 0x60 DUP4 ADD DUP7 PUSH2 0x4ABE JUMP JUMPDEST PUSH2 0x5F4E PUSH1 0x80 DUP4 ADD DUP6 PUSH2 0x4ABE JUMP JUMPDEST PUSH2 0x5F5B PUSH1 0xA0 DUP4 ADD DUP5 PUSH2 0x547C JUMP JUMPDEST SWAP8 SWAP7 POP POP POP POP POP POP POP JUMP JUMPDEST PUSH0 PUSH2 0x5F80 PUSH2 0x5F7B PUSH2 0x5F76 DUP5 PUSH2 0x5A0F JUMP JUMPDEST PUSH2 0x520C JUMP JUMPDEST PUSH2 0x4A32 JUMP JUMPDEST SWAP1 POP SWAP2 SWAP1 POP JUMP JUMPDEST PUSH2 0x5F90 DUP2 PUSH2 0x5F66 JUMP JUMPDEST DUP3 MSTORE POP POP JUMP JUMPDEST PUSH0 PUSH1 0x80 DUP3 ADD SWAP1 POP PUSH2 0x5FA9 PUSH0 DUP4 ADD DUP8 PUSH2 0x547C JUMP JUMPDEST PUSH2 0x5FB6 PUSH1 0x20 DUP4 ADD DUP7 PUSH2 0x5F87 JUMP JUMPDEST PUSH2 0x5FC3 PUSH1 0x40 DUP4 ADD DUP6 PUSH2 0x4ABE JUMP JUMPDEST PUSH2 0x5FD0 PUSH1 0x60 DUP4 ADD DUP5 PUSH2 0x4ABE JUMP JUMPDEST SWAP6 SWAP5 POP POP POP POP POP JUMP JUMPDEST PUSH0 PUSH1 0x40 DUP3 ADD SWAP1 POP PUSH2 0x5FEC PUSH0 DUP4 ADD DUP6 PUSH2 0x54B2 JUMP JUMPDEST PUSH2 0x5FF9 PUSH1 0x20 DUP4 ADD DUP5 PUSH2 0x54B2 JUMP JUMPDEST SWAP4 SWAP3 POP POP POP JUMP JUMPDEST PUSH0 PUSH2 0x600A DUP3 PUSH2 0x4A32 JUMP JUMPDEST SWAP2 POP PUSH2 0x6015 DUP4 PUSH2 0x4A32 JUMP JUMPDEST SWAP3 POP DUP3 PUSH2 0x6025 JUMPI PUSH2 0x6024 PUSH2 0x5BD9 JUMP JUMPDEST JUMPDEST DUP3 DUP3 MOD SWAP1 POP SWAP3 SWAP2 POP POP JUMP JUMPDEST PUSH0 PUSH1 0x40 DUP3 ADD SWAP1 POP PUSH2 0x6043 PUSH0 DUP4 ADD DUP6 PUSH2 0x543B JUMP JUMPDEST PUSH2 0x6050 PUSH1 0x20 DUP4 ADD DUP5 PUSH2 0x4ACD JUMP JUMPDEST SWAP4 SWAP3 POP POP POP JUMP JUMPDEST PUSH0 PUSH1 0x60 DUP3 ADD SWAP1 POP PUSH2 0x606A PUSH0 DUP4 ADD DUP7 PUSH2 0x543B JUMP JUMPDEST PUSH2 0x6077 PUSH1 0x20 DUP4 ADD DUP6 PUSH2 0x543B JUMP JUMPDEST PUSH2 0x6084 PUSH1 0x40 DUP4 ADD DUP5 PUSH2 0x4ACD JUMP JUMPDEST SWAP5 SWAP4 POP POP POP POP JUMP JUMPDEST PUSH2 0x6095 DUP2 PUSH2 0x4AFA JUMP JUMPDEST DUP2 EQ PUSH2 0x609F JUMPI PUSH0 DUP1 REVERT JUMPDEST POP JUMP JUMPDEST PUSH0 DUP2 MLOAD SWAP1 POP PUSH2 0x60B0 DUP2 PUSH2 0x608C JUMP JUMPDEST SWAP3 SWAP2 POP POP JUMP JUMPDEST PUSH0 PUSH1 0x20 DUP3 DUP5 SUB SLT ISZERO PUSH2 0x60CB JUMPI PUSH2 0x60CA PUSH2 0x49F7 JUMP JUMPDEST JUMPDEST PUSH0 PUSH2 0x60D8 DUP5 DUP3 DUP6 ADD PUSH2 0x60A2 JUMP JUMPDEST SWAP2 POP POP SWAP3 SWAP2 POP POP JUMP JUMPDEST PUSH0 DUP2 MLOAD SWAP1 POP SWAP2 SWAP1 POP JUMP JUMPDEST PUSH0 DUP2 SWAP1 POP SWAP3 SWAP2 POP POP JUMP JUMPDEST DUP3 DUP2 DUP4 MCOPY PUSH0 DUP4 DUP4 ADD MSTORE POP POP POP JUMP JUMPDEST PUSH0 PUSH2 0x610D DUP3 PUSH2 0x60E1 JUMP JUMPDEST PUSH2 0x6117 DUP2 DUP6 PUSH2 0x60EB JUMP JUMPDEST SWAP4 POP PUSH2 0x6127 DUP2 DUP6 PUSH1 0x20 DUP7 ADD PUSH2 0x60F5 JUMP JUMPDEST DUP1 DUP5 ADD SWAP2 POP POP SWAP3 SWAP2 POP POP JUMP JUMPDEST PUSH0 PUSH2 0x613E DUP3 DUP5 PUSH2 0x6103 JUMP JUMPDEST SWAP2 POP DUP2 SWAP1 POP SWAP3 SWAP2 POP POP JUMP INVALID LOG2 PUSH5 0x6970667358 0x22 SLT KECCAK256 0xE7 0xCC DUP2 0xB0 SGT DELEGATECALL PUSH32 0xC82EDBC62E1C163F0AD23EC565FCFC0A87BF9E977B940BE7C664736F6C634300 ADDMOD NOT STOP CALLER "
		},
		"gasEstimates": {
			"creation": {
				"codeDepositCost": "4991800",
				"executionCost": "infinite",
				"totalCost": "infinite"
			},
			"external": {
				"HUNDRED_PERCENT()": "420",
				"MAX_TICKETS_PER_BUY()": "398",
				"buyTickets(bytes32,uint256,uint32[])": "infinite",
				"callbackGasLimit()": "2563",
				"claimPrizes(address,bytes32[],uint256[])": "infinite",
				"collectReferralReward(address)": "infinite",
				"createPool(uint8,uint128,uint128,uint128,uint128,uint128)": "infinite",
				"drawEndedRoundAndOpenNewRound(bytes32)": "infinite",
				"getAllPoolIds()": "infinite",
				"getParticipationRecords(address)": "infinite",
				"getPoolInfo(bytes32)": "infinite",
				"getRoundInfo(bytes32,uint256)": "infinite",
				"getSoldTickets(bytes32,uint256)": "infinite",
				"getTicketOwner(bytes32,uint256,uint32)": "3411",
				"getUnclaimedPrizes(address)": "infinite",
				"getWonParticipationRecords(address)": "infinite",
				"keyHash()": "2492",
				"minRequestConfirmations()": "2606",
				"owner()": "2560",
				"rawFulfillRandomWords(uint256,uint256[])": "infinite",
				"referralFee()": "2562",
				"referralRewardAccumulated(address)": "2870",
				"referralRewardAccured(address)": "2847",
				"renounceOwnership()": "infinite",
				"subId()": "2532",
				"transferOwnership(address)": "infinite",
				"updateCallbackGasLimit(uint32)": "infinite",
				"updateKeyHash(bytes32)": "infinite",
				"updateMinRequestConfirmations(uint16)": "infinite",
				"updateReferralFee(uint24)": "infinite",
				"updateSubId(uint64)": "infinite",
				"usdt()": "infinite",
				"userRegistar()": "infinite",
				"vrfCoordinator()": "infinite",
				"withdrawUsdt(address,uint256)": "infinite"
			},
			"internal": {
				"fulfillRandomWords(uint256,uint256[] memory)": "infinite"
			}
		},
		"methodIdentifiers": {
			"HUNDRED_PERCENT()": "6ed93dd0",
			"MAX_TICKETS_PER_BUY()": "cf248b70",
			"buyTickets(bytes32,uint256,uint32[])": "89ba4116",
			"callbackGasLimit()": "24f74697",
			"claimPrizes(address,bytes32[],uint256[])": "2bbb1444",
			"collectReferralReward(address)": "e53a7345",
			"createPool(uint8,uint128,uint128,uint128,uint128,uint128)": "acca07b1",
			"drawEndedRoundAndOpenNewRound(bytes32)": "2e5a74b9",
			"getAllPoolIds()": "f19c3d5b",
			"getParticipationRecords(address)": "3a864632",
			"getPoolInfo(bytes32)": "09f2c019",
			"getRoundInfo(bytes32,uint256)": "0358abfc",
			"getSoldTickets(bytes32,uint256)": "25860103",
			"getTicketOwner(bytes32,uint256,uint32)": "3b0e443c",
			"getUnclaimedPrizes(address)": "21f6a578",
			"getWonParticipationRecords(address)": "6f8af123",
			"keyHash()": "61728f39",
			"minRequestConfirmations()": "d13fe011",
			"owner()": "8da5cb5b",
			"rawFulfillRandomWords(uint256,uint256[])": "1fe543e3",
			"referralFee()": "84ae2bc6",
			"referralRewardAccumulated(address)": "86d32015",
			"referralRewardAccured(address)": "4930cc99",
			"renounceOwnership()": "715018a6",
			"subId()": "eb1d28bb",
			"transferOwnership(address)": "f2fde38b",
			"updateCallbackGasLimit(uint32)": "b0e8d086",
			"updateKeyHash(bytes32)": "e7fa67e5",
			"updateMinRequestConfirmations(uint16)": "8cf7d45d",
			"updateReferralFee(uint24)": "b2a89b08",
			"updateSubId(uint64)": "a84db894",
			"usdt()": "2f48ab7d",
			"userRegistar()": "2facd139",
			"vrfCoordinator()": "a3e56fa8",
			"withdrawUsdt(address,uint256)": "ed092451"
		}
	},
	"abi": [
		{
			"inputs": [
				{
					"internalType": "uint24",
					"name": "referralFee_",
					"type": "uint24"
				},
				{
					"internalType": "address",
					"name": "usdt_",
					"type": "address"
				},
				{
					"internalType": "address",
					"name": "userRegistar_",
					"type": "address"
				},
				{
					"internalType": "address",
					"name": "vrfCoordinator_",
					"type": "address"
				},
				{
					"internalType": "bytes32",
					"name": "keyHash_",
					"type": "bytes32"
				},
				{
					"internalType": "uint64",
					"name": "subId_",
					"type": "uint64"
				}
			],
			"stateMutability": "nonpayable",
			"type": "constructor"
		},
		{
			"inputs": [
				{
					"internalType": "address",
					"name": "target",
					"type": "address"
				}
			],
			"name": "AddressEmptyCode",
			"type": "error"
		},
		{
			"inputs": [
				{
					"internalType": "address",
					"name": "account",
					"type": "address"
				}
			],
			"name": "AddressInsufficientBalance",
			"type": "error"
		},
		{
			"inputs": [],
			"name": "AlreadyClaimed",
			"type": "error"
		},
		{
			"inputs": [],
			"name": "AlreadyDrawn",
			"type": "error"
		},
		{
			"inputs": [],
			"name": "DifferentArrayLength",
			"type": "error"
		},
		{
			"inputs": [],
			"name": "FailedInnerCall",
			"type": "error"
		},
		{
			"inputs": [],
			"name": "InvalidStartTime",
			"type": "error"
		},
		{
			"inputs": [
				{
					"internalType": "uint32",
					"name": "ticket",
					"type": "uint32"
				}
			],
			"name": "InvalidTicket",
			"type": "error"
		},
		{
			"inputs": [],
			"name": "NoTicketSpecified",
			"type": "error"
		},
		{
			"inputs": [],
			"name": "NotEnded",
			"type": "error"
		},
		{
			"inputs": [],
			"name": "NotEnoughTicketsLeft",
			"type": "error"
		},
		{
			"inputs": [],
			"name": "NotRegistered",
			"type": "error"
		},
		{
			"inputs": [],
			"name": "NotWinner",
			"type": "error"
		},
		{
			"inputs": [
				{
					"internalType": "address",
					"name": "have",
					"type": "address"
				},
				{
					"internalType": "address",
					"name": "want",
					"type": "address"
				}
			],
			"name": "OnlyCoordinatorCanFulfill",
			"type": "error"
		},
		{
			"inputs": [],
			"name": "OverHundredPercent",
			"type": "error"
		},
		{
			"inputs": [
				{
					"internalType": "address",
					"name": "owner",
					"type": "address"
				}
			],
			"name": "OwnableInvalidOwner",
			"type": "error"
		},
		{
			"inputs": [
				{
					"internalType": "address",
					"name": "account",
					"type": "address"
				}
			],
			"name": "OwnableUnauthorizedAccount",
			"type": "error"
		},
		{
			"inputs": [],
			"name": "PoolExists",
			"type": "error"
		},
		{
			"inputs": [],
			"name": "PoolNotFound",
			"type": "error"
		},
		{
			"inputs": [],
			"name": "RoundEnded",
			"type": "error"
		},
		{
			"inputs": [],
			"name": "RoundNotStart",
			"type": "error"
		},
		{
			"inputs": [
				{
					"internalType": "address",
					"name": "token",
					"type": "address"
				}
			],
			"name": "SafeERC20FailedOperation",
			"type": "error"
		},
		{
			"inputs": [
				{
					"internalType": "uint32",
					"name": "ticket",
					"type": "uint32"
				}
			],
			"name": "TicketSold",
			"type": "error"
		},
		{
			"inputs": [],
			"name": "TooManyTickets",
			"type": "error"
		},
		{
			"inputs": [],
			"name": "ZeroAddress",
			"type": "error"
		},
		{
			"inputs": [],
			"name": "ZeroPrize",
			"type": "error"
		},
		{
			"inputs": [],
			"name": "ZeroRoundDuration",
			"type": "error"
		},
		{
			"inputs": [],
			"name": "ZeroTicketsExp",
			"type": "error"
		},
		{
			"inputs": [],
			"name": "ZeroWinNumber",
			"type": "error"
		},
		{
			"anonymous": false,
			"inputs": [
				{
					"indexed": false,
					"internalType": "bytes32",
					"name": "poolId",
					"type": "bytes32"
				},
				{
					"indexed": false,
					"internalType": "uint256",
					"name": "roundId",
					"type": "uint256"
				},
				{
					"indexed": false,
					"internalType": "uint128",
					"name": "startTime",
					"type": "uint128"
				},
				{
					"indexed": false,
					"internalType": "uint128",
					"name": "endTime",
					"type": "uint128"
				}
			],
			"name": "NewRoundOpened",
			"type": "event"
		},
		{
			"anonymous": false,
			"inputs": [
				{
					"indexed": true,
					"internalType": "address",
					"name": "previousOwner",
					"type": "address"
				},
				{
					"indexed": true,
					"internalType": "address",
					"name": "newOwner",
					"type": "address"
				}
			],
			"name": "OwnershipTransferred",
			"type": "event"
		},
		{
			"anonymous": false,
			"inputs": [
				{
					"indexed": false,
					"internalType": "uint128",
					"name": "prize",
					"type": "uint128"
				},
				{
					"indexed": false,
					"internalType": "uint128",
					"name": "totalTickets",
					"type": "uint128"
				},
				{
					"indexed": false,
					"internalType": "uint128",
					"name": "pricePerTicket",
					"type": "uint128"
				},
				{
					"indexed": false,
					"internalType": "uint128",
					"name": "roundDuration",
					"type": "uint128"
				},
				{
					"indexed": false,
					"internalType": "uint128",
					"name": "roundGapTime",
					"type": "uint128"
				},
				{
					"indexed": false,
					"internalType": "bytes32",
					"name": "poolId",
					"type": "bytes32"
				}
			],
			"name": "PoolCreated",
			"type": "event"
		},
		{
			"anonymous": false,
			"inputs": [
				{
					"indexed": false,
					"internalType": "bytes32",
					"name": "poolId",
					"type": "bytes32"
				},
				{
					"indexed": false,
					"internalType": "uint256",
					"name": "roundId",
					"type": "uint256"
				}
			],
			"name": "PrizeClaimed",
			"type": "event"
		},
		{
			"anonymous": false,
			"inputs": [
				{
					"indexed": false,
					"internalType": "uint24",
					"name": "oldReferralFee",
					"type": "uint24"
				},
				{
					"indexed": false,
					"internalType": "uint24",
					"name": "newReferralFee",
					"type": "uint24"
				}
			],
			"name": "ReferralFeeUpdated",
			"type": "event"
		},
		{
			"anonymous": false,
			"inputs": [
				{
					"indexed": true,
					"internalType": "address",
					"name": "referrer",
					"type": "address"
				},
				{
					"indexed": false,
					"internalType": "uint256",
					"name": "amount",
					"type": "uint256"
				}
			],
			"name": "ReferralRewardCollected",
			"type": "event"
		},
		{
			"anonymous": false,
			"inputs": [
				{
					"indexed": true,
					"internalType": "address",
					"name": "owner",
					"type": "address"
				},
				{
					"indexed": false,
					"internalType": "bytes32",
					"name": "poolId",
					"type": "bytes32"
				},
				{
					"indexed": false,
					"internalType": "uint256",
					"name": "roundId",
					"type": "uint256"
				},
				{
					"indexed": false,
					"internalType": "uint32[]",
					"name": "tickets",
					"type": "uint32[]"
				}
			],
			"name": "TicketsSold",
			"type": "event"
		},
		{
			"anonymous": false,
			"inputs": [
				{
					"indexed": true,
					"internalType": "address",
					"name": "oldTreasury",
					"type": "address"
				},
				{
					"indexed": true,
					"internalType": "address",
					"name": "newTreasury",
					"type": "address"
				}
			],
			"name": "TreasuryUpdated",
			"type": "event"
		},
		{
			"inputs": [],
			"name": "HUNDRED_PERCENT",
			"outputs": [
				{
					"internalType": "uint24",
					"name": "",
					"type": "uint24"
				}
			],
			"stateMutability": "view",
			"type": "function"
		},
		{
			"inputs": [],
			"name": "MAX_TICKETS_PER_BUY",
			"outputs": [
				{
					"internalType": "uint24",
					"name": "",
					"type": "uint24"
				}
			],
			"stateMutability": "view",
			"type": "function"
		},
		{
			"inputs": [
				{
					"internalType": "bytes32",
					"name": "poolId",
					"type": "bytes32"
				},
				{
					"internalType": "uint256",
					"name": "roundId",
					"type": "uint256"
				},
				{
					"internalType": "uint32[]",
					"name": "tickets",
					"type": "uint32[]"
				}
			],
			"name": "buyTickets",
			"outputs": [],
			"stateMutability": "nonpayable",
			"type": "function"
		},
		{
			"inputs": [],
			"name": "callbackGasLimit",
			"outputs": [
				{
					"internalType": "uint32",
					"name": "",
					"type": "uint32"
				}
			],
			"stateMutability": "view",
			"type": "function"
		},
		{
			"inputs": [
				{
					"internalType": "address",
					"name": "to",
					"type": "address"
				},
				{
					"internalType": "bytes32[]",
					"name": "poolIds",
					"type": "bytes32[]"
				},
				{
					"internalType": "uint256[]",
					"name": "roundIds",
					"type": "uint256[]"
				}
			],
			"name": "claimPrizes",
			"outputs": [],
			"stateMutability": "nonpayable",
			"type": "function"
		},
		{
			"inputs": [
				{
					"internalType": "address",
					"name": "to",
					"type": "address"
				}
			],
			"name": "collectReferralReward",
			"outputs": [],
			"stateMutability": "nonpayable",
			"type": "function"
		},
		{
			"inputs": [
				{
					"internalType": "uint8",
					"name": "totalTicketsExp",
					"type": "uint8"
				},
				{
					"internalType": "uint128",
					"name": "prize",
					"type": "uint128"
				},
				{
					"internalType": "uint128",
					"name": "pricePerTicket",
					"type": "uint128"
				},
				{
					"internalType": "uint128",
					"name": "roundDuration",
					"type": "uint128"
				},
				{
					"internalType": "uint128",
					"name": "roundGapTime",
					"type": "uint128"
				},
				{
					"internalType": "uint128",
					"name": "startTime",
					"type": "uint128"
				}
			],
			"name": "createPool",
			"outputs": [
				{
					"internalType": "bytes32",
					"name": "poolId",
					"type": "bytes32"
				}
			],
			"stateMutability": "nonpayable",
			"type": "function"
		},
		{
			"inputs": [
				{
					"internalType": "bytes32",
					"name": "poolId",
					"type": "bytes32"
				}
			],
			"name": "drawEndedRoundAndOpenNewRound",
			"outputs": [],
			"stateMutability": "nonpayable",
			"type": "function"
		},
		{
			"inputs": [],
			"name": "getAllPoolIds",
			"outputs": [
				{
					"internalType": "bytes32[]",
					"name": "poolIds",
					"type": "bytes32[]"
				}
			],
			"stateMutability": "view",
			"type": "function"
		},
		{
			"inputs": [
				{
					"internalType": "address",
					"name": "user",
					"type": "address"
				}
			],
			"name": "getParticipationRecords",
			"outputs": [
				{
					"components": [
						{
							"internalType": "bytes32",
							"name": "poolId",
							"type": "bytes32"
						},
						{
							"internalType": "uint256",
							"name": "roundId",
							"type": "uint256"
						},
						{
							"internalType": "uint32",
							"name": "ticket",
							"type": "uint32"
						}
					],
					"internalType": "struct IPoolManager.ParticipationRecord[]",
					"name": "",
					"type": "tuple[]"
				}
			],
			"stateMutability": "view",
			"type": "function"
		},
		{
			"inputs": [
				{
					"internalType": "bytes32",
					"name": "poolId",
					"type": "bytes32"
				}
			],
			"name": "getPoolInfo",
			"outputs": [
				{
					"internalType": "uint128",
					"name": "prize",
					"type": "uint128"
				},
				{
					"internalType": "uint128",
					"name": "totalTickets",
					"type": "uint128"
				},
				{
					"internalType": "uint128",
					"name": "pricePerTicket",
					"type": "uint128"
				},
				{
					"internalType": "uint128",
					"name": "roundDuration",
					"type": "uint128"
				},
				{
					"internalType": "uint128",
					"name": "roundGapTime",
					"type": "uint128"
				},
				{
					"internalType": "uint256",
					"name": "currentRound",
					"type": "uint256"
				}
			],
			"stateMutability": "view",
			"type": "function"
		},
		{
			"inputs": [
				{
					"internalType": "bytes32",
					"name": "poolId",
					"type": "bytes32"
				},
				{
					"internalType": "uint256",
					"name": "roundId",
					"type": "uint256"
				}
			],
			"name": "getRoundInfo",
			"outputs": [
				{
					"internalType": "uint128",
					"name": "startTime",
					"type": "uint128"
				},
				{
					"internalType": "uint128",
					"name": "endTime",
					"type": "uint128"
				},
				{
					"internalType": "uint128",
					"name": "leftTickets",
					"type": "uint128"
				},
				{
					"internalType": "uint256",
					"name": "vrfRequestId",
					"type": "uint256"
				},
				{
					"internalType": "uint32",
					"name": "winNumber",
					"type": "uint32"
				},
				{
					"internalType": "bool",
					"name": "isClaimed",
					"type": "bool"
				}
			],
			"stateMutability": "view",
			"type": "function"
		},
		{
			"inputs": [
				{
					"internalType": "bytes32",
					"name": "poolId",
					"type": "bytes32"
				},
				{
					"internalType": "uint256",
					"name": "roundId",
					"type": "uint256"
				}
			],
			"name": "getSoldTickets",
			"outputs": [
				{
					"internalType": "uint32[]",
					"name": "soldTickets",
					"type": "uint32[]"
				}
			],
			"stateMutability": "view",
			"type": "function"
		},
		{
			"inputs": [
				{
					"internalType": "bytes32",
					"name": "poolId",
					"type": "bytes32"
				},
				{
					"internalType": "uint256",
					"name": "roundId",
					"type": "uint256"
				},
				{
					"internalType": "uint32",
					"name": "ticket",
					"type": "uint32"
				}
			],
			"name": "getTicketOwner",
			"outputs": [
				{
					"internalType": "address",
					"name": "owner",
					"type": "address"
				}
			],
			"stateMutability": "view",
			"type": "function"
		},
		{
			"inputs": [
				{
					"internalType": "address",
					"name": "user",
					"type": "address"
				}
			],
			"name": "getUnclaimedPrizes",
			"outputs": [
				{
					"internalType": "bytes32[]",
					"name": "poolIds",
					"type": "bytes32[]"
				},
				{
					"internalType": "uint256[]",
					"name": "roundIds",
					"type": "uint256[]"
				},
				{
					"internalType": "uint256",
					"name": "totalPrizes",
					"type": "uint256"
				}
			],
			"stateMutability": "view",
			"type": "function"
		},
		{
			"inputs": [
				{
					"internalType": "address",
					"name": "user",
					"type": "address"
				}
			],
			"name": "getWonParticipationRecords",
			"outputs": [
				{
					"components": [
						{
							"internalType": "bytes32",
							"name": "poolId",
							"type": "bytes32"
						},
						{
							"internalType": "uint256",
							"name": "roundId",
							"type": "uint256"
						},
						{
							"internalType": "uint32",
							"name": "ticket",
							"type": "uint32"
						}
					],
					"internalType": "struct IPoolManager.ParticipationRecord[]",
					"name": "records",
					"type": "tuple[]"
				}
			],
			"stateMutability": "view",
			"type": "function"
		},
		{
			"inputs": [],
			"name": "keyHash",
			"outputs": [
				{
					"internalType": "bytes32",
					"name": "",
					"type": "bytes32"
				}
			],
			"stateMutability": "view",
			"type": "function"
		},
		{
			"inputs": [],
			"name": "minRequestConfirmations",
			"outputs": [
				{
					"internalType": "uint16",
					"name": "",
					"type": "uint16"
				}
			],
			"stateMutability": "view",
			"type": "function"
		},
		{
			"inputs": [],
			"name": "owner",
			"outputs": [
				{
					"internalType": "address",
					"name": "",
					"type": "address"
				}
			],
			"stateMutability": "view",
			"type": "function"
		},
		{
			"inputs": [
				{
					"internalType": "uint256",
					"name": "requestId",
					"type": "uint256"
				},
				{
					"internalType": "uint256[]",
					"name": "randomWords",
					"type": "uint256[]"
				}
			],
			"name": "rawFulfillRandomWords",
			"outputs": [],
			"stateMutability": "nonpayable",
			"type": "function"
		},
		{
			"inputs": [],
			"name": "referralFee",
			"outputs": [
				{
					"internalType": "uint24",
					"name": "",
					"type": "uint24"
				}
			],
			"stateMutability": "view",
			"type": "function"
		},
		{
			"inputs": [
				{
					"internalType": "address",
					"name": "referrer",
					"type": "address"
				}
			],
			"name": "referralRewardAccumulated",
			"outputs": [
				{
					"internalType": "uint256",
					"name": "",
					"type": "uint256"
				}
			],
			"stateMutability": "view",
			"type": "function"
		},
		{
			"inputs": [
				{
					"internalType": "address",
					"name": "referrer",
					"type": "address"
				}
			],
			"name": "referralRewardAccured",
			"outputs": [
				{
					"internalType": "uint256",
					"name": "",
					"type": "uint256"
				}
			],
			"stateMutability": "view",
			"type": "function"
		},
		{
			"inputs": [],
			"name": "renounceOwnership",
			"outputs": [],
			"stateMutability": "nonpayable",
			"type": "function"
		},
		{
			"inputs": [],
			"name": "subId",
			"outputs": [
				{
					"internalType": "uint64",
					"name": "",
					"type": "uint64"
				}
			],
			"stateMutability": "view",
			"type": "function"
		},
		{
			"inputs": [
				{
					"internalType": "address",
					"name": "newOwner",
					"type": "address"
				}
			],
			"name": "transferOwnership",
			"outputs": [],
			"stateMutability": "nonpayable",
			"type": "function"
		},
		{
			"inputs": [
				{
					"internalType": "uint32",
					"name": "newGasLimit",
					"type": "uint32"
				}
			],
			"name": "updateCallbackGasLimit",
			"outputs": [],
			"stateMutability": "nonpayable",
			"type": "function"
		},
		{
			"inputs": [
				{
					"internalType": "bytes32",
					"name": "newKeyHash",
					"type": "bytes32"
				}
			],
			"name": "updateKeyHash",
			"outputs": [],
			"stateMutability": "nonpayable",
			"type": "function"
		},
		{
			"inputs": [
				{
					"internalType": "uint16",
					"name": "newMinRequestConfirmations",
					"type": "uint16"
				}
			],
			"name": "updateMinRequestConfirmations",
			"outputs": [],
			"stateMutability": "nonpayable",
			"type": "function"
		},
		{
			"inputs": [
				{
					"internalType": "uint24",
					"name": "newReferralFee",
					"type": "uint24"
				}
			],
			"name": "updateReferralFee",
			"outputs": [],
			"stateMutability": "nonpayable",
			"type": "function"
		},
		{
			"inputs": [
				{
					"internalType": "uint64",
					"name": "newSubId",
					"type": "uint64"
				}
			],
			"name": "updateSubId",
			"outputs": [],
			"stateMutability": "nonpayable",
			"type": "function"
		},
		{
			"inputs": [],
			"name": "usdt",
			"outputs": [
				{
					"internalType": "contract IERC20",
					"name": "",
					"type": "address"
				}
			],
			"stateMutability": "view",
			"type": "function"
		},
		{
			"inputs": [],
			"name": "userRegistar",
			"outputs": [
				{
					"internalType": "contract IUserRegistar",
					"name": "",
					"type": "address"
				}
			],
			"stateMutability": "view",
			"type": "function"
		},
		{
			"inputs": [],
			"name": "vrfCoordinator",
			"outputs": [
				{
					"internalType": "contract VRFCoordinatorV2Interface",
					"name": "",
					"type": "address"
				}
			],
			"stateMutability": "view",
			"type": "function"
		},
		{
			"inputs": [
				{
					"internalType": "address",
					"name": "to",
					"type": "address"
				},
				{
					"internalType": "uint256",
					"name": "amount",
					"type": "uint256"
				}
			],
			"name": "withdrawUsdt",
			"outputs": [],
			"stateMutability": "nonpayable",
			"type": "function"
		}
	]
}